{
  "_format": "hh-sol-artifact-1",
  "contractName": "DiamondDawn",
  "sourceName": "contracts/DiamondDawn.sol",
  "abi": [
    {
      "inputs": [],
      "stateMutability": "nonpayable",
      "type": "constructor"
    },
    {
      "anonymous": false,
      "inputs": [
        {
          "indexed": true,
          "internalType": "address",
          "name": "owner",
          "type": "address"
        },
        {
          "indexed": true,
          "internalType": "address",
          "name": "approved",
          "type": "address"
        },
        {
          "indexed": true,
          "internalType": "uint256",
          "name": "tokenId",
          "type": "uint256"
        }
      ],
      "name": "Approval",
      "type": "event"
    },
    {
      "anonymous": false,
      "inputs": [
        {
          "indexed": true,
          "internalType": "address",
          "name": "owner",
          "type": "address"
        },
        {
          "indexed": true,
          "internalType": "address",
          "name": "operator",
          "type": "address"
        },
        {
          "indexed": false,
          "internalType": "bool",
          "name": "approved",
          "type": "bool"
        }
      ],
      "name": "ApprovalForAll",
      "type": "event"
    },
    {
      "anonymous": false,
      "inputs": [
        {
          "indexed": false,
          "internalType": "address",
          "name": "account",
          "type": "address"
        }
      ],
      "name": "Paused",
      "type": "event"
    },
    {
      "anonymous": false,
      "inputs": [
        {
          "indexed": true,
          "internalType": "bytes32",
          "name": "role",
          "type": "bytes32"
        },
        {
          "indexed": true,
          "internalType": "bytes32",
          "name": "previousAdminRole",
          "type": "bytes32"
        },
        {
          "indexed": true,
          "internalType": "bytes32",
          "name": "newAdminRole",
          "type": "bytes32"
        }
      ],
      "name": "RoleAdminChanged",
      "type": "event"
    },
    {
      "anonymous": false,
      "inputs": [
        {
          "indexed": true,
          "internalType": "bytes32",
          "name": "role",
          "type": "bytes32"
        },
        {
          "indexed": true,
          "internalType": "address",
          "name": "account",
          "type": "address"
        },
        {
          "indexed": true,
          "internalType": "address",
          "name": "sender",
          "type": "address"
        }
      ],
      "name": "RoleGranted",
      "type": "event"
    },
    {
      "anonymous": false,
      "inputs": [
        {
          "indexed": true,
          "internalType": "bytes32",
          "name": "role",
          "type": "bytes32"
        },
        {
          "indexed": true,
          "internalType": "address",
          "name": "account",
          "type": "address"
        },
        {
          "indexed": true,
          "internalType": "address",
          "name": "sender",
          "type": "address"
        }
      ],
      "name": "RoleRevoked",
      "type": "event"
    },
    {
      "anonymous": false,
      "inputs": [
        {
          "indexed": true,
          "internalType": "address",
          "name": "from",
          "type": "address"
        },
        {
          "indexed": true,
          "internalType": "address",
          "name": "to",
          "type": "address"
        },
        {
          "indexed": true,
          "internalType": "uint256",
          "name": "tokenId",
          "type": "uint256"
        }
      ],
      "name": "Transfer",
      "type": "event"
    },
    {
      "anonymous": false,
      "inputs": [
        {
          "indexed": false,
          "internalType": "address",
          "name": "account",
          "type": "address"
        }
      ],
      "name": "Unpaused",
      "type": "event"
    },
    {
      "inputs": [],
      "name": "CUT_PRICE",
      "outputs": [
        {
          "internalType": "uint256",
          "name": "",
          "type": "uint256"
        }
      ],
      "stateMutability": "view",
      "type": "function"
    },
    {
      "inputs": [],
      "name": "DEFAULT_ADMIN_ROLE",
      "outputs": [
        {
          "internalType": "bytes32",
          "name": "",
          "type": "bytes32"
        }
      ],
      "stateMutability": "view",
      "type": "function"
    },
    {
      "inputs": [],
      "name": "MINING_PRICE",
      "outputs": [
        {
          "internalType": "uint256",
          "name": "",
          "type": "uint256"
        }
      ],
      "stateMutability": "view",
      "type": "function"
    },
    {
      "inputs": [],
      "name": "MINTER_ROLE",
      "outputs": [
        {
          "internalType": "bytes32",
          "name": "",
          "type": "bytes32"
        }
      ],
      "stateMutability": "view",
      "type": "function"
    },
    {
      "inputs": [],
      "name": "PAUSER_ROLE",
      "outputs": [
        {
          "internalType": "bytes32",
          "name": "",
          "type": "bytes32"
        }
      ],
      "stateMutability": "view",
      "type": "function"
    },
    {
      "inputs": [],
      "name": "POLISH_PRICE",
      "outputs": [
        {
          "internalType": "uint256",
          "name": "",
          "type": "uint256"
        }
      ],
      "stateMutability": "view",
      "type": "function"
    },
    {
      "inputs": [],
      "name": "PREPAID_CUT_PRICE",
      "outputs": [
        {
          "internalType": "uint256",
          "name": "",
          "type": "uint256"
        }
      ],
      "stateMutability": "view",
      "type": "function"
    },
    {
      "inputs": [],
      "name": "PREPAID_POLISH_PRICE",
      "outputs": [
        {
          "internalType": "uint256",
          "name": "",
          "type": "uint256"
        }
      ],
      "stateMutability": "view",
      "type": "function"
    },
    {
      "inputs": [
        {
          "internalType": "address[]",
          "name": "addresses",
          "type": "address[]"
        }
      ],
      "name": "addToAllowList",
      "outputs": [],
      "stateMutability": "nonpayable",
      "type": "function"
    },
    {
      "inputs": [
        {
          "internalType": "address",
          "name": "to",
          "type": "address"
        },
        {
          "internalType": "uint256",
          "name": "tokenId",
          "type": "uint256"
        }
      ],
      "name": "approve",
      "outputs": [],
      "stateMutability": "nonpayable",
      "type": "function"
    },
    {
      "inputs": [
        {
          "internalType": "address",
          "name": "owner",
          "type": "address"
        }
      ],
      "name": "balanceOf",
      "outputs": [
        {
          "internalType": "uint256",
          "name": "",
          "type": "uint256"
        }
      ],
      "stateMutability": "view",
      "type": "function"
    },
    {
      "inputs": [
        {
          "internalType": "uint256",
          "name": "tokenId",
          "type": "uint256"
        }
      ],
      "name": "burn",
      "outputs": [],
      "stateMutability": "nonpayable",
      "type": "function"
    },
    {
      "inputs": [],
      "name": "completeCurrentStage",
      "outputs": [],
      "stateMutability": "nonpayable",
      "type": "function"
    },
    {
      "inputs": [
        {
          "internalType": "uint256",
          "name": "tokenId",
          "type": "uint256"
        }
      ],
      "name": "cut",
      "outputs": [],
      "stateMutability": "payable",
      "type": "function"
    },
    {
      "inputs": [],
      "name": "dev__ResetStage",
      "outputs": [],
      "stateMutability": "nonpayable",
      "type": "function"
    },
    {
      "inputs": [
        {
          "internalType": "uint256",
          "name": "tokenId",
          "type": "uint256"
        }
      ],
      "name": "getApproved",
      "outputs": [
        {
          "internalType": "address",
          "name": "",
          "type": "address"
        }
      ],
      "stateMutability": "view",
      "type": "function"
    },
    {
      "inputs": [
        {
          "internalType": "bytes32",
          "name": "role",
          "type": "bytes32"
        }
      ],
      "name": "getRoleAdmin",
      "outputs": [
        {
          "internalType": "bytes32",
          "name": "",
          "type": "bytes32"
        }
      ],
      "stateMutability": "view",
      "type": "function"
    },
    {
      "inputs": [
        {
          "internalType": "bytes32",
          "name": "role",
          "type": "bytes32"
        },
        {
          "internalType": "address",
          "name": "account",
          "type": "address"
        }
      ],
      "name": "grantRole",
      "outputs": [],
      "stateMutability": "nonpayable",
      "type": "function"
    },
    {
      "inputs": [
        {
          "internalType": "bytes32",
          "name": "role",
          "type": "bytes32"
        },
        {
          "internalType": "address",
          "name": "account",
          "type": "address"
        }
      ],
      "name": "hasRole",
      "outputs": [
        {
          "internalType": "bool",
          "name": "",
          "type": "bool"
        }
      ],
      "stateMutability": "view",
      "type": "function"
    },
    {
      "inputs": [
        {
          "internalType": "address",
          "name": "owner",
          "type": "address"
        },
        {
          "internalType": "address",
          "name": "operator",
          "type": "address"
        }
      ],
      "name": "isApprovedForAll",
      "outputs": [
        {
          "internalType": "bool",
          "name": "",
          "type": "bool"
        }
      ],
      "stateMutability": "view",
      "type": "function"
    },
    {
      "inputs": [],
      "name": "isStageActive",
      "outputs": [
        {
          "internalType": "bool",
          "name": "",
          "type": "bool"
        }
      ],
      "stateMutability": "view",
      "type": "function"
    },
    {
      "inputs": [
        {
          "internalType": "uint256",
          "name": "processesPurchased",
          "type": "uint256"
        }
      ],
      "name": "mine",
      "outputs": [],
      "stateMutability": "payable",
      "type": "function"
    },
    {
      "inputs": [],
      "name": "name",
      "outputs": [
        {
          "internalType": "string",
          "name": "",
          "type": "string"
        }
      ],
      "stateMutability": "view",
      "type": "function"
    },
    {
      "inputs": [
        {
          "internalType": "uint256",
          "name": "tokenId",
          "type": "uint256"
        }
      ],
      "name": "ownerOf",
      "outputs": [
        {
          "internalType": "address",
          "name": "",
          "type": "address"
        }
      ],
      "stateMutability": "view",
      "type": "function"
    },
    {
      "inputs": [],
      "name": "pause",
      "outputs": [],
      "stateMutability": "nonpayable",
      "type": "function"
    },
    {
      "inputs": [],
      "name": "paused",
      "outputs": [
        {
          "internalType": "bool",
          "name": "",
          "type": "bool"
        }
      ],
      "stateMutability": "view",
      "type": "function"
    },
    {
      "inputs": [
        {
          "internalType": "uint256",
          "name": "tokenId",
          "type": "uint256"
        }
      ],
      "name": "polish",
      "outputs": [],
      "stateMutability": "payable",
      "type": "function"
    },
    {
      "inputs": [
        {
          "internalType": "uint256",
          "name": "tokenId",
          "type": "uint256"
        }
      ],
      "name": "rebirth",
      "outputs": [],
      "stateMutability": "nonpayable",
      "type": "function"
    },
    {
      "inputs": [
        {
          "internalType": "bytes32",
          "name": "role",
          "type": "bytes32"
        },
        {
          "internalType": "address",
          "name": "account",
          "type": "address"
        }
      ],
      "name": "renounceRole",
      "outputs": [],
      "stateMutability": "nonpayable",
      "type": "function"
    },
    {
      "inputs": [
        {
          "internalType": "string",
          "name": "videoUrl",
          "type": "string"
        }
      ],
      "name": "revealStage",
      "outputs": [],
      "stateMutability": "nonpayable",
      "type": "function"
    },
    {
      "inputs": [
        {
          "internalType": "bytes32",
          "name": "role",
          "type": "bytes32"
        },
        {
          "internalType": "address",
          "name": "account",
          "type": "address"
        }
      ],
      "name": "revokeRole",
      "outputs": [],
      "stateMutability": "nonpayable",
      "type": "function"
    },
    {
      "inputs": [
        {
          "internalType": "address",
          "name": "to",
          "type": "address"
        }
      ],
      "name": "safeMint",
      "outputs": [],
      "stateMutability": "nonpayable",
      "type": "function"
    },
    {
      "inputs": [
        {
          "internalType": "address",
          "name": "from",
          "type": "address"
        },
        {
          "internalType": "address",
          "name": "to",
          "type": "address"
        },
        {
          "internalType": "uint256",
          "name": "tokenId",
          "type": "uint256"
        }
      ],
      "name": "safeTransferFrom",
      "outputs": [],
      "stateMutability": "nonpayable",
      "type": "function"
    },
    {
      "inputs": [
        {
          "internalType": "address",
          "name": "from",
          "type": "address"
        },
        {
          "internalType": "address",
          "name": "to",
          "type": "address"
        },
        {
          "internalType": "uint256",
          "name": "tokenId",
          "type": "uint256"
        },
        {
          "internalType": "bytes",
          "name": "_data",
          "type": "bytes"
        }
      ],
      "name": "safeTransferFrom",
      "outputs": [],
      "stateMutability": "nonpayable",
      "type": "function"
    },
    {
      "inputs": [
        {
          "internalType": "address",
          "name": "operator",
          "type": "address"
        },
        {
          "internalType": "bool",
          "name": "approved",
          "type": "bool"
        }
      ],
      "name": "setApprovalForAll",
      "outputs": [],
      "stateMutability": "nonpayable",
      "type": "function"
    },
    {
      "inputs": [
        {
          "internalType": "uint256",
          "name": "price",
          "type": "uint256"
        }
      ],
      "name": "setProcessingPrice",
      "outputs": [],
      "stateMutability": "nonpayable",
      "type": "function"
    },
    {
      "inputs": [],
      "name": "stage",
      "outputs": [
        {
          "internalType": "enum DiamondDawn.Stage",
          "name": "",
          "type": "uint8"
        }
      ],
      "stateMutability": "view",
      "type": "function"
    },
    {
      "inputs": [
        {
          "internalType": "bytes4",
          "name": "interfaceId",
          "type": "bytes4"
        }
      ],
      "name": "supportsInterface",
      "outputs": [
        {
          "internalType": "bool",
          "name": "",
          "type": "bool"
        }
      ],
      "stateMutability": "view",
      "type": "function"
    },
    {
      "inputs": [],
      "name": "symbol",
      "outputs": [
        {
          "internalType": "string",
          "name": "",
          "type": "string"
        }
      ],
      "stateMutability": "view",
      "type": "function"
    },
    {
      "inputs": [
        {
          "internalType": "uint256",
          "name": "tokenId",
          "type": "uint256"
        }
      ],
      "name": "tokenURI",
      "outputs": [
        {
          "internalType": "string",
          "name": "",
          "type": "string"
        }
      ],
      "stateMutability": "view",
      "type": "function"
    },
    {
      "inputs": [
        {
          "internalType": "address",
          "name": "from",
          "type": "address"
        },
        {
          "internalType": "address",
          "name": "to",
          "type": "address"
        },
        {
          "internalType": "uint256",
          "name": "tokenId",
          "type": "uint256"
        }
      ],
      "name": "transferFrom",
      "outputs": [],
      "stateMutability": "nonpayable",
      "type": "function"
    },
    {
      "inputs": [],
      "name": "unpause",
      "outputs": [],
      "stateMutability": "nonpayable",
      "type": "function"
    }
  ],
  "bytecode": "0x60806040523480156200001157600080fd5b506040518060400160405280600b81526020017f4469616d6f6e644461776e0000000000000000000000000000000000000000008152506040518060400160405280600281526020017f444400000000000000000000000000000000000000000000000000000000000081525081600090805190602001906200009692919062000431565b508060019080519060200190620000af92919062000431565b5050506000600660006101000a81548160ff021916908315150217905550620000e26000801b33620001fd60201b60201c565b620001147f65d7a28e3265b37a6474929f336521b332c1681b933f6cb9f3376673440d862a33620001fd60201b60201c565b620001467f9f2df0fed2c77648de5860a4cc508cd0818c85b8b8a1ab4ceeef8d981c8956a633620001fd60201b60201c565b6001600c60003373ffffffffffffffffffffffffffffffffffffffff1673ffffffffffffffffffffffffffffffffffffffff16815260200190815260200160002060006101000a81548160ff0219169083151502179055506000600960006101000a81548160ff02191690836004811115620001c757620001c6620004e1565b5b02179055506000600960016101000a81548160ff021916908315150217905550620001f7620002ef60201b60201c565b62000659565b6200020f8282620003a760201b60201c565b620002eb5760016007600084815260200190815260200160002060000160008373ffffffffffffffffffffffffffffffffffffffff1673ffffffffffffffffffffffffffffffffffffffff16815260200190815260200160002060006101000a81548160ff021916908315150217905550620002906200041260201b60201c565b73ffffffffffffffffffffffffffffffffffffffff168173ffffffffffffffffffffffffffffffffffffffff16837f2f8788117e7eff1d82e926ec794901d17c78024a50270940304540a733656f0d60405160405180910390a45b5050565b620002ff6200041a60201b60201c565b1562000342576040517f08c379a0000000000000000000000000000000000000000000000000000000008152600401620003399062000571565b60405180910390fd5b6001600660006101000a81548160ff0219169083151502179055507f62e78cea01bee320cd4e420270b5ea74000d11b0c9f74754ebdbfc544b05a2586200038e6200041260201b60201c565b6040516200039d9190620005d8565b60405180910390a1565b60006007600084815260200190815260200160002060000160008373ffffffffffffffffffffffffffffffffffffffff1673ffffffffffffffffffffffffffffffffffffffff16815260200190815260200160002060009054906101000a900460ff16905092915050565b600033905090565b6000600660009054906101000a900460ff16905090565b8280546200043f9062000624565b90600052602060002090601f016020900481019282620004635760008555620004af565b82601f106200047e57805160ff1916838001178555620004af565b82800160010185558215620004af579182015b82811115620004ae57825182559160200191906001019062000491565b5b509050620004be9190620004c2565b5090565b5b80821115620004dd576000816000905550600101620004c3565b5090565b7f4e487b7100000000000000000000000000000000000000000000000000000000600052602160045260246000fd5b600082825260208201905092915050565b7f5061757361626c653a2070617573656400000000000000000000000000000000600082015250565b60006200055960108362000510565b9150620005668262000521565b602082019050919050565b600060208201905081810360008301526200058c816200054a565b9050919050565b600073ffffffffffffffffffffffffffffffffffffffff82169050919050565b6000620005c08262000593565b9050919050565b620005d281620005b3565b82525050565b6000602082019050620005ef6000830184620005c7565b92915050565b7f4e487b7100000000000000000000000000000000000000000000000000000000600052602260045260246000fd5b600060028204905060018216806200063d57607f821691505b602082108103620006535762000652620005f5565b5b50919050565b61570d80620006696000396000f3fe6080604052600436106102515760003560e01c80636a1eb87e11610139578063bc6399e7116100b6578063d53913931161007a578063d53913931461084b578063d547741f14610876578063e63ab1e91461089f578063e8a77d17146108ca578063e985e9c5146108f3578063f4273b321461093057610251565b8063bc6399e714610771578063bf72b63f1461079c578063c040e6b8146107b8578063c87b56dd146107e3578063cc1169791461082057610251565b806395d89b41116100fd57806395d89b41146106a0578063a217fddf146106cb578063a22cb465146106f6578063abdfe2751461071f578063b88d4fde1461074857610251565b80636a1eb87e146105bb57806370a08231146105e65780637263cfe2146106235780638456cb591461064c57806391d148541461066357610251565b80632f2ff15d116101d257806342966c681161019657806342966c68146104b857806344e5d1df146104e15780634d4748981461050c5780635c975abb146105285780635ed6ac4f146105535780636352211e1461057e57610251565b80632f2ff15d146103fd57806336568abe146104265780633f4ba83a1461044f57806340d097c31461046657806342842e0e1461048f57610251565b80630a49008d116102195780630a49008d14610340578063140865f31461036957806315afd8f81461038057806323b872dd14610397578063248a9ca3146103c057610251565b806301ffc9a71461025657806306fdde0314610293578063081812fc146102be57806309260db7146102fb578063095ea7b314610317575b600080fd5b34801561026257600080fd5b5061027d60048036038101906102789190613833565b61095b565b60405161028a919061387b565b60405180910390f35b34801561029f57600080fd5b506102a861096d565b6040516102b5919061392f565b60405180910390f35b3480156102ca57600080fd5b506102e560048036038101906102e09190613987565b6109ff565b6040516102f291906139f5565b60405180910390f35b61031560048036038101906103109190613987565b610a84565b005b34801561032357600080fd5b5061033e60048036038101906103399190613a3c565b610aad565b005b34801561034c57600080fd5b5061036760048036038101906103629190613bb1565b610bc4565b005b34801561037557600080fd5b5061037e610bd8565b005b34801561038c57600080fd5b50610395610c32565b005b3480156103a357600080fd5b506103be60048036038101906103b99190613bfa565b610c44565b005b3480156103cc57600080fd5b506103e760048036038101906103e29190613c83565b610ca4565b6040516103f49190613cbf565b60405180910390f35b34801561040957600080fd5b50610424600480360381019061041f9190613cda565b610cc4565b005b34801561043257600080fd5b5061044d60048036038101906104489190613cda565b610ce5565b005b34801561045b57600080fd5b50610464610d68565b005b34801561047257600080fd5b5061048d60048036038101906104889190613d1a565b610d9d565b005b34801561049b57600080fd5b506104b660048036038101906104b19190613bfa565b610dee565b005b3480156104c457600080fd5b506104df60048036038101906104da9190613987565b610e0e565b005b3480156104ed57600080fd5b506104f6610ecd565b6040516105039190613d56565b60405180910390f35b61052660048036038101906105219190613987565b610ed9565b005b34801561053457600080fd5b5061053d611090565b60405161054a919061387b565b60405180910390f35b34801561055f57600080fd5b506105686110a7565b604051610575919061387b565b60405180910390f35b34801561058a57600080fd5b506105a560048036038101906105a09190613987565b6110ba565b6040516105b291906139f5565b60405180910390f35b3480156105c757600080fd5b506105d061116b565b6040516105dd9190613d56565b60405180910390f35b3480156105f257600080fd5b5061060d60048036038101906106089190613d1a565b611177565b60405161061a9190613d56565b60405180910390f35b34801561062f57600080fd5b5061064a60048036038101906106459190613e39565b61122e565b005b34801561065857600080fd5b506106616112d1565b005b34801561066f57600080fd5b5061068a60048036038101906106859190613cda565b611306565b604051610697919061387b565b60405180910390f35b3480156106ac57600080fd5b506106b5611371565b6040516106c2919061392f565b60405180910390f35b3480156106d757600080fd5b506106e0611403565b6040516106ed9190613cbf565b60405180910390f35b34801561070257600080fd5b5061071d60048036038101906107189190613eae565b61140a565b005b34801561072b57600080fd5b5061074660048036038101906107419190613987565b611420565b005b34801561075457600080fd5b5061076f600480360381019061076a9190613f8f565b611431565b005b34801561077d57600080fd5b50610786611493565b6040516107939190613d56565b60405180910390f35b6107b660048036038101906107b19190613987565b61149f565b005b3480156107c457600080fd5b506107cd6114c8565b6040516107da9190614089565b60405180910390f35b3480156107ef57600080fd5b5061080a60048036038101906108059190613987565b6114db565b604051610817919061392f565b60405180910390f35b34801561082c57600080fd5b50610835611578565b6040516108429190613d56565b60405180910390f35b34801561085757600080fd5b50610860611584565b60405161086d9190613cbf565b60405180910390f35b34801561088257600080fd5b5061089d60048036038101906108989190613cda565b6115a8565b005b3480156108ab57600080fd5b506108b46115c9565b6040516108c19190613cbf565b60405180910390f35b3480156108d657600080fd5b506108f160048036038101906108ec9190613987565b6115ed565b005b3480156108ff57600080fd5b5061091a600480360381019061091591906140a4565b6117e1565b604051610927919061387b565b60405180910390f35b34801561093c57600080fd5b50610945611875565b6040516109529190613d56565b60405180910390f35b600061096682611881565b9050919050565b60606000805461097c90614113565b80601f01602080910402602001604051908101604052809291908181526020018280546109a890614113565b80156109f55780601f106109ca576101008083540402835291602001916109f5565b820191906000526020600020905b8154815290600101906020018083116109d857829003601f168201915b5050505050905090565b6000610a0a826118fb565b610a49576040517f08c379a0000000000000000000000000000000000000000000000000000000008152600401610a40906141b6565b60405180910390fd5b6004600083815260200190815260200160002060009054906101000a900473ffffffffffffffffffffffffffffffffffffffff169050919050565b6001610a8e611967565b610a97816119b8565b610aa98267058d15e176280000611a6d565b5050565b6000610ab8826110ba565b90508073ffffffffffffffffffffffffffffffffffffffff168373ffffffffffffffffffffffffffffffffffffffff1603610b28576040517f08c379a0000000000000000000000000000000000000000000000000000000008152600401610b1f90614248565b60405180910390fd5b8073ffffffffffffffffffffffffffffffffffffffff16610b47611cdb565b73ffffffffffffffffffffffffffffffffffffffff161480610b765750610b7581610b70611cdb565b6117e1565b5b610bb5576040517f08c379a0000000000000000000000000000000000000000000000000000000008152600401610bac906142da565b60405180910390fd5b610bbf8383611ce3565b505050565b610bcc611d9c565b610bd581611dc7565b50565b60006004811115610bec57610beb614012565b5b600960006101000a81548160ff02191690836004811115610c1057610c0f614012565b5b02179055506000600960016101000a81548160ff021916908315150217905550565b610c3a611e33565b610c42611e5e565b565b610c55610c4f611cdb565b82611eaf565b610c94576040517f08c379a0000000000000000000000000000000000000000000000000000000008152600401610c8b9061436c565b60405180910390fd5b610c9f838383611f8d565b505050565b600060076000838152602001908152602001600020600101549050919050565b610ccd82610ca4565b610cd6816121f3565b610ce08383612207565b505050565b610ced611cdb565b73ffffffffffffffffffffffffffffffffffffffff168173ffffffffffffffffffffffffffffffffffffffff1614610d5a576040517f08c379a0000000000000000000000000000000000000000000000000000000008152600401610d51906143fe565b60405180910390fd5b610d6482826122e8565b5050565b7f65d7a28e3265b37a6474929f336521b332c1681b933f6cb9f3376673440d862a610d92816121f3565b610d9a6123ca565b50565b7f9f2df0fed2c77648de5860a4cc508cd0818c85b8b8a1ab4ceeef8d981c8956a6610dc7816121f3565b6000610dd3600861246c565b9050610ddf600861247a565b610de98382612490565b505050565b610e0983838360405180602001604052806000815250611431565b505050565b6003610e18611967565b610e21816119b8565b610e2a826124ae565b610e338261250a565b600b600084815260200190815260200160002060000160006101000a81548160ff02191690836004811115610e6b57610e6a614012565b5b0217905550610e78611cdb565b600d600084815260200190815260200160002060006101000a81548173ffffffffffffffffffffffffffffffffffffffff021916908373ffffffffffffffffffffffffffffffffffffffff1602179055505050565b67058d15e17628000081565b6000610ee3611967565b610eec816119b8565b600c6000610ef8611cdb565b73ffffffffffffffffffffffffffffffffffffffff1673ffffffffffffffffffffffffffffffffffffffff16815260200190815260200160002060009054906101000a900460ff16610f7f576040517f08c379a0000000000000000000000000000000000000000000000000000000008152600401610f7690614490565b60405180910390fd5b610f888261253f565b610f9282346125ec565b6000610f9e600861246c565b9050610faa600861247a565b610fb43382612490565b604051806040016040528060006004811115610fd357610fd2614012565b5b815260200184815250600b600083815260200190815260200160002060008201518160000160006101000a81548160ff0219169083600481111561101a57611019614012565b5b0217905550602082015181600101559050506000600c600061103a611cdb565b73ffffffffffffffffffffffffffffffffffffffff1673ffffffffffffffffffffffffffffffffffffffff16815260200190815260200160002060006101000a81548160ff021916908315150217905550505050565b6000600660009054906101000a900460ff16905090565b600960019054906101000a900460ff1681565b6000806002600084815260200190815260200160002060009054906101000a900473ffffffffffffffffffffffffffffffffffffffff169050600073ffffffffffffffffffffffffffffffffffffffff168173ffffffffffffffffffffffffffffffffffffffff1603611162576040517f08c379a000000000000000000000000000000000000000000000000000000000815260040161115990614522565b60405180910390fd5b80915050919050565b670853a0d2313c000081565b60008073ffffffffffffffffffffffffffffffffffffffff168273ffffffffffffffffffffffffffffffffffffffff16036111e7576040517f08c379a00000000000000000000000000000000000000000000000000000000081526004016111de906145b4565b60405180910390fd5b600360008373ffffffffffffffffffffffffffffffffffffffff1673ffffffffffffffffffffffffffffffffffffffff168152602001908152602001600020549050919050565b6000801b61123b816121f3565b60005b82518110156112cc576001600c60008584815181106112605761125f6145d4565b5b602002602001015173ffffffffffffffffffffffffffffffffffffffff1673ffffffffffffffffffffffffffffffffffffffff16815260200190815260200160002060006101000a81548160ff02191690831515021790555080806112c490614632565b91505061123e565b505050565b7f65d7a28e3265b37a6474929f336521b332c1681b933f6cb9f3376673440d862a6112fb816121f3565b6113036126ab565b50565b60006007600084815260200190815260200160002060000160008373ffffffffffffffffffffffffffffffffffffffff1673ffffffffffffffffffffffffffffffffffffffff16815260200190815260200160002060009054906101000a900460ff16905092915050565b60606001805461138090614113565b80601f01602080910402602001604051908101604052809291908181526020018280546113ac90614113565b80156113f95780601f106113ce576101008083540402835291602001916113f9565b820191906000526020600020905b8154815290600101906020018083116113dc57829003601f168201915b5050505050905090565b6000801b81565b61141c611415611cdb565b838361274e565b5050565b6000801b61142d816121f3565b5050565b61144261143c611cdb565b83611eaf565b611481576040517f08c379a00000000000000000000000000000000000000000000000000000000081526004016114789061436c565b60405180910390fd5b61148d848484846128ba565b50505050565b6702c68af0bb14000081565b60026114a9611967565b6114b2816119b8565b6114c482670853a0d2313c0000611a6d565b5050565b600960009054906101000a900460ff1681565b6060600061154e6114eb84612916565b611529600b600087815260200190815260200160002060000160009054906101000a900460ff16600481111561152457611523614012565b5b612a02565b60405160200161153a9291906148a4565b604051602081830303815290604052612b62565b9050806040516020016115619190614935565b604051602081830303815290604052915050919050565b6702c68af0bb14000081565b7f9f2df0fed2c77648de5860a4cc508cd0818c85b8b8a1ab4ceeef8d981c8956a681565b6115b182610ca4565b6115ba816121f3565b6115c483836122e8565b505050565b7f65d7a28e3265b37a6474929f336521b332c1681b933f6cb9f3376673440d862a81565b6003600481111561160157611600614012565b5b600960009054906101000a900460ff16600481111561162357611622614012565b5b14801561163c5750600960019054906101000a900460ff165b80611679575060048081111561165557611654614012565b5b600960009054906101000a900460ff16600481111561167757611676614012565b5b145b6116b8576040517f08c379a00000000000000000000000000000000000000000000000000000000081526004016116af906149c9565b60405180910390fd5b6000600d600083815260200190815260200160002060009054906101000a900473ffffffffffffffffffffffffffffffffffffffff1690508073ffffffffffffffffffffffffffffffffffffffff1661170f611cdb565b73ffffffffffffffffffffffffffffffffffffffff161460405160200161173590614a5b565b60405160208183030381529060405290611785576040517f08c379a000000000000000000000000000000000000000000000000000000000815260040161177c919061392f565b60405180910390fd5b5061178f8261250a565b600b600084815260200190815260200160002060000160006101000a81548160ff021916908360048111156117c7576117c6614012565b5b02179055506117dd6117d7611cdb565b83612490565b5050565b6000600560008473ffffffffffffffffffffffffffffffffffffffff1673ffffffffffffffffffffffffffffffffffffffff16815260200190815260200160002060008373ffffffffffffffffffffffffffffffffffffffff1673ffffffffffffffffffffffffffffffffffffffff16815260200190815260200160002060009054906101000a900460ff16905092915050565b67058d15e17628000081565b60007f7965db0b000000000000000000000000000000000000000000000000000000007bffffffffffffffffffffffffffffffffffffffffffffffffffffffff1916827bffffffffffffffffffffffffffffffffffffffffffffffffffffffff191614806118f457506118f382612cc5565b5b9050919050565b60008073ffffffffffffffffffffffffffffffffffffffff166002600084815260200190815260200160002060009054906101000a900473ffffffffffffffffffffffffffffffffffffffff1673ffffffffffffffffffffffffffffffffffffffff1614159050919050565b600960019054906101000a900460ff166119b6576040517f08c379a00000000000000000000000000000000000000000000000000000000081526004016119ad906149c9565b60405180910390fd5b565b8060048111156119cb576119ca614012565b5b600960009054906101000a900460ff1660048111156119ed576119ec614012565b5b14611a09826004811115611a0457611a03614012565b5b612a02565b604051602001611a199190614abc565b60405160208183030381529060405290611a69576040517f08c379a0000000000000000000000000000000000000000000000000000000008152600401611a60919061392f565b60405180910390fd5b5050565b611a7e611a78611cdb565b83611eaf565b611abd576040517f08c379a0000000000000000000000000000000000000000000000000000000008152600401611ab490614b63565b60405180910390fd5b6001600960009054906101000a900460ff166004811115611ae157611ae0614012565b5b611aeb9190614b83565b600b600084815260200190815260200160002060000160009054906101000a900460ff166004811115611b2157611b20614012565b5b14611b586001600960009054906101000a900460ff166004811115611b4957611b48614012565b5b611b539190614b83565b612a02565b604051602001611b689190614c29565b60405160208183030381529060405290611bb8576040517f08c379a0000000000000000000000000000000000000000000000000000000008152600401611baf919061392f565b60405180910390fd5b506000600b60008481526020019081526020016000206001015403611c4557803414611be382612a02565b604051602001611bf39190614ccc565b60405160208183030381529060405290611c43576040517f08c379a0000000000000000000000000000000000000000000000000000000008152600401611c3a919061392f565b60405180910390fd5b505b6000600b6000848152602001908152602001600020600101541115611c9157600b60008381526020019081526020016000206001016000815480929190611c8b90614cee565b91905055505b611c9a8261250a565b600b600084815260200190815260200160002060000160006101000a81548160ff02191690836004811115611cd257611cd1614012565b5b02179055505050565b600033905090565b816004600083815260200190815260200160002060006101000a81548173ffffffffffffffffffffffffffffffffffffffff021916908373ffffffffffffffffffffffffffffffffffffffff160217905550808273ffffffffffffffffffffffffffffffffffffffff16611d56836110ba565b73ffffffffffffffffffffffffffffffffffffffff167f8c5be1e5ebec7d5bd14f71427d1e84f3dd0314c0f7b2291e5b200ac8c7c3b92560405160405180910390a45050565b6000801b611da9816121f3565b6001600960016101000a81548160ff02191690831515021790555050565b6000801b611dd4816121f3565b81600a6000600960009054906101000a900460ff166004811115611dfb57611dfa614012565b5b6004811115611e0d57611e0c614012565b5b81526020019081526020016000209080519060200190611e2e929190613724565b505050565b6000801b611e40816121f3565b6000600960016101000a81548160ff02191690831515021790555050565b6000801b611e6b816121f3565b611e83600960009054906101000a900460ff16612da7565b600960006101000a81548160ff02191690836004811115611ea757611ea6614012565b5b021790555050565b6000611eba826118fb565b611ef9576040517f08c379a0000000000000000000000000000000000000000000000000000000008152600401611ef090614d89565b60405180910390fd5b6000611f04836110ba565b90508073ffffffffffffffffffffffffffffffffffffffff168473ffffffffffffffffffffffffffffffffffffffff161480611f465750611f4581856117e1565b5b80611f8457508373ffffffffffffffffffffffffffffffffffffffff16611f6c846109ff565b73ffffffffffffffffffffffffffffffffffffffff16145b91505092915050565b8273ffffffffffffffffffffffffffffffffffffffff16611fad826110ba565b73ffffffffffffffffffffffffffffffffffffffff1614612003576040517f08c379a0000000000000000000000000000000000000000000000000000000008152600401611ffa90614e1b565b60405180910390fd5b600073ffffffffffffffffffffffffffffffffffffffff168273ffffffffffffffffffffffffffffffffffffffff1603612072576040517f08c379a000000000000000000000000000000000000000000000000000000000815260040161206990614ead565b60405180910390fd5b61207d838383612e84565b612088600082611ce3565b6001600360008573ffffffffffffffffffffffffffffffffffffffff1673ffffffffffffffffffffffffffffffffffffffff16815260200190815260200160002060008282546120d89190614b83565b925050819055506001600360008473ffffffffffffffffffffffffffffffffffffffff1673ffffffffffffffffffffffffffffffffffffffff168152602001908152602001600020600082825461212f9190614ecd565b92505081905550816002600083815260200190815260200160002060006101000a81548173ffffffffffffffffffffffffffffffffffffffff021916908373ffffffffffffffffffffffffffffffffffffffff160217905550808273ffffffffffffffffffffffffffffffffffffffff168473ffffffffffffffffffffffffffffffffffffffff167fddf252ad1be2c89b69c2b068fc378daa952ba7f163c4a11628f55a4df523b3ef60405160405180910390a46121ee838383612edc565b505050565b612204816121ff611cdb565b612ee1565b50565b6122118282611306565b6122e45760016007600084815260200190815260200160002060000160008373ffffffffffffffffffffffffffffffffffffffff1673ffffffffffffffffffffffffffffffffffffffff16815260200190815260200160002060006101000a81548160ff021916908315150217905550612289611cdb565b73ffffffffffffffffffffffffffffffffffffffff168173ffffffffffffffffffffffffffffffffffffffff16837f2f8788117e7eff1d82e926ec794901d17c78024a50270940304540a733656f0d60405160405180910390a45b5050565b6122f28282611306565b156123c65760006007600084815260200190815260200160002060000160008373ffffffffffffffffffffffffffffffffffffffff1673ffffffffffffffffffffffffffffffffffffffff16815260200190815260200160002060006101000a81548160ff02191690831515021790555061236b611cdb565b73ffffffffffffffffffffffffffffffffffffffff168173ffffffffffffffffffffffffffffffffffffffff16837ff6391f5c32d9c69d2a47ea670b442974b53935d1edc7fd64eb21e047a839171b60405160405180910390a45b5050565b6123d2611090565b612411576040517f08c379a000000000000000000000000000000000000000000000000000000000815260040161240890614f6f565b60405180910390fd5b6000600660006101000a81548160ff0219169083151502179055507f5db9ee0a495bf2e6ff9c91a7834c1ba4fdd244a5e8aa4e537bd38aeae4b073aa612455611cdb565b60405161246291906139f5565b60405180910390a1565b600081600001549050919050565b6001816000016000828254019250508190555050565b6124aa828260405180602001604052806000815250612f7e565b5050565b6124bf6124b9611cdb565b82611eaf565b6124fe576040517f08c379a00000000000000000000000000000000000000000000000000000000081526004016124f590615001565b60405180910390fd5b61250781612fd9565b50565b6000612538600b600084815260200190815260200160002060000160009054906101000a900460ff16612da7565b9050919050565b600160048081111561255457612553614012565b5b61255e9190614b83565b811115612588600160048081111561257957612578614012565b5b6125839190614b83565b612a02565b6040516020016125989190615093565b604051602081830303815290604052906125e8576040517f08c379a00000000000000000000000000000000000000000000000000000000081526004016125df919061392f565b60405180910390fd5b5050565b60006702c68af0bb14000090506000831115612619576702c68af0bb140000816126169190614ecd565b90505b60018311156126395767058d15e176280000816126369190614ecd565b90505b80821461264582612a02565b6040516020016126559190614ccc565b604051602081830303815290604052906126a5576040517f08c379a000000000000000000000000000000000000000000000000000000000815260040161269c919061392f565b60405180910390fd5b50505050565b6126b3611090565b156126f3576040517f08c379a00000000000000000000000000000000000000000000000000000000081526004016126ea90615101565b60405180910390fd5b6001600660006101000a81548160ff0219169083151502179055507f62e78cea01bee320cd4e420270b5ea74000d11b0c9f74754ebdbfc544b05a258612737611cdb565b60405161274491906139f5565b60405180910390a1565b8173ffffffffffffffffffffffffffffffffffffffff168373ffffffffffffffffffffffffffffffffffffffff16036127bc576040517f08c379a00000000000000000000000000000000000000000000000000000000081526004016127b39061516d565b60405180910390fd5b80600560008573ffffffffffffffffffffffffffffffffffffffff1673ffffffffffffffffffffffffffffffffffffffff16815260200190815260200160002060008473ffffffffffffffffffffffffffffffffffffffff1673ffffffffffffffffffffffffffffffffffffffff16815260200190815260200160002060006101000a81548160ff0219169083151502179055508173ffffffffffffffffffffffffffffffffffffffff168373ffffffffffffffffffffffffffffffffffffffff167f17307eab39ab6107e8899845ad3d59bd9653f200f220920489ca2b5937696c31836040516128ad919061387b565b60405180910390a3505050565b6128c5848484611f8d565b6128d1848484846130f6565b612910576040517f08c379a0000000000000000000000000000000000000000000000000000000008152600401612907906151ff565b60405180910390fd5b50505050565b6060600a6000600b600085815260200190815260200160002060000160009054906101000a900460ff16600481111561295257612951614012565b5b600481111561296457612963614012565b5b8152602001908152602001600020805461297d90614113565b80601f01602080910402602001604051908101604052809291908181526020018280546129a990614113565b80156129f65780601f106129cb576101008083540402835291602001916129f6565b820191906000526020600020905b8154815290600101906020018083116129d957829003601f168201915b50505050509050919050565b606060008203612a49576040518060400160405280600181526020017f30000000000000000000000000000000000000000000000000000000000000008152509050612b5d565b600082905060005b60008214612a7b578080612a6490614632565b915050600a82612a74919061524e565b9150612a51565b60008167ffffffffffffffff811115612a9757612a96613a86565b5b6040519080825280601f01601f191660200182016040528015612ac95781602001600182028036833780820191505090505b5090505b60008514612b5657600182612ae29190614b83565b9150600a85612af1919061527f565b6030612afd9190614ecd565b60f81b818381518110612b1357612b126145d4565b5b60200101907effffffffffffffffffffffffffffffffffffffffffffffffffffffffffffff1916908160001a905350600a85612b4f919061524e565b9450612acd565b8093505050505b919050565b60606000825103612b8457604051806020016040528060008152509050612cc0565b60006040518060600160405280604081526020016156986040913990506000600360028551612bb39190614ecd565b612bbd919061524e565b6004612bc991906152b0565b67ffffffffffffffff811115612be257612be1613a86565b5b6040519080825280601f01601f191660200182016040528015612c145781602001600182028036833780820191505090505b509050600182016020820185865187015b80821015612c80576003820191508151603f8160121c168501518453600184019350603f81600c1c168501518453600184019350603f8160061c168501518453600184019350603f8116850151845360018401935050612c25565b5050600386510660018114612c9c5760028114612caf57612cb7565b603d6001830353603d6002830353612cb7565b603d60018303535b50505080925050505b919050565b60007f80ac58cd000000000000000000000000000000000000000000000000000000007bffffffffffffffffffffffffffffffffffffffffffffffffffffffff1916827bffffffffffffffffffffffffffffffffffffffffffffffffffffffff19161480612d9057507f5b5e139f000000000000000000000000000000000000000000000000000000007bffffffffffffffffffffffffffffffffffffffffffffffffffffffff1916827bffffffffffffffffffffffffffffffffffffffffffffffffffffffff1916145b80612da05750612d9f8261327d565b5b9050919050565b6000600480811115612dbc57612dbb614012565b5b826004811115612dcf57612dce614012565b5b10612deb600480811115612de657612de5614012565b5b612a02565b604051602001612dfb919061537c565b60405160208183030381529060405290612e4b576040517f08c379a0000000000000000000000000000000000000000000000000000000008152600401612e42919061392f565b60405180910390fd5b506001826004811115612e6157612e60614012565b5b612e6b9190614ecd565b6004811115612e7d57612e7c614012565b5b9050919050565b612e8c611090565b15612ecc576040517f08c379a0000000000000000000000000000000000000000000000000000000008152600401612ec390615101565b60405180910390fd5b612ed78383836132e7565b505050565b505050565b612eeb8282611306565b612f7a57612f108173ffffffffffffffffffffffffffffffffffffffff1660146132ec565b612f1e8360001c60206132ec565b604051602001612f2f929190615436565b6040516020818303038152906040526040517f08c379a0000000000000000000000000000000000000000000000000000000008152600401612f71919061392f565b60405180910390fd5b5050565b612f888383613528565b612f9560008484846130f6565b612fd4576040517f08c379a0000000000000000000000000000000000000000000000000000000008152600401612fcb906151ff565b60405180910390fd5b505050565b6000612fe4826110ba565b9050612ff281600084612e84565b612ffd600083611ce3565b6001600360008373ffffffffffffffffffffffffffffffffffffffff1673ffffffffffffffffffffffffffffffffffffffff168152602001908152602001600020600082825461304d9190614b83565b925050819055506002600083815260200190815260200160002060006101000a81549073ffffffffffffffffffffffffffffffffffffffff021916905581600073ffffffffffffffffffffffffffffffffffffffff168273ffffffffffffffffffffffffffffffffffffffff167fddf252ad1be2c89b69c2b068fc378daa952ba7f163c4a11628f55a4df523b3ef60405160405180910390a46130f281600084612edc565b5050565b60006131178473ffffffffffffffffffffffffffffffffffffffff16613701565b15613270578373ffffffffffffffffffffffffffffffffffffffff1663150b7a02613140611cdb565b8786866040518563ffffffff1660e01b815260040161316294939291906154c5565b6020604051808303816000875af192505050801561319e57506040513d601f19601f8201168201806040525081019061319b9190615526565b60015b613220573d80600081146131ce576040519150601f19603f3d011682016040523d82523d6000602084013e6131d3565b606091505b506000815103613218576040517f08c379a000000000000000000000000000000000000000000000000000000000815260040161320f906151ff565b60405180910390fd5b805181602001fd5b63150b7a0260e01b7bffffffffffffffffffffffffffffffffffffffffffffffffffffffff1916817bffffffffffffffffffffffffffffffffffffffffffffffffffffffff191614915050613275565b600190505b949350505050565b60007f01ffc9a7000000000000000000000000000000000000000000000000000000007bffffffffffffffffffffffffffffffffffffffffffffffffffffffff1916827bffffffffffffffffffffffffffffffffffffffffffffffffffffffff1916149050919050565b505050565b6060600060028360026132ff91906152b0565b6133099190614ecd565b67ffffffffffffffff81111561332257613321613a86565b5b6040519080825280601f01601f1916602001820160405280156133545781602001600182028036833780820191505090505b5090507f30000000000000000000000000000000000000000000000000000000000000008160008151811061338c5761338b6145d4565b5b60200101907effffffffffffffffffffffffffffffffffffffffffffffffffffffffffffff1916908160001a9053507f7800000000000000000000000000000000000000000000000000000000000000816001815181106133f0576133ef6145d4565b5b60200101907effffffffffffffffffffffffffffffffffffffffffffffffffffffffffffff1916908160001a9053506000600184600261343091906152b0565b61343a9190614ecd565b90505b60018111156134da577f3031323334353637383961626364656600000000000000000000000000000000600f86166010811061347c5761347b6145d4565b5b1a60f81b828281518110613493576134926145d4565b5b60200101907effffffffffffffffffffffffffffffffffffffffffffffffffffffffffffff1916908160001a905350600485901c9450806134d390614cee565b905061343d565b506000841461351e576040517f08c379a00000000000000000000000000000000000000000000000000000000081526004016135159061559f565b60405180910390fd5b8091505092915050565b600073ffffffffffffffffffffffffffffffffffffffff168273ffffffffffffffffffffffffffffffffffffffff1603613597576040517f08c379a000000000000000000000000000000000000000000000000000000000815260040161358e9061560b565b60405180910390fd5b6135a0816118fb565b156135e0576040517f08c379a00000000000000000000000000000000000000000000000000000000081526004016135d790615677565b60405180910390fd5b6135ec60008383612e84565b6001600360008473ffffffffffffffffffffffffffffffffffffffff1673ffffffffffffffffffffffffffffffffffffffff168152602001908152602001600020600082825461363c9190614ecd565b92505081905550816002600083815260200190815260200160002060006101000a81548173ffffffffffffffffffffffffffffffffffffffff021916908373ffffffffffffffffffffffffffffffffffffffff160217905550808273ffffffffffffffffffffffffffffffffffffffff16600073ffffffffffffffffffffffffffffffffffffffff167fddf252ad1be2c89b69c2b068fc378daa952ba7f163c4a11628f55a4df523b3ef60405160405180910390a46136fd60008383612edc565b5050565b6000808273ffffffffffffffffffffffffffffffffffffffff163b119050919050565b82805461373090614113565b90600052602060002090601f0160209004810192826137525760008555613799565b82601f1061376b57805160ff1916838001178555613799565b82800160010185558215613799579182015b8281111561379857825182559160200191906001019061377d565b5b5090506137a691906137aa565b5090565b5b808211156137c35760008160009055506001016137ab565b5090565b6000604051905090565b600080fd5b600080fd5b60007fffffffff0000000000000000000000000000000000000000000000000000000082169050919050565b613810816137db565b811461381b57600080fd5b50565b60008135905061382d81613807565b92915050565b600060208284031215613849576138486137d1565b5b60006138578482850161381e565b91505092915050565b60008115159050919050565b61387581613860565b82525050565b6000602082019050613890600083018461386c565b92915050565b600081519050919050565b600082825260208201905092915050565b60005b838110156138d05780820151818401526020810190506138b5565b838111156138df576000848401525b50505050565b6000601f19601f8301169050919050565b600061390182613896565b61390b81856138a1565b935061391b8185602086016138b2565b613924816138e5565b840191505092915050565b6000602082019050818103600083015261394981846138f6565b905092915050565b6000819050919050565b61396481613951565b811461396f57600080fd5b50565b6000813590506139818161395b565b92915050565b60006020828403121561399d5761399c6137d1565b5b60006139ab84828501613972565b91505092915050565b600073ffffffffffffffffffffffffffffffffffffffff82169050919050565b60006139df826139b4565b9050919050565b6139ef816139d4565b82525050565b6000602082019050613a0a60008301846139e6565b92915050565b613a19816139d4565b8114613a2457600080fd5b50565b600081359050613a3681613a10565b92915050565b60008060408385031215613a5357613a526137d1565b5b6000613a6185828601613a27565b9250506020613a7285828601613972565b9150509250929050565b600080fd5b600080fd5b7f4e487b7100000000000000000000000000000000000000000000000000000000600052604160045260246000fd5b613abe826138e5565b810181811067ffffffffffffffff82111715613add57613adc613a86565b5b80604052505050565b6000613af06137c7565b9050613afc8282613ab5565b919050565b600067ffffffffffffffff821115613b1c57613b1b613a86565b5b613b25826138e5565b9050602081019050919050565b82818337600083830152505050565b6000613b54613b4f84613b01565b613ae6565b905082815260208101848484011115613b7057613b6f613a81565b5b613b7b848285613b32565b509392505050565b600082601f830112613b9857613b97613a7c565b5b8135613ba8848260208601613b41565b91505092915050565b600060208284031215613bc757613bc66137d1565b5b600082013567ffffffffffffffff811115613be557613be46137d6565b5b613bf184828501613b83565b91505092915050565b600080600060608486031215613c1357613c126137d1565b5b6000613c2186828701613a27565b9350506020613c3286828701613a27565b9250506040613c4386828701613972565b9150509250925092565b6000819050919050565b613c6081613c4d565b8114613c6b57600080fd5b50565b600081359050613c7d81613c57565b92915050565b600060208284031215613c9957613c986137d1565b5b6000613ca784828501613c6e565b91505092915050565b613cb981613c4d565b82525050565b6000602082019050613cd46000830184613cb0565b92915050565b60008060408385031215613cf157613cf06137d1565b5b6000613cff85828601613c6e565b9250506020613d1085828601613a27565b9150509250929050565b600060208284031215613d3057613d2f6137d1565b5b6000613d3e84828501613a27565b91505092915050565b613d5081613951565b82525050565b6000602082019050613d6b6000830184613d47565b92915050565b600067ffffffffffffffff821115613d8c57613d8b613a86565b5b602082029050602081019050919050565b600080fd5b6000613db5613db084613d71565b613ae6565b90508083825260208201905060208402830185811115613dd857613dd7613d9d565b5b835b81811015613e015780613ded8882613a27565b845260208401935050602081019050613dda565b5050509392505050565b600082601f830112613e2057613e1f613a7c565b5b8135613e30848260208601613da2565b91505092915050565b600060208284031215613e4f57613e4e6137d1565b5b600082013567ffffffffffffffff811115613e6d57613e6c6137d6565b5b613e7984828501613e0b565b91505092915050565b613e8b81613860565b8114613e9657600080fd5b50565b600081359050613ea881613e82565b92915050565b60008060408385031215613ec557613ec46137d1565b5b6000613ed385828601613a27565b9250506020613ee485828601613e99565b9150509250929050565b600067ffffffffffffffff821115613f0957613f08613a86565b5b613f12826138e5565b9050602081019050919050565b6000613f32613f2d84613eee565b613ae6565b905082815260208101848484011115613f4e57613f4d613a81565b5b613f59848285613b32565b509392505050565b600082601f830112613f7657613f75613a7c565b5b8135613f86848260208601613f1f565b91505092915050565b60008060008060808587031215613fa957613fa86137d1565b5b6000613fb787828801613a27565b9450506020613fc887828801613a27565b9350506040613fd987828801613972565b925050606085013567ffffffffffffffff811115613ffa57613ff96137d6565b5b61400687828801613f61565b91505092959194509250565b7f4e487b7100000000000000000000000000000000000000000000000000000000600052602160045260246000fd5b6005811061405257614051614012565b5b50565b600081905061406382614041565b919050565b600061407382614055565b9050919050565b61408381614068565b82525050565b600060208201905061409e600083018461407a565b92915050565b600080604083850312156140bb576140ba6137d1565b5b60006140c985828601613a27565b92505060206140da85828601613a27565b9150509250929050565b7f4e487b7100000000000000000000000000000000000000000000000000000000600052602260045260246000fd5b6000600282049050600182168061412b57607f821691505b60208210810361413e5761413d6140e4565b5b50919050565b7f4552433732313a20617070726f76656420717565727920666f72206e6f6e657860008201527f697374656e7420746f6b656e0000000000000000000000000000000000000000602082015250565b60006141a0602c836138a1565b91506141ab82614144565b604082019050919050565b600060208201905081810360008301526141cf81614193565b9050919050565b7f4552433732313a20617070726f76616c20746f2063757272656e74206f776e6560008201527f7200000000000000000000000000000000000000000000000000000000000000602082015250565b60006142326021836138a1565b915061423d826141d6565b604082019050919050565b6000602082019050818103600083015261426181614225565b9050919050565b7f4552433732313a20617070726f76652063616c6c6572206973206e6f74206f7760008201527f6e6572206e6f7220617070726f76656420666f7220616c6c0000000000000000602082015250565b60006142c46038836138a1565b91506142cf82614268565b604082019050919050565b600060208201905081810360008301526142f3816142b7565b9050919050565b7f4552433732313a207472616e736665722063616c6c6572206973206e6f74206f60008201527f776e6572206e6f7220617070726f766564000000000000000000000000000000602082015250565b60006143566031836138a1565b9150614361826142fa565b604082019050919050565b6000602082019050818103600083015261438581614349565b9050919050565b7f416363657373436f6e74726f6c3a2063616e206f6e6c792072656e6f756e636560008201527f20726f6c657320666f722073656c660000000000000000000000000000000000602082015250565b60006143e8602f836138a1565b91506143f38261438c565b604082019050919050565b60006020820190508181036000830152614417816143db565b9050919050565b7f5032443a20546865206d696e6572206973206e6f7420616c6c6f77656420746f60008201527f206d696e7420746f6b656e730000000000000000000000000000000000000000602082015250565b600061447a602c836138a1565b91506144858261441e565b604082019050919050565b600060208201905081810360008301526144a98161446d565b9050919050565b7f4552433732313a206f776e657220717565727920666f72206e6f6e657869737460008201527f656e7420746f6b656e0000000000000000000000000000000000000000000000602082015250565b600061450c6029836138a1565b9150614517826144b0565b604082019050919050565b6000602082019050818103600083015261453b816144ff565b9050919050565b7f4552433732313a2062616c616e636520717565727920666f7220746865207a6560008201527f726f206164647265737300000000000000000000000000000000000000000000602082015250565b600061459e602a836138a1565b91506145a982614542565b604082019050919050565b600060208201905081810360008301526145cd81614591565b9050919050565b7f4e487b7100000000000000000000000000000000000000000000000000000000600052603260045260246000fd5b7f4e487b7100000000000000000000000000000000000000000000000000000000600052601160045260246000fd5b600061463d82613951565b91507fffffffffffffffffffffffffffffffffffffffffffffffffffffffffffffffff820361466f5761466e614603565b5b600182019050919050565b600081905092915050565b7f7b226e616d65223a20224469616d6f6e64204461776e222c202264657363726960008201527f7074696f6e223a20225468697320697320746865206465736372697074696f6e60208201527f206f66204469616d6f6e64204461776e2050726f6a656374222c2022696d616760408201527f65223a202268747470733a2f2f6d656469612e6e69667479676174657761792e60608201527f636f6d2f766964656f2f75706c6f61642f76313633393432313134312f416e6460808201527f7265612f446176696441726965772f446563437572617465642f4d797374696360a08201527f616c5f436162617265745f2d5f44617669645f41726965775f315f777a64687560c08201527f772e706e67222c2022616e696d6174696f6e5f75726c223a202200000000000060e082015250565b60006147c560fa8361467a565b91506147d082614685565b60fa82019050919050565b60006147e682613896565b6147f0818561467a565b93506148008185602086016138b2565b80840191505092915050565b7f222c20227374616765223a202200000000000000000000000000000000000000600082015250565b6000614842600d8361467a565b915061484d8261480c565b600d82019050919050565b7f22207d0000000000000000000000000000000000000000000000000000000000600082015250565b600061488e60038361467a565b915061489982614858565b600382019050919050565b60006148af826147b8565b91506148bb82856147db565b91506148c682614835565b91506148d282846147db565b91506148dd82614881565b91508190509392505050565b7f646174613a6170706c69636174696f6e2f6a736f6e3b6261736536342c000000600082015250565b600061491f601d8361467a565b915061492a826148e9565b601d82019050919050565b600061494082614912565b915061494c82846147db565b915081905092915050565b7f5032443a20412073746167652073686f756c642062652061637469766520746f60008201527f20706572666f726d207468697320616374696f6e000000000000000000000000602082015250565b60006149b36034836138a1565b91506149be82614957565b604082019050919050565b600060208201905081810360008301526149e2816149a6565b9050919050565b7f52656269727468206661696c6564202d206f6e6c79206275726e65722069732060008201527f616c6c6f77656420746f20706572666f726d2072656269727468000000000000602082015250565b6000614a45603a8361467a565b9150614a50826149e9565b603a82019050919050565b6000614a6682614a38565b9150819050919050565b7f5032443a205468652073746167652073686f756c642062652000000000000000815250565b7f20746f20706572666f726d207468697320616374696f6e000000000000000000815250565b6000614ac782614a70565b601982019150614ad782846147db565b9150614ae282614a96565b60178201915081905092915050565b7f4552433732313a2063616c6c6572206973206e6f7420746f6b656e206f776e6560008201527f72206e6f7220617070726f766564000000000000000000000000000000000000602082015250565b6000614b4d602e836138a1565b9150614b5882614af1565b604082019050919050565b60006020820190508181036000830152614b7c81614b40565b9050919050565b6000614b8e82613951565b9150614b9983613951565b925082821015614bac57614bab614603565b5b828203905092915050565b7f5032443a20546865206c6576656c206f6620746865206469616d6f6e6420736860008201527f6f756c6420626520000000000000000000000000000000000000000000000000602082015250565b6000614c1360288361467a565b9150614c1e82614bb7565b602882019050919050565b6000614c3482614c06565b9150614c4082846147db565b9150614c4b82614a96565b60178201915081905092915050565b7f5032443a2057726f6e67207061796d656e74202d207061796d656e742073686f60008201527f756c642062653a20000000000000000000000000000000000000000000000000602082015250565b6000614cb660288361467a565b9150614cc182614c5a565b602882019050919050565b6000614cd782614ca9565b9150614ce382846147db565b915081905092915050565b6000614cf982613951565b915060008203614d0c57614d0b614603565b5b600182039050919050565b7f4552433732313a206f70657261746f7220717565727920666f72206e6f6e657860008201527f697374656e7420746f6b656e0000000000000000000000000000000000000000602082015250565b6000614d73602c836138a1565b9150614d7e82614d17565b604082019050919050565b60006020820190508181036000830152614da281614d66565b9050919050565b7f4552433732313a207472616e736665722066726f6d20696e636f72726563742060008201527f6f776e6572000000000000000000000000000000000000000000000000000000602082015250565b6000614e056025836138a1565b9150614e1082614da9565b604082019050919050565b60006020820190508181036000830152614e3481614df8565b9050919050565b7f4552433732313a207472616e7366657220746f20746865207a65726f2061646460008201527f7265737300000000000000000000000000000000000000000000000000000000602082015250565b6000614e976024836138a1565b9150614ea282614e3b565b604082019050919050565b60006020820190508181036000830152614ec681614e8a565b9050919050565b6000614ed882613951565b9150614ee383613951565b9250827fffffffffffffffffffffffffffffffffffffffffffffffffffffffffffffffff03821115614f1857614f17614603565b5b828201905092915050565b7f5061757361626c653a206e6f7420706175736564000000000000000000000000600082015250565b6000614f596014836138a1565b9150614f6482614f23565b602082019050919050565b60006020820190508181036000830152614f8881614f4c565b9050919050565b7f4552433732314275726e61626c653a2063616c6c6572206973206e6f74206f7760008201527f6e6572206e6f7220617070726f76656400000000000000000000000000000000602082015250565b6000614feb6030836138a1565b9150614ff682614f8f565b604082019050919050565b6000602082019050818103600083015261501a81614fde565b9050919050565b7f5032443a205075726368617365642070726f6365737365732073686f756c642060008201527f6265206c657373207468616e206f7220657175616c20746f2000000000000000602082015250565b600061507d60398361467a565b915061508882615021565b603982019050919050565b600061509e82615070565b91506150aa82846147db565b915081905092915050565b7f5061757361626c653a2070617573656400000000000000000000000000000000600082015250565b60006150eb6010836138a1565b91506150f6826150b5565b602082019050919050565b6000602082019050818103600083015261511a816150de565b9050919050565b7f4552433732313a20617070726f766520746f2063616c6c657200000000000000600082015250565b60006151576019836138a1565b915061516282615121565b602082019050919050565b600060208201905081810360008301526151868161514a565b9050919050565b7f4552433732313a207472616e7366657220746f206e6f6e20455243373231526560008201527f63656976657220696d706c656d656e7465720000000000000000000000000000602082015250565b60006151e96032836138a1565b91506151f48261518d565b604082019050919050565b60006020820190508181036000830152615218816151dc565b9050919050565b7f4e487b7100000000000000000000000000000000000000000000000000000000600052601260045260246000fd5b600061525982613951565b915061526483613951565b9250826152745761527361521f565b5b828204905092915050565b600061528a82613951565b915061529583613951565b9250826152a5576152a461521f565b5b828206905092915050565b60006152bb82613951565b91506152c683613951565b9250817fffffffffffffffffffffffffffffffffffffffffffffffffffffffffffffffff04831182151516156152ff576152fe614603565b5b828202905092915050565b7f5032443a205468652073746167652073686f756c64206265206c65737320746860008201527f616e200000000000000000000000000000000000000000000000000000000000602082015250565b600061536660238361467a565b91506153718261530a565b602382019050919050565b600061538782615359565b915061539382846147db565b915081905092915050565b7f416363657373436f6e74726f6c3a206163636f756e7420000000000000000000600082015250565b60006153d460178361467a565b91506153df8261539e565b601782019050919050565b7f206973206d697373696e6720726f6c6520000000000000000000000000000000600082015250565b600061542060118361467a565b915061542b826153ea565b601182019050919050565b6000615441826153c7565b915061544d82856147db565b915061545882615413565b915061546482846147db565b91508190509392505050565b600081519050919050565b600082825260208201905092915050565b600061549782615470565b6154a1818561547b565b93506154b18185602086016138b2565b6154ba816138e5565b840191505092915050565b60006080820190506154da60008301876139e6565b6154e760208301866139e6565b6154f46040830185613d47565b8181036060830152615506818461548c565b905095945050505050565b60008151905061552081613807565b92915050565b60006020828403121561553c5761553b6137d1565b5b600061554a84828501615511565b91505092915050565b7f537472696e67733a20686578206c656e67746820696e73756666696369656e74600082015250565b60006155896020836138a1565b915061559482615553565b602082019050919050565b600060208201905081810360008301526155b88161557c565b9050919050565b7f4552433732313a206d696e7420746f20746865207a65726f2061646472657373600082015250565b60006155f56020836138a1565b9150615600826155bf565b602082019050919050565b60006020820190508181036000830152615624816155e8565b9050919050565b7f4552433732313a20746f6b656e20616c7265616479206d696e74656400000000600082015250565b6000615661601c836138a1565b915061566c8261562b565b602082019050919050565b6000602082019050818103600083015261569081615654565b905091905056fe4142434445464748494a4b4c4d4e4f505152535455565758595a6162636465666768696a6b6c6d6e6f707172737475767778797a303132333435363738392b2fa2646970667358221220d2bfd6070dda45fcff72d7ea8e085a3d86b5a3cfe92ba0b905ef63780eaf97d464736f6c634300080e0033",
  "linkReferences": {},
  "deployedLinkReferences": {}
}