{
  "_format": "hh-sol-artifact-1",
  "contractName": "DiamondDawn",
  "sourceName": "contracts/DiamondDawn.sol",
  "abi": [
    {
      "inputs": [
        {
          "internalType": "uint96",
          "name": "_royaltyFeesInBips",
          "type": "uint96"
        }
      ],
      "stateMutability": "nonpayable",
      "type": "constructor"
    },
    {
      "anonymous": false,
      "inputs": [
        {
          "indexed": true,
          "internalType": "address",
          "name": "owner",
          "type": "address"
        },
        {
          "indexed": true,
          "internalType": "address",
          "name": "approved",
          "type": "address"
        },
        {
          "indexed": true,
          "internalType": "uint256",
          "name": "tokenId",
          "type": "uint256"
        }
      ],
      "name": "Approval",
      "type": "event"
    },
    {
      "anonymous": false,
      "inputs": [
        {
          "indexed": true,
          "internalType": "address",
          "name": "owner",
          "type": "address"
        },
        {
          "indexed": true,
          "internalType": "address",
          "name": "operator",
          "type": "address"
        },
        {
          "indexed": false,
          "internalType": "bool",
          "name": "approved",
          "type": "bool"
        }
      ],
      "name": "ApprovalForAll",
      "type": "event"
    },
    {
      "anonymous": false,
      "inputs": [
        {
          "indexed": false,
          "internalType": "address",
          "name": "account",
          "type": "address"
        }
      ],
      "name": "Paused",
      "type": "event"
    },
    {
      "anonymous": false,
      "inputs": [
        {
          "indexed": true,
          "internalType": "bytes32",
          "name": "role",
          "type": "bytes32"
        },
        {
          "indexed": true,
          "internalType": "bytes32",
          "name": "previousAdminRole",
          "type": "bytes32"
        },
        {
          "indexed": true,
          "internalType": "bytes32",
          "name": "newAdminRole",
          "type": "bytes32"
        }
      ],
      "name": "RoleAdminChanged",
      "type": "event"
    },
    {
      "anonymous": false,
      "inputs": [
        {
          "indexed": true,
          "internalType": "bytes32",
          "name": "role",
          "type": "bytes32"
        },
        {
          "indexed": true,
          "internalType": "address",
          "name": "account",
          "type": "address"
        },
        {
          "indexed": true,
          "internalType": "address",
          "name": "sender",
          "type": "address"
        }
      ],
      "name": "RoleGranted",
      "type": "event"
    },
    {
      "anonymous": false,
      "inputs": [
        {
          "indexed": true,
          "internalType": "bytes32",
          "name": "role",
          "type": "bytes32"
        },
        {
          "indexed": true,
          "internalType": "address",
          "name": "account",
          "type": "address"
        },
        {
          "indexed": true,
          "internalType": "address",
          "name": "sender",
          "type": "address"
        }
      ],
      "name": "RoleRevoked",
      "type": "event"
    },
    {
      "anonymous": false,
      "inputs": [
        {
          "indexed": true,
          "internalType": "address",
          "name": "from",
          "type": "address"
        },
        {
          "indexed": true,
          "internalType": "address",
          "name": "to",
          "type": "address"
        },
        {
          "indexed": true,
          "internalType": "uint256",
          "name": "tokenId",
          "type": "uint256"
        }
      ],
      "name": "Transfer",
      "type": "event"
    },
    {
      "anonymous": false,
      "inputs": [
        {
          "indexed": false,
          "internalType": "address",
          "name": "account",
          "type": "address"
        }
      ],
      "name": "Unpaused",
      "type": "event"
    },
    {
      "inputs": [],
      "name": "CUT_PRICE",
      "outputs": [
        {
          "internalType": "uint256",
          "name": "",
          "type": "uint256"
        }
      ],
      "stateMutability": "view",
      "type": "function"
    },
    {
      "inputs": [],
      "name": "DEFAULT_ADMIN_ROLE",
      "outputs": [
        {
          "internalType": "bytes32",
          "name": "",
          "type": "bytes32"
        }
      ],
      "stateMutability": "view",
      "type": "function"
    },
    {
      "inputs": [],
      "name": "MINING_PRICE",
      "outputs": [
        {
          "internalType": "uint256",
          "name": "",
          "type": "uint256"
        }
      ],
      "stateMutability": "view",
      "type": "function"
    },
    {
      "inputs": [],
      "name": "MINTER_ROLE",
      "outputs": [
        {
          "internalType": "bytes32",
          "name": "",
          "type": "bytes32"
        }
      ],
      "stateMutability": "view",
      "type": "function"
    },
    {
      "inputs": [],
      "name": "PAUSER_ROLE",
      "outputs": [
        {
          "internalType": "bytes32",
          "name": "",
          "type": "bytes32"
        }
      ],
      "stateMutability": "view",
      "type": "function"
    },
    {
      "inputs": [],
      "name": "POLISH_PRICE",
      "outputs": [
        {
          "internalType": "uint256",
          "name": "",
          "type": "uint256"
        }
      ],
      "stateMutability": "view",
      "type": "function"
    },
    {
      "inputs": [],
      "name": "PREPAID_CUT_PRICE",
      "outputs": [
        {
          "internalType": "uint256",
          "name": "",
          "type": "uint256"
        }
      ],
      "stateMutability": "view",
      "type": "function"
    },
    {
      "inputs": [],
      "name": "PREPAID_POLISH_PRICE",
      "outputs": [
        {
          "internalType": "uint256",
          "name": "",
          "type": "uint256"
        }
      ],
      "stateMutability": "view",
      "type": "function"
    },
    {
      "inputs": [
        {
          "internalType": "address[]",
          "name": "addresses",
          "type": "address[]"
        }
      ],
      "name": "addToAllowList",
      "outputs": [],
      "stateMutability": "nonpayable",
      "type": "function"
    },
    {
      "inputs": [
        {
          "internalType": "address",
          "name": "to",
          "type": "address"
        },
        {
          "internalType": "uint256",
          "name": "tokenId",
          "type": "uint256"
        }
      ],
      "name": "approve",
      "outputs": [],
      "stateMutability": "nonpayable",
      "type": "function"
    },
    {
      "inputs": [
        {
          "internalType": "address",
          "name": "owner",
          "type": "address"
        }
      ],
      "name": "balanceOf",
      "outputs": [
        {
          "internalType": "uint256",
          "name": "",
          "type": "uint256"
        }
      ],
      "stateMutability": "view",
      "type": "function"
    },
    {
      "inputs": [
        {
          "internalType": "uint256",
          "name": "tokenId",
          "type": "uint256"
        }
      ],
      "name": "burn",
      "outputs": [],
      "stateMutability": "nonpayable",
      "type": "function"
    },
    {
      "inputs": [],
      "name": "completeCurrentStage",
      "outputs": [],
      "stateMutability": "nonpayable",
      "type": "function"
    },
    {
      "inputs": [
        {
          "internalType": "uint256",
          "name": "tokenId",
          "type": "uint256"
        }
      ],
      "name": "cut",
      "outputs": [],
      "stateMutability": "payable",
      "type": "function"
    },
    {
      "inputs": [],
      "name": "dev__ResetStage",
      "outputs": [],
      "stateMutability": "nonpayable",
      "type": "function"
    },
    {
      "inputs": [
        {
          "internalType": "uint256",
          "name": "tokenId",
          "type": "uint256"
        }
      ],
      "name": "getApproved",
      "outputs": [
        {
          "internalType": "address",
          "name": "",
          "type": "address"
        }
      ],
      "stateMutability": "view",
      "type": "function"
    },
    {
      "inputs": [
        {
          "internalType": "bytes32",
          "name": "role",
          "type": "bytes32"
        }
      ],
      "name": "getRoleAdmin",
      "outputs": [
        {
          "internalType": "bytes32",
          "name": "",
          "type": "bytes32"
        }
      ],
      "stateMutability": "view",
      "type": "function"
    },
    {
      "inputs": [
        {
          "internalType": "bytes32",
          "name": "role",
          "type": "bytes32"
        },
        {
          "internalType": "address",
          "name": "account",
          "type": "address"
        }
      ],
      "name": "grantRole",
      "outputs": [],
      "stateMutability": "nonpayable",
      "type": "function"
    },
    {
      "inputs": [
        {
          "internalType": "bytes32",
          "name": "role",
          "type": "bytes32"
        },
        {
          "internalType": "address",
          "name": "account",
          "type": "address"
        }
      ],
      "name": "hasRole",
      "outputs": [
        {
          "internalType": "bool",
          "name": "",
          "type": "bool"
        }
      ],
      "stateMutability": "view",
      "type": "function"
    },
    {
      "inputs": [
        {
          "internalType": "address",
          "name": "owner",
          "type": "address"
        },
        {
          "internalType": "address",
          "name": "operator",
          "type": "address"
        }
      ],
      "name": "isApprovedForAll",
      "outputs": [
        {
          "internalType": "bool",
          "name": "",
          "type": "bool"
        }
      ],
      "stateMutability": "view",
      "type": "function"
    },
    {
      "inputs": [],
      "name": "isStageActive",
      "outputs": [
        {
          "internalType": "bool",
          "name": "",
          "type": "bool"
        }
      ],
      "stateMutability": "view",
      "type": "function"
    },
    {
      "inputs": [
        {
          "internalType": "uint256",
          "name": "processesPurchased",
          "type": "uint256"
        }
      ],
      "name": "mine",
      "outputs": [],
      "stateMutability": "payable",
      "type": "function"
    },
    {
      "inputs": [],
      "name": "name",
      "outputs": [
        {
          "internalType": "string",
          "name": "",
          "type": "string"
        }
      ],
      "stateMutability": "view",
      "type": "function"
    },
    {
      "inputs": [
        {
          "internalType": "uint256",
          "name": "tokenId",
          "type": "uint256"
        }
      ],
      "name": "ownerOf",
      "outputs": [
        {
          "internalType": "address",
          "name": "",
          "type": "address"
        }
      ],
      "stateMutability": "view",
      "type": "function"
    },
    {
      "inputs": [],
      "name": "pause",
      "outputs": [],
      "stateMutability": "nonpayable",
      "type": "function"
    },
    {
      "inputs": [],
      "name": "paused",
      "outputs": [
        {
          "internalType": "bool",
          "name": "",
          "type": "bool"
        }
      ],
      "stateMutability": "view",
      "type": "function"
    },
    {
      "inputs": [
        {
          "internalType": "uint256",
          "name": "tokenId",
          "type": "uint256"
        }
      ],
      "name": "polish",
      "outputs": [],
      "stateMutability": "payable",
      "type": "function"
    },
    {
      "inputs": [
        {
          "internalType": "uint256",
          "name": "tokenId",
          "type": "uint256"
        }
      ],
      "name": "rebirth",
      "outputs": [],
      "stateMutability": "nonpayable",
      "type": "function"
    },
    {
      "inputs": [
        {
          "internalType": "bytes32",
          "name": "role",
          "type": "bytes32"
        },
        {
          "internalType": "address",
          "name": "account",
          "type": "address"
        }
      ],
      "name": "renounceRole",
      "outputs": [],
      "stateMutability": "nonpayable",
      "type": "function"
    },
    {
      "inputs": [
        {
          "internalType": "string",
          "name": "videoUrl",
          "type": "string"
        }
      ],
      "name": "revealStage",
      "outputs": [],
      "stateMutability": "nonpayable",
      "type": "function"
    },
    {
      "inputs": [
        {
          "internalType": "bytes32",
          "name": "role",
          "type": "bytes32"
        },
        {
          "internalType": "address",
          "name": "account",
          "type": "address"
        }
      ],
      "name": "revokeRole",
      "outputs": [],
      "stateMutability": "nonpayable",
      "type": "function"
    },
    {
      "inputs": [
        {
          "internalType": "uint256",
          "name": "_tokenId",
          "type": "uint256"
        },
        {
          "internalType": "uint256",
          "name": "_salePrice",
          "type": "uint256"
        }
      ],
      "name": "royaltyInfo",
      "outputs": [
        {
          "internalType": "address",
          "name": "",
          "type": "address"
        },
        {
          "internalType": "uint256",
          "name": "",
          "type": "uint256"
        }
      ],
      "stateMutability": "view",
      "type": "function"
    },
    {
      "inputs": [
        {
          "internalType": "address",
          "name": "to",
          "type": "address"
        }
      ],
      "name": "safeMint",
      "outputs": [],
      "stateMutability": "nonpayable",
      "type": "function"
    },
    {
      "inputs": [
        {
          "internalType": "address",
          "name": "from",
          "type": "address"
        },
        {
          "internalType": "address",
          "name": "to",
          "type": "address"
        },
        {
          "internalType": "uint256",
          "name": "tokenId",
          "type": "uint256"
        }
      ],
      "name": "safeTransferFrom",
      "outputs": [],
      "stateMutability": "nonpayable",
      "type": "function"
    },
    {
      "inputs": [
        {
          "internalType": "address",
          "name": "from",
          "type": "address"
        },
        {
          "internalType": "address",
          "name": "to",
          "type": "address"
        },
        {
          "internalType": "uint256",
          "name": "tokenId",
          "type": "uint256"
        },
        {
          "internalType": "bytes",
          "name": "_data",
          "type": "bytes"
        }
      ],
      "name": "safeTransferFrom",
      "outputs": [],
      "stateMutability": "nonpayable",
      "type": "function"
    },
    {
      "inputs": [
        {
          "internalType": "address",
          "name": "operator",
          "type": "address"
        },
        {
          "internalType": "bool",
          "name": "approved",
          "type": "bool"
        }
      ],
      "name": "setApprovalForAll",
      "outputs": [],
      "stateMutability": "nonpayable",
      "type": "function"
    },
    {
      "inputs": [
        {
          "internalType": "uint256",
          "name": "price",
          "type": "uint256"
        }
      ],
      "name": "setProcessingPrice",
      "outputs": [],
      "stateMutability": "nonpayable",
      "type": "function"
    },
    {
      "inputs": [
        {
          "internalType": "address",
          "name": "_receiver",
          "type": "address"
        },
        {
          "internalType": "uint96",
          "name": "_royaltyFeesInBips",
          "type": "uint96"
        }
      ],
      "name": "setRoyaltyInfo",
      "outputs": [],
      "stateMutability": "nonpayable",
      "type": "function"
    },
    {
      "inputs": [],
      "name": "stage",
      "outputs": [
        {
          "internalType": "enum DiamondDawn.Stage",
          "name": "",
          "type": "uint8"
        }
      ],
      "stateMutability": "view",
      "type": "function"
    },
    {
      "inputs": [
        {
          "internalType": "bytes4",
          "name": "interfaceId",
          "type": "bytes4"
        }
      ],
      "name": "supportsInterface",
      "outputs": [
        {
          "internalType": "bool",
          "name": "",
          "type": "bool"
        }
      ],
      "stateMutability": "view",
      "type": "function"
    },
    {
      "inputs": [],
      "name": "symbol",
      "outputs": [
        {
          "internalType": "string",
          "name": "",
          "type": "string"
        }
      ],
      "stateMutability": "view",
      "type": "function"
    },
    {
      "inputs": [
        {
          "internalType": "uint256",
          "name": "index",
          "type": "uint256"
        }
      ],
      "name": "tokenByIndex",
      "outputs": [
        {
          "internalType": "uint256",
          "name": "",
          "type": "uint256"
        }
      ],
      "stateMutability": "view",
      "type": "function"
    },
    {
      "inputs": [
        {
          "internalType": "address",
          "name": "owner",
          "type": "address"
        },
        {
          "internalType": "uint256",
          "name": "index",
          "type": "uint256"
        }
      ],
      "name": "tokenOfOwnerByIndex",
      "outputs": [
        {
          "internalType": "uint256",
          "name": "",
          "type": "uint256"
        }
      ],
      "stateMutability": "view",
      "type": "function"
    },
    {
      "inputs": [
        {
          "internalType": "uint256",
          "name": "tokenId",
          "type": "uint256"
        }
      ],
      "name": "tokenURI",
      "outputs": [
        {
          "internalType": "string",
          "name": "",
          "type": "string"
        }
      ],
      "stateMutability": "view",
      "type": "function"
    },
    {
      "inputs": [],
      "name": "totalSupply",
      "outputs": [
        {
          "internalType": "uint256",
          "name": "",
          "type": "uint256"
        }
      ],
      "stateMutability": "view",
      "type": "function"
    },
    {
      "inputs": [
        {
          "internalType": "address",
          "name": "from",
          "type": "address"
        },
        {
          "internalType": "address",
          "name": "to",
          "type": "address"
        },
        {
          "internalType": "uint256",
          "name": "tokenId",
          "type": "uint256"
        }
      ],
      "name": "transferFrom",
      "outputs": [],
      "stateMutability": "nonpayable",
      "type": "function"
    },
    {
      "inputs": [],
      "name": "unpause",
      "outputs": [],
      "stateMutability": "nonpayable",
      "type": "function"
    },
    {
      "inputs": [
        {
          "internalType": "address",
          "name": "_owner",
          "type": "address"
        }
      ],
      "name": "walletOfOwner",
      "outputs": [
        {
          "internalType": "uint256[]",
          "name": "",
          "type": "uint256[]"
        }
      ],
      "stateMutability": "view",
      "type": "function"
    }
  ],
  "bytecode": "0x60806040523480156200001157600080fd5b50604051620042a5380380620042a58339810160408190526200003491620006c0565b604080518082018252600b81526a2234b0b6b7b7322230bbb760a91b602080830191825283518085019094526002845261111160f21b90840152815191929162000081916000916200061a565b508051620000979060019060208401906200061a565b50506008805460ff1916905550620000b16000336200014b565b620000dd7f65d7a28e3265b37a6474929f336521b332c1681b933f6cb9f3376673440d862a336200014b565b620001097f9f2df0fed2c77648de5860a4cc508cd0818c85b8b8a1ab4ceeef8d981c8956a6336200014b565b336000818152601260205260409020805460ff19166001179055600f805461ffff191690556200013a9082620001f0565b620001446200020e565b50620008a1565b60008281526009602090815260408083206001600160a01b038516845290915290205460ff16620001ec5760008281526009602090815260408083206001600160a01b03851684529091529020805460ff19166001179055620001ab3390565b6001600160a01b0316816001600160a01b0316837f2f8788117e7eff1d82e926ec794901d17c78024a50270940304540a733656f0d60405160405180910390a45b5050565b6000620001fd81620002ad565b620002098383620002bc565b505050565b60085460ff16156200025a5760405162461bcd60e51b815260206004820152601060248201526f14185d5cd8589b194e881c185d5cd95960821b60448201526064015b60405180910390fd5b6008805460ff191660011790557f62e78cea01bee320cd4e420270b5ea74000d11b0c9f74754ebdbfc544b05a258620002903390565b6040516001600160a01b03909116815260200160405180910390a1565b620002b98133620003bd565b50565b6127106001600160601b03821611156200032c5760405162461bcd60e51b815260206004820152602a60248201527f455243323938313a20726f79616c7479206665652077696c6c206578636565646044820152692073616c65507269636560b01b606482015260840162000251565b6001600160a01b038216620003845760405162461bcd60e51b815260206004820152601960248201527f455243323938313a20696e76616c696420726563656976657200000000000000604482015260640162000251565b604080518082019091526001600160a01b039092168083526001600160601b039091166020909201829052600160a01b90910217600655565b60008281526009602090815260408083206001600160a01b038516845290915290205460ff16620001ec5762000409816001600160a01b031660146200045a60201b620015341760201c565b6200041f836020620015346200045a821b17811c565b604051602001620004329291906200071e565b60408051601f198184030181529082905262461bcd60e51b8252620002519160040162000797565b606060006200046b836002620007e2565b6200047890600262000804565b6001600160401b038111156200049257620004926200081f565b6040519080825280601f01601f191660200182016040528015620004bd576020820181803683370190505b509050600360fc1b81600081518110620004db57620004db62000835565b60200101906001600160f81b031916908160001a905350600f60fb1b816001815181106200050d576200050d62000835565b60200101906001600160f81b031916908160001a905350600062000533846002620007e2565b6200054090600162000804565b90505b6001811115620005c2576f181899199a1a9b1b9c1cb0b131b232b360811b85600f166010811062000578576200057862000835565b1a60f81b82828151811062000591576200059162000835565b60200101906001600160f81b031916908160001a90535060049490941c93620005ba816200084b565b905062000543565b508315620006135760405162461bcd60e51b815260206004820181905260248201527f537472696e67733a20686578206c656e67746820696e73756666696369656e74604482015260640162000251565b9392505050565b828054620006289062000865565b90600052602060002090601f0160209004810192826200064c576000855562000697565b82601f106200066757805160ff191683800117855562000697565b8280016001018555821562000697579182015b82811115620006975782518255916020019190600101906200067a565b50620006a5929150620006a9565b5090565b5b80821115620006a55760008155600101620006aa565b600060208284031215620006d357600080fd5b81516001600160601b03811681146200061357600080fd5b60005b8381101562000708578181015183820152602001620006ee565b8381111562000718576000848401525b50505050565b7f416363657373436f6e74726f6c3a206163636f756e742000000000000000000081526000835162000758816017850160208801620006eb565b7001034b99036b4b9b9b4b733903937b6329607d1b60179184019182015283516200078b816028840160208801620006eb565b01602801949350505050565b6020815260008251806020840152620007b8816040850160208701620006eb565b601f01601f19169190910160400192915050565b634e487b7160e01b600052601160045260246000fd5b6000816000190483118215151615620007ff57620007ff620007cc565b500290565b600082198211156200081a576200081a620007cc565b500190565b634e487b7160e01b600052604160045260246000fd5b634e487b7160e01b600052603260045260246000fd5b6000816200085d576200085d620007cc565b506000190190565b600181811c908216806200087a57607f821691505b6020821081036200089b57634e487b7160e01b600052602260045260246000fd5b50919050565b6139f480620008b16000396000f3fe6080604052600436106102935760003560e01c80635c975abb1161015a578063b88d4fde116100c1578063d53913931161007a578063d5391393146107b5578063d547741f146107e9578063e63ab1e914610809578063e8a77d171461083d578063e985e9c51461085d578063f4273b321461057e57600080fd5b8063b88d4fde1461071f578063bc6399e71461073f578063bf72b63f1461075b578063c040e6b81461076e578063c87b56dd14610795578063cc1169791461073f57600080fd5b80638456cb59116101135780638456cb591461068057806391d148541461069557806395d89b41146106b5578063a217fddf146106ca578063a22cb465146106df578063abdfe275146106ff57600080fd5b80635c975abb146105cd5780635ed6ac4f146105e55780636352211e146106045780636a1eb87e1461062457806370a08231146106405780637263cfe21461066057600080fd5b80632a55205a116101fe57806342842e0e116101b757806342842e0e1461051157806342966c6814610531578063438b63001461055157806344e5d1df1461057e5780634d4748981461059a5780634f6ccce7146105ad57600080fd5b80632a55205a1461043d5780632f2ff15d1461047c5780632f745c591461049c57806336568abe146104bc5780633f4ba83a146104dc57806340d097c3146104f157600080fd5b80630a49008d116102505780630a49008d1461037c578063140865f31461039c57806315afd8f8146103b957806318160ddd146103ce57806323b872dd146103ed578063248a9ca31461040d57600080fd5b806301ffc9a71461029857806302fa7c47146102cd57806306fdde03146102ef578063081812fc1461031157806309260db714610349578063095ea7b31461035c575b600080fd5b3480156102a457600080fd5b506102b86102b3366004612dfb565b6108a6565b60405190151581526020015b60405180910390f35b3480156102d957600080fd5b506102ed6102e8366004612e34565b6108b7565b005b3480156102fb57600080fd5b506103046108d1565b6040516102c49190612ecf565b34801561031d57600080fd5b5061033161032c366004612ee2565b610963565b6040516001600160a01b0390911681526020016102c4565b6102ed610357366004612ee2565b6109fd565b34801561036857600080fd5b506102ed610377366004612efb565b610a26565b34801561038857600080fd5b506102ed610397366004612fc4565b610b36565b3480156103a857600080fd5b506102ed600f805461ffff19169055565b3480156103c557600080fd5b506102ed610b4a565b3480156103da57600080fd5b50600c545b6040519081526020016102c4565b3480156103f957600080fd5b506102ed61040836600461300d565b610b5c565b34801561041957600080fd5b506103df610428366004612ee2565b60009081526009602052604090206001015490565b34801561044957600080fd5b5061045d610458366004613049565b610b8e565b604080516001600160a01b0390931683526020830191909152016102c4565b34801561048857600080fd5b506102ed61049736600461306b565b610c3a565b3480156104a857600080fd5b506103df6104b7366004612efb565b610c5f565b3480156104c857600080fd5b506102ed6104d736600461306b565b610cf5565b3480156104e857600080fd5b506102ed610d6f565b3480156104fd57600080fd5b506102ed61050c366004613097565b610da1565b34801561051d57600080fd5b506102ed61052c36600461300d565b610df0565b34801561053d57600080fd5b506102ed61054c366004612ee2565b610e0b565b34801561055d57600080fd5b5061057161056c366004613097565b610e7e565b6040516102c491906130b2565b34801561058a57600080fd5b506103df67058d15e17628000081565b6102ed6105a8366004612ee2565b610f20565b3480156105b957600080fd5b506103df6105c8366004612ee2565b61104b565b3480156105d957600080fd5b5060085460ff166102b8565b3480156105f157600080fd5b50600f546102b890610100900460ff1681565b34801561061057600080fd5b5061033161061f366004612ee2565b6110de565b34801561063057600080fd5b506103df670853a0d2313c000081565b34801561064c57600080fd5b506103df61065b366004613097565b611155565b34801561066c57600080fd5b506102ed61067b3660046130f6565b6111dc565b34801561068c57600080fd5b506102ed61124f565b3480156106a157600080fd5b506102b86106b036600461306b565b611281565b3480156106c157600080fd5b506103046112ac565b3480156106d657600080fd5b506103df600081565b3480156106eb57600080fd5b506102ed6106fa3660046131a3565b6112bb565b34801561070b57600080fd5b506102ed61071a366004612ee2565b6112c6565b34801561072b57600080fd5b506102ed61073a3660046131d4565b6112d1565b34801561074b57600080fd5b506103df6702c68af0bb14000081565b6102ed610769366004612ee2565b61130a565b34801561077a57600080fd5b50600f546107889060ff1681565b6040516102c49190613266565b3480156107a157600080fd5b506103046107b0366004612ee2565b61132f565b3480156107c157600080fd5b506103df7f9f2df0fed2c77648de5860a4cc508cd0818c85b8b8a1ab4ceeef8d981c8956a681565b3480156107f557600080fd5b506102ed61080436600461306b565b6113ba565b34801561081557600080fd5b506103df7f65d7a28e3265b37a6474929f336521b332c1681b933f6cb9f3376673440d862a81565b34801561084957600080fd5b506102ed610858366004612ee2565b6113df565b34801561086957600080fd5b506102b861087836600461328e565b6001600160a01b03918216600090815260056020908152604080832093909416825291909152205460ff1690565b60006108b1826116d7565b92915050565b60006108c2816116fc565b6108cc8383611706565b505050565b6060600080546108e0906132b8565b80601f016020809104026020016040519081016040528092919081815260200182805461090c906132b8565b80156109595780601f1061092e57610100808354040283529160200191610959565b820191906000526020600020905b81548152906001019060200180831161093c57829003601f168201915b5050505050905090565b6000818152600260205260408120546001600160a01b03166109e15760405162461bcd60e51b815260206004820152602c60248201527f4552433732313a20617070726f76656420717565727920666f72206e6f6e657860448201526b34b9ba32b73a103a37b5b2b760a11b60648201526084015b60405180910390fd5b506000908152600460205260409020546001600160a01b031690565b6001610a07611803565b610a108161182a565b610a228267058d15e1762800006118a6565b5050565b6000610a31826110de565b9050806001600160a01b0316836001600160a01b031603610a9e5760405162461bcd60e51b815260206004820152602160248201527f4552433732313a20617070726f76616c20746f2063757272656e74206f776e656044820152603960f91b60648201526084016109d8565b336001600160a01b0382161480610aba5750610aba8133610878565b610b2c5760405162461bcd60e51b815260206004820152603860248201527f4552433732313a20617070726f76652063616c6c6572206973206e6f74206f7760448201527f6e6572206e6f7220617070726f76656420666f7220616c6c000000000000000060648201526084016109d8565b6108cc8383611a99565b610b3e611b07565b610b4781611b24565b50565b610b52611b80565b610b5a611b99565b565b610b67335b82611bd7565b610b835760405162461bcd60e51b81526004016109d8906132f2565b6108cc838383611cce565b60008281526007602090815260408083208151808301909252546001600160a01b038116808352600160a01b9091046001600160601b0316928201929092528291610c035750604080518082019091526006546001600160a01b0381168252600160a01b90046001600160601b031660208201525b602081015160009061271090610c22906001600160601b031687613359565b610c2c919061338e565b915196919550909350505050565b600082815260096020526040902060010154610c55816116fc565b6108cc8383611e75565b6000610c6a83611155565b8210610ccc5760405162461bcd60e51b815260206004820152602b60248201527f455243373231456e756d657261626c653a206f776e657220696e646578206f7560448201526a74206f6620626f756e647360a81b60648201526084016109d8565b506001600160a01b03919091166000908152600a60209081526040808320938352929052205490565b6001600160a01b0381163314610d655760405162461bcd60e51b815260206004820152602f60248201527f416363657373436f6e74726f6c3a2063616e206f6e6c792072656e6f756e636560448201526e103937b632b9903337b91039b2b63360891b60648201526084016109d8565b610a228282611efb565b7f65d7a28e3265b37a6474929f336521b332c1681b933f6cb9f3376673440d862a610d99816116fc565b610b47611f62565b7f9f2df0fed2c77648de5860a4cc508cd0818c85b8b8a1ab4ceeef8d981c8956a6610dcb816116fc565b6000610dd6600e5490565b9050610de6600e80546001019055565b6108cc8382611ff5565b6108cc838383604051806020016040528060008152506112d1565b6003610e15611803565b610e1e8161182a565b610e278261200f565b610e3082612086565b6000838152601160205260409020805460ff19166001836004811115610e5857610e58613250565b021790555050600090815260136020526040902080546001600160a01b03191633179055565b60606000610e8b83611155565b905060008167ffffffffffffffff811115610ea857610ea8612f25565b604051908082528060200260200182016040528015610ed1578160200160208202803683370190505b50905060005b82811015610f1857610ee98582610c5f565b828281518110610efb57610efb6133a2565b602090810291909101015280610f10816133b8565b915050610ed7565b509392505050565b6000610f2a611803565b610f338161182a565b3360009081526012602052604090205460ff16610fa75760405162461bcd60e51b815260206004820152602c60248201527f5032443a20546865206d696e6572206973206e6f7420616c6c6f77656420746f60448201526b206d696e7420746f6b656e7360a01b60648201526084016109d8565b610fb0826120a1565b610fba82346120cc565b6000610fc5600e5490565b9050610fd5600e80546001019055565b610fdf3382611ff5565b60408051808201825260008082526020808301879052848252601190529190912081518154829060ff1916600183600481111561101e5761101e613250565b0217905550602091820151600190910155336000908152601290915260409020805460ff19169055505050565b6000611056600c5490565b82106110b95760405162461bcd60e51b815260206004820152602c60248201527f455243373231456e756d657261626c653a20676c6f62616c20696e646578206f60448201526b7574206f6620626f756e647360a01b60648201526084016109d8565b600c82815481106110cc576110cc6133a2565b90600052602060002001549050919050565b6000818152600260205260408120546001600160a01b0316806108b15760405162461bcd60e51b815260206004820152602960248201527f4552433732313a206f776e657220717565727920666f72206e6f6e657869737460448201526832b73a103a37b5b2b760b91b60648201526084016109d8565b60006001600160a01b0382166111c05760405162461bcd60e51b815260206004820152602a60248201527f4552433732313a2062616c616e636520717565727920666f7220746865207a65604482015269726f206164647265737360b01b60648201526084016109d8565b506001600160a01b031660009081526003602052604090205490565b60006111e7816116fc565b60005b82518110156108cc5760016012600085848151811061120b5761120b6133a2565b6020908102919091018101516001600160a01b03168252810191909152604001600020805460ff191691151591909117905580611247816133b8565b9150506111ea565b7f65d7a28e3265b37a6474929f336521b332c1681b933f6cb9f3376673440d862a611279816116fc565b610b47612157565b60009182526009602090815260408084206001600160a01b0393909316845291905290205460ff1690565b6060600180546108e0906132b8565b610a223383836121d2565b6000610a22816116fc565b6112dc335b83611bd7565b6112f85760405162461bcd60e51b81526004016109d8906132f2565b611304848484846122a0565b50505050565b6002611314611803565b61131d8161182a565b610a2282670853a0d2313c00006118a6565b6060600061139061133f846122d3565b60008581526011602052604090205461136b9060ff16600481111561136657611366613250565b6123ab565b60405160200161137c9291906133d1565b6040516020818303038152906040526124ac565b9050806040516020016113a39190613565565b604051602081830303815290604052915050919050565b6000828152600960205260409020600101546113d5816116fc565b6108cc8383611efb565b6003600f5460ff1660048111156113f8576113f8613250565b14801561140c5750600f54610100900460ff165b8061142d57506004600f5460ff16600481111561142b5761142b613250565b145b6114495760405162461bcd60e51b81526004016109d8906135aa565b6000818152601360205260409020546001600160a01b031680336001600160a01b0316146040516020016114c6907f52656269727468206661696c6564202d206f6e6c79206275726e65722069732081527f616c6c6f77656420746f20706572666f726d20726562697274680000000000006020820152603a0190565b604051602081830303815290604052906114f35760405162461bcd60e51b81526004016109d89190612ecf565b506114fd82612086565b6000838152601160205260409020805460ff1916600183600481111561152557611525613250565b0217905550610a223383611ff5565b60606000611543836002613359565b61154e9060026135fe565b67ffffffffffffffff81111561156657611566612f25565b6040519080825280601f01601f191660200182016040528015611590576020820181803683370190505b509050600360fc1b816000815181106115ab576115ab6133a2565b60200101906001600160f81b031916908160001a905350600f60fb1b816001815181106115da576115da6133a2565b60200101906001600160f81b031916908160001a90535060006115fe846002613359565b6116099060016135fe565b90505b6001811115611681576f181899199a1a9b1b9c1cb0b131b232b360811b85600f166010811061163d5761163d6133a2565b1a60f81b828281518110611653576116536133a2565b60200101906001600160f81b031916908160001a90535060049490941c9361167a81613616565b905061160c565b5083156116d05760405162461bcd60e51b815260206004820181905260248201527f537472696e67733a20686578206c656e67746820696e73756666696369656e7460448201526064016109d8565b9392505050565b60006001600160e01b0319821663780e9d6360e01b14806108b157506108b1826125ff565b610b478133612624565b6127106001600160601b03821611156117745760405162461bcd60e51b815260206004820152602a60248201527f455243323938313a20726f79616c7479206665652077696c6c206578636565646044820152692073616c65507269636560b01b60648201526084016109d8565b6001600160a01b0382166117ca5760405162461bcd60e51b815260206004820152601960248201527f455243323938313a20696e76616c69642072656365697665720000000000000060448201526064016109d8565b604080518082019091526001600160a01b039092168083526001600160601b039091166020909201829052600160a01b90910217600655565b600f54610100900460ff16610b5a5760405162461bcd60e51b81526004016109d8906135aa565b80600481111561183c5761183c613250565b600f5460ff16600481111561185357611853613250565b1461186982600481111561136657611366613250565b604051602001611879919061362d565b60405160208183030381529060405290610a225760405162461bcd60e51b81526004016109d89190612ecf565b6118af336112d6565b6119125760405162461bcd60e51b815260206004820152602e60248201527f4552433732313a2063616c6c6572206973206e6f7420746f6b656e206f776e6560448201526d1c881b9bdc88185c1c1c9bdd995960921b60648201526084016109d8565b600f5460019060ff16600481111561192c5761192c613250565b6119369190613693565b60008381526011602052604090205460ff16600481111561195957611959613250565b600f549114906119849060019060ff16600481111561197a5761197a613250565b6113669190613693565b60405160200161199491906136aa565b604051602081830303815290604052906119c15760405162461bcd60e51b81526004016109d89190612ecf565b506000828152601160205260408120600101549003611a25578034146119e6826123ab565b6040516020016119f69190613721565b60405160208183030381529060405290611a235760405162461bcd60e51b81526004016109d89190612ecf565b505b60008281526011602052604090206001015415611a5f576000828152601160205260408120600101805491611a5983613616565b91905055505b611a6882612086565b6000838152601160205260409020805460ff19166001836004811115611a9057611a90613250565b02179055505050565b600081815260046020526040902080546001600160a01b0319166001600160a01b0384169081179091558190611ace826110de565b6001600160a01b03167f8c5be1e5ebec7d5bd14f71427d1e84f3dd0314c0f7b2291e5b200ac8c7c3b92560405160405180910390a45050565b6000611b12816116fc565b50600f805461ff001916610100179055565b6000611b2f816116fc565b600f54829060109060009060ff166004811115611b4e57611b4e613250565b6004811115611b5f57611b5f613250565b815260200190815260200160002090805190602001906108cc929190612d4c565b6000611b8b816116fc565b50600f805461ff0019169055565b6000611ba4816116fc565b600f54611bb39060ff16612688565b600f805460ff19166001836004811115611bcf57611bcf613250565b021790555050565b6000818152600260205260408120546001600160a01b0316611c505760405162461bcd60e51b815260206004820152602c60248201527f4552433732313a206f70657261746f7220717565727920666f72206e6f6e657860448201526b34b9ba32b73a103a37b5b2b760a11b60648201526084016109d8565b6000611c5b836110de565b9050806001600160a01b0316846001600160a01b03161480611ca257506001600160a01b0380821660009081526005602090815260408083209388168352929052205460ff165b80611cc65750836001600160a01b0316611cbb84610963565b6001600160a01b0316145b949350505050565b826001600160a01b0316611ce1826110de565b6001600160a01b031614611d455760405162461bcd60e51b815260206004820152602560248201527f4552433732313a207472616e736665722066726f6d20696e636f72726563742060448201526437bbb732b960d91b60648201526084016109d8565b6001600160a01b038216611da75760405162461bcd60e51b8152602060048201526024808201527f4552433732313a207472616e7366657220746f20746865207a65726f206164646044820152637265737360e01b60648201526084016109d8565b611db2838383612715565b611dbd600082611a99565b6001600160a01b0383166000908152600360205260408120805460019290611de6908490613693565b90915550506001600160a01b0382166000908152600360205260408120805460019290611e149084906135fe565b909155505060008181526002602052604080822080546001600160a01b0319166001600160a01b0386811691821790925591518493918716917fddf252ad1be2c89b69c2b068fc378daa952ba7f163c4a11628f55a4df523b3ef91a4505050565b611e7f8282611281565b610a225760008281526009602090815260408083206001600160a01b03851684529091529020805460ff19166001179055611eb73390565b6001600160a01b0316816001600160a01b0316837f2f8788117e7eff1d82e926ec794901d17c78024a50270940304540a733656f0d60405160405180910390a45050565b611f058282611281565b15610a225760008281526009602090815260408083206001600160a01b0385168085529252808320805460ff1916905551339285917ff6391f5c32d9c69d2a47ea670b442974b53935d1edc7fd64eb21e047a839171b9190a45050565b60085460ff16611fab5760405162461bcd60e51b815260206004820152601460248201527314185d5cd8589b194e881b9bdd081c185d5cd95960621b60448201526064016109d8565b6008805460ff191690557f5db9ee0a495bf2e6ff9c91a7834c1ba4fdd244a5e8aa4e537bd38aeae4b073aa335b6040516001600160a01b03909116815260200160405180910390a1565b610a22828260405180602001604052806000815250612766565b61201833610b61565b61207d5760405162461bcd60e51b815260206004820152603060248201527f4552433732314275726e61626c653a2063616c6c6572206973206e6f74206f7760448201526f1b995c881b9bdc88185c1c1c9bdd995960821b60648201526084016109d8565b610b4781612799565b6000818152601160205260408120546108b19060ff16612688565b6120ad60016004613693565b8111156120bc6001600461197a565b6040516020016118799190613777565b6702c68af0bb14000082156120f0576120ed6702c68af0bb140000826135fe565b90505b600183111561210e5761210b67058d15e176280000826135fe565b90505b80821461211a826123ab565b60405160200161212a9190613721565b604051602081830303815290604052906113045760405162461bcd60e51b81526004016109d89190612ecf565b60085460ff161561219d5760405162461bcd60e51b815260206004820152601060248201526f14185d5cd8589b194e881c185d5cd95960821b60448201526064016109d8565b6008805460ff191660011790557f62e78cea01bee320cd4e420270b5ea74000d11b0c9f74754ebdbfc544b05a258611fd83390565b816001600160a01b0316836001600160a01b0316036122335760405162461bcd60e51b815260206004820152601960248201527f4552433732313a20617070726f766520746f2063616c6c65720000000000000060448201526064016109d8565b6001600160a01b03838116600081815260056020908152604080832094871680845294825291829020805460ff191686151590811790915591519182527f17307eab39ab6107e8899845ad3d59bd9653f200f220920489ca2b5937696c31910160405180910390a3505050565b6122ab848484611cce565b6122b784848484612840565b6113045760405162461bcd60e51b81526004016109d8906137e2565b60008181526011602052604081205460609160109160ff1660048111156122fc576122fc613250565b600481111561230d5761230d613250565b81526020019081526020016000208054612326906132b8565b80601f0160208091040260200160405190810160405280929190818152602001828054612352906132b8565b801561239f5780601f106123745761010080835404028352916020019161239f565b820191906000526020600020905b81548152906001019060200180831161238257829003601f168201915b50505050509050919050565b6060816000036123d25750506040805180820190915260018152600360fc1b602082015290565b8160005b81156123fc57806123e6816133b8565b91506123f59050600a8361338e565b91506123d6565b60008167ffffffffffffffff81111561241757612417612f25565b6040519080825280601f01601f191660200182016040528015612441576020820181803683370190505b5090505b8415611cc657612456600183613693565b9150612463600a86613834565b61246e9060306135fe565b60f81b818381518110612483576124836133a2565b60200101906001600160f81b031916908160001a9053506124a5600a8661338e565b9450612445565b606081516000036124cb57505060408051602081019091526000815290565b600060405180606001604052806040815260200161397f60409139905060006003845160026124fa91906135fe565b612504919061338e565b61250f906004613359565b67ffffffffffffffff81111561252757612527612f25565b6040519080825280601f01601f191660200182016040528015612551576020820181803683370190505b509050600182016020820185865187015b808210156125bd576003820191508151603f8160121c168501518453600184019350603f81600c1c168501518453600184019350603f8160061c168501518453600184019350603f8116850151845350600183019250612562565b50506003865106600181146125d957600281146125ec576125f4565b603d6001830353603d60028303536125f4565b603d60018303535b509195945050505050565b60006001600160e01b03198216637965db0b60e01b14806108b157506108b182612941565b61262e8282611281565b610a2257612646816001600160a01b03166014611534565b612651836020611534565b604051602001612662929190613848565b60408051601f198184030181529082905262461bcd60e51b82526109d891600401612ecf565b6000600482600481111561269e5761269e613250565b106126a960046123ab565b6040516020016126b991906138bd565b604051602081830303815290604052906126e65760405162461bcd60e51b81526004016109d89190612ecf565b508160048111156126f9576126f9613250565b6127049060016135fe565b60048111156108b1576108b1613250565b60085460ff161561275b5760405162461bcd60e51b815260206004820152601060248201526f14185d5cd8589b194e881c185d5cd95960821b60448201526064016109d8565b6108cc838383612966565b6127708383612a1e565b61277d6000848484612840565b6108cc5760405162461bcd60e51b81526004016109d8906137e2565b60006127a4826110de565b90506127b281600084612715565b6127bd600083611a99565b6001600160a01b03811660009081526003602052604081208054600192906127e6908490613693565b909155505060008281526002602052604080822080546001600160a01b0319169055518391906001600160a01b038416907fddf252ad1be2c89b69c2b068fc378daa952ba7f163c4a11628f55a4df523b3ef908390a45050565b60006001600160a01b0384163b1561293657604051630a85bd0160e11b81526001600160a01b0385169063150b7a029061288490339089908890889060040161390e565b6020604051808303816000875af19250505080156128bf575060408051601f3d908101601f191682019092526128bc9181019061394b565b60015b61291c573d8080156128ed576040519150601f19603f3d011682016040523d82523d6000602084013e6128f2565b606091505b5080516000036129145760405162461bcd60e51b81526004016109d8906137e2565b805181602001fd5b6001600160e01b031916630a85bd0160e11b149050611cc6565b506001949350505050565b60006001600160e01b0319821663152a902d60e11b14806108b157506108b182612b6c565b6001600160a01b0383166129c1576129bc81600c80546000838152600d60205260408120829055600182018355919091527fdf6966c971051c3d54ec59162606531493a51404a002842f56009d7e5cf4a8c70155565b6129e4565b816001600160a01b0316836001600160a01b0316146129e4576129e48382612bbc565b6001600160a01b0382166129fb576108cc81612c59565b826001600160a01b0316826001600160a01b0316146108cc576108cc8282612d08565b6001600160a01b038216612a745760405162461bcd60e51b815260206004820181905260248201527f4552433732313a206d696e7420746f20746865207a65726f206164647265737360448201526064016109d8565b6000818152600260205260409020546001600160a01b031615612ad95760405162461bcd60e51b815260206004820152601c60248201527f4552433732313a20746f6b656e20616c7265616479206d696e7465640000000060448201526064016109d8565b612ae560008383612715565b6001600160a01b0382166000908152600360205260408120805460019290612b0e9084906135fe565b909155505060008181526002602052604080822080546001600160a01b0319166001600160a01b03861690811790915590518392907fddf252ad1be2c89b69c2b068fc378daa952ba7f163c4a11628f55a4df523b3ef908290a45050565b60006001600160e01b031982166380ac58cd60e01b1480612b9d57506001600160e01b03198216635b5e139f60e01b145b806108b157506301ffc9a760e01b6001600160e01b03198316146108b1565b60006001612bc984611155565b612bd39190613693565b6000838152600b6020526040902054909150808214612c26576001600160a01b0384166000908152600a602090815260408083208584528252808320548484528184208190558352600b90915290208190555b506000918252600b602090815260408084208490556001600160a01b039094168352600a81528383209183525290812055565b600c54600090612c6b90600190613693565b6000838152600d6020526040812054600c8054939450909284908110612c9357612c936133a2565b9060005260206000200154905080600c8381548110612cb457612cb46133a2565b6000918252602080832090910192909255828152600d9091526040808220849055858252812055600c805480612cec57612cec613968565b6001900381819060005260206000200160009055905550505050565b6000612d1383611155565b6001600160a01b039093166000908152600a602090815260408083208684528252808320859055938252600b9052919091209190915550565b828054612d58906132b8565b90600052602060002090601f016020900481019282612d7a5760008555612dc0565b82601f10612d9357805160ff1916838001178555612dc0565b82800160010185558215612dc0579182015b82811115612dc0578251825591602001919060010190612da5565b50612dcc929150612dd0565b5090565b5b80821115612dcc5760008155600101612dd1565b6001600160e01b031981168114610b4757600080fd5b600060208284031215612e0d57600080fd5b81356116d081612de5565b80356001600160a01b0381168114612e2f57600080fd5b919050565b60008060408385031215612e4757600080fd5b612e5083612e18565b915060208301356001600160601b0381168114612e6c57600080fd5b809150509250929050565b60005b83811015612e92578181015183820152602001612e7a565b838111156113045750506000910152565b60008151808452612ebb816020860160208601612e77565b601f01601f19169290920160200192915050565b6020815260006116d06020830184612ea3565b600060208284031215612ef457600080fd5b5035919050565b60008060408385031215612f0e57600080fd5b612f1783612e18565b946020939093013593505050565b634e487b7160e01b600052604160045260246000fd5b604051601f8201601f1916810167ffffffffffffffff81118282101715612f6457612f64612f25565b604052919050565b600067ffffffffffffffff831115612f8657612f86612f25565b612f99601f8401601f1916602001612f3b565b9050828152838383011115612fad57600080fd5b828260208301376000602084830101529392505050565b600060208284031215612fd657600080fd5b813567ffffffffffffffff811115612fed57600080fd5b8201601f81018413612ffe57600080fd5b611cc684823560208401612f6c565b60008060006060848603121561302257600080fd5b61302b84612e18565b925061303960208501612e18565b9150604084013590509250925092565b6000806040838503121561305c57600080fd5b50508035926020909101359150565b6000806040838503121561307e57600080fd5b8235915061308e60208401612e18565b90509250929050565b6000602082840312156130a957600080fd5b6116d082612e18565b6020808252825182820181905260009190848201906040850190845b818110156130ea578351835292840192918401916001016130ce565b50909695505050505050565b6000602080838503121561310957600080fd5b823567ffffffffffffffff8082111561312157600080fd5b818501915085601f83011261313557600080fd5b81358181111561314757613147612f25565b8060051b9150613158848301612f3b565b818152918301840191848101908884111561317257600080fd5b938501935b838510156131975761318885612e18565b82529385019390850190613177565b98975050505050505050565b600080604083850312156131b657600080fd5b6131bf83612e18565b915060208301358015158114612e6c57600080fd5b600080600080608085870312156131ea57600080fd5b6131f385612e18565b935061320160208601612e18565b925060408501359150606085013567ffffffffffffffff81111561322457600080fd5b8501601f8101871361323557600080fd5b61324487823560208401612f6c565b91505092959194509250565b634e487b7160e01b600052602160045260246000fd5b602081016005831061328857634e487b7160e01b600052602160045260246000fd5b91905290565b600080604083850312156132a157600080fd5b6132aa83612e18565b915061308e60208401612e18565b600181811c908216806132cc57607f821691505b6020821081036132ec57634e487b7160e01b600052602260045260246000fd5b50919050565b60208082526031908201527f4552433732313a207472616e736665722063616c6c6572206973206e6f74206f6040820152701ddb995c881b9bdc88185c1c1c9bdd9959607a1b606082015260800190565b634e487b7160e01b600052601160045260246000fd5b600081600019048311821515161561337357613373613343565b500290565b634e487b7160e01b600052601260045260246000fd5b60008261339d5761339d613378565b500490565b634e487b7160e01b600052603260045260246000fd5b6000600182016133ca576133ca613343565b5060010190565b7f7b226e616d65223a20224469616d6f6e64204461776e222c202264657363726981527f7074696f6e223a20225468697320697320746865206465736372697074696f6e60208201527f206f66204469616d6f6e64204461776e2050726f6a656374222c2022696d616760408201527f65223a202268747470733a2f2f6d656469612e6e69667479676174657761792e60608201527f636f6d2f766964656f2f75706c6f61642f76313633393432313134312f416e6460808201527f7265612f446176696441726965772f446563437572617465642f4d797374696360a08201527f616c5f436162617265745f2d5f44617669645f41726965775f315f777a64687560c08201527f772e706e67222c2022616e696d6174696f6e5f75726c223a202200000000000060e0820152600083516135138160fa850160208801612e77565b6c1116101139ba30b3b2911d101160991b60fa918401918201528351610107906135438183850160208901612e77565b61355a82828501016222207d60e81b815260030190565b979650505050505050565b7f646174613a6170706c69636174696f6e2f6a736f6e3b6261736536342c00000081526000825161359d81601d850160208701612e77565b91909101601d0192915050565b60208082526034908201527f5032443a20412073746167652073686f756c642062652061637469766520746f604082015273103832b93337b936903a3434b99030b1ba34b7b760611b606082015260800190565b6000821982111561361157613611613343565b500190565b60008161362557613625613343565b506000190190565b7f5032443a205468652073746167652073686f756c642062652000000000000000815260008251613665816019850160208701612e77565b76103a37903832b93337b936903a3434b99030b1ba34b7b760491b6019939091019283015250603001919050565b6000828210156136a5576136a5613343565b500390565b7f5032443a20546865206c6576656c206f6620746865206469616d6f6e64207368815267037bab632103132960c51b6020820152600082516136f3816028850160208701612e77565b76103a37903832b93337b936903a3434b99030b1ba34b7b760491b6028939091019283015250603f01919050565b7f5032443a2057726f6e67207061796d656e74202d207061796d656e742073686f81526703ab6321031329d160c51b60208201526000825161376a816028850160208701612e77565b9190910160280192915050565b7f5032443a205075726368617365642070726f6365737365732073686f756c642081527f6265206c657373207468616e206f7220657175616c20746f20000000000000006020820152600082516137d5816039850160208701612e77565b9190910160390192915050565b60208082526032908201527f4552433732313a207472616e7366657220746f206e6f6e20455243373231526560408201527131b2b4bb32b91034b6b83632b6b2b73a32b960711b606082015260800190565b60008261384357613843613378565b500690565b7f416363657373436f6e74726f6c3a206163636f756e7420000000000000000000815260008351613880816017850160208801612e77565b7001034b99036b4b9b9b4b733903937b6329607d1b60179184019182015283516138b1816028840160208801612e77565b01602801949350505050565b7f5032443a205468652073746167652073686f756c64206265206c657373207468815262030b7160ed1b602082015260008251613901816023850160208701612e77565b9190910160230192915050565b6001600160a01b038581168252841660208201526040810183905260806060820181905260009061394190830184612ea3565b9695505050505050565b60006020828403121561395d57600080fd5b81516116d081612de5565b634e487b7160e01b600052603160045260246000fdfe4142434445464748494a4b4c4d4e4f505152535455565758595a6162636465666768696a6b6c6d6e6f707172737475767778797a303132333435363738392b2fa264697066735822122030b2db59472dae3da64d43f1e8f6028df6484ab66cf38448dca8854e5a57022d64736f6c634300080e0033",
  "linkReferences": {},
  "deployedLinkReferences": {}
}