{
  "_format": "hh-sol-artifact-1",
  "contractName": "DiamondDawn",
  "sourceName": "contracts/DiamondDawn.sol",
  "abi": [
    {
      "inputs": [
        {
          "internalType": "uint96",
          "name": "_royaltyFeesInBips",
          "type": "uint96"
        }
      ],
      "stateMutability": "nonpayable",
      "type": "constructor"
    },
    {
      "anonymous": false,
      "inputs": [
        {
          "indexed": true,
          "internalType": "address",
          "name": "owner",
          "type": "address"
        },
        {
          "indexed": true,
          "internalType": "address",
          "name": "approved",
          "type": "address"
        },
        {
          "indexed": true,
          "internalType": "uint256",
          "name": "tokenId",
          "type": "uint256"
        }
      ],
      "name": "Approval",
      "type": "event"
    },
    {
      "anonymous": false,
      "inputs": [
        {
          "indexed": true,
          "internalType": "address",
          "name": "owner",
          "type": "address"
        },
        {
          "indexed": true,
          "internalType": "address",
          "name": "operator",
          "type": "address"
        },
        {
          "indexed": false,
          "internalType": "bool",
          "name": "approved",
          "type": "bool"
        }
      ],
      "name": "ApprovalForAll",
      "type": "event"
    },
    {
      "anonymous": false,
      "inputs": [
        {
          "indexed": false,
          "internalType": "address",
          "name": "account",
          "type": "address"
        }
      ],
      "name": "Paused",
      "type": "event"
    },
    {
      "anonymous": false,
      "inputs": [
        {
          "indexed": true,
          "internalType": "bytes32",
          "name": "role",
          "type": "bytes32"
        },
        {
          "indexed": true,
          "internalType": "bytes32",
          "name": "previousAdminRole",
          "type": "bytes32"
        },
        {
          "indexed": true,
          "internalType": "bytes32",
          "name": "newAdminRole",
          "type": "bytes32"
        }
      ],
      "name": "RoleAdminChanged",
      "type": "event"
    },
    {
      "anonymous": false,
      "inputs": [
        {
          "indexed": true,
          "internalType": "bytes32",
          "name": "role",
          "type": "bytes32"
        },
        {
          "indexed": true,
          "internalType": "address",
          "name": "account",
          "type": "address"
        },
        {
          "indexed": true,
          "internalType": "address",
          "name": "sender",
          "type": "address"
        }
      ],
      "name": "RoleGranted",
      "type": "event"
    },
    {
      "anonymous": false,
      "inputs": [
        {
          "indexed": true,
          "internalType": "bytes32",
          "name": "role",
          "type": "bytes32"
        },
        {
          "indexed": true,
          "internalType": "address",
          "name": "account",
          "type": "address"
        },
        {
          "indexed": true,
          "internalType": "address",
          "name": "sender",
          "type": "address"
        }
      ],
      "name": "RoleRevoked",
      "type": "event"
    },
    {
      "anonymous": false,
      "inputs": [
        {
          "indexed": true,
          "internalType": "address",
          "name": "from",
          "type": "address"
        },
        {
          "indexed": true,
          "internalType": "address",
          "name": "to",
          "type": "address"
        },
        {
          "indexed": true,
          "internalType": "uint256",
          "name": "tokenId",
          "type": "uint256"
        }
      ],
      "name": "Transfer",
      "type": "event"
    },
    {
      "anonymous": false,
      "inputs": [
        {
          "indexed": false,
          "internalType": "address",
          "name": "account",
          "type": "address"
        }
      ],
      "name": "Unpaused",
      "type": "event"
    },
    {
      "inputs": [],
      "name": "CUT_PRICE",
      "outputs": [
        {
          "internalType": "uint256",
          "name": "",
          "type": "uint256"
        }
      ],
      "stateMutability": "view",
      "type": "function"
    },
    {
      "inputs": [],
      "name": "DEFAULT_ADMIN_ROLE",
      "outputs": [
        {
          "internalType": "bytes32",
          "name": "",
          "type": "bytes32"
        }
      ],
      "stateMutability": "view",
      "type": "function"
    },
    {
      "inputs": [],
      "name": "MINING_PRICE",
      "outputs": [
        {
          "internalType": "uint256",
          "name": "",
          "type": "uint256"
        }
      ],
      "stateMutability": "view",
      "type": "function"
    },
    {
      "inputs": [],
      "name": "MINTER_ROLE",
      "outputs": [
        {
          "internalType": "bytes32",
          "name": "",
          "type": "bytes32"
        }
      ],
      "stateMutability": "view",
      "type": "function"
    },
    {
      "inputs": [],
      "name": "PAUSER_ROLE",
      "outputs": [
        {
          "internalType": "bytes32",
          "name": "",
          "type": "bytes32"
        }
      ],
      "stateMutability": "view",
      "type": "function"
    },
    {
      "inputs": [],
      "name": "POLISH_PRICE",
      "outputs": [
        {
          "internalType": "uint256",
          "name": "",
          "type": "uint256"
        }
      ],
      "stateMutability": "view",
      "type": "function"
    },
    {
      "inputs": [],
      "name": "PREPAID_CUT_PRICE",
      "outputs": [
        {
          "internalType": "uint256",
          "name": "",
          "type": "uint256"
        }
      ],
      "stateMutability": "view",
      "type": "function"
    },
    {
      "inputs": [],
      "name": "PREPAID_POLISH_PRICE",
      "outputs": [
        {
          "internalType": "uint256",
          "name": "",
          "type": "uint256"
        }
      ],
      "stateMutability": "view",
      "type": "function"
    },
    {
      "inputs": [
        {
          "internalType": "address[]",
          "name": "addresses",
          "type": "address[]"
        }
      ],
      "name": "addToAllowList",
      "outputs": [],
      "stateMutability": "nonpayable",
      "type": "function"
    },
    {
      "inputs": [
        {
          "internalType": "address",
          "name": "to",
          "type": "address"
        },
        {
          "internalType": "uint256",
          "name": "tokenId",
          "type": "uint256"
        }
      ],
      "name": "approve",
      "outputs": [],
      "stateMutability": "nonpayable",
      "type": "function"
    },
    {
      "inputs": [
        {
          "internalType": "address",
          "name": "owner",
          "type": "address"
        }
      ],
      "name": "balanceOf",
      "outputs": [
        {
          "internalType": "uint256",
          "name": "",
          "type": "uint256"
        }
      ],
      "stateMutability": "view",
      "type": "function"
    },
    {
      "inputs": [
        {
          "internalType": "uint256",
          "name": "tokenId",
          "type": "uint256"
        }
      ],
      "name": "burn",
      "outputs": [],
      "stateMutability": "nonpayable",
      "type": "function"
    },
    {
      "inputs": [],
      "name": "completeCurrentStage",
      "outputs": [],
      "stateMutability": "nonpayable",
      "type": "function"
    },
    {
      "inputs": [
        {
          "internalType": "uint256",
          "name": "tokenId",
          "type": "uint256"
        }
      ],
      "name": "cut",
      "outputs": [],
      "stateMutability": "payable",
      "type": "function"
    },
    {
      "inputs": [],
      "name": "dev__ResetStage",
      "outputs": [],
      "stateMutability": "nonpayable",
      "type": "function"
    },
    {
      "inputs": [
        {
          "internalType": "uint256",
          "name": "tokenId",
          "type": "uint256"
        }
      ],
      "name": "getApproved",
      "outputs": [
        {
          "internalType": "address",
          "name": "",
          "type": "address"
        }
      ],
      "stateMutability": "view",
      "type": "function"
    },
    {
      "inputs": [
        {
          "internalType": "address",
          "name": "owner",
          "type": "address"
        }
      ],
      "name": "getBurnedTokens",
      "outputs": [
        {
          "internalType": "uint256[]",
          "name": "",
          "type": "uint256[]"
        }
      ],
      "stateMutability": "view",
      "type": "function"
    },
    {
      "inputs": [
        {
          "internalType": "bytes32",
          "name": "role",
          "type": "bytes32"
        }
      ],
      "name": "getRoleAdmin",
      "outputs": [
        {
          "internalType": "bytes32",
          "name": "",
          "type": "bytes32"
        }
      ],
      "stateMutability": "view",
      "type": "function"
    },
    {
      "inputs": [
        {
          "internalType": "uint256",
          "name": "tokenId",
          "type": "uint256"
        }
      ],
      "name": "getShapeForToken",
      "outputs": [
        {
          "internalType": "enum DiamondDawn.Shape",
          "name": "",
          "type": "uint8"
        }
      ],
      "stateMutability": "view",
      "type": "function"
    },
    {
      "inputs": [
        {
          "internalType": "bytes32",
          "name": "role",
          "type": "bytes32"
        },
        {
          "internalType": "address",
          "name": "account",
          "type": "address"
        }
      ],
      "name": "grantRole",
      "outputs": [],
      "stateMutability": "nonpayable",
      "type": "function"
    },
    {
      "inputs": [
        {
          "internalType": "bytes32",
          "name": "role",
          "type": "bytes32"
        },
        {
          "internalType": "address",
          "name": "account",
          "type": "address"
        }
      ],
      "name": "hasRole",
      "outputs": [
        {
          "internalType": "bool",
          "name": "",
          "type": "bool"
        }
      ],
      "stateMutability": "view",
      "type": "function"
    },
    {
      "inputs": [
        {
          "internalType": "address",
          "name": "owner",
          "type": "address"
        },
        {
          "internalType": "address",
          "name": "operator",
          "type": "address"
        }
      ],
      "name": "isApprovedForAll",
      "outputs": [
        {
          "internalType": "bool",
          "name": "",
          "type": "bool"
        }
      ],
      "stateMutability": "view",
      "type": "function"
    },
    {
      "inputs": [],
      "name": "isStageActive",
      "outputs": [
        {
          "internalType": "bool",
          "name": "",
          "type": "bool"
        }
      ],
      "stateMutability": "view",
      "type": "function"
    },
    {
      "inputs": [
        {
          "internalType": "uint256",
          "name": "processesPurchased",
          "type": "uint256"
        }
      ],
      "name": "mine",
      "outputs": [],
      "stateMutability": "payable",
      "type": "function"
    },
    {
      "inputs": [
        {
          "internalType": "address",
          "name": "",
          "type": "address"
        }
      ],
      "name": "mintAllowedAddresses",
      "outputs": [
        {
          "internalType": "bool",
          "name": "",
          "type": "bool"
        }
      ],
      "stateMutability": "view",
      "type": "function"
    },
    {
      "inputs": [],
      "name": "name",
      "outputs": [
        {
          "internalType": "string",
          "name": "",
          "type": "string"
        }
      ],
      "stateMutability": "view",
      "type": "function"
    },
    {
      "inputs": [
        {
          "internalType": "uint256",
          "name": "tokenId",
          "type": "uint256"
        }
      ],
      "name": "ownerOf",
      "outputs": [
        {
          "internalType": "address",
          "name": "",
          "type": "address"
        }
      ],
      "stateMutability": "view",
      "type": "function"
    },
    {
      "inputs": [],
      "name": "pause",
      "outputs": [],
      "stateMutability": "nonpayable",
      "type": "function"
    },
    {
      "inputs": [],
      "name": "paused",
      "outputs": [
        {
          "internalType": "bool",
          "name": "",
          "type": "bool"
        }
      ],
      "stateMutability": "view",
      "type": "function"
    },
    {
      "inputs": [
        {
          "internalType": "uint256",
          "name": "tokenId",
          "type": "uint256"
        }
      ],
      "name": "polish",
      "outputs": [],
      "stateMutability": "payable",
      "type": "function"
    },
    {
      "inputs": [
        {
          "internalType": "uint256",
          "name": "tokenId",
          "type": "uint256"
        }
      ],
      "name": "rebirth",
      "outputs": [],
      "stateMutability": "nonpayable",
      "type": "function"
    },
    {
      "inputs": [
        {
          "internalType": "bytes32",
          "name": "role",
          "type": "bytes32"
        },
        {
          "internalType": "address",
          "name": "account",
          "type": "address"
        }
      ],
      "name": "renounceRole",
      "outputs": [],
      "stateMutability": "nonpayable",
      "type": "function"
    },
    {
      "inputs": [
        {
          "internalType": "string",
          "name": "videoUrl",
          "type": "string"
        }
      ],
      "name": "revealStage",
      "outputs": [],
      "stateMutability": "nonpayable",
      "type": "function"
    },
    {
      "inputs": [
        {
          "internalType": "bytes32",
          "name": "role",
          "type": "bytes32"
        },
        {
          "internalType": "address",
          "name": "account",
          "type": "address"
        }
      ],
      "name": "revokeRole",
      "outputs": [],
      "stateMutability": "nonpayable",
      "type": "function"
    },
    {
      "inputs": [
        {
          "internalType": "uint256",
          "name": "_tokenId",
          "type": "uint256"
        },
        {
          "internalType": "uint256",
          "name": "_salePrice",
          "type": "uint256"
        }
      ],
      "name": "royaltyInfo",
      "outputs": [
        {
          "internalType": "address",
          "name": "",
          "type": "address"
        },
        {
          "internalType": "uint256",
          "name": "",
          "type": "uint256"
        }
      ],
      "stateMutability": "view",
      "type": "function"
    },
    {
      "inputs": [
        {
          "internalType": "address",
          "name": "to",
          "type": "address"
        }
      ],
      "name": "safeMint",
      "outputs": [],
      "stateMutability": "nonpayable",
      "type": "function"
    },
    {
      "inputs": [
        {
          "internalType": "address",
          "name": "from",
          "type": "address"
        },
        {
          "internalType": "address",
          "name": "to",
          "type": "address"
        },
        {
          "internalType": "uint256",
          "name": "tokenId",
          "type": "uint256"
        }
      ],
      "name": "safeTransferFrom",
      "outputs": [],
      "stateMutability": "nonpayable",
      "type": "function"
    },
    {
      "inputs": [
        {
          "internalType": "address",
          "name": "from",
          "type": "address"
        },
        {
          "internalType": "address",
          "name": "to",
          "type": "address"
        },
        {
          "internalType": "uint256",
          "name": "tokenId",
          "type": "uint256"
        },
        {
          "internalType": "bytes",
          "name": "_data",
          "type": "bytes"
        }
      ],
      "name": "safeTransferFrom",
      "outputs": [],
      "stateMutability": "nonpayable",
      "type": "function"
    },
    {
      "inputs": [
        {
          "internalType": "address",
          "name": "operator",
          "type": "address"
        },
        {
          "internalType": "bool",
          "name": "approved",
          "type": "bool"
        }
      ],
      "name": "setApprovalForAll",
      "outputs": [],
      "stateMutability": "nonpayable",
      "type": "function"
    },
    {
      "inputs": [
        {
          "internalType": "uint256",
          "name": "price",
          "type": "uint256"
        }
      ],
      "name": "setProcessingPrice",
      "outputs": [],
      "stateMutability": "nonpayable",
      "type": "function"
    },
    {
      "inputs": [
        {
          "internalType": "address",
          "name": "_receiver",
          "type": "address"
        },
        {
          "internalType": "uint96",
          "name": "_royaltyFeesInBips",
          "type": "uint96"
        }
      ],
      "name": "setRoyaltyInfo",
      "outputs": [],
      "stateMutability": "nonpayable",
      "type": "function"
    },
    {
      "inputs": [],
      "name": "stage",
      "outputs": [
        {
          "internalType": "enum DiamondDawn.Stage",
          "name": "",
          "type": "uint8"
        }
      ],
      "stateMutability": "view",
      "type": "function"
    },
    {
      "inputs": [
        {
          "internalType": "bytes4",
          "name": "interfaceId",
          "type": "bytes4"
        }
      ],
      "name": "supportsInterface",
      "outputs": [
        {
          "internalType": "bool",
          "name": "",
          "type": "bool"
        }
      ],
      "stateMutability": "view",
      "type": "function"
    },
    {
      "inputs": [],
      "name": "symbol",
      "outputs": [
        {
          "internalType": "string",
          "name": "",
          "type": "string"
        }
      ],
      "stateMutability": "view",
      "type": "function"
    },
    {
      "inputs": [
        {
          "internalType": "uint256",
          "name": "index",
          "type": "uint256"
        }
      ],
      "name": "tokenByIndex",
      "outputs": [
        {
          "internalType": "uint256",
          "name": "",
          "type": "uint256"
        }
      ],
      "stateMutability": "view",
      "type": "function"
    },
    {
      "inputs": [
        {
          "internalType": "address",
          "name": "owner",
          "type": "address"
        },
        {
          "internalType": "uint256",
          "name": "index",
          "type": "uint256"
        }
      ],
      "name": "tokenOfOwnerByIndex",
      "outputs": [
        {
          "internalType": "uint256",
          "name": "",
          "type": "uint256"
        }
      ],
      "stateMutability": "view",
      "type": "function"
    },
    {
      "inputs": [
        {
          "internalType": "uint256",
          "name": "tokenId",
          "type": "uint256"
        }
      ],
      "name": "tokenURI",
      "outputs": [
        {
          "internalType": "string",
          "name": "",
          "type": "string"
        }
      ],
      "stateMutability": "view",
      "type": "function"
    },
    {
      "inputs": [],
      "name": "totalSupply",
      "outputs": [
        {
          "internalType": "uint256",
          "name": "",
          "type": "uint256"
        }
      ],
      "stateMutability": "view",
      "type": "function"
    },
    {
      "inputs": [
        {
          "internalType": "address",
          "name": "from",
          "type": "address"
        },
        {
          "internalType": "address",
          "name": "to",
          "type": "address"
        },
        {
          "internalType": "uint256",
          "name": "tokenId",
          "type": "uint256"
        }
      ],
      "name": "transferFrom",
      "outputs": [],
      "stateMutability": "nonpayable",
      "type": "function"
    },
    {
      "inputs": [],
      "name": "unpause",
      "outputs": [],
      "stateMutability": "nonpayable",
      "type": "function"
    },
    {
      "inputs": [
        {
          "internalType": "address",
          "name": "_owner",
          "type": "address"
        }
      ],
      "name": "walletOfOwner",
      "outputs": [
        {
          "internalType": "uint256[]",
          "name": "",
          "type": "uint256[]"
        }
      ],
      "stateMutability": "view",
      "type": "function"
    }
  ],
  "bytecode": "0x60806040523480156200001157600080fd5b50604051620048c9380380620048c98339810160408190526200003491620006c0565b604080518082018252600b81526a2234b0b6b7b7322230bbb760a91b602080830191825283518085019094526002845261111160f21b90840152815191929162000081916000916200061a565b508051620000979060019060208401906200061a565b50506008805460ff1916905550620000b16000336200014b565b620000dd7f65d7a28e3265b37a6474929f336521b332c1681b933f6cb9f3376673440d862a336200014b565b620001097f9f2df0fed2c77648de5860a4cc508cd0818c85b8b8a1ab4ceeef8d981c8956a6336200014b565b336000818152601060205260409020805460ff19166001179055600f805461ffff191690556200013a9082620001f0565b620001446200020e565b50620008a1565b60008281526009602090815260408083206001600160a01b038516845290915290205460ff16620001ec5760008281526009602090815260408083206001600160a01b03851684529091529020805460ff19166001179055620001ab3390565b6001600160a01b0316816001600160a01b0316837f2f8788117e7eff1d82e926ec794901d17c78024a50270940304540a733656f0d60405160405180910390a45b5050565b6000620001fd81620002ad565b620002098383620002bc565b505050565b60085460ff16156200025a5760405162461bcd60e51b815260206004820152601060248201526f14185d5cd8589b194e881c185d5cd95960821b60448201526064015b60405180910390fd5b6008805460ff191660011790557f62e78cea01bee320cd4e420270b5ea74000d11b0c9f74754ebdbfc544b05a258620002903390565b6040516001600160a01b03909116815260200160405180910390a1565b620002b98133620003bd565b50565b6127106001600160601b03821611156200032c5760405162461bcd60e51b815260206004820152602a60248201527f455243323938313a20726f79616c7479206665652077696c6c206578636565646044820152692073616c65507269636560b01b606482015260840162000251565b6001600160a01b038216620003845760405162461bcd60e51b815260206004820152601960248201527f455243323938313a20696e76616c696420726563656976657200000000000000604482015260640162000251565b604080518082019091526001600160a01b039092168083526001600160601b039091166020909201829052600160a01b90910217600655565b60008281526009602090815260408083206001600160a01b038516845290915290205460ff16620001ec5762000409816001600160a01b031660146200045a60201b6200184b1760201c565b6200041f8360206200184b6200045a821b17811c565b604051602001620004329291906200071e565b60408051601f198184030181529082905262461bcd60e51b8252620002519160040162000797565b606060006200046b836002620007e2565b6200047890600262000804565b6001600160401b038111156200049257620004926200081f565b6040519080825280601f01601f191660200182016040528015620004bd576020820181803683370190505b509050600360fc1b81600081518110620004db57620004db62000835565b60200101906001600160f81b031916908160001a905350600f60fb1b816001815181106200050d576200050d62000835565b60200101906001600160f81b031916908160001a905350600062000533846002620007e2565b6200054090600162000804565b90505b6001811115620005c2576f181899199a1a9b1b9c1cb0b131b232b360811b85600f166010811062000578576200057862000835565b1a60f81b82828151811062000591576200059162000835565b60200101906001600160f81b031916908160001a90535060049490941c93620005ba816200084b565b905062000543565b508315620006135760405162461bcd60e51b815260206004820181905260248201527f537472696e67733a20686578206c656e67746820696e73756666696369656e74604482015260640162000251565b9392505050565b828054620006289062000865565b90600052602060002090601f0160209004810192826200064c576000855562000697565b82601f106200066757805160ff191683800117855562000697565b8280016001018555821562000697579182015b82811115620006975782518255916020019190600101906200067a565b50620006a5929150620006a9565b5090565b5b80821115620006a55760008155600101620006aa565b600060208284031215620006d357600080fd5b81516001600160601b03811681146200061357600080fd5b60005b8381101562000708578181015183820152602001620006ee565b8381111562000718576000848401525b50505050565b7f416363657373436f6e74726f6c3a206163636f756e742000000000000000000081526000835162000758816017850160208801620006eb565b7001034b99036b4b9b9b4b733903937b6329607d1b60179184019182015283516200078b816028840160208801620006eb565b01602801949350505050565b6020815260008251806020840152620007b8816040850160208701620006eb565b601f01601f19169190910160400192915050565b634e487b7160e01b600052601160045260246000fd5b6000816000190483118215151615620007ff57620007ff620007cc565b500290565b600082198211156200081a576200081a620007cc565b500190565b634e487b7160e01b600052604160045260246000fd5b634e487b7160e01b600052603260045260246000fd5b6000816200085d576200085d620007cc565b506000190190565b600181811c908216806200087a57607f821691505b6020821081036200089b57634e487b7160e01b600052602260045260246000fd5b50919050565b61401880620008b16000396000f3fe6080604052600436106102e45760003560e01c80635c975abb11610190578063b88d4fde116100dc578063d1ef5b2c11610095578063e63ab1e91161006f578063e63ab1e9146108ee578063e8a77d1714610922578063e985e9c514610942578063f4273b32146105ef57600080fd5b8063d1ef5b2c1461086a578063d53913931461089a578063d547741f146108ce57600080fd5b8063b88d4fde146107d4578063bc6399e7146107f4578063bf72b63f14610810578063c040e6b814610823578063c87b56dd1461084a578063cc116979146107f457600080fd5b80637263cfe21161014957806395d89b411161012357806395d89b411461076a578063a217fddf1461077f578063a22cb46514610794578063abdfe275146107b457600080fd5b80637263cfe2146107155780638456cb591461073557806391d148541461074a57600080fd5b80635c975abb1461063e5780635ed6ac4f146106565780636352211e146106755780636a1eb87e146106955780636c3c8dba146106b157806370a08231146106f557600080fd5b8063248a9ca31161024f57806340d097c311610208578063438b6300116101e2578063438b6300146105cf57806344e5d1df146105ef5780634d4748981461060b5780634f6ccce71461061e57600080fd5b806340d097c31461056f57806342842e0e1461058f57806342966c68146105af57600080fd5b8063248a9ca31461048b5780632a55205a146104bb5780632f2ff15d146104fa5780632f745c591461051a57806336568abe1461053a5780633f4ba83a1461055a57600080fd5b8063095ea7b3116102a1578063095ea7b3146103da5780630a49008d146103fa578063140865f31461041a57806315afd8f81461043757806318160ddd1461044c57806323b872dd1461046b57600080fd5b806301ffc9a7146102e9578063021b21a81461031e57806302fa7c471461034b57806306fdde031461036d578063081812fc1461038f57806309260db7146103c7575b600080fd5b3480156102f557600080fd5b50610309610304366004613345565b61098b565b60405190151581526020015b60405180910390f35b34801561032a57600080fd5b5061033e61033936600461337e565b61099c565b6040516103159190613399565b34801561035757600080fd5b5061036b6103663660046133dd565b6109c0565b005b34801561037957600080fd5b506103826109da565b6040516103159190613478565b34801561039b57600080fd5b506103af6103aa36600461348b565b610a6c565b6040516001600160a01b039091168152602001610315565b61036b6103d536600461348b565b610b06565b3480156103e657600080fd5b5061036b6103f53660046134a4565b610b81565b34801561040657600080fd5b5061036b61041536600461356d565b610c91565b34801561042657600080fd5b5061036b600f805461ffff19169055565b34801561044357600080fd5b5061036b610ca5565b34801561045857600080fd5b50600c545b604051908152602001610315565b34801561047757600080fd5b5061036b6104863660046135b6565b610cb7565b34801561049757600080fd5b5061045d6104a636600461348b565b60009081526009602052604090206001015490565b3480156104c757600080fd5b506104db6104d63660046135f2565b610ce9565b604080516001600160a01b039093168352602083019190915201610315565b34801561050657600080fd5b5061036b610515366004613614565b610d95565b34801561052657600080fd5b5061045d6105353660046134a4565b610dba565b34801561054657600080fd5b5061036b610555366004613614565b610e50565b34801561056657600080fd5b5061036b610ece565b34801561057b57600080fd5b5061036b61058a36600461337e565b610f00565b34801561059b57600080fd5b5061036b6105aa3660046135b6565b610f4f565b3480156105bb57600080fd5b5061036b6105ca36600461348b565b610f6a565b3480156105db57600080fd5b5061033e6105ea36600461337e565b610ff3565b3480156105fb57600080fd5b5061045d67058d15e17628000081565b61036b61061936600461348b565b611095565b34801561062a57600080fd5b5061045d61063936600461348b565b611239565b34801561064a57600080fd5b5060085460ff16610309565b34801561066257600080fd5b50600f5461030990610100900460ff1681565b34801561068157600080fd5b506103af61069036600461348b565b6112cc565b3480156106a157600080fd5b5061045d670853a0d2313c000081565b3480156106bd57600080fd5b506106e86106cc36600461348b565b6000908152601260205260409020546301000000900460ff1690565b6040516103159190613656565b34801561070157600080fd5b5061045d61071036600461337e565b611343565b34801561072157600080fd5b5061036b610730366004613670565b6113ca565b34801561074157600080fd5b5061036b61143d565b34801561075657600080fd5b50610309610765366004613614565b61146f565b34801561077657600080fd5b5061038261149a565b34801561078b57600080fd5b5061045d600081565b3480156107a057600080fd5b5061036b6107af36600461371d565b6114a9565b3480156107c057600080fd5b5061036b6107cf36600461348b565b6114b4565b3480156107e057600080fd5b5061036b6107ef36600461374e565b6114bf565b34801561080057600080fd5b5061045d6702c68af0bb14000081565b61036b61081e36600461348b565b6114f8565b34801561082f57600080fd5b50600f5461083d9060ff1681565b60405161031591906137ca565b34801561085657600080fd5b5061038261086536600461348b565b61151d565b34801561087657600080fd5b5061030961088536600461337e565b60106020526000908152604090205460ff1681565b3480156108a657600080fd5b5061045d7f9f2df0fed2c77648de5860a4cc508cd0818c85b8b8a1ab4ceeef8d981c8956a681565b3480156108da57600080fd5b5061036b6108e9366004613614565b61169d565b3480156108fa57600080fd5b5061045d7f65d7a28e3265b37a6474929f336521b332c1681b933f6cb9f3376673440d862a81565b34801561092e57600080fd5b5061036b61093d36600461348b565b6116c2565b34801561094e57600080fd5b5061030961095d3660046137de565b6001600160a01b03918216600090815260056020908152604080832093909416825291909152205460ff1690565b6000610996826119ee565b92915050565b6001600160a01b038116600090815260146020526040902060609061099690611a13565b60006109cb81611a20565b6109d58383611a2a565b505050565b6060600080546109e990613808565b80601f0160208091040260200160405190810160405280929190818152602001828054610a1590613808565b8015610a625780601f10610a3757610100808354040283529160200191610a62565b820191906000526020600020905b815481529060010190602001808311610a4557829003601f168201915b5050505050905090565b6000818152600260205260408120546001600160a01b0316610aea5760405162461bcd60e51b815260206004820152602c60248201527f4552433732313a20617070726f76656420717565727920666f72206e6f6e657860448201526b34b9ba32b73a103a37b5b2b760a11b60648201526084015b60405180910390fd5b506000908152600460205260409020546001600160a01b031690565b6001610b10611b27565b610b1981611b4e565b610b2b8267058d15e176280000611bca565b6000610b35611deb565b9050806003811115610b4957610b49613640565b6000848152601260205260409020805463ff00000019166301000000836003811115610b7757610b77613640565b0217905550505050565b6000610b8c826112cc565b9050806001600160a01b0316836001600160a01b031603610bf95760405162461bcd60e51b815260206004820152602160248201527f4552433732313a20617070726f76616c20746f2063757272656e74206f776e656044820152603960f91b6064820152608401610ae1565b336001600160a01b0382161480610c155750610c15813361095d565b610c875760405162461bcd60e51b815260206004820152603860248201527f4552433732313a20617070726f76652063616c6c6572206973206e6f74206f7760448201527f6e6572206e6f7220617070726f76656420666f7220616c6c00000000000000006064820152608401610ae1565b6109d58383611e35565b610c99611ea3565b610ca281611ec0565b50565b610cad611f1c565b610cb5611f35565b565b610cc2335b82611f73565b610cde5760405162461bcd60e51b8152600401610ae190613842565b6109d583838361206a565b60008281526007602090815260408083208151808301909252546001600160a01b038116808352600160a01b9091046001600160601b0316928201929092528291610d5e5750604080518082019091526006546001600160a01b0381168252600160a01b90046001600160601b031660208201525b602081015160009061271090610d7d906001600160601b0316876138a9565b610d8791906138de565b915196919550909350505050565b600082815260096020526040902060010154610db081611a20565b6109d58383612211565b6000610dc583611343565b8210610e275760405162461bcd60e51b815260206004820152602b60248201527f455243373231456e756d657261626c653a206f776e657220696e646578206f7560448201526a74206f6620626f756e647360a81b6064820152608401610ae1565b506001600160a01b03919091166000908152600a60209081526040808320938352929052205490565b6001600160a01b0381163314610ec05760405162461bcd60e51b815260206004820152602f60248201527f416363657373436f6e74726f6c3a2063616e206f6e6c792072656e6f756e636560448201526e103937b632b9903337b91039b2b63360891b6064820152608401610ae1565b610eca8282612297565b5050565b7f65d7a28e3265b37a6474929f336521b332c1681b933f6cb9f3376673440d862a610ef881611a20565b610ca26122fe565b7f9f2df0fed2c77648de5860a4cc508cd0818c85b8b8a1ab4ceeef8d981c8956a6610f2a81611a20565b6000610f35600e5490565b9050610f45600e80546001019055565b6109d58382612391565b6109d5838383604051806020016040528060008152506114bf565b6003610f74611b27565b610f7d81611b4e565b610f86826123ab565b610f8f82612422565b6000838152601260205260409020805460ff19166001836004811115610fb757610fb7613640565b0217905550600082815260136020908152604080832080546001600160a01b031916339081179091558352601490915290206109d5908361243d565b6060600061100083611343565b905060008167ffffffffffffffff81111561101d5761101d6134ce565b604051908082528060200260200182016040528015611046578160200160208202803683370190505b50905060005b8281101561108d5761105e8582610dba565b828281518110611070576110706138f2565b60209081029190910101528061108581613908565b91505061104c565b509392505050565b600061109f611b27565b6110a881611b4e565b3360009081526010602052604090205460ff166111175760405162461bcd60e51b815260206004820152602760248201527f546865206d696e6572206973206e6f7420616c6c6f77656420746f206d696e7460448201526620746f6b656e7360c81b6064820152608401610ae1565b61112082612449565b61112a8234612474565b6000611135600e5490565b9050611145600e80546001019055565b61114f3382612391565b604080516080810190915280600081526001851015602082015260028514604082015260600160039052600082815260126020526040902081518154829060ff191660018360048111156111a5576111a5613640565b02179055506020820151815460408401511515620100000262ff000019921515610100029290921662ffff00199091161717808255606083015190829063ff0000001916630100000083600381111561120057611200613640565b0217905550905050601060006112133390565b6001600160a01b031681526020810191909152604001600020805460ff19169055505050565b6000611244600c5490565b82106112a75760405162461bcd60e51b815260206004820152602c60248201527f455243373231456e756d657261626c653a20676c6f62616c20696e646578206f60448201526b7574206f6620626f756e647360a01b6064820152608401610ae1565b600c82815481106112ba576112ba6138f2565b90600052602060002001549050919050565b6000818152600260205260408120546001600160a01b0316806109965760405162461bcd60e51b815260206004820152602960248201527f4552433732313a206f776e657220717565727920666f72206e6f6e657869737460448201526832b73a103a37b5b2b760b91b6064820152608401610ae1565b60006001600160a01b0382166113ae5760405162461bcd60e51b815260206004820152602a60248201527f4552433732313a2062616c616e636520717565727920666f7220746865207a65604482015269726f206164647265737360b01b6064820152608401610ae1565b506001600160a01b031660009081526003602052604090205490565b60006113d581611a20565b60005b82518110156109d5576001601060008584815181106113f9576113f96138f2565b6020908102919091018101516001600160a01b03168252810191909152604001600020805460ff19169115159190911790558061143581613908565b9150506113d8565b7f65d7a28e3265b37a6474929f336521b332c1681b933f6cb9f3376673440d862a61146781611a20565b610ca26124ff565b60009182526009602090815260408084206001600160a01b0393909316845291905290205460ff1690565b6060600180546109e990613808565b610eca33838361257a565b6000610eca81611a20565b6114ca335b83611f73565b6114e65760405162461bcd60e51b8152600401610ae190613842565b6114f284848484612648565b50505050565b6002611502611b27565b61150b81611b4e565b610eca82670853a0d2313c0000611bca565b6060600061152a8361267b565b6000848152601260205260408120549192509061167290839081906115629060ff16600481111561155d5761155d613640565b6126f2565b600088815260126020526040902054611590906301000000900460ff16600381111561155d5761155d613640565b600089815260126020526040902054610100900460ff166115ce576040518060400160405280600581526020016466616c736560d81b8152506115ec565b604051806040016040528060048152602001637472756560e01b8152505b60008a81526012602052604090205462010000900460ff1661162b576040518060400160405280600581526020016466616c736560d81b815250611649565b604051806040016040528060048152602001637472756560e01b8152505b60405160200161165e9695949392919061393d565b6040516020818303038152906040526127f3565b9050806040516020016116859190613ac6565b60405160208183030381529060405292505050919050565b6000828152600960205260409020600101546116b881611a20565b6109d58383612297565b6003600f5460ff1660048111156116db576116db613640565b1480156116ef5750600f54610100900460ff165b8061171057506004600f5460ff16600481111561170e5761170e613640565b145b61172c5760405162461bcd60e51b8152600401610ae190613b0b565b6000818152601360205260409020546001600160a01b031680336001600160a01b0316146040516020016117a9907f52656269727468206661696c6564202d206f6e6c79206275726e65722069732081527f616c6c6f77656420746f20706572666f726d20726562697274680000000000006020820152603a0190565b604051602081830303815290604052906117d65760405162461bcd60e51b8152600401610ae19190613478565b50600082815260136020908152604080832080546001600160a01b03191690553383526014909152902061180a9083612946565b5061181482612422565b6000838152601260205260409020805460ff1916600183600481111561183c5761183c613640565b0217905550610eca3383612391565b6060600061185a8360026138a9565b611865906002613b5a565b67ffffffffffffffff81111561187d5761187d6134ce565b6040519080825280601f01601f1916602001820160405280156118a7576020820181803683370190505b509050600360fc1b816000815181106118c2576118c26138f2565b60200101906001600160f81b031916908160001a905350600f60fb1b816001815181106118f1576118f16138f2565b60200101906001600160f81b031916908160001a90535060006119158460026138a9565b611920906001613b5a565b90505b6001811115611998576f181899199a1a9b1b9c1cb0b131b232b360811b85600f1660108110611954576119546138f2565b1a60f81b82828151811061196a5761196a6138f2565b60200101906001600160f81b031916908160001a90535060049490941c9361199181613b72565b9050611923565b5083156119e75760405162461bcd60e51b815260206004820181905260248201527f537472696e67733a20686578206c656e67746820696e73756666696369656e746044820152606401610ae1565b9392505050565b60006001600160e01b0319821663780e9d6360e01b1480610996575061099682612952565b606060006119e783612977565b610ca281336129d3565b6127106001600160601b0382161115611a985760405162461bcd60e51b815260206004820152602a60248201527f455243323938313a20726f79616c7479206665652077696c6c206578636565646044820152692073616c65507269636560b01b6064820152608401610ae1565b6001600160a01b038216611aee5760405162461bcd60e51b815260206004820152601960248201527f455243323938313a20696e76616c6964207265636569766572000000000000006044820152606401610ae1565b604080518082019091526001600160a01b039092168083526001600160601b039091166020909201829052600160a01b90910217600655565b600f54610100900460ff16610cb55760405162461bcd60e51b8152600401610ae190613b0b565b806004811115611b6057611b60613640565b600f5460ff166004811115611b7757611b77613640565b14611b8d82600481111561155d5761155d613640565b604051602001611b9d9190613b89565b60405160208183030381529060405290610eca5760405162461bcd60e51b8152600401610ae19190613478565b611bd3336114c4565b611c365760405162461bcd60e51b815260206004820152602e60248201527f4552433732313a2063616c6c6572206973206e6f7420746f6b656e206f776e6560448201526d1c881b9bdc88185c1c1c9bdd995960921b6064820152608401610ae1565b600f5460019060ff166004811115611c5057611c50613640565b611c5a9190613be6565b60008381526012602052604090205460ff166004811115611c7d57611c7d613640565b600f54911490611ca89060019060ff166004811115611c9e57611c9e613640565b61155d9190613be6565b604051602001611cb89190613bfd565b60405160208183030381529060405290611ce55760405162461bcd60e51b8152600401610ae19190613478565b506001600f5460ff166004811115611cff57611cff613640565b148015611d205750600082815260126020526040902054610100900460ff16155b80611d6157506002600f5460ff166004811115611d3f57611d3f613640565b148015611d61575060008281526012602052604090205462010000900460ff16155b15611db157803414611d72826126f2565b604051602001611d829190613c6f565b60405160208183030381529060405290611daf5760405162461bcd60e51b8152600401610ae19190613478565b505b611dba82612422565b6000838152601260205260409020805460ff19166001836004811115611de257611de2613640565b02179055505050565b600080611df86064612a37565b905060228111611e0a57600091505090565b60238110158015611e1c575060468111155b15611e2957600191505090565b600291505090565b5090565b600081815260046020526040902080546001600160a01b0319166001600160a01b0384169081179091558190611e6a826112cc565b6001600160a01b03167f8c5be1e5ebec7d5bd14f71427d1e84f3dd0314c0f7b2291e5b200ac8c7c3b92560405160405180910390a45050565b6000611eae81611a20565b50600f805461ff001916610100179055565b6000611ecb81611a20565b600f54829060119060009060ff166004811115611eea57611eea613640565b6004811115611efb57611efb613640565b815260200190815260200160002090805190602001906109d592919061329f565b6000611f2781611a20565b50600f805461ff0019169055565b6000611f4081611a20565b600f54611f4f9060ff16612a79565b600f805460ff19166001836004811115611f6b57611f6b613640565b021790555050565b6000818152600260205260408120546001600160a01b0316611fec5760405162461bcd60e51b815260206004820152602c60248201527f4552433732313a206f70657261746f7220717565727920666f72206e6f6e657860448201526b34b9ba32b73a103a37b5b2b760a11b6064820152608401610ae1565b6000611ff7836112cc565b9050806001600160a01b0316846001600160a01b0316148061203e57506001600160a01b0380821660009081526005602090815260408083209388168352929052205460ff165b806120625750836001600160a01b031661205784610a6c565b6001600160a01b0316145b949350505050565b826001600160a01b031661207d826112cc565b6001600160a01b0316146120e15760405162461bcd60e51b815260206004820152602560248201527f4552433732313a207472616e736665722066726f6d20696e636f72726563742060448201526437bbb732b960d91b6064820152608401610ae1565b6001600160a01b0382166121435760405162461bcd60e51b8152602060048201526024808201527f4552433732313a207472616e7366657220746f20746865207a65726f206164646044820152637265737360e01b6064820152608401610ae1565b61214e838383612b06565b612159600082611e35565b6001600160a01b0383166000908152600360205260408120805460019290612182908490613be6565b90915550506001600160a01b03821660009081526003602052604081208054600192906121b0908490613b5a565b909155505060008181526002602052604080822080546001600160a01b0319166001600160a01b0386811691821790925591518493918716917fddf252ad1be2c89b69c2b068fc378daa952ba7f163c4a11628f55a4df523b3ef91a4505050565b61221b828261146f565b610eca5760008281526009602090815260408083206001600160a01b03851684529091529020805460ff191660011790556122533390565b6001600160a01b0316816001600160a01b0316837f2f8788117e7eff1d82e926ec794901d17c78024a50270940304540a733656f0d60405160405180910390a45050565b6122a1828261146f565b15610eca5760008281526009602090815260408083206001600160a01b0385168085529252808320805460ff1916905551339285917ff6391f5c32d9c69d2a47ea670b442974b53935d1edc7fd64eb21e047a839171b9190a45050565b60085460ff166123475760405162461bcd60e51b815260206004820152601460248201527314185d5cd8589b194e881b9bdd081c185d5cd95960621b6044820152606401610ae1565b6008805460ff191690557f5db9ee0a495bf2e6ff9c91a7834c1ba4fdd244a5e8aa4e537bd38aeae4b073aa335b6040516001600160a01b03909116815260200160405180910390a1565b610eca828260405180602001604052806000815250612b57565b6123b433610cbc565b6124195760405162461bcd60e51b815260206004820152603060248201527f4552433732314275726e61626c653a2063616c6c6572206973206e6f74206f7760448201526f1b995c881b9bdc88185c1c1c9bdd995960821b6064820152608401610ae1565b610ca281612b8a565b6000818152601260205260408120546109969060ff16612a79565b60006119e78383612c31565b61245560016004613be6565b81111561246460016004611c9e565b604051602001611b9d9190613cc0565b6702c68af0bb1400008215612498576124956702c68af0bb14000082613b5a565b90505b60018311156124b6576124b367058d15e17628000082613b5a565b90505b8082146124c2826126f2565b6040516020016124d29190613c6f565b604051602081830303815290604052906114f25760405162461bcd60e51b8152600401610ae19190613478565b60085460ff16156125455760405162461bcd60e51b815260206004820152601060248201526f14185d5cd8589b194e881c185d5cd95960821b6044820152606401610ae1565b6008805460ff191660011790557f62e78cea01bee320cd4e420270b5ea74000d11b0c9f74754ebdbfc544b05a2586123743390565b816001600160a01b0316836001600160a01b0316036125db5760405162461bcd60e51b815260206004820152601960248201527f4552433732313a20617070726f766520746f2063616c6c6572000000000000006044820152606401610ae1565b6001600160a01b03838116600081815260056020908152604080832094871680845294825291829020805460ff191686151590811790915591519182527f17307eab39ab6107e8899845ad3d59bd9653f200f220920489ca2b5937696c31910160405180910390a3505050565b61265384848461206a565b61265f84848484612c80565b6114f25760405162461bcd60e51b8152600401610ae190613d22565b6060612685612d81565b6000838152601260205260408120546011919060ff1660048111156126ac576126ac613640565b60048111156126bd576126bd613640565b81526020019081526020016000206040516020016126dc929190613d74565b6040516020818303038152906040529050919050565b6060816000036127195750506040805180820190915260018152600360fc1b602082015290565b8160005b8115612743578061272d81613908565b915061273c9050600a836138de565b915061271d565b60008167ffffffffffffffff81111561275e5761275e6134ce565b6040519080825280601f01601f191660200182016040528015612788576020820181803683370190505b5090505b84156120625761279d600183613be6565b91506127aa600a86613e24565b6127b5906030613b5a565b60f81b8183815181106127ca576127ca6138f2565b60200101906001600160f81b031916908160001a9053506127ec600a866138de565b945061278c565b6060815160000361281257505060408051602081019091526000815290565b6000604051806060016040528060408152602001613fa360409139905060006003845160026128419190613b5a565b61284b91906138de565b6128569060046138a9565b67ffffffffffffffff81111561286e5761286e6134ce565b6040519080825280601f01601f191660200182016040528015612898576020820181803683370190505b509050600182016020820185865187015b80821015612904576003820191508151603f8160121c168501518453600184019350603f81600c1c168501518453600184019350603f8160061c168501518453600184019350603f81168501518453506001830192506128a9565b505060038651066001811461292057600281146129335761293b565b603d6001830353603d600283035361293b565b603d60018303535b509195945050505050565b60006119e78383612da1565b60006001600160e01b03198216637965db0b60e01b1480610996575061099682612e94565b6060816000018054806020026020016040519081016040528092919081815260200182805480156129c757602002820191906000526020600020905b8154815260200190600101908083116129b3575b50505050509050919050565b6129dd828261146f565b610eca576129f5816001600160a01b0316601461184b565b612a0083602061184b565b604051602001612a11929190613e38565b60408051601f198184030181529082905262461bcd60e51b8252610ae191600401613478565b6000814244604051602001612a56929190918252602082015260400190565b6040516020818303038152906040528051906020012060001c6109969190613e24565b60006004826004811115612a8f57612a8f613640565b10612a9a60046126f2565b604051602001612aaa9190613ead565b60405160208183030381529060405290612ad75760405162461bcd60e51b8152600401610ae19190613478565b50816004811115612aea57612aea613640565b612af5906001613b5a565b600481111561099657610996613640565b60085460ff1615612b4c5760405162461bcd60e51b815260206004820152601060248201526f14185d5cd8589b194e881c185d5cd95960821b6044820152606401610ae1565b6109d5838383612eb9565b612b618383612f71565b612b6e6000848484612c80565b6109d55760405162461bcd60e51b8152600401610ae190613d22565b6000612b95826112cc565b9050612ba381600084612b06565b612bae600083611e35565b6001600160a01b0381166000908152600360205260408120805460019290612bd7908490613be6565b909155505060008281526002602052604080822080546001600160a01b0319169055518391906001600160a01b038416907fddf252ad1be2c89b69c2b068fc378daa952ba7f163c4a11628f55a4df523b3ef908390a45050565b6000818152600183016020526040812054612c7857508154600181810184556000848152602080822090930184905584548482528286019093526040902091909155610996565b506000610996565b60006001600160a01b0384163b15612d7657604051630a85bd0160e11b81526001600160a01b0385169063150b7a0290612cc4903390899088908890600401613ef2565b6020604051808303816000875af1925050508015612cff575060408051601f3d908101601f19168201909252612cfc91810190613f2f565b60015b612d5c573d808015612d2d576040519150601f19603f3d011682016040523d82523d6000602084013e612d32565b606091505b508051600003612d545760405162461bcd60e51b8152600401610ae190613d22565b805181602001fd5b6001600160e01b031916630a85bd0160e11b149050612062565b506001949350505050565b6060604051806060016040528060408152602001613f6360409139905090565b60008181526001830160205260408120548015612e8a576000612dc5600183613be6565b8554909150600090612dd990600190613be6565b9050818114612e3e576000866000018281548110612df957612df96138f2565b9060005260206000200154905080876000018481548110612e1c57612e1c6138f2565b6000918252602080832090910192909255918252600188019052604090208390555b8554869080612e4f57612e4f613f4c565b600190038181906000526020600020016000905590558560010160008681526020019081526020016000206000905560019350505050610996565b6000915050610996565b60006001600160e01b0319821663152a902d60e11b14806109965750610996826130bf565b6001600160a01b038316612f1457612f0f81600c80546000838152600d60205260408120829055600182018355919091527fdf6966c971051c3d54ec59162606531493a51404a002842f56009d7e5cf4a8c70155565b612f37565b816001600160a01b0316836001600160a01b031614612f3757612f37838261310f565b6001600160a01b038216612f4e576109d5816131ac565b826001600160a01b0316826001600160a01b0316146109d5576109d5828261325b565b6001600160a01b038216612fc75760405162461bcd60e51b815260206004820181905260248201527f4552433732313a206d696e7420746f20746865207a65726f20616464726573736044820152606401610ae1565b6000818152600260205260409020546001600160a01b03161561302c5760405162461bcd60e51b815260206004820152601c60248201527f4552433732313a20746f6b656e20616c7265616479206d696e746564000000006044820152606401610ae1565b61303860008383612b06565b6001600160a01b0382166000908152600360205260408120805460019290613061908490613b5a565b909155505060008181526002602052604080822080546001600160a01b0319166001600160a01b03861690811790915590518392907fddf252ad1be2c89b69c2b068fc378daa952ba7f163c4a11628f55a4df523b3ef908290a45050565b60006001600160e01b031982166380ac58cd60e01b14806130f057506001600160e01b03198216635b5e139f60e01b145b8061099657506301ffc9a760e01b6001600160e01b0319831614610996565b6000600161311c84611343565b6131269190613be6565b6000838152600b6020526040902054909150808214613179576001600160a01b0384166000908152600a602090815260408083208584528252808320548484528184208190558352600b90915290208190555b506000918252600b602090815260408084208490556001600160a01b039094168352600a81528383209183525290812055565b600c546000906131be90600190613be6565b6000838152600d6020526040812054600c80549394509092849081106131e6576131e66138f2565b9060005260206000200154905080600c8381548110613207576132076138f2565b6000918252602080832090910192909255828152600d9091526040808220849055858252812055600c80548061323f5761323f613f4c565b6001900381819060005260206000200160009055905550505050565b600061326683611343565b6001600160a01b039093166000908152600a602090815260408083208684528252808320859055938252600b9052919091209190915550565b8280546132ab90613808565b90600052602060002090601f0160209004810192826132cd5760008555613313565b82601f106132e657805160ff1916838001178555613313565b82800160010185558215613313579182015b828111156133135782518255916020019190600101906132f8565b50611e319291505b80821115611e31576000815560010161331b565b6001600160e01b031981168114610ca257600080fd5b60006020828403121561335757600080fd5b81356119e78161332f565b80356001600160a01b038116811461337957600080fd5b919050565b60006020828403121561339057600080fd5b6119e782613362565b6020808252825182820181905260009190848201906040850190845b818110156133d1578351835292840192918401916001016133b5565b50909695505050505050565b600080604083850312156133f057600080fd5b6133f983613362565b915060208301356001600160601b038116811461341557600080fd5b809150509250929050565b60005b8381101561343b578181015183820152602001613423565b838111156114f25750506000910152565b60008151808452613464816020860160208601613420565b601f01601f19169290920160200192915050565b6020815260006119e7602083018461344c565b60006020828403121561349d57600080fd5b5035919050565b600080604083850312156134b757600080fd5b6134c083613362565b946020939093013593505050565b634e487b7160e01b600052604160045260246000fd5b604051601f8201601f1916810167ffffffffffffffff8111828210171561350d5761350d6134ce565b604052919050565b600067ffffffffffffffff83111561352f5761352f6134ce565b613542601f8401601f19166020016134e4565b905082815283838301111561355657600080fd5b828260208301376000602084830101529392505050565b60006020828403121561357f57600080fd5b813567ffffffffffffffff81111561359657600080fd5b8201601f810184136135a757600080fd5b61206284823560208401613515565b6000806000606084860312156135cb57600080fd5b6135d484613362565b92506135e260208501613362565b9150604084013590509250925092565b6000806040838503121561360557600080fd5b50508035926020909101359150565b6000806040838503121561362757600080fd5b8235915061363760208401613362565b90509250929050565b634e487b7160e01b600052602160045260246000fd5b602081016004831061366a5761366a613640565b91905290565b6000602080838503121561368357600080fd5b823567ffffffffffffffff8082111561369b57600080fd5b818501915085601f8301126136af57600080fd5b8135818111156136c1576136c16134ce565b8060051b91506136d28483016134e4565b81815291830184019184810190888411156136ec57600080fd5b938501935b838510156137115761370285613362565b825293850193908501906136f1565b98975050505050505050565b6000806040838503121561373057600080fd5b61373983613362565b91506020830135801515811461341557600080fd5b6000806000806080858703121561376457600080fd5b61376d85613362565b935061377b60208601613362565b925060408501359150606085013567ffffffffffffffff81111561379e57600080fd5b8501601f810187136137af57600080fd5b6137be87823560208401613515565b91505092959194509250565b602081016005831061366a5761366a613640565b600080604083850312156137f157600080fd5b6137fa83613362565b915061363760208401613362565b600181811c9082168061381c57607f821691505b60208210810361383c57634e487b7160e01b600052602260045260246000fd5b50919050565b60208082526031908201527f4552433732313a207472616e736665722063616c6c6572206973206e6f74206f6040820152701ddb995c881b9bdc88185c1c1c9bdd9959607a1b606082015260800190565b634e487b7160e01b600052601160045260246000fd5b60008160001904831182151516156138c3576138c3613893565b500290565b634e487b7160e01b600052601260045260246000fd5b6000826138ed576138ed6138c8565b500490565b634e487b7160e01b600052603260045260246000fd5b60006001820161391a5761391a613893565b5060010190565b60008151613933818560208601613420565b9290920192915050565b7f7b226e616d65223a20224469616d6f6e64204461776e222c202264657363726981527f7074696f6e223a20225468697320697320746865206465736372697074696f6e60208201527f206f66204469616d6f6e64204461776e2050726f6a656374222c2022696d616760408201526432911d101160d91b6060820152600087516139cf816065850160208c01613420565b741116101130b734b6b0ba34b7b72fbab936111d101160591b6065918401918201528751613a0481607a840160208c01613420565b6b01116101139ba30b3b2911d160a51b607a92909101918201528651613a31816086840160208b01613420565b613ab8613aaa613aa4613a88613a82613a69613a636086888a01016a016101139b430b832911d160ad1b8152600b0190565b8d613921565b6c016101131baba30b13632911d1609d1b8152600d0190565b8a613921565b6f01610113837b634b9b430b13632911d160851b815260100190565b87613921565b61207d60f01b815260020190565b9a9950505050505050505050565b7f646174613a6170706c69636174696f6e2f6a736f6e3b6261736536342c000000815260008251613afe81601d850160208701613420565b91909101601d0192915050565b6020808252602f908201527f412073746167652073686f756c642062652061637469766520746f207065726660408201526e37b936903a3434b99030b1ba34b7b760891b606082015260800190565b60008219821115613b6d57613b6d613893565b500190565b600081613b8157613b81613893565b506000190190565b7302a34329039ba30b3b29039b437bab632103132960651b815260008251613bb8816014850160208701613420565b76103a37903832b93337b936903a3434b99030b1ba34b7b760491b6014939091019283015250602b01919050565b600082821015613bf857613bf8613893565b500390565b7f546865206c6576656c206f6620746865206469616d6f6e642073686f756c642081526203132960ed1b602082015260008251613c41816023850160208701613420565b76103a37903832b93337b936903a3434b99030b1ba34b7b760491b6023939091019283015250603a01919050565b7f57726f6e67207061796d656e74202d207061796d656e742073686f756c6420628152620329d160ed1b602082015260008251613cb3816023850160208701613420565b9190910160230192915050565b7f5075726368617365642070726f6365737365732073686f756c64206265206c65815273039b9903a3430b71037b91032b8bab0b6103a37960651b602082015260008251613d15816034850160208701613420565b9190910160340192915050565b60208082526032908201527f4552433732313a207472616e7366657220746f206e6f6e20455243373231526560408201527131b2b4bb32b91034b6b83632b6b2b73a32b960711b606082015260800190565b600083516020613d878285838901613420565b845491840191600090600181811c9080831680613da557607f831692505b8583108103613dc257634e487b7160e01b85526022600452602485fd5b808015613dd65760018114613de757613e14565b60ff19851688528388019550613e14565b60008b81526020902060005b85811015613e0c5781548a820152908401908801613df3565b505083880195505b50939a9950505050505050505050565b600082613e3357613e336138c8565b500690565b7f416363657373436f6e74726f6c3a206163636f756e7420000000000000000000815260008351613e70816017850160208801613420565b7001034b99036b4b9b9b4b733903937b6329607d1b6017918401918201528351613ea1816028840160208801613420565b01602801949350505050565b7f5468652073746167652073686f756c64206265206c657373207468616e200000815260008251613ee581601e850160208701613420565b91909101601e0192915050565b6001600160a01b0385811682528416602082015260408101839052608060608201819052600090613f259083018461344c565b9695505050505050565b600060208284031215613f4157600080fd5b81516119e78161332f565b634e487b7160e01b600052603160045260246000fdfe68747470733a2f2f747765657a6572732d7075626c69632e73332e616d617a6f6e6177732e636f6d2f6469616d6f6e642d6461776e2d6e66742d6d6f636b732f4142434445464748494a4b4c4d4e4f505152535455565758595a6162636465666768696a6b6c6d6e6f707172737475767778797a303132333435363738392b2fa26469706673582212200a29f9b11eaf5f844c9dbeb13e8d8e17202ad47162ee0b4f1c2bb743c5972ad864736f6c634300080e0033",
  "linkReferences": {},
  "deployedLinkReferences": {}
}