{
  "_format": "hh-sol-artifact-1",
  "contractName": "DiamondDawn",
  "sourceName": "contracts/DiamondDawn.sol",
  "abi": [
    {
      "inputs": [
        {
          "internalType": "uint96",
          "name": "_royaltyFeesInBips",
          "type": "uint96"
        }
      ],
      "stateMutability": "nonpayable",
      "type": "constructor"
    },
    {
      "anonymous": false,
      "inputs": [
        {
          "indexed": true,
          "internalType": "address",
          "name": "owner",
          "type": "address"
        },
        {
          "indexed": true,
          "internalType": "address",
          "name": "approved",
          "type": "address"
        },
        {
          "indexed": true,
          "internalType": "uint256",
          "name": "tokenId",
          "type": "uint256"
        }
      ],
      "name": "Approval",
      "type": "event"
    },
    {
      "anonymous": false,
      "inputs": [
        {
          "indexed": true,
          "internalType": "address",
          "name": "owner",
          "type": "address"
        },
        {
          "indexed": true,
          "internalType": "address",
          "name": "operator",
          "type": "address"
        },
        {
          "indexed": false,
          "internalType": "bool",
          "name": "approved",
          "type": "bool"
        }
      ],
      "name": "ApprovalForAll",
      "type": "event"
    },
    {
      "anonymous": false,
      "inputs": [
        {
          "indexed": false,
          "internalType": "address",
          "name": "account",
          "type": "address"
        }
      ],
      "name": "Paused",
      "type": "event"
    },
    {
      "anonymous": false,
      "inputs": [
        {
          "indexed": true,
          "internalType": "bytes32",
          "name": "role",
          "type": "bytes32"
        },
        {
          "indexed": true,
          "internalType": "bytes32",
          "name": "previousAdminRole",
          "type": "bytes32"
        },
        {
          "indexed": true,
          "internalType": "bytes32",
          "name": "newAdminRole",
          "type": "bytes32"
        }
      ],
      "name": "RoleAdminChanged",
      "type": "event"
    },
    {
      "anonymous": false,
      "inputs": [
        {
          "indexed": true,
          "internalType": "bytes32",
          "name": "role",
          "type": "bytes32"
        },
        {
          "indexed": true,
          "internalType": "address",
          "name": "account",
          "type": "address"
        },
        {
          "indexed": true,
          "internalType": "address",
          "name": "sender",
          "type": "address"
        }
      ],
      "name": "RoleGranted",
      "type": "event"
    },
    {
      "anonymous": false,
      "inputs": [
        {
          "indexed": true,
          "internalType": "bytes32",
          "name": "role",
          "type": "bytes32"
        },
        {
          "indexed": true,
          "internalType": "address",
          "name": "account",
          "type": "address"
        },
        {
          "indexed": true,
          "internalType": "address",
          "name": "sender",
          "type": "address"
        }
      ],
      "name": "RoleRevoked",
      "type": "event"
    },
    {
      "anonymous": false,
      "inputs": [
        {
          "indexed": false,
          "internalType": "enum DiamondDawn.Stage",
          "name": "stage",
          "type": "uint8"
        },
        {
          "indexed": false,
          "internalType": "bool",
          "name": "isStageActive",
          "type": "bool"
        }
      ],
      "name": "StageChanged",
      "type": "event"
    },
    {
      "anonymous": false,
      "inputs": [
        {
          "indexed": true,
          "internalType": "address",
          "name": "from",
          "type": "address"
        },
        {
          "indexed": true,
          "internalType": "address",
          "name": "to",
          "type": "address"
        },
        {
          "indexed": true,
          "internalType": "uint256",
          "name": "tokenId",
          "type": "uint256"
        }
      ],
      "name": "Transfer",
      "type": "event"
    },
    {
      "anonymous": false,
      "inputs": [
        {
          "indexed": false,
          "internalType": "address",
          "name": "account",
          "type": "address"
        }
      ],
      "name": "Unpaused",
      "type": "event"
    },
    {
      "inputs": [],
      "name": "CUT_PRICE",
      "outputs": [
        {
          "internalType": "uint256",
          "name": "",
          "type": "uint256"
        }
      ],
      "stateMutability": "view",
      "type": "function"
    },
    {
      "inputs": [],
      "name": "DEFAULT_ADMIN_ROLE",
      "outputs": [
        {
          "internalType": "bytes32",
          "name": "",
          "type": "bytes32"
        }
      ],
      "stateMutability": "view",
      "type": "function"
    },
    {
      "inputs": [],
      "name": "MINING_PRICE",
      "outputs": [
        {
          "internalType": "uint256",
          "name": "",
          "type": "uint256"
        }
      ],
      "stateMutability": "view",
      "type": "function"
    },
    {
      "inputs": [],
      "name": "MINTER_ROLE",
      "outputs": [
        {
          "internalType": "bytes32",
          "name": "",
          "type": "bytes32"
        }
      ],
      "stateMutability": "view",
      "type": "function"
    },
    {
      "inputs": [],
      "name": "PAUSER_ROLE",
      "outputs": [
        {
          "internalType": "bytes32",
          "name": "",
          "type": "bytes32"
        }
      ],
      "stateMutability": "view",
      "type": "function"
    },
    {
      "inputs": [],
      "name": "POLISH_PRICE",
      "outputs": [
        {
          "internalType": "uint256",
          "name": "",
          "type": "uint256"
        }
      ],
      "stateMutability": "view",
      "type": "function"
    },
    {
      "inputs": [],
      "name": "PREPAID_CUT_PRICE",
      "outputs": [
        {
          "internalType": "uint256",
          "name": "",
          "type": "uint256"
        }
      ],
      "stateMutability": "view",
      "type": "function"
    },
    {
      "inputs": [],
      "name": "PREPAID_POLISH_PRICE",
      "outputs": [
        {
          "internalType": "uint256",
          "name": "",
          "type": "uint256"
        }
      ],
      "stateMutability": "view",
      "type": "function"
    },
    {
      "inputs": [
        {
          "internalType": "address[]",
          "name": "addresses",
          "type": "address[]"
        }
      ],
      "name": "addToAllowList",
      "outputs": [],
      "stateMutability": "nonpayable",
      "type": "function"
    },
    {
      "inputs": [
        {
          "internalType": "address",
          "name": "to",
          "type": "address"
        },
        {
          "internalType": "uint256",
          "name": "tokenId",
          "type": "uint256"
        }
      ],
      "name": "approve",
      "outputs": [],
      "stateMutability": "nonpayable",
      "type": "function"
    },
    {
      "inputs": [
        {
          "internalType": "address",
          "name": "owner",
          "type": "address"
        }
      ],
      "name": "balanceOf",
      "outputs": [
        {
          "internalType": "uint256",
          "name": "",
          "type": "uint256"
        }
      ],
      "stateMutability": "view",
      "type": "function"
    },
    {
      "inputs": [
        {
          "internalType": "uint256",
          "name": "tokenId",
          "type": "uint256"
        }
      ],
      "name": "burn",
      "outputs": [],
      "stateMutability": "nonpayable",
      "type": "function"
    },
    {
      "inputs": [],
      "name": "completeCurrentStage",
      "outputs": [],
      "stateMutability": "nonpayable",
      "type": "function"
    },
    {
      "inputs": [
        {
          "internalType": "uint256",
          "name": "tokenId",
          "type": "uint256"
        }
      ],
      "name": "cut",
      "outputs": [],
      "stateMutability": "payable",
      "type": "function"
    },
    {
      "inputs": [],
      "name": "dev__ResetStage",
      "outputs": [],
      "stateMutability": "nonpayable",
      "type": "function"
    },
    {
      "inputs": [
        {
          "internalType": "uint256",
          "name": "tokenId",
          "type": "uint256"
        }
      ],
      "name": "getApproved",
      "outputs": [
        {
          "internalType": "address",
          "name": "",
          "type": "address"
        }
      ],
      "stateMutability": "view",
      "type": "function"
    },
    {
      "inputs": [
        {
          "internalType": "address",
          "name": "owner",
          "type": "address"
        }
      ],
      "name": "getBurnedTokens",
      "outputs": [
        {
          "internalType": "uint256[]",
          "name": "",
          "type": "uint256[]"
        }
      ],
      "stateMutability": "view",
      "type": "function"
    },
    {
      "inputs": [
        {
          "internalType": "bytes32",
          "name": "role",
          "type": "bytes32"
        }
      ],
      "name": "getRoleAdmin",
      "outputs": [
        {
          "internalType": "bytes32",
          "name": "",
          "type": "bytes32"
        }
      ],
      "stateMutability": "view",
      "type": "function"
    },
    {
      "inputs": [
        {
          "internalType": "uint256",
          "name": "tokenId",
          "type": "uint256"
        }
      ],
      "name": "getShapeForToken",
      "outputs": [
        {
          "internalType": "enum DiamondDawn.Shape",
          "name": "",
          "type": "uint8"
        }
      ],
      "stateMutability": "view",
      "type": "function"
    },
    {
      "inputs": [
        {
          "internalType": "bytes32",
          "name": "role",
          "type": "bytes32"
        },
        {
          "internalType": "address",
          "name": "account",
          "type": "address"
        }
      ],
      "name": "grantRole",
      "outputs": [],
      "stateMutability": "nonpayable",
      "type": "function"
    },
    {
      "inputs": [
        {
          "internalType": "bytes32",
          "name": "role",
          "type": "bytes32"
        },
        {
          "internalType": "address",
          "name": "account",
          "type": "address"
        }
      ],
      "name": "hasRole",
      "outputs": [
        {
          "internalType": "bool",
          "name": "",
          "type": "bool"
        }
      ],
      "stateMutability": "view",
      "type": "function"
    },
    {
      "inputs": [
        {
          "internalType": "address",
          "name": "owner",
          "type": "address"
        },
        {
          "internalType": "address",
          "name": "operator",
          "type": "address"
        }
      ],
      "name": "isApprovedForAll",
      "outputs": [
        {
          "internalType": "bool",
          "name": "",
          "type": "bool"
        }
      ],
      "stateMutability": "view",
      "type": "function"
    },
    {
      "inputs": [],
      "name": "isStageActive",
      "outputs": [
        {
          "internalType": "bool",
          "name": "",
          "type": "bool"
        }
      ],
      "stateMutability": "view",
      "type": "function"
    },
    {
      "inputs": [
        {
          "internalType": "uint256",
          "name": "processesPurchased",
          "type": "uint256"
        }
      ],
      "name": "mine",
      "outputs": [],
      "stateMutability": "payable",
      "type": "function"
    },
    {
      "inputs": [
        {
          "internalType": "address",
          "name": "",
          "type": "address"
        }
      ],
      "name": "mintAllowedAddresses",
      "outputs": [
        {
          "internalType": "bool",
          "name": "",
          "type": "bool"
        }
      ],
      "stateMutability": "view",
      "type": "function"
    },
    {
      "inputs": [],
      "name": "name",
      "outputs": [
        {
          "internalType": "string",
          "name": "",
          "type": "string"
        }
      ],
      "stateMutability": "view",
      "type": "function"
    },
    {
      "inputs": [
        {
          "internalType": "uint256",
          "name": "tokenId",
          "type": "uint256"
        }
      ],
      "name": "ownerOf",
      "outputs": [
        {
          "internalType": "address",
          "name": "",
          "type": "address"
        }
      ],
      "stateMutability": "view",
      "type": "function"
    },
    {
      "inputs": [],
      "name": "pause",
      "outputs": [],
      "stateMutability": "nonpayable",
      "type": "function"
    },
    {
      "inputs": [],
      "name": "paused",
      "outputs": [
        {
          "internalType": "bool",
          "name": "",
          "type": "bool"
        }
      ],
      "stateMutability": "view",
      "type": "function"
    },
    {
      "inputs": [
        {
          "internalType": "uint256",
          "name": "tokenId",
          "type": "uint256"
        }
      ],
      "name": "polish",
      "outputs": [],
      "stateMutability": "payable",
      "type": "function"
    },
    {
      "inputs": [
        {
          "internalType": "uint256",
          "name": "tokenId",
          "type": "uint256"
        }
      ],
      "name": "rebirth",
      "outputs": [],
      "stateMutability": "nonpayable",
      "type": "function"
    },
    {
      "inputs": [
        {
          "internalType": "bytes32",
          "name": "role",
          "type": "bytes32"
        },
        {
          "internalType": "address",
          "name": "account",
          "type": "address"
        }
      ],
      "name": "renounceRole",
      "outputs": [],
      "stateMutability": "nonpayable",
      "type": "function"
    },
    {
      "inputs": [
        {
          "internalType": "string",
          "name": "videoUrl",
          "type": "string"
        }
      ],
      "name": "revealStage",
      "outputs": [],
      "stateMutability": "nonpayable",
      "type": "function"
    },
    {
      "inputs": [
        {
          "internalType": "bytes32",
          "name": "role",
          "type": "bytes32"
        },
        {
          "internalType": "address",
          "name": "account",
          "type": "address"
        }
      ],
      "name": "revokeRole",
      "outputs": [],
      "stateMutability": "nonpayable",
      "type": "function"
    },
    {
      "inputs": [
        {
          "internalType": "uint256",
          "name": "_tokenId",
          "type": "uint256"
        },
        {
          "internalType": "uint256",
          "name": "_salePrice",
          "type": "uint256"
        }
      ],
      "name": "royaltyInfo",
      "outputs": [
        {
          "internalType": "address",
          "name": "",
          "type": "address"
        },
        {
          "internalType": "uint256",
          "name": "",
          "type": "uint256"
        }
      ],
      "stateMutability": "view",
      "type": "function"
    },
    {
      "inputs": [
        {
          "internalType": "address",
          "name": "to",
          "type": "address"
        }
      ],
      "name": "safeMint",
      "outputs": [],
      "stateMutability": "nonpayable",
      "type": "function"
    },
    {
      "inputs": [
        {
          "internalType": "address",
          "name": "from",
          "type": "address"
        },
        {
          "internalType": "address",
          "name": "to",
          "type": "address"
        },
        {
          "internalType": "uint256",
          "name": "tokenId",
          "type": "uint256"
        }
      ],
      "name": "safeTransferFrom",
      "outputs": [],
      "stateMutability": "nonpayable",
      "type": "function"
    },
    {
      "inputs": [
        {
          "internalType": "address",
          "name": "from",
          "type": "address"
        },
        {
          "internalType": "address",
          "name": "to",
          "type": "address"
        },
        {
          "internalType": "uint256",
          "name": "tokenId",
          "type": "uint256"
        },
        {
          "internalType": "bytes",
          "name": "_data",
          "type": "bytes"
        }
      ],
      "name": "safeTransferFrom",
      "outputs": [],
      "stateMutability": "nonpayable",
      "type": "function"
    },
    {
      "inputs": [
        {
          "internalType": "address",
          "name": "operator",
          "type": "address"
        },
        {
          "internalType": "bool",
          "name": "approved",
          "type": "bool"
        }
      ],
      "name": "setApprovalForAll",
      "outputs": [],
      "stateMutability": "nonpayable",
      "type": "function"
    },
    {
      "inputs": [
        {
          "internalType": "uint256",
          "name": "price",
          "type": "uint256"
        }
      ],
      "name": "setProcessingPrice",
      "outputs": [],
      "stateMutability": "nonpayable",
      "type": "function"
    },
    {
      "inputs": [
        {
          "internalType": "address",
          "name": "_receiver",
          "type": "address"
        },
        {
          "internalType": "uint96",
          "name": "_royaltyFeesInBips",
          "type": "uint96"
        }
      ],
      "name": "setRoyaltyInfo",
      "outputs": [],
      "stateMutability": "nonpayable",
      "type": "function"
    },
    {
      "inputs": [],
      "name": "stage",
      "outputs": [
        {
          "internalType": "enum DiamondDawn.Stage",
          "name": "",
          "type": "uint8"
        }
      ],
      "stateMutability": "view",
      "type": "function"
    },
    {
      "inputs": [
        {
          "internalType": "bytes4",
          "name": "interfaceId",
          "type": "bytes4"
        }
      ],
      "name": "supportsInterface",
      "outputs": [
        {
          "internalType": "bool",
          "name": "",
          "type": "bool"
        }
      ],
      "stateMutability": "view",
      "type": "function"
    },
    {
      "inputs": [],
      "name": "symbol",
      "outputs": [
        {
          "internalType": "string",
          "name": "",
          "type": "string"
        }
      ],
      "stateMutability": "view",
      "type": "function"
    },
    {
      "inputs": [
        {
          "internalType": "uint256",
          "name": "index",
          "type": "uint256"
        }
      ],
      "name": "tokenByIndex",
      "outputs": [
        {
          "internalType": "uint256",
          "name": "",
          "type": "uint256"
        }
      ],
      "stateMutability": "view",
      "type": "function"
    },
    {
      "inputs": [
        {
          "internalType": "address",
          "name": "owner",
          "type": "address"
        },
        {
          "internalType": "uint256",
          "name": "index",
          "type": "uint256"
        }
      ],
      "name": "tokenOfOwnerByIndex",
      "outputs": [
        {
          "internalType": "uint256",
          "name": "",
          "type": "uint256"
        }
      ],
      "stateMutability": "view",
      "type": "function"
    },
    {
      "inputs": [
        {
          "internalType": "uint256",
          "name": "tokenId",
          "type": "uint256"
        }
      ],
      "name": "tokenURI",
      "outputs": [
        {
          "internalType": "string",
          "name": "",
          "type": "string"
        }
      ],
      "stateMutability": "view",
      "type": "function"
    },
    {
      "inputs": [],
      "name": "totalSupply",
      "outputs": [
        {
          "internalType": "uint256",
          "name": "",
          "type": "uint256"
        }
      ],
      "stateMutability": "view",
      "type": "function"
    },
    {
      "inputs": [
        {
          "internalType": "address",
          "name": "from",
          "type": "address"
        },
        {
          "internalType": "address",
          "name": "to",
          "type": "address"
        },
        {
          "internalType": "uint256",
          "name": "tokenId",
          "type": "uint256"
        }
      ],
      "name": "transferFrom",
      "outputs": [],
      "stateMutability": "nonpayable",
      "type": "function"
    },
    {
      "inputs": [],
      "name": "unpause",
      "outputs": [],
      "stateMutability": "nonpayable",
      "type": "function"
    },
    {
      "inputs": [
        {
          "internalType": "address",
          "name": "_owner",
          "type": "address"
        }
      ],
      "name": "walletOfOwner",
      "outputs": [
        {
          "internalType": "uint256[]",
          "name": "",
          "type": "uint256[]"
        }
      ],
      "stateMutability": "view",
      "type": "function"
    }
  ],
  "bytecode": "0x60806040523480156200001157600080fd5b50604051620049bf380380620049bf8339810160408190526200003491620006c0565b604080518082018252600b81526a2234b0b6b7b7322230bbb760a91b602080830191825283518085019094526002845261111160f21b90840152815191929162000081916000916200061a565b508051620000979060019060208401906200061a565b50506008805460ff1916905550620000b16000336200014b565b620000dd7f65d7a28e3265b37a6474929f336521b332c1681b933f6cb9f3376673440d862a336200014b565b620001097f9f2df0fed2c77648de5860a4cc508cd0818c85b8b8a1ab4ceeef8d981c8956a6336200014b565b336000818152601060205260409020805460ff19166001179055600f805461ffff191690556200013a9082620001f0565b620001446200020e565b50620008a1565b60008281526009602090815260408083206001600160a01b038516845290915290205460ff16620001ec5760008281526009602090815260408083206001600160a01b03851684529091529020805460ff19166001179055620001ab3390565b6001600160a01b0316816001600160a01b0316837f2f8788117e7eff1d82e926ec794901d17c78024a50270940304540a733656f0d60405160405180910390a45b5050565b6000620001fd81620002ad565b620002098383620002bc565b505050565b60085460ff16156200025a5760405162461bcd60e51b815260206004820152601060248201526f14185d5cd8589b194e881c185d5cd95960821b60448201526064015b60405180910390fd5b6008805460ff191660011790557f62e78cea01bee320cd4e420270b5ea74000d11b0c9f74754ebdbfc544b05a258620002903390565b6040516001600160a01b03909116815260200160405180910390a1565b620002b98133620003bd565b50565b6127106001600160601b03821611156200032c5760405162461bcd60e51b815260206004820152602a60248201527f455243323938313a20726f79616c7479206665652077696c6c206578636565646044820152692073616c65507269636560b01b606482015260840162000251565b6001600160a01b038216620003845760405162461bcd60e51b815260206004820152601960248201527f455243323938313a20696e76616c696420726563656976657200000000000000604482015260640162000251565b604080518082019091526001600160a01b039092168083526001600160601b039091166020909201829052600160a01b90910217600655565b60008281526009602090815260408083206001600160a01b038516845290915290205460ff16620001ec5762000409816001600160a01b031660146200045a60201b620019191760201c565b6200041f836020620019196200045a821b17811c565b604051602001620004329291906200071e565b60408051601f198184030181529082905262461bcd60e51b8252620002519160040162000797565b606060006200046b836002620007e2565b6200047890600262000804565b6001600160401b038111156200049257620004926200081f565b6040519080825280601f01601f191660200182016040528015620004bd576020820181803683370190505b509050600360fc1b81600081518110620004db57620004db62000835565b60200101906001600160f81b031916908160001a905350600f60fb1b816001815181106200050d576200050d62000835565b60200101906001600160f81b031916908160001a905350600062000533846002620007e2565b6200054090600162000804565b90505b6001811115620005c2576f181899199a1a9b1b9c1cb0b131b232b360811b85600f166010811062000578576200057862000835565b1a60f81b82828151811062000591576200059162000835565b60200101906001600160f81b031916908160001a90535060049490941c93620005ba816200084b565b905062000543565b508315620006135760405162461bcd60e51b815260206004820181905260248201527f537472696e67733a20686578206c656e67746820696e73756666696369656e74604482015260640162000251565b9392505050565b828054620006289062000865565b90600052602060002090601f0160209004810192826200064c576000855562000697565b82601f106200066757805160ff191683800117855562000697565b8280016001018555821562000697579182015b82811115620006975782518255916020019190600101906200067a565b50620006a5929150620006a9565b5090565b5b80821115620006a55760008155600101620006aa565b600060208284031215620006d357600080fd5b81516001600160601b03811681146200061357600080fd5b60005b8381101562000708578181015183820152602001620006ee565b8381111562000718576000848401525b50505050565b7f416363657373436f6e74726f6c3a206163636f756e742000000000000000000081526000835162000758816017850160208801620006eb565b7001034b99036b4b9b9b4b733903937b6329607d1b60179184019182015283516200078b816028840160208801620006eb565b01602801949350505050565b6020815260008251806020840152620007b8816040850160208701620006eb565b601f01601f19169190910160400192915050565b634e487b7160e01b600052601160045260246000fd5b6000816000190483118215151615620007ff57620007ff620007cc565b500290565b600082198211156200081a576200081a620007cc565b500190565b634e487b7160e01b600052604160045260246000fd5b634e487b7160e01b600052603260045260246000fd5b6000816200085d576200085d620007cc565b506000190190565b600181811c908216806200087a57607f821691505b6020821081036200089b57634e487b7160e01b600052602260045260246000fd5b50919050565b61410e80620008b16000396000f3fe6080604052600436106102e45760003560e01c80635c975abb11610190578063b88d4fde116100dc578063d1ef5b2c11610095578063e63ab1e91161006f578063e63ab1e9146108e6578063e8a77d171461091a578063e985e9c51461093a578063f4273b32146105e757600080fd5b8063d1ef5b2c14610862578063d539139314610892578063d547741f146108c657600080fd5b8063b88d4fde146107cc578063bc6399e7146107ec578063bf72b63f14610808578063c040e6b81461081b578063c87b56dd14610842578063cc116979146107ec57600080fd5b80637263cfe21161014957806395d89b411161012357806395d89b4114610762578063a217fddf14610777578063a22cb4651461078c578063abdfe275146107ac57600080fd5b80637263cfe21461070d5780638456cb591461072d57806391d148541461074257600080fd5b80635c975abb146106365780635ed6ac4f1461064e5780636352211e1461066d5780636a1eb87e1461068d5780636c3c8dba146106a957806370a08231146106ed57600080fd5b8063248a9ca31161024f57806340d097c311610208578063438b6300116101e2578063438b6300146105c757806344e5d1df146105e75780634d474898146106035780634f6ccce71461061657600080fd5b806340d097c31461056757806342842e0e1461058757806342966c68146105a757600080fd5b8063248a9ca3146104835780632a55205a146104b35780632f2ff15d146104f25780632f745c591461051257806336568abe146105325780633f4ba83a1461055257600080fd5b8063095ea7b3116102a1578063095ea7b3146103da5780630a49008d146103fa578063140865f31461041a57806315afd8f81461042f57806318160ddd1461044457806323b872dd1461046357600080fd5b806301ffc9a7146102e9578063021b21a81461031e57806302fa7c471461034b57806306fdde031461036d578063081812fc1461038f57806309260db7146103c7575b600080fd5b3480156102f557600080fd5b50610309610304366004613410565b610983565b60405190151581526020015b60405180910390f35b34801561032a57600080fd5b5061033e610339366004613449565b610994565b6040516103159190613464565b34801561035757600080fd5b5061036b6103663660046134a8565b6109b8565b005b34801561037957600080fd5b506103826109d2565b6040516103159190613543565b34801561039b57600080fd5b506103af6103aa366004613556565b610a64565b6040516001600160a01b039091168152602001610315565b61036b6103d5366004613556565b610afe565b3480156103e657600080fd5b5061036b6103f536600461356f565b610b79565b34801561040657600080fd5b5061036b610415366004613638565b610c89565b34801561042657600080fd5b5061036b610ce3565b34801561043b57600080fd5b5061036b610d34565b34801561045057600080fd5b50600c545b604051908152602001610315565b34801561046f57600080fd5b5061036b61047e366004613681565b610d82565b34801561048f57600080fd5b5061045561049e366004613556565b60009081526009602052604090206001015490565b3480156104bf57600080fd5b506104d36104ce3660046136bd565b610db4565b604080516001600160a01b039093168352602083019190915201610315565b3480156104fe57600080fd5b5061036b61050d3660046136df565b610e60565b34801561051e57600080fd5b5061045561052d36600461356f565b610e85565b34801561053e57600080fd5b5061036b61054d3660046136df565b610f1b565b34801561055e57600080fd5b5061036b610f99565b34801561057357600080fd5b5061036b610582366004613449565b610fce565b34801561059357600080fd5b5061036b6105a2366004613681565b61101d565b3480156105b357600080fd5b5061036b6105c2366004613556565b611038565b3480156105d357600080fd5b5061033e6105e2366004613449565b6110c1565b3480156105f357600080fd5b5061045567058d15e17628000081565b61036b610611366004613556565b611163565b34801561062257600080fd5b50610455610631366004613556565b611307565b34801561064257600080fd5b5060085460ff16610309565b34801561065a57600080fd5b50600f5461030990610100900460ff1681565b34801561067957600080fd5b506103af610688366004613556565b61139a565b34801561069957600080fd5b50610455670853a0d2313c000081565b3480156106b557600080fd5b506106e06106c4366004613556565b6000908152601260205260409020546301000000900460ff1690565b6040516103159190613721565b3480156106f957600080fd5b50610455610708366004613449565b611411565b34801561071957600080fd5b5061036b61072836600461373b565b611498565b34801561073957600080fd5b5061036b61150b565b34801561074e57600080fd5b5061030961075d3660046136df565b61153d565b34801561076e57600080fd5b50610382611568565b34801561078357600080fd5b50610455600081565b34801561079857600080fd5b5061036b6107a73660046137e8565b611577565b3480156107b857600080fd5b5061036b6107c7366004613556565b611582565b3480156107d857600080fd5b5061036b6107e7366004613819565b61158d565b3480156107f857600080fd5b506104556702c68af0bb14000081565b61036b610816366004613556565b6115c6565b34801561082757600080fd5b50600f546108359060ff1681565b60405161031591906138a9565b34801561084e57600080fd5b5061038261085d366004613556565b6115eb565b34801561086e57600080fd5b5061030961087d366004613449565b60106020526000908152604090205460ff1681565b34801561089e57600080fd5b506104557f9f2df0fed2c77648de5860a4cc508cd0818c85b8b8a1ab4ceeef8d981c8956a681565b3480156108d257600080fd5b5061036b6108e13660046136df565b61176b565b3480156108f257600080fd5b506104557f65d7a28e3265b37a6474929f336521b332c1681b933f6cb9f3376673440d862a81565b34801561092657600080fd5b5061036b610935366004613556565b611790565b34801561094657600080fd5b506103096109553660046138b7565b6001600160a01b03918216600090815260056020908152604080832093909416825291909152205460ff1690565b600061098e82611abc565b92915050565b6001600160a01b038116600090815260146020526040902060609061098e90611ae1565b60006109c381611aee565b6109cd8383611af8565b505050565b6060600080546109e1906138e1565b80601f0160208091040260200160405190810160405280929190818152602001828054610a0d906138e1565b8015610a5a5780601f10610a2f57610100808354040283529160200191610a5a565b820191906000526020600020905b815481529060010190602001808311610a3d57829003601f168201915b5050505050905090565b6000818152600260205260408120546001600160a01b0316610ae25760405162461bcd60e51b815260206004820152602c60248201527f4552433732313a20617070726f76656420717565727920666f72206e6f6e657860448201526b34b9ba32b73a103a37b5b2b760a11b60648201526084015b60405180910390fd5b506000908152600460205260409020546001600160a01b031690565b6001610b08611bf5565b610b1181611c1e565b610b238267058d15e176280000611c9a565b6000610b2d611ebb565b9050806003811115610b4157610b4161370b565b6000848152601260205260409020805463ff00000019166301000000836003811115610b6f57610b6f61370b565b0217905550505050565b6000610b848261139a565b9050806001600160a01b0316836001600160a01b031603610bf15760405162461bcd60e51b815260206004820152602160248201527f4552433732313a20617070726f76616c20746f2063757272656e74206f776e656044820152603960f91b6064820152608401610ad9565b336001600160a01b0382161480610c0d5750610c0d8133610955565b610c7f5760405162461bcd60e51b815260206004820152603860248201527f4552433732313a20617070726f76652063616c6c6572206973206e6f74206f7760448201527f6e6572206e6f7220617070726f76656420666f7220616c6c00000000000000006064820152608401610ad9565b6109cd8383611f05565b610c91611f73565b610c9a81611f90565b600f546040517f8d9831e92243e534bb29615dac95a7e7cc01641bc3ba995b6f82d3c4816c788a91610cd89160ff808316926101009004169061391b565b60405180910390a150565b600f805461ffff1916908190556040517f8d9831e92243e534bb29615dac95a7e7cc01641bc3ba995b6f82d3c4816c788a91610d2a91600091610100900460ff169061391b565b60405180910390a1565b610d3c611fec565b610d44612005565b600f546040517f8d9831e92243e534bb29615dac95a7e7cc01641bc3ba995b6f82d3c4816c788a91610d2a9160ff808316926101009004169061391b565b610d8d335b82612043565b610da95760405162461bcd60e51b8152600401610ad990613938565b6109cd83838361213a565b60008281526007602090815260408083208151808301909252546001600160a01b038116808352600160a01b9091046001600160601b0316928201929092528291610e295750604080518082019091526006546001600160a01b0381168252600160a01b90046001600160601b031660208201525b602081015160009061271090610e48906001600160601b03168761399f565b610e5291906139d4565b915196919550909350505050565b600082815260096020526040902060010154610e7b81611aee565b6109cd83836122e1565b6000610e9083611411565b8210610ef25760405162461bcd60e51b815260206004820152602b60248201527f455243373231456e756d657261626c653a206f776e657220696e646578206f7560448201526a74206f6620626f756e647360a81b6064820152608401610ad9565b506001600160a01b03919091166000908152600a60209081526040808320938352929052205490565b6001600160a01b0381163314610f8b5760405162461bcd60e51b815260206004820152602f60248201527f416363657373436f6e74726f6c3a2063616e206f6e6c792072656e6f756e636560448201526e103937b632b9903337b91039b2b63360891b6064820152608401610ad9565b610f958282612367565b5050565b7f65d7a28e3265b37a6474929f336521b332c1681b933f6cb9f3376673440d862a610fc381611aee565b610fcb6123ce565b50565b7f9f2df0fed2c77648de5860a4cc508cd0818c85b8b8a1ab4ceeef8d981c8956a6610ff881611aee565b6000611003600e5490565b9050611013600e80546001019055565b6109cd838261245c565b6109cd8383836040518060200160405280600081525061158d565b6003611042611bf5565b61104b81611c1e565b61105482612476565b61105d826124ed565b6000838152601260205260409020805460ff191660018360048111156110855761108561370b565b0217905550600082815260136020908152604080832080546001600160a01b031916339081179091558352601490915290206109cd9083612508565b606060006110ce83611411565b905060008167ffffffffffffffff8111156110eb576110eb613599565b604051908082528060200260200182016040528015611114578160200160208202803683370190505b50905060005b8281101561115b5761112c8582610e85565b82828151811061113e5761113e6139e8565b602090810291909101015280611153816139fe565b91505061111a565b509392505050565b600061116d611bf5565b61117681611c1e565b3360009081526010602052604090205460ff166111e55760405162461bcd60e51b815260206004820152602760248201527f546865206d696e6572206973206e6f7420616c6c6f77656420746f206d696e7460448201526620746f6b656e7360c81b6064820152608401610ad9565b6111ee82612514565b6111f8823461253f565b6000611203600e5490565b9050611213600e80546001019055565b61121d338261245c565b604080516080810190915280600081526001851015602082015260028514604082015260600160039052600082815260126020526040902081518154829060ff191660018360048111156112735761127361370b565b02179055506020820151815460408401511515620100000262ff000019921515610100029290921662ffff00199091161717808255606083015190829063ff000000191663010000008360038111156112ce576112ce61370b565b0217905550905050601060006112e13390565b6001600160a01b031681526020810191909152604001600020805460ff19169055505050565b6000611312600c5490565b82106113755760405162461bcd60e51b815260206004820152602c60248201527f455243373231456e756d657261626c653a20676c6f62616c20696e646578206f60448201526b7574206f6620626f756e647360a01b6064820152608401610ad9565b600c8281548110611388576113886139e8565b90600052602060002001549050919050565b6000818152600260205260408120546001600160a01b03168061098e5760405162461bcd60e51b815260206004820152602960248201527f4552433732313a206f776e657220717565727920666f72206e6f6e657869737460448201526832b73a103a37b5b2b760b91b6064820152608401610ad9565b60006001600160a01b03821661147c5760405162461bcd60e51b815260206004820152602a60248201527f4552433732313a2062616c616e636520717565727920666f7220746865207a65604482015269726f206164647265737360b01b6064820152608401610ad9565b506001600160a01b031660009081526003602052604090205490565b60006114a381611aee565b60005b82518110156109cd576001601060008584815181106114c7576114c76139e8565b6020908102919091018101516001600160a01b03168252810191909152604001600020805460ff191691151591909117905580611503816139fe565b9150506114a6565b7f65d7a28e3265b37a6474929f336521b332c1681b933f6cb9f3376673440d862a61153581611aee565b610fcb6125ca565b60009182526009602090815260408084206001600160a01b0393909316845291905290205460ff1690565b6060600180546109e1906138e1565b610f95338383612645565b6000610f9581611aee565b611598335b83612043565b6115b45760405162461bcd60e51b8152600401610ad990613938565b6115c084848484612713565b50505050565b60026115d0611bf5565b6115d981611c1e565b610f9582670853a0d2313c0000611c9a565b606060006115f883612746565b6000848152601260205260408120549192509061174090839081906116309060ff16600481111561162b5761162b61370b565b6127bd565b60008881526012602052604090205461165e906301000000900460ff16600381111561162b5761162b61370b565b600089815260126020526040902054610100900460ff1661169c576040518060400160405280600581526020016466616c736560d81b8152506116ba565b604051806040016040528060048152602001637472756560e01b8152505b60008a81526012602052604090205462010000900460ff166116f9576040518060400160405280600581526020016466616c736560d81b815250611717565b604051806040016040528060048152602001637472756560e01b8152505b60405160200161172c96959493929190613a33565b6040516020818303038152906040526128be565b9050806040516020016117539190613bbc565b60405160208183030381529060405292505050919050565b60008281526009602052604090206001015461178681611aee565b6109cd8383612367565b6003600f5460ff1660048111156117a9576117a961370b565b1480156117bd5750600f54610100900460ff165b806117de57506004600f5460ff1660048111156117dc576117dc61370b565b145b6117fa5760405162461bcd60e51b8152600401610ad990613c01565b6000818152601360205260409020546001600160a01b031680336001600160a01b031614604051602001611877907f52656269727468206661696c6564202d206f6e6c79206275726e65722069732081527f616c6c6f77656420746f20706572666f726d20726562697274680000000000006020820152603a0190565b604051602081830303815290604052906118a45760405162461bcd60e51b8152600401610ad99190613543565b50600082815260136020908152604080832080546001600160a01b0319169055338352601490915290206118d89083612a11565b506118e2826124ed565b6000838152601260205260409020805460ff1916600183600481111561190a5761190a61370b565b0217905550610f95338361245c565b6060600061192883600261399f565b611933906002613c50565b67ffffffffffffffff81111561194b5761194b613599565b6040519080825280601f01601f191660200182016040528015611975576020820181803683370190505b509050600360fc1b81600081518110611990576119906139e8565b60200101906001600160f81b031916908160001a905350600f60fb1b816001815181106119bf576119bf6139e8565b60200101906001600160f81b031916908160001a90535060006119e384600261399f565b6119ee906001613c50565b90505b6001811115611a66576f181899199a1a9b1b9c1cb0b131b232b360811b85600f1660108110611a2257611a226139e8565b1a60f81b828281518110611a3857611a386139e8565b60200101906001600160f81b031916908160001a90535060049490941c93611a5f81613c68565b90506119f1565b508315611ab55760405162461bcd60e51b815260206004820181905260248201527f537472696e67733a20686578206c656e67746820696e73756666696369656e746044820152606401610ad9565b9392505050565b60006001600160e01b0319821663780e9d6360e01b148061098e575061098e82612a1d565b60606000611ab583612a42565b610fcb8133612a9e565b6127106001600160601b0382161115611b665760405162461bcd60e51b815260206004820152602a60248201527f455243323938313a20726f79616c7479206665652077696c6c206578636565646044820152692073616c65507269636560b01b6064820152608401610ad9565b6001600160a01b038216611bbc5760405162461bcd60e51b815260206004820152601960248201527f455243323938313a20696e76616c6964207265636569766572000000000000006044820152606401610ad9565b604080518082019091526001600160a01b039092168083526001600160601b039091166020909201829052600160a01b90910217600655565b600f54610100900460ff16611c1c5760405162461bcd60e51b8152600401610ad990613c01565b565b806004811115611c3057611c3061370b565b600f5460ff166004811115611c4757611c4761370b565b14611c5d82600481111561162b5761162b61370b565b604051602001611c6d9190613c7f565b60405160208183030381529060405290610f955760405162461bcd60e51b8152600401610ad99190613543565b611ca333611592565b611d065760405162461bcd60e51b815260206004820152602e60248201527f4552433732313a2063616c6c6572206973206e6f7420746f6b656e206f776e6560448201526d1c881b9bdc88185c1c1c9bdd995960921b6064820152608401610ad9565b600f5460019060ff166004811115611d2057611d2061370b565b611d2a9190613cdc565b60008381526012602052604090205460ff166004811115611d4d57611d4d61370b565b600f54911490611d789060019060ff166004811115611d6e57611d6e61370b565b61162b9190613cdc565b604051602001611d889190613cf3565b60405160208183030381529060405290611db55760405162461bcd60e51b8152600401610ad99190613543565b506001600f5460ff166004811115611dcf57611dcf61370b565b148015611df05750600082815260126020526040902054610100900460ff16155b80611e3157506002600f5460ff166004811115611e0f57611e0f61370b565b148015611e31575060008281526012602052604090205462010000900460ff16155b15611e8157803414611e42826127bd565b604051602001611e529190613d65565b60405160208183030381529060405290611e7f5760405162461bcd60e51b8152600401610ad99190613543565b505b611e8a826124ed565b6000838152601260205260409020805460ff19166001836004811115611eb257611eb261370b565b02179055505050565b600080611ec86064612b02565b905060228111611eda57600091505090565b60238110158015611eec575060468111155b15611ef957600191505090565b600291505090565b5090565b600081815260046020526040902080546001600160a01b0319166001600160a01b0384169081179091558190611f3a8261139a565b6001600160a01b03167f8c5be1e5ebec7d5bd14f71427d1e84f3dd0314c0f7b2291e5b200ac8c7c3b92560405160405180910390a45050565b6000611f7e81611aee565b50600f805461ff001916610100179055565b6000611f9b81611aee565b600f54829060119060009060ff166004811115611fba57611fba61370b565b6004811115611fcb57611fcb61370b565b815260200190815260200160002090805190602001906109cd92919061336a565b6000611ff781611aee565b50600f805461ff0019169055565b600061201081611aee565b600f5461201f9060ff16612b44565b600f805460ff1916600183600481111561203b5761203b61370b565b021790555050565b6000818152600260205260408120546001600160a01b03166120bc5760405162461bcd60e51b815260206004820152602c60248201527f4552433732313a206f70657261746f7220717565727920666f72206e6f6e657860448201526b34b9ba32b73a103a37b5b2b760a11b6064820152608401610ad9565b60006120c78361139a565b9050806001600160a01b0316846001600160a01b0316148061210e57506001600160a01b0380821660009081526005602090815260408083209388168352929052205460ff165b806121325750836001600160a01b031661212784610a64565b6001600160a01b0316145b949350505050565b826001600160a01b031661214d8261139a565b6001600160a01b0316146121b15760405162461bcd60e51b815260206004820152602560248201527f4552433732313a207472616e736665722066726f6d20696e636f72726563742060448201526437bbb732b960d91b6064820152608401610ad9565b6001600160a01b0382166122135760405162461bcd60e51b8152602060048201526024808201527f4552433732313a207472616e7366657220746f20746865207a65726f206164646044820152637265737360e01b6064820152608401610ad9565b61221e838383612bd1565b612229600082611f05565b6001600160a01b0383166000908152600360205260408120805460019290612252908490613cdc565b90915550506001600160a01b0382166000908152600360205260408120805460019290612280908490613c50565b909155505060008181526002602052604080822080546001600160a01b0319166001600160a01b0386811691821790925591518493918716917fddf252ad1be2c89b69c2b068fc378daa952ba7f163c4a11628f55a4df523b3ef91a4505050565b6122eb828261153d565b610f955760008281526009602090815260408083206001600160a01b03851684529091529020805460ff191660011790556123233390565b6001600160a01b0316816001600160a01b0316837f2f8788117e7eff1d82e926ec794901d17c78024a50270940304540a733656f0d60405160405180910390a45050565b612371828261153d565b15610f955760008281526009602090815260408083206001600160a01b0385168085529252808320805460ff1916905551339285917ff6391f5c32d9c69d2a47ea670b442974b53935d1edc7fd64eb21e047a839171b9190a45050565b60085460ff166124175760405162461bcd60e51b815260206004820152601460248201527314185d5cd8589b194e881b9bdd081c185d5cd95960621b6044820152606401610ad9565b6008805460ff191690557f5db9ee0a495bf2e6ff9c91a7834c1ba4fdd244a5e8aa4e537bd38aeae4b073aa335b6040516001600160a01b039091168152602001610d2a565b610f95828260405180602001604052806000815250612c22565b61247f33610d87565b6124e45760405162461bcd60e51b815260206004820152603060248201527f4552433732314275726e61626c653a2063616c6c6572206973206e6f74206f7760448201526f1b995c881b9bdc88185c1c1c9bdd995960821b6064820152608401610ad9565b610fcb81612c55565b60008181526012602052604081205461098e9060ff16612b44565b6000611ab58383612cfc565b61252060016004613cdc565b81111561252f60016004611d6e565b604051602001611c6d9190613db6565b6702c68af0bb1400008215612563576125606702c68af0bb14000082613c50565b90505b60018311156125815761257e67058d15e17628000082613c50565b90505b80821461258d826127bd565b60405160200161259d9190613d65565b604051602081830303815290604052906115c05760405162461bcd60e51b8152600401610ad99190613543565b60085460ff16156126105760405162461bcd60e51b815260206004820152601060248201526f14185d5cd8589b194e881c185d5cd95960821b6044820152606401610ad9565b6008805460ff191660011790557f62e78cea01bee320cd4e420270b5ea74000d11b0c9f74754ebdbfc544b05a2586124443390565b816001600160a01b0316836001600160a01b0316036126a65760405162461bcd60e51b815260206004820152601960248201527f4552433732313a20617070726f766520746f2063616c6c6572000000000000006044820152606401610ad9565b6001600160a01b03838116600081815260056020908152604080832094871680845294825291829020805460ff191686151590811790915591519182527f17307eab39ab6107e8899845ad3d59bd9653f200f220920489ca2b5937696c31910160405180910390a3505050565b61271e84848461213a565b61272a84848484612d4b565b6115c05760405162461bcd60e51b8152600401610ad990613e18565b6060612750612e4c565b6000838152601260205260408120546011919060ff1660048111156127775761277761370b565b60048111156127885761278861370b565b81526020019081526020016000206040516020016127a7929190613e6a565b6040516020818303038152906040529050919050565b6060816000036127e45750506040805180820190915260018152600360fc1b602082015290565b8160005b811561280e57806127f8816139fe565b91506128079050600a836139d4565b91506127e8565b60008167ffffffffffffffff81111561282957612829613599565b6040519080825280601f01601f191660200182016040528015612853576020820181803683370190505b5090505b841561213257612868600183613cdc565b9150612875600a86613f1a565b612880906030613c50565b60f81b818381518110612895576128956139e8565b60200101906001600160f81b031916908160001a9053506128b7600a866139d4565b9450612857565b606081516000036128dd57505060408051602081019091526000815290565b6000604051806060016040528060408152602001614099604091399050600060038451600261290c9190613c50565b61291691906139d4565b61292190600461399f565b67ffffffffffffffff81111561293957612939613599565b6040519080825280601f01601f191660200182016040528015612963576020820181803683370190505b509050600182016020820185865187015b808210156129cf576003820191508151603f8160121c168501518453600184019350603f81600c1c168501518453600184019350603f8160061c168501518453600184019350603f8116850151845350600183019250612974565b50506003865106600181146129eb57600281146129fe57612a06565b603d6001830353603d6002830353612a06565b603d60018303535b509195945050505050565b6000611ab58383612e6c565b60006001600160e01b03198216637965db0b60e01b148061098e575061098e82612f5f565b606081600001805480602002602001604051908101604052809291908181526020018280548015612a9257602002820191906000526020600020905b815481526020019060010190808311612a7e575b50505050509050919050565b612aa8828261153d565b610f9557612ac0816001600160a01b03166014611919565b612acb836020611919565b604051602001612adc929190613f2e565b60408051601f198184030181529082905262461bcd60e51b8252610ad991600401613543565b6000814244604051602001612b21929190918252602082015260400190565b6040516020818303038152906040528051906020012060001c61098e9190613f1a565b60006004826004811115612b5a57612b5a61370b565b10612b6560046127bd565b604051602001612b759190613fa3565b60405160208183030381529060405290612ba25760405162461bcd60e51b8152600401610ad99190613543565b50816004811115612bb557612bb561370b565b612bc0906001613c50565b600481111561098e5761098e61370b565b60085460ff1615612c175760405162461bcd60e51b815260206004820152601060248201526f14185d5cd8589b194e881c185d5cd95960821b6044820152606401610ad9565b6109cd838383612f84565b612c2c838361303c565b612c396000848484612d4b565b6109cd5760405162461bcd60e51b8152600401610ad990613e18565b6000612c608261139a565b9050612c6e81600084612bd1565b612c79600083611f05565b6001600160a01b0381166000908152600360205260408120805460019290612ca2908490613cdc565b909155505060008281526002602052604080822080546001600160a01b0319169055518391906001600160a01b038416907fddf252ad1be2c89b69c2b068fc378daa952ba7f163c4a11628f55a4df523b3ef908390a45050565b6000818152600183016020526040812054612d435750815460018181018455600084815260208082209093018490558454848252828601909352604090209190915561098e565b50600061098e565b60006001600160a01b0384163b15612e4157604051630a85bd0160e11b81526001600160a01b0385169063150b7a0290612d8f903390899088908890600401613fe8565b6020604051808303816000875af1925050508015612dca575060408051601f3d908101601f19168201909252612dc791810190614025565b60015b612e27573d808015612df8576040519150601f19603f3d011682016040523d82523d6000602084013e612dfd565b606091505b508051600003612e1f5760405162461bcd60e51b8152600401610ad990613e18565b805181602001fd5b6001600160e01b031916630a85bd0160e11b149050612132565b506001949350505050565b606060405180606001604052806040815260200161405960409139905090565b60008181526001830160205260408120548015612f55576000612e90600183613cdc565b8554909150600090612ea490600190613cdc565b9050818114612f09576000866000018281548110612ec457612ec46139e8565b9060005260206000200154905080876000018481548110612ee757612ee76139e8565b6000918252602080832090910192909255918252600188019052604090208390555b8554869080612f1a57612f1a614042565b60019003818190600052602060002001600090559055856001016000868152602001908152602001600020600090556001935050505061098e565b600091505061098e565b60006001600160e01b0319821663152a902d60e11b148061098e575061098e8261318a565b6001600160a01b038316612fdf57612fda81600c80546000838152600d60205260408120829055600182018355919091527fdf6966c971051c3d54ec59162606531493a51404a002842f56009d7e5cf4a8c70155565b613002565b816001600160a01b0316836001600160a01b0316146130025761300283826131da565b6001600160a01b038216613019576109cd81613277565b826001600160a01b0316826001600160a01b0316146109cd576109cd8282613326565b6001600160a01b0382166130925760405162461bcd60e51b815260206004820181905260248201527f4552433732313a206d696e7420746f20746865207a65726f20616464726573736044820152606401610ad9565b6000818152600260205260409020546001600160a01b0316156130f75760405162461bcd60e51b815260206004820152601c60248201527f4552433732313a20746f6b656e20616c7265616479206d696e746564000000006044820152606401610ad9565b61310360008383612bd1565b6001600160a01b038216600090815260036020526040812080546001929061312c908490613c50565b909155505060008181526002602052604080822080546001600160a01b0319166001600160a01b03861690811790915590518392907fddf252ad1be2c89b69c2b068fc378daa952ba7f163c4a11628f55a4df523b3ef908290a45050565b60006001600160e01b031982166380ac58cd60e01b14806131bb57506001600160e01b03198216635b5e139f60e01b145b8061098e57506301ffc9a760e01b6001600160e01b031983161461098e565b600060016131e784611411565b6131f19190613cdc565b6000838152600b6020526040902054909150808214613244576001600160a01b0384166000908152600a602090815260408083208584528252808320548484528184208190558352600b90915290208190555b506000918252600b602090815260408084208490556001600160a01b039094168352600a81528383209183525290812055565b600c5460009061328990600190613cdc565b6000838152600d6020526040812054600c80549394509092849081106132b1576132b16139e8565b9060005260206000200154905080600c83815481106132d2576132d26139e8565b6000918252602080832090910192909255828152600d9091526040808220849055858252812055600c80548061330a5761330a614042565b6001900381819060005260206000200160009055905550505050565b600061333183611411565b6001600160a01b039093166000908152600a602090815260408083208684528252808320859055938252600b9052919091209190915550565b828054613376906138e1565b90600052602060002090601f01602090048101928261339857600085556133de565b82601f106133b157805160ff19168380011785556133de565b828001600101855582156133de579182015b828111156133de5782518255916020019190600101906133c3565b50611f019291505b80821115611f0157600081556001016133e6565b6001600160e01b031981168114610fcb57600080fd5b60006020828403121561342257600080fd5b8135611ab5816133fa565b80356001600160a01b038116811461344457600080fd5b919050565b60006020828403121561345b57600080fd5b611ab58261342d565b6020808252825182820181905260009190848201906040850190845b8181101561349c57835183529284019291840191600101613480565b50909695505050505050565b600080604083850312156134bb57600080fd5b6134c48361342d565b915060208301356001600160601b03811681146134e057600080fd5b809150509250929050565b60005b838110156135065781810151838201526020016134ee565b838111156115c05750506000910152565b6000815180845261352f8160208601602086016134eb565b601f01601f19169290920160200192915050565b602081526000611ab56020830184613517565b60006020828403121561356857600080fd5b5035919050565b6000806040838503121561358257600080fd5b61358b8361342d565b946020939093013593505050565b634e487b7160e01b600052604160045260246000fd5b604051601f8201601f1916810167ffffffffffffffff811182821017156135d8576135d8613599565b604052919050565b600067ffffffffffffffff8311156135fa576135fa613599565b61360d601f8401601f19166020016135af565b905082815283838301111561362157600080fd5b828260208301376000602084830101529392505050565b60006020828403121561364a57600080fd5b813567ffffffffffffffff81111561366157600080fd5b8201601f8101841361367257600080fd5b612132848235602084016135e0565b60008060006060848603121561369657600080fd5b61369f8461342d565b92506136ad6020850161342d565b9150604084013590509250925092565b600080604083850312156136d057600080fd5b50508035926020909101359150565b600080604083850312156136f257600080fd5b823591506137026020840161342d565b90509250929050565b634e487b7160e01b600052602160045260246000fd5b60208101600483106137355761373561370b565b91905290565b6000602080838503121561374e57600080fd5b823567ffffffffffffffff8082111561376657600080fd5b818501915085601f83011261377a57600080fd5b81358181111561378c5761378c613599565b8060051b915061379d8483016135af565b81815291830184019184810190888411156137b757600080fd5b938501935b838510156137dc576137cd8561342d565b825293850193908501906137bc565b98975050505050505050565b600080604083850312156137fb57600080fd5b6138048361342d565b9150602083013580151581146134e057600080fd5b6000806000806080858703121561382f57600080fd5b6138388561342d565b93506138466020860161342d565b925060408501359150606085013567ffffffffffffffff81111561386957600080fd5b8501601f8101871361387a57600080fd5b613889878235602084016135e0565b91505092959194509250565b600581106138a5576138a561370b565b9052565b6020810161098e8284613895565b600080604083850312156138ca57600080fd5b6138d38361342d565b91506137026020840161342d565b600181811c908216806138f557607f821691505b60208210810361391557634e487b7160e01b600052602260045260246000fd5b50919050565b604081016139298285613895565b82151560208301529392505050565b60208082526031908201527f4552433732313a207472616e736665722063616c6c6572206973206e6f74206f6040820152701ddb995c881b9bdc88185c1c1c9bdd9959607a1b606082015260800190565b634e487b7160e01b600052601160045260246000fd5b60008160001904831182151516156139b9576139b9613989565b500290565b634e487b7160e01b600052601260045260246000fd5b6000826139e3576139e36139be565b500490565b634e487b7160e01b600052603260045260246000fd5b600060018201613a1057613a10613989565b5060010190565b60008151613a298185602086016134eb565b9290920192915050565b7f7b226e616d65223a20224469616d6f6e64204461776e222c202264657363726981527f7074696f6e223a20225468697320697320746865206465736372697074696f6e60208201527f206f66204469616d6f6e64204461776e2050726f6a656374222c2022696d616760408201526432911d101160d91b606082015260008751613ac5816065850160208c016134eb565b741116101130b734b6b0ba34b7b72fbab936111d101160591b6065918401918201528751613afa81607a840160208c016134eb565b6b01116101139ba30b3b2911d160a51b607a92909101918201528651613b27816086840160208b016134eb565b613bae613ba0613b9a613b7e613b78613b5f613b596086888a01016a016101139b430b832911d160ad1b8152600b0190565b8d613a17565b6c016101131baba30b13632911d1609d1b8152600d0190565b8a613a17565b6f01610113837b634b9b430b13632911d160851b815260100190565b87613a17565b61207d60f01b815260020190565b9a9950505050505050505050565b7f646174613a6170706c69636174696f6e2f6a736f6e3b6261736536342c000000815260008251613bf481601d8501602087016134eb565b91909101601d0192915050565b6020808252602f908201527f412073746167652073686f756c642062652061637469766520746f207065726660408201526e37b936903a3434b99030b1ba34b7b760891b606082015260800190565b60008219821115613c6357613c63613989565b500190565b600081613c7757613c77613989565b506000190190565b7302a34329039ba30b3b29039b437bab632103132960651b815260008251613cae8160148501602087016134eb565b76103a37903832b93337b936903a3434b99030b1ba34b7b760491b6014939091019283015250602b01919050565b600082821015613cee57613cee613989565b500390565b7f546865206c6576656c206f6620746865206469616d6f6e642073686f756c642081526203132960ed1b602082015260008251613d378160238501602087016134eb565b76103a37903832b93337b936903a3434b99030b1ba34b7b760491b6023939091019283015250603a01919050565b7f57726f6e67207061796d656e74202d207061796d656e742073686f756c6420628152620329d160ed1b602082015260008251613da98160238501602087016134eb565b9190910160230192915050565b7f5075726368617365642070726f6365737365732073686f756c64206265206c65815273039b9903a3430b71037b91032b8bab0b6103a37960651b602082015260008251613e0b8160348501602087016134eb565b9190910160340192915050565b60208082526032908201527f4552433732313a207472616e7366657220746f206e6f6e20455243373231526560408201527131b2b4bb32b91034b6b83632b6b2b73a32b960711b606082015260800190565b600083516020613e7d82858389016134eb565b845491840191600090600181811c9080831680613e9b57607f831692505b8583108103613eb857634e487b7160e01b85526022600452602485fd5b808015613ecc5760018114613edd57613f0a565b60ff19851688528388019550613f0a565b60008b81526020902060005b85811015613f025781548a820152908401908801613ee9565b505083880195505b50939a9950505050505050505050565b600082613f2957613f296139be565b500690565b7f416363657373436f6e74726f6c3a206163636f756e7420000000000000000000815260008351613f668160178501602088016134eb565b7001034b99036b4b9b9b4b733903937b6329607d1b6017918401918201528351613f978160288401602088016134eb565b01602801949350505050565b7f5468652073746167652073686f756c64206265206c657373207468616e200000815260008251613fdb81601e8501602087016134eb565b91909101601e0192915050565b6001600160a01b038581168252841660208201526040810183905260806060820181905260009061401b90830184613517565b9695505050505050565b60006020828403121561403757600080fd5b8151611ab5816133fa565b634e487b7160e01b600052603160045260246000fdfe68747470733a2f2f747765657a6572732d7075626c69632e73332e616d617a6f6e6177732e636f6d2f6469616d6f6e642d6461776e2d6e66742d6d6f636b732f4142434445464748494a4b4c4d4e4f505152535455565758595a6162636465666768696a6b6c6d6e6f707172737475767778797a303132333435363738392b2fa2646970667358221220df49a73b27c38d4afcdad4b4631b61a4f8e9eb55627176dc6ec1ef1c862d51d364736f6c634300080e0033",
  "linkReferences": {},
  "deployedLinkReferences": {}
}