{
  "_format": "hh-sol-artifact-1",
  "contractName": "DiamondDawn",
  "sourceName": "contracts/DiamondDawn.sol",
  "abi": [
    {
      "inputs": [],
      "stateMutability": "nonpayable",
      "type": "constructor"
    },
    {
      "anonymous": false,
      "inputs": [
        {
          "indexed": true,
          "internalType": "address",
          "name": "owner",
          "type": "address"
        },
        {
          "indexed": true,
          "internalType": "address",
          "name": "approved",
          "type": "address"
        },
        {
          "indexed": true,
          "internalType": "uint256",
          "name": "tokenId",
          "type": "uint256"
        }
      ],
      "name": "Approval",
      "type": "event"
    },
    {
      "anonymous": false,
      "inputs": [
        {
          "indexed": true,
          "internalType": "address",
          "name": "owner",
          "type": "address"
        },
        {
          "indexed": true,
          "internalType": "address",
          "name": "operator",
          "type": "address"
        },
        {
          "indexed": false,
          "internalType": "bool",
          "name": "approved",
          "type": "bool"
        }
      ],
      "name": "ApprovalForAll",
      "type": "event"
    },
    {
      "anonymous": false,
      "inputs": [
        {
          "indexed": false,
          "internalType": "address",
          "name": "account",
          "type": "address"
        }
      ],
      "name": "Paused",
      "type": "event"
    },
    {
      "anonymous": false,
      "inputs": [
        {
          "indexed": true,
          "internalType": "bytes32",
          "name": "role",
          "type": "bytes32"
        },
        {
          "indexed": true,
          "internalType": "bytes32",
          "name": "previousAdminRole",
          "type": "bytes32"
        },
        {
          "indexed": true,
          "internalType": "bytes32",
          "name": "newAdminRole",
          "type": "bytes32"
        }
      ],
      "name": "RoleAdminChanged",
      "type": "event"
    },
    {
      "anonymous": false,
      "inputs": [
        {
          "indexed": true,
          "internalType": "bytes32",
          "name": "role",
          "type": "bytes32"
        },
        {
          "indexed": true,
          "internalType": "address",
          "name": "account",
          "type": "address"
        },
        {
          "indexed": true,
          "internalType": "address",
          "name": "sender",
          "type": "address"
        }
      ],
      "name": "RoleGranted",
      "type": "event"
    },
    {
      "anonymous": false,
      "inputs": [
        {
          "indexed": true,
          "internalType": "bytes32",
          "name": "role",
          "type": "bytes32"
        },
        {
          "indexed": true,
          "internalType": "address",
          "name": "account",
          "type": "address"
        },
        {
          "indexed": true,
          "internalType": "address",
          "name": "sender",
          "type": "address"
        }
      ],
      "name": "RoleRevoked",
      "type": "event"
    },
    {
      "anonymous": false,
      "inputs": [
        {
          "indexed": true,
          "internalType": "address",
          "name": "from",
          "type": "address"
        },
        {
          "indexed": true,
          "internalType": "address",
          "name": "to",
          "type": "address"
        },
        {
          "indexed": true,
          "internalType": "uint256",
          "name": "tokenId",
          "type": "uint256"
        }
      ],
      "name": "Transfer",
      "type": "event"
    },
    {
      "anonymous": false,
      "inputs": [
        {
          "indexed": false,
          "internalType": "address",
          "name": "account",
          "type": "address"
        }
      ],
      "name": "Unpaused",
      "type": "event"
    },
    {
      "inputs": [],
      "name": "CUT_PRICE",
      "outputs": [
        {
          "internalType": "uint256",
          "name": "",
          "type": "uint256"
        }
      ],
      "stateMutability": "view",
      "type": "function"
    },
    {
      "inputs": [],
      "name": "DEFAULT_ADMIN_ROLE",
      "outputs": [
        {
          "internalType": "bytes32",
          "name": "",
          "type": "bytes32"
        }
      ],
      "stateMutability": "view",
      "type": "function"
    },
    {
      "inputs": [],
      "name": "MINING_PRICE",
      "outputs": [
        {
          "internalType": "uint256",
          "name": "",
          "type": "uint256"
        }
      ],
      "stateMutability": "view",
      "type": "function"
    },
    {
      "inputs": [],
      "name": "MINTER_ROLE",
      "outputs": [
        {
          "internalType": "bytes32",
          "name": "",
          "type": "bytes32"
        }
      ],
      "stateMutability": "view",
      "type": "function"
    },
    {
      "inputs": [],
      "name": "PAUSER_ROLE",
      "outputs": [
        {
          "internalType": "bytes32",
          "name": "",
          "type": "bytes32"
        }
      ],
      "stateMutability": "view",
      "type": "function"
    },
    {
      "inputs": [],
      "name": "POLISH_PRICE",
      "outputs": [
        {
          "internalType": "uint256",
          "name": "",
          "type": "uint256"
        }
      ],
      "stateMutability": "view",
      "type": "function"
    },
    {
      "inputs": [],
      "name": "PREPAID_CUT_PRICE",
      "outputs": [
        {
          "internalType": "uint256",
          "name": "",
          "type": "uint256"
        }
      ],
      "stateMutability": "view",
      "type": "function"
    },
    {
      "inputs": [],
      "name": "PREPAID_POLISH_PRICE",
      "outputs": [
        {
          "internalType": "uint256",
          "name": "",
          "type": "uint256"
        }
      ],
      "stateMutability": "view",
      "type": "function"
    },
    {
      "inputs": [
        {
          "internalType": "address[]",
          "name": "addresses",
          "type": "address[]"
        }
      ],
      "name": "addToAllowList",
      "outputs": [],
      "stateMutability": "nonpayable",
      "type": "function"
    },
    {
      "inputs": [
        {
          "internalType": "address",
          "name": "to",
          "type": "address"
        },
        {
          "internalType": "uint256",
          "name": "tokenId",
          "type": "uint256"
        }
      ],
      "name": "approve",
      "outputs": [],
      "stateMutability": "nonpayable",
      "type": "function"
    },
    {
      "inputs": [
        {
          "internalType": "address",
          "name": "owner",
          "type": "address"
        }
      ],
      "name": "balanceOf",
      "outputs": [
        {
          "internalType": "uint256",
          "name": "",
          "type": "uint256"
        }
      ],
      "stateMutability": "view",
      "type": "function"
    },
    {
      "inputs": [
        {
          "internalType": "uint256",
          "name": "tokenId",
          "type": "uint256"
        }
      ],
      "name": "burn",
      "outputs": [],
      "stateMutability": "nonpayable",
      "type": "function"
    },
    {
      "inputs": [],
      "name": "completeCurrentStage",
      "outputs": [],
      "stateMutability": "nonpayable",
      "type": "function"
    },
    {
      "inputs": [
        {
          "internalType": "uint256",
          "name": "tokenId",
          "type": "uint256"
        }
      ],
      "name": "cut",
      "outputs": [],
      "stateMutability": "payable",
      "type": "function"
    },
    {
      "inputs": [],
      "name": "dev__ResetStage",
      "outputs": [],
      "stateMutability": "nonpayable",
      "type": "function"
    },
    {
      "inputs": [
        {
          "internalType": "uint256",
          "name": "tokenId",
          "type": "uint256"
        }
      ],
      "name": "getApproved",
      "outputs": [
        {
          "internalType": "address",
          "name": "",
          "type": "address"
        }
      ],
      "stateMutability": "view",
      "type": "function"
    },
    {
      "inputs": [
        {
          "internalType": "bytes32",
          "name": "role",
          "type": "bytes32"
        }
      ],
      "name": "getRoleAdmin",
      "outputs": [
        {
          "internalType": "bytes32",
          "name": "",
          "type": "bytes32"
        }
      ],
      "stateMutability": "view",
      "type": "function"
    },
    {
      "inputs": [
        {
          "internalType": "bytes32",
          "name": "role",
          "type": "bytes32"
        },
        {
          "internalType": "address",
          "name": "account",
          "type": "address"
        }
      ],
      "name": "grantRole",
      "outputs": [],
      "stateMutability": "nonpayable",
      "type": "function"
    },
    {
      "inputs": [
        {
          "internalType": "bytes32",
          "name": "role",
          "type": "bytes32"
        },
        {
          "internalType": "address",
          "name": "account",
          "type": "address"
        }
      ],
      "name": "hasRole",
      "outputs": [
        {
          "internalType": "bool",
          "name": "",
          "type": "bool"
        }
      ],
      "stateMutability": "view",
      "type": "function"
    },
    {
      "inputs": [
        {
          "internalType": "address",
          "name": "owner",
          "type": "address"
        },
        {
          "internalType": "address",
          "name": "operator",
          "type": "address"
        }
      ],
      "name": "isApprovedForAll",
      "outputs": [
        {
          "internalType": "bool",
          "name": "",
          "type": "bool"
        }
      ],
      "stateMutability": "view",
      "type": "function"
    },
    {
      "inputs": [],
      "name": "isStageActive",
      "outputs": [
        {
          "internalType": "bool",
          "name": "",
          "type": "bool"
        }
      ],
      "stateMutability": "view",
      "type": "function"
    },
    {
      "inputs": [
        {
          "internalType": "uint256",
          "name": "processesPurchased",
          "type": "uint256"
        }
      ],
      "name": "mine",
      "outputs": [],
      "stateMutability": "payable",
      "type": "function"
    },
    {
      "inputs": [],
      "name": "name",
      "outputs": [
        {
          "internalType": "string",
          "name": "",
          "type": "string"
        }
      ],
      "stateMutability": "view",
      "type": "function"
    },
    {
      "inputs": [
        {
          "internalType": "uint256",
          "name": "tokenId",
          "type": "uint256"
        }
      ],
      "name": "ownerOf",
      "outputs": [
        {
          "internalType": "address",
          "name": "",
          "type": "address"
        }
      ],
      "stateMutability": "view",
      "type": "function"
    },
    {
      "inputs": [],
      "name": "pause",
      "outputs": [],
      "stateMutability": "nonpayable",
      "type": "function"
    },
    {
      "inputs": [],
      "name": "paused",
      "outputs": [
        {
          "internalType": "bool",
          "name": "",
          "type": "bool"
        }
      ],
      "stateMutability": "view",
      "type": "function"
    },
    {
      "inputs": [
        {
          "internalType": "uint256",
          "name": "tokenId",
          "type": "uint256"
        }
      ],
      "name": "polish",
      "outputs": [],
      "stateMutability": "payable",
      "type": "function"
    },
    {
      "inputs": [
        {
          "internalType": "uint256",
          "name": "tokenId",
          "type": "uint256"
        }
      ],
      "name": "rebirth",
      "outputs": [],
      "stateMutability": "nonpayable",
      "type": "function"
    },
    {
      "inputs": [
        {
          "internalType": "bytes32",
          "name": "role",
          "type": "bytes32"
        },
        {
          "internalType": "address",
          "name": "account",
          "type": "address"
        }
      ],
      "name": "renounceRole",
      "outputs": [],
      "stateMutability": "nonpayable",
      "type": "function"
    },
    {
      "inputs": [
        {
          "internalType": "string",
          "name": "videoUrl",
          "type": "string"
        }
      ],
      "name": "revealStage",
      "outputs": [],
      "stateMutability": "nonpayable",
      "type": "function"
    },
    {
      "inputs": [
        {
          "internalType": "bytes32",
          "name": "role",
          "type": "bytes32"
        },
        {
          "internalType": "address",
          "name": "account",
          "type": "address"
        }
      ],
      "name": "revokeRole",
      "outputs": [],
      "stateMutability": "nonpayable",
      "type": "function"
    },
    {
      "inputs": [
        {
          "internalType": "address",
          "name": "to",
          "type": "address"
        }
      ],
      "name": "safeMint",
      "outputs": [],
      "stateMutability": "nonpayable",
      "type": "function"
    },
    {
      "inputs": [
        {
          "internalType": "address",
          "name": "from",
          "type": "address"
        },
        {
          "internalType": "address",
          "name": "to",
          "type": "address"
        },
        {
          "internalType": "uint256",
          "name": "tokenId",
          "type": "uint256"
        }
      ],
      "name": "safeTransferFrom",
      "outputs": [],
      "stateMutability": "nonpayable",
      "type": "function"
    },
    {
      "inputs": [
        {
          "internalType": "address",
          "name": "from",
          "type": "address"
        },
        {
          "internalType": "address",
          "name": "to",
          "type": "address"
        },
        {
          "internalType": "uint256",
          "name": "tokenId",
          "type": "uint256"
        },
        {
          "internalType": "bytes",
          "name": "_data",
          "type": "bytes"
        }
      ],
      "name": "safeTransferFrom",
      "outputs": [],
      "stateMutability": "nonpayable",
      "type": "function"
    },
    {
      "inputs": [
        {
          "internalType": "address",
          "name": "operator",
          "type": "address"
        },
        {
          "internalType": "bool",
          "name": "approved",
          "type": "bool"
        }
      ],
      "name": "setApprovalForAll",
      "outputs": [],
      "stateMutability": "nonpayable",
      "type": "function"
    },
    {
      "inputs": [
        {
          "internalType": "uint256",
          "name": "price",
          "type": "uint256"
        }
      ],
      "name": "setProcessingPrice",
      "outputs": [],
      "stateMutability": "nonpayable",
      "type": "function"
    },
    {
      "inputs": [],
      "name": "stage",
      "outputs": [
        {
          "internalType": "enum DiamondDawn.Stage",
          "name": "",
          "type": "uint8"
        }
      ],
      "stateMutability": "view",
      "type": "function"
    },
    {
      "inputs": [
        {
          "internalType": "bytes4",
          "name": "interfaceId",
          "type": "bytes4"
        }
      ],
      "name": "supportsInterface",
      "outputs": [
        {
          "internalType": "bool",
          "name": "",
          "type": "bool"
        }
      ],
      "stateMutability": "view",
      "type": "function"
    },
    {
      "inputs": [],
      "name": "symbol",
      "outputs": [
        {
          "internalType": "string",
          "name": "",
          "type": "string"
        }
      ],
      "stateMutability": "view",
      "type": "function"
    },
    {
      "inputs": [
        {
          "internalType": "uint256",
          "name": "tokenId",
          "type": "uint256"
        }
      ],
      "name": "tokenURI",
      "outputs": [
        {
          "internalType": "string",
          "name": "",
          "type": "string"
        }
      ],
      "stateMutability": "view",
      "type": "function"
    },
    {
      "inputs": [
        {
          "internalType": "address",
          "name": "from",
          "type": "address"
        },
        {
          "internalType": "address",
          "name": "to",
          "type": "address"
        },
        {
          "internalType": "uint256",
          "name": "tokenId",
          "type": "uint256"
        }
      ],
      "name": "transferFrom",
      "outputs": [],
      "stateMutability": "nonpayable",
      "type": "function"
    },
    {
      "inputs": [],
      "name": "unpause",
      "outputs": [],
      "stateMutability": "nonpayable",
      "type": "function"
    }
  ],
  "bytecode": "0x60806040523480156200001157600080fd5b506040518060400160405280600b81526020017f4469616d6f6e644461776e0000000000000000000000000000000000000000008152506040518060400160405280600281526020017f444400000000000000000000000000000000000000000000000000000000000081525081600090805190602001906200009692919062000431565b508060019080519060200190620000af92919062000431565b5050506000600660006101000a81548160ff021916908315150217905550620000e26000801b33620001fd60201b60201c565b620001147f65d7a28e3265b37a6474929f336521b332c1681b933f6cb9f3376673440d862a33620001fd60201b60201c565b620001467f9f2df0fed2c77648de5860a4cc508cd0818c85b8b8a1ab4ceeef8d981c8956a633620001fd60201b60201c565b6001600c60003373ffffffffffffffffffffffffffffffffffffffff1673ffffffffffffffffffffffffffffffffffffffff16815260200190815260200160002060006101000a81548160ff0219169083151502179055506000600960006101000a81548160ff02191690836004811115620001c757620001c6620004e1565b5b02179055506000600960016101000a81548160ff021916908315150217905550620001f7620002ef60201b60201c565b62000659565b6200020f8282620003a760201b60201c565b620002eb5760016007600084815260200190815260200160002060000160008373ffffffffffffffffffffffffffffffffffffffff1673ffffffffffffffffffffffffffffffffffffffff16815260200190815260200160002060006101000a81548160ff021916908315150217905550620002906200041260201b60201c565b73ffffffffffffffffffffffffffffffffffffffff168173ffffffffffffffffffffffffffffffffffffffff16837f2f8788117e7eff1d82e926ec794901d17c78024a50270940304540a733656f0d60405160405180910390a45b5050565b620002ff6200041a60201b60201c565b1562000342576040517f08c379a0000000000000000000000000000000000000000000000000000000008152600401620003399062000571565b60405180910390fd5b6001600660006101000a81548160ff0219169083151502179055507f62e78cea01bee320cd4e420270b5ea74000d11b0c9f74754ebdbfc544b05a2586200038e6200041260201b60201c565b6040516200039d9190620005d8565b60405180910390a1565b60006007600084815260200190815260200160002060000160008373ffffffffffffffffffffffffffffffffffffffff1673ffffffffffffffffffffffffffffffffffffffff16815260200190815260200160002060009054906101000a900460ff16905092915050565b600033905090565b6000600660009054906101000a900460ff16905090565b8280546200043f9062000624565b90600052602060002090601f016020900481019282620004635760008555620004af565b82601f106200047e57805160ff1916838001178555620004af565b82800160010185558215620004af579182015b82811115620004ae57825182559160200191906001019062000491565b5b509050620004be9190620004c2565b5090565b5b80821115620004dd576000816000905550600101620004c3565b5090565b7f4e487b7100000000000000000000000000000000000000000000000000000000600052602160045260246000fd5b600082825260208201905092915050565b7f5061757361626c653a2070617573656400000000000000000000000000000000600082015250565b60006200055960108362000510565b9150620005668262000521565b602082019050919050565b600060208201905081810360008301526200058c816200054a565b9050919050565b600073ffffffffffffffffffffffffffffffffffffffff82169050919050565b6000620005c08262000593565b9050919050565b620005d281620005b3565b82525050565b6000602082019050620005ef6000830184620005c7565b92915050565b7f4e487b7100000000000000000000000000000000000000000000000000000000600052602260045260246000fd5b600060028204905060018216806200063d57607f821691505b602082108103620006535762000652620005f5565b5b50919050565b6155b780620006696000396000f3fe6080604052600436106102515760003560e01c80636a1eb87e11610139578063bc6399e7116100b6578063d53913931161007a578063d53913931461084b578063d547741f14610876578063e63ab1e91461089f578063e8a77d17146108ca578063e985e9c5146108f3578063f4273b321461093057610251565b8063bc6399e714610771578063bf72b63f1461079c578063c040e6b8146107b8578063c87b56dd146107e3578063cc1169791461082057610251565b806395d89b41116100fd57806395d89b41146106a0578063a217fddf146106cb578063a22cb465146106f6578063abdfe2751461071f578063b88d4fde1461074857610251565b80636a1eb87e146105bb57806370a08231146105e65780637263cfe2146106235780638456cb591461064c57806391d148541461066357610251565b80632f2ff15d116101d257806342966c681161019657806342966c68146104b857806344e5d1df146104e15780634d4748981461050c5780635c975abb146105285780635ed6ac4f146105535780636352211e1461057e57610251565b80632f2ff15d146103fd57806336568abe146104265780633f4ba83a1461044f57806340d097c31461046657806342842e0e1461048f57610251565b80630a49008d116102195780630a49008d14610340578063140865f31461036957806315afd8f81461038057806323b872dd14610397578063248a9ca3146103c057610251565b806301ffc9a71461025657806306fdde0314610293578063081812fc146102be57806309260db7146102fb578063095ea7b314610317575b600080fd5b34801561026257600080fd5b5061027d60048036038101906102789190613741565b61095b565b60405161028a9190613789565b60405180910390f35b34801561029f57600080fd5b506102a861096d565b6040516102b5919061383d565b60405180910390f35b3480156102ca57600080fd5b506102e560048036038101906102e09190613895565b6109ff565b6040516102f29190613903565b60405180910390f35b61031560048036038101906103109190613895565b610a84565b005b34801561032357600080fd5b5061033e6004803603810190610339919061394a565b610aad565b005b34801561034c57600080fd5b5061036760048036038101906103629190613abf565b610bc4565b005b34801561037557600080fd5b5061037e610bd8565b005b34801561038c57600080fd5b50610395610c32565b005b3480156103a357600080fd5b506103be60048036038101906103b99190613b08565b610c44565b005b3480156103cc57600080fd5b506103e760048036038101906103e29190613b91565b610ca4565b6040516103f49190613bcd565b60405180910390f35b34801561040957600080fd5b50610424600480360381019061041f9190613be8565b610cc4565b005b34801561043257600080fd5b5061044d60048036038101906104489190613be8565b610ce5565b005b34801561045b57600080fd5b50610464610d68565b005b34801561047257600080fd5b5061048d60048036038101906104889190613c28565b610d9d565b005b34801561049b57600080fd5b506104b660048036038101906104b19190613b08565b610dee565b005b3480156104c457600080fd5b506104df60048036038101906104da9190613895565b610e0e565b005b3480156104ed57600080fd5b506104f6610ecd565b6040516105039190613c64565b60405180910390f35b61052660048036038101906105219190613895565b610ed9565b005b34801561053457600080fd5b5061053d611090565b60405161054a9190613789565b60405180910390f35b34801561055f57600080fd5b506105686110a7565b6040516105759190613789565b60405180910390f35b34801561058a57600080fd5b506105a560048036038101906105a09190613895565b6110ba565b6040516105b29190613903565b60405180910390f35b3480156105c757600080fd5b506105d061116b565b6040516105dd9190613c64565b60405180910390f35b3480156105f257600080fd5b5061060d60048036038101906106089190613c28565b611177565b60405161061a9190613c64565b60405180910390f35b34801561062f57600080fd5b5061064a60048036038101906106459190613d47565b61122e565b005b34801561065857600080fd5b506106616112d1565b005b34801561066f57600080fd5b5061068a60048036038101906106859190613be8565b611306565b6040516106979190613789565b60405180910390f35b3480156106ac57600080fd5b506106b5611371565b6040516106c2919061383d565b60405180910390f35b3480156106d757600080fd5b506106e0611403565b6040516106ed9190613bcd565b60405180910390f35b34801561070257600080fd5b5061071d60048036038101906107189190613dbc565b61140a565b005b34801561072b57600080fd5b5061074660048036038101906107419190613895565b611420565b005b34801561075457600080fd5b5061076f600480360381019061076a9190613e9d565b611431565b005b34801561077d57600080fd5b50610786611493565b6040516107939190613c64565b60405180910390f35b6107b660048036038101906107b19190613895565b61149f565b005b3480156107c457600080fd5b506107cd6114c8565b6040516107da9190613f97565b60405180910390f35b3480156107ef57600080fd5b5061080a60048036038101906108059190613895565b6114db565b604051610817919061383d565b60405180910390f35b34801561082c57600080fd5b50610835611539565b6040516108429190613c64565b60405180910390f35b34801561085757600080fd5b50610860611545565b60405161086d9190613bcd565b60405180910390f35b34801561088257600080fd5b5061089d60048036038101906108989190613be8565b611569565b005b3480156108ab57600080fd5b506108b461158a565b6040516108c19190613bcd565b60405180910390f35b3480156108d657600080fd5b506108f160048036038101906108ec9190613895565b6115ae565b005b3480156108ff57600080fd5b5061091a60048036038101906109159190613fb2565b6116eb565b6040516109279190613789565b60405180910390f35b34801561093c57600080fd5b5061094561177f565b6040516109529190613c64565b60405180910390f35b60006109668261178b565b9050919050565b60606000805461097c90614021565b80601f01602080910402602001604051908101604052809291908181526020018280546109a890614021565b80156109f55780601f106109ca576101008083540402835291602001916109f5565b820191906000526020600020905b8154815290600101906020018083116109d857829003601f168201915b5050505050905090565b6000610a0a82611805565b610a49576040517f08c379a0000000000000000000000000000000000000000000000000000000008152600401610a40906140c4565b60405180910390fd5b6004600083815260200190815260200160002060009054906101000a900473ffffffffffffffffffffffffffffffffffffffff169050919050565b6001610a8e611871565b610a97816118c2565b610aa98267058d15e176280000611977565b5050565b6000610ab8826110ba565b90508073ffffffffffffffffffffffffffffffffffffffff168373ffffffffffffffffffffffffffffffffffffffff1603610b28576040517f08c379a0000000000000000000000000000000000000000000000000000000008152600401610b1f90614156565b60405180910390fd5b8073ffffffffffffffffffffffffffffffffffffffff16610b47611be5565b73ffffffffffffffffffffffffffffffffffffffff161480610b765750610b7581610b70611be5565b6116eb565b5b610bb5576040517f08c379a0000000000000000000000000000000000000000000000000000000008152600401610bac906141e8565b60405180910390fd5b610bbf8383611bed565b505050565b610bcc611ca6565b610bd581611cd1565b50565b60006004811115610bec57610beb613f20565b5b600960006101000a81548160ff02191690836004811115610c1057610c0f613f20565b5b02179055506000600960016101000a81548160ff021916908315150217905550565b610c3a611d3d565b610c42611d68565b565b610c55610c4f611be5565b82611db9565b610c94576040517f08c379a0000000000000000000000000000000000000000000000000000000008152600401610c8b9061427a565b60405180910390fd5b610c9f838383611e97565b505050565b600060076000838152602001908152602001600020600101549050919050565b610ccd82610ca4565b610cd6816120fd565b610ce08383612111565b505050565b610ced611be5565b73ffffffffffffffffffffffffffffffffffffffff168173ffffffffffffffffffffffffffffffffffffffff1614610d5a576040517f08c379a0000000000000000000000000000000000000000000000000000000008152600401610d519061430c565b60405180910390fd5b610d6482826121f2565b5050565b7f65d7a28e3265b37a6474929f336521b332c1681b933f6cb9f3376673440d862a610d92816120fd565b610d9a6122d4565b50565b7f9f2df0fed2c77648de5860a4cc508cd0818c85b8b8a1ab4ceeef8d981c8956a6610dc7816120fd565b6000610dd36008612376565b9050610ddf6008612384565b610de9838261239a565b505050565b610e0983838360405180602001604052806000815250611431565b505050565b6003610e18611871565b610e21816118c2565b610e2a826123b8565b610e3382612414565b600b600084815260200190815260200160002060000160006101000a81548160ff02191690836004811115610e6b57610e6a613f20565b5b0217905550610e78611be5565b600d600084815260200190815260200160002060006101000a81548173ffffffffffffffffffffffffffffffffffffffff021916908373ffffffffffffffffffffffffffffffffffffffff1602179055505050565b67058d15e17628000081565b6000610ee3611871565b610eec816118c2565b600c6000610ef8611be5565b73ffffffffffffffffffffffffffffffffffffffff1673ffffffffffffffffffffffffffffffffffffffff16815260200190815260200160002060009054906101000a900460ff16610f7f576040517f08c379a0000000000000000000000000000000000000000000000000000000008152600401610f769061439e565b60405180910390fd5b610f8882612449565b610f9282346124f8565b6000610f9e6008612376565b9050610faa6008612384565b610fb4338261239a565b604051806040016040528060006004811115610fd357610fd2613f20565b5b815260200184815250600b600083815260200190815260200160002060008201518160000160006101000a81548160ff0219169083600481111561101a57611019613f20565b5b0217905550602082015181600101559050506000600c600061103a611be5565b73ffffffffffffffffffffffffffffffffffffffff1673ffffffffffffffffffffffffffffffffffffffff16815260200190815260200160002060006101000a81548160ff021916908315150217905550505050565b6000600660009054906101000a900460ff16905090565b600960019054906101000a900460ff1681565b6000806002600084815260200190815260200160002060009054906101000a900473ffffffffffffffffffffffffffffffffffffffff169050600073ffffffffffffffffffffffffffffffffffffffff168173ffffffffffffffffffffffffffffffffffffffff1603611162576040517f08c379a000000000000000000000000000000000000000000000000000000000815260040161115990614430565b60405180910390fd5b80915050919050565b670853a0d2313c000081565b60008073ffffffffffffffffffffffffffffffffffffffff168273ffffffffffffffffffffffffffffffffffffffff16036111e7576040517f08c379a00000000000000000000000000000000000000000000000000000000081526004016111de906144c2565b60405180910390fd5b600360008373ffffffffffffffffffffffffffffffffffffffff1673ffffffffffffffffffffffffffffffffffffffff168152602001908152602001600020549050919050565b6000801b61123b816120fd565b60005b82518110156112cc576001600c60008584815181106112605761125f6144e2565b5b602002602001015173ffffffffffffffffffffffffffffffffffffffff1673ffffffffffffffffffffffffffffffffffffffff16815260200190815260200160002060006101000a81548160ff02191690831515021790555080806112c490614540565b91505061123e565b505050565b7f65d7a28e3265b37a6474929f336521b332c1681b933f6cb9f3376673440d862a6112fb816120fd565b6113036125b7565b50565b60006007600084815260200190815260200160002060000160008373ffffffffffffffffffffffffffffffffffffffff1673ffffffffffffffffffffffffffffffffffffffff16815260200190815260200160002060009054906101000a900460ff16905092915050565b60606001805461138090614021565b80601f01602080910402602001604051908101604052809291908181526020018280546113ac90614021565b80156113f95780601f106113ce576101008083540402835291602001916113f9565b820191906000526020600020905b8154815290600101906020018083116113dc57829003601f168201915b5050505050905090565b6000801b81565b61141c611415611be5565b838361265a565b5050565b6000801b61142d816120fd565b5050565b61144261143c611be5565b83611db9565b611481576040517f08c379a00000000000000000000000000000000000000000000000000000000081526004016114789061427a565b60405180910390fd5b61148d848484846127c6565b50505050565b6702c68af0bb14000081565b60026114a9611871565b6114b2816118c2565b6114c482670853a0d2313c0000611977565b5050565b600960009054906101000a900460ff1681565b6060600061150f6114eb84612822565b6040516020016114fb9190614766565b60405160208183030381529060405261290e565b90508060405160200161152291906147df565b604051602081830303815290604052915050919050565b6702c68af0bb14000081565b7f9f2df0fed2c77648de5860a4cc508cd0818c85b8b8a1ab4ceeef8d981c8956a681565b61157282610ca4565b61157b816120fd565b61158583836121f2565b505050565b7f65d7a28e3265b37a6474929f336521b332c1681b933f6cb9f3376673440d862a81565b60036115b8611871565b6115c1816118c2565b6000600d600084815260200190815260200160002060009054906101000a900473ffffffffffffffffffffffffffffffffffffffff1690508073ffffffffffffffffffffffffffffffffffffffff16611618611be5565b73ffffffffffffffffffffffffffffffffffffffff161460405160200161163e90614873565b6040516020818303038152906040529061168e576040517f08c379a0000000000000000000000000000000000000000000000000000000008152600401611685919061383d565b60405180910390fd5b5061169883612414565b600b600085815260200190815260200160002060000160006101000a81548160ff021916908360048111156116d0576116cf613f20565b5b02179055506116e66116e0611be5565b8461239a565b505050565b6000600560008473ffffffffffffffffffffffffffffffffffffffff1673ffffffffffffffffffffffffffffffffffffffff16815260200190815260200160002060008373ffffffffffffffffffffffffffffffffffffffff1673ffffffffffffffffffffffffffffffffffffffff16815260200190815260200160002060009054906101000a900460ff16905092915050565b67058d15e17628000081565b60007f7965db0b000000000000000000000000000000000000000000000000000000007bffffffffffffffffffffffffffffffffffffffffffffffffffffffff1916827bffffffffffffffffffffffffffffffffffffffffffffffffffffffff191614806117fe57506117fd82612a71565b5b9050919050565b60008073ffffffffffffffffffffffffffffffffffffffff166002600084815260200190815260200160002060009054906101000a900473ffffffffffffffffffffffffffffffffffffffff1673ffffffffffffffffffffffffffffffffffffffff1614159050919050565b600960019054906101000a900460ff166118c0576040517f08c379a00000000000000000000000000000000000000000000000000000000081526004016118b7906148fa565b60405180910390fd5b565b8060048111156118d5576118d4613f20565b5b600960009054906101000a900460ff1660048111156118f7576118f6613f20565b5b1461191382600481111561190e5761190d613f20565b5b612b53565b6040516020016119239190614966565b60405160208183030381529060405290611973576040517f08c379a000000000000000000000000000000000000000000000000000000000815260040161196a919061383d565b60405180910390fd5b5050565b611988611982611be5565b83611db9565b6119c7576040517f08c379a00000000000000000000000000000000000000000000000000000000081526004016119be90614a0d565b60405180910390fd5b6001600960009054906101000a900460ff1660048111156119eb576119ea613f20565b5b6119f59190614a2d565b600b600084815260200190815260200160002060000160009054906101000a900460ff166004811115611a2b57611a2a613f20565b5b14611a626001600960009054906101000a900460ff166004811115611a5357611a52613f20565b5b611a5d9190614a2d565b612b53565b604051602001611a729190614ad3565b60405160208183030381529060405290611ac2576040517f08c379a0000000000000000000000000000000000000000000000000000000008152600401611ab9919061383d565b60405180910390fd5b506000600b60008481526020019081526020016000206001015403611b4f57803414611aed82612b53565b604051602001611afd9190614b76565b60405160208183030381529060405290611b4d576040517f08c379a0000000000000000000000000000000000000000000000000000000008152600401611b44919061383d565b60405180910390fd5b505b6000600b6000848152602001908152602001600020600101541115611b9b57600b60008381526020019081526020016000206001016000815480929190611b9590614b98565b91905055505b611ba482612414565b600b600084815260200190815260200160002060000160006101000a81548160ff02191690836004811115611bdc57611bdb613f20565b5b02179055505050565b600033905090565b816004600083815260200190815260200160002060006101000a81548173ffffffffffffffffffffffffffffffffffffffff021916908373ffffffffffffffffffffffffffffffffffffffff160217905550808273ffffffffffffffffffffffffffffffffffffffff16611c60836110ba565b73ffffffffffffffffffffffffffffffffffffffff167f8c5be1e5ebec7d5bd14f71427d1e84f3dd0314c0f7b2291e5b200ac8c7c3b92560405160405180910390a45050565b6000801b611cb3816120fd565b6001600960016101000a81548160ff02191690831515021790555050565b6000801b611cde816120fd565b81600a6000600960009054906101000a900460ff166004811115611d0557611d04613f20565b5b6004811115611d1757611d16613f20565b5b81526020019081526020016000209080519060200190611d38929190613632565b505050565b6000801b611d4a816120fd565b6000600960016101000a81548160ff02191690831515021790555050565b6000801b611d75816120fd565b611d8d600960009054906101000a900460ff16612cb3565b600960006101000a81548160ff02191690836004811115611db157611db0613f20565b5b021790555050565b6000611dc482611805565b611e03576040517f08c379a0000000000000000000000000000000000000000000000000000000008152600401611dfa90614c33565b60405180910390fd5b6000611e0e836110ba565b90508073ffffffffffffffffffffffffffffffffffffffff168473ffffffffffffffffffffffffffffffffffffffff161480611e505750611e4f81856116eb565b5b80611e8e57508373ffffffffffffffffffffffffffffffffffffffff16611e76846109ff565b73ffffffffffffffffffffffffffffffffffffffff16145b91505092915050565b8273ffffffffffffffffffffffffffffffffffffffff16611eb7826110ba565b73ffffffffffffffffffffffffffffffffffffffff1614611f0d576040517f08c379a0000000000000000000000000000000000000000000000000000000008152600401611f0490614cc5565b60405180910390fd5b600073ffffffffffffffffffffffffffffffffffffffff168273ffffffffffffffffffffffffffffffffffffffff1603611f7c576040517f08c379a0000000000000000000000000000000000000000000000000000000008152600401611f7390614d57565b60405180910390fd5b611f87838383612d92565b611f92600082611bed565b6001600360008573ffffffffffffffffffffffffffffffffffffffff1673ffffffffffffffffffffffffffffffffffffffff1681526020019081526020016000206000828254611fe29190614a2d565b925050819055506001600360008473ffffffffffffffffffffffffffffffffffffffff1673ffffffffffffffffffffffffffffffffffffffff16815260200190815260200160002060008282546120399190614d77565b92505081905550816002600083815260200190815260200160002060006101000a81548173ffffffffffffffffffffffffffffffffffffffff021916908373ffffffffffffffffffffffffffffffffffffffff160217905550808273ffffffffffffffffffffffffffffffffffffffff168473ffffffffffffffffffffffffffffffffffffffff167fddf252ad1be2c89b69c2b068fc378daa952ba7f163c4a11628f55a4df523b3ef60405160405180910390a46120f8838383612dea565b505050565b61210e81612109611be5565b612def565b50565b61211b8282611306565b6121ee5760016007600084815260200190815260200160002060000160008373ffffffffffffffffffffffffffffffffffffffff1673ffffffffffffffffffffffffffffffffffffffff16815260200190815260200160002060006101000a81548160ff021916908315150217905550612193611be5565b73ffffffffffffffffffffffffffffffffffffffff168173ffffffffffffffffffffffffffffffffffffffff16837f2f8788117e7eff1d82e926ec794901d17c78024a50270940304540a733656f0d60405160405180910390a45b5050565b6121fc8282611306565b156122d05760006007600084815260200190815260200160002060000160008373ffffffffffffffffffffffffffffffffffffffff1673ffffffffffffffffffffffffffffffffffffffff16815260200190815260200160002060006101000a81548160ff021916908315150217905550612275611be5565b73ffffffffffffffffffffffffffffffffffffffff168173ffffffffffffffffffffffffffffffffffffffff16837ff6391f5c32d9c69d2a47ea670b442974b53935d1edc7fd64eb21e047a839171b60405160405180910390a45b5050565b6122dc611090565b61231b576040517f08c379a000000000000000000000000000000000000000000000000000000000815260040161231290614e19565b60405180910390fd5b6000600660006101000a81548160ff0219169083151502179055507f5db9ee0a495bf2e6ff9c91a7834c1ba4fdd244a5e8aa4e537bd38aeae4b073aa61235f611be5565b60405161236c9190613903565b60405180910390a1565b600081600001549050919050565b6001816000016000828254019250508190555050565b6123b4828260405180602001604052806000815250612e8c565b5050565b6123c96123c3611be5565b82611db9565b612408576040517f08c379a00000000000000000000000000000000000000000000000000000000081526004016123ff90614eab565b60405180910390fd5b61241181612ee7565b50565b6000612442600b600084815260200190815260200160002060000160009054906101000a900460ff16612cb3565b9050919050565b60016003600481111561245f5761245e613f20565b5b6124699190614a2d565b81111561249460016003600481111561248557612484613f20565b5b61248f9190614a2d565b612b53565b6040516020016124a49190614f3d565b604051602081830303815290604052906124f4576040517f08c379a00000000000000000000000000000000000000000000000000000000081526004016124eb919061383d565b60405180910390fd5b5050565b60006702c68af0bb14000090506000831115612525576702c68af0bb140000816125229190614d77565b90505b60018311156125455767058d15e176280000816125429190614d77565b90505b80821461255182612b53565b6040516020016125619190614b76565b604051602081830303815290604052906125b1576040517f08c379a00000000000000000000000000000000000000000000000000000000081526004016125a8919061383d565b60405180910390fd5b50505050565b6125bf611090565b156125ff576040517f08c379a00000000000000000000000000000000000000000000000000000000081526004016125f690614fab565b60405180910390fd5b6001600660006101000a81548160ff0219169083151502179055507f62e78cea01bee320cd4e420270b5ea74000d11b0c9f74754ebdbfc544b05a258612643611be5565b6040516126509190613903565b60405180910390a1565b8173ffffffffffffffffffffffffffffffffffffffff168373ffffffffffffffffffffffffffffffffffffffff16036126c8576040517f08c379a00000000000000000000000000000000000000000000000000000000081526004016126bf90615017565b60405180910390fd5b80600560008573ffffffffffffffffffffffffffffffffffffffff1673ffffffffffffffffffffffffffffffffffffffff16815260200190815260200160002060008473ffffffffffffffffffffffffffffffffffffffff1673ffffffffffffffffffffffffffffffffffffffff16815260200190815260200160002060006101000a81548160ff0219169083151502179055508173ffffffffffffffffffffffffffffffffffffffff168373ffffffffffffffffffffffffffffffffffffffff167f17307eab39ab6107e8899845ad3d59bd9653f200f220920489ca2b5937696c31836040516127b99190613789565b60405180910390a3505050565b6127d1848484611e97565b6127dd84848484613004565b61281c576040517f08c379a0000000000000000000000000000000000000000000000000000000008152600401612813906150a9565b60405180910390fd5b50505050565b6060600a6000600b600085815260200190815260200160002060000160009054906101000a900460ff16600481111561285e5761285d613f20565b5b60048111156128705761286f613f20565b5b8152602001908152602001600020805461288990614021565b80601f01602080910402602001604051908101604052809291908181526020018280546128b590614021565b80156129025780601f106128d757610100808354040283529160200191612902565b820191906000526020600020905b8154815290600101906020018083116128e557829003601f168201915b50505050509050919050565b6060600082510361293057604051806020016040528060008152509050612a6c565b6000604051806060016040528060408152602001615542604091399050600060036002855161295f9190614d77565b61296991906150f8565b60046129759190615129565b67ffffffffffffffff81111561298e5761298d613994565b5b6040519080825280601f01601f1916602001820160405280156129c05781602001600182028036833780820191505090505b509050600182016020820185865187015b80821015612a2c576003820191508151603f8160121c168501518453600184019350603f81600c1c168501518453600184019350603f8160061c168501518453600184019350603f81168501518453600184019350506129d1565b5050600386510660018114612a485760028114612a5b57612a63565b603d6001830353603d6002830353612a63565b603d60018303535b50505080925050505b919050565b60007f80ac58cd000000000000000000000000000000000000000000000000000000007bffffffffffffffffffffffffffffffffffffffffffffffffffffffff1916827bffffffffffffffffffffffffffffffffffffffffffffffffffffffff19161480612b3c57507f5b5e139f000000000000000000000000000000000000000000000000000000007bffffffffffffffffffffffffffffffffffffffffffffffffffffffff1916827bffffffffffffffffffffffffffffffffffffffffffffffffffffffff1916145b80612b4c5750612b4b8261318b565b5b9050919050565b606060008203612b9a576040518060400160405280600181526020017f30000000000000000000000000000000000000000000000000000000000000008152509050612cae565b600082905060005b60008214612bcc578080612bb590614540565b915050600a82612bc591906150f8565b9150612ba2565b60008167ffffffffffffffff811115612be857612be7613994565b5b6040519080825280601f01601f191660200182016040528015612c1a5781602001600182028036833780820191505090505b5090505b60008514612ca757600182612c339190614a2d565b9150600a85612c429190615183565b6030612c4e9190614d77565b60f81b818381518110612c6457612c636144e2565b5b60200101907effffffffffffffffffffffffffffffffffffffffffffffffffffffffffffff1916908160001a905350600a85612ca091906150f8565b9450612c1e565b8093505050505b919050565b600060036004811115612cc957612cc8613f20565b5b826004811115612cdc57612cdb613f20565b5b10612cf960036004811115612cf457612cf3613f20565b5b612b53565b604051602001612d099190615226565b60405160208183030381529060405290612d59576040517f08c379a0000000000000000000000000000000000000000000000000000000008152600401612d50919061383d565b60405180910390fd5b506001826004811115612d6f57612d6e613f20565b5b612d799190614d77565b6004811115612d8b57612d8a613f20565b5b9050919050565b612d9a611090565b15612dda576040517f08c379a0000000000000000000000000000000000000000000000000000000008152600401612dd190614fab565b60405180910390fd5b612de58383836131f5565b505050565b505050565b612df98282611306565b612e8857612e1e8173ffffffffffffffffffffffffffffffffffffffff1660146131fa565b612e2c8360001c60206131fa565b604051602001612e3d9291906152e0565b6040516020818303038152906040526040517f08c379a0000000000000000000000000000000000000000000000000000000008152600401612e7f919061383d565b60405180910390fd5b5050565b612e968383613436565b612ea36000848484613004565b612ee2576040517f08c379a0000000000000000000000000000000000000000000000000000000008152600401612ed9906150a9565b60405180910390fd5b505050565b6000612ef2826110ba565b9050612f0081600084612d92565b612f0b600083611bed565b6001600360008373ffffffffffffffffffffffffffffffffffffffff1673ffffffffffffffffffffffffffffffffffffffff1681526020019081526020016000206000828254612f5b9190614a2d565b925050819055506002600083815260200190815260200160002060006101000a81549073ffffffffffffffffffffffffffffffffffffffff021916905581600073ffffffffffffffffffffffffffffffffffffffff168273ffffffffffffffffffffffffffffffffffffffff167fddf252ad1be2c89b69c2b068fc378daa952ba7f163c4a11628f55a4df523b3ef60405160405180910390a461300081600084612dea565b5050565b60006130258473ffffffffffffffffffffffffffffffffffffffff1661360f565b1561317e578373ffffffffffffffffffffffffffffffffffffffff1663150b7a0261304e611be5565b8786866040518563ffffffff1660e01b8152600401613070949392919061536f565b6020604051808303816000875af19250505080156130ac57506040513d601f19601f820116820180604052508101906130a991906153d0565b60015b61312e573d80600081146130dc576040519150601f19603f3d011682016040523d82523d6000602084013e6130e1565b606091505b506000815103613126576040517f08c379a000000000000000000000000000000000000000000000000000000000815260040161311d906150a9565b60405180910390fd5b805181602001fd5b63150b7a0260e01b7bffffffffffffffffffffffffffffffffffffffffffffffffffffffff1916817bffffffffffffffffffffffffffffffffffffffffffffffffffffffff191614915050613183565b600190505b949350505050565b60007f01ffc9a7000000000000000000000000000000000000000000000000000000007bffffffffffffffffffffffffffffffffffffffffffffffffffffffff1916827bffffffffffffffffffffffffffffffffffffffffffffffffffffffff1916149050919050565b505050565b60606000600283600261320d9190615129565b6132179190614d77565b67ffffffffffffffff8111156132305761322f613994565b5b6040519080825280601f01601f1916602001820160405280156132625781602001600182028036833780820191505090505b5090507f30000000000000000000000000000000000000000000000000000000000000008160008151811061329a576132996144e2565b5b60200101907effffffffffffffffffffffffffffffffffffffffffffffffffffffffffffff1916908160001a9053507f7800000000000000000000000000000000000000000000000000000000000000816001815181106132fe576132fd6144e2565b5b60200101907effffffffffffffffffffffffffffffffffffffffffffffffffffffffffffff1916908160001a9053506000600184600261333e9190615129565b6133489190614d77565b90505b60018111156133e8577f3031323334353637383961626364656600000000000000000000000000000000600f86166010811061338a576133896144e2565b5b1a60f81b8282815181106133a1576133a06144e2565b5b60200101907effffffffffffffffffffffffffffffffffffffffffffffffffffffffffffff1916908160001a905350600485901c9450806133e190614b98565b905061334b565b506000841461342c576040517f08c379a000000000000000000000000000000000000000000000000000000000815260040161342390615449565b60405180910390fd5b8091505092915050565b600073ffffffffffffffffffffffffffffffffffffffff168273ffffffffffffffffffffffffffffffffffffffff16036134a5576040517f08c379a000000000000000000000000000000000000000000000000000000000815260040161349c906154b5565b60405180910390fd5b6134ae81611805565b156134ee576040517f08c379a00000000000000000000000000000000000000000000000000000000081526004016134e590615521565b60405180910390fd5b6134fa60008383612d92565b6001600360008473ffffffffffffffffffffffffffffffffffffffff1673ffffffffffffffffffffffffffffffffffffffff168152602001908152602001600020600082825461354a9190614d77565b92505081905550816002600083815260200190815260200160002060006101000a81548173ffffffffffffffffffffffffffffffffffffffff021916908373ffffffffffffffffffffffffffffffffffffffff160217905550808273ffffffffffffffffffffffffffffffffffffffff16600073ffffffffffffffffffffffffffffffffffffffff167fddf252ad1be2c89b69c2b068fc378daa952ba7f163c4a11628f55a4df523b3ef60405160405180910390a461360b60008383612dea565b5050565b6000808273ffffffffffffffffffffffffffffffffffffffff163b119050919050565b82805461363e90614021565b90600052602060002090601f01602090048101928261366057600085556136a7565b82601f1061367957805160ff19168380011785556136a7565b828001600101855582156136a7579182015b828111156136a657825182559160200191906001019061368b565b5b5090506136b491906136b8565b5090565b5b808211156136d15760008160009055506001016136b9565b5090565b6000604051905090565b600080fd5b600080fd5b60007fffffffff0000000000000000000000000000000000000000000000000000000082169050919050565b61371e816136e9565b811461372957600080fd5b50565b60008135905061373b81613715565b92915050565b600060208284031215613757576137566136df565b5b60006137658482850161372c565b91505092915050565b60008115159050919050565b6137838161376e565b82525050565b600060208201905061379e600083018461377a565b92915050565b600081519050919050565b600082825260208201905092915050565b60005b838110156137de5780820151818401526020810190506137c3565b838111156137ed576000848401525b50505050565b6000601f19601f8301169050919050565b600061380f826137a4565b61381981856137af565b93506138298185602086016137c0565b613832816137f3565b840191505092915050565b600060208201905081810360008301526138578184613804565b905092915050565b6000819050919050565b6138728161385f565b811461387d57600080fd5b50565b60008135905061388f81613869565b92915050565b6000602082840312156138ab576138aa6136df565b5b60006138b984828501613880565b91505092915050565b600073ffffffffffffffffffffffffffffffffffffffff82169050919050565b60006138ed826138c2565b9050919050565b6138fd816138e2565b82525050565b600060208201905061391860008301846138f4565b92915050565b613927816138e2565b811461393257600080fd5b50565b6000813590506139448161391e565b92915050565b60008060408385031215613961576139606136df565b5b600061396f85828601613935565b925050602061398085828601613880565b9150509250929050565b600080fd5b600080fd5b7f4e487b7100000000000000000000000000000000000000000000000000000000600052604160045260246000fd5b6139cc826137f3565b810181811067ffffffffffffffff821117156139eb576139ea613994565b5b80604052505050565b60006139fe6136d5565b9050613a0a82826139c3565b919050565b600067ffffffffffffffff821115613a2a57613a29613994565b5b613a33826137f3565b9050602081019050919050565b82818337600083830152505050565b6000613a62613a5d84613a0f565b6139f4565b905082815260208101848484011115613a7e57613a7d61398f565b5b613a89848285613a40565b509392505050565b600082601f830112613aa657613aa561398a565b5b8135613ab6848260208601613a4f565b91505092915050565b600060208284031215613ad557613ad46136df565b5b600082013567ffffffffffffffff811115613af357613af26136e4565b5b613aff84828501613a91565b91505092915050565b600080600060608486031215613b2157613b206136df565b5b6000613b2f86828701613935565b9350506020613b4086828701613935565b9250506040613b5186828701613880565b9150509250925092565b6000819050919050565b613b6e81613b5b565b8114613b7957600080fd5b50565b600081359050613b8b81613b65565b92915050565b600060208284031215613ba757613ba66136df565b5b6000613bb584828501613b7c565b91505092915050565b613bc781613b5b565b82525050565b6000602082019050613be26000830184613bbe565b92915050565b60008060408385031215613bff57613bfe6136df565b5b6000613c0d85828601613b7c565b9250506020613c1e85828601613935565b9150509250929050565b600060208284031215613c3e57613c3d6136df565b5b6000613c4c84828501613935565b91505092915050565b613c5e8161385f565b82525050565b6000602082019050613c796000830184613c55565b92915050565b600067ffffffffffffffff821115613c9a57613c99613994565b5b602082029050602081019050919050565b600080fd5b6000613cc3613cbe84613c7f565b6139f4565b90508083825260208201905060208402830185811115613ce657613ce5613cab565b5b835b81811015613d0f5780613cfb8882613935565b845260208401935050602081019050613ce8565b5050509392505050565b600082601f830112613d2e57613d2d61398a565b5b8135613d3e848260208601613cb0565b91505092915050565b600060208284031215613d5d57613d5c6136df565b5b600082013567ffffffffffffffff811115613d7b57613d7a6136e4565b5b613d8784828501613d19565b91505092915050565b613d998161376e565b8114613da457600080fd5b50565b600081359050613db681613d90565b92915050565b60008060408385031215613dd357613dd26136df565b5b6000613de185828601613935565b9250506020613df285828601613da7565b9150509250929050565b600067ffffffffffffffff821115613e1757613e16613994565b5b613e20826137f3565b9050602081019050919050565b6000613e40613e3b84613dfc565b6139f4565b905082815260208101848484011115613e5c57613e5b61398f565b5b613e67848285613a40565b509392505050565b600082601f830112613e8457613e8361398a565b5b8135613e94848260208601613e2d565b91505092915050565b60008060008060808587031215613eb757613eb66136df565b5b6000613ec587828801613935565b9450506020613ed687828801613935565b9350506040613ee787828801613880565b925050606085013567ffffffffffffffff811115613f0857613f076136e4565b5b613f1487828801613e6f565b91505092959194509250565b7f4e487b7100000000000000000000000000000000000000000000000000000000600052602160045260246000fd5b60058110613f6057613f5f613f20565b5b50565b6000819050613f7182613f4f565b919050565b6000613f8182613f63565b9050919050565b613f9181613f76565b82525050565b6000602082019050613fac6000830184613f88565b92915050565b60008060408385031215613fc957613fc86136df565b5b6000613fd785828601613935565b9250506020613fe885828601613935565b9150509250929050565b7f4e487b7100000000000000000000000000000000000000000000000000000000600052602260045260246000fd5b6000600282049050600182168061403957607f821691505b60208210810361404c5761404b613ff2565b5b50919050565b7f4552433732313a20617070726f76656420717565727920666f72206e6f6e657860008201527f697374656e7420746f6b656e0000000000000000000000000000000000000000602082015250565b60006140ae602c836137af565b91506140b982614052565b604082019050919050565b600060208201905081810360008301526140dd816140a1565b9050919050565b7f4552433732313a20617070726f76616c20746f2063757272656e74206f776e6560008201527f7200000000000000000000000000000000000000000000000000000000000000602082015250565b60006141406021836137af565b915061414b826140e4565b604082019050919050565b6000602082019050818103600083015261416f81614133565b9050919050565b7f4552433732313a20617070726f76652063616c6c6572206973206e6f74206f7760008201527f6e6572206e6f7220617070726f76656420666f7220616c6c0000000000000000602082015250565b60006141d26038836137af565b91506141dd82614176565b604082019050919050565b60006020820190508181036000830152614201816141c5565b9050919050565b7f4552433732313a207472616e736665722063616c6c6572206973206e6f74206f60008201527f776e6572206e6f7220617070726f766564000000000000000000000000000000602082015250565b60006142646031836137af565b915061426f82614208565b604082019050919050565b6000602082019050818103600083015261429381614257565b9050919050565b7f416363657373436f6e74726f6c3a2063616e206f6e6c792072656e6f756e636560008201527f20726f6c657320666f722073656c660000000000000000000000000000000000602082015250565b60006142f6602f836137af565b91506143018261429a565b604082019050919050565b60006020820190508181036000830152614325816142e9565b9050919050565b7f5032443a20546865206d696e6572206973206e6f7420616c6c6f77656420746f60008201527f206d696e7420746f6b656e730000000000000000000000000000000000000000602082015250565b6000614388602c836137af565b91506143938261432c565b604082019050919050565b600060208201905081810360008301526143b78161437b565b9050919050565b7f4552433732313a206f776e657220717565727920666f72206e6f6e657869737460008201527f656e7420746f6b656e0000000000000000000000000000000000000000000000602082015250565b600061441a6029836137af565b9150614425826143be565b604082019050919050565b600060208201905081810360008301526144498161440d565b9050919050565b7f4552433732313a2062616c616e636520717565727920666f7220746865207a6560008201527f726f206164647265737300000000000000000000000000000000000000000000602082015250565b60006144ac602a836137af565b91506144b782614450565b604082019050919050565b600060208201905081810360008301526144db8161449f565b9050919050565b7f4e487b7100000000000000000000000000000000000000000000000000000000600052603260045260246000fd5b7f4e487b7100000000000000000000000000000000000000000000000000000000600052601160045260246000fd5b600061454b8261385f565b91507fffffffffffffffffffffffffffffffffffffffffffffffffffffffffffffffff820361457d5761457c614511565b5b600182019050919050565b600081905092915050565b7f7b226e616d65223a20224469616d6f6e64204461776e222c202264657363726960008201527f7074696f6e223a20225468697320697320746865206465736372697074696f6e60208201527f206f66204469616d6f6e64204461776e2050726f6a656374222c2022696d616760408201527f65223a202268747470733a2f2f6d656469612e6e69667479676174657761792e60608201527f636f6d2f766964656f2f75706c6f61642f76313633393432313134312f416e6460808201527f7265612f446176696441726965772f446563437572617465642f4d797374696360a08201527f616c5f436162617265745f2d5f44617669645f41726965775f315f777a64687560c08201527f772e706e67222c2022616e696d6174696f6e5f75726c223a202200000000000060e082015250565b60006146d360fa83614588565b91506146de82614593565b60fa82019050919050565b60006146f4826137a4565b6146fe8185614588565b935061470e8185602086016137c0565b80840191505092915050565b7f22207d0000000000000000000000000000000000000000000000000000000000600082015250565b6000614750600383614588565b915061475b8261471a565b600382019050919050565b6000614771826146c6565b915061477d82846146e9565b915061478882614743565b915081905092915050565b7f646174613a6170706c69636174696f6e2f6a736f6e3b6261736536342c000000600082015250565b60006147c9601d83614588565b91506147d482614793565b601d82019050919050565b60006147ea826147bc565b91506147f682846146e9565b915081905092915050565b7f52656269727468206661696c6564202d206f6e6c79206275726e65722069732060008201527f616c6c6f77656420746f20706572666f726d2072656269727468000000000000602082015250565b600061485d603a83614588565b915061486882614801565b603a82019050919050565b600061487e82614850565b9150819050919050565b7f5032443a20412073746167652073686f756c642062652061637469766520746f60008201527f20706572666f726d207468697320616374696f6e000000000000000000000000602082015250565b60006148e46034836137af565b91506148ef82614888565b604082019050919050565b60006020820190508181036000830152614913816148d7565b9050919050565b7f5032443a205468652073746167652073686f756c642062652000000000000000815250565b7f20746f20706572666f726d207468697320616374696f6e000000000000000000815250565b60006149718261491a565b60198201915061498182846146e9565b915061498c82614940565b60178201915081905092915050565b7f4552433732313a2063616c6c6572206973206e6f7420746f6b656e206f776e6560008201527f72206e6f7220617070726f766564000000000000000000000000000000000000602082015250565b60006149f7602e836137af565b9150614a028261499b565b604082019050919050565b60006020820190508181036000830152614a26816149ea565b9050919050565b6000614a388261385f565b9150614a438361385f565b925082821015614a5657614a55614511565b5b828203905092915050565b7f5032443a20546865206c6576656c206f6620746865206469616d6f6e6420736860008201527f6f756c6420626520000000000000000000000000000000000000000000000000602082015250565b6000614abd602883614588565b9150614ac882614a61565b602882019050919050565b6000614ade82614ab0565b9150614aea82846146e9565b9150614af582614940565b60178201915081905092915050565b7f5032443a2057726f6e67207061796d656e74202d207061796d656e742073686f60008201527f756c642062653a20000000000000000000000000000000000000000000000000602082015250565b6000614b60602883614588565b9150614b6b82614b04565b602882019050919050565b6000614b8182614b53565b9150614b8d82846146e9565b915081905092915050565b6000614ba38261385f565b915060008203614bb657614bb5614511565b5b600182039050919050565b7f4552433732313a206f70657261746f7220717565727920666f72206e6f6e657860008201527f697374656e7420746f6b656e0000000000000000000000000000000000000000602082015250565b6000614c1d602c836137af565b9150614c2882614bc1565b604082019050919050565b60006020820190508181036000830152614c4c81614c10565b9050919050565b7f4552433732313a207472616e736665722066726f6d20696e636f72726563742060008201527f6f776e6572000000000000000000000000000000000000000000000000000000602082015250565b6000614caf6025836137af565b9150614cba82614c53565b604082019050919050565b60006020820190508181036000830152614cde81614ca2565b9050919050565b7f4552433732313a207472616e7366657220746f20746865207a65726f2061646460008201527f7265737300000000000000000000000000000000000000000000000000000000602082015250565b6000614d416024836137af565b9150614d4c82614ce5565b604082019050919050565b60006020820190508181036000830152614d7081614d34565b9050919050565b6000614d828261385f565b9150614d8d8361385f565b9250827fffffffffffffffffffffffffffffffffffffffffffffffffffffffffffffffff03821115614dc257614dc1614511565b5b828201905092915050565b7f5061757361626c653a206e6f7420706175736564000000000000000000000000600082015250565b6000614e036014836137af565b9150614e0e82614dcd565b602082019050919050565b60006020820190508181036000830152614e3281614df6565b9050919050565b7f4552433732314275726e61626c653a2063616c6c6572206973206e6f74206f7760008201527f6e6572206e6f7220617070726f76656400000000000000000000000000000000602082015250565b6000614e956030836137af565b9150614ea082614e39565b604082019050919050565b60006020820190508181036000830152614ec481614e88565b9050919050565b7f5032443a205075726368617365642070726f6365737365732073686f756c642060008201527f6265206c657373207468616e206f7220657175616c20746f2000000000000000602082015250565b6000614f27603983614588565b9150614f3282614ecb565b603982019050919050565b6000614f4882614f1a565b9150614f5482846146e9565b915081905092915050565b7f5061757361626c653a2070617573656400000000000000000000000000000000600082015250565b6000614f956010836137af565b9150614fa082614f5f565b602082019050919050565b60006020820190508181036000830152614fc481614f88565b9050919050565b7f4552433732313a20617070726f766520746f2063616c6c657200000000000000600082015250565b60006150016019836137af565b915061500c82614fcb565b602082019050919050565b6000602082019050818103600083015261503081614ff4565b9050919050565b7f4552433732313a207472616e7366657220746f206e6f6e20455243373231526560008201527f63656976657220696d706c656d656e7465720000000000000000000000000000602082015250565b60006150936032836137af565b915061509e82615037565b604082019050919050565b600060208201905081810360008301526150c281615086565b9050919050565b7f4e487b7100000000000000000000000000000000000000000000000000000000600052601260045260246000fd5b60006151038261385f565b915061510e8361385f565b92508261511e5761511d6150c9565b5b828204905092915050565b60006151348261385f565b915061513f8361385f565b9250817fffffffffffffffffffffffffffffffffffffffffffffffffffffffffffffffff048311821515161561517857615177614511565b5b828202905092915050565b600061518e8261385f565b91506151998361385f565b9250826151a9576151a86150c9565b5b828206905092915050565b7f5032443a205468652073746167652073686f756c64206265206c65737320746860008201527f616e200000000000000000000000000000000000000000000000000000000000602082015250565b6000615210602383614588565b915061521b826151b4565b602382019050919050565b600061523182615203565b915061523d82846146e9565b915081905092915050565b7f416363657373436f6e74726f6c3a206163636f756e7420000000000000000000600082015250565b600061527e601783614588565b915061528982615248565b601782019050919050565b7f206973206d697373696e6720726f6c6520000000000000000000000000000000600082015250565b60006152ca601183614588565b91506152d582615294565b601182019050919050565b60006152eb82615271565b91506152f782856146e9565b9150615302826152bd565b915061530e82846146e9565b91508190509392505050565b600081519050919050565b600082825260208201905092915050565b60006153418261531a565b61534b8185615325565b935061535b8185602086016137c0565b615364816137f3565b840191505092915050565b600060808201905061538460008301876138f4565b61539160208301866138f4565b61539e6040830185613c55565b81810360608301526153b08184615336565b905095945050505050565b6000815190506153ca81613715565b92915050565b6000602082840312156153e6576153e56136df565b5b60006153f4848285016153bb565b91505092915050565b7f537472696e67733a20686578206c656e67746820696e73756666696369656e74600082015250565b60006154336020836137af565b915061543e826153fd565b602082019050919050565b6000602082019050818103600083015261546281615426565b9050919050565b7f4552433732313a206d696e7420746f20746865207a65726f2061646472657373600082015250565b600061549f6020836137af565b91506154aa82615469565b602082019050919050565b600060208201905081810360008301526154ce81615492565b9050919050565b7f4552433732313a20746f6b656e20616c7265616479206d696e74656400000000600082015250565b600061550b601c836137af565b9150615516826154d5565b602082019050919050565b6000602082019050818103600083015261553a816154fe565b905091905056fe4142434445464748494a4b4c4d4e4f505152535455565758595a6162636465666768696a6b6c6d6e6f707172737475767778797a303132333435363738392b2fa264697066735822122047e61ddce659ea65e386bd877ea520ec762d2db2a5ad34ebfc03d6638c9850b964736f6c634300080e0033",
  "linkReferences": {},
  "deployedLinkReferences": {}
}