{
  "_format": "hh-sol-artifact-1",
  "contractName": "DiamondDawn",
  "sourceName": "contracts/DiamondDawn.sol",
  "abi": [
    {
      "inputs": [],
      "stateMutability": "nonpayable",
      "type": "constructor"
    },
    {
      "anonymous": false,
      "inputs": [
        {
          "indexed": true,
          "internalType": "address",
          "name": "owner",
          "type": "address"
        },
        {
          "indexed": true,
          "internalType": "address",
          "name": "approved",
          "type": "address"
        },
        {
          "indexed": true,
          "internalType": "uint256",
          "name": "tokenId",
          "type": "uint256"
        }
      ],
      "name": "Approval",
      "type": "event"
    },
    {
      "anonymous": false,
      "inputs": [
        {
          "indexed": true,
          "internalType": "address",
          "name": "owner",
          "type": "address"
        },
        {
          "indexed": true,
          "internalType": "address",
          "name": "operator",
          "type": "address"
        },
        {
          "indexed": false,
          "internalType": "bool",
          "name": "approved",
          "type": "bool"
        }
      ],
      "name": "ApprovalForAll",
      "type": "event"
    },
    {
      "anonymous": false,
      "inputs": [
        {
          "indexed": false,
          "internalType": "address",
          "name": "account",
          "type": "address"
        }
      ],
      "name": "Paused",
      "type": "event"
    },
    {
      "anonymous": false,
      "inputs": [
        {
          "indexed": true,
          "internalType": "bytes32",
          "name": "role",
          "type": "bytes32"
        },
        {
          "indexed": true,
          "internalType": "bytes32",
          "name": "previousAdminRole",
          "type": "bytes32"
        },
        {
          "indexed": true,
          "internalType": "bytes32",
          "name": "newAdminRole",
          "type": "bytes32"
        }
      ],
      "name": "RoleAdminChanged",
      "type": "event"
    },
    {
      "anonymous": false,
      "inputs": [
        {
          "indexed": true,
          "internalType": "bytes32",
          "name": "role",
          "type": "bytes32"
        },
        {
          "indexed": true,
          "internalType": "address",
          "name": "account",
          "type": "address"
        },
        {
          "indexed": true,
          "internalType": "address",
          "name": "sender",
          "type": "address"
        }
      ],
      "name": "RoleGranted",
      "type": "event"
    },
    {
      "anonymous": false,
      "inputs": [
        {
          "indexed": true,
          "internalType": "bytes32",
          "name": "role",
          "type": "bytes32"
        },
        {
          "indexed": true,
          "internalType": "address",
          "name": "account",
          "type": "address"
        },
        {
          "indexed": true,
          "internalType": "address",
          "name": "sender",
          "type": "address"
        }
      ],
      "name": "RoleRevoked",
      "type": "event"
    },
    {
      "anonymous": false,
      "inputs": [
        {
          "indexed": true,
          "internalType": "address",
          "name": "from",
          "type": "address"
        },
        {
          "indexed": true,
          "internalType": "address",
          "name": "to",
          "type": "address"
        },
        {
          "indexed": true,
          "internalType": "uint256",
          "name": "tokenId",
          "type": "uint256"
        }
      ],
      "name": "Transfer",
      "type": "event"
    },
    {
      "anonymous": false,
      "inputs": [
        {
          "indexed": false,
          "internalType": "address",
          "name": "account",
          "type": "address"
        }
      ],
      "name": "Unpaused",
      "type": "event"
    },
    {
      "inputs": [],
      "name": "DEFAULT_ADMIN_ROLE",
      "outputs": [
        {
          "internalType": "bytes32",
          "name": "",
          "type": "bytes32"
        }
      ],
      "stateMutability": "view",
      "type": "function"
    },
    {
      "inputs": [],
      "name": "MINING_PRICE",
      "outputs": [
        {
          "internalType": "uint256",
          "name": "",
          "type": "uint256"
        }
      ],
      "stateMutability": "view",
      "type": "function"
    },
    {
      "inputs": [],
      "name": "MINTER_ROLE",
      "outputs": [
        {
          "internalType": "bytes32",
          "name": "",
          "type": "bytes32"
        }
      ],
      "stateMutability": "view",
      "type": "function"
    },
    {
      "inputs": [],
      "name": "PAUSER_ROLE",
      "outputs": [
        {
          "internalType": "bytes32",
          "name": "",
          "type": "bytes32"
        }
      ],
      "stateMutability": "view",
      "type": "function"
    },
    {
      "inputs": [],
      "name": "PREPAID_PROCESSING_PRICE",
      "outputs": [
        {
          "internalType": "uint256",
          "name": "",
          "type": "uint256"
        }
      ],
      "stateMutability": "view",
      "type": "function"
    },
    {
      "inputs": [
        {
          "internalType": "address",
          "name": "to",
          "type": "address"
        },
        {
          "internalType": "uint256",
          "name": "tokenId",
          "type": "uint256"
        }
      ],
      "name": "approve",
      "outputs": [],
      "stateMutability": "nonpayable",
      "type": "function"
    },
    {
      "inputs": [
        {
          "internalType": "address",
          "name": "owner",
          "type": "address"
        }
      ],
      "name": "balanceOf",
      "outputs": [
        {
          "internalType": "uint256",
          "name": "",
          "type": "uint256"
        }
      ],
      "stateMutability": "view",
      "type": "function"
    },
    {
      "inputs": [
        {
          "internalType": "uint256",
          "name": "tokenId",
          "type": "uint256"
        }
      ],
      "name": "burn",
      "outputs": [],
      "stateMutability": "nonpayable",
      "type": "function"
    },
    {
      "inputs": [],
      "name": "completeCurrentStage",
      "outputs": [],
      "stateMutability": "nonpayable",
      "type": "function"
    },
    {
      "inputs": [
        {
          "internalType": "uint256",
          "name": "tokenId",
          "type": "uint256"
        }
      ],
      "name": "cut",
      "outputs": [],
      "stateMutability": "payable",
      "type": "function"
    },
    {
      "inputs": [],
      "name": "dev__ResetStage",
      "outputs": [],
      "stateMutability": "nonpayable",
      "type": "function"
    },
    {
      "inputs": [
        {
          "internalType": "uint256",
          "name": "tokenId",
          "type": "uint256"
        }
      ],
      "name": "getApproved",
      "outputs": [
        {
          "internalType": "address",
          "name": "",
          "type": "address"
        }
      ],
      "stateMutability": "view",
      "type": "function"
    },
    {
      "inputs": [
        {
          "internalType": "bytes32",
          "name": "role",
          "type": "bytes32"
        }
      ],
      "name": "getRoleAdmin",
      "outputs": [
        {
          "internalType": "bytes32",
          "name": "",
          "type": "bytes32"
        }
      ],
      "stateMutability": "view",
      "type": "function"
    },
    {
      "inputs": [
        {
          "internalType": "bytes32",
          "name": "role",
          "type": "bytes32"
        },
        {
          "internalType": "address",
          "name": "account",
          "type": "address"
        }
      ],
      "name": "grantRole",
      "outputs": [],
      "stateMutability": "nonpayable",
      "type": "function"
    },
    {
      "inputs": [
        {
          "internalType": "bytes32",
          "name": "role",
          "type": "bytes32"
        },
        {
          "internalType": "address",
          "name": "account",
          "type": "address"
        }
      ],
      "name": "hasRole",
      "outputs": [
        {
          "internalType": "bool",
          "name": "",
          "type": "bool"
        }
      ],
      "stateMutability": "view",
      "type": "function"
    },
    {
      "inputs": [
        {
          "internalType": "address",
          "name": "owner",
          "type": "address"
        },
        {
          "internalType": "address",
          "name": "operator",
          "type": "address"
        }
      ],
      "name": "isApprovedForAll",
      "outputs": [
        {
          "internalType": "bool",
          "name": "",
          "type": "bool"
        }
      ],
      "stateMutability": "view",
      "type": "function"
    },
    {
      "inputs": [],
      "name": "isStageActive",
      "outputs": [
        {
          "internalType": "bool",
          "name": "",
          "type": "bool"
        }
      ],
      "stateMutability": "view",
      "type": "function"
    },
    {
      "inputs": [
        {
          "internalType": "uint256",
          "name": "processesPurchased",
          "type": "uint256"
        }
      ],
      "name": "mine",
      "outputs": [],
      "stateMutability": "payable",
      "type": "function"
    },
    {
      "inputs": [],
      "name": "name",
      "outputs": [
        {
          "internalType": "string",
          "name": "",
          "type": "string"
        }
      ],
      "stateMutability": "view",
      "type": "function"
    },
    {
      "inputs": [
        {
          "internalType": "uint256",
          "name": "tokenId",
          "type": "uint256"
        }
      ],
      "name": "ownerOf",
      "outputs": [
        {
          "internalType": "address",
          "name": "",
          "type": "address"
        }
      ],
      "stateMutability": "view",
      "type": "function"
    },
    {
      "inputs": [],
      "name": "pause",
      "outputs": [],
      "stateMutability": "nonpayable",
      "type": "function"
    },
    {
      "inputs": [],
      "name": "paused",
      "outputs": [
        {
          "internalType": "bool",
          "name": "",
          "type": "bool"
        }
      ],
      "stateMutability": "view",
      "type": "function"
    },
    {
      "inputs": [
        {
          "internalType": "uint256",
          "name": "tokenId",
          "type": "uint256"
        }
      ],
      "name": "polish",
      "outputs": [],
      "stateMutability": "payable",
      "type": "function"
    },
    {
      "inputs": [],
      "name": "processingPrice",
      "outputs": [
        {
          "internalType": "uint256",
          "name": "",
          "type": "uint256"
        }
      ],
      "stateMutability": "view",
      "type": "function"
    },
    {
      "inputs": [
        {
          "internalType": "bytes32",
          "name": "role",
          "type": "bytes32"
        },
        {
          "internalType": "address",
          "name": "account",
          "type": "address"
        }
      ],
      "name": "renounceRole",
      "outputs": [],
      "stateMutability": "nonpayable",
      "type": "function"
    },
    {
      "inputs": [
        {
          "internalType": "string",
          "name": "videoUrl",
          "type": "string"
        }
      ],
      "name": "revealStage",
      "outputs": [],
      "stateMutability": "nonpayable",
      "type": "function"
    },
    {
      "inputs": [
        {
          "internalType": "bytes32",
          "name": "role",
          "type": "bytes32"
        },
        {
          "internalType": "address",
          "name": "account",
          "type": "address"
        }
      ],
      "name": "revokeRole",
      "outputs": [],
      "stateMutability": "nonpayable",
      "type": "function"
    },
    {
      "inputs": [
        {
          "internalType": "address",
          "name": "to",
          "type": "address"
        }
      ],
      "name": "safeMint",
      "outputs": [],
      "stateMutability": "nonpayable",
      "type": "function"
    },
    {
      "inputs": [
        {
          "internalType": "address",
          "name": "from",
          "type": "address"
        },
        {
          "internalType": "address",
          "name": "to",
          "type": "address"
        },
        {
          "internalType": "uint256",
          "name": "tokenId",
          "type": "uint256"
        }
      ],
      "name": "safeTransferFrom",
      "outputs": [],
      "stateMutability": "nonpayable",
      "type": "function"
    },
    {
      "inputs": [
        {
          "internalType": "address",
          "name": "from",
          "type": "address"
        },
        {
          "internalType": "address",
          "name": "to",
          "type": "address"
        },
        {
          "internalType": "uint256",
          "name": "tokenId",
          "type": "uint256"
        },
        {
          "internalType": "bytes",
          "name": "_data",
          "type": "bytes"
        }
      ],
      "name": "safeTransferFrom",
      "outputs": [],
      "stateMutability": "nonpayable",
      "type": "function"
    },
    {
      "inputs": [
        {
          "internalType": "address",
          "name": "operator",
          "type": "address"
        },
        {
          "internalType": "bool",
          "name": "approved",
          "type": "bool"
        }
      ],
      "name": "setApprovalForAll",
      "outputs": [],
      "stateMutability": "nonpayable",
      "type": "function"
    },
    {
      "inputs": [
        {
          "internalType": "uint256",
          "name": "price",
          "type": "uint256"
        }
      ],
      "name": "setProcessingPrice",
      "outputs": [],
      "stateMutability": "nonpayable",
      "type": "function"
    },
    {
      "inputs": [],
      "name": "stage",
      "outputs": [
        {
          "internalType": "enum DiamondDawn.Stage",
          "name": "",
          "type": "uint8"
        }
      ],
      "stateMutability": "view",
      "type": "function"
    },
    {
      "inputs": [
        {
          "internalType": "bytes4",
          "name": "interfaceId",
          "type": "bytes4"
        }
      ],
      "name": "supportsInterface",
      "outputs": [
        {
          "internalType": "bool",
          "name": "",
          "type": "bool"
        }
      ],
      "stateMutability": "view",
      "type": "function"
    },
    {
      "inputs": [],
      "name": "symbol",
      "outputs": [
        {
          "internalType": "string",
          "name": "",
          "type": "string"
        }
      ],
      "stateMutability": "view",
      "type": "function"
    },
    {
      "inputs": [
        {
          "internalType": "uint256",
          "name": "tokenId",
          "type": "uint256"
        }
      ],
      "name": "tokenURI",
      "outputs": [
        {
          "internalType": "string",
          "name": "",
          "type": "string"
        }
      ],
      "stateMutability": "view",
      "type": "function"
    },
    {
      "inputs": [
        {
          "internalType": "address",
          "name": "from",
          "type": "address"
        },
        {
          "internalType": "address",
          "name": "to",
          "type": "address"
        },
        {
          "internalType": "uint256",
          "name": "tokenId",
          "type": "uint256"
        }
      ],
      "name": "transferFrom",
      "outputs": [],
      "stateMutability": "nonpayable",
      "type": "function"
    },
    {
      "inputs": [],
      "name": "unpause",
      "outputs": [],
      "stateMutability": "nonpayable",
      "type": "function"
    }
  ],
  "bytecode": "0x60806040523480156200001157600080fd5b506040518060400160405280600b81526020017f4469616d6f6e644461776e0000000000000000000000000000000000000000008152506040518060400160405280600281526020017f4444000000000000000000000000000000000000000000000000000000000000815250816000908051906020019062000096929190620003e7565b508060019080519060200190620000af929190620003e7565b5050506000600660006101000a81548160ff021916908315150217905550620000e26000801b33620001b360201b60201c565b620001147f65d7a28e3265b37a6474929f336521b332c1681b933f6cb9f3376673440d862a33620001b360201b60201c565b620001467f9f2df0fed2c77648de5860a4cc508cd0818c85b8b8a1ab4ceeef8d981c8956a633620001b360201b60201c565b662386f26fc10000600a819055506000600960006101000a81548160ff021916908360038111156200017d576200017c62000497565b5b02179055506000600b60006101000a81548160ff021916908315150217905550620001ad620002a560201b60201c565b6200060f565b620001c582826200035d60201b60201c565b620002a15760016007600084815260200190815260200160002060000160008373ffffffffffffffffffffffffffffffffffffffff1673ffffffffffffffffffffffffffffffffffffffff16815260200190815260200160002060006101000a81548160ff02191690831515021790555062000246620003c860201b60201c565b73ffffffffffffffffffffffffffffffffffffffff168173ffffffffffffffffffffffffffffffffffffffff16837f2f8788117e7eff1d82e926ec794901d17c78024a50270940304540a733656f0d60405160405180910390a45b5050565b620002b5620003d060201b60201c565b15620002f8576040517f08c379a0000000000000000000000000000000000000000000000000000000008152600401620002ef9062000527565b60405180910390fd5b6001600660006101000a81548160ff0219169083151502179055507f62e78cea01bee320cd4e420270b5ea74000d11b0c9f74754ebdbfc544b05a25862000344620003c860201b60201c565b6040516200035391906200058e565b60405180910390a1565b60006007600084815260200190815260200160002060000160008373ffffffffffffffffffffffffffffffffffffffff1673ffffffffffffffffffffffffffffffffffffffff16815260200190815260200160002060009054906101000a900460ff16905092915050565b600033905090565b6000600660009054906101000a900460ff16905090565b828054620003f590620005da565b90600052602060002090601f01602090048101928262000419576000855562000465565b82601f106200043457805160ff191683800117855562000465565b8280016001018555821562000465579182015b828111156200046457825182559160200191906001019062000447565b5b50905062000474919062000478565b5090565b5b808211156200049357600081600090555060010162000479565b5090565b7f4e487b7100000000000000000000000000000000000000000000000000000000600052602160045260246000fd5b600082825260208201905092915050565b7f5061757361626c653a2070617573656400000000000000000000000000000000600082015250565b60006200050f601083620004c6565b91506200051c82620004d7565b602082019050919050565b60006020820190508181036000830152620005428162000500565b9050919050565b600073ffffffffffffffffffffffffffffffffffffffff82169050919050565b6000620005768262000549565b9050919050565b620005888162000569565b82525050565b6000602082019050620005a560008301846200057d565b92915050565b7f4e487b7100000000000000000000000000000000000000000000000000000000600052602260045260246000fd5b60006002820490506001821680620005f357607f821691505b602082108103620006095762000608620005ab565b5b50919050565b614e8c806200061f6000396000f3fe6080604052600436106102255760003560e01c80635ed6ac4f11610123578063abdfe275116100ab578063cc1169791161006f578063cc116979146107a0578063d5391393146107cb578063d547741f146107f6578063e63ab1e91461081f578063e985e9c51461084a57610225565b8063abdfe275146106ca578063b88d4fde146106f3578063bf72b63f1461071c578063c040e6b814610738578063c87b56dd1461076357610225565b80638c8c35d1116100f25780638c8c35d1146105e357806391d148541461060e57806395d89b411461064b578063a217fddf14610676578063a22cb465146106a157610225565b80635ed6ac4f146105275780636352211e1461055257806370a082311461058f5780638456cb59146105cc57610225565b8063248a9ca3116101b157806342842e0e1161017557806342842e0e1461046357806342966c681461048c5780634d474898146104b55780634e490b4a146104d15780635c975abb146104fc57610225565b8063248a9ca3146103945780632f2ff15d146103d157806336568abe146103fa5780633f4ba83a1461042357806340d097c31461043a57610225565b8063095ea7b3116101f8578063095ea7b3146102eb5780630a49008d14610314578063140865f31461033d57806315afd8f81461035457806323b872dd1461036b57610225565b806301ffc9a71461022a57806306fdde0314610267578063081812fc1461029257806309260db7146102cf575b600080fd5b34801561023657600080fd5b50610251600480360381019061024c9190613240565b610887565b60405161025e9190613288565b60405180910390f35b34801561027357600080fd5b5061027c610899565b604051610289919061333c565b60405180910390f35b34801561029e57600080fd5b506102b960048036038101906102b49190613394565b61092b565b6040516102c69190613402565b60405180910390f35b6102e960048036038101906102e49190613394565b6109b0565b005b3480156102f757600080fd5b50610312600480360381019061030d9190613449565b6109d0565b005b34801561032057600080fd5b5061033b600480360381019061033691906135be565b610ae7565b005b34801561034957600080fd5b50610352610afb565b005b34801561036057600080fd5b50610369610b55565b005b34801561037757600080fd5b50610392600480360381019061038d9190613607565b610b67565b005b3480156103a057600080fd5b506103bb60048036038101906103b69190613690565b610bc7565b6040516103c891906136cc565b60405180910390f35b3480156103dd57600080fd5b506103f860048036038101906103f391906136e7565b610be7565b005b34801561040657600080fd5b50610421600480360381019061041c91906136e7565b610c08565b005b34801561042f57600080fd5b50610438610c8b565b005b34801561044657600080fd5b50610461600480360381019061045c9190613727565b610cc0565b005b34801561046f57600080fd5b5061048a60048036038101906104859190613607565b610d11565b005b34801561049857600080fd5b506104b360048036038101906104ae9190613394565b610d31565b005b6104cf60048036038101906104ca9190613394565b610d8d565b005b3480156104dd57600080fd5b506104e6610f80565b6040516104f39190613763565b60405180910390f35b34801561050857600080fd5b50610511610f86565b60405161051e9190613288565b60405180910390f35b34801561053357600080fd5b5061053c610f9d565b6040516105499190613288565b60405180910390f35b34801561055e57600080fd5b5061057960048036038101906105749190613394565b610fb0565b6040516105869190613402565b60405180910390f35b34801561059b57600080fd5b506105b660048036038101906105b19190613727565b611061565b6040516105c39190613763565b60405180910390f35b3480156105d857600080fd5b506105e1611118565b005b3480156105ef57600080fd5b506105f861114d565b6040516106059190613763565b60405180910390f35b34801561061a57600080fd5b50610635600480360381019061063091906136e7565b611158565b6040516106429190613288565b60405180910390f35b34801561065757600080fd5b506106606111c3565b60405161066d919061333c565b60405180910390f35b34801561068257600080fd5b5061068b611255565b60405161069891906136cc565b60405180910390f35b3480156106ad57600080fd5b506106c860048036038101906106c391906137aa565b61125c565b005b3480156106d657600080fd5b506106f160048036038101906106ec9190613394565b611272565b005b3480156106ff57600080fd5b5061071a6004803603810190610715919061388b565b61128a565b005b61073660048036038101906107319190613394565b6112ec565b005b34801561074457600080fd5b5061074d61130c565b60405161075a9190613985565b60405180910390f35b34801561076f57600080fd5b5061078a60048036038101906107859190613394565b61131f565b604051610797919061333c565b60405180910390f35b3480156107ac57600080fd5b506107b561137d565b6040516107c29190613763565b60405180910390f35b3480156107d757600080fd5b506107e0611388565b6040516107ed91906136cc565b60405180910390f35b34801561080257600080fd5b5061081d600480360381019061081891906136e7565b6113ac565b005b34801561082b57600080fd5b506108346113cd565b60405161084191906136cc565b60405180910390f35b34801561085657600080fd5b50610871600480360381019061086c91906139a0565b6113f1565b60405161087e9190613288565b60405180910390f35b600061089282611485565b9050919050565b6060600080546108a890613a0f565b80601f01602080910402602001604051908101604052809291908181526020018280546108d490613a0f565b80156109215780601f106108f657610100808354040283529160200191610921565b820191906000526020600020905b81548152906001019060200180831161090457829003601f168201915b5050505050905090565b6000610936826114ff565b610975576040517f08c379a000000000000000000000000000000000000000000000000000000000815260040161096c90613ab2565b60405180910390fd5b6004600083815260200190815260200160002060009054906101000a900473ffffffffffffffffffffffffffffffffffffffff169050919050565b60016109ba61156b565b6109c3816115bc565b6109cc82611671565b5050565b60006109db82610fb0565b90508073ffffffffffffffffffffffffffffffffffffffff168373ffffffffffffffffffffffffffffffffffffffff1603610a4b576040517f08c379a0000000000000000000000000000000000000000000000000000000008152600401610a4290613b44565b60405180910390fd5b8073ffffffffffffffffffffffffffffffffffffffff16610a6a6118e5565b73ffffffffffffffffffffffffffffffffffffffff161480610a995750610a9881610a936118e5565b6113f1565b5b610ad8576040517f08c379a0000000000000000000000000000000000000000000000000000000008152600401610acf90613bd6565b60405180910390fd5b610ae283836118ed565b505050565b610aef6119a6565b610af8816119d1565b50565b60006003811115610b0f57610b0e61390e565b5b600960006101000a81548160ff02191690836003811115610b3357610b3261390e565b5b02179055506000600b60006101000a81548160ff021916908315150217905550565b610b5d611a3d565b610b65611a68565b565b610b78610b726118e5565b82611ab9565b610bb7576040517f08c379a0000000000000000000000000000000000000000000000000000000008152600401610bae90613c68565b60405180910390fd5b610bc2838383611b97565b505050565b600060076000838152602001908152602001600020600101549050919050565b610bf082610bc7565b610bf981611dfd565b610c038383611e11565b505050565b610c106118e5565b73ffffffffffffffffffffffffffffffffffffffff168173ffffffffffffffffffffffffffffffffffffffff1614610c7d576040517f08c379a0000000000000000000000000000000000000000000000000000000008152600401610c7490613cfa565b60405180910390fd5b610c878282611ef2565b5050565b7f65d7a28e3265b37a6474929f336521b332c1681b933f6cb9f3376673440d862a610cb581611dfd565b610cbd611fd4565b50565b7f9f2df0fed2c77648de5860a4cc508cd0818c85b8b8a1ab4ceeef8d981c8956a6610cea81611dfd565b6000610cf66008612076565b9050610d026008612084565b610d0c838261209a565b505050565b610d2c8383836040518060200160405280600081525061128a565b505050565b610d42610d3c6118e5565b82611ab9565b610d81576040517f08c379a0000000000000000000000000000000000000000000000000000000008152600401610d7890613d8c565b60405180910390fd5b610d8a816120b8565b50565b6000610d9761156b565b610da0816115bc565b6001600380811115610db557610db461390e565b5b610dbf9190613ddb565b821115610de96001600380811115610dda57610dd961390e565b5b610de49190613ddb565b6121d5565b604051602001610df99190613ebd565b60405160208183030381529060405290610e49576040517f08c379a0000000000000000000000000000000000000000000000000000000008152600401610e40919061333c565b60405180910390fd5b506000662386f26fc1000083610e5f9190613edf565b662386f26fc10000610e719190613f39565b9050803414610e7f826121d5565b604051602001610e8f9190614001565b60405160208183030381529060405290610edf576040517f08c379a0000000000000000000000000000000000000000000000000000000008152600401610ed6919061333c565b60405180910390fd5b506000610eec6008612076565b9050610ef86008612084565b610f02338261209a565b604051806040016040528060006003811115610f2157610f2061390e565b5b815260200185815250600d600083815260200190815260200160002060008201518160000160006101000a81548160ff02191690836003811115610f6857610f6761390e565b5b02179055506020820151816001015590505050505050565b600a5481565b6000600660009054906101000a900460ff16905090565b600b60009054906101000a900460ff1681565b6000806002600084815260200190815260200160002060009054906101000a900473ffffffffffffffffffffffffffffffffffffffff169050600073ffffffffffffffffffffffffffffffffffffffff168173ffffffffffffffffffffffffffffffffffffffff1603611058576040517f08c379a000000000000000000000000000000000000000000000000000000000815260040161104f90614095565b60405180910390fd5b80915050919050565b60008073ffffffffffffffffffffffffffffffffffffffff168273ffffffffffffffffffffffffffffffffffffffff16036110d1576040517f08c379a00000000000000000000000000000000000000000000000000000000081526004016110c890614127565b60405180910390fd5b600360008373ffffffffffffffffffffffffffffffffffffffff1673ffffffffffffffffffffffffffffffffffffffff168152602001908152602001600020549050919050565b7f65d7a28e3265b37a6474929f336521b332c1681b933f6cb9f3376673440d862a61114281611dfd565b61114a612335565b50565b662386f26fc1000081565b60006007600084815260200190815260200160002060000160008373ffffffffffffffffffffffffffffffffffffffff1673ffffffffffffffffffffffffffffffffffffffff16815260200190815260200160002060009054906101000a900460ff16905092915050565b6060600180546111d290613a0f565b80601f01602080910402602001604051908101604052809291908181526020018280546111fe90613a0f565b801561124b5780601f106112205761010080835404028352916020019161124b565b820191906000526020600020905b81548152906001019060200180831161122e57829003601f168201915b5050505050905090565b6000801b81565b61126e6112676118e5565b83836123d8565b5050565b6000801b61127f81611dfd565b81600a819055505050565b61129b6112956118e5565b83611ab9565b6112da576040517f08c379a00000000000000000000000000000000000000000000000000000000081526004016112d190613c68565b60405180910390fd5b6112e684848484612544565b50505050565b60026112f661156b565b6112ff816115bc565b61130882611671565b5050565b600960009054906101000a900460ff1681565b6060600061135361132f846125a0565b60405160200161133f91906142e9565b60405160208183030381529060405261268c565b9050806040516020016113669190614362565b604051602081830303815290604052915050919050565b662386f26fc1000081565b7f9f2df0fed2c77648de5860a4cc508cd0818c85b8b8a1ab4ceeef8d981c8956a681565b6113b582610bc7565b6113be81611dfd565b6113c88383611ef2565b505050565b7f65d7a28e3265b37a6474929f336521b332c1681b933f6cb9f3376673440d862a81565b6000600560008473ffffffffffffffffffffffffffffffffffffffff1673ffffffffffffffffffffffffffffffffffffffff16815260200190815260200160002060008373ffffffffffffffffffffffffffffffffffffffff1673ffffffffffffffffffffffffffffffffffffffff16815260200190815260200160002060009054906101000a900460ff16905092915050565b60007f7965db0b000000000000000000000000000000000000000000000000000000007bffffffffffffffffffffffffffffffffffffffffffffffffffffffff1916827bffffffffffffffffffffffffffffffffffffffffffffffffffffffff191614806114f857506114f7826127ef565b5b9050919050565b60008073ffffffffffffffffffffffffffffffffffffffff166002600084815260200190815260200160002060009054906101000a900473ffffffffffffffffffffffffffffffffffffffff1673ffffffffffffffffffffffffffffffffffffffff1614159050919050565b600b60009054906101000a900460ff166115ba576040517f08c379a00000000000000000000000000000000000000000000000000000000081526004016115b1906143f6565b60405180910390fd5b565b8060038111156115cf576115ce61390e565b5b600960009054906101000a900460ff1660038111156115f1576115f061390e565b5b1461160d8260038111156116085761160761390e565b5b6121d5565b60405160200161161d9190614462565b6040516020818303038152906040529061166d576040517f08c379a0000000000000000000000000000000000000000000000000000000008152600401611664919061333c565b60405180910390fd5b5050565b61168261167c6118e5565b82611ab9565b6116c1576040517f08c379a00000000000000000000000000000000000000000000000000000000081526004016116b890614509565b60405180910390fd5b6001600960009054906101000a900460ff1660038111156116e5576116e461390e565b5b6116ef9190613ddb565b600d600083815260200190815260200160002060000160009054906101000a900460ff1660038111156117255761172461390e565b5b1461175c6001600960009054906101000a900460ff16600381111561174d5761174c61390e565b5b6117579190613ddb565b6121d5565b60405160200161176c919061459b565b604051602081830303815290604052906117bc576040517f08c379a00000000000000000000000000000000000000000000000000000000081526004016117b3919061333c565b60405180910390fd5b506000600d6000838152602001908152602001600020600101540361184d57600a5434146117eb600a546121d5565b6040516020016117fb9190614001565b6040516020818303038152906040529061184b576040517f08c379a0000000000000000000000000000000000000000000000000000000008152600401611842919061333c565b60405180910390fd5b505b611879600d600083815260200190815260200160002060000160009054906101000a900460ff166128d1565b600d600083815260200190815260200160002060000160006101000a81548160ff021916908360038111156118b1576118b061390e565b5b0217905550600d600082815260200190815260200160002060010160008154809291906118dd906145cc565b919050555050565b600033905090565b816004600083815260200190815260200160002060006101000a81548173ffffffffffffffffffffffffffffffffffffffff021916908373ffffffffffffffffffffffffffffffffffffffff160217905550808273ffffffffffffffffffffffffffffffffffffffff1661196083610fb0565b73ffffffffffffffffffffffffffffffffffffffff167f8c5be1e5ebec7d5bd14f71427d1e84f3dd0314c0f7b2291e5b200ac8c7c3b92560405160405180910390a45050565b6000801b6119b381611dfd565b6001600b60006101000a81548160ff02191690831515021790555050565b6000801b6119de81611dfd565b81600c6000600960009054906101000a900460ff166003811115611a0557611a0461390e565b5b6003811115611a1757611a1661390e565b5b81526020019081526020016000209080519060200190611a38929190613131565b505050565b6000801b611a4a81611dfd565b6000600b60006101000a81548160ff02191690831515021790555050565b6000801b611a7581611dfd565b611a8d600960009054906101000a900460ff166128d1565b600960006101000a81548160ff02191690836003811115611ab157611ab061390e565b5b021790555050565b6000611ac4826114ff565b611b03576040517f08c379a0000000000000000000000000000000000000000000000000000000008152600401611afa90614667565b60405180910390fd5b6000611b0e83610fb0565b90508073ffffffffffffffffffffffffffffffffffffffff168473ffffffffffffffffffffffffffffffffffffffff161480611b505750611b4f81856113f1565b5b80611b8e57508373ffffffffffffffffffffffffffffffffffffffff16611b768461092b565b73ffffffffffffffffffffffffffffffffffffffff16145b91505092915050565b8273ffffffffffffffffffffffffffffffffffffffff16611bb782610fb0565b73ffffffffffffffffffffffffffffffffffffffff1614611c0d576040517f08c379a0000000000000000000000000000000000000000000000000000000008152600401611c04906146f9565b60405180910390fd5b600073ffffffffffffffffffffffffffffffffffffffff168273ffffffffffffffffffffffffffffffffffffffff1603611c7c576040517f08c379a0000000000000000000000000000000000000000000000000000000008152600401611c739061478b565b60405180910390fd5b611c878383836129ae565b611c926000826118ed565b6001600360008573ffffffffffffffffffffffffffffffffffffffff1673ffffffffffffffffffffffffffffffffffffffff1681526020019081526020016000206000828254611ce29190613ddb565b925050819055506001600360008473ffffffffffffffffffffffffffffffffffffffff1673ffffffffffffffffffffffffffffffffffffffff1681526020019081526020016000206000828254611d399190613f39565b92505081905550816002600083815260200190815260200160002060006101000a81548173ffffffffffffffffffffffffffffffffffffffff021916908373ffffffffffffffffffffffffffffffffffffffff160217905550808273ffffffffffffffffffffffffffffffffffffffff168473ffffffffffffffffffffffffffffffffffffffff167fddf252ad1be2c89b69c2b068fc378daa952ba7f163c4a11628f55a4df523b3ef60405160405180910390a4611df8838383612a06565b505050565b611e0e81611e096118e5565b612a0b565b50565b611e1b8282611158565b611eee5760016007600084815260200190815260200160002060000160008373ffffffffffffffffffffffffffffffffffffffff1673ffffffffffffffffffffffffffffffffffffffff16815260200190815260200160002060006101000a81548160ff021916908315150217905550611e936118e5565b73ffffffffffffffffffffffffffffffffffffffff168173ffffffffffffffffffffffffffffffffffffffff16837f2f8788117e7eff1d82e926ec794901d17c78024a50270940304540a733656f0d60405160405180910390a45b5050565b611efc8282611158565b15611fd05760006007600084815260200190815260200160002060000160008373ffffffffffffffffffffffffffffffffffffffff1673ffffffffffffffffffffffffffffffffffffffff16815260200190815260200160002060006101000a81548160ff021916908315150217905550611f756118e5565b73ffffffffffffffffffffffffffffffffffffffff168173ffffffffffffffffffffffffffffffffffffffff16837ff6391f5c32d9c69d2a47ea670b442974b53935d1edc7fd64eb21e047a839171b60405160405180910390a45b5050565b611fdc610f86565b61201b576040517f08c379a0000000000000000000000000000000000000000000000000000000008152600401612012906147f7565b60405180910390fd5b6000600660006101000a81548160ff0219169083151502179055507f5db9ee0a495bf2e6ff9c91a7834c1ba4fdd244a5e8aa4e537bd38aeae4b073aa61205f6118e5565b60405161206c9190613402565b60405180910390a1565b600081600001549050919050565b6001816000016000828254019250508190555050565b6120b4828260405180602001604052806000815250612aa8565b5050565b60006120c382610fb0565b90506120d1816000846129ae565b6120dc6000836118ed565b6001600360008373ffffffffffffffffffffffffffffffffffffffff1673ffffffffffffffffffffffffffffffffffffffff168152602001908152602001600020600082825461212c9190613ddb565b925050819055506002600083815260200190815260200160002060006101000a81549073ffffffffffffffffffffffffffffffffffffffff021916905581600073ffffffffffffffffffffffffffffffffffffffff168273ffffffffffffffffffffffffffffffffffffffff167fddf252ad1be2c89b69c2b068fc378daa952ba7f163c4a11628f55a4df523b3ef60405160405180910390a46121d181600084612a06565b5050565b60606000820361221c576040518060400160405280600181526020017f30000000000000000000000000000000000000000000000000000000000000008152509050612330565b600082905060005b6000821461224e57808061223790614817565b915050600a82612247919061488e565b9150612224565b60008167ffffffffffffffff81111561226a57612269613493565b5b6040519080825280601f01601f19166020018201604052801561229c5781602001600182028036833780820191505090505b5090505b60008514612329576001826122b59190613ddb565b9150600a856122c491906148bf565b60306122d09190613f39565b60f81b8183815181106122e6576122e56148f0565b5b60200101907effffffffffffffffffffffffffffffffffffffffffffffffffffffffffffff1916908160001a905350600a85612322919061488e565b94506122a0565b8093505050505b919050565b61233d610f86565b1561237d576040517f08c379a00000000000000000000000000000000000000000000000000000000081526004016123749061496b565b60405180910390fd5b6001600660006101000a81548160ff0219169083151502179055507f62e78cea01bee320cd4e420270b5ea74000d11b0c9f74754ebdbfc544b05a2586123c16118e5565b6040516123ce9190613402565b60405180910390a1565b8173ffffffffffffffffffffffffffffffffffffffff168373ffffffffffffffffffffffffffffffffffffffff1603612446576040517f08c379a000000000000000000000000000000000000000000000000000000000815260040161243d906149d7565b60405180910390fd5b80600560008573ffffffffffffffffffffffffffffffffffffffff1673ffffffffffffffffffffffffffffffffffffffff16815260200190815260200160002060008473ffffffffffffffffffffffffffffffffffffffff1673ffffffffffffffffffffffffffffffffffffffff16815260200190815260200160002060006101000a81548160ff0219169083151502179055508173ffffffffffffffffffffffffffffffffffffffff168373ffffffffffffffffffffffffffffffffffffffff167f17307eab39ab6107e8899845ad3d59bd9653f200f220920489ca2b5937696c31836040516125379190613288565b60405180910390a3505050565b61254f848484611b97565b61255b84848484612b03565b61259a576040517f08c379a000000000000000000000000000000000000000000000000000000000815260040161259190614a69565b60405180910390fd5b50505050565b6060600c6000600d600085815260200190815260200160002060000160009054906101000a900460ff1660038111156125dc576125db61390e565b5b60038111156125ee576125ed61390e565b5b8152602001908152602001600020805461260790613a0f565b80601f016020809104026020016040519081016040528092919081815260200182805461263390613a0f565b80156126805780601f1061265557610100808354040283529160200191612680565b820191906000526020600020905b81548152906001019060200180831161266357829003601f168201915b50505050509050919050565b606060008251036126ae576040518060200160405280600081525090506127ea565b6000604051806060016040528060408152602001614e1760409139905060006003600285516126dd9190613f39565b6126e7919061488e565b60046126f39190613edf565b67ffffffffffffffff81111561270c5761270b613493565b5b6040519080825280601f01601f19166020018201604052801561273e5781602001600182028036833780820191505090505b509050600182016020820185865187015b808210156127aa576003820191508151603f8160121c168501518453600184019350603f81600c1c168501518453600184019350603f8160061c168501518453600184019350603f811685015184536001840193505061274f565b50506003865106600181146127c657600281146127d9576127e1565b603d6001830353603d60028303536127e1565b603d60018303535b50505080925050505b919050565b60007f80ac58cd000000000000000000000000000000000000000000000000000000007bffffffffffffffffffffffffffffffffffffffffffffffffffffffff1916827bffffffffffffffffffffffffffffffffffffffffffffffffffffffff191614806128ba57507f5b5e139f000000000000000000000000000000000000000000000000000000007bffffffffffffffffffffffffffffffffffffffffffffffffffffffff1916827bffffffffffffffffffffffffffffffffffffffffffffffffffffffff1916145b806128ca57506128c982612c8a565b5b9050919050565b60006003808111156128e6576128e561390e565b5b8260038111156128f9576128f861390e565b5b106129156003808111156129105761290f61390e565b5b6121d5565b6040516020016129259190614afb565b60405160208183030381529060405290612975576040517f08c379a000000000000000000000000000000000000000000000000000000000815260040161296c919061333c565b60405180910390fd5b50600182600381111561298b5761298a61390e565b5b6129959190613f39565b60038111156129a7576129a661390e565b5b9050919050565b6129b6610f86565b156129f6576040517f08c379a00000000000000000000000000000000000000000000000000000000081526004016129ed9061496b565b60405180910390fd5b612a01838383612cf4565b505050565b505050565b612a158282611158565b612aa457612a3a8173ffffffffffffffffffffffffffffffffffffffff166014612cf9565b612a488360001c6020612cf9565b604051602001612a59929190614bb5565b6040516020818303038152906040526040517f08c379a0000000000000000000000000000000000000000000000000000000008152600401612a9b919061333c565b60405180910390fd5b5050565b612ab28383612f35565b612abf6000848484612b03565b612afe576040517f08c379a0000000000000000000000000000000000000000000000000000000008152600401612af590614a69565b60405180910390fd5b505050565b6000612b248473ffffffffffffffffffffffffffffffffffffffff1661310e565b15612c7d578373ffffffffffffffffffffffffffffffffffffffff1663150b7a02612b4d6118e5565b8786866040518563ffffffff1660e01b8152600401612b6f9493929190614c44565b6020604051808303816000875af1925050508015612bab57506040513d601f19601f82011682018060405250810190612ba89190614ca5565b60015b612c2d573d8060008114612bdb576040519150601f19603f3d011682016040523d82523d6000602084013e612be0565b606091505b506000815103612c25576040517f08c379a0000000000000000000000000000000000000000000000000000000008152600401612c1c90614a69565b60405180910390fd5b805181602001fd5b63150b7a0260e01b7bffffffffffffffffffffffffffffffffffffffffffffffffffffffff1916817bffffffffffffffffffffffffffffffffffffffffffffffffffffffff191614915050612c82565b600190505b949350505050565b60007f01ffc9a7000000000000000000000000000000000000000000000000000000007bffffffffffffffffffffffffffffffffffffffffffffffffffffffff1916827bffffffffffffffffffffffffffffffffffffffffffffffffffffffff1916149050919050565b505050565b606060006002836002612d0c9190613edf565b612d169190613f39565b67ffffffffffffffff811115612d2f57612d2e613493565b5b6040519080825280601f01601f191660200182016040528015612d615781602001600182028036833780820191505090505b5090507f300000000000000000000000000000000000000000000000000000000000000081600081518110612d9957612d986148f0565b5b60200101907effffffffffffffffffffffffffffffffffffffffffffffffffffffffffffff1916908160001a9053507f780000000000000000000000000000000000000000000000000000000000000081600181518110612dfd57612dfc6148f0565b5b60200101907effffffffffffffffffffffffffffffffffffffffffffffffffffffffffffff1916908160001a90535060006001846002612e3d9190613edf565b612e479190613f39565b90505b6001811115612ee7577f3031323334353637383961626364656600000000000000000000000000000000600f861660108110612e8957612e886148f0565b5b1a60f81b828281518110612ea057612e9f6148f0565b5b60200101907effffffffffffffffffffffffffffffffffffffffffffffffffffffffffffff1916908160001a905350600485901c945080612ee0906145cc565b9050612e4a565b5060008414612f2b576040517f08c379a0000000000000000000000000000000000000000000000000000000008152600401612f2290614d1e565b60405180910390fd5b8091505092915050565b600073ffffffffffffffffffffffffffffffffffffffff168273ffffffffffffffffffffffffffffffffffffffff1603612fa4576040517f08c379a0000000000000000000000000000000000000000000000000000000008152600401612f9b90614d8a565b60405180910390fd5b612fad816114ff565b15612fed576040517f08c379a0000000000000000000000000000000000000000000000000000000008152600401612fe490614df6565b60405180910390fd5b612ff9600083836129ae565b6001600360008473ffffffffffffffffffffffffffffffffffffffff1673ffffffffffffffffffffffffffffffffffffffff16815260200190815260200160002060008282546130499190613f39565b92505081905550816002600083815260200190815260200160002060006101000a81548173ffffffffffffffffffffffffffffffffffffffff021916908373ffffffffffffffffffffffffffffffffffffffff160217905550808273ffffffffffffffffffffffffffffffffffffffff16600073ffffffffffffffffffffffffffffffffffffffff167fddf252ad1be2c89b69c2b068fc378daa952ba7f163c4a11628f55a4df523b3ef60405160405180910390a461310a60008383612a06565b5050565b6000808273ffffffffffffffffffffffffffffffffffffffff163b119050919050565b82805461313d90613a0f565b90600052602060002090601f01602090048101928261315f57600085556131a6565b82601f1061317857805160ff19168380011785556131a6565b828001600101855582156131a6579182015b828111156131a557825182559160200191906001019061318a565b5b5090506131b391906131b7565b5090565b5b808211156131d05760008160009055506001016131b8565b5090565b6000604051905090565b600080fd5b600080fd5b60007fffffffff0000000000000000000000000000000000000000000000000000000082169050919050565b61321d816131e8565b811461322857600080fd5b50565b60008135905061323a81613214565b92915050565b600060208284031215613256576132556131de565b5b60006132648482850161322b565b91505092915050565b60008115159050919050565b6132828161326d565b82525050565b600060208201905061329d6000830184613279565b92915050565b600081519050919050565b600082825260208201905092915050565b60005b838110156132dd5780820151818401526020810190506132c2565b838111156132ec576000848401525b50505050565b6000601f19601f8301169050919050565b600061330e826132a3565b61331881856132ae565b93506133288185602086016132bf565b613331816132f2565b840191505092915050565b600060208201905081810360008301526133568184613303565b905092915050565b6000819050919050565b6133718161335e565b811461337c57600080fd5b50565b60008135905061338e81613368565b92915050565b6000602082840312156133aa576133a96131de565b5b60006133b88482850161337f565b91505092915050565b600073ffffffffffffffffffffffffffffffffffffffff82169050919050565b60006133ec826133c1565b9050919050565b6133fc816133e1565b82525050565b600060208201905061341760008301846133f3565b92915050565b613426816133e1565b811461343157600080fd5b50565b6000813590506134438161341d565b92915050565b600080604083850312156134605761345f6131de565b5b600061346e85828601613434565b925050602061347f8582860161337f565b9150509250929050565b600080fd5b600080fd5b7f4e487b7100000000000000000000000000000000000000000000000000000000600052604160045260246000fd5b6134cb826132f2565b810181811067ffffffffffffffff821117156134ea576134e9613493565b5b80604052505050565b60006134fd6131d4565b905061350982826134c2565b919050565b600067ffffffffffffffff82111561352957613528613493565b5b613532826132f2565b9050602081019050919050565b82818337600083830152505050565b600061356161355c8461350e565b6134f3565b90508281526020810184848401111561357d5761357c61348e565b5b61358884828561353f565b509392505050565b600082601f8301126135a5576135a4613489565b5b81356135b584826020860161354e565b91505092915050565b6000602082840312156135d4576135d36131de565b5b600082013567ffffffffffffffff8111156135f2576135f16131e3565b5b6135fe84828501613590565b91505092915050565b6000806000606084860312156136205761361f6131de565b5b600061362e86828701613434565b935050602061363f86828701613434565b92505060406136508682870161337f565b9150509250925092565b6000819050919050565b61366d8161365a565b811461367857600080fd5b50565b60008135905061368a81613664565b92915050565b6000602082840312156136a6576136a56131de565b5b60006136b48482850161367b565b91505092915050565b6136c68161365a565b82525050565b60006020820190506136e160008301846136bd565b92915050565b600080604083850312156136fe576136fd6131de565b5b600061370c8582860161367b565b925050602061371d85828601613434565b9150509250929050565b60006020828403121561373d5761373c6131de565b5b600061374b84828501613434565b91505092915050565b61375d8161335e565b82525050565b60006020820190506137786000830184613754565b92915050565b6137878161326d565b811461379257600080fd5b50565b6000813590506137a48161377e565b92915050565b600080604083850312156137c1576137c06131de565b5b60006137cf85828601613434565b92505060206137e085828601613795565b9150509250929050565b600067ffffffffffffffff82111561380557613804613493565b5b61380e826132f2565b9050602081019050919050565b600061382e613829846137ea565b6134f3565b90508281526020810184848401111561384a5761384961348e565b5b61385584828561353f565b509392505050565b600082601f83011261387257613871613489565b5b813561388284826020860161381b565b91505092915050565b600080600080608085870312156138a5576138a46131de565b5b60006138b387828801613434565b94505060206138c487828801613434565b93505060406138d58782880161337f565b925050606085013567ffffffffffffffff8111156138f6576138f56131e3565b5b6139028782880161385d565b91505092959194509250565b7f4e487b7100000000000000000000000000000000000000000000000000000000600052602160045260246000fd5b6004811061394e5761394d61390e565b5b50565b600081905061395f8261393d565b919050565b600061396f82613951565b9050919050565b61397f81613964565b82525050565b600060208201905061399a6000830184613976565b92915050565b600080604083850312156139b7576139b66131de565b5b60006139c585828601613434565b92505060206139d685828601613434565b9150509250929050565b7f4e487b7100000000000000000000000000000000000000000000000000000000600052602260045260246000fd5b60006002820490506001821680613a2757607f821691505b602082108103613a3a57613a396139e0565b5b50919050565b7f4552433732313a20617070726f76656420717565727920666f72206e6f6e657860008201527f697374656e7420746f6b656e0000000000000000000000000000000000000000602082015250565b6000613a9c602c836132ae565b9150613aa782613a40565b604082019050919050565b60006020820190508181036000830152613acb81613a8f565b9050919050565b7f4552433732313a20617070726f76616c20746f2063757272656e74206f776e6560008201527f7200000000000000000000000000000000000000000000000000000000000000602082015250565b6000613b2e6021836132ae565b9150613b3982613ad2565b604082019050919050565b60006020820190508181036000830152613b5d81613b21565b9050919050565b7f4552433732313a20617070726f76652063616c6c6572206973206e6f74206f7760008201527f6e6572206e6f7220617070726f76656420666f7220616c6c0000000000000000602082015250565b6000613bc06038836132ae565b9150613bcb82613b64565b604082019050919050565b60006020820190508181036000830152613bef81613bb3565b9050919050565b7f4552433732313a207472616e736665722063616c6c6572206973206e6f74206f60008201527f776e6572206e6f7220617070726f766564000000000000000000000000000000602082015250565b6000613c526031836132ae565b9150613c5d82613bf6565b604082019050919050565b60006020820190508181036000830152613c8181613c45565b9050919050565b7f416363657373436f6e74726f6c3a2063616e206f6e6c792072656e6f756e636560008201527f20726f6c657320666f722073656c660000000000000000000000000000000000602082015250565b6000613ce4602f836132ae565b9150613cef82613c88565b604082019050919050565b60006020820190508181036000830152613d1381613cd7565b9050919050565b7f4552433732314275726e61626c653a2063616c6c6572206973206e6f74206f7760008201527f6e6572206e6f7220617070726f76656400000000000000000000000000000000602082015250565b6000613d766030836132ae565b9150613d8182613d1a565b604082019050919050565b60006020820190508181036000830152613da581613d69565b9050919050565b7f4e487b7100000000000000000000000000000000000000000000000000000000600052601160045260246000fd5b6000613de68261335e565b9150613df18361335e565b925082821015613e0457613e03613dac565b5b828203905092915050565b600081905092915050565b7f5032443a205075726368617365642070726f6365737365732073686f756c642060008201527f6265206c657373207468616e206f7220657175616c20746f2000000000000000602082015250565b6000613e76603983613e0f565b9150613e8182613e1a565b603982019050919050565b6000613e97826132a3565b613ea18185613e0f565b9350613eb18185602086016132bf565b80840191505092915050565b6000613ec882613e69565b9150613ed48284613e8c565b915081905092915050565b6000613eea8261335e565b9150613ef58361335e565b9250817fffffffffffffffffffffffffffffffffffffffffffffffffffffffffffffffff0483118215151615613f2e57613f2d613dac565b5b828202905092915050565b6000613f448261335e565b9150613f4f8361335e565b9250827fffffffffffffffffffffffffffffffffffffffffffffffffffffffffffffffff03821115613f8457613f83613dac565b5b828201905092915050565b7f5032443a2057726f6e67207061796d656e74202d207061796d656e742073686f60008201527f756c642062653a20000000000000000000000000000000000000000000000000602082015250565b6000613feb602883613e0f565b9150613ff682613f8f565b602882019050919050565b600061400c82613fde565b91506140188284613e8c565b915081905092915050565b7f4552433732313a206f776e657220717565727920666f72206e6f6e657869737460008201527f656e7420746f6b656e0000000000000000000000000000000000000000000000602082015250565b600061407f6029836132ae565b915061408a82614023565b604082019050919050565b600060208201905081810360008301526140ae81614072565b9050919050565b7f4552433732313a2062616c616e636520717565727920666f7220746865207a6560008201527f726f206164647265737300000000000000000000000000000000000000000000602082015250565b6000614111602a836132ae565b915061411c826140b5565b604082019050919050565b6000602082019050818103600083015261414081614104565b9050919050565b7f7b226e616d65223a20224469616d6f6e64204461776e222c202264657363726960008201527f7074696f6e223a20225468697320697320746865206465736372697074696f6e60208201527f206f66204469616d6f6e64204461776e2050726f6a656374222c2022696d616760408201527f65223a202268747470733a2f2f6d656469612e6e69667479676174657761792e60608201527f636f6d2f766964656f2f75706c6f61642f76313633393432313134312f416e6460808201527f7265612f446176696441726965772f446563437572617465642f4d797374696360a08201527f616c5f436162617265745f2d5f44617669645f41726965775f315f777a64687560c08201527f772e706e67222c2022616e696d6174696f6e5f75726c223a202200000000000060e082015250565b600061428760fa83613e0f565b915061429282614147565b60fa82019050919050565b7f22207d0000000000000000000000000000000000000000000000000000000000600082015250565b60006142d3600383613e0f565b91506142de8261429d565b600382019050919050565b60006142f48261427a565b91506143008284613e8c565b915061430b826142c6565b915081905092915050565b7f646174613a6170706c69636174696f6e2f6a736f6e3b6261736536342c000000600082015250565b600061434c601d83613e0f565b915061435782614316565b601d82019050919050565b600061436d8261433f565b91506143798284613e8c565b915081905092915050565b7f5032443a20412073746167652073686f756c642062652061637469766520746f60008201527f20706572666f726d207468697320616374696f6e000000000000000000000000602082015250565b60006143e06034836132ae565b91506143eb82614384565b604082019050919050565b6000602082019050818103600083015261440f816143d3565b9050919050565b7f5032443a205468652073746167652073686f756c642062652000000000000000815250565b7f20746f20706572666f726d207468697320616374696f6e000000000000000000815250565b600061446d82614416565b60198201915061447d8284613e8c565b91506144888261443c565b60178201915081905092915050565b7f4552433732313a2063616c6c6572206973206e6f7420746f6b656e206f776e6560008201527f72206e6f7220617070726f766564000000000000000000000000000000000000602082015250565b60006144f3602e836132ae565b91506144fe82614497565b604082019050919050565b60006020820190508181036000830152614522816144e6565b9050919050565b7f5032443a20546865206c6576656c206f6620746865206469616d6f6e6420736860008201527f6f756c6420626520000000000000000000000000000000000000000000000000602082015250565b6000614585602883613e0f565b915061459082614529565b602882019050919050565b60006145a682614578565b91506145b28284613e8c565b91506145bd8261443c565b60178201915081905092915050565b60006145d78261335e565b9150600082036145ea576145e9613dac565b5b600182039050919050565b7f4552433732313a206f70657261746f7220717565727920666f72206e6f6e657860008201527f697374656e7420746f6b656e0000000000000000000000000000000000000000602082015250565b6000614651602c836132ae565b915061465c826145f5565b604082019050919050565b6000602082019050818103600083015261468081614644565b9050919050565b7f4552433732313a207472616e736665722066726f6d20696e636f72726563742060008201527f6f776e6572000000000000000000000000000000000000000000000000000000602082015250565b60006146e36025836132ae565b91506146ee82614687565b604082019050919050565b60006020820190508181036000830152614712816146d6565b9050919050565b7f4552433732313a207472616e7366657220746f20746865207a65726f2061646460008201527f7265737300000000000000000000000000000000000000000000000000000000602082015250565b60006147756024836132ae565b915061478082614719565b604082019050919050565b600060208201905081810360008301526147a481614768565b9050919050565b7f5061757361626c653a206e6f7420706175736564000000000000000000000000600082015250565b60006147e16014836132ae565b91506147ec826147ab565b602082019050919050565b60006020820190508181036000830152614810816147d4565b9050919050565b60006148228261335e565b91507fffffffffffffffffffffffffffffffffffffffffffffffffffffffffffffffff820361485457614853613dac565b5b600182019050919050565b7f4e487b7100000000000000000000000000000000000000000000000000000000600052601260045260246000fd5b60006148998261335e565b91506148a48361335e565b9250826148b4576148b361485f565b5b828204905092915050565b60006148ca8261335e565b91506148d58361335e565b9250826148e5576148e461485f565b5b828206905092915050565b7f4e487b7100000000000000000000000000000000000000000000000000000000600052603260045260246000fd5b7f5061757361626c653a2070617573656400000000000000000000000000000000600082015250565b60006149556010836132ae565b91506149608261491f565b602082019050919050565b6000602082019050818103600083015261498481614948565b9050919050565b7f4552433732313a20617070726f766520746f2063616c6c657200000000000000600082015250565b60006149c16019836132ae565b91506149cc8261498b565b602082019050919050565b600060208201905081810360008301526149f0816149b4565b9050919050565b7f4552433732313a207472616e7366657220746f206e6f6e20455243373231526560008201527f63656976657220696d706c656d656e7465720000000000000000000000000000602082015250565b6000614a536032836132ae565b9150614a5e826149f7565b604082019050919050565b60006020820190508181036000830152614a8281614a46565b9050919050565b7f5032443a205468652073746167652073686f756c64206265206c65737320746860008201527f616e200000000000000000000000000000000000000000000000000000000000602082015250565b6000614ae5602383613e0f565b9150614af082614a89565b602382019050919050565b6000614b0682614ad8565b9150614b128284613e8c565b915081905092915050565b7f416363657373436f6e74726f6c3a206163636f756e7420000000000000000000600082015250565b6000614b53601783613e0f565b9150614b5e82614b1d565b601782019050919050565b7f206973206d697373696e6720726f6c6520000000000000000000000000000000600082015250565b6000614b9f601183613e0f565b9150614baa82614b69565b601182019050919050565b6000614bc082614b46565b9150614bcc8285613e8c565b9150614bd782614b92565b9150614be38284613e8c565b91508190509392505050565b600081519050919050565b600082825260208201905092915050565b6000614c1682614bef565b614c208185614bfa565b9350614c308185602086016132bf565b614c39816132f2565b840191505092915050565b6000608082019050614c5960008301876133f3565b614c6660208301866133f3565b614c736040830185613754565b8181036060830152614c858184614c0b565b905095945050505050565b600081519050614c9f81613214565b92915050565b600060208284031215614cbb57614cba6131de565b5b6000614cc984828501614c90565b91505092915050565b7f537472696e67733a20686578206c656e67746820696e73756666696369656e74600082015250565b6000614d086020836132ae565b9150614d1382614cd2565b602082019050919050565b60006020820190508181036000830152614d3781614cfb565b9050919050565b7f4552433732313a206d696e7420746f20746865207a65726f2061646472657373600082015250565b6000614d746020836132ae565b9150614d7f82614d3e565b602082019050919050565b60006020820190508181036000830152614da381614d67565b9050919050565b7f4552433732313a20746f6b656e20616c7265616479206d696e74656400000000600082015250565b6000614de0601c836132ae565b9150614deb82614daa565b602082019050919050565b60006020820190508181036000830152614e0f81614dd3565b905091905056fe4142434445464748494a4b4c4d4e4f505152535455565758595a6162636465666768696a6b6c6d6e6f707172737475767778797a303132333435363738392b2fa2646970667358221220eb0145e044f06336d42e9ff63bfd504b9816c9549ac6f830ebf929803d71cbc864736f6c634300080e0033",
  "linkReferences": {},
  "deployedLinkReferences": {}
}