{
  "_format": "hh-sol-artifact-1",
  "contractName": "DiamondDawn",
  "sourceName": "contracts/DiamondDawn.sol",
  "abi": [
    {
      "inputs": [
        {
          "internalType": "uint96",
          "name": "_royaltyFeesInBips",
          "type": "uint96"
        }
      ],
      "stateMutability": "nonpayable",
      "type": "constructor"
    },
    {
      "anonymous": false,
      "inputs": [
        {
          "indexed": true,
          "internalType": "address",
          "name": "owner",
          "type": "address"
        },
        {
          "indexed": true,
          "internalType": "address",
          "name": "approved",
          "type": "address"
        },
        {
          "indexed": true,
          "internalType": "uint256",
          "name": "tokenId",
          "type": "uint256"
        }
      ],
      "name": "Approval",
      "type": "event"
    },
    {
      "anonymous": false,
      "inputs": [
        {
          "indexed": true,
          "internalType": "address",
          "name": "owner",
          "type": "address"
        },
        {
          "indexed": true,
          "internalType": "address",
          "name": "operator",
          "type": "address"
        },
        {
          "indexed": false,
          "internalType": "bool",
          "name": "approved",
          "type": "bool"
        }
      ],
      "name": "ApprovalForAll",
      "type": "event"
    },
    {
      "anonymous": false,
      "inputs": [
        {
          "indexed": false,
          "internalType": "address",
          "name": "account",
          "type": "address"
        }
      ],
      "name": "Paused",
      "type": "event"
    },
    {
      "anonymous": false,
      "inputs": [
        {
          "indexed": true,
          "internalType": "bytes32",
          "name": "role",
          "type": "bytes32"
        },
        {
          "indexed": true,
          "internalType": "bytes32",
          "name": "previousAdminRole",
          "type": "bytes32"
        },
        {
          "indexed": true,
          "internalType": "bytes32",
          "name": "newAdminRole",
          "type": "bytes32"
        }
      ],
      "name": "RoleAdminChanged",
      "type": "event"
    },
    {
      "anonymous": false,
      "inputs": [
        {
          "indexed": true,
          "internalType": "bytes32",
          "name": "role",
          "type": "bytes32"
        },
        {
          "indexed": true,
          "internalType": "address",
          "name": "account",
          "type": "address"
        },
        {
          "indexed": true,
          "internalType": "address",
          "name": "sender",
          "type": "address"
        }
      ],
      "name": "RoleGranted",
      "type": "event"
    },
    {
      "anonymous": false,
      "inputs": [
        {
          "indexed": true,
          "internalType": "bytes32",
          "name": "role",
          "type": "bytes32"
        },
        {
          "indexed": true,
          "internalType": "address",
          "name": "account",
          "type": "address"
        },
        {
          "indexed": true,
          "internalType": "address",
          "name": "sender",
          "type": "address"
        }
      ],
      "name": "RoleRevoked",
      "type": "event"
    },
    {
      "anonymous": false,
      "inputs": [
        {
          "indexed": true,
          "internalType": "address",
          "name": "from",
          "type": "address"
        },
        {
          "indexed": true,
          "internalType": "address",
          "name": "to",
          "type": "address"
        },
        {
          "indexed": true,
          "internalType": "uint256",
          "name": "tokenId",
          "type": "uint256"
        }
      ],
      "name": "Transfer",
      "type": "event"
    },
    {
      "anonymous": false,
      "inputs": [
        {
          "indexed": false,
          "internalType": "address",
          "name": "account",
          "type": "address"
        }
      ],
      "name": "Unpaused",
      "type": "event"
    },
    {
      "inputs": [],
      "name": "CUT_PRICE",
      "outputs": [
        {
          "internalType": "uint256",
          "name": "",
          "type": "uint256"
        }
      ],
      "stateMutability": "view",
      "type": "function"
    },
    {
      "inputs": [],
      "name": "DEFAULT_ADMIN_ROLE",
      "outputs": [
        {
          "internalType": "bytes32",
          "name": "",
          "type": "bytes32"
        }
      ],
      "stateMutability": "view",
      "type": "function"
    },
    {
      "inputs": [],
      "name": "MINING_PRICE",
      "outputs": [
        {
          "internalType": "uint256",
          "name": "",
          "type": "uint256"
        }
      ],
      "stateMutability": "view",
      "type": "function"
    },
    {
      "inputs": [],
      "name": "MINTER_ROLE",
      "outputs": [
        {
          "internalType": "bytes32",
          "name": "",
          "type": "bytes32"
        }
      ],
      "stateMutability": "view",
      "type": "function"
    },
    {
      "inputs": [],
      "name": "PAUSER_ROLE",
      "outputs": [
        {
          "internalType": "bytes32",
          "name": "",
          "type": "bytes32"
        }
      ],
      "stateMutability": "view",
      "type": "function"
    },
    {
      "inputs": [],
      "name": "POLISH_PRICE",
      "outputs": [
        {
          "internalType": "uint256",
          "name": "",
          "type": "uint256"
        }
      ],
      "stateMutability": "view",
      "type": "function"
    },
    {
      "inputs": [],
      "name": "PREPAID_CUT_PRICE",
      "outputs": [
        {
          "internalType": "uint256",
          "name": "",
          "type": "uint256"
        }
      ],
      "stateMutability": "view",
      "type": "function"
    },
    {
      "inputs": [],
      "name": "PREPAID_POLISH_PRICE",
      "outputs": [
        {
          "internalType": "uint256",
          "name": "",
          "type": "uint256"
        }
      ],
      "stateMutability": "view",
      "type": "function"
    },
    {
      "inputs": [
        {
          "internalType": "address[]",
          "name": "addresses",
          "type": "address[]"
        }
      ],
      "name": "addToAllowList",
      "outputs": [],
      "stateMutability": "nonpayable",
      "type": "function"
    },
    {
      "inputs": [
        {
          "internalType": "address",
          "name": "to",
          "type": "address"
        },
        {
          "internalType": "uint256",
          "name": "tokenId",
          "type": "uint256"
        }
      ],
      "name": "approve",
      "outputs": [],
      "stateMutability": "nonpayable",
      "type": "function"
    },
    {
      "inputs": [
        {
          "internalType": "address",
          "name": "owner",
          "type": "address"
        }
      ],
      "name": "balanceOf",
      "outputs": [
        {
          "internalType": "uint256",
          "name": "",
          "type": "uint256"
        }
      ],
      "stateMutability": "view",
      "type": "function"
    },
    {
      "inputs": [
        {
          "internalType": "uint256",
          "name": "tokenId",
          "type": "uint256"
        }
      ],
      "name": "burn",
      "outputs": [],
      "stateMutability": "nonpayable",
      "type": "function"
    },
    {
      "inputs": [],
      "name": "completeCurrentStage",
      "outputs": [],
      "stateMutability": "nonpayable",
      "type": "function"
    },
    {
      "inputs": [
        {
          "internalType": "uint256",
          "name": "tokenId",
          "type": "uint256"
        }
      ],
      "name": "cut",
      "outputs": [],
      "stateMutability": "payable",
      "type": "function"
    },
    {
      "inputs": [],
      "name": "dev__ResetStage",
      "outputs": [],
      "stateMutability": "nonpayable",
      "type": "function"
    },
    {
      "inputs": [
        {
          "internalType": "uint256",
          "name": "tokenId",
          "type": "uint256"
        }
      ],
      "name": "getApproved",
      "outputs": [
        {
          "internalType": "address",
          "name": "",
          "type": "address"
        }
      ],
      "stateMutability": "view",
      "type": "function"
    },
    {
      "inputs": [
        {
          "internalType": "bytes32",
          "name": "role",
          "type": "bytes32"
        }
      ],
      "name": "getRoleAdmin",
      "outputs": [
        {
          "internalType": "bytes32",
          "name": "",
          "type": "bytes32"
        }
      ],
      "stateMutability": "view",
      "type": "function"
    },
    {
      "inputs": [
        {
          "internalType": "uint256",
          "name": "tokenId",
          "type": "uint256"
        }
      ],
      "name": "getShapeForToken",
      "outputs": [
        {
          "internalType": "enum DiamondDawn.Shape",
          "name": "",
          "type": "uint8"
        }
      ],
      "stateMutability": "view",
      "type": "function"
    },
    {
      "inputs": [
        {
          "internalType": "bytes32",
          "name": "role",
          "type": "bytes32"
        },
        {
          "internalType": "address",
          "name": "account",
          "type": "address"
        }
      ],
      "name": "grantRole",
      "outputs": [],
      "stateMutability": "nonpayable",
      "type": "function"
    },
    {
      "inputs": [
        {
          "internalType": "bytes32",
          "name": "role",
          "type": "bytes32"
        },
        {
          "internalType": "address",
          "name": "account",
          "type": "address"
        }
      ],
      "name": "hasRole",
      "outputs": [
        {
          "internalType": "bool",
          "name": "",
          "type": "bool"
        }
      ],
      "stateMutability": "view",
      "type": "function"
    },
    {
      "inputs": [
        {
          "internalType": "address",
          "name": "owner",
          "type": "address"
        },
        {
          "internalType": "address",
          "name": "operator",
          "type": "address"
        }
      ],
      "name": "isApprovedForAll",
      "outputs": [
        {
          "internalType": "bool",
          "name": "",
          "type": "bool"
        }
      ],
      "stateMutability": "view",
      "type": "function"
    },
    {
      "inputs": [],
      "name": "isStageActive",
      "outputs": [
        {
          "internalType": "bool",
          "name": "",
          "type": "bool"
        }
      ],
      "stateMutability": "view",
      "type": "function"
    },
    {
      "inputs": [
        {
          "internalType": "uint256",
          "name": "processesPurchased",
          "type": "uint256"
        }
      ],
      "name": "mine",
      "outputs": [],
      "stateMutability": "payable",
      "type": "function"
    },
    {
      "inputs": [],
      "name": "name",
      "outputs": [
        {
          "internalType": "string",
          "name": "",
          "type": "string"
        }
      ],
      "stateMutability": "view",
      "type": "function"
    },
    {
      "inputs": [
        {
          "internalType": "uint256",
          "name": "tokenId",
          "type": "uint256"
        }
      ],
      "name": "ownerOf",
      "outputs": [
        {
          "internalType": "address",
          "name": "",
          "type": "address"
        }
      ],
      "stateMutability": "view",
      "type": "function"
    },
    {
      "inputs": [],
      "name": "pause",
      "outputs": [],
      "stateMutability": "nonpayable",
      "type": "function"
    },
    {
      "inputs": [],
      "name": "paused",
      "outputs": [
        {
          "internalType": "bool",
          "name": "",
          "type": "bool"
        }
      ],
      "stateMutability": "view",
      "type": "function"
    },
    {
      "inputs": [
        {
          "internalType": "uint256",
          "name": "tokenId",
          "type": "uint256"
        }
      ],
      "name": "polish",
      "outputs": [],
      "stateMutability": "payable",
      "type": "function"
    },
    {
      "inputs": [
        {
          "internalType": "uint256",
          "name": "tokenId",
          "type": "uint256"
        }
      ],
      "name": "rebirth",
      "outputs": [],
      "stateMutability": "nonpayable",
      "type": "function"
    },
    {
      "inputs": [
        {
          "internalType": "bytes32",
          "name": "role",
          "type": "bytes32"
        },
        {
          "internalType": "address",
          "name": "account",
          "type": "address"
        }
      ],
      "name": "renounceRole",
      "outputs": [],
      "stateMutability": "nonpayable",
      "type": "function"
    },
    {
      "inputs": [
        {
          "internalType": "string",
          "name": "videoUrl",
          "type": "string"
        }
      ],
      "name": "revealStage",
      "outputs": [],
      "stateMutability": "nonpayable",
      "type": "function"
    },
    {
      "inputs": [
        {
          "internalType": "bytes32",
          "name": "role",
          "type": "bytes32"
        },
        {
          "internalType": "address",
          "name": "account",
          "type": "address"
        }
      ],
      "name": "revokeRole",
      "outputs": [],
      "stateMutability": "nonpayable",
      "type": "function"
    },
    {
      "inputs": [
        {
          "internalType": "uint256",
          "name": "_tokenId",
          "type": "uint256"
        },
        {
          "internalType": "uint256",
          "name": "_salePrice",
          "type": "uint256"
        }
      ],
      "name": "royaltyInfo",
      "outputs": [
        {
          "internalType": "address",
          "name": "",
          "type": "address"
        },
        {
          "internalType": "uint256",
          "name": "",
          "type": "uint256"
        }
      ],
      "stateMutability": "view",
      "type": "function"
    },
    {
      "inputs": [
        {
          "internalType": "address",
          "name": "to",
          "type": "address"
        }
      ],
      "name": "safeMint",
      "outputs": [],
      "stateMutability": "nonpayable",
      "type": "function"
    },
    {
      "inputs": [
        {
          "internalType": "address",
          "name": "from",
          "type": "address"
        },
        {
          "internalType": "address",
          "name": "to",
          "type": "address"
        },
        {
          "internalType": "uint256",
          "name": "tokenId",
          "type": "uint256"
        }
      ],
      "name": "safeTransferFrom",
      "outputs": [],
      "stateMutability": "nonpayable",
      "type": "function"
    },
    {
      "inputs": [
        {
          "internalType": "address",
          "name": "from",
          "type": "address"
        },
        {
          "internalType": "address",
          "name": "to",
          "type": "address"
        },
        {
          "internalType": "uint256",
          "name": "tokenId",
          "type": "uint256"
        },
        {
          "internalType": "bytes",
          "name": "_data",
          "type": "bytes"
        }
      ],
      "name": "safeTransferFrom",
      "outputs": [],
      "stateMutability": "nonpayable",
      "type": "function"
    },
    {
      "inputs": [
        {
          "internalType": "address",
          "name": "operator",
          "type": "address"
        },
        {
          "internalType": "bool",
          "name": "approved",
          "type": "bool"
        }
      ],
      "name": "setApprovalForAll",
      "outputs": [],
      "stateMutability": "nonpayable",
      "type": "function"
    },
    {
      "inputs": [
        {
          "internalType": "uint256",
          "name": "price",
          "type": "uint256"
        }
      ],
      "name": "setProcessingPrice",
      "outputs": [],
      "stateMutability": "nonpayable",
      "type": "function"
    },
    {
      "inputs": [
        {
          "internalType": "address",
          "name": "_receiver",
          "type": "address"
        },
        {
          "internalType": "uint96",
          "name": "_royaltyFeesInBips",
          "type": "uint96"
        }
      ],
      "name": "setRoyaltyInfo",
      "outputs": [],
      "stateMutability": "nonpayable",
      "type": "function"
    },
    {
      "inputs": [],
      "name": "stage",
      "outputs": [
        {
          "internalType": "enum DiamondDawn.Stage",
          "name": "",
          "type": "uint8"
        }
      ],
      "stateMutability": "view",
      "type": "function"
    },
    {
      "inputs": [
        {
          "internalType": "bytes4",
          "name": "interfaceId",
          "type": "bytes4"
        }
      ],
      "name": "supportsInterface",
      "outputs": [
        {
          "internalType": "bool",
          "name": "",
          "type": "bool"
        }
      ],
      "stateMutability": "view",
      "type": "function"
    },
    {
      "inputs": [],
      "name": "symbol",
      "outputs": [
        {
          "internalType": "string",
          "name": "",
          "type": "string"
        }
      ],
      "stateMutability": "view",
      "type": "function"
    },
    {
      "inputs": [
        {
          "internalType": "uint256",
          "name": "index",
          "type": "uint256"
        }
      ],
      "name": "tokenByIndex",
      "outputs": [
        {
          "internalType": "uint256",
          "name": "",
          "type": "uint256"
        }
      ],
      "stateMutability": "view",
      "type": "function"
    },
    {
      "inputs": [
        {
          "internalType": "address",
          "name": "owner",
          "type": "address"
        },
        {
          "internalType": "uint256",
          "name": "index",
          "type": "uint256"
        }
      ],
      "name": "tokenOfOwnerByIndex",
      "outputs": [
        {
          "internalType": "uint256",
          "name": "",
          "type": "uint256"
        }
      ],
      "stateMutability": "view",
      "type": "function"
    },
    {
      "inputs": [
        {
          "internalType": "uint256",
          "name": "tokenId",
          "type": "uint256"
        }
      ],
      "name": "tokenURI",
      "outputs": [
        {
          "internalType": "string",
          "name": "",
          "type": "string"
        }
      ],
      "stateMutability": "view",
      "type": "function"
    },
    {
      "inputs": [],
      "name": "totalSupply",
      "outputs": [
        {
          "internalType": "uint256",
          "name": "",
          "type": "uint256"
        }
      ],
      "stateMutability": "view",
      "type": "function"
    },
    {
      "inputs": [
        {
          "internalType": "address",
          "name": "from",
          "type": "address"
        },
        {
          "internalType": "address",
          "name": "to",
          "type": "address"
        },
        {
          "internalType": "uint256",
          "name": "tokenId",
          "type": "uint256"
        }
      ],
      "name": "transferFrom",
      "outputs": [],
      "stateMutability": "nonpayable",
      "type": "function"
    },
    {
      "inputs": [],
      "name": "unpause",
      "outputs": [],
      "stateMutability": "nonpayable",
      "type": "function"
    },
    {
      "inputs": [
        {
          "internalType": "address",
          "name": "_owner",
          "type": "address"
        }
      ],
      "name": "walletOfOwner",
      "outputs": [
        {
          "internalType": "uint256[]",
          "name": "",
          "type": "uint256[]"
        }
      ],
      "stateMutability": "view",
      "type": "function"
    }
  ],
  "bytecode": "0x60806040523480156200001157600080fd5b506040516200461b3803806200461b8339810160408190526200003491620006c0565b604080518082018252600b81526a2234b0b6b7b7322230bbb760a91b602080830191825283518085019094526002845261111160f21b90840152815191929162000081916000916200061a565b508051620000979060019060208401906200061a565b50506008805460ff1916905550620000b16000336200014b565b620000dd7f65d7a28e3265b37a6474929f336521b332c1681b933f6cb9f3376673440d862a336200014b565b620001097f9f2df0fed2c77648de5860a4cc508cd0818c85b8b8a1ab4ceeef8d981c8956a6336200014b565b336000818152601260205260409020805460ff19166001179055600f805461ffff191690556200013a9082620001f0565b620001446200020e565b50620008a1565b60008281526009602090815260408083206001600160a01b038516845290915290205460ff16620001ec5760008281526009602090815260408083206001600160a01b03851684529091529020805460ff19166001179055620001ab3390565b6001600160a01b0316816001600160a01b0316837f2f8788117e7eff1d82e926ec794901d17c78024a50270940304540a733656f0d60405160405180910390a45b5050565b6000620001fd81620002ad565b620002098383620002bc565b505050565b60085460ff16156200025a5760405162461bcd60e51b815260206004820152601060248201526f14185d5cd8589b194e881c185d5cd95960821b60448201526064015b60405180910390fd5b6008805460ff191660011790557f62e78cea01bee320cd4e420270b5ea74000d11b0c9f74754ebdbfc544b05a258620002903390565b6040516001600160a01b03909116815260200160405180910390a1565b620002b98133620003bd565b50565b6127106001600160601b03821611156200032c5760405162461bcd60e51b815260206004820152602a60248201527f455243323938313a20726f79616c7479206665652077696c6c206578636565646044820152692073616c65507269636560b01b606482015260840162000251565b6001600160a01b038216620003845760405162461bcd60e51b815260206004820152601960248201527f455243323938313a20696e76616c696420726563656976657200000000000000604482015260640162000251565b604080518082019091526001600160a01b039092168083526001600160601b039091166020909201829052600160a01b90910217600655565b60008281526009602090815260408083206001600160a01b038516845290915290205460ff16620001ec5762000409816001600160a01b031660146200045a60201b620017601760201c565b6200041f836020620017606200045a821b17811c565b604051602001620004329291906200071e565b60408051601f198184030181529082905262461bcd60e51b8252620002519160040162000797565b606060006200046b836002620007e2565b6200047890600262000804565b6001600160401b038111156200049257620004926200081f565b6040519080825280601f01601f191660200182016040528015620004bd576020820181803683370190505b509050600360fc1b81600081518110620004db57620004db62000835565b60200101906001600160f81b031916908160001a905350600f60fb1b816001815181106200050d576200050d62000835565b60200101906001600160f81b031916908160001a905350600062000533846002620007e2565b6200054090600162000804565b90505b6001811115620005c2576f181899199a1a9b1b9c1cb0b131b232b360811b85600f166010811062000578576200057862000835565b1a60f81b82828151811062000591576200059162000835565b60200101906001600160f81b031916908160001a90535060049490941c93620005ba816200084b565b905062000543565b508315620006135760405162461bcd60e51b815260206004820181905260248201527f537472696e67733a20686578206c656e67746820696e73756666696369656e74604482015260640162000251565b9392505050565b828054620006289062000865565b90600052602060002090601f0160209004810192826200064c576000855562000697565b82601f106200066757805160ff191683800117855562000697565b8280016001018555821562000697579182015b82811115620006975782518255916020019190600101906200067a565b50620006a5929150620006a9565b5090565b5b80821115620006a55760008155600101620006aa565b600060208284031215620006d357600080fd5b81516001600160601b03811681146200061357600080fd5b60005b8381101562000708578181015183820152602001620006ee565b8381111562000718576000848401525b50505050565b7f416363657373436f6e74726f6c3a206163636f756e742000000000000000000081526000835162000758816017850160208801620006eb565b7001034b99036b4b9b9b4b733903937b6329607d1b60179184019182015283516200078b816028840160208801620006eb565b01602801949350505050565b6020815260008251806020840152620007b8816040850160208701620006eb565b601f01601f19169190910160400192915050565b634e487b7160e01b600052601160045260246000fd5b6000816000190483118215151615620007ff57620007ff620007cc565b500290565b600082198211156200081a576200081a620007cc565b500190565b634e487b7160e01b600052604160045260246000fd5b634e487b7160e01b600052603260045260246000fd5b6000816200085d576200085d620007cc565b506000190190565b600181811c908216806200087a57607f821691505b6020821081036200089b57634e487b7160e01b600052602260045260246000fd5b50919050565b613d6a80620008b16000396000f3fe6080604052600436106102ae5760003560e01c80635c975abb11610175578063abdfe275116100dc578063cc11697911610095578063e63ab1e91161006f578063e63ab1e914610868578063e8a77d171461089c578063e985e9c5146108bc578063f4273b321461059957600080fd5b8063cc1169791461079e578063d539139314610814578063d547741f1461084857600080fd5b8063abdfe2751461075e578063b88d4fde1461077e578063bc6399e71461079e578063bf72b63f146107ba578063c040e6b8146107cd578063c87b56dd146107f457600080fd5b80637263cfe21161012e5780637263cfe2146106bf5780638456cb59146106df57806391d14854146106f457806395d89b4114610714578063a217fddf14610729578063a22cb4651461073e57600080fd5b80635c975abb146105e85780635ed6ac4f146106005780636352211e1461061f5780636a1eb87e1461063f5780636c3c8dba1461065b57806370a082311461069f57600080fd5b80632a55205a1161021957806342842e0e116101d257806342842e0e1461052c57806342966c681461054c578063438b63001461056c57806344e5d1df146105995780634d474898146105b55780634f6ccce7146105c857600080fd5b80632a55205a146104585780632f2ff15d146104975780632f745c59146104b757806336568abe146104d75780633f4ba83a146104f757806340d097c31461050c57600080fd5b80630a49008d1161026b5780630a49008d14610397578063140865f3146103b757806315afd8f8146103d457806318160ddd146103e957806323b872dd14610408578063248a9ca31461042857600080fd5b806301ffc9a7146102b357806302fa7c47146102e857806306fdde031461030a578063081812fc1461032c57806309260db714610364578063095ea7b314610377575b600080fd5b3480156102bf57600080fd5b506102d36102ce366004613097565b610905565b60405190151581526020015b60405180910390f35b3480156102f457600080fd5b506103086103033660046130d0565b610916565b005b34801561031657600080fd5b5061031f610930565b6040516102df919061316b565b34801561033857600080fd5b5061034c61034736600461317e565b6109c2565b6040516001600160a01b0390911681526020016102df565b61030861037236600461317e565b610a5c565b34801561038357600080fd5b50610308610392366004613197565b610ad7565b3480156103a357600080fd5b506103086103b2366004613260565b610be7565b3480156103c357600080fd5b50610308600f805461ffff19169055565b3480156103e057600080fd5b50610308610bfb565b3480156103f557600080fd5b50600c545b6040519081526020016102df565b34801561041457600080fd5b506103086104233660046132a9565b610c0d565b34801561043457600080fd5b506103fa61044336600461317e565b60009081526009602052604090206001015490565b34801561046457600080fd5b506104786104733660046132e5565b610c3f565b604080516001600160a01b0390931683526020830191909152016102df565b3480156104a357600080fd5b506103086104b2366004613307565b610ceb565b3480156104c357600080fd5b506103fa6104d2366004613197565b610d10565b3480156104e357600080fd5b506103086104f2366004613307565b610da6565b34801561050357600080fd5b50610308610e24565b34801561051857600080fd5b50610308610527366004613333565b610e56565b34801561053857600080fd5b506103086105473660046132a9565b610ea5565b34801561055857600080fd5b5061030861056736600461317e565b610ec0565b34801561057857600080fd5b5061058c610587366004613333565b610f33565b6040516102df919061334e565b3480156105a557600080fd5b506103fa67058d15e17628000081565b6103086105c336600461317e565b610fd5565b3480156105d457600080fd5b506103fa6105e336600461317e565b611182565b3480156105f457600080fd5b5060085460ff166102d3565b34801561060c57600080fd5b50600f546102d390610100900460ff1681565b34801561062b57600080fd5b5061034c61063a36600461317e565b611215565b34801561064b57600080fd5b506103fa670853a0d2313c000081565b34801561066757600080fd5b5061069261067636600461317e565b6000908152601160205260409020546301000000900460ff1690565b6040516102df91906133a8565b3480156106ab57600080fd5b506103fa6106ba366004613333565b61128c565b3480156106cb57600080fd5b506103086106da3660046133c2565b611313565b3480156106eb57600080fd5b50610308611386565b34801561070057600080fd5b506102d361070f366004613307565b6113b8565b34801561072057600080fd5b5061031f6113e3565b34801561073557600080fd5b506103fa600081565b34801561074a57600080fd5b5061030861075936600461346f565b6113f2565b34801561076a57600080fd5b5061030861077936600461317e565b6113fd565b34801561078a57600080fd5b506103086107993660046134a0565b611408565b3480156107aa57600080fd5b506103fa6702c68af0bb14000081565b6103086107c836600461317e565b611441565b3480156107d957600080fd5b50600f546107e79060ff1681565b6040516102df919061351c565b34801561080057600080fd5b5061031f61080f36600461317e565b611466565b34801561082057600080fd5b506103fa7f9f2df0fed2c77648de5860a4cc508cd0818c85b8b8a1ab4ceeef8d981c8956a681565b34801561085457600080fd5b50610308610863366004613307565b6115e6565b34801561087457600080fd5b506103fa7f65d7a28e3265b37a6474929f336521b332c1681b933f6cb9f3376673440d862a81565b3480156108a857600080fd5b506103086108b736600461317e565b61160b565b3480156108c857600080fd5b506102d36108d7366004613530565b6001600160a01b03918216600090815260056020908152604080832093909416825291909152205460ff1690565b600061091082611903565b92915050565b600061092181611928565b61092b8383611932565b505050565b60606000805461093f9061355a565b80601f016020809104026020016040519081016040528092919081815260200182805461096b9061355a565b80156109b85780601f1061098d576101008083540402835291602001916109b8565b820191906000526020600020905b81548152906001019060200180831161099b57829003601f168201915b5050505050905090565b6000818152600260205260408120546001600160a01b0316610a405760405162461bcd60e51b815260206004820152602c60248201527f4552433732313a20617070726f76656420717565727920666f72206e6f6e657860448201526b34b9ba32b73a103a37b5b2b760a11b60648201526084015b60405180910390fd5b506000908152600460205260409020546001600160a01b031690565b6001610a66611a2f565b610a6f81611a56565b610a818267058d15e176280000611ad2565b6000610a8b611cf3565b9050806003811115610a9f57610a9f613392565b6000848152601160205260409020805463ff00000019166301000000836003811115610acd57610acd613392565b0217905550505050565b6000610ae282611215565b9050806001600160a01b0316836001600160a01b031603610b4f5760405162461bcd60e51b815260206004820152602160248201527f4552433732313a20617070726f76616c20746f2063757272656e74206f776e656044820152603960f91b6064820152608401610a37565b336001600160a01b0382161480610b6b5750610b6b81336108d7565b610bdd5760405162461bcd60e51b815260206004820152603860248201527f4552433732313a20617070726f76652063616c6c6572206973206e6f74206f7760448201527f6e6572206e6f7220617070726f76656420666f7220616c6c00000000000000006064820152608401610a37565b61092b8383611d3d565b610bef611dab565b610bf881611dc8565b50565b610c03611e24565b610c0b611e3d565b565b610c18335b82611e7b565b610c345760405162461bcd60e51b8152600401610a3790613594565b61092b838383611f72565b60008281526007602090815260408083208151808301909252546001600160a01b038116808352600160a01b9091046001600160601b0316928201929092528291610cb45750604080518082019091526006546001600160a01b0381168252600160a01b90046001600160601b031660208201525b602081015160009061271090610cd3906001600160601b0316876135fb565b610cdd9190613630565b915196919550909350505050565b600082815260096020526040902060010154610d0681611928565b61092b8383612119565b6000610d1b8361128c565b8210610d7d5760405162461bcd60e51b815260206004820152602b60248201527f455243373231456e756d657261626c653a206f776e657220696e646578206f7560448201526a74206f6620626f756e647360a81b6064820152608401610a37565b506001600160a01b03919091166000908152600a60209081526040808320938352929052205490565b6001600160a01b0381163314610e165760405162461bcd60e51b815260206004820152602f60248201527f416363657373436f6e74726f6c3a2063616e206f6e6c792072656e6f756e636560448201526e103937b632b9903337b91039b2b63360891b6064820152608401610a37565b610e20828261219f565b5050565b7f65d7a28e3265b37a6474929f336521b332c1681b933f6cb9f3376673440d862a610e4e81611928565b610bf8612206565b7f9f2df0fed2c77648de5860a4cc508cd0818c85b8b8a1ab4ceeef8d981c8956a6610e8081611928565b6000610e8b600e5490565b9050610e9b600e80546001019055565b61092b8382612299565b61092b83838360405180602001604052806000815250611408565b6003610eca611a2f565b610ed381611a56565b610edc826122b3565b610ee58261232a565b6000838152601160205260409020805460ff19166001836004811115610f0d57610f0d613392565b021790555050600090815260136020526040902080546001600160a01b03191633179055565b60606000610f408361128c565b905060008167ffffffffffffffff811115610f5d57610f5d6131c1565b604051908082528060200260200182016040528015610f86578160200160208202803683370190505b50905060005b82811015610fcd57610f9e8582610d10565b828281518110610fb057610fb0613644565b602090810291909101015280610fc58161365a565b915050610f8c565b509392505050565b6000610fdf611a2f565b610fe881611a56565b3360009081526012602052604090205460ff166110575760405162461bcd60e51b815260206004820152602760248201527f546865206d696e6572206973206e6f7420616c6c6f77656420746f206d696e7460448201526620746f6b656e7360c81b6064820152608401610a37565b61106082612345565b61106a8234612370565b6000611075600e5490565b9050611085600e80546001019055565b61108f3382612299565b604080516080810190915280600081526001851015602082015260028514604082015260600160039052600082815260116020526040902081518154829060ff191660018360048111156110e5576110e5613392565b02179055506020820151815460408401511515620100000262ff000019921515610100029290921662ffff00199091161717808255606083015190829063ff0000001916630100000083600381111561114057611140613392565b02179055509050506000601260006111553390565b6001600160a01b031681526020810191909152604001600020805460ff1916911515919091179055505050565b600061118d600c5490565b82106111f05760405162461bcd60e51b815260206004820152602c60248201527f455243373231456e756d657261626c653a20676c6f62616c20696e646578206f60448201526b7574206f6620626f756e647360a01b6064820152608401610a37565b600c828154811061120357611203613644565b90600052602060002001549050919050565b6000818152600260205260408120546001600160a01b0316806109105760405162461bcd60e51b815260206004820152602960248201527f4552433732313a206f776e657220717565727920666f72206e6f6e657869737460448201526832b73a103a37b5b2b760b91b6064820152608401610a37565b60006001600160a01b0382166112f75760405162461bcd60e51b815260206004820152602a60248201527f4552433732313a2062616c616e636520717565727920666f7220746865207a65604482015269726f206164647265737360b01b6064820152608401610a37565b506001600160a01b031660009081526003602052604090205490565b600061131e81611928565b60005b825181101561092b5760016012600085848151811061134257611342613644565b6020908102919091018101516001600160a01b03168252810191909152604001600020805460ff19169115159190911790558061137e8161365a565b915050611321565b7f65d7a28e3265b37a6474929f336521b332c1681b933f6cb9f3376673440d862a6113b081611928565b610bf86123fb565b60009182526009602090815260408084206001600160a01b0393909316845291905290205460ff1690565b60606001805461093f9061355a565b610e20338383612476565b6000610e2081611928565b611413335b83611e7b565b61142f5760405162461bcd60e51b8152600401610a3790613594565b61143b84848484612544565b50505050565b600261144b611a2f565b61145481611a56565b610e2082670853a0d2313c0000611ad2565b6060600061147383612577565b600084815260116020526040812054919250906115bb90839081906114ab9060ff1660048111156114a6576114a6613392565b6125ee565b6000888152601160205260409020546114d9906301000000900460ff1660038111156114a6576114a6613392565b600089815260116020526040902054610100900460ff16611517576040518060400160405280600581526020016466616c736560d81b815250611535565b604051806040016040528060048152602001637472756560e01b8152505b60008a81526011602052604090205462010000900460ff16611574576040518060400160405280600581526020016466616c736560d81b815250611592565b604051806040016040528060048152602001637472756560e01b8152505b6040516020016115a79695949392919061368f565b6040516020818303038152906040526126ef565b9050806040516020016115ce9190613818565b60405160208183030381529060405292505050919050565b60008281526009602052604090206001015461160181611928565b61092b838361219f565b6003600f5460ff16600481111561162457611624613392565b1480156116385750600f54610100900460ff165b8061165957506004600f5460ff16600481111561165757611657613392565b145b6116755760405162461bcd60e51b8152600401610a379061385d565b6000818152601360205260409020546001600160a01b031680336001600160a01b0316146040516020016116f2907f52656269727468206661696c6564202d206f6e6c79206275726e65722069732081527f616c6c6f77656420746f20706572666f726d20726562697274680000000000006020820152603a0190565b6040516020818303038152906040529061171f5760405162461bcd60e51b8152600401610a37919061316b565b506117298261232a565b6000838152601160205260409020805460ff1916600183600481111561175157611751613392565b0217905550610e203383612299565b6060600061176f8360026135fb565b61177a9060026138ac565b67ffffffffffffffff811115611792576117926131c1565b6040519080825280601f01601f1916602001820160405280156117bc576020820181803683370190505b509050600360fc1b816000815181106117d7576117d7613644565b60200101906001600160f81b031916908160001a905350600f60fb1b8160018151811061180657611806613644565b60200101906001600160f81b031916908160001a905350600061182a8460026135fb565b6118359060016138ac565b90505b60018111156118ad576f181899199a1a9b1b9c1cb0b131b232b360811b85600f166010811061186957611869613644565b1a60f81b82828151811061187f5761187f613644565b60200101906001600160f81b031916908160001a90535060049490941c936118a6816138c4565b9050611838565b5083156118fc5760405162461bcd60e51b815260206004820181905260248201527f537472696e67733a20686578206c656e67746820696e73756666696369656e746044820152606401610a37565b9392505050565b60006001600160e01b0319821663780e9d6360e01b1480610910575061091082612842565b610bf88133612867565b6127106001600160601b03821611156119a05760405162461bcd60e51b815260206004820152602a60248201527f455243323938313a20726f79616c7479206665652077696c6c206578636565646044820152692073616c65507269636560b01b6064820152608401610a37565b6001600160a01b0382166119f65760405162461bcd60e51b815260206004820152601960248201527f455243323938313a20696e76616c6964207265636569766572000000000000006044820152606401610a37565b604080518082019091526001600160a01b039092168083526001600160601b039091166020909201829052600160a01b90910217600655565b600f54610100900460ff16610c0b5760405162461bcd60e51b8152600401610a379061385d565b806004811115611a6857611a68613392565b600f5460ff166004811115611a7f57611a7f613392565b14611a958260048111156114a6576114a6613392565b604051602001611aa591906138db565b60405160208183030381529060405290610e205760405162461bcd60e51b8152600401610a37919061316b565b611adb3361140d565b611b3e5760405162461bcd60e51b815260206004820152602e60248201527f4552433732313a2063616c6c6572206973206e6f7420746f6b656e206f776e6560448201526d1c881b9bdc88185c1c1c9bdd995960921b6064820152608401610a37565b600f5460019060ff166004811115611b5857611b58613392565b611b629190613938565b60008381526011602052604090205460ff166004811115611b8557611b85613392565b600f54911490611bb09060019060ff166004811115611ba657611ba6613392565b6114a69190613938565b604051602001611bc0919061394f565b60405160208183030381529060405290611bed5760405162461bcd60e51b8152600401610a37919061316b565b506001600f5460ff166004811115611c0757611c07613392565b148015611c285750600082815260116020526040902054610100900460ff16155b80611c6957506002600f5460ff166004811115611c4757611c47613392565b148015611c69575060008281526011602052604090205462010000900460ff16155b15611cb957803414611c7a826125ee565b604051602001611c8a91906139c1565b60405160208183030381529060405290611cb75760405162461bcd60e51b8152600401610a37919061316b565b505b611cc28261232a565b6000838152601160205260409020805460ff19166001836004811115611cea57611cea613392565b02179055505050565b600080611d0060646128cb565b905060228111611d1257600091505090565b60238110158015611d24575060468111155b15611d3157600191505090565b600291505090565b5090565b600081815260046020526040902080546001600160a01b0319166001600160a01b0384169081179091558190611d7282611215565b6001600160a01b03167f8c5be1e5ebec7d5bd14f71427d1e84f3dd0314c0f7b2291e5b200ac8c7c3b92560405160405180910390a45050565b6000611db681611928565b50600f805461ff001916610100179055565b6000611dd381611928565b600f54829060109060009060ff166004811115611df257611df2613392565b6004811115611e0357611e03613392565b8152602001908152602001600020908051906020019061092b929190612ff1565b6000611e2f81611928565b50600f805461ff0019169055565b6000611e4881611928565b600f54611e579060ff1661290d565b600f805460ff19166001836004811115611e7357611e73613392565b021790555050565b6000818152600260205260408120546001600160a01b0316611ef45760405162461bcd60e51b815260206004820152602c60248201527f4552433732313a206f70657261746f7220717565727920666f72206e6f6e657860448201526b34b9ba32b73a103a37b5b2b760a11b6064820152608401610a37565b6000611eff83611215565b9050806001600160a01b0316846001600160a01b03161480611f4657506001600160a01b0380821660009081526005602090815260408083209388168352929052205460ff165b80611f6a5750836001600160a01b0316611f5f846109c2565b6001600160a01b0316145b949350505050565b826001600160a01b0316611f8582611215565b6001600160a01b031614611fe95760405162461bcd60e51b815260206004820152602560248201527f4552433732313a207472616e736665722066726f6d20696e636f72726563742060448201526437bbb732b960d91b6064820152608401610a37565b6001600160a01b03821661204b5760405162461bcd60e51b8152602060048201526024808201527f4552433732313a207472616e7366657220746f20746865207a65726f206164646044820152637265737360e01b6064820152608401610a37565b61205683838361299a565b612061600082611d3d565b6001600160a01b038316600090815260036020526040812080546001929061208a908490613938565b90915550506001600160a01b03821660009081526003602052604081208054600192906120b89084906138ac565b909155505060008181526002602052604080822080546001600160a01b0319166001600160a01b0386811691821790925591518493918716917fddf252ad1be2c89b69c2b068fc378daa952ba7f163c4a11628f55a4df523b3ef91a4505050565b61212382826113b8565b610e205760008281526009602090815260408083206001600160a01b03851684529091529020805460ff1916600117905561215b3390565b6001600160a01b0316816001600160a01b0316837f2f8788117e7eff1d82e926ec794901d17c78024a50270940304540a733656f0d60405160405180910390a45050565b6121a982826113b8565b15610e205760008281526009602090815260408083206001600160a01b0385168085529252808320805460ff1916905551339285917ff6391f5c32d9c69d2a47ea670b442974b53935d1edc7fd64eb21e047a839171b9190a45050565b60085460ff1661224f5760405162461bcd60e51b815260206004820152601460248201527314185d5cd8589b194e881b9bdd081c185d5cd95960621b6044820152606401610a37565b6008805460ff191690557f5db9ee0a495bf2e6ff9c91a7834c1ba4fdd244a5e8aa4e537bd38aeae4b073aa335b6040516001600160a01b03909116815260200160405180910390a1565b610e208282604051806020016040528060008152506129eb565b6122bc33610c12565b6123215760405162461bcd60e51b815260206004820152603060248201527f4552433732314275726e61626c653a2063616c6c6572206973206e6f74206f7760448201526f1b995c881b9bdc88185c1c1c9bdd995960821b6064820152608401610a37565b610bf881612a1e565b6000818152601160205260408120546109109060ff1661290d565b61235160016004613938565b81111561236060016004611ba6565b604051602001611aa59190613a12565b6702c68af0bb1400008215612394576123916702c68af0bb140000826138ac565b90505b60018311156123b2576123af67058d15e176280000826138ac565b90505b8082146123be826125ee565b6040516020016123ce91906139c1565b6040516020818303038152906040529061143b5760405162461bcd60e51b8152600401610a37919061316b565b60085460ff16156124415760405162461bcd60e51b815260206004820152601060248201526f14185d5cd8589b194e881c185d5cd95960821b6044820152606401610a37565b6008805460ff191660011790557f62e78cea01bee320cd4e420270b5ea74000d11b0c9f74754ebdbfc544b05a25861227c3390565b816001600160a01b0316836001600160a01b0316036124d75760405162461bcd60e51b815260206004820152601960248201527f4552433732313a20617070726f766520746f2063616c6c6572000000000000006044820152606401610a37565b6001600160a01b03838116600081815260056020908152604080832094871680845294825291829020805460ff191686151590811790915591519182527f17307eab39ab6107e8899845ad3d59bd9653f200f220920489ca2b5937696c31910160405180910390a3505050565b61254f848484611f72565b61255b84848484612ac5565b61143b5760405162461bcd60e51b8152600401610a3790613a74565b6060612581612bc6565b6000838152601160205260408120546010919060ff1660048111156125a8576125a8613392565b60048111156125b9576125b9613392565b81526020019081526020016000206040516020016125d8929190613ac6565b6040516020818303038152906040529050919050565b6060816000036126155750506040805180820190915260018152600360fc1b602082015290565b8160005b811561263f57806126298161365a565b91506126389050600a83613630565b9150612619565b60008167ffffffffffffffff81111561265a5761265a6131c1565b6040519080825280601f01601f191660200182016040528015612684576020820181803683370190505b5090505b8415611f6a57612699600183613938565b91506126a6600a86613b76565b6126b19060306138ac565b60f81b8183815181106126c6576126c6613644565b60200101906001600160f81b031916908160001a9053506126e8600a86613630565b9450612688565b6060815160000361270e57505060408051602081019091526000815290565b6000604051806060016040528060408152602001613cf5604091399050600060038451600261273d91906138ac565b6127479190613630565b6127529060046135fb565b67ffffffffffffffff81111561276a5761276a6131c1565b6040519080825280601f01601f191660200182016040528015612794576020820181803683370190505b509050600182016020820185865187015b80821015612800576003820191508151603f8160121c168501518453600184019350603f81600c1c168501518453600184019350603f8160061c168501518453600184019350603f81168501518453506001830192506127a5565b505060038651066001811461281c576002811461282f57612837565b603d6001830353603d6002830353612837565b603d60018303535b509195945050505050565b60006001600160e01b03198216637965db0b60e01b1480610910575061091082612be6565b61287182826113b8565b610e2057612889816001600160a01b03166014611760565b612894836020611760565b6040516020016128a5929190613b8a565b60408051601f198184030181529082905262461bcd60e51b8252610a379160040161316b565b60008142446040516020016128ea929190918252602082015260400190565b6040516020818303038152906040528051906020012060001c6109109190613b76565b6000600482600481111561292357612923613392565b1061292e60046125ee565b60405160200161293e9190613bff565b6040516020818303038152906040529061296b5760405162461bcd60e51b8152600401610a37919061316b565b5081600481111561297e5761297e613392565b6129899060016138ac565b600481111561091057610910613392565b60085460ff16156129e05760405162461bcd60e51b815260206004820152601060248201526f14185d5cd8589b194e881c185d5cd95960821b6044820152606401610a37565b61092b838383612c0b565b6129f58383612cc3565b612a026000848484612ac5565b61092b5760405162461bcd60e51b8152600401610a3790613a74565b6000612a2982611215565b9050612a378160008461299a565b612a42600083611d3d565b6001600160a01b0381166000908152600360205260408120805460019290612a6b908490613938565b909155505060008281526002602052604080822080546001600160a01b0319169055518391906001600160a01b038416907fddf252ad1be2c89b69c2b068fc378daa952ba7f163c4a11628f55a4df523b3ef908390a45050565b60006001600160a01b0384163b15612bbb57604051630a85bd0160e11b81526001600160a01b0385169063150b7a0290612b09903390899088908890600401613c44565b6020604051808303816000875af1925050508015612b44575060408051601f3d908101601f19168201909252612b4191810190613c81565b60015b612ba1573d808015612b72576040519150601f19603f3d011682016040523d82523d6000602084013e612b77565b606091505b508051600003612b995760405162461bcd60e51b8152600401610a3790613a74565b805181602001fd5b6001600160e01b031916630a85bd0160e11b149050611f6a565b506001949350505050565b6060604051806060016040528060408152602001613cb560409139905090565b60006001600160e01b0319821663152a902d60e11b1480610910575061091082612e11565b6001600160a01b038316612c6657612c6181600c80546000838152600d60205260408120829055600182018355919091527fdf6966c971051c3d54ec59162606531493a51404a002842f56009d7e5cf4a8c70155565b612c89565b816001600160a01b0316836001600160a01b031614612c8957612c898382612e61565b6001600160a01b038216612ca05761092b81612efe565b826001600160a01b0316826001600160a01b03161461092b5761092b8282612fad565b6001600160a01b038216612d195760405162461bcd60e51b815260206004820181905260248201527f4552433732313a206d696e7420746f20746865207a65726f20616464726573736044820152606401610a37565b6000818152600260205260409020546001600160a01b031615612d7e5760405162461bcd60e51b815260206004820152601c60248201527f4552433732313a20746f6b656e20616c7265616479206d696e746564000000006044820152606401610a37565b612d8a6000838361299a565b6001600160a01b0382166000908152600360205260408120805460019290612db39084906138ac565b909155505060008181526002602052604080822080546001600160a01b0319166001600160a01b03861690811790915590518392907fddf252ad1be2c89b69c2b068fc378daa952ba7f163c4a11628f55a4df523b3ef908290a45050565b60006001600160e01b031982166380ac58cd60e01b1480612e4257506001600160e01b03198216635b5e139f60e01b145b8061091057506301ffc9a760e01b6001600160e01b0319831614610910565b60006001612e6e8461128c565b612e789190613938565b6000838152600b6020526040902054909150808214612ecb576001600160a01b0384166000908152600a602090815260408083208584528252808320548484528184208190558352600b90915290208190555b506000918252600b602090815260408084208490556001600160a01b039094168352600a81528383209183525290812055565b600c54600090612f1090600190613938565b6000838152600d6020526040812054600c8054939450909284908110612f3857612f38613644565b9060005260206000200154905080600c8381548110612f5957612f59613644565b6000918252602080832090910192909255828152600d9091526040808220849055858252812055600c805480612f9157612f91613c9e565b6001900381819060005260206000200160009055905550505050565b6000612fb88361128c565b6001600160a01b039093166000908152600a602090815260408083208684528252808320859055938252600b9052919091209190915550565b828054612ffd9061355a565b90600052602060002090601f01602090048101928261301f5760008555613065565b82601f1061303857805160ff1916838001178555613065565b82800160010185558215613065579182015b8281111561306557825182559160200191906001019061304a565b50611d399291505b80821115611d39576000815560010161306d565b6001600160e01b031981168114610bf857600080fd5b6000602082840312156130a957600080fd5b81356118fc81613081565b80356001600160a01b03811681146130cb57600080fd5b919050565b600080604083850312156130e357600080fd5b6130ec836130b4565b915060208301356001600160601b038116811461310857600080fd5b809150509250929050565b60005b8381101561312e578181015183820152602001613116565b8381111561143b5750506000910152565b60008151808452613157816020860160208601613113565b601f01601f19169290920160200192915050565b6020815260006118fc602083018461313f565b60006020828403121561319057600080fd5b5035919050565b600080604083850312156131aa57600080fd5b6131b3836130b4565b946020939093013593505050565b634e487b7160e01b600052604160045260246000fd5b604051601f8201601f1916810167ffffffffffffffff81118282101715613200576132006131c1565b604052919050565b600067ffffffffffffffff831115613222576132226131c1565b613235601f8401601f19166020016131d7565b905082815283838301111561324957600080fd5b828260208301376000602084830101529392505050565b60006020828403121561327257600080fd5b813567ffffffffffffffff81111561328957600080fd5b8201601f8101841361329a57600080fd5b611f6a84823560208401613208565b6000806000606084860312156132be57600080fd5b6132c7846130b4565b92506132d5602085016130b4565b9150604084013590509250925092565b600080604083850312156132f857600080fd5b50508035926020909101359150565b6000806040838503121561331a57600080fd5b8235915061332a602084016130b4565b90509250929050565b60006020828403121561334557600080fd5b6118fc826130b4565b6020808252825182820181905260009190848201906040850190845b818110156133865783518352928401929184019160010161336a565b50909695505050505050565b634e487b7160e01b600052602160045260246000fd5b60208101600483106133bc576133bc613392565b91905290565b600060208083850312156133d557600080fd5b823567ffffffffffffffff808211156133ed57600080fd5b818501915085601f83011261340157600080fd5b813581811115613413576134136131c1565b8060051b91506134248483016131d7565b818152918301840191848101908884111561343e57600080fd5b938501935b8385101561346357613454856130b4565b82529385019390850190613443565b98975050505050505050565b6000806040838503121561348257600080fd5b61348b836130b4565b91506020830135801515811461310857600080fd5b600080600080608085870312156134b657600080fd5b6134bf856130b4565b93506134cd602086016130b4565b925060408501359150606085013567ffffffffffffffff8111156134f057600080fd5b8501601f8101871361350157600080fd5b61351087823560208401613208565b91505092959194509250565b60208101600583106133bc576133bc613392565b6000806040838503121561354357600080fd5b61354c836130b4565b915061332a602084016130b4565b600181811c9082168061356e57607f821691505b60208210810361358e57634e487b7160e01b600052602260045260246000fd5b50919050565b60208082526031908201527f4552433732313a207472616e736665722063616c6c6572206973206e6f74206f6040820152701ddb995c881b9bdc88185c1c1c9bdd9959607a1b606082015260800190565b634e487b7160e01b600052601160045260246000fd5b6000816000190483118215151615613615576136156135e5565b500290565b634e487b7160e01b600052601260045260246000fd5b60008261363f5761363f61361a565b500490565b634e487b7160e01b600052603260045260246000fd5b60006001820161366c5761366c6135e5565b5060010190565b60008151613685818560208601613113565b9290920192915050565b7f7b226e616d65223a20224469616d6f6e64204461776e222c202264657363726981527f7074696f6e223a20225468697320697320746865206465736372697074696f6e60208201527f206f66204469616d6f6e64204461776e2050726f6a656374222c2022696d616760408201526432911d101160d91b606082015260008751613721816065850160208c01613113565b741116101130b734b6b0ba34b7b72fbab936111d101160591b606591840191820152875161375681607a840160208c01613113565b6b01116101139ba30b3b2911d160a51b607a92909101918201528651613783816086840160208b01613113565b61380a6137fc6137f66137da6137d46137bb6137b56086888a01016a016101139b430b832911d160ad1b8152600b0190565b8d613673565b6c016101131baba30b13632911d1609d1b8152600d0190565b8a613673565b6f01610113837b634b9b430b13632911d160851b815260100190565b87613673565b61207d60f01b815260020190565b9a9950505050505050505050565b7f646174613a6170706c69636174696f6e2f6a736f6e3b6261736536342c00000081526000825161385081601d850160208701613113565b91909101601d0192915050565b6020808252602f908201527f412073746167652073686f756c642062652061637469766520746f207065726660408201526e37b936903a3434b99030b1ba34b7b760891b606082015260800190565b600082198211156138bf576138bf6135e5565b500190565b6000816138d3576138d36135e5565b506000190190565b7302a34329039ba30b3b29039b437bab632103132960651b81526000825161390a816014850160208701613113565b76103a37903832b93337b936903a3434b99030b1ba34b7b760491b6014939091019283015250602b01919050565b60008282101561394a5761394a6135e5565b500390565b7f546865206c6576656c206f6620746865206469616d6f6e642073686f756c642081526203132960ed1b602082015260008251613993816023850160208701613113565b76103a37903832b93337b936903a3434b99030b1ba34b7b760491b6023939091019283015250603a01919050565b7f57726f6e67207061796d656e74202d207061796d656e742073686f756c6420628152620329d160ed1b602082015260008251613a05816023850160208701613113565b9190910160230192915050565b7f5075726368617365642070726f6365737365732073686f756c64206265206c65815273039b9903a3430b71037b91032b8bab0b6103a37960651b602082015260008251613a67816034850160208701613113565b9190910160340192915050565b60208082526032908201527f4552433732313a207472616e7366657220746f206e6f6e20455243373231526560408201527131b2b4bb32b91034b6b83632b6b2b73a32b960711b606082015260800190565b600083516020613ad98285838901613113565b845491840191600090600181811c9080831680613af757607f831692505b8583108103613b1457634e487b7160e01b85526022600452602485fd5b808015613b285760018114613b3957613b66565b60ff19851688528388019550613b66565b60008b81526020902060005b85811015613b5e5781548a820152908401908801613b45565b505083880195505b50939a9950505050505050505050565b600082613b8557613b8561361a565b500690565b7f416363657373436f6e74726f6c3a206163636f756e7420000000000000000000815260008351613bc2816017850160208801613113565b7001034b99036b4b9b9b4b733903937b6329607d1b6017918401918201528351613bf3816028840160208801613113565b01602801949350505050565b7f5468652073746167652073686f756c64206265206c657373207468616e200000815260008251613c3781601e850160208701613113565b91909101601e0192915050565b6001600160a01b0385811682528416602082015260408101839052608060608201819052600090613c779083018461313f565b9695505050505050565b600060208284031215613c9357600080fd5b81516118fc81613081565b634e487b7160e01b600052603160045260246000fdfe68747470733a2f2f747765657a6572732d7075626c69632e73332e616d617a6f6e6177732e636f6d2f6469616d6f6e642d6461776e2d6e66742d6d6f636b732f4142434445464748494a4b4c4d4e4f505152535455565758595a6162636465666768696a6b6c6d6e6f707172737475767778797a303132333435363738392b2fa2646970667358221220485dea2c8eb44e2e8eb2e18445eea94347854f180759c9078620c9b032caa46464736f6c634300080e0033",
  "linkReferences": {},
  "deployedLinkReferences": {}
}