{
  "_format": "hh-sol-artifact-1",
  "contractName": "DiamondDawn",
  "sourceName": "contracts/DiamondDawn.sol",
  "abi": [
    {
      "inputs": [
        {
          "internalType": "uint96",
          "name": "_royaltyFeesInBips",
          "type": "uint96"
        }
      ],
      "stateMutability": "nonpayable",
      "type": "constructor"
    },
    {
      "anonymous": false,
      "inputs": [
        {
          "indexed": true,
          "internalType": "address",
          "name": "owner",
          "type": "address"
        },
        {
          "indexed": true,
          "internalType": "address",
          "name": "approved",
          "type": "address"
        },
        {
          "indexed": true,
          "internalType": "uint256",
          "name": "tokenId",
          "type": "uint256"
        }
      ],
      "name": "Approval",
      "type": "event"
    },
    {
      "anonymous": false,
      "inputs": [
        {
          "indexed": true,
          "internalType": "address",
          "name": "owner",
          "type": "address"
        },
        {
          "indexed": true,
          "internalType": "address",
          "name": "operator",
          "type": "address"
        },
        {
          "indexed": false,
          "internalType": "bool",
          "name": "approved",
          "type": "bool"
        }
      ],
      "name": "ApprovalForAll",
      "type": "event"
    },
    {
      "anonymous": false,
      "inputs": [
        {
          "indexed": false,
          "internalType": "address",
          "name": "account",
          "type": "address"
        }
      ],
      "name": "Paused",
      "type": "event"
    },
    {
      "anonymous": false,
      "inputs": [
        {
          "indexed": true,
          "internalType": "bytes32",
          "name": "role",
          "type": "bytes32"
        },
        {
          "indexed": true,
          "internalType": "bytes32",
          "name": "previousAdminRole",
          "type": "bytes32"
        },
        {
          "indexed": true,
          "internalType": "bytes32",
          "name": "newAdminRole",
          "type": "bytes32"
        }
      ],
      "name": "RoleAdminChanged",
      "type": "event"
    },
    {
      "anonymous": false,
      "inputs": [
        {
          "indexed": true,
          "internalType": "bytes32",
          "name": "role",
          "type": "bytes32"
        },
        {
          "indexed": true,
          "internalType": "address",
          "name": "account",
          "type": "address"
        },
        {
          "indexed": true,
          "internalType": "address",
          "name": "sender",
          "type": "address"
        }
      ],
      "name": "RoleGranted",
      "type": "event"
    },
    {
      "anonymous": false,
      "inputs": [
        {
          "indexed": true,
          "internalType": "bytes32",
          "name": "role",
          "type": "bytes32"
        },
        {
          "indexed": true,
          "internalType": "address",
          "name": "account",
          "type": "address"
        },
        {
          "indexed": true,
          "internalType": "address",
          "name": "sender",
          "type": "address"
        }
      ],
      "name": "RoleRevoked",
      "type": "event"
    },
    {
      "anonymous": false,
      "inputs": [
        {
          "indexed": true,
          "internalType": "address",
          "name": "from",
          "type": "address"
        },
        {
          "indexed": true,
          "internalType": "address",
          "name": "to",
          "type": "address"
        },
        {
          "indexed": true,
          "internalType": "uint256",
          "name": "tokenId",
          "type": "uint256"
        }
      ],
      "name": "Transfer",
      "type": "event"
    },
    {
      "anonymous": false,
      "inputs": [
        {
          "indexed": false,
          "internalType": "address",
          "name": "account",
          "type": "address"
        }
      ],
      "name": "Unpaused",
      "type": "event"
    },
    {
      "inputs": [],
      "name": "CUT_PRICE",
      "outputs": [
        {
          "internalType": "uint256",
          "name": "",
          "type": "uint256"
        }
      ],
      "stateMutability": "view",
      "type": "function"
    },
    {
      "inputs": [],
      "name": "DEFAULT_ADMIN_ROLE",
      "outputs": [
        {
          "internalType": "bytes32",
          "name": "",
          "type": "bytes32"
        }
      ],
      "stateMutability": "view",
      "type": "function"
    },
    {
      "inputs": [],
      "name": "MINING_PRICE",
      "outputs": [
        {
          "internalType": "uint256",
          "name": "",
          "type": "uint256"
        }
      ],
      "stateMutability": "view",
      "type": "function"
    },
    {
      "inputs": [],
      "name": "MINTER_ROLE",
      "outputs": [
        {
          "internalType": "bytes32",
          "name": "",
          "type": "bytes32"
        }
      ],
      "stateMutability": "view",
      "type": "function"
    },
    {
      "inputs": [],
      "name": "PAUSER_ROLE",
      "outputs": [
        {
          "internalType": "bytes32",
          "name": "",
          "type": "bytes32"
        }
      ],
      "stateMutability": "view",
      "type": "function"
    },
    {
      "inputs": [],
      "name": "POLISH_PRICE",
      "outputs": [
        {
          "internalType": "uint256",
          "name": "",
          "type": "uint256"
        }
      ],
      "stateMutability": "view",
      "type": "function"
    },
    {
      "inputs": [],
      "name": "PREPAID_CUT_PRICE",
      "outputs": [
        {
          "internalType": "uint256",
          "name": "",
          "type": "uint256"
        }
      ],
      "stateMutability": "view",
      "type": "function"
    },
    {
      "inputs": [],
      "name": "PREPAID_POLISH_PRICE",
      "outputs": [
        {
          "internalType": "uint256",
          "name": "",
          "type": "uint256"
        }
      ],
      "stateMutability": "view",
      "type": "function"
    },
    {
      "inputs": [
        {
          "internalType": "address[]",
          "name": "addresses",
          "type": "address[]"
        }
      ],
      "name": "addToAllowList",
      "outputs": [],
      "stateMutability": "nonpayable",
      "type": "function"
    },
    {
      "inputs": [
        {
          "internalType": "address",
          "name": "to",
          "type": "address"
        },
        {
          "internalType": "uint256",
          "name": "tokenId",
          "type": "uint256"
        }
      ],
      "name": "approve",
      "outputs": [],
      "stateMutability": "nonpayable",
      "type": "function"
    },
    {
      "inputs": [
        {
          "internalType": "address",
          "name": "owner",
          "type": "address"
        }
      ],
      "name": "balanceOf",
      "outputs": [
        {
          "internalType": "uint256",
          "name": "",
          "type": "uint256"
        }
      ],
      "stateMutability": "view",
      "type": "function"
    },
    {
      "inputs": [
        {
          "internalType": "uint256",
          "name": "tokenId",
          "type": "uint256"
        }
      ],
      "name": "burn",
      "outputs": [],
      "stateMutability": "nonpayable",
      "type": "function"
    },
    {
      "inputs": [],
      "name": "completeCurrentStage",
      "outputs": [],
      "stateMutability": "nonpayable",
      "type": "function"
    },
    {
      "inputs": [
        {
          "internalType": "uint256",
          "name": "tokenId",
          "type": "uint256"
        }
      ],
      "name": "cut",
      "outputs": [],
      "stateMutability": "payable",
      "type": "function"
    },
    {
      "inputs": [],
      "name": "dev__ResetStage",
      "outputs": [],
      "stateMutability": "nonpayable",
      "type": "function"
    },
    {
      "inputs": [
        {
          "internalType": "uint256",
          "name": "tokenId",
          "type": "uint256"
        }
      ],
      "name": "getApproved",
      "outputs": [
        {
          "internalType": "address",
          "name": "",
          "type": "address"
        }
      ],
      "stateMutability": "view",
      "type": "function"
    },
    {
      "inputs": [
        {
          "internalType": "bytes32",
          "name": "role",
          "type": "bytes32"
        }
      ],
      "name": "getRoleAdmin",
      "outputs": [
        {
          "internalType": "bytes32",
          "name": "",
          "type": "bytes32"
        }
      ],
      "stateMutability": "view",
      "type": "function"
    },
    {
      "inputs": [
        {
          "internalType": "bytes32",
          "name": "role",
          "type": "bytes32"
        },
        {
          "internalType": "address",
          "name": "account",
          "type": "address"
        }
      ],
      "name": "grantRole",
      "outputs": [],
      "stateMutability": "nonpayable",
      "type": "function"
    },
    {
      "inputs": [
        {
          "internalType": "bytes32",
          "name": "role",
          "type": "bytes32"
        },
        {
          "internalType": "address",
          "name": "account",
          "type": "address"
        }
      ],
      "name": "hasRole",
      "outputs": [
        {
          "internalType": "bool",
          "name": "",
          "type": "bool"
        }
      ],
      "stateMutability": "view",
      "type": "function"
    },
    {
      "inputs": [
        {
          "internalType": "address",
          "name": "owner",
          "type": "address"
        },
        {
          "internalType": "address",
          "name": "operator",
          "type": "address"
        }
      ],
      "name": "isApprovedForAll",
      "outputs": [
        {
          "internalType": "bool",
          "name": "",
          "type": "bool"
        }
      ],
      "stateMutability": "view",
      "type": "function"
    },
    {
      "inputs": [],
      "name": "isStageActive",
      "outputs": [
        {
          "internalType": "bool",
          "name": "",
          "type": "bool"
        }
      ],
      "stateMutability": "view",
      "type": "function"
    },
    {
      "inputs": [
        {
          "internalType": "uint256",
          "name": "processesPurchased",
          "type": "uint256"
        }
      ],
      "name": "mine",
      "outputs": [],
      "stateMutability": "payable",
      "type": "function"
    },
    {
      "inputs": [],
      "name": "name",
      "outputs": [
        {
          "internalType": "string",
          "name": "",
          "type": "string"
        }
      ],
      "stateMutability": "view",
      "type": "function"
    },
    {
      "inputs": [
        {
          "internalType": "uint256",
          "name": "tokenId",
          "type": "uint256"
        }
      ],
      "name": "ownerOf",
      "outputs": [
        {
          "internalType": "address",
          "name": "",
          "type": "address"
        }
      ],
      "stateMutability": "view",
      "type": "function"
    },
    {
      "inputs": [],
      "name": "pause",
      "outputs": [],
      "stateMutability": "nonpayable",
      "type": "function"
    },
    {
      "inputs": [],
      "name": "paused",
      "outputs": [
        {
          "internalType": "bool",
          "name": "",
          "type": "bool"
        }
      ],
      "stateMutability": "view",
      "type": "function"
    },
    {
      "inputs": [
        {
          "internalType": "uint256",
          "name": "tokenId",
          "type": "uint256"
        }
      ],
      "name": "polish",
      "outputs": [],
      "stateMutability": "payable",
      "type": "function"
    },
    {
      "inputs": [
        {
          "internalType": "uint256",
          "name": "tokenId",
          "type": "uint256"
        }
      ],
      "name": "rebirth",
      "outputs": [],
      "stateMutability": "nonpayable",
      "type": "function"
    },
    {
      "inputs": [
        {
          "internalType": "bytes32",
          "name": "role",
          "type": "bytes32"
        },
        {
          "internalType": "address",
          "name": "account",
          "type": "address"
        }
      ],
      "name": "renounceRole",
      "outputs": [],
      "stateMutability": "nonpayable",
      "type": "function"
    },
    {
      "inputs": [
        {
          "internalType": "string",
          "name": "videoUrl",
          "type": "string"
        }
      ],
      "name": "revealStage",
      "outputs": [],
      "stateMutability": "nonpayable",
      "type": "function"
    },
    {
      "inputs": [
        {
          "internalType": "bytes32",
          "name": "role",
          "type": "bytes32"
        },
        {
          "internalType": "address",
          "name": "account",
          "type": "address"
        }
      ],
      "name": "revokeRole",
      "outputs": [],
      "stateMutability": "nonpayable",
      "type": "function"
    },
    {
      "inputs": [
        {
          "internalType": "uint256",
          "name": "_tokenId",
          "type": "uint256"
        },
        {
          "internalType": "uint256",
          "name": "_salePrice",
          "type": "uint256"
        }
      ],
      "name": "royaltyInfo",
      "outputs": [
        {
          "internalType": "address",
          "name": "",
          "type": "address"
        },
        {
          "internalType": "uint256",
          "name": "",
          "type": "uint256"
        }
      ],
      "stateMutability": "view",
      "type": "function"
    },
    {
      "inputs": [
        {
          "internalType": "address",
          "name": "to",
          "type": "address"
        }
      ],
      "name": "safeMint",
      "outputs": [],
      "stateMutability": "nonpayable",
      "type": "function"
    },
    {
      "inputs": [
        {
          "internalType": "address",
          "name": "from",
          "type": "address"
        },
        {
          "internalType": "address",
          "name": "to",
          "type": "address"
        },
        {
          "internalType": "uint256",
          "name": "tokenId",
          "type": "uint256"
        }
      ],
      "name": "safeTransferFrom",
      "outputs": [],
      "stateMutability": "nonpayable",
      "type": "function"
    },
    {
      "inputs": [
        {
          "internalType": "address",
          "name": "from",
          "type": "address"
        },
        {
          "internalType": "address",
          "name": "to",
          "type": "address"
        },
        {
          "internalType": "uint256",
          "name": "tokenId",
          "type": "uint256"
        },
        {
          "internalType": "bytes",
          "name": "_data",
          "type": "bytes"
        }
      ],
      "name": "safeTransferFrom",
      "outputs": [],
      "stateMutability": "nonpayable",
      "type": "function"
    },
    {
      "inputs": [
        {
          "internalType": "address",
          "name": "operator",
          "type": "address"
        },
        {
          "internalType": "bool",
          "name": "approved",
          "type": "bool"
        }
      ],
      "name": "setApprovalForAll",
      "outputs": [],
      "stateMutability": "nonpayable",
      "type": "function"
    },
    {
      "inputs": [
        {
          "internalType": "uint256",
          "name": "price",
          "type": "uint256"
        }
      ],
      "name": "setProcessingPrice",
      "outputs": [],
      "stateMutability": "nonpayable",
      "type": "function"
    },
    {
      "inputs": [
        {
          "internalType": "address",
          "name": "_receiver",
          "type": "address"
        },
        {
          "internalType": "uint96",
          "name": "_royaltyFeesInBips",
          "type": "uint96"
        }
      ],
      "name": "setRoyaltyInfo",
      "outputs": [],
      "stateMutability": "nonpayable",
      "type": "function"
    },
    {
      "inputs": [],
      "name": "stage",
      "outputs": [
        {
          "internalType": "enum DiamondDawn.Stage",
          "name": "",
          "type": "uint8"
        }
      ],
      "stateMutability": "view",
      "type": "function"
    },
    {
      "inputs": [
        {
          "internalType": "bytes4",
          "name": "interfaceId",
          "type": "bytes4"
        }
      ],
      "name": "supportsInterface",
      "outputs": [
        {
          "internalType": "bool",
          "name": "",
          "type": "bool"
        }
      ],
      "stateMutability": "view",
      "type": "function"
    },
    {
      "inputs": [],
      "name": "symbol",
      "outputs": [
        {
          "internalType": "string",
          "name": "",
          "type": "string"
        }
      ],
      "stateMutability": "view",
      "type": "function"
    },
    {
      "inputs": [
        {
          "internalType": "uint256",
          "name": "index",
          "type": "uint256"
        }
      ],
      "name": "tokenByIndex",
      "outputs": [
        {
          "internalType": "uint256",
          "name": "",
          "type": "uint256"
        }
      ],
      "stateMutability": "view",
      "type": "function"
    },
    {
      "inputs": [
        {
          "internalType": "address",
          "name": "owner",
          "type": "address"
        },
        {
          "internalType": "uint256",
          "name": "index",
          "type": "uint256"
        }
      ],
      "name": "tokenOfOwnerByIndex",
      "outputs": [
        {
          "internalType": "uint256",
          "name": "",
          "type": "uint256"
        }
      ],
      "stateMutability": "view",
      "type": "function"
    },
    {
      "inputs": [
        {
          "internalType": "uint256",
          "name": "tokenId",
          "type": "uint256"
        }
      ],
      "name": "tokenURI",
      "outputs": [
        {
          "internalType": "string",
          "name": "",
          "type": "string"
        }
      ],
      "stateMutability": "view",
      "type": "function"
    },
    {
      "inputs": [],
      "name": "totalSupply",
      "outputs": [
        {
          "internalType": "uint256",
          "name": "",
          "type": "uint256"
        }
      ],
      "stateMutability": "view",
      "type": "function"
    },
    {
      "inputs": [
        {
          "internalType": "address",
          "name": "from",
          "type": "address"
        },
        {
          "internalType": "address",
          "name": "to",
          "type": "address"
        },
        {
          "internalType": "uint256",
          "name": "tokenId",
          "type": "uint256"
        }
      ],
      "name": "transferFrom",
      "outputs": [],
      "stateMutability": "nonpayable",
      "type": "function"
    },
    {
      "inputs": [],
      "name": "unpause",
      "outputs": [],
      "stateMutability": "nonpayable",
      "type": "function"
    },
    {
      "inputs": [
        {
          "internalType": "address",
          "name": "_owner",
          "type": "address"
        }
      ],
      "name": "walletOfOwner",
      "outputs": [
        {
          "internalType": "uint256[]",
          "name": "",
          "type": "uint256[]"
        }
      ],
      "stateMutability": "view",
      "type": "function"
    }
  ],
  "bytecode": "0x60806040523480156200001157600080fd5b50604051620043c0380380620043c083398101604081905262000034916200061b565b604080518082018252600b81526a2234b0b6b7b7322230bbb760a91b602080830191825283518085019094526002845261111160f21b908401528151919291620000819160009162000575565b5080516200009790600190602084019062000575565b50506008805460ff1916905550620000b160003362000141565b620000dd7f65d7a28e3265b37a6474929f336521b332c1681b933f6cb9f3376673440d862a3362000141565b620001097f9f2df0fed2c77648de5860a4cc508cd0818c85b8b8a1ab4ceeef8d981c8956a63362000141565b336000818152601260205260409020805460ff19166001179055600f805461ffff191690556200013a9082620001e6565b50620007fc565b60008281526009602090815260408083206001600160a01b038516845290915290205460ff16620001e25760008281526009602090815260408083206001600160a01b03851684529091529020805460ff19166001179055620001a13390565b6001600160a01b0316816001600160a01b0316837f2f8788117e7eff1d82e926ec794901d17c78024a50270940304540a733656f0d60405160405180910390a45b5050565b6000620001f38162000204565b620001ff838362000213565b505050565b62000210813362000318565b50565b6127106001600160601b0382161115620002875760405162461bcd60e51b815260206004820152602a60248201527f455243323938313a20726f79616c7479206665652077696c6c206578636565646044820152692073616c65507269636560b01b60648201526084015b60405180910390fd5b6001600160a01b038216620002df5760405162461bcd60e51b815260206004820152601960248201527f455243323938313a20696e76616c69642072656365697665720000000000000060448201526064016200027e565b604080518082019091526001600160a01b039092168083526001600160601b039091166020909201829052600160a01b90910217600655565b60008281526009602090815260408083206001600160a01b038516845290915290205460ff16620001e25762000364816001600160a01b03166014620003b560201b620016a51760201c565b6200037a836020620016a5620003b5821b17811c565b6040516020016200038d92919062000679565b60408051601f198184030181529082905262461bcd60e51b82526200027e91600401620006f2565b60606000620003c68360026200073d565b620003d39060026200075f565b6001600160401b03811115620003ed57620003ed6200077a565b6040519080825280601f01601f19166020018201604052801562000418576020820181803683370190505b509050600360fc1b8160008151811062000436576200043662000790565b60200101906001600160f81b031916908160001a905350600f60fb1b8160018151811062000468576200046862000790565b60200101906001600160f81b031916908160001a90535060006200048e8460026200073d565b6200049b9060016200075f565b90505b60018111156200051d576f181899199a1a9b1b9c1cb0b131b232b360811b85600f1660108110620004d357620004d362000790565b1a60f81b828281518110620004ec57620004ec62000790565b60200101906001600160f81b031916908160001a90535060049490941c936200051581620007a6565b90506200049e565b5083156200056e5760405162461bcd60e51b815260206004820181905260248201527f537472696e67733a20686578206c656e67746820696e73756666696369656e7460448201526064016200027e565b9392505050565b8280546200058390620007c0565b90600052602060002090601f016020900481019282620005a75760008555620005f2565b82601f10620005c257805160ff1916838001178555620005f2565b82800160010185558215620005f2579182015b82811115620005f2578251825591602001919060010190620005d5565b506200060092915062000604565b5090565b5b8082111562000600576000815560010162000605565b6000602082840312156200062e57600080fd5b81516001600160601b03811681146200056e57600080fd5b60005b838110156200066357818101518382015260200162000649565b8381111562000673576000848401525b50505050565b7f416363657373436f6e74726f6c3a206163636f756e7420000000000000000000815260008351620006b381601785016020880162000646565b7001034b99036b4b9b9b4b733903937b6329607d1b6017918401918201528351620006e681602884016020880162000646565b01602801949350505050565b60208152600082518060208401526200071381604085016020870162000646565b601f01601f19169190910160400192915050565b634e487b7160e01b600052601160045260246000fd5b60008160001904831182151516156200075a576200075a62000727565b500290565b6000821982111562000775576200077562000727565b500190565b634e487b7160e01b600052604160045260246000fd5b634e487b7160e01b600052603260045260246000fd5b600081620007b857620007b862000727565b506000190190565b600181811c90821680620007d557607f821691505b602082108103620007f657634e487b7160e01b600052602260045260246000fd5b50919050565b613bb4806200080c6000396000f3fe6080604052600436106102935760003560e01c80635c975abb1161015a578063b88d4fde116100c1578063d53913931161007a578063d5391393146107b5578063d547741f146107e9578063e63ab1e914610809578063e8a77d171461083d578063e985e9c51461085d578063f4273b321461057e57600080fd5b8063b88d4fde1461071f578063bc6399e71461073f578063bf72b63f1461075b578063c040e6b81461076e578063c87b56dd14610795578063cc1169791461073f57600080fd5b80638456cb59116101135780638456cb591461068057806391d148541461069557806395d89b41146106b5578063a217fddf146106ca578063a22cb465146106df578063abdfe275146106ff57600080fd5b80635c975abb146105cd5780635ed6ac4f146105e55780636352211e146106045780636a1eb87e1461062457806370a08231146106405780637263cfe21461066057600080fd5b80632a55205a116101fe57806342842e0e116101b757806342842e0e1461051157806342966c6814610531578063438b63001461055157806344e5d1df1461057e5780634d4748981461059a5780634f6ccce7146105ad57600080fd5b80632a55205a1461043d5780632f2ff15d1461047c5780632f745c591461049c57806336568abe146104bc5780633f4ba83a146104dc57806340d097c3146104f157600080fd5b80630a49008d116102505780630a49008d1461037c578063140865f31461039c57806315afd8f8146103b957806318160ddd146103ce57806323b872dd146103ed578063248a9ca31461040d57600080fd5b806301ffc9a71461029857806302fa7c47146102cd57806306fdde03146102ef578063081812fc1461031157806309260db714610349578063095ea7b31461035c575b600080fd5b3480156102a457600080fd5b506102b86102b3366004612f9a565b6108a6565b60405190151581526020015b60405180910390f35b3480156102d957600080fd5b506102ed6102e8366004612fd3565b6108b7565b005b3480156102fb57600080fd5b506103046108d1565b6040516102c4919061306e565b34801561031d57600080fd5b5061033161032c366004613081565b610963565b6040516001600160a01b0390911681526020016102c4565b6102ed610357366004613081565b6109fd565b34801561036857600080fd5b506102ed61037736600461309a565b610a26565b34801561038857600080fd5b506102ed610397366004613163565b610b36565b3480156103a857600080fd5b506102ed600f805461ffff19169055565b3480156103c557600080fd5b506102ed610b4a565b3480156103da57600080fd5b50600c545b6040519081526020016102c4565b3480156103f957600080fd5b506102ed6104083660046131ac565b610b5c565b34801561041957600080fd5b506103df610428366004613081565b60009081526009602052604090206001015490565b34801561044957600080fd5b5061045d6104583660046131e8565b610b8e565b604080516001600160a01b0390931683526020830191909152016102c4565b34801561048857600080fd5b506102ed61049736600461320a565b610c3a565b3480156104a857600080fd5b506103df6104b736600461309a565b610c5f565b3480156104c857600080fd5b506102ed6104d736600461320a565b610cf5565b3480156104e857600080fd5b506102ed610d6f565b3480156104fd57600080fd5b506102ed61050c366004613236565b610da1565b34801561051d57600080fd5b506102ed61052c3660046131ac565b610df0565b34801561053d57600080fd5b506102ed61054c366004613081565b610e0b565b34801561055d57600080fd5b5061057161056c366004613236565b610e7e565b6040516102c49190613251565b34801561058a57600080fd5b506103df67058d15e17628000081565b6102ed6105a8366004613081565b610f20565b3480156105b957600080fd5b506103df6105c8366004613081565b6110d2565b3480156105d957600080fd5b5060085460ff166102b8565b3480156105f157600080fd5b50600f546102b890610100900460ff1681565b34801561061057600080fd5b5061033161061f366004613081565b611165565b34801561063057600080fd5b506103df670853a0d2313c000081565b34801561064c57600080fd5b506103df61065b366004613236565b6111dc565b34801561066c57600080fd5b506102ed61067b366004613295565b611263565b34801561068c57600080fd5b506102ed6112d6565b3480156106a157600080fd5b506102b86106b036600461320a565b611308565b3480156106c157600080fd5b50610304611333565b3480156106d657600080fd5b506103df600081565b3480156106eb57600080fd5b506102ed6106fa366004613342565b611342565b34801561070b57600080fd5b506102ed61071a366004613081565b61134d565b34801561072b57600080fd5b506102ed61073a366004613373565b611358565b34801561074b57600080fd5b506103df6702c68af0bb14000081565b6102ed610769366004613081565b611391565b34801561077a57600080fd5b50600f546107889060ff1681565b6040516102c49190613405565b3480156107a157600080fd5b506103046107b0366004613081565b6113b6565b3480156107c157600080fd5b506103df7f9f2df0fed2c77648de5860a4cc508cd0818c85b8b8a1ab4ceeef8d981c8956a681565b3480156107f557600080fd5b506102ed61080436600461320a565b61152b565b34801561081557600080fd5b506103df7f65d7a28e3265b37a6474929f336521b332c1681b933f6cb9f3376673440d862a81565b34801561084957600080fd5b506102ed610858366004613081565b611550565b34801561086957600080fd5b506102b861087836600461342d565b6001600160a01b03918216600090815260056020908152604080832093909416825291909152205460ff1690565b60006108b182611848565b92915050565b60006108c28161186d565b6108cc8383611877565b505050565b6060600080546108e090613457565b80601f016020809104026020016040519081016040528092919081815260200182805461090c90613457565b80156109595780601f1061092e57610100808354040283529160200191610959565b820191906000526020600020905b81548152906001019060200180831161093c57829003601f168201915b5050505050905090565b6000818152600260205260408120546001600160a01b03166109e15760405162461bcd60e51b815260206004820152602c60248201527f4552433732313a20617070726f76656420717565727920666f72206e6f6e657860448201526b34b9ba32b73a103a37b5b2b760a11b60648201526084015b60405180910390fd5b506000908152600460205260409020546001600160a01b031690565b6001610a07611974565b610a108161199b565b610a228267058d15e176280000611a17565b5050565b6000610a3182611165565b9050806001600160a01b0316836001600160a01b031603610a9e5760405162461bcd60e51b815260206004820152602160248201527f4552433732313a20617070726f76616c20746f2063757272656e74206f776e656044820152603960f91b60648201526084016109d8565b336001600160a01b0382161480610aba5750610aba8133610878565b610b2c5760405162461bcd60e51b815260206004820152603860248201527f4552433732313a20617070726f76652063616c6c6572206973206e6f74206f7760448201527f6e6572206e6f7220617070726f76656420666f7220616c6c000000000000000060648201526084016109d8565b6108cc8383611c38565b610b3e611ca6565b610b4781611cc3565b50565b610b52611d1f565b610b5a611d38565b565b610b67335b82611d76565b610b835760405162461bcd60e51b81526004016109d890613491565b6108cc838383611e6d565b60008281526007602090815260408083208151808301909252546001600160a01b038116808352600160a01b9091046001600160601b0316928201929092528291610c035750604080518082019091526006546001600160a01b0381168252600160a01b90046001600160601b031660208201525b602081015160009061271090610c22906001600160601b0316876134f8565b610c2c919061352d565b915196919550909350505050565b600082815260096020526040902060010154610c558161186d565b6108cc8383612014565b6000610c6a836111dc565b8210610ccc5760405162461bcd60e51b815260206004820152602b60248201527f455243373231456e756d657261626c653a206f776e657220696e646578206f7560448201526a74206f6620626f756e647360a81b60648201526084016109d8565b506001600160a01b03919091166000908152600a60209081526040808320938352929052205490565b6001600160a01b0381163314610d655760405162461bcd60e51b815260206004820152602f60248201527f416363657373436f6e74726f6c3a2063616e206f6e6c792072656e6f756e636560448201526e103937b632b9903337b91039b2b63360891b60648201526084016109d8565b610a22828261209a565b7f65d7a28e3265b37a6474929f336521b332c1681b933f6cb9f3376673440d862a610d998161186d565b610b47612101565b7f9f2df0fed2c77648de5860a4cc508cd0818c85b8b8a1ab4ceeef8d981c8956a6610dcb8161186d565b6000610dd6600e5490565b9050610de6600e80546001019055565b6108cc8382612194565b6108cc83838360405180602001604052806000815250611358565b6003610e15611974565b610e1e8161199b565b610e27826121ae565b610e3082612225565b6000838152601160205260409020805460ff19166001836004811115610e5857610e586133ef565b021790555050600090815260136020526040902080546001600160a01b03191633179055565b60606000610e8b836111dc565b905060008167ffffffffffffffff811115610ea857610ea86130c4565b604051908082528060200260200182016040528015610ed1578160200160208202803683370190505b50905060005b82811015610f1857610ee98582610c5f565b828281518110610efb57610efb613541565b602090810291909101015280610f1081613557565b915050610ed7565b509392505050565b6000610f2a611974565b610f338161199b565b3360009081526012602052604090205460ff16610fa75760405162461bcd60e51b815260206004820152602c60248201527f5032443a20546865206d696e6572206973206e6f7420616c6c6f77656420746f60448201526b206d696e7420746f6b656e7360a01b60648201526084016109d8565b610fb082612240565b610fba823461226b565b6000610fc5600e5490565b9050610fd5600e80546001019055565b610fdf3382612194565b604080516080810190915280600081526001851015602082015260028514604082015260600160009052600082815260116020526040902081518154829060ff19166001836004811115611035576110356133ef565b02179055506020820151815460408401511515620100000262ff000019921515610100029290921662ffff00199091161717808255606083015190829063ff00000019166301000000836003811115611090576110906133ef565b02179055509050506000601260006110a53390565b6001600160a01b031681526020810191909152604001600020805460ff1916911515919091179055505050565b60006110dd600c5490565b82106111405760405162461bcd60e51b815260206004820152602c60248201527f455243373231456e756d657261626c653a20676c6f62616c20696e646578206f60448201526b7574206f6620626f756e647360a01b60648201526084016109d8565b600c828154811061115357611153613541565b90600052602060002001549050919050565b6000818152600260205260408120546001600160a01b0316806108b15760405162461bcd60e51b815260206004820152602960248201527f4552433732313a206f776e657220717565727920666f72206e6f6e657869737460448201526832b73a103a37b5b2b760b91b60648201526084016109d8565b60006001600160a01b0382166112475760405162461bcd60e51b815260206004820152602a60248201527f4552433732313a2062616c616e636520717565727920666f7220746865207a65604482015269726f206164647265737360b01b60648201526084016109d8565b506001600160a01b031660009081526003602052604090205490565b600061126e8161186d565b60005b82518110156108cc5760016012600085848151811061129257611292613541565b6020908102919091018101516001600160a01b03168252810191909152604001600020805460ff1916911515919091179055806112ce81613557565b915050611271565b7f65d7a28e3265b37a6474929f336521b332c1681b933f6cb9f3376673440d862a6113008161186d565b610b476122f6565b60009182526009602090815260408084206001600160a01b0393909316845291905290205460ff1690565b6060600180546108e090613457565b610a22338383612371565b6000610a228161186d565b611363335b83611d76565b61137f5760405162461bcd60e51b81526004016109d890613491565b61138b8484848461243f565b50505050565b600261139b611974565b6113a48161199b565b610a2282670853a0d2313c0000611a17565b606060006115016113c684612472565b6000858152601160205260409020546113f29060ff1660048111156113ed576113ed6133ef565b61254a565b600086815260116020526040902054611420906301000000900460ff1660038111156113ed576113ed6133ef565b600087815260116020526040902054610100900460ff1661145e576040518060400160405280600581526020016466616c736560d81b81525061147c565b604051806040016040528060048152602001637472756560e01b8152505b60008881526011602052604090205462010000900460ff166114bb576040518060400160405280600581526020016466616c736560d81b8152506114d9565b604051806040016040528060048152602001637472756560e01b8152505b6040516020016114ed95949392919061358c565b60405160208183030381529060405261264b565b9050806040516020016115149190613725565b604051602081830303815290604052915050919050565b6000828152600960205260409020600101546115468161186d565b6108cc838361209a565b6003600f5460ff166004811115611569576115696133ef565b14801561157d5750600f54610100900460ff165b8061159e57506004600f5460ff16600481111561159c5761159c6133ef565b145b6115ba5760405162461bcd60e51b81526004016109d89061376a565b6000818152601360205260409020546001600160a01b031680336001600160a01b031614604051602001611637907f52656269727468206661696c6564202d206f6e6c79206275726e65722069732081527f616c6c6f77656420746f20706572666f726d20726562697274680000000000006020820152603a0190565b604051602081830303815290604052906116645760405162461bcd60e51b81526004016109d8919061306e565b5061166e82612225565b6000838152601160205260409020805460ff19166001836004811115611696576116966133ef565b0217905550610a223383612194565b606060006116b48360026134f8565b6116bf9060026137be565b67ffffffffffffffff8111156116d7576116d76130c4565b6040519080825280601f01601f191660200182016040528015611701576020820181803683370190505b509050600360fc1b8160008151811061171c5761171c613541565b60200101906001600160f81b031916908160001a905350600f60fb1b8160018151811061174b5761174b613541565b60200101906001600160f81b031916908160001a905350600061176f8460026134f8565b61177a9060016137be565b90505b60018111156117f2576f181899199a1a9b1b9c1cb0b131b232b360811b85600f16601081106117ae576117ae613541565b1a60f81b8282815181106117c4576117c4613541565b60200101906001600160f81b031916908160001a90535060049490941c936117eb816137d6565b905061177d565b5083156118415760405162461bcd60e51b815260206004820181905260248201527f537472696e67733a20686578206c656e67746820696e73756666696369656e7460448201526064016109d8565b9392505050565b60006001600160e01b0319821663780e9d6360e01b14806108b157506108b18261279e565b610b4781336127c3565b6127106001600160601b03821611156118e55760405162461bcd60e51b815260206004820152602a60248201527f455243323938313a20726f79616c7479206665652077696c6c206578636565646044820152692073616c65507269636560b01b60648201526084016109d8565b6001600160a01b03821661193b5760405162461bcd60e51b815260206004820152601960248201527f455243323938313a20696e76616c69642072656365697665720000000000000060448201526064016109d8565b604080518082019091526001600160a01b039092168083526001600160601b039091166020909201829052600160a01b90910217600655565b600f54610100900460ff16610b5a5760405162461bcd60e51b81526004016109d89061376a565b8060048111156119ad576119ad6133ef565b600f5460ff1660048111156119c4576119c46133ef565b146119da8260048111156113ed576113ed6133ef565b6040516020016119ea91906137ed565b60405160208183030381529060405290610a225760405162461bcd60e51b81526004016109d8919061306e565b611a203361135d565b611a835760405162461bcd60e51b815260206004820152602e60248201527f4552433732313a2063616c6c6572206973206e6f7420746f6b656e206f776e6560448201526d1c881b9bdc88185c1c1c9bdd995960921b60648201526084016109d8565b600f5460019060ff166004811115611a9d57611a9d6133ef565b611aa79190613853565b60008381526011602052604090205460ff166004811115611aca57611aca6133ef565b600f54911490611af59060019060ff166004811115611aeb57611aeb6133ef565b6113ed9190613853565b604051602001611b05919061386a565b60405160208183030381529060405290611b325760405162461bcd60e51b81526004016109d8919061306e565b506001600f5460ff166004811115611b4c57611b4c6133ef565b148015611b6d5750600082815260116020526040902054610100900460ff16155b80611bae57506002600f5460ff166004811115611b8c57611b8c6133ef565b148015611bae575060008281526011602052604090205462010000900460ff16155b15611bfe57803414611bbf8261254a565b604051602001611bcf91906138e1565b60405160208183030381529060405290611bfc5760405162461bcd60e51b81526004016109d8919061306e565b505b611c0782612225565b6000838152601160205260409020805460ff19166001836004811115611c2f57611c2f6133ef565b02179055505050565b600081815260046020526040902080546001600160a01b0319166001600160a01b0384169081179091558190611c6d82611165565b6001600160a01b03167f8c5be1e5ebec7d5bd14f71427d1e84f3dd0314c0f7b2291e5b200ac8c7c3b92560405160405180910390a45050565b6000611cb18161186d565b50600f805461ff001916610100179055565b6000611cce8161186d565b600f54829060109060009060ff166004811115611ced57611ced6133ef565b6004811115611cfe57611cfe6133ef565b815260200190815260200160002090805190602001906108cc929190612eeb565b6000611d2a8161186d565b50600f805461ff0019169055565b6000611d438161186d565b600f54611d529060ff16612827565b600f805460ff19166001836004811115611d6e57611d6e6133ef565b021790555050565b6000818152600260205260408120546001600160a01b0316611def5760405162461bcd60e51b815260206004820152602c60248201527f4552433732313a206f70657261746f7220717565727920666f72206e6f6e657860448201526b34b9ba32b73a103a37b5b2b760a11b60648201526084016109d8565b6000611dfa83611165565b9050806001600160a01b0316846001600160a01b03161480611e4157506001600160a01b0380821660009081526005602090815260408083209388168352929052205460ff165b80611e655750836001600160a01b0316611e5a84610963565b6001600160a01b0316145b949350505050565b826001600160a01b0316611e8082611165565b6001600160a01b031614611ee45760405162461bcd60e51b815260206004820152602560248201527f4552433732313a207472616e736665722066726f6d20696e636f72726563742060448201526437bbb732b960d91b60648201526084016109d8565b6001600160a01b038216611f465760405162461bcd60e51b8152602060048201526024808201527f4552433732313a207472616e7366657220746f20746865207a65726f206164646044820152637265737360e01b60648201526084016109d8565b611f518383836128b4565b611f5c600082611c38565b6001600160a01b0383166000908152600360205260408120805460019290611f85908490613853565b90915550506001600160a01b0382166000908152600360205260408120805460019290611fb39084906137be565b909155505060008181526002602052604080822080546001600160a01b0319166001600160a01b0386811691821790925591518493918716917fddf252ad1be2c89b69c2b068fc378daa952ba7f163c4a11628f55a4df523b3ef91a4505050565b61201e8282611308565b610a225760008281526009602090815260408083206001600160a01b03851684529091529020805460ff191660011790556120563390565b6001600160a01b0316816001600160a01b0316837f2f8788117e7eff1d82e926ec794901d17c78024a50270940304540a733656f0d60405160405180910390a45050565b6120a48282611308565b15610a225760008281526009602090815260408083206001600160a01b0385168085529252808320805460ff1916905551339285917ff6391f5c32d9c69d2a47ea670b442974b53935d1edc7fd64eb21e047a839171b9190a45050565b60085460ff1661214a5760405162461bcd60e51b815260206004820152601460248201527314185d5cd8589b194e881b9bdd081c185d5cd95960621b60448201526064016109d8565b6008805460ff191690557f5db9ee0a495bf2e6ff9c91a7834c1ba4fdd244a5e8aa4e537bd38aeae4b073aa335b6040516001600160a01b03909116815260200160405180910390a1565b610a22828260405180602001604052806000815250612905565b6121b733610b61565b61221c5760405162461bcd60e51b815260206004820152603060248201527f4552433732314275726e61626c653a2063616c6c6572206973206e6f74206f7760448201526f1b995c881b9bdc88185c1c1c9bdd995960821b60648201526084016109d8565b610b4781612938565b6000818152601160205260408120546108b19060ff16612827565b61224c60016004613853565b81111561225b60016004611aeb565b6040516020016119ea9190613937565b6702c68af0bb140000821561228f5761228c6702c68af0bb140000826137be565b90505b60018311156122ad576122aa67058d15e176280000826137be565b90505b8082146122b98261254a565b6040516020016122c991906138e1565b6040516020818303038152906040529061138b5760405162461bcd60e51b81526004016109d8919061306e565b60085460ff161561233c5760405162461bcd60e51b815260206004820152601060248201526f14185d5cd8589b194e881c185d5cd95960821b60448201526064016109d8565b6008805460ff191660011790557f62e78cea01bee320cd4e420270b5ea74000d11b0c9f74754ebdbfc544b05a2586121773390565b816001600160a01b0316836001600160a01b0316036123d25760405162461bcd60e51b815260206004820152601960248201527f4552433732313a20617070726f766520746f2063616c6c65720000000000000060448201526064016109d8565b6001600160a01b03838116600081815260056020908152604080832094871680845294825291829020805460ff191686151590811790915591519182527f17307eab39ab6107e8899845ad3d59bd9653f200f220920489ca2b5937696c31910160405180910390a3505050565b61244a848484611e6d565b612456848484846129df565b61138b5760405162461bcd60e51b81526004016109d8906139a2565b60008181526011602052604081205460609160109160ff16600481111561249b5761249b6133ef565b60048111156124ac576124ac6133ef565b815260200190815260200160002080546124c590613457565b80601f01602080910402602001604051908101604052809291908181526020018280546124f190613457565b801561253e5780601f106125135761010080835404028352916020019161253e565b820191906000526020600020905b81548152906001019060200180831161252157829003601f168201915b50505050509050919050565b6060816000036125715750506040805180820190915260018152600360fc1b602082015290565b8160005b811561259b578061258581613557565b91506125949050600a8361352d565b9150612575565b60008167ffffffffffffffff8111156125b6576125b66130c4565b6040519080825280601f01601f1916602001820160405280156125e0576020820181803683370190505b5090505b8415611e65576125f5600183613853565b9150612602600a866139f4565b61260d9060306137be565b60f81b81838151811061262257612622613541565b60200101906001600160f81b031916908160001a905350612644600a8661352d565b94506125e4565b6060815160000361266a57505060408051602081019091526000815290565b6000604051806060016040528060408152602001613b3f604091399050600060038451600261269991906137be565b6126a3919061352d565b6126ae9060046134f8565b67ffffffffffffffff8111156126c6576126c66130c4565b6040519080825280601f01601f1916602001820160405280156126f0576020820181803683370190505b509050600182016020820185865187015b8082101561275c576003820191508151603f8160121c168501518453600184019350603f81600c1c168501518453600184019350603f8160061c168501518453600184019350603f8116850151845350600183019250612701565b5050600386510660018114612778576002811461278b57612793565b603d6001830353603d6002830353612793565b603d60018303535b509195945050505050565b60006001600160e01b03198216637965db0b60e01b14806108b157506108b182612ae0565b6127cd8282611308565b610a22576127e5816001600160a01b031660146116a5565b6127f08360206116a5565b604051602001612801929190613a08565b60408051601f198184030181529082905262461bcd60e51b82526109d89160040161306e565b6000600482600481111561283d5761283d6133ef565b10612848600461254a565b6040516020016128589190613a7d565b604051602081830303815290604052906128855760405162461bcd60e51b81526004016109d8919061306e565b50816004811115612898576128986133ef565b6128a39060016137be565b60048111156108b1576108b16133ef565b60085460ff16156128fa5760405162461bcd60e51b815260206004820152601060248201526f14185d5cd8589b194e881c185d5cd95960821b60448201526064016109d8565b6108cc838383612b05565b61290f8383612bbd565b61291c60008484846129df565b6108cc5760405162461bcd60e51b81526004016109d8906139a2565b600061294382611165565b9050612951816000846128b4565b61295c600083611c38565b6001600160a01b0381166000908152600360205260408120805460019290612985908490613853565b909155505060008281526002602052604080822080546001600160a01b0319169055518391906001600160a01b038416907fddf252ad1be2c89b69c2b068fc378daa952ba7f163c4a11628f55a4df523b3ef908390a45050565b60006001600160a01b0384163b15612ad557604051630a85bd0160e11b81526001600160a01b0385169063150b7a0290612a23903390899088908890600401613ace565b6020604051808303816000875af1925050508015612a5e575060408051601f3d908101601f19168201909252612a5b91810190613b0b565b60015b612abb573d808015612a8c576040519150601f19603f3d011682016040523d82523d6000602084013e612a91565b606091505b508051600003612ab35760405162461bcd60e51b81526004016109d8906139a2565b805181602001fd5b6001600160e01b031916630a85bd0160e11b149050611e65565b506001949350505050565b60006001600160e01b0319821663152a902d60e11b14806108b157506108b182612d0b565b6001600160a01b038316612b6057612b5b81600c80546000838152600d60205260408120829055600182018355919091527fdf6966c971051c3d54ec59162606531493a51404a002842f56009d7e5cf4a8c70155565b612b83565b816001600160a01b0316836001600160a01b031614612b8357612b838382612d5b565b6001600160a01b038216612b9a576108cc81612df8565b826001600160a01b0316826001600160a01b0316146108cc576108cc8282612ea7565b6001600160a01b038216612c135760405162461bcd60e51b815260206004820181905260248201527f4552433732313a206d696e7420746f20746865207a65726f206164647265737360448201526064016109d8565b6000818152600260205260409020546001600160a01b031615612c785760405162461bcd60e51b815260206004820152601c60248201527f4552433732313a20746f6b656e20616c7265616479206d696e7465640000000060448201526064016109d8565b612c84600083836128b4565b6001600160a01b0382166000908152600360205260408120805460019290612cad9084906137be565b909155505060008181526002602052604080822080546001600160a01b0319166001600160a01b03861690811790915590518392907fddf252ad1be2c89b69c2b068fc378daa952ba7f163c4a11628f55a4df523b3ef908290a45050565b60006001600160e01b031982166380ac58cd60e01b1480612d3c57506001600160e01b03198216635b5e139f60e01b145b806108b157506301ffc9a760e01b6001600160e01b03198316146108b1565b60006001612d68846111dc565b612d729190613853565b6000838152600b6020526040902054909150808214612dc5576001600160a01b0384166000908152600a602090815260408083208584528252808320548484528184208190558352600b90915290208190555b506000918252600b602090815260408084208490556001600160a01b039094168352600a81528383209183525290812055565b600c54600090612e0a90600190613853565b6000838152600d6020526040812054600c8054939450909284908110612e3257612e32613541565b9060005260206000200154905080600c8381548110612e5357612e53613541565b6000918252602080832090910192909255828152600d9091526040808220849055858252812055600c805480612e8b57612e8b613b28565b6001900381819060005260206000200160009055905550505050565b6000612eb2836111dc565b6001600160a01b039093166000908152600a602090815260408083208684528252808320859055938252600b9052919091209190915550565b828054612ef790613457565b90600052602060002090601f016020900481019282612f195760008555612f5f565b82601f10612f3257805160ff1916838001178555612f5f565b82800160010185558215612f5f579182015b82811115612f5f578251825591602001919060010190612f44565b50612f6b929150612f6f565b5090565b5b80821115612f6b5760008155600101612f70565b6001600160e01b031981168114610b4757600080fd5b600060208284031215612fac57600080fd5b813561184181612f84565b80356001600160a01b0381168114612fce57600080fd5b919050565b60008060408385031215612fe657600080fd5b612fef83612fb7565b915060208301356001600160601b038116811461300b57600080fd5b809150509250929050565b60005b83811015613031578181015183820152602001613019565b8381111561138b5750506000910152565b6000815180845261305a816020860160208601613016565b601f01601f19169290920160200192915050565b6020815260006118416020830184613042565b60006020828403121561309357600080fd5b5035919050565b600080604083850312156130ad57600080fd5b6130b683612fb7565b946020939093013593505050565b634e487b7160e01b600052604160045260246000fd5b604051601f8201601f1916810167ffffffffffffffff81118282101715613103576131036130c4565b604052919050565b600067ffffffffffffffff831115613125576131256130c4565b613138601f8401601f19166020016130da565b905082815283838301111561314c57600080fd5b828260208301376000602084830101529392505050565b60006020828403121561317557600080fd5b813567ffffffffffffffff81111561318c57600080fd5b8201601f8101841361319d57600080fd5b611e658482356020840161310b565b6000806000606084860312156131c157600080fd5b6131ca84612fb7565b92506131d860208501612fb7565b9150604084013590509250925092565b600080604083850312156131fb57600080fd5b50508035926020909101359150565b6000806040838503121561321d57600080fd5b8235915061322d60208401612fb7565b90509250929050565b60006020828403121561324857600080fd5b61184182612fb7565b6020808252825182820181905260009190848201906040850190845b818110156132895783518352928401929184019160010161326d565b50909695505050505050565b600060208083850312156132a857600080fd5b823567ffffffffffffffff808211156132c057600080fd5b818501915085601f8301126132d457600080fd5b8135818111156132e6576132e66130c4565b8060051b91506132f78483016130da565b818152918301840191848101908884111561331157600080fd5b938501935b838510156133365761332785612fb7565b82529385019390850190613316565b98975050505050505050565b6000806040838503121561335557600080fd5b61335e83612fb7565b91506020830135801515811461300b57600080fd5b6000806000806080858703121561338957600080fd5b61339285612fb7565b93506133a060208601612fb7565b925060408501359150606085013567ffffffffffffffff8111156133c357600080fd5b8501601f810187136133d457600080fd5b6133e38782356020840161310b565b91505092959194509250565b634e487b7160e01b600052602160045260246000fd5b602081016005831061342757634e487b7160e01b600052602160045260246000fd5b91905290565b6000806040838503121561344057600080fd5b61344983612fb7565b915061322d60208401612fb7565b600181811c9082168061346b57607f821691505b60208210810361348b57634e487b7160e01b600052602260045260246000fd5b50919050565b60208082526031908201527f4552433732313a207472616e736665722063616c6c6572206973206e6f74206f6040820152701ddb995c881b9bdc88185c1c1c9bdd9959607a1b606082015260800190565b634e487b7160e01b600052601160045260246000fd5b6000816000190483118215151615613512576135126134e2565b500290565b634e487b7160e01b600052601260045260246000fd5b60008261353c5761353c613517565b500490565b634e487b7160e01b600052603260045260246000fd5b600060018201613569576135696134e2565b5060010190565b60008151613582818560208601613016565b9290920192915050565b7f7b22696d616765223a202268747470733a2f2f6d656469612e6e69667479676181527f74657761792e636f6d2f766964656f2f75706c6f61642f76313633393432313160208201527f34312f416e647265612f446176696441726965772f446563437572617465642f60408201527f4d7973746963616c5f436162617265745f2d5f44617669645f41726965775f3160608201527f5f777a646875772e706e67222c2022616e696d6174696f6e5f75726c223a202260808201526000865161365c8160a0850160208b01613016565b6b01116101139ba30b3b2911d160a51b60a09184019182015286516136888160ac840160208b01613016565b6a016101139b430b832911d160ad1b60ac929091019182015285516136b48160b7840160208a01613016565b61371861370a6137046136e86136e260b7868801016c016101131baba30b13632911d1609d1b8152600d0190565b8a613570565b6f01610113837b634b9b430b13632911d160851b815260100190565b87613570565b61207d60f01b815260020190565b9998505050505050505050565b7f646174613a6170706c69636174696f6e2f6a736f6e3b6261736536342c00000081526000825161375d81601d850160208701613016565b91909101601d0192915050565b60208082526034908201527f5032443a20412073746167652073686f756c642062652061637469766520746f604082015273103832b93337b936903a3434b99030b1ba34b7b760611b606082015260800190565b600082198211156137d1576137d16134e2565b500190565b6000816137e5576137e56134e2565b506000190190565b7f5032443a205468652073746167652073686f756c642062652000000000000000815260008251613825816019850160208701613016565b76103a37903832b93337b936903a3434b99030b1ba34b7b760491b6019939091019283015250603001919050565b600082821015613865576138656134e2565b500390565b7f5032443a20546865206c6576656c206f6620746865206469616d6f6e64207368815267037bab632103132960c51b6020820152600082516138b3816028850160208701613016565b76103a37903832b93337b936903a3434b99030b1ba34b7b760491b6028939091019283015250603f01919050565b7f5032443a2057726f6e67207061796d656e74202d207061796d656e742073686f81526703ab6321031329d160c51b60208201526000825161392a816028850160208701613016565b9190910160280192915050565b7f5032443a205075726368617365642070726f6365737365732073686f756c642081527f6265206c657373207468616e206f7220657175616c20746f2000000000000000602082015260008251613995816039850160208701613016565b9190910160390192915050565b60208082526032908201527f4552433732313a207472616e7366657220746f206e6f6e20455243373231526560408201527131b2b4bb32b91034b6b83632b6b2b73a32b960711b606082015260800190565b600082613a0357613a03613517565b500690565b7f416363657373436f6e74726f6c3a206163636f756e7420000000000000000000815260008351613a40816017850160208801613016565b7001034b99036b4b9b9b4b733903937b6329607d1b6017918401918201528351613a71816028840160208801613016565b01602801949350505050565b7f5032443a205468652073746167652073686f756c64206265206c657373207468815262030b7160ed1b602082015260008251613ac1816023850160208701613016565b9190910160230192915050565b6001600160a01b0385811682528416602082015260408101839052608060608201819052600090613b0190830184613042565b9695505050505050565b600060208284031215613b1d57600080fd5b815161184181612f84565b634e487b7160e01b600052603160045260246000fdfe4142434445464748494a4b4c4d4e4f505152535455565758595a6162636465666768696a6b6c6d6e6f707172737475767778797a303132333435363738392b2fa26469706673582212208a3f19c0d5a0aa1a160dd20ad42afbe36aa842e6a9c124cf4dabc8fe680f165964736f6c634300080e0033",
  "linkReferences": {},
  "deployedLinkReferences": {}
}