{
  "_format": "hh-sol-artifact-1",
  "contractName": "DiamondDawn",
  "sourceName": "contracts/DiamondDawn.sol",
  "abi": [
    {
      "inputs": [
        {
          "internalType": "uint96",
          "name": "_royaltyFeesInBips",
          "type": "uint96"
        }
      ],
      "stateMutability": "nonpayable",
      "type": "constructor"
    },
    {
      "anonymous": false,
      "inputs": [
        {
          "indexed": true,
          "internalType": "address",
          "name": "owner",
          "type": "address"
        },
        {
          "indexed": true,
          "internalType": "address",
          "name": "approved",
          "type": "address"
        },
        {
          "indexed": true,
          "internalType": "uint256",
          "name": "tokenId",
          "type": "uint256"
        }
      ],
      "name": "Approval",
      "type": "event"
    },
    {
      "anonymous": false,
      "inputs": [
        {
          "indexed": true,
          "internalType": "address",
          "name": "owner",
          "type": "address"
        },
        {
          "indexed": true,
          "internalType": "address",
          "name": "operator",
          "type": "address"
        },
        {
          "indexed": false,
          "internalType": "bool",
          "name": "approved",
          "type": "bool"
        }
      ],
      "name": "ApprovalForAll",
      "type": "event"
    },
    {
      "anonymous": false,
      "inputs": [
        {
          "indexed": false,
          "internalType": "address",
          "name": "account",
          "type": "address"
        }
      ],
      "name": "Paused",
      "type": "event"
    },
    {
      "anonymous": false,
      "inputs": [
        {
          "indexed": true,
          "internalType": "bytes32",
          "name": "role",
          "type": "bytes32"
        },
        {
          "indexed": true,
          "internalType": "bytes32",
          "name": "previousAdminRole",
          "type": "bytes32"
        },
        {
          "indexed": true,
          "internalType": "bytes32",
          "name": "newAdminRole",
          "type": "bytes32"
        }
      ],
      "name": "RoleAdminChanged",
      "type": "event"
    },
    {
      "anonymous": false,
      "inputs": [
        {
          "indexed": true,
          "internalType": "bytes32",
          "name": "role",
          "type": "bytes32"
        },
        {
          "indexed": true,
          "internalType": "address",
          "name": "account",
          "type": "address"
        },
        {
          "indexed": true,
          "internalType": "address",
          "name": "sender",
          "type": "address"
        }
      ],
      "name": "RoleGranted",
      "type": "event"
    },
    {
      "anonymous": false,
      "inputs": [
        {
          "indexed": true,
          "internalType": "bytes32",
          "name": "role",
          "type": "bytes32"
        },
        {
          "indexed": true,
          "internalType": "address",
          "name": "account",
          "type": "address"
        },
        {
          "indexed": true,
          "internalType": "address",
          "name": "sender",
          "type": "address"
        }
      ],
      "name": "RoleRevoked",
      "type": "event"
    },
    {
      "anonymous": false,
      "inputs": [
        {
          "indexed": false,
          "internalType": "enum DiamondDawn.Stage",
          "name": "stage",
          "type": "uint8"
        },
        {
          "indexed": false,
          "internalType": "bool",
          "name": "isStageActive",
          "type": "bool"
        }
      ],
      "name": "StageChanged",
      "type": "event"
    },
    {
      "anonymous": false,
      "inputs": [
        {
          "indexed": true,
          "internalType": "address",
          "name": "from",
          "type": "address"
        },
        {
          "indexed": true,
          "internalType": "address",
          "name": "to",
          "type": "address"
        },
        {
          "indexed": true,
          "internalType": "uint256",
          "name": "tokenId",
          "type": "uint256"
        }
      ],
      "name": "Transfer",
      "type": "event"
    },
    {
      "anonymous": false,
      "inputs": [
        {
          "indexed": false,
          "internalType": "address",
          "name": "account",
          "type": "address"
        }
      ],
      "name": "Unpaused",
      "type": "event"
    },
    {
      "inputs": [],
      "name": "CUT_PRICE",
      "outputs": [
        {
          "internalType": "uint256",
          "name": "",
          "type": "uint256"
        }
      ],
      "stateMutability": "view",
      "type": "function"
    },
    {
      "inputs": [],
      "name": "DEFAULT_ADMIN_ROLE",
      "outputs": [
        {
          "internalType": "bytes32",
          "name": "",
          "type": "bytes32"
        }
      ],
      "stateMutability": "view",
      "type": "function"
    },
    {
      "inputs": [],
      "name": "MINING_PRICE",
      "outputs": [
        {
          "internalType": "uint256",
          "name": "",
          "type": "uint256"
        }
      ],
      "stateMutability": "view",
      "type": "function"
    },
    {
      "inputs": [],
      "name": "MINTER_ROLE",
      "outputs": [
        {
          "internalType": "bytes32",
          "name": "",
          "type": "bytes32"
        }
      ],
      "stateMutability": "view",
      "type": "function"
    },
    {
      "inputs": [],
      "name": "PAUSER_ROLE",
      "outputs": [
        {
          "internalType": "bytes32",
          "name": "",
          "type": "bytes32"
        }
      ],
      "stateMutability": "view",
      "type": "function"
    },
    {
      "inputs": [],
      "name": "POLISH_PRICE",
      "outputs": [
        {
          "internalType": "uint256",
          "name": "",
          "type": "uint256"
        }
      ],
      "stateMutability": "view",
      "type": "function"
    },
    {
      "inputs": [],
      "name": "PREPAID_CUT_PRICE",
      "outputs": [
        {
          "internalType": "uint256",
          "name": "",
          "type": "uint256"
        }
      ],
      "stateMutability": "view",
      "type": "function"
    },
    {
      "inputs": [],
      "name": "PREPAID_POLISH_PRICE",
      "outputs": [
        {
          "internalType": "uint256",
          "name": "",
          "type": "uint256"
        }
      ],
      "stateMutability": "view",
      "type": "function"
    },
    {
      "inputs": [
        {
          "internalType": "address[]",
          "name": "addresses",
          "type": "address[]"
        }
      ],
      "name": "addToAllowList",
      "outputs": [],
      "stateMutability": "nonpayable",
      "type": "function"
    },
    {
      "inputs": [
        {
          "internalType": "address",
          "name": "to",
          "type": "address"
        },
        {
          "internalType": "uint256",
          "name": "tokenId",
          "type": "uint256"
        }
      ],
      "name": "approve",
      "outputs": [],
      "stateMutability": "nonpayable",
      "type": "function"
    },
    {
      "inputs": [
        {
          "internalType": "address",
          "name": "owner",
          "type": "address"
        }
      ],
      "name": "balanceOf",
      "outputs": [
        {
          "internalType": "uint256",
          "name": "",
          "type": "uint256"
        }
      ],
      "stateMutability": "view",
      "type": "function"
    },
    {
      "inputs": [
        {
          "internalType": "uint256",
          "name": "tokenId",
          "type": "uint256"
        }
      ],
      "name": "burn",
      "outputs": [],
      "stateMutability": "nonpayable",
      "type": "function"
    },
    {
      "inputs": [],
      "name": "completeCurrentStage",
      "outputs": [],
      "stateMutability": "nonpayable",
      "type": "function"
    },
    {
      "inputs": [
        {
          "internalType": "string",
          "name": "videoUrl",
          "type": "string"
        }
      ],
      "name": "completeCurrentStageAndRevealNextStage",
      "outputs": [],
      "stateMutability": "nonpayable",
      "type": "function"
    },
    {
      "inputs": [
        {
          "internalType": "uint256",
          "name": "tokenId",
          "type": "uint256"
        }
      ],
      "name": "cut",
      "outputs": [],
      "stateMutability": "payable",
      "type": "function"
    },
    {
      "inputs": [],
      "name": "dev__ResetStage",
      "outputs": [],
      "stateMutability": "nonpayable",
      "type": "function"
    },
    {
      "inputs": [
        {
          "internalType": "uint256",
          "name": "tokenId",
          "type": "uint256"
        }
      ],
      "name": "getApproved",
      "outputs": [
        {
          "internalType": "address",
          "name": "",
          "type": "address"
        }
      ],
      "stateMutability": "view",
      "type": "function"
    },
    {
      "inputs": [
        {
          "internalType": "address",
          "name": "owner",
          "type": "address"
        }
      ],
      "name": "getBurnedTokens",
      "outputs": [
        {
          "internalType": "uint256[]",
          "name": "",
          "type": "uint256[]"
        }
      ],
      "stateMutability": "view",
      "type": "function"
    },
    {
      "inputs": [
        {
          "internalType": "bytes32",
          "name": "role",
          "type": "bytes32"
        }
      ],
      "name": "getRoleAdmin",
      "outputs": [
        {
          "internalType": "bytes32",
          "name": "",
          "type": "bytes32"
        }
      ],
      "stateMutability": "view",
      "type": "function"
    },
    {
      "inputs": [
        {
          "internalType": "uint256",
          "name": "tokenId",
          "type": "uint256"
        }
      ],
      "name": "getShapeForToken",
      "outputs": [
        {
          "internalType": "enum DiamondDawn.Shape",
          "name": "",
          "type": "uint8"
        }
      ],
      "stateMutability": "view",
      "type": "function"
    },
    {
      "inputs": [
        {
          "internalType": "bytes32",
          "name": "role",
          "type": "bytes32"
        },
        {
          "internalType": "address",
          "name": "account",
          "type": "address"
        }
      ],
      "name": "grantRole",
      "outputs": [],
      "stateMutability": "nonpayable",
      "type": "function"
    },
    {
      "inputs": [
        {
          "internalType": "bytes32",
          "name": "role",
          "type": "bytes32"
        },
        {
          "internalType": "address",
          "name": "account",
          "type": "address"
        }
      ],
      "name": "hasRole",
      "outputs": [
        {
          "internalType": "bool",
          "name": "",
          "type": "bool"
        }
      ],
      "stateMutability": "view",
      "type": "function"
    },
    {
      "inputs": [
        {
          "internalType": "address",
          "name": "owner",
          "type": "address"
        },
        {
          "internalType": "address",
          "name": "operator",
          "type": "address"
        }
      ],
      "name": "isApprovedForAll",
      "outputs": [
        {
          "internalType": "bool",
          "name": "",
          "type": "bool"
        }
      ],
      "stateMutability": "view",
      "type": "function"
    },
    {
      "inputs": [],
      "name": "isStageActive",
      "outputs": [
        {
          "internalType": "bool",
          "name": "",
          "type": "bool"
        }
      ],
      "stateMutability": "view",
      "type": "function"
    },
    {
      "inputs": [
        {
          "internalType": "uint256",
          "name": "processesPurchased",
          "type": "uint256"
        }
      ],
      "name": "mine",
      "outputs": [],
      "stateMutability": "payable",
      "type": "function"
    },
    {
      "inputs": [
        {
          "internalType": "address",
          "name": "",
          "type": "address"
        }
      ],
      "name": "mintAllowedAddresses",
      "outputs": [
        {
          "internalType": "bool",
          "name": "",
          "type": "bool"
        }
      ],
      "stateMutability": "view",
      "type": "function"
    },
    {
      "inputs": [],
      "name": "name",
      "outputs": [
        {
          "internalType": "string",
          "name": "",
          "type": "string"
        }
      ],
      "stateMutability": "view",
      "type": "function"
    },
    {
      "inputs": [
        {
          "internalType": "uint256",
          "name": "tokenId",
          "type": "uint256"
        }
      ],
      "name": "ownerOf",
      "outputs": [
        {
          "internalType": "address",
          "name": "",
          "type": "address"
        }
      ],
      "stateMutability": "view",
      "type": "function"
    },
    {
      "inputs": [],
      "name": "pause",
      "outputs": [],
      "stateMutability": "nonpayable",
      "type": "function"
    },
    {
      "inputs": [],
      "name": "paused",
      "outputs": [
        {
          "internalType": "bool",
          "name": "",
          "type": "bool"
        }
      ],
      "stateMutability": "view",
      "type": "function"
    },
    {
      "inputs": [
        {
          "internalType": "uint256",
          "name": "tokenId",
          "type": "uint256"
        }
      ],
      "name": "polish",
      "outputs": [],
      "stateMutability": "payable",
      "type": "function"
    },
    {
      "inputs": [
        {
          "internalType": "uint256",
          "name": "tokenId",
          "type": "uint256"
        }
      ],
      "name": "rebirth",
      "outputs": [],
      "stateMutability": "nonpayable",
      "type": "function"
    },
    {
      "inputs": [
        {
          "internalType": "bytes32",
          "name": "role",
          "type": "bytes32"
        },
        {
          "internalType": "address",
          "name": "account",
          "type": "address"
        }
      ],
      "name": "renounceRole",
      "outputs": [],
      "stateMutability": "nonpayable",
      "type": "function"
    },
    {
      "inputs": [
        {
          "internalType": "string",
          "name": "videoUrl",
          "type": "string"
        }
      ],
      "name": "revealStage",
      "outputs": [],
      "stateMutability": "nonpayable",
      "type": "function"
    },
    {
      "inputs": [
        {
          "internalType": "bytes32",
          "name": "role",
          "type": "bytes32"
        },
        {
          "internalType": "address",
          "name": "account",
          "type": "address"
        }
      ],
      "name": "revokeRole",
      "outputs": [],
      "stateMutability": "nonpayable",
      "type": "function"
    },
    {
      "inputs": [
        {
          "internalType": "uint256",
          "name": "_tokenId",
          "type": "uint256"
        },
        {
          "internalType": "uint256",
          "name": "_salePrice",
          "type": "uint256"
        }
      ],
      "name": "royaltyInfo",
      "outputs": [
        {
          "internalType": "address",
          "name": "",
          "type": "address"
        },
        {
          "internalType": "uint256",
          "name": "",
          "type": "uint256"
        }
      ],
      "stateMutability": "view",
      "type": "function"
    },
    {
      "inputs": [
        {
          "internalType": "address",
          "name": "to",
          "type": "address"
        }
      ],
      "name": "safeMint",
      "outputs": [],
      "stateMutability": "nonpayable",
      "type": "function"
    },
    {
      "inputs": [
        {
          "internalType": "address",
          "name": "from",
          "type": "address"
        },
        {
          "internalType": "address",
          "name": "to",
          "type": "address"
        },
        {
          "internalType": "uint256",
          "name": "tokenId",
          "type": "uint256"
        }
      ],
      "name": "safeTransferFrom",
      "outputs": [],
      "stateMutability": "nonpayable",
      "type": "function"
    },
    {
      "inputs": [
        {
          "internalType": "address",
          "name": "from",
          "type": "address"
        },
        {
          "internalType": "address",
          "name": "to",
          "type": "address"
        },
        {
          "internalType": "uint256",
          "name": "tokenId",
          "type": "uint256"
        },
        {
          "internalType": "bytes",
          "name": "_data",
          "type": "bytes"
        }
      ],
      "name": "safeTransferFrom",
      "outputs": [],
      "stateMutability": "nonpayable",
      "type": "function"
    },
    {
      "inputs": [
        {
          "internalType": "address",
          "name": "operator",
          "type": "address"
        },
        {
          "internalType": "bool",
          "name": "approved",
          "type": "bool"
        }
      ],
      "name": "setApprovalForAll",
      "outputs": [],
      "stateMutability": "nonpayable",
      "type": "function"
    },
    {
      "inputs": [
        {
          "internalType": "uint256",
          "name": "price",
          "type": "uint256"
        }
      ],
      "name": "setProcessingPrice",
      "outputs": [],
      "stateMutability": "nonpayable",
      "type": "function"
    },
    {
      "inputs": [
        {
          "internalType": "address",
          "name": "_receiver",
          "type": "address"
        },
        {
          "internalType": "uint96",
          "name": "_royaltyFeesInBips",
          "type": "uint96"
        }
      ],
      "name": "setRoyaltyInfo",
      "outputs": [],
      "stateMutability": "nonpayable",
      "type": "function"
    },
    {
      "inputs": [],
      "name": "stage",
      "outputs": [
        {
          "internalType": "enum DiamondDawn.Stage",
          "name": "",
          "type": "uint8"
        }
      ],
      "stateMutability": "view",
      "type": "function"
    },
    {
      "inputs": [
        {
          "internalType": "bytes4",
          "name": "interfaceId",
          "type": "bytes4"
        }
      ],
      "name": "supportsInterface",
      "outputs": [
        {
          "internalType": "bool",
          "name": "",
          "type": "bool"
        }
      ],
      "stateMutability": "view",
      "type": "function"
    },
    {
      "inputs": [],
      "name": "symbol",
      "outputs": [
        {
          "internalType": "string",
          "name": "",
          "type": "string"
        }
      ],
      "stateMutability": "view",
      "type": "function"
    },
    {
      "inputs": [
        {
          "internalType": "uint256",
          "name": "index",
          "type": "uint256"
        }
      ],
      "name": "tokenByIndex",
      "outputs": [
        {
          "internalType": "uint256",
          "name": "",
          "type": "uint256"
        }
      ],
      "stateMutability": "view",
      "type": "function"
    },
    {
      "inputs": [
        {
          "internalType": "address",
          "name": "owner",
          "type": "address"
        },
        {
          "internalType": "uint256",
          "name": "index",
          "type": "uint256"
        }
      ],
      "name": "tokenOfOwnerByIndex",
      "outputs": [
        {
          "internalType": "uint256",
          "name": "",
          "type": "uint256"
        }
      ],
      "stateMutability": "view",
      "type": "function"
    },
    {
      "inputs": [
        {
          "internalType": "uint256",
          "name": "tokenId",
          "type": "uint256"
        }
      ],
      "name": "tokenURI",
      "outputs": [
        {
          "internalType": "string",
          "name": "",
          "type": "string"
        }
      ],
      "stateMutability": "view",
      "type": "function"
    },
    {
      "inputs": [],
      "name": "totalSupply",
      "outputs": [
        {
          "internalType": "uint256",
          "name": "",
          "type": "uint256"
        }
      ],
      "stateMutability": "view",
      "type": "function"
    },
    {
      "inputs": [
        {
          "internalType": "address",
          "name": "from",
          "type": "address"
        },
        {
          "internalType": "address",
          "name": "to",
          "type": "address"
        },
        {
          "internalType": "uint256",
          "name": "tokenId",
          "type": "uint256"
        }
      ],
      "name": "transferFrom",
      "outputs": [],
      "stateMutability": "nonpayable",
      "type": "function"
    },
    {
      "inputs": [],
      "name": "unpause",
      "outputs": [],
      "stateMutability": "nonpayable",
      "type": "function"
    },
    {
      "inputs": [
        {
          "internalType": "address",
          "name": "_owner",
          "type": "address"
        }
      ],
      "name": "walletOfOwner",
      "outputs": [
        {
          "internalType": "uint256[]",
          "name": "",
          "type": "uint256[]"
        }
      ],
      "stateMutability": "view",
      "type": "function"
    }
  ],
  "bytecode": "0x60806040523480156200001157600080fd5b5060405162004a0b38038062004a0b8339810160408190526200003491620006c0565b604080518082018252600b81526a2234b0b6b7b7322230bbb760a91b602080830191825283518085019094526002845261111160f21b90840152815191929162000081916000916200061a565b508051620000979060019060208401906200061a565b50506008805460ff1916905550620000b16000336200014b565b620000dd7f65d7a28e3265b37a6474929f336521b332c1681b933f6cb9f3376673440d862a336200014b565b620001097f9f2df0fed2c77648de5860a4cc508cd0818c85b8b8a1ab4ceeef8d981c8956a6336200014b565b336000818152601060205260409020805460ff19166001179055600f805461ffff191690556200013a9082620001f0565b620001446200020e565b50620008a1565b60008281526009602090815260408083206001600160a01b038516845290915290205460ff16620001ec5760008281526009602090815260408083206001600160a01b03851684529091529020805460ff19166001179055620001ab3390565b6001600160a01b0316816001600160a01b0316837f2f8788117e7eff1d82e926ec794901d17c78024a50270940304540a733656f0d60405160405180910390a45b5050565b6000620001fd81620002ad565b620002098383620002bc565b505050565b60085460ff16156200025a5760405162461bcd60e51b815260206004820152601060248201526f14185d5cd8589b194e881c185d5cd95960821b60448201526064015b60405180910390fd5b6008805460ff191660011790557f62e78cea01bee320cd4e420270b5ea74000d11b0c9f74754ebdbfc544b05a258620002903390565b6040516001600160a01b03909116815260200160405180910390a1565b620002b98133620003bd565b50565b6127106001600160601b03821611156200032c5760405162461bcd60e51b815260206004820152602a60248201527f455243323938313a20726f79616c7479206665652077696c6c206578636565646044820152692073616c65507269636560b01b606482015260840162000251565b6001600160a01b038216620003845760405162461bcd60e51b815260206004820152601960248201527f455243323938313a20696e76616c696420726563656976657200000000000000604482015260640162000251565b604080518082019091526001600160a01b039092168083526001600160601b039091166020909201829052600160a01b90910217600655565b60008281526009602090815260408083206001600160a01b038516845290915290205460ff16620001ec5762000409816001600160a01b031660146200045a60201b620019651760201c565b6200041f836020620019656200045a821b17811c565b604051602001620004329291906200071e565b60408051601f198184030181529082905262461bcd60e51b8252620002519160040162000797565b606060006200046b836002620007e2565b6200047890600262000804565b6001600160401b038111156200049257620004926200081f565b6040519080825280601f01601f191660200182016040528015620004bd576020820181803683370190505b509050600360fc1b81600081518110620004db57620004db62000835565b60200101906001600160f81b031916908160001a905350600f60fb1b816001815181106200050d576200050d62000835565b60200101906001600160f81b031916908160001a905350600062000533846002620007e2565b6200054090600162000804565b90505b6001811115620005c2576f181899199a1a9b1b9c1cb0b131b232b360811b85600f166010811062000578576200057862000835565b1a60f81b82828151811062000591576200059162000835565b60200101906001600160f81b031916908160001a90535060049490941c93620005ba816200084b565b905062000543565b508315620006135760405162461bcd60e51b815260206004820181905260248201527f537472696e67733a20686578206c656e67746820696e73756666696369656e74604482015260640162000251565b9392505050565b828054620006289062000865565b90600052602060002090601f0160209004810192826200064c576000855562000697565b82601f106200066757805160ff191683800117855562000697565b8280016001018555821562000697579182015b82811115620006975782518255916020019190600101906200067a565b50620006a5929150620006a9565b5090565b5b80821115620006a55760008155600101620006aa565b600060208284031215620006d357600080fd5b81516001600160601b03811681146200061357600080fd5b60005b8381101562000708578181015183820152602001620006ee565b8381111562000718576000848401525b50505050565b7f416363657373436f6e74726f6c3a206163636f756e742000000000000000000081526000835162000758816017850160208801620006eb565b7001034b99036b4b9b9b4b733903937b6329607d1b60179184019182015283516200078b816028840160208801620006eb565b01602801949350505050565b6020815260008251806020840152620007b8816040850160208701620006eb565b601f01601f19169190910160400192915050565b634e487b7160e01b600052601160045260246000fd5b6000816000190483118215151615620007ff57620007ff620007cc565b500290565b600082198211156200081a576200081a620007cc565b500190565b634e487b7160e01b600052604160045260246000fd5b634e487b7160e01b600052603260045260246000fd5b6000816200085d576200085d620007cc565b506000190190565b600181811c908216806200087a57607f821691505b6020821081036200089b57634e487b7160e01b600052602260045260246000fd5b50919050565b61415a80620008b16000396000f3fe6080604052600436106102ff5760003560e01c80635c975abb11610190578063b88d4fde116100dc578063d1ef5b2c11610095578063e63ab1e91161006f578063e63ab1e914610921578063e8a77d1714610955578063e985e9c514610975578063f4273b321461060257600080fd5b8063d1ef5b2c1461089d578063d5391393146108cd578063d547741f1461090157600080fd5b8063b88d4fde14610807578063bc6399e714610827578063bf72b63f14610843578063c040e6b814610856578063c87b56dd1461087d578063cc1169791461082757600080fd5b80637263cfe21161014957806395d89b411161012357806395d89b411461079d578063a217fddf146107b2578063a22cb465146107c7578063abdfe275146107e757600080fd5b80637263cfe2146107485780638456cb591461076857806391d148541461077d57600080fd5b80635c975abb146106715780635ed6ac4f146106895780636352211e146106a85780636a1eb87e146106c85780636c3c8dba146106e457806370a082311461072857600080fd5b80632a55205a1161024f57806342842e0e1161020857806344e5d1df116101e257806344e5d1df146106025780634d4748981461061e5780634f6ccce714610631578063546b15c11461065157600080fd5b806342842e0e146105a257806342966c68146105c2578063438b6300146105e257600080fd5b80632a55205a146104ce5780632f2ff15d1461050d5780632f745c591461052d57806336568abe1461054d5780633f4ba83a1461056d57806340d097c31461058257600080fd5b8063095ea7b3116102bc57806315afd8f81161029657806315afd8f81461044a57806318160ddd1461045f57806323b872dd1461047e578063248a9ca31461049e57600080fd5b8063095ea7b3146103f55780630a49008d14610415578063140865f31461043557600080fd5b806301ffc9a714610304578063021b21a81461033957806302fa7c471461036657806306fdde0314610388578063081812fc146103aa57806309260db7146103e2575b600080fd5b34801561031057600080fd5b5061032461031f36600461345c565b6109be565b60405190151581526020015b60405180910390f35b34801561034557600080fd5b50610359610354366004613495565b6109cf565b60405161033091906134b0565b34801561037257600080fd5b506103866103813660046134f4565b6109f3565b005b34801561039457600080fd5b5061039d610a0d565b604051610330919061358f565b3480156103b657600080fd5b506103ca6103c53660046135a2565b610a9f565b6040516001600160a01b039091168152602001610330565b6103866103f03660046135a2565b610b39565b34801561040157600080fd5b506103866104103660046135bb565b610bb4565b34801561042157600080fd5b50610386610430366004613684565b610cc4565b34801561044157600080fd5b50610386610d1e565b34801561045657600080fd5b50610386610d6f565b34801561046b57600080fd5b50600c545b604051908152602001610330565b34801561048a57600080fd5b506103866104993660046136cd565b610dbd565b3480156104aa57600080fd5b506104706104b93660046135a2565b60009081526009602052604090206001015490565b3480156104da57600080fd5b506104ee6104e9366004613709565b610def565b604080516001600160a01b039093168352602083019190915201610330565b34801561051957600080fd5b5061038661052836600461372b565b610e9b565b34801561053957600080fd5b506104706105483660046135bb565b610ec0565b34801561055957600080fd5b5061038661056836600461372b565b610f56565b34801561057957600080fd5b50610386610fd4565b34801561058e57600080fd5b5061038661059d366004613495565b611009565b3480156105ae57600080fd5b506103866105bd3660046136cd565b611058565b3480156105ce57600080fd5b506103866105dd3660046135a2565b611073565b3480156105ee57600080fd5b506103596105fd366004613495565b6110fc565b34801561060e57600080fd5b5061047067058d15e17628000081565b61038661062c3660046135a2565b61119e565b34801561063d57600080fd5b5061047061064c3660046135a2565b611342565b34801561065d57600080fd5b5061038661066c366004613684565b6113d5565b34801561067d57600080fd5b5060085460ff16610324565b34801561069557600080fd5b50600f5461032490610100900460ff1681565b3480156106b457600080fd5b506103ca6106c33660046135a2565b6113e6565b3480156106d457600080fd5b50610470670853a0d2313c000081565b3480156106f057600080fd5b5061071b6106ff3660046135a2565b6000908152601260205260409020546301000000900460ff1690565b604051610330919061376d565b34801561073457600080fd5b50610470610743366004613495565b61145d565b34801561075457600080fd5b50610386610763366004613787565b6114e4565b34801561077457600080fd5b50610386611557565b34801561078957600080fd5b5061032461079836600461372b565b611589565b3480156107a957600080fd5b5061039d6115b4565b3480156107be57600080fd5b50610470600081565b3480156107d357600080fd5b506103866107e2366004613834565b6115c3565b3480156107f357600080fd5b506103866108023660046135a2565b6115ce565b34801561081357600080fd5b50610386610822366004613865565b6115d9565b34801561083357600080fd5b506104706702c68af0bb14000081565b6103866108513660046135a2565b611612565b34801561086257600080fd5b50600f546108709060ff1681565b60405161033091906138f5565b34801561088957600080fd5b5061039d6108983660046135a2565b611637565b3480156108a957600080fd5b506103246108b8366004613495565b60106020526000908152604090205460ff1681565b3480156108d957600080fd5b506104707f9f2df0fed2c77648de5860a4cc508cd0818c85b8b8a1ab4ceeef8d981c8956a681565b34801561090d57600080fd5b5061038661091c36600461372b565b6117b7565b34801561092d57600080fd5b506104707f65d7a28e3265b37a6474929f336521b332c1681b933f6cb9f3376673440d862a81565b34801561096157600080fd5b506103866109703660046135a2565b6117dc565b34801561098157600080fd5b50610324610990366004613903565b6001600160a01b03918216600090815260056020908152604080832093909416825291909152205460ff1690565b60006109c982611b08565b92915050565b6001600160a01b03811660009081526014602052604090206060906109c990611b2d565b60006109fe81611b3a565b610a088383611b44565b505050565b606060008054610a1c9061392d565b80601f0160208091040260200160405190810160405280929190818152602001828054610a489061392d565b8015610a955780601f10610a6a57610100808354040283529160200191610a95565b820191906000526020600020905b815481529060010190602001808311610a7857829003601f168201915b5050505050905090565b6000818152600260205260408120546001600160a01b0316610b1d5760405162461bcd60e51b815260206004820152602c60248201527f4552433732313a20617070726f76656420717565727920666f72206e6f6e657860448201526b34b9ba32b73a103a37b5b2b760a11b60648201526084015b60405180910390fd5b506000908152600460205260409020546001600160a01b031690565b6001610b43611c41565b610b4c81611c6a565b610b5e8267058d15e176280000611ce6565b6000610b68611f07565b9050806003811115610b7c57610b7c613757565b6000848152601260205260409020805463ff00000019166301000000836003811115610baa57610baa613757565b0217905550505050565b6000610bbf826113e6565b9050806001600160a01b0316836001600160a01b031603610c2c5760405162461bcd60e51b815260206004820152602160248201527f4552433732313a20617070726f76616c20746f2063757272656e74206f776e656044820152603960f91b6064820152608401610b14565b336001600160a01b0382161480610c485750610c488133610990565b610cba5760405162461bcd60e51b815260206004820152603860248201527f4552433732313a20617070726f76652063616c6c6572206973206e6f74206f7760448201527f6e6572206e6f7220617070726f76656420666f7220616c6c00000000000000006064820152608401610b14565b610a088383611f51565b610ccc611fbf565b610cd581611fdc565b600f546040517f8d9831e92243e534bb29615dac95a7e7cc01641bc3ba995b6f82d3c4816c788a91610d139160ff8083169261010090041690613967565b60405180910390a150565b600f805461ffff1916908190556040517f8d9831e92243e534bb29615dac95a7e7cc01641bc3ba995b6f82d3c4816c788a91610d6591600091610100900460ff1690613967565b60405180910390a1565b610d77612038565b610d7f612051565b600f546040517f8d9831e92243e534bb29615dac95a7e7cc01641bc3ba995b6f82d3c4816c788a91610d659160ff8083169261010090041690613967565b610dc8335b8261208f565b610de45760405162461bcd60e51b8152600401610b1490613984565b610a08838383612186565b60008281526007602090815260408083208151808301909252546001600160a01b038116808352600160a01b9091046001600160601b0316928201929092528291610e645750604080518082019091526006546001600160a01b0381168252600160a01b90046001600160601b031660208201525b602081015160009061271090610e83906001600160601b0316876139eb565b610e8d9190613a20565b915196919550909350505050565b600082815260096020526040902060010154610eb681611b3a565b610a08838361232d565b6000610ecb8361145d565b8210610f2d5760405162461bcd60e51b815260206004820152602b60248201527f455243373231456e756d657261626c653a206f776e657220696e646578206f7560448201526a74206f6620626f756e647360a81b6064820152608401610b14565b506001600160a01b03919091166000908152600a60209081526040808320938352929052205490565b6001600160a01b0381163314610fc65760405162461bcd60e51b815260206004820152602f60248201527f416363657373436f6e74726f6c3a2063616e206f6e6c792072656e6f756e636560448201526e103937b632b9903337b91039b2b63360891b6064820152608401610b14565b610fd082826123b3565b5050565b7f65d7a28e3265b37a6474929f336521b332c1681b933f6cb9f3376673440d862a610ffe81611b3a565b61100661241a565b50565b7f9f2df0fed2c77648de5860a4cc508cd0818c85b8b8a1ab4ceeef8d981c8956a661103381611b3a565b600061103e600e5490565b905061104e600e80546001019055565b610a0883826124a8565b610a08838383604051806020016040528060008152506115d9565b600361107d611c41565b61108681611c6a565b61108f826124c2565b61109882612539565b6000838152601260205260409020805460ff191660018360048111156110c0576110c0613757565b0217905550600082815260136020908152604080832080546001600160a01b03191633908117909155835260149091529020610a089083612554565b606060006111098361145d565b905060008167ffffffffffffffff811115611126576111266135e5565b60405190808252806020026020018201604052801561114f578160200160208202803683370190505b50905060005b82811015611196576111678582610ec0565b82828151811061117957611179613a34565b60209081029190910101528061118e81613a4a565b915050611155565b509392505050565b60006111a8611c41565b6111b181611c6a565b3360009081526010602052604090205460ff166112205760405162461bcd60e51b815260206004820152602760248201527f546865206d696e6572206973206e6f7420616c6c6f77656420746f206d696e7460448201526620746f6b656e7360c81b6064820152608401610b14565b61122982612560565b611233823461258b565b600061123e600e5490565b905061124e600e80546001019055565b61125833826124a8565b604080516080810190915280600081526001851015602082015260028514604082015260600160039052600082815260126020526040902081518154829060ff191660018360048111156112ae576112ae613757565b02179055506020820151815460408401511515620100000262ff000019921515610100029290921662ffff00199091161717808255606083015190829063ff0000001916630100000083600381111561130957611309613757565b02179055509050506010600061131c3390565b6001600160a01b031681526020810191909152604001600020805460ff19169055505050565b600061134d600c5490565b82106113b05760405162461bcd60e51b815260206004820152602c60248201527f455243373231456e756d657261626c653a20676c6f62616c20696e646578206f60448201526b7574206f6620626f756e647360a01b6064820152608401610b14565b600c82815481106113c3576113c3613a34565b90600052602060002001549050919050565b6113dd610d6f565b61100681610cc4565b6000818152600260205260408120546001600160a01b0316806109c95760405162461bcd60e51b815260206004820152602960248201527f4552433732313a206f776e657220717565727920666f72206e6f6e657869737460448201526832b73a103a37b5b2b760b91b6064820152608401610b14565b60006001600160a01b0382166114c85760405162461bcd60e51b815260206004820152602a60248201527f4552433732313a2062616c616e636520717565727920666f7220746865207a65604482015269726f206164647265737360b01b6064820152608401610b14565b506001600160a01b031660009081526003602052604090205490565b60006114ef81611b3a565b60005b8251811015610a085760016010600085848151811061151357611513613a34565b6020908102919091018101516001600160a01b03168252810191909152604001600020805460ff19169115159190911790558061154f81613a4a565b9150506114f2565b7f65d7a28e3265b37a6474929f336521b332c1681b933f6cb9f3376673440d862a61158181611b3a565b611006612616565b60009182526009602090815260408084206001600160a01b0393909316845291905290205460ff1690565b606060018054610a1c9061392d565b610fd0338383612691565b6000610fd081611b3a565b6115e4335b8361208f565b6116005760405162461bcd60e51b8152600401610b1490613984565b61160c8484848461275f565b50505050565b600261161c611c41565b61162581611c6a565b610fd082670853a0d2313c0000611ce6565b6060600061164483612792565b6000848152601260205260408120549192509061178c908390819061167c9060ff16600481111561167757611677613757565b612809565b6000888152601260205260409020546116aa906301000000900460ff16600381111561167757611677613757565b600089815260126020526040902054610100900460ff166116e8576040518060400160405280600581526020016466616c736560d81b815250611706565b604051806040016040528060048152602001637472756560e01b8152505b60008a81526012602052604090205462010000900460ff16611745576040518060400160405280600581526020016466616c736560d81b815250611763565b604051806040016040528060048152602001637472756560e01b8152505b60405160200161177896959493929190613a7f565b60405160208183030381529060405261290a565b90508060405160200161179f9190613c08565b60405160208183030381529060405292505050919050565b6000828152600960205260409020600101546117d281611b3a565b610a0883836123b3565b6003600f5460ff1660048111156117f5576117f5613757565b1480156118095750600f54610100900460ff165b8061182a57506004600f5460ff16600481111561182857611828613757565b145b6118465760405162461bcd60e51b8152600401610b1490613c4d565b6000818152601360205260409020546001600160a01b031680336001600160a01b0316146040516020016118c3907f52656269727468206661696c6564202d206f6e6c79206275726e65722069732081527f616c6c6f77656420746f20706572666f726d20726562697274680000000000006020820152603a0190565b604051602081830303815290604052906118f05760405162461bcd60e51b8152600401610b14919061358f565b50600082815260136020908152604080832080546001600160a01b0319169055338352601490915290206119249083612a5d565b5061192e82612539565b6000838152601260205260409020805460ff1916600183600481111561195657611956613757565b0217905550610fd033836124a8565b606060006119748360026139eb565b61197f906002613c9c565b67ffffffffffffffff811115611997576119976135e5565b6040519080825280601f01601f1916602001820160405280156119c1576020820181803683370190505b509050600360fc1b816000815181106119dc576119dc613a34565b60200101906001600160f81b031916908160001a905350600f60fb1b81600181518110611a0b57611a0b613a34565b60200101906001600160f81b031916908160001a9053506000611a2f8460026139eb565b611a3a906001613c9c565b90505b6001811115611ab2576f181899199a1a9b1b9c1cb0b131b232b360811b85600f1660108110611a6e57611a6e613a34565b1a60f81b828281518110611a8457611a84613a34565b60200101906001600160f81b031916908160001a90535060049490941c93611aab81613cb4565b9050611a3d565b508315611b015760405162461bcd60e51b815260206004820181905260248201527f537472696e67733a20686578206c656e67746820696e73756666696369656e746044820152606401610b14565b9392505050565b60006001600160e01b0319821663780e9d6360e01b14806109c957506109c982612a69565b60606000611b0183612a8e565b6110068133612aea565b6127106001600160601b0382161115611bb25760405162461bcd60e51b815260206004820152602a60248201527f455243323938313a20726f79616c7479206665652077696c6c206578636565646044820152692073616c65507269636560b01b6064820152608401610b14565b6001600160a01b038216611c085760405162461bcd60e51b815260206004820152601960248201527f455243323938313a20696e76616c6964207265636569766572000000000000006044820152606401610b14565b604080518082019091526001600160a01b039092168083526001600160601b039091166020909201829052600160a01b90910217600655565b600f54610100900460ff16611c685760405162461bcd60e51b8152600401610b1490613c4d565b565b806004811115611c7c57611c7c613757565b600f5460ff166004811115611c9357611c93613757565b14611ca982600481111561167757611677613757565b604051602001611cb99190613ccb565b60405160208183030381529060405290610fd05760405162461bcd60e51b8152600401610b14919061358f565b611cef336115de565b611d525760405162461bcd60e51b815260206004820152602e60248201527f4552433732313a2063616c6c6572206973206e6f7420746f6b656e206f776e6560448201526d1c881b9bdc88185c1c1c9bdd995960921b6064820152608401610b14565b600f5460019060ff166004811115611d6c57611d6c613757565b611d769190613d28565b60008381526012602052604090205460ff166004811115611d9957611d99613757565b600f54911490611dc49060019060ff166004811115611dba57611dba613757565b6116779190613d28565b604051602001611dd49190613d3f565b60405160208183030381529060405290611e015760405162461bcd60e51b8152600401610b14919061358f565b506001600f5460ff166004811115611e1b57611e1b613757565b148015611e3c5750600082815260126020526040902054610100900460ff16155b80611e7d57506002600f5460ff166004811115611e5b57611e5b613757565b148015611e7d575060008281526012602052604090205462010000900460ff16155b15611ecd57803414611e8e82612809565b604051602001611e9e9190613db1565b60405160208183030381529060405290611ecb5760405162461bcd60e51b8152600401610b14919061358f565b505b611ed682612539565b6000838152601260205260409020805460ff19166001836004811115611efe57611efe613757565b02179055505050565b600080611f146064612b4e565b905060228111611f2657600091505090565b60238110158015611f38575060468111155b15611f4557600191505090565b600291505090565b5090565b600081815260046020526040902080546001600160a01b0319166001600160a01b0384169081179091558190611f86826113e6565b6001600160a01b03167f8c5be1e5ebec7d5bd14f71427d1e84f3dd0314c0f7b2291e5b200ac8c7c3b92560405160405180910390a45050565b6000611fca81611b3a565b50600f805461ff001916610100179055565b6000611fe781611b3a565b600f54829060119060009060ff16600481111561200657612006613757565b600481111561201757612017613757565b81526020019081526020016000209080519060200190610a089291906133b6565b600061204381611b3a565b50600f805461ff0019169055565b600061205c81611b3a565b600f5461206b9060ff16612b90565b600f805460ff1916600183600481111561208757612087613757565b021790555050565b6000818152600260205260408120546001600160a01b03166121085760405162461bcd60e51b815260206004820152602c60248201527f4552433732313a206f70657261746f7220717565727920666f72206e6f6e657860448201526b34b9ba32b73a103a37b5b2b760a11b6064820152608401610b14565b6000612113836113e6565b9050806001600160a01b0316846001600160a01b0316148061215a57506001600160a01b0380821660009081526005602090815260408083209388168352929052205460ff165b8061217e5750836001600160a01b031661217384610a9f565b6001600160a01b0316145b949350505050565b826001600160a01b0316612199826113e6565b6001600160a01b0316146121fd5760405162461bcd60e51b815260206004820152602560248201527f4552433732313a207472616e736665722066726f6d20696e636f72726563742060448201526437bbb732b960d91b6064820152608401610b14565b6001600160a01b03821661225f5760405162461bcd60e51b8152602060048201526024808201527f4552433732313a207472616e7366657220746f20746865207a65726f206164646044820152637265737360e01b6064820152608401610b14565b61226a838383612c1d565b612275600082611f51565b6001600160a01b038316600090815260036020526040812080546001929061229e908490613d28565b90915550506001600160a01b03821660009081526003602052604081208054600192906122cc908490613c9c565b909155505060008181526002602052604080822080546001600160a01b0319166001600160a01b0386811691821790925591518493918716917fddf252ad1be2c89b69c2b068fc378daa952ba7f163c4a11628f55a4df523b3ef91a4505050565b6123378282611589565b610fd05760008281526009602090815260408083206001600160a01b03851684529091529020805460ff1916600117905561236f3390565b6001600160a01b0316816001600160a01b0316837f2f8788117e7eff1d82e926ec794901d17c78024a50270940304540a733656f0d60405160405180910390a45050565b6123bd8282611589565b15610fd05760008281526009602090815260408083206001600160a01b0385168085529252808320805460ff1916905551339285917ff6391f5c32d9c69d2a47ea670b442974b53935d1edc7fd64eb21e047a839171b9190a45050565b60085460ff166124635760405162461bcd60e51b815260206004820152601460248201527314185d5cd8589b194e881b9bdd081c185d5cd95960621b6044820152606401610b14565b6008805460ff191690557f5db9ee0a495bf2e6ff9c91a7834c1ba4fdd244a5e8aa4e537bd38aeae4b073aa335b6040516001600160a01b039091168152602001610d65565b610fd0828260405180602001604052806000815250612c6e565b6124cb33610dc2565b6125305760405162461bcd60e51b815260206004820152603060248201527f4552433732314275726e61626c653a2063616c6c6572206973206e6f74206f7760448201526f1b995c881b9bdc88185c1c1c9bdd995960821b6064820152608401610b14565b61100681612ca1565b6000818152601260205260408120546109c99060ff16612b90565b6000611b018383612d48565b61256c60016004613d28565b81111561257b60016004611dba565b604051602001611cb99190613e02565b6702c68af0bb14000082156125af576125ac6702c68af0bb14000082613c9c565b90505b60018311156125cd576125ca67058d15e17628000082613c9c565b90505b8082146125d982612809565b6040516020016125e99190613db1565b6040516020818303038152906040529061160c5760405162461bcd60e51b8152600401610b14919061358f565b60085460ff161561265c5760405162461bcd60e51b815260206004820152601060248201526f14185d5cd8589b194e881c185d5cd95960821b6044820152606401610b14565b6008805460ff191660011790557f62e78cea01bee320cd4e420270b5ea74000d11b0c9f74754ebdbfc544b05a2586124903390565b816001600160a01b0316836001600160a01b0316036126f25760405162461bcd60e51b815260206004820152601960248201527f4552433732313a20617070726f766520746f2063616c6c6572000000000000006044820152606401610b14565b6001600160a01b03838116600081815260056020908152604080832094871680845294825291829020805460ff191686151590811790915591519182527f17307eab39ab6107e8899845ad3d59bd9653f200f220920489ca2b5937696c31910160405180910390a3505050565b61276a848484612186565b61277684848484612d97565b61160c5760405162461bcd60e51b8152600401610b1490613e64565b606061279c612e98565b6000838152601260205260408120546011919060ff1660048111156127c3576127c3613757565b60048111156127d4576127d4613757565b81526020019081526020016000206040516020016127f3929190613eb6565b6040516020818303038152906040529050919050565b6060816000036128305750506040805180820190915260018152600360fc1b602082015290565b8160005b811561285a578061284481613a4a565b91506128539050600a83613a20565b9150612834565b60008167ffffffffffffffff811115612875576128756135e5565b6040519080825280601f01601f19166020018201604052801561289f576020820181803683370190505b5090505b841561217e576128b4600183613d28565b91506128c1600a86613f66565b6128cc906030613c9c565b60f81b8183815181106128e1576128e1613a34565b60200101906001600160f81b031916908160001a905350612903600a86613a20565b94506128a3565b6060815160000361292957505060408051602081019091526000815290565b60006040518060600160405280604081526020016140e560409139905060006003845160026129589190613c9c565b6129629190613a20565b61296d9060046139eb565b67ffffffffffffffff811115612985576129856135e5565b6040519080825280601f01601f1916602001820160405280156129af576020820181803683370190505b509050600182016020820185865187015b80821015612a1b576003820191508151603f8160121c168501518453600184019350603f81600c1c168501518453600184019350603f8160061c168501518453600184019350603f81168501518453506001830192506129c0565b5050600386510660018114612a375760028114612a4a57612a52565b603d6001830353603d6002830353612a52565b603d60018303535b509195945050505050565b6000611b018383612eb8565b60006001600160e01b03198216637965db0b60e01b14806109c957506109c982612fab565b606081600001805480602002602001604051908101604052809291908181526020018280548015612ade57602002820191906000526020600020905b815481526020019060010190808311612aca575b50505050509050919050565b612af48282611589565b610fd057612b0c816001600160a01b03166014611965565b612b17836020611965565b604051602001612b28929190613f7a565b60408051601f198184030181529082905262461bcd60e51b8252610b149160040161358f565b6000814244604051602001612b6d929190918252602082015260400190565b6040516020818303038152906040528051906020012060001c6109c99190613f66565b60006004826004811115612ba657612ba6613757565b10612bb16004612809565b604051602001612bc19190613fef565b60405160208183030381529060405290612bee5760405162461bcd60e51b8152600401610b14919061358f565b50816004811115612c0157612c01613757565b612c0c906001613c9c565b60048111156109c9576109c9613757565b60085460ff1615612c635760405162461bcd60e51b815260206004820152601060248201526f14185d5cd8589b194e881c185d5cd95960821b6044820152606401610b14565b610a08838383612fd0565b612c788383613088565b612c856000848484612d97565b610a085760405162461bcd60e51b8152600401610b1490613e64565b6000612cac826113e6565b9050612cba81600084612c1d565b612cc5600083611f51565b6001600160a01b0381166000908152600360205260408120805460019290612cee908490613d28565b909155505060008281526002602052604080822080546001600160a01b0319169055518391906001600160a01b038416907fddf252ad1be2c89b69c2b068fc378daa952ba7f163c4a11628f55a4df523b3ef908390a45050565b6000818152600183016020526040812054612d8f575081546001818101845560008481526020808220909301849055845484825282860190935260409020919091556109c9565b5060006109c9565b60006001600160a01b0384163b15612e8d57604051630a85bd0160e11b81526001600160a01b0385169063150b7a0290612ddb903390899088908890600401614034565b6020604051808303816000875af1925050508015612e16575060408051601f3d908101601f19168201909252612e1391810190614071565b60015b612e73573d808015612e44576040519150601f19603f3d011682016040523d82523d6000602084013e612e49565b606091505b508051600003612e6b5760405162461bcd60e51b8152600401610b1490613e64565b805181602001fd5b6001600160e01b031916630a85bd0160e11b14905061217e565b506001949350505050565b60606040518060600160405280604081526020016140a560409139905090565b60008181526001830160205260408120548015612fa1576000612edc600183613d28565b8554909150600090612ef090600190613d28565b9050818114612f55576000866000018281548110612f1057612f10613a34565b9060005260206000200154905080876000018481548110612f3357612f33613a34565b6000918252602080832090910192909255918252600188019052604090208390555b8554869080612f6657612f6661408e565b6001900381819060005260206000200160009055905585600101600086815260200190815260200160002060009055600193505050506109c9565b60009150506109c9565b60006001600160e01b0319821663152a902d60e11b14806109c957506109c9826131d6565b6001600160a01b03831661302b5761302681600c80546000838152600d60205260408120829055600182018355919091527fdf6966c971051c3d54ec59162606531493a51404a002842f56009d7e5cf4a8c70155565b61304e565b816001600160a01b0316836001600160a01b03161461304e5761304e8382613226565b6001600160a01b03821661306557610a08816132c3565b826001600160a01b0316826001600160a01b031614610a0857610a088282613372565b6001600160a01b0382166130de5760405162461bcd60e51b815260206004820181905260248201527f4552433732313a206d696e7420746f20746865207a65726f20616464726573736044820152606401610b14565b6000818152600260205260409020546001600160a01b0316156131435760405162461bcd60e51b815260206004820152601c60248201527f4552433732313a20746f6b656e20616c7265616479206d696e746564000000006044820152606401610b14565b61314f60008383612c1d565b6001600160a01b0382166000908152600360205260408120805460019290613178908490613c9c565b909155505060008181526002602052604080822080546001600160a01b0319166001600160a01b03861690811790915590518392907fddf252ad1be2c89b69c2b068fc378daa952ba7f163c4a11628f55a4df523b3ef908290a45050565b60006001600160e01b031982166380ac58cd60e01b148061320757506001600160e01b03198216635b5e139f60e01b145b806109c957506301ffc9a760e01b6001600160e01b03198316146109c9565b600060016132338461145d565b61323d9190613d28565b6000838152600b6020526040902054909150808214613290576001600160a01b0384166000908152600a602090815260408083208584528252808320548484528184208190558352600b90915290208190555b506000918252600b602090815260408084208490556001600160a01b039094168352600a81528383209183525290812055565b600c546000906132d590600190613d28565b6000838152600d6020526040812054600c80549394509092849081106132fd576132fd613a34565b9060005260206000200154905080600c838154811061331e5761331e613a34565b6000918252602080832090910192909255828152600d9091526040808220849055858252812055600c8054806133565761335661408e565b6001900381819060005260206000200160009055905550505050565b600061337d8361145d565b6001600160a01b039093166000908152600a602090815260408083208684528252808320859055938252600b9052919091209190915550565b8280546133c29061392d565b90600052602060002090601f0160209004810192826133e4576000855561342a565b82601f106133fd57805160ff191683800117855561342a565b8280016001018555821561342a579182015b8281111561342a57825182559160200191906001019061340f565b50611f4d9291505b80821115611f4d5760008155600101613432565b6001600160e01b03198116811461100657600080fd5b60006020828403121561346e57600080fd5b8135611b0181613446565b80356001600160a01b038116811461349057600080fd5b919050565b6000602082840312156134a757600080fd5b611b0182613479565b6020808252825182820181905260009190848201906040850190845b818110156134e8578351835292840192918401916001016134cc565b50909695505050505050565b6000806040838503121561350757600080fd5b61351083613479565b915060208301356001600160601b038116811461352c57600080fd5b809150509250929050565b60005b8381101561355257818101518382015260200161353a565b8381111561160c5750506000910152565b6000815180845261357b816020860160208601613537565b601f01601f19169290920160200192915050565b602081526000611b016020830184613563565b6000602082840312156135b457600080fd5b5035919050565b600080604083850312156135ce57600080fd5b6135d783613479565b946020939093013593505050565b634e487b7160e01b600052604160045260246000fd5b604051601f8201601f1916810167ffffffffffffffff81118282101715613624576136246135e5565b604052919050565b600067ffffffffffffffff831115613646576136466135e5565b613659601f8401601f19166020016135fb565b905082815283838301111561366d57600080fd5b828260208301376000602084830101529392505050565b60006020828403121561369657600080fd5b813567ffffffffffffffff8111156136ad57600080fd5b8201601f810184136136be57600080fd5b61217e8482356020840161362c565b6000806000606084860312156136e257600080fd5b6136eb84613479565b92506136f960208501613479565b9150604084013590509250925092565b6000806040838503121561371c57600080fd5b50508035926020909101359150565b6000806040838503121561373e57600080fd5b8235915061374e60208401613479565b90509250929050565b634e487b7160e01b600052602160045260246000fd5b602081016004831061378157613781613757565b91905290565b6000602080838503121561379a57600080fd5b823567ffffffffffffffff808211156137b257600080fd5b818501915085601f8301126137c657600080fd5b8135818111156137d8576137d86135e5565b8060051b91506137e98483016135fb565b818152918301840191848101908884111561380357600080fd5b938501935b838510156138285761381985613479565b82529385019390850190613808565b98975050505050505050565b6000806040838503121561384757600080fd5b61385083613479565b91506020830135801515811461352c57600080fd5b6000806000806080858703121561387b57600080fd5b61388485613479565b935061389260208601613479565b925060408501359150606085013567ffffffffffffffff8111156138b557600080fd5b8501601f810187136138c657600080fd5b6138d58782356020840161362c565b91505092959194509250565b600581106138f1576138f1613757565b9052565b602081016109c982846138e1565b6000806040838503121561391657600080fd5b61391f83613479565b915061374e60208401613479565b600181811c9082168061394157607f821691505b60208210810361396157634e487b7160e01b600052602260045260246000fd5b50919050565b6040810161397582856138e1565b82151560208301529392505050565b60208082526031908201527f4552433732313a207472616e736665722063616c6c6572206973206e6f74206f6040820152701ddb995c881b9bdc88185c1c1c9bdd9959607a1b606082015260800190565b634e487b7160e01b600052601160045260246000fd5b6000816000190483118215151615613a0557613a056139d5565b500290565b634e487b7160e01b600052601260045260246000fd5b600082613a2f57613a2f613a0a565b500490565b634e487b7160e01b600052603260045260246000fd5b600060018201613a5c57613a5c6139d5565b5060010190565b60008151613a75818560208601613537565b9290920192915050565b7f7b226e616d65223a20224469616d6f6e64204461776e222c202264657363726981527f7074696f6e223a20225468697320697320746865206465736372697074696f6e60208201527f206f66204469616d6f6e64204461776e2050726f6a656374222c2022696d616760408201526432911d101160d91b606082015260008751613b11816065850160208c01613537565b741116101130b734b6b0ba34b7b72fbab936111d101160591b6065918401918201528751613b4681607a840160208c01613537565b6b01116101139ba30b3b2911d160a51b607a92909101918201528651613b73816086840160208b01613537565b613bfa613bec613be6613bca613bc4613bab613ba56086888a01016a016101139b430b832911d160ad1b8152600b0190565b8d613a63565b6c016101131baba30b13632911d1609d1b8152600d0190565b8a613a63565b6f01610113837b634b9b430b13632911d160851b815260100190565b87613a63565b61207d60f01b815260020190565b9a9950505050505050505050565b7f646174613a6170706c69636174696f6e2f6a736f6e3b6261736536342c000000815260008251613c4081601d850160208701613537565b91909101601d0192915050565b6020808252602f908201527f412073746167652073686f756c642062652061637469766520746f207065726660408201526e37b936903a3434b99030b1ba34b7b760891b606082015260800190565b60008219821115613caf57613caf6139d5565b500190565b600081613cc357613cc36139d5565b506000190190565b7302a34329039ba30b3b29039b437bab632103132960651b815260008251613cfa816014850160208701613537565b76103a37903832b93337b936903a3434b99030b1ba34b7b760491b6014939091019283015250602b01919050565b600082821015613d3a57613d3a6139d5565b500390565b7f546865206c6576656c206f6620746865206469616d6f6e642073686f756c642081526203132960ed1b602082015260008251613d83816023850160208701613537565b76103a37903832b93337b936903a3434b99030b1ba34b7b760491b6023939091019283015250603a01919050565b7f57726f6e67207061796d656e74202d207061796d656e742073686f756c6420628152620329d160ed1b602082015260008251613df5816023850160208701613537565b9190910160230192915050565b7f5075726368617365642070726f6365737365732073686f756c64206265206c65815273039b9903a3430b71037b91032b8bab0b6103a37960651b602082015260008251613e57816034850160208701613537565b9190910160340192915050565b60208082526032908201527f4552433732313a207472616e7366657220746f206e6f6e20455243373231526560408201527131b2b4bb32b91034b6b83632b6b2b73a32b960711b606082015260800190565b600083516020613ec98285838901613537565b845491840191600090600181811c9080831680613ee757607f831692505b8583108103613f0457634e487b7160e01b85526022600452602485fd5b808015613f185760018114613f2957613f56565b60ff19851688528388019550613f56565b60008b81526020902060005b85811015613f4e5781548a820152908401908801613f35565b505083880195505b50939a9950505050505050505050565b600082613f7557613f75613a0a565b500690565b7f416363657373436f6e74726f6c3a206163636f756e7420000000000000000000815260008351613fb2816017850160208801613537565b7001034b99036b4b9b9b4b733903937b6329607d1b6017918401918201528351613fe3816028840160208801613537565b01602801949350505050565b7f5468652073746167652073686f756c64206265206c657373207468616e20000081526000825161402781601e850160208701613537565b91909101601e0192915050565b6001600160a01b038581168252841660208201526040810183905260806060820181905260009061406790830184613563565b9695505050505050565b60006020828403121561408357600080fd5b8151611b0181613446565b634e487b7160e01b600052603160045260246000fdfe68747470733a2f2f747765657a6572732d7075626c69632e73332e616d617a6f6e6177732e636f6d2f6469616d6f6e642d6461776e2d6e66742d6d6f636b732f4142434445464748494a4b4c4d4e4f505152535455565758595a6162636465666768696a6b6c6d6e6f707172737475767778797a303132333435363738392b2fa26469706673582212202ff5683a3311923e351a32775138c99188239a3e8fb8952f8247a7d1b424676e64736f6c634300080e0033",
  "linkReferences": {},
  "deployedLinkReferences": {}
}