{
  "_format": "hh-sol-artifact-1",
  "contractName": "DiamondDawn",
  "sourceName": "contracts/DiamondDawn.sol",
  "abi": [
    {
      "inputs": [
        {
          "internalType": "uint96",
          "name": "_royaltyFeesInBips",
          "type": "uint96"
        }
      ],
      "stateMutability": "nonpayable",
      "type": "constructor"
    },
    {
      "anonymous": false,
      "inputs": [
        {
          "indexed": true,
          "internalType": "address",
          "name": "owner",
          "type": "address"
        },
        {
          "indexed": true,
          "internalType": "address",
          "name": "approved",
          "type": "address"
        },
        {
          "indexed": true,
          "internalType": "uint256",
          "name": "tokenId",
          "type": "uint256"
        }
      ],
      "name": "Approval",
      "type": "event"
    },
    {
      "anonymous": false,
      "inputs": [
        {
          "indexed": true,
          "internalType": "address",
          "name": "owner",
          "type": "address"
        },
        {
          "indexed": true,
          "internalType": "address",
          "name": "operator",
          "type": "address"
        },
        {
          "indexed": false,
          "internalType": "bool",
          "name": "approved",
          "type": "bool"
        }
      ],
      "name": "ApprovalForAll",
      "type": "event"
    },
    {
      "anonymous": false,
      "inputs": [
        {
          "indexed": false,
          "internalType": "address",
          "name": "account",
          "type": "address"
        }
      ],
      "name": "Paused",
      "type": "event"
    },
    {
      "anonymous": false,
      "inputs": [
        {
          "indexed": true,
          "internalType": "bytes32",
          "name": "role",
          "type": "bytes32"
        },
        {
          "indexed": true,
          "internalType": "bytes32",
          "name": "previousAdminRole",
          "type": "bytes32"
        },
        {
          "indexed": true,
          "internalType": "bytes32",
          "name": "newAdminRole",
          "type": "bytes32"
        }
      ],
      "name": "RoleAdminChanged",
      "type": "event"
    },
    {
      "anonymous": false,
      "inputs": [
        {
          "indexed": true,
          "internalType": "bytes32",
          "name": "role",
          "type": "bytes32"
        },
        {
          "indexed": true,
          "internalType": "address",
          "name": "account",
          "type": "address"
        },
        {
          "indexed": true,
          "internalType": "address",
          "name": "sender",
          "type": "address"
        }
      ],
      "name": "RoleGranted",
      "type": "event"
    },
    {
      "anonymous": false,
      "inputs": [
        {
          "indexed": true,
          "internalType": "bytes32",
          "name": "role",
          "type": "bytes32"
        },
        {
          "indexed": true,
          "internalType": "address",
          "name": "account",
          "type": "address"
        },
        {
          "indexed": true,
          "internalType": "address",
          "name": "sender",
          "type": "address"
        }
      ],
      "name": "RoleRevoked",
      "type": "event"
    },
    {
      "anonymous": false,
      "inputs": [
        {
          "indexed": true,
          "internalType": "address",
          "name": "from",
          "type": "address"
        },
        {
          "indexed": true,
          "internalType": "address",
          "name": "to",
          "type": "address"
        },
        {
          "indexed": true,
          "internalType": "uint256",
          "name": "tokenId",
          "type": "uint256"
        }
      ],
      "name": "Transfer",
      "type": "event"
    },
    {
      "anonymous": false,
      "inputs": [
        {
          "indexed": false,
          "internalType": "address",
          "name": "account",
          "type": "address"
        }
      ],
      "name": "Unpaused",
      "type": "event"
    },
    {
      "inputs": [],
      "name": "CUT_PRICE",
      "outputs": [
        {
          "internalType": "uint256",
          "name": "",
          "type": "uint256"
        }
      ],
      "stateMutability": "view",
      "type": "function"
    },
    {
      "inputs": [],
      "name": "DEFAULT_ADMIN_ROLE",
      "outputs": [
        {
          "internalType": "bytes32",
          "name": "",
          "type": "bytes32"
        }
      ],
      "stateMutability": "view",
      "type": "function"
    },
    {
      "inputs": [],
      "name": "MINING_PRICE",
      "outputs": [
        {
          "internalType": "uint256",
          "name": "",
          "type": "uint256"
        }
      ],
      "stateMutability": "view",
      "type": "function"
    },
    {
      "inputs": [],
      "name": "MINTER_ROLE",
      "outputs": [
        {
          "internalType": "bytes32",
          "name": "",
          "type": "bytes32"
        }
      ],
      "stateMutability": "view",
      "type": "function"
    },
    {
      "inputs": [],
      "name": "PAUSER_ROLE",
      "outputs": [
        {
          "internalType": "bytes32",
          "name": "",
          "type": "bytes32"
        }
      ],
      "stateMutability": "view",
      "type": "function"
    },
    {
      "inputs": [],
      "name": "POLISH_PRICE",
      "outputs": [
        {
          "internalType": "uint256",
          "name": "",
          "type": "uint256"
        }
      ],
      "stateMutability": "view",
      "type": "function"
    },
    {
      "inputs": [],
      "name": "PREPAID_CUT_PRICE",
      "outputs": [
        {
          "internalType": "uint256",
          "name": "",
          "type": "uint256"
        }
      ],
      "stateMutability": "view",
      "type": "function"
    },
    {
      "inputs": [],
      "name": "PREPAID_POLISH_PRICE",
      "outputs": [
        {
          "internalType": "uint256",
          "name": "",
          "type": "uint256"
        }
      ],
      "stateMutability": "view",
      "type": "function"
    },
    {
      "inputs": [
        {
          "internalType": "address[]",
          "name": "addresses",
          "type": "address[]"
        }
      ],
      "name": "addToAllowList",
      "outputs": [],
      "stateMutability": "nonpayable",
      "type": "function"
    },
    {
      "inputs": [
        {
          "internalType": "address",
          "name": "to",
          "type": "address"
        },
        {
          "internalType": "uint256",
          "name": "tokenId",
          "type": "uint256"
        }
      ],
      "name": "approve",
      "outputs": [],
      "stateMutability": "nonpayable",
      "type": "function"
    },
    {
      "inputs": [
        {
          "internalType": "address",
          "name": "owner",
          "type": "address"
        }
      ],
      "name": "balanceOf",
      "outputs": [
        {
          "internalType": "uint256",
          "name": "",
          "type": "uint256"
        }
      ],
      "stateMutability": "view",
      "type": "function"
    },
    {
      "inputs": [
        {
          "internalType": "uint256",
          "name": "tokenId",
          "type": "uint256"
        }
      ],
      "name": "burn",
      "outputs": [],
      "stateMutability": "nonpayable",
      "type": "function"
    },
    {
      "inputs": [],
      "name": "completeCurrentStage",
      "outputs": [],
      "stateMutability": "nonpayable",
      "type": "function"
    },
    {
      "inputs": [
        {
          "internalType": "uint256",
          "name": "tokenId",
          "type": "uint256"
        }
      ],
      "name": "cut",
      "outputs": [],
      "stateMutability": "payable",
      "type": "function"
    },
    {
      "inputs": [],
      "name": "dev__ResetStage",
      "outputs": [],
      "stateMutability": "nonpayable",
      "type": "function"
    },
    {
      "inputs": [
        {
          "internalType": "uint256",
          "name": "tokenId",
          "type": "uint256"
        }
      ],
      "name": "getApproved",
      "outputs": [
        {
          "internalType": "address",
          "name": "",
          "type": "address"
        }
      ],
      "stateMutability": "view",
      "type": "function"
    },
    {
      "inputs": [
        {
          "internalType": "bytes32",
          "name": "role",
          "type": "bytes32"
        }
      ],
      "name": "getRoleAdmin",
      "outputs": [
        {
          "internalType": "bytes32",
          "name": "",
          "type": "bytes32"
        }
      ],
      "stateMutability": "view",
      "type": "function"
    },
    {
      "inputs": [
        {
          "internalType": "bytes32",
          "name": "role",
          "type": "bytes32"
        },
        {
          "internalType": "address",
          "name": "account",
          "type": "address"
        }
      ],
      "name": "grantRole",
      "outputs": [],
      "stateMutability": "nonpayable",
      "type": "function"
    },
    {
      "inputs": [
        {
          "internalType": "bytes32",
          "name": "role",
          "type": "bytes32"
        },
        {
          "internalType": "address",
          "name": "account",
          "type": "address"
        }
      ],
      "name": "hasRole",
      "outputs": [
        {
          "internalType": "bool",
          "name": "",
          "type": "bool"
        }
      ],
      "stateMutability": "view",
      "type": "function"
    },
    {
      "inputs": [
        {
          "internalType": "address",
          "name": "owner",
          "type": "address"
        },
        {
          "internalType": "address",
          "name": "operator",
          "type": "address"
        }
      ],
      "name": "isApprovedForAll",
      "outputs": [
        {
          "internalType": "bool",
          "name": "",
          "type": "bool"
        }
      ],
      "stateMutability": "view",
      "type": "function"
    },
    {
      "inputs": [],
      "name": "isStageActive",
      "outputs": [
        {
          "internalType": "bool",
          "name": "",
          "type": "bool"
        }
      ],
      "stateMutability": "view",
      "type": "function"
    },
    {
      "inputs": [
        {
          "internalType": "uint256",
          "name": "processesPurchased",
          "type": "uint256"
        }
      ],
      "name": "mine",
      "outputs": [],
      "stateMutability": "payable",
      "type": "function"
    },
    {
      "inputs": [],
      "name": "name",
      "outputs": [
        {
          "internalType": "string",
          "name": "",
          "type": "string"
        }
      ],
      "stateMutability": "view",
      "type": "function"
    },
    {
      "inputs": [
        {
          "internalType": "uint256",
          "name": "tokenId",
          "type": "uint256"
        }
      ],
      "name": "ownerOf",
      "outputs": [
        {
          "internalType": "address",
          "name": "",
          "type": "address"
        }
      ],
      "stateMutability": "view",
      "type": "function"
    },
    {
      "inputs": [],
      "name": "pause",
      "outputs": [],
      "stateMutability": "nonpayable",
      "type": "function"
    },
    {
      "inputs": [],
      "name": "paused",
      "outputs": [
        {
          "internalType": "bool",
          "name": "",
          "type": "bool"
        }
      ],
      "stateMutability": "view",
      "type": "function"
    },
    {
      "inputs": [
        {
          "internalType": "uint256",
          "name": "tokenId",
          "type": "uint256"
        }
      ],
      "name": "polish",
      "outputs": [],
      "stateMutability": "payable",
      "type": "function"
    },
    {
      "inputs": [
        {
          "internalType": "uint256",
          "name": "tokenId",
          "type": "uint256"
        }
      ],
      "name": "rebirth",
      "outputs": [],
      "stateMutability": "nonpayable",
      "type": "function"
    },
    {
      "inputs": [
        {
          "internalType": "bytes32",
          "name": "role",
          "type": "bytes32"
        },
        {
          "internalType": "address",
          "name": "account",
          "type": "address"
        }
      ],
      "name": "renounceRole",
      "outputs": [],
      "stateMutability": "nonpayable",
      "type": "function"
    },
    {
      "inputs": [
        {
          "internalType": "string",
          "name": "videoUrl",
          "type": "string"
        }
      ],
      "name": "revealStage",
      "outputs": [],
      "stateMutability": "nonpayable",
      "type": "function"
    },
    {
      "inputs": [
        {
          "internalType": "bytes32",
          "name": "role",
          "type": "bytes32"
        },
        {
          "internalType": "address",
          "name": "account",
          "type": "address"
        }
      ],
      "name": "revokeRole",
      "outputs": [],
      "stateMutability": "nonpayable",
      "type": "function"
    },
    {
      "inputs": [
        {
          "internalType": "uint256",
          "name": "_tokenId",
          "type": "uint256"
        },
        {
          "internalType": "uint256",
          "name": "_salePrice",
          "type": "uint256"
        }
      ],
      "name": "royaltyInfo",
      "outputs": [
        {
          "internalType": "address",
          "name": "",
          "type": "address"
        },
        {
          "internalType": "uint256",
          "name": "",
          "type": "uint256"
        }
      ],
      "stateMutability": "view",
      "type": "function"
    },
    {
      "inputs": [
        {
          "internalType": "address",
          "name": "to",
          "type": "address"
        }
      ],
      "name": "safeMint",
      "outputs": [],
      "stateMutability": "nonpayable",
      "type": "function"
    },
    {
      "inputs": [
        {
          "internalType": "address",
          "name": "from",
          "type": "address"
        },
        {
          "internalType": "address",
          "name": "to",
          "type": "address"
        },
        {
          "internalType": "uint256",
          "name": "tokenId",
          "type": "uint256"
        }
      ],
      "name": "safeTransferFrom",
      "outputs": [],
      "stateMutability": "nonpayable",
      "type": "function"
    },
    {
      "inputs": [
        {
          "internalType": "address",
          "name": "from",
          "type": "address"
        },
        {
          "internalType": "address",
          "name": "to",
          "type": "address"
        },
        {
          "internalType": "uint256",
          "name": "tokenId",
          "type": "uint256"
        },
        {
          "internalType": "bytes",
          "name": "_data",
          "type": "bytes"
        }
      ],
      "name": "safeTransferFrom",
      "outputs": [],
      "stateMutability": "nonpayable",
      "type": "function"
    },
    {
      "inputs": [
        {
          "internalType": "address",
          "name": "operator",
          "type": "address"
        },
        {
          "internalType": "bool",
          "name": "approved",
          "type": "bool"
        }
      ],
      "name": "setApprovalForAll",
      "outputs": [],
      "stateMutability": "nonpayable",
      "type": "function"
    },
    {
      "inputs": [
        {
          "internalType": "uint256",
          "name": "price",
          "type": "uint256"
        }
      ],
      "name": "setProcessingPrice",
      "outputs": [],
      "stateMutability": "nonpayable",
      "type": "function"
    },
    {
      "inputs": [
        {
          "internalType": "address",
          "name": "_receiver",
          "type": "address"
        },
        {
          "internalType": "uint96",
          "name": "_royaltyFeesInBips",
          "type": "uint96"
        }
      ],
      "name": "setRoyaltyInfo",
      "outputs": [],
      "stateMutability": "nonpayable",
      "type": "function"
    },
    {
      "inputs": [],
      "name": "stage",
      "outputs": [
        {
          "internalType": "enum DiamondDawn.Stage",
          "name": "",
          "type": "uint8"
        }
      ],
      "stateMutability": "view",
      "type": "function"
    },
    {
      "inputs": [
        {
          "internalType": "bytes4",
          "name": "interfaceId",
          "type": "bytes4"
        }
      ],
      "name": "supportsInterface",
      "outputs": [
        {
          "internalType": "bool",
          "name": "",
          "type": "bool"
        }
      ],
      "stateMutability": "view",
      "type": "function"
    },
    {
      "inputs": [],
      "name": "symbol",
      "outputs": [
        {
          "internalType": "string",
          "name": "",
          "type": "string"
        }
      ],
      "stateMutability": "view",
      "type": "function"
    },
    {
      "inputs": [
        {
          "internalType": "uint256",
          "name": "tokenId",
          "type": "uint256"
        }
      ],
      "name": "tokenURI",
      "outputs": [
        {
          "internalType": "string",
          "name": "",
          "type": "string"
        }
      ],
      "stateMutability": "view",
      "type": "function"
    },
    {
      "inputs": [
        {
          "internalType": "address",
          "name": "from",
          "type": "address"
        },
        {
          "internalType": "address",
          "name": "to",
          "type": "address"
        },
        {
          "internalType": "uint256",
          "name": "tokenId",
          "type": "uint256"
        }
      ],
      "name": "transferFrom",
      "outputs": [],
      "stateMutability": "nonpayable",
      "type": "function"
    },
    {
      "inputs": [],
      "name": "unpause",
      "outputs": [],
      "stateMutability": "nonpayable",
      "type": "function"
    }
  ],
  "bytecode": "0x60806040523480156200001157600080fd5b5060405162006eab38038062006eab833981810160405281019062000037919062000a83565b6040518060400160405280600b81526020017f4469616d6f6e644461776e0000000000000000000000000000000000000000008152506040518060400160405280600281526020017f44440000000000000000000000000000000000000000000000000000000000008152508160009080519060200190620000bb92919062000985565b508060019080519060200190620000d492919062000985565b5050506000600860006101000a81548160ff021916908315150217905550620001076000801b336200023560201b60201c565b620001397f65d7a28e3265b37a6474929f336521b332c1681b933f6cb9f3376673440d862a336200023560201b60201c565b6200016b7f9f2df0fed2c77648de5860a4cc508cd0818c85b8b8a1ab4ceeef8d981c8956a6336200023560201b60201c565b6001600e60003373ffffffffffffffffffffffffffffffffffffffff1673ffffffffffffffffffffffffffffffffffffffff16815260200190815260200160002060006101000a81548160ff0219169083151502179055506000600b60006101000a81548160ff02191690836004811115620001ec57620001eb62000ab5565b5b02179055506000600b60016101000a81548160ff0219169083151502179055506200021e33826200032760201b60201c565b6200022e6200035360201b60201c565b5062001107565b6200024782826200040b60201b60201c565b620003235760016009600084815260200190815260200160002060000160008373ffffffffffffffffffffffffffffffffffffffff1673ffffffffffffffffffffffffffffffffffffffff16815260200190815260200160002060006101000a81548160ff021916908315150217905550620002c86200047660201b60201c565b73ffffffffffffffffffffffffffffffffffffffff168173ffffffffffffffffffffffffffffffffffffffff16837f2f8788117e7eff1d82e926ec794901d17c78024a50270940304540a733656f0d60405160405180910390a45b5050565b6000801b6200033c816200047e60201b60201c565b6200034e8383620004a260201b60201c565b505050565b620003636200064560201b60201c565b15620003a6576040517f08c379a00000000000000000000000000000000000000000000000000000000081526004016200039d9062000b45565b60405180910390fd5b6001600860006101000a81548160ff0219169083151502179055507f62e78cea01bee320cd4e420270b5ea74000d11b0c9f74754ebdbfc544b05a258620003f26200047660201b60201c565b60405162000401919062000bac565b60405180910390a1565b60006009600084815260200190815260200160002060000160008373ffffffffffffffffffffffffffffffffffffffff1673ffffffffffffffffffffffffffffffffffffffff16815260200190815260200160002060009054906101000a900460ff16905092915050565b600033905090565b6200049f81620004936200047660201b60201c565b6200065c60201b60201c565b50565b620004b26200072060201b60201c565b6bffffffffffffffffffffffff16816bffffffffffffffffffffffff16111562000513576040517f08c379a00000000000000000000000000000000000000000000000000000000081526004016200050a9062000c3f565b60405180910390fd5b600073ffffffffffffffffffffffffffffffffffffffff168273ffffffffffffffffffffffffffffffffffffffff160362000585576040517f08c379a00000000000000000000000000000000000000000000000000000000081526004016200057c9062000cb1565b60405180910390fd5b60405180604001604052808373ffffffffffffffffffffffffffffffffffffffff168152602001826bffffffffffffffffffffffff16815250600660008201518160000160006101000a81548173ffffffffffffffffffffffffffffffffffffffff021916908373ffffffffffffffffffffffffffffffffffffffff16021790555060208201518160000160146101000a8154816bffffffffffffffffffffffff02191690836bffffffffffffffffffffffff1602179055509050505050565b6000600860009054906101000a900460ff16905090565b6200066e82826200040b60201b60201c565b6200071c57620006a18173ffffffffffffffffffffffffffffffffffffffff1660146200072a60201b62001b041760201c565b620006bc8360001c60206200072a60201b62001b041760201c565b604051602001620006cf92919062000df6565b6040516020818303038152906040526040517f08c379a000000000000000000000000000000000000000000000000000000000815260040162000713919062000e8a565b60405180910390fd5b5050565b6000612710905090565b6060600060028360026200073f919062000ee7565b6200074b919062000f48565b67ffffffffffffffff81111562000767576200076662000fa5565b5b6040519080825280601f01601f1916602001820160405280156200079a5781602001600182028036833780820191505090505b5090507f300000000000000000000000000000000000000000000000000000000000000081600081518110620007d557620007d462000fd4565b5b60200101907effffffffffffffffffffffffffffffffffffffffffffffffffffffffffffff1916908160001a9053507f7800000000000000000000000000000000000000000000000000000000000000816001815181106200083c576200083b62000fd4565b5b60200101907effffffffffffffffffffffffffffffffffffffffffffffffffffffffffffff1916908160001a905350600060018460026200087e919062000ee7565b6200088a919062000f48565b90505b600181111562000934577f3031323334353637383961626364656600000000000000000000000000000000600f861660108110620008d057620008cf62000fd4565b5b1a60f81b828281518110620008ea57620008e962000fd4565b5b60200101907effffffffffffffffffffffffffffffffffffffffffffffffffffffffffffff1916908160001a905350600485901c9450806200092c9062001003565b90506200088d565b50600084146200097b576040517f08c379a0000000000000000000000000000000000000000000000000000000008152600401620009729062001081565b60405180910390fd5b8091505092915050565b8280546200099390620010d2565b90600052602060002090601f016020900481019282620009b7576000855562000a03565b82601f10620009d257805160ff191683800117855562000a03565b8280016001018555821562000a03579182015b8281111562000a02578251825591602001919060010190620009e5565b5b50905062000a12919062000a16565b5090565b5b8082111562000a3157600081600090555060010162000a17565b5090565b600080fd5b60006bffffffffffffffffffffffff82169050919050565b62000a5d8162000a3a565b811462000a6957600080fd5b50565b60008151905062000a7d8162000a52565b92915050565b60006020828403121562000a9c5762000a9b62000a35565b5b600062000aac8482850162000a6c565b91505092915050565b7f4e487b7100000000000000000000000000000000000000000000000000000000600052602160045260246000fd5b600082825260208201905092915050565b7f5061757361626c653a2070617573656400000000000000000000000000000000600082015250565b600062000b2d60108362000ae4565b915062000b3a8262000af5565b602082019050919050565b6000602082019050818103600083015262000b608162000b1e565b9050919050565b600073ffffffffffffffffffffffffffffffffffffffff82169050919050565b600062000b948262000b67565b9050919050565b62000ba68162000b87565b82525050565b600060208201905062000bc3600083018462000b9b565b92915050565b7f455243323938313a20726f79616c7479206665652077696c6c2065786365656460008201527f2073616c65507269636500000000000000000000000000000000000000000000602082015250565b600062000c27602a8362000ae4565b915062000c348262000bc9565b604082019050919050565b6000602082019050818103600083015262000c5a8162000c18565b9050919050565b7f455243323938313a20696e76616c696420726563656976657200000000000000600082015250565b600062000c9960198362000ae4565b915062000ca68262000c61565b602082019050919050565b6000602082019050818103600083015262000ccc8162000c8a565b9050919050565b600081905092915050565b7f416363657373436f6e74726f6c3a206163636f756e7420000000000000000000600082015250565b600062000d1660178362000cd3565b915062000d238262000cde565b601782019050919050565b600081519050919050565b60005b8381101562000d5957808201518184015260208101905062000d3c565b8381111562000d69576000848401525b50505050565b600062000d7c8262000d2e565b62000d88818562000cd3565b935062000d9a81856020860162000d39565b80840191505092915050565b7f206973206d697373696e6720726f6c6520000000000000000000000000000000600082015250565b600062000dde60118362000cd3565b915062000deb8262000da6565b601182019050919050565b600062000e038262000d07565b915062000e11828562000d6f565b915062000e1e8262000dcf565b915062000e2c828462000d6f565b91508190509392505050565b6000601f19601f8301169050919050565b600062000e568262000d2e565b62000e62818562000ae4565b935062000e7481856020860162000d39565b62000e7f8162000e38565b840191505092915050565b6000602082019050818103600083015262000ea6818462000e49565b905092915050565b6000819050919050565b7f4e487b7100000000000000000000000000000000000000000000000000000000600052601160045260246000fd5b600062000ef48262000eae565b915062000f018362000eae565b9250817fffffffffffffffffffffffffffffffffffffffffffffffffffffffffffffffff048311821515161562000f3d5762000f3c62000eb8565b5b828202905092915050565b600062000f558262000eae565b915062000f628362000eae565b9250827fffffffffffffffffffffffffffffffffffffffffffffffffffffffffffffffff0382111562000f9a5762000f9962000eb8565b5b828201905092915050565b7f4e487b7100000000000000000000000000000000000000000000000000000000600052604160045260246000fd5b7f4e487b7100000000000000000000000000000000000000000000000000000000600052603260045260246000fd5b6000620010108262000eae565b91506000820362001026576200102562000eb8565b5b600182039050919050565b7f537472696e67733a20686578206c656e67746820696e73756666696369656e74600082015250565b60006200106960208362000ae4565b9150620010768262001031565b602082019050919050565b600060208201905081810360008301526200109c816200105a565b9050919050565b7f4e487b7100000000000000000000000000000000000000000000000000000000600052602260045260246000fd5b60006002820490506001821680620010eb57607f821691505b602082108103620011015762001100620010a3565b5b50919050565b615d9480620011176000396000f3fe6080604052600436106102675760003560e01c80636352211e11610144578063bc6399e7116100b6578063d53913931161007a578063d5391393146108c8578063d547741f146108f3578063e63ab1e91461091c578063e8a77d1714610947578063e985e9c514610970578063f4273b32146109ad57610267565b8063bc6399e7146107ee578063bf72b63f14610819578063c040e6b814610835578063c87b56dd14610860578063cc1169791461089d57610267565b806391d148541161010857806391d14854146106e057806395d89b411461071d578063a217fddf14610748578063a22cb46514610773578063abdfe2751461079c578063b88d4fde146107c557610267565b80636352211e146105fb5780636a1eb87e1461063857806370a08231146106635780637263cfe2146106a05780638456cb59146106c957610267565b80632a55205a116101dd57806342842e0e116101a157806342842e0e1461050c57806342966c681461053557806344e5d1df1461055e5780634d474898146105895780635c975abb146105a55780635ed6ac4f146105d057610267565b80632a55205a1461043c5780632f2ff15d1461047a57806336568abe146104a35780633f4ba83a146104cc57806340d097c3146104e357610267565b8063095ea7b31161022f578063095ea7b3146103565780630a49008d1461037f578063140865f3146103a857806315afd8f8146103bf57806323b872dd146103d6578063248a9ca3146103ff57610267565b806301ffc9a71461026c57806302fa7c47146102a957806306fdde03146102d2578063081812fc146102fd57806309260db71461033a575b600080fd5b34801561027857600080fd5b50610293600480360381019061028e9190613ccf565b6109d8565b6040516102a09190613d17565b60405180910390f35b3480156102b557600080fd5b506102d060048036038101906102cb9190613dd4565b6109ea565b005b3480156102de57600080fd5b506102e7610a06565b6040516102f49190613ead565b60405180910390f35b34801561030957600080fd5b50610324600480360381019061031f9190613f05565b610a98565b6040516103319190613f41565b60405180910390f35b610354600480360381019061034f9190613f05565b610b1d565b005b34801561036257600080fd5b5061037d60048036038101906103789190613f5c565b610b46565b005b34801561038b57600080fd5b506103a660048036038101906103a191906140d1565b610c5d565b005b3480156103b457600080fd5b506103bd610c71565b005b3480156103cb57600080fd5b506103d4610ccb565b005b3480156103e257600080fd5b506103fd60048036038101906103f8919061411a565b610cdd565b005b34801561040b57600080fd5b50610426600480360381019061042191906141a3565b610d3d565b60405161043391906141df565b60405180910390f35b34801561044857600080fd5b50610463600480360381019061045e91906141fa565b610d5d565b604051610471929190614249565b60405180910390f35b34801561048657600080fd5b506104a1600480360381019061049c9190614272565b610f47565b005b3480156104af57600080fd5b506104ca60048036038101906104c59190614272565b610f68565b005b3480156104d857600080fd5b506104e1610feb565b005b3480156104ef57600080fd5b5061050a600480360381019061050591906142b2565b611020565b005b34801561051857600080fd5b50610533600480360381019061052e919061411a565b611071565b005b34801561054157600080fd5b5061055c60048036038101906105579190613f05565b611091565b005b34801561056a57600080fd5b50610573611150565b60405161058091906142df565b60405180910390f35b6105a3600480360381019061059e9190613f05565b61115c565b005b3480156105b157600080fd5b506105ba611313565b6040516105c79190613d17565b60405180910390f35b3480156105dc57600080fd5b506105e561132a565b6040516105f29190613d17565b60405180910390f35b34801561060757600080fd5b50610622600480360381019061061d9190613f05565b61133d565b60405161062f9190613f41565b60405180910390f35b34801561064457600080fd5b5061064d6113ee565b60405161065a91906142df565b60405180910390f35b34801561066f57600080fd5b5061068a600480360381019061068591906142b2565b6113fa565b60405161069791906142df565b60405180910390f35b3480156106ac57600080fd5b506106c760048036038101906106c291906143c2565b6114b1565b005b3480156106d557600080fd5b506106de611554565b005b3480156106ec57600080fd5b5061070760048036038101906107029190614272565b611589565b6040516107149190613d17565b60405180910390f35b34801561072957600080fd5b506107326115f4565b60405161073f9190613ead565b60405180910390f35b34801561075457600080fd5b5061075d611686565b60405161076a91906141df565b60405180910390f35b34801561077f57600080fd5b5061079a60048036038101906107959190614437565b61168d565b005b3480156107a857600080fd5b506107c360048036038101906107be9190613f05565b6116a3565b005b3480156107d157600080fd5b506107ec60048036038101906107e79190614518565b6116b4565b005b3480156107fa57600080fd5b50610803611716565b60405161081091906142df565b60405180910390f35b610833600480360381019061082e9190613f05565b611722565b005b34801561084157600080fd5b5061084a61174b565b6040516108579190614612565b60405180910390f35b34801561086c57600080fd5b5061088760048036038101906108829190613f05565b61175e565b6040516108949190613ead565b60405180910390f35b3480156108a957600080fd5b506108b26117fb565b6040516108bf91906142df565b60405180910390f35b3480156108d457600080fd5b506108dd611807565b6040516108ea91906141df565b60405180910390f35b3480156108ff57600080fd5b5061091a60048036038101906109159190614272565b61182b565b005b34801561092857600080fd5b5061093161184c565b60405161093e91906141df565b60405180910390f35b34801561095357600080fd5b5061096e60048036038101906109699190613f05565b611870565b005b34801561097c57600080fd5b506109976004803603810190610992919061462d565b611a64565b6040516109a49190613d17565b60405180910390f35b3480156109b957600080fd5b506109c2611af8565b6040516109cf91906142df565b60405180910390f35b60006109e382611d40565b9050919050565b6000801b6109f781611dba565b610a018383611dce565b505050565b606060008054610a159061469c565b80601f0160208091040260200160405190810160405280929190818152602001828054610a419061469c565b8015610a8e5780601f10610a6357610100808354040283529160200191610a8e565b820191906000526020600020905b815481529060010190602001808311610a7157829003601f168201915b5050505050905090565b6000610aa382611f63565b610ae2576040517f08c379a0000000000000000000000000000000000000000000000000000000008152600401610ad99061473f565b60405180910390fd5b6004600083815260200190815260200160002060009054906101000a900473ffffffffffffffffffffffffffffffffffffffff169050919050565b6001610b27611fcf565b610b3081612020565b610b428267058d15e1762800006120d5565b5050565b6000610b518261133d565b90508073ffffffffffffffffffffffffffffffffffffffff168373ffffffffffffffffffffffffffffffffffffffff1603610bc1576040517f08c379a0000000000000000000000000000000000000000000000000000000008152600401610bb8906147d1565b60405180910390fd5b8073ffffffffffffffffffffffffffffffffffffffff16610be0612343565b73ffffffffffffffffffffffffffffffffffffffff161480610c0f5750610c0e81610c09612343565b611a64565b5b610c4e576040517f08c379a0000000000000000000000000000000000000000000000000000000008152600401610c4590614863565b60405180910390fd5b610c58838361234b565b505050565b610c65612404565b610c6e8161242f565b50565b60006004811115610c8557610c8461459b565b5b600b60006101000a81548160ff02191690836004811115610ca957610ca861459b565b5b02179055506000600b60016101000a81548160ff021916908315150217905550565b610cd361249b565b610cdb6124c6565b565b610cee610ce8612343565b82612517565b610d2d576040517f08c379a0000000000000000000000000000000000000000000000000000000008152600401610d24906148f5565b60405180910390fd5b610d388383836125f5565b505050565b600060096000838152602001908152602001600020600101549050919050565b6000806000600760008681526020019081526020016000206040518060400160405290816000820160009054906101000a900473ffffffffffffffffffffffffffffffffffffffff1673ffffffffffffffffffffffffffffffffffffffff1673ffffffffffffffffffffffffffffffffffffffff1681526020016000820160149054906101000a90046bffffffffffffffffffffffff166bffffffffffffffffffffffff166bffffffffffffffffffffffff16815250509050600073ffffffffffffffffffffffffffffffffffffffff16816000015173ffffffffffffffffffffffffffffffffffffffff1603610ef25760066040518060400160405290816000820160009054906101000a900473ffffffffffffffffffffffffffffffffffffffff1673ffffffffffffffffffffffffffffffffffffffff1673ffffffffffffffffffffffffffffffffffffffff1681526020016000820160149054906101000a90046bffffffffffffffffffffffff166bffffffffffffffffffffffff166bffffffffffffffffffffffff168152505090505b6000610efc61285b565b6bffffffffffffffffffffffff1682602001516bffffffffffffffffffffffff1686610f289190614944565b610f3291906149cd565b90508160000151819350935050509250929050565b610f5082610d3d565b610f5981611dba565b610f638383612865565b505050565b610f70612343565b73ffffffffffffffffffffffffffffffffffffffff168173ffffffffffffffffffffffffffffffffffffffff1614610fdd576040517f08c379a0000000000000000000000000000000000000000000000000000000008152600401610fd490614a70565b60405180910390fd5b610fe78282612946565b5050565b7f65d7a28e3265b37a6474929f336521b332c1681b933f6cb9f3376673440d862a61101581611dba565b61101d612a28565b50565b7f9f2df0fed2c77648de5860a4cc508cd0818c85b8b8a1ab4ceeef8d981c8956a661104a81611dba565b6000611056600a612aca565b9050611062600a612ad8565b61106c8382612aee565b505050565b61108c838383604051806020016040528060008152506116b4565b505050565b600361109b611fcf565b6110a481612020565b6110ad82612b0c565b6110b682612b68565b600d600084815260200190815260200160002060000160006101000a81548160ff021916908360048111156110ee576110ed61459b565b5b02179055506110fb612343565b600f600084815260200190815260200160002060006101000a81548173ffffffffffffffffffffffffffffffffffffffff021916908373ffffffffffffffffffffffffffffffffffffffff1602179055505050565b67058d15e17628000081565b6000611166611fcf565b61116f81612020565b600e600061117b612343565b73ffffffffffffffffffffffffffffffffffffffff1673ffffffffffffffffffffffffffffffffffffffff16815260200190815260200160002060009054906101000a900460ff16611202576040517f08c379a00000000000000000000000000000000000000000000000000000000081526004016111f990614b02565b60405180910390fd5b61120b82612b9d565b6112158234612c4a565b6000611221600a612aca565b905061122d600a612ad8565b6112373382612aee565b6040518060400160405280600060048111156112565761125561459b565b5b815260200184815250600d600083815260200190815260200160002060008201518160000160006101000a81548160ff0219169083600481111561129d5761129c61459b565b5b0217905550602082015181600101559050506000600e60006112bd612343565b73ffffffffffffffffffffffffffffffffffffffff1673ffffffffffffffffffffffffffffffffffffffff16815260200190815260200160002060006101000a81548160ff021916908315150217905550505050565b6000600860009054906101000a900460ff16905090565b600b60019054906101000a900460ff1681565b6000806002600084815260200190815260200160002060009054906101000a900473ffffffffffffffffffffffffffffffffffffffff169050600073ffffffffffffffffffffffffffffffffffffffff168173ffffffffffffffffffffffffffffffffffffffff16036113e5576040517f08c379a00000000000000000000000000000000000000000000000000000000081526004016113dc90614b94565b60405180910390fd5b80915050919050565b670853a0d2313c000081565b60008073ffffffffffffffffffffffffffffffffffffffff168273ffffffffffffffffffffffffffffffffffffffff160361146a576040517f08c379a000000000000000000000000000000000000000000000000000000000815260040161146190614c26565b60405180910390fd5b600360008373ffffffffffffffffffffffffffffffffffffffff1673ffffffffffffffffffffffffffffffffffffffff168152602001908152602001600020549050919050565b6000801b6114be81611dba565b60005b825181101561154f576001600e60008584815181106114e3576114e2614c46565b5b602002602001015173ffffffffffffffffffffffffffffffffffffffff1673ffffffffffffffffffffffffffffffffffffffff16815260200190815260200160002060006101000a81548160ff021916908315150217905550808061154790614c75565b9150506114c1565b505050565b7f65d7a28e3265b37a6474929f336521b332c1681b933f6cb9f3376673440d862a61157e81611dba565b611586612d09565b50565b60006009600084815260200190815260200160002060000160008373ffffffffffffffffffffffffffffffffffffffff1673ffffffffffffffffffffffffffffffffffffffff16815260200190815260200160002060009054906101000a900460ff16905092915050565b6060600180546116039061469c565b80601f016020809104026020016040519081016040528092919081815260200182805461162f9061469c565b801561167c5780601f106116515761010080835404028352916020019161167c565b820191906000526020600020905b81548152906001019060200180831161165f57829003601f168201915b5050505050905090565b6000801b81565b61169f611698612343565b8383612dac565b5050565b6000801b6116b081611dba565b5050565b6116c56116bf612343565b83612517565b611704576040517f08c379a00000000000000000000000000000000000000000000000000000000081526004016116fb906148f5565b60405180910390fd5b61171084848484612f18565b50505050565b6702c68af0bb14000081565b600261172c611fcf565b61173581612020565b61174782670853a0d2313c00006120d5565b5050565b600b60009054906101000a900460ff1681565b606060006117d161176e84612f74565b6117ac600d600087815260200190815260200160002060000160009054906101000a900460ff1660048111156117a7576117a661459b565b5b613060565b6040516020016117bd929190614ee7565b6040516020818303038152906040526131c0565b9050806040516020016117e49190614f78565b604051602081830303815290604052915050919050565b6702c68af0bb14000081565b7f9f2df0fed2c77648de5860a4cc508cd0818c85b8b8a1ab4ceeef8d981c8956a681565b61183482610d3d565b61183d81611dba565b6118478383612946565b505050565b7f65d7a28e3265b37a6474929f336521b332c1681b933f6cb9f3376673440d862a81565b600360048111156118845761188361459b565b5b600b60009054906101000a900460ff1660048111156118a6576118a561459b565b5b1480156118bf5750600b60019054906101000a900460ff165b806118fc57506004808111156118d8576118d761459b565b5b600b60009054906101000a900460ff1660048111156118fa576118f961459b565b5b145b61193b576040517f08c379a00000000000000000000000000000000000000000000000000000000081526004016119329061500c565b60405180910390fd5b6000600f600083815260200190815260200160002060009054906101000a900473ffffffffffffffffffffffffffffffffffffffff1690508073ffffffffffffffffffffffffffffffffffffffff16611992612343565b73ffffffffffffffffffffffffffffffffffffffff16146040516020016119b89061509e565b60405160208183030381529060405290611a08576040517f08c379a00000000000000000000000000000000000000000000000000000000081526004016119ff9190613ead565b60405180910390fd5b50611a1282612b68565b600d600084815260200190815260200160002060000160006101000a81548160ff02191690836004811115611a4a57611a4961459b565b5b0217905550611a60611a5a612343565b83612aee565b5050565b6000600560008473ffffffffffffffffffffffffffffffffffffffff1673ffffffffffffffffffffffffffffffffffffffff16815260200190815260200160002060008373ffffffffffffffffffffffffffffffffffffffff1673ffffffffffffffffffffffffffffffffffffffff16815260200190815260200160002060009054906101000a900460ff16905092915050565b67058d15e17628000081565b606060006002836002611b179190614944565b611b2191906150b3565b67ffffffffffffffff811115611b3a57611b39613fa6565b5b6040519080825280601f01601f191660200182016040528015611b6c5781602001600182028036833780820191505090505b5090507f300000000000000000000000000000000000000000000000000000000000000081600081518110611ba457611ba3614c46565b5b60200101907effffffffffffffffffffffffffffffffffffffffffffffffffffffffffffff1916908160001a9053507f780000000000000000000000000000000000000000000000000000000000000081600181518110611c0857611c07614c46565b5b60200101907effffffffffffffffffffffffffffffffffffffffffffffffffffffffffffff1916908160001a90535060006001846002611c489190614944565b611c5291906150b3565b90505b6001811115611cf2577f3031323334353637383961626364656600000000000000000000000000000000600f861660108110611c9457611c93614c46565b5b1a60f81b828281518110611cab57611caa614c46565b5b60200101907effffffffffffffffffffffffffffffffffffffffffffffffffffffffffffff1916908160001a905350600485901c945080611ceb90615109565b9050611c55565b5060008414611d36576040517f08c379a0000000000000000000000000000000000000000000000000000000008152600401611d2d9061517e565b60405180910390fd5b8091505092915050565b60007f7965db0b000000000000000000000000000000000000000000000000000000007bffffffffffffffffffffffffffffffffffffffffffffffffffffffff1916827bffffffffffffffffffffffffffffffffffffffffffffffffffffffff19161480611db35750611db282613323565b5b9050919050565b611dcb81611dc6612343565b61339d565b50565b611dd661285b565b6bffffffffffffffffffffffff16816bffffffffffffffffffffffff161115611e34576040517f08c379a0000000000000000000000000000000000000000000000000000000008152600401611e2b90615210565b60405180910390fd5b600073ffffffffffffffffffffffffffffffffffffffff168273ffffffffffffffffffffffffffffffffffffffff1603611ea3576040517f08c379a0000000000000000000000000000000000000000000000000000000008152600401611e9a9061527c565b60405180910390fd5b60405180604001604052808373ffffffffffffffffffffffffffffffffffffffff168152602001826bffffffffffffffffffffffff16815250600660008201518160000160006101000a81548173ffffffffffffffffffffffffffffffffffffffff021916908373ffffffffffffffffffffffffffffffffffffffff16021790555060208201518160000160146101000a8154816bffffffffffffffffffffffff02191690836bffffffffffffffffffffffff1602179055509050505050565b60008073ffffffffffffffffffffffffffffffffffffffff166002600084815260200190815260200160002060009054906101000a900473ffffffffffffffffffffffffffffffffffffffff1673ffffffffffffffffffffffffffffffffffffffff1614159050919050565b600b60019054906101000a900460ff1661201e576040517f08c379a00000000000000000000000000000000000000000000000000000000081526004016120159061500c565b60405180910390fd5b565b8060048111156120335761203261459b565b5b600b60009054906101000a900460ff1660048111156120555761205461459b565b5b1461207182600481111561206c5761206b61459b565b5b613060565b60405160200161208191906152e8565b604051602081830303815290604052906120d1576040517f08c379a00000000000000000000000000000000000000000000000000000000081526004016120c89190613ead565b60405180910390fd5b5050565b6120e66120e0612343565b83612517565b612125576040517f08c379a000000000000000000000000000000000000000000000000000000000815260040161211c9061538f565b60405180910390fd5b6001600b60009054906101000a900460ff1660048111156121495761214861459b565b5b61215391906153af565b600d600084815260200190815260200160002060000160009054906101000a900460ff1660048111156121895761218861459b565b5b146121c06001600b60009054906101000a900460ff1660048111156121b1576121b061459b565b5b6121bb91906153af565b613060565b6040516020016121d09190615455565b60405160208183030381529060405290612220576040517f08c379a00000000000000000000000000000000000000000000000000000000081526004016122179190613ead565b60405180910390fd5b506000600d600084815260200190815260200160002060010154036122ad5780341461224b82613060565b60405160200161225b91906154f8565b604051602081830303815290604052906122ab576040517f08c379a00000000000000000000000000000000000000000000000000000000081526004016122a29190613ead565b60405180910390fd5b505b6000600d60008481526020019081526020016000206001015411156122f957600d600083815260200190815260200160002060010160008154809291906122f390615109565b91905055505b61230282612b68565b600d600084815260200190815260200160002060000160006101000a81548160ff0219169083600481111561233a5761233961459b565b5b02179055505050565b600033905090565b816004600083815260200190815260200160002060006101000a81548173ffffffffffffffffffffffffffffffffffffffff021916908373ffffffffffffffffffffffffffffffffffffffff160217905550808273ffffffffffffffffffffffffffffffffffffffff166123be8361133d565b73ffffffffffffffffffffffffffffffffffffffff167f8c5be1e5ebec7d5bd14f71427d1e84f3dd0314c0f7b2291e5b200ac8c7c3b92560405160405180910390a45050565b6000801b61241181611dba565b6001600b60016101000a81548160ff02191690831515021790555050565b6000801b61243c81611dba565b81600c6000600b60009054906101000a900460ff1660048111156124635761246261459b565b5b60048111156124755761247461459b565b5b81526020019081526020016000209080519060200190612496929190613bc0565b505050565b6000801b6124a881611dba565b6000600b60016101000a81548160ff02191690831515021790555050565b6000801b6124d381611dba565b6124eb600b60009054906101000a900460ff1661343a565b600b60006101000a81548160ff0219169083600481111561250f5761250e61459b565b5b021790555050565b600061252282611f63565b612561576040517f08c379a00000000000000000000000000000000000000000000000000000000081526004016125589061558c565b60405180910390fd5b600061256c8361133d565b90508073ffffffffffffffffffffffffffffffffffffffff168473ffffffffffffffffffffffffffffffffffffffff1614806125ae57506125ad8185611a64565b5b806125ec57508373ffffffffffffffffffffffffffffffffffffffff166125d484610a98565b73ffffffffffffffffffffffffffffffffffffffff16145b91505092915050565b8273ffffffffffffffffffffffffffffffffffffffff166126158261133d565b73ffffffffffffffffffffffffffffffffffffffff161461266b576040517f08c379a00000000000000000000000000000000000000000000000000000000081526004016126629061561e565b60405180910390fd5b600073ffffffffffffffffffffffffffffffffffffffff168273ffffffffffffffffffffffffffffffffffffffff16036126da576040517f08c379a00000000000000000000000000000000000000000000000000000000081526004016126d1906156b0565b60405180910390fd5b6126e5838383613517565b6126f060008261234b565b6001600360008573ffffffffffffffffffffffffffffffffffffffff1673ffffffffffffffffffffffffffffffffffffffff168152602001908152602001600020600082825461274091906153af565b925050819055506001600360008473ffffffffffffffffffffffffffffffffffffffff1673ffffffffffffffffffffffffffffffffffffffff168152602001908152602001600020600082825461279791906150b3565b92505081905550816002600083815260200190815260200160002060006101000a81548173ffffffffffffffffffffffffffffffffffffffff021916908373ffffffffffffffffffffffffffffffffffffffff160217905550808273ffffffffffffffffffffffffffffffffffffffff168473ffffffffffffffffffffffffffffffffffffffff167fddf252ad1be2c89b69c2b068fc378daa952ba7f163c4a11628f55a4df523b3ef60405160405180910390a461285683838361356f565b505050565b6000612710905090565b61286f8282611589565b6129425760016009600084815260200190815260200160002060000160008373ffffffffffffffffffffffffffffffffffffffff1673ffffffffffffffffffffffffffffffffffffffff16815260200190815260200160002060006101000a81548160ff0219169083151502179055506128e7612343565b73ffffffffffffffffffffffffffffffffffffffff168173ffffffffffffffffffffffffffffffffffffffff16837f2f8788117e7eff1d82e926ec794901d17c78024a50270940304540a733656f0d60405160405180910390a45b5050565b6129508282611589565b15612a245760006009600084815260200190815260200160002060000160008373ffffffffffffffffffffffffffffffffffffffff1673ffffffffffffffffffffffffffffffffffffffff16815260200190815260200160002060006101000a81548160ff0219169083151502179055506129c9612343565b73ffffffffffffffffffffffffffffffffffffffff168173ffffffffffffffffffffffffffffffffffffffff16837ff6391f5c32d9c69d2a47ea670b442974b53935d1edc7fd64eb21e047a839171b60405160405180910390a45b5050565b612a30611313565b612a6f576040517f08c379a0000000000000000000000000000000000000000000000000000000008152600401612a669061571c565b60405180910390fd5b6000600860006101000a81548160ff0219169083151502179055507f5db9ee0a495bf2e6ff9c91a7834c1ba4fdd244a5e8aa4e537bd38aeae4b073aa612ab3612343565b604051612ac09190613f41565b60405180910390a1565b600081600001549050919050565b6001816000016000828254019250508190555050565b612b08828260405180602001604052806000815250613574565b5050565b612b1d612b17612343565b82612517565b612b5c576040517f08c379a0000000000000000000000000000000000000000000000000000000008152600401612b53906157ae565b60405180910390fd5b612b65816135cf565b50565b6000612b96600d600084815260200190815260200160002060000160009054906101000a900460ff1661343a565b9050919050565b6001600480811115612bb257612bb161459b565b5b612bbc91906153af565b811115612be66001600480811115612bd757612bd661459b565b5b612be191906153af565b613060565b604051602001612bf69190615840565b60405160208183030381529060405290612c46576040517f08c379a0000000000000000000000000000000000000000000000000000000008152600401612c3d9190613ead565b60405180910390fd5b5050565b60006702c68af0bb14000090506000831115612c77576702c68af0bb14000081612c7491906150b3565b90505b6001831115612c975767058d15e17628000081612c9491906150b3565b90505b808214612ca382613060565b604051602001612cb391906154f8565b60405160208183030381529060405290612d03576040517f08c379a0000000000000000000000000000000000000000000000000000000008152600401612cfa9190613ead565b60405180910390fd5b50505050565b612d11611313565b15612d51576040517f08c379a0000000000000000000000000000000000000000000000000000000008152600401612d48906158ae565b60405180910390fd5b6001600860006101000a81548160ff0219169083151502179055507f62e78cea01bee320cd4e420270b5ea74000d11b0c9f74754ebdbfc544b05a258612d95612343565b604051612da29190613f41565b60405180910390a1565b8173ffffffffffffffffffffffffffffffffffffffff168373ffffffffffffffffffffffffffffffffffffffff1603612e1a576040517f08c379a0000000000000000000000000000000000000000000000000000000008152600401612e119061591a565b60405180910390fd5b80600560008573ffffffffffffffffffffffffffffffffffffffff1673ffffffffffffffffffffffffffffffffffffffff16815260200190815260200160002060008473ffffffffffffffffffffffffffffffffffffffff1673ffffffffffffffffffffffffffffffffffffffff16815260200190815260200160002060006101000a81548160ff0219169083151502179055508173ffffffffffffffffffffffffffffffffffffffff168373ffffffffffffffffffffffffffffffffffffffff167f17307eab39ab6107e8899845ad3d59bd9653f200f220920489ca2b5937696c3183604051612f0b9190613d17565b60405180910390a3505050565b612f238484846125f5565b612f2f848484846136ec565b612f6e576040517f08c379a0000000000000000000000000000000000000000000000000000000008152600401612f65906159ac565b60405180910390fd5b50505050565b6060600c6000600d600085815260200190815260200160002060000160009054906101000a900460ff166004811115612fb057612faf61459b565b5b6004811115612fc257612fc161459b565b5b81526020019081526020016000208054612fdb9061469c565b80601f01602080910402602001604051908101604052809291908181526020018280546130079061469c565b80156130545780601f1061302957610100808354040283529160200191613054565b820191906000526020600020905b81548152906001019060200180831161303757829003601f168201915b50505050509050919050565b6060600082036130a7576040518060400160405280600181526020017f300000000000000000000000000000000000000000000000000000000000000081525090506131bb565b600082905060005b600082146130d95780806130c290614c75565b915050600a826130d291906149cd565b91506130af565b60008167ffffffffffffffff8111156130f5576130f4613fa6565b5b6040519080825280601f01601f1916602001820160405280156131275781602001600182028036833780820191505090505b5090505b600085146131b45760018261314091906153af565b9150600a8561314f91906159cc565b603061315b91906150b3565b60f81b81838151811061317157613170614c46565b5b60200101907effffffffffffffffffffffffffffffffffffffffffffffffffffffffffffff1916908160001a905350600a856131ad91906149cd565b945061312b565b8093505050505b919050565b606060008251036131e25760405180602001604052806000815250905061331e565b6000604051806060016040528060408152602001615d1f604091399050600060036002855161321191906150b3565b61321b91906149cd565b60046132279190614944565b67ffffffffffffffff8111156132405761323f613fa6565b5b6040519080825280601f01601f1916602001820160405280156132725781602001600182028036833780820191505090505b509050600182016020820185865187015b808210156132de576003820191508151603f8160121c168501518453600184019350603f81600c1c168501518453600184019350603f8160061c168501518453600184019350603f8116850151845360018401935050613283565b50506003865106600181146132fa576002811461330d57613315565b603d6001830353603d6002830353613315565b603d60018303535b50505080925050505b919050565b60007f2a55205a000000000000000000000000000000000000000000000000000000007bffffffffffffffffffffffffffffffffffffffffffffffffffffffff1916827bffffffffffffffffffffffffffffffffffffffffffffffffffffffff19161480613396575061339582613873565b5b9050919050565b6133a78282611589565b613436576133cc8173ffffffffffffffffffffffffffffffffffffffff166014611b04565b6133da8360001c6020611b04565b6040516020016133eb929190615a95565b6040516020818303038152906040526040517f08c379a000000000000000000000000000000000000000000000000000000000815260040161342d9190613ead565b60405180910390fd5b5050565b600060048081111561344f5761344e61459b565b5b8260048111156134625761346161459b565b5b1061347e6004808111156134795761347861459b565b5b613060565b60405160200161348e9190615b41565b604051602081830303815290604052906134de576040517f08c379a00000000000000000000000000000000000000000000000000000000081526004016134d59190613ead565b60405180910390fd5b5060018260048111156134f4576134f361459b565b5b6134fe91906150b3565b60048111156135105761350f61459b565b5b9050919050565b61351f611313565b1561355f576040517f08c379a0000000000000000000000000000000000000000000000000000000008152600401613556906158ae565b60405180910390fd5b61356a838383613955565b505050565b505050565b61357e838361395a565b61358b60008484846136ec565b6135ca576040517f08c379a00000000000000000000000000000000000000000000000000000000081526004016135c1906159ac565b60405180910390fd5b505050565b60006135da8261133d565b90506135e881600084613517565b6135f360008361234b565b6001600360008373ffffffffffffffffffffffffffffffffffffffff1673ffffffffffffffffffffffffffffffffffffffff168152602001908152602001600020600082825461364391906153af565b925050819055506002600083815260200190815260200160002060006101000a81549073ffffffffffffffffffffffffffffffffffffffff021916905581600073ffffffffffffffffffffffffffffffffffffffff168273ffffffffffffffffffffffffffffffffffffffff167fddf252ad1be2c89b69c2b068fc378daa952ba7f163c4a11628f55a4df523b3ef60405160405180910390a46136e88160008461356f565b5050565b600061370d8473ffffffffffffffffffffffffffffffffffffffff16613b33565b15613866578373ffffffffffffffffffffffffffffffffffffffff1663150b7a02613736612343565b8786866040518563ffffffff1660e01b81526004016137589493929190615bb8565b6020604051808303816000875af192505050801561379457506040513d601f19601f820116820180604052508101906137919190615c19565b60015b613816573d80600081146137c4576040519150601f19603f3d011682016040523d82523d6000602084013e6137c9565b606091505b50600081510361380e576040517f08c379a0000000000000000000000000000000000000000000000000000000008152600401613805906159ac565b60405180910390fd5b805181602001fd5b63150b7a0260e01b7bffffffffffffffffffffffffffffffffffffffffffffffffffffffff1916817bffffffffffffffffffffffffffffffffffffffffffffffffffffffff19161491505061386b565b600190505b949350505050565b60007f80ac58cd000000000000000000000000000000000000000000000000000000007bffffffffffffffffffffffffffffffffffffffffffffffffffffffff1916827bffffffffffffffffffffffffffffffffffffffffffffffffffffffff1916148061393e57507f5b5e139f000000000000000000000000000000000000000000000000000000007bffffffffffffffffffffffffffffffffffffffffffffffffffffffff1916827bffffffffffffffffffffffffffffffffffffffffffffffffffffffff1916145b8061394e575061394d82613b56565b5b9050919050565b505050565b600073ffffffffffffffffffffffffffffffffffffffff168273ffffffffffffffffffffffffffffffffffffffff16036139c9576040517f08c379a00000000000000000000000000000000000000000000000000000000081526004016139c090615c92565b60405180910390fd5b6139d281611f63565b15613a12576040517f08c379a0000000000000000000000000000000000000000000000000000000008152600401613a0990615cfe565b60405180910390fd5b613a1e60008383613517565b6001600360008473ffffffffffffffffffffffffffffffffffffffff1673ffffffffffffffffffffffffffffffffffffffff1681526020019081526020016000206000828254613a6e91906150b3565b92505081905550816002600083815260200190815260200160002060006101000a81548173ffffffffffffffffffffffffffffffffffffffff021916908373ffffffffffffffffffffffffffffffffffffffff160217905550808273ffffffffffffffffffffffffffffffffffffffff16600073ffffffffffffffffffffffffffffffffffffffff167fddf252ad1be2c89b69c2b068fc378daa952ba7f163c4a11628f55a4df523b3ef60405160405180910390a4613b2f6000838361356f565b5050565b6000808273ffffffffffffffffffffffffffffffffffffffff163b119050919050565b60007f01ffc9a7000000000000000000000000000000000000000000000000000000007bffffffffffffffffffffffffffffffffffffffffffffffffffffffff1916827bffffffffffffffffffffffffffffffffffffffffffffffffffffffff1916149050919050565b828054613bcc9061469c565b90600052602060002090601f016020900481019282613bee5760008555613c35565b82601f10613c0757805160ff1916838001178555613c35565b82800160010185558215613c35579182015b82811115613c34578251825591602001919060010190613c19565b5b509050613c429190613c46565b5090565b5b80821115613c5f576000816000905550600101613c47565b5090565b6000604051905090565b600080fd5b600080fd5b60007fffffffff0000000000000000000000000000000000000000000000000000000082169050919050565b613cac81613c77565b8114613cb757600080fd5b50565b600081359050613cc981613ca3565b92915050565b600060208284031215613ce557613ce4613c6d565b5b6000613cf384828501613cba565b91505092915050565b60008115159050919050565b613d1181613cfc565b82525050565b6000602082019050613d2c6000830184613d08565b92915050565b600073ffffffffffffffffffffffffffffffffffffffff82169050919050565b6000613d5d82613d32565b9050919050565b613d6d81613d52565b8114613d7857600080fd5b50565b600081359050613d8a81613d64565b92915050565b60006bffffffffffffffffffffffff82169050919050565b613db181613d90565b8114613dbc57600080fd5b50565b600081359050613dce81613da8565b92915050565b60008060408385031215613deb57613dea613c6d565b5b6000613df985828601613d7b565b9250506020613e0a85828601613dbf565b9150509250929050565b600081519050919050565b600082825260208201905092915050565b60005b83811015613e4e578082015181840152602081019050613e33565b83811115613e5d576000848401525b50505050565b6000601f19601f8301169050919050565b6000613e7f82613e14565b613e898185613e1f565b9350613e99818560208601613e30565b613ea281613e63565b840191505092915050565b60006020820190508181036000830152613ec78184613e74565b905092915050565b6000819050919050565b613ee281613ecf565b8114613eed57600080fd5b50565b600081359050613eff81613ed9565b92915050565b600060208284031215613f1b57613f1a613c6d565b5b6000613f2984828501613ef0565b91505092915050565b613f3b81613d52565b82525050565b6000602082019050613f566000830184613f32565b92915050565b60008060408385031215613f7357613f72613c6d565b5b6000613f8185828601613d7b565b9250506020613f9285828601613ef0565b9150509250929050565b600080fd5b600080fd5b7f4e487b7100000000000000000000000000000000000000000000000000000000600052604160045260246000fd5b613fde82613e63565b810181811067ffffffffffffffff82111715613ffd57613ffc613fa6565b5b80604052505050565b6000614010613c63565b905061401c8282613fd5565b919050565b600067ffffffffffffffff82111561403c5761403b613fa6565b5b61404582613e63565b9050602081019050919050565b82818337600083830152505050565b600061407461406f84614021565b614006565b9050828152602081018484840111156140905761408f613fa1565b5b61409b848285614052565b509392505050565b600082601f8301126140b8576140b7613f9c565b5b81356140c8848260208601614061565b91505092915050565b6000602082840312156140e7576140e6613c6d565b5b600082013567ffffffffffffffff81111561410557614104613c72565b5b614111848285016140a3565b91505092915050565b60008060006060848603121561413357614132613c6d565b5b600061414186828701613d7b565b935050602061415286828701613d7b565b925050604061416386828701613ef0565b9150509250925092565b6000819050919050565b6141808161416d565b811461418b57600080fd5b50565b60008135905061419d81614177565b92915050565b6000602082840312156141b9576141b8613c6d565b5b60006141c78482850161418e565b91505092915050565b6141d98161416d565b82525050565b60006020820190506141f460008301846141d0565b92915050565b6000806040838503121561421157614210613c6d565b5b600061421f85828601613ef0565b925050602061423085828601613ef0565b9150509250929050565b61424381613ecf565b82525050565b600060408201905061425e6000830185613f32565b61426b602083018461423a565b9392505050565b6000806040838503121561428957614288613c6d565b5b60006142978582860161418e565b92505060206142a885828601613d7b565b9150509250929050565b6000602082840312156142c8576142c7613c6d565b5b60006142d684828501613d7b565b91505092915050565b60006020820190506142f4600083018461423a565b92915050565b600067ffffffffffffffff82111561431557614314613fa6565b5b602082029050602081019050919050565b600080fd5b600061433e614339846142fa565b614006565b9050808382526020820190506020840283018581111561436157614360614326565b5b835b8181101561438a57806143768882613d7b565b845260208401935050602081019050614363565b5050509392505050565b600082601f8301126143a9576143a8613f9c565b5b81356143b984826020860161432b565b91505092915050565b6000602082840312156143d8576143d7613c6d565b5b600082013567ffffffffffffffff8111156143f6576143f5613c72565b5b61440284828501614394565b91505092915050565b61441481613cfc565b811461441f57600080fd5b50565b6000813590506144318161440b565b92915050565b6000806040838503121561444e5761444d613c6d565b5b600061445c85828601613d7b565b925050602061446d85828601614422565b9150509250929050565b600067ffffffffffffffff82111561449257614491613fa6565b5b61449b82613e63565b9050602081019050919050565b60006144bb6144b684614477565b614006565b9050828152602081018484840111156144d7576144d6613fa1565b5b6144e2848285614052565b509392505050565b600082601f8301126144ff576144fe613f9c565b5b813561450f8482602086016144a8565b91505092915050565b6000806000806080858703121561453257614531613c6d565b5b600061454087828801613d7b565b945050602061455187828801613d7b565b935050604061456287828801613ef0565b925050606085013567ffffffffffffffff81111561458357614582613c72565b5b61458f878288016144ea565b91505092959194509250565b7f4e487b7100000000000000000000000000000000000000000000000000000000600052602160045260246000fd5b600581106145db576145da61459b565b5b50565b60008190506145ec826145ca565b919050565b60006145fc826145de565b9050919050565b61460c816145f1565b82525050565b60006020820190506146276000830184614603565b92915050565b6000806040838503121561464457614643613c6d565b5b600061465285828601613d7b565b925050602061466385828601613d7b565b9150509250929050565b7f4e487b7100000000000000000000000000000000000000000000000000000000600052602260045260246000fd5b600060028204905060018216806146b457607f821691505b6020821081036146c7576146c661466d565b5b50919050565b7f4552433732313a20617070726f76656420717565727920666f72206e6f6e657860008201527f697374656e7420746f6b656e0000000000000000000000000000000000000000602082015250565b6000614729602c83613e1f565b9150614734826146cd565b604082019050919050565b600060208201905081810360008301526147588161471c565b9050919050565b7f4552433732313a20617070726f76616c20746f2063757272656e74206f776e6560008201527f7200000000000000000000000000000000000000000000000000000000000000602082015250565b60006147bb602183613e1f565b91506147c68261475f565b604082019050919050565b600060208201905081810360008301526147ea816147ae565b9050919050565b7f4552433732313a20617070726f76652063616c6c6572206973206e6f74206f7760008201527f6e6572206e6f7220617070726f76656420666f7220616c6c0000000000000000602082015250565b600061484d603883613e1f565b9150614858826147f1565b604082019050919050565b6000602082019050818103600083015261487c81614840565b9050919050565b7f4552433732313a207472616e736665722063616c6c6572206973206e6f74206f60008201527f776e6572206e6f7220617070726f766564000000000000000000000000000000602082015250565b60006148df603183613e1f565b91506148ea82614883565b604082019050919050565b6000602082019050818103600083015261490e816148d2565b9050919050565b7f4e487b7100000000000000000000000000000000000000000000000000000000600052601160045260246000fd5b600061494f82613ecf565b915061495a83613ecf565b9250817fffffffffffffffffffffffffffffffffffffffffffffffffffffffffffffffff048311821515161561499357614992614915565b5b828202905092915050565b7f4e487b7100000000000000000000000000000000000000000000000000000000600052601260045260246000fd5b60006149d882613ecf565b91506149e383613ecf565b9250826149f3576149f261499e565b5b828204905092915050565b7f416363657373436f6e74726f6c3a2063616e206f6e6c792072656e6f756e636560008201527f20726f6c657320666f722073656c660000000000000000000000000000000000602082015250565b6000614a5a602f83613e1f565b9150614a65826149fe565b604082019050919050565b60006020820190508181036000830152614a8981614a4d565b9050919050565b7f5032443a20546865206d696e6572206973206e6f7420616c6c6f77656420746f60008201527f206d696e7420746f6b656e730000000000000000000000000000000000000000602082015250565b6000614aec602c83613e1f565b9150614af782614a90565b604082019050919050565b60006020820190508181036000830152614b1b81614adf565b9050919050565b7f4552433732313a206f776e657220717565727920666f72206e6f6e657869737460008201527f656e7420746f6b656e0000000000000000000000000000000000000000000000602082015250565b6000614b7e602983613e1f565b9150614b8982614b22565b604082019050919050565b60006020820190508181036000830152614bad81614b71565b9050919050565b7f4552433732313a2062616c616e636520717565727920666f7220746865207a6560008201527f726f206164647265737300000000000000000000000000000000000000000000602082015250565b6000614c10602a83613e1f565b9150614c1b82614bb4565b604082019050919050565b60006020820190508181036000830152614c3f81614c03565b9050919050565b7f4e487b7100000000000000000000000000000000000000000000000000000000600052603260045260246000fd5b6000614c8082613ecf565b91507fffffffffffffffffffffffffffffffffffffffffffffffffffffffffffffffff8203614cb257614cb1614915565b5b600182019050919050565b600081905092915050565b7f7b226e616d65223a20224469616d6f6e64204461776e222c202264657363726960008201527f7074696f6e223a20225468697320697320746865206465736372697074696f6e60208201527f206f66204469616d6f6e64204461776e2050726f6a656374222c2022696d616760408201527f65223a202268747470733a2f2f6d656469612e6e69667479676174657761792e60608201527f636f6d2f766964656f2f75706c6f61642f76313633393432313134312f416e6460808201527f7265612f446176696441726965772f446563437572617465642f4d797374696360a08201527f616c5f436162617265745f2d5f44617669645f41726965775f315f777a64687560c08201527f772e706e67222c2022616e696d6174696f6e5f75726c223a202200000000000060e082015250565b6000614e0860fa83614cbd565b9150614e1382614cc8565b60fa82019050919050565b6000614e2982613e14565b614e338185614cbd565b9350614e43818560208601613e30565b80840191505092915050565b7f222c20227374616765223a202200000000000000000000000000000000000000600082015250565b6000614e85600d83614cbd565b9150614e9082614e4f565b600d82019050919050565b7f22207d0000000000000000000000000000000000000000000000000000000000600082015250565b6000614ed1600383614cbd565b9150614edc82614e9b565b600382019050919050565b6000614ef282614dfb565b9150614efe8285614e1e565b9150614f0982614e78565b9150614f158284614e1e565b9150614f2082614ec4565b91508190509392505050565b7f646174613a6170706c69636174696f6e2f6a736f6e3b6261736536342c000000600082015250565b6000614f62601d83614cbd565b9150614f6d82614f2c565b601d82019050919050565b6000614f8382614f55565b9150614f8f8284614e1e565b915081905092915050565b7f5032443a20412073746167652073686f756c642062652061637469766520746f60008201527f20706572666f726d207468697320616374696f6e000000000000000000000000602082015250565b6000614ff6603483613e1f565b915061500182614f9a565b604082019050919050565b6000602082019050818103600083015261502581614fe9565b9050919050565b7f52656269727468206661696c6564202d206f6e6c79206275726e65722069732060008201527f616c6c6f77656420746f20706572666f726d2072656269727468000000000000602082015250565b6000615088603a83614cbd565b91506150938261502c565b603a82019050919050565b60006150a98261507b565b9150819050919050565b60006150be82613ecf565b91506150c983613ecf565b9250827fffffffffffffffffffffffffffffffffffffffffffffffffffffffffffffffff038211156150fe576150fd614915565b5b828201905092915050565b600061511482613ecf565b91506000820361512757615126614915565b5b600182039050919050565b7f537472696e67733a20686578206c656e67746820696e73756666696369656e74600082015250565b6000615168602083613e1f565b915061517382615132565b602082019050919050565b600060208201905081810360008301526151978161515b565b9050919050565b7f455243323938313a20726f79616c7479206665652077696c6c2065786365656460008201527f2073616c65507269636500000000000000000000000000000000000000000000602082015250565b60006151fa602a83613e1f565b91506152058261519e565b604082019050919050565b60006020820190508181036000830152615229816151ed565b9050919050565b7f455243323938313a20696e76616c696420726563656976657200000000000000600082015250565b6000615266601983613e1f565b915061527182615230565b602082019050919050565b6000602082019050818103600083015261529581615259565b9050919050565b7f5032443a205468652073746167652073686f756c642062652000000000000000815250565b7f20746f20706572666f726d207468697320616374696f6e000000000000000000815250565b60006152f38261529c565b6019820191506153038284614e1e565b915061530e826152c2565b60178201915081905092915050565b7f4552433732313a2063616c6c6572206973206e6f7420746f6b656e206f776e6560008201527f72206e6f7220617070726f766564000000000000000000000000000000000000602082015250565b6000615379602e83613e1f565b91506153848261531d565b604082019050919050565b600060208201905081810360008301526153a88161536c565b9050919050565b60006153ba82613ecf565b91506153c583613ecf565b9250828210156153d8576153d7614915565b5b828203905092915050565b7f5032443a20546865206c6576656c206f6620746865206469616d6f6e6420736860008201527f6f756c6420626520000000000000000000000000000000000000000000000000602082015250565b600061543f602883614cbd565b915061544a826153e3565b602882019050919050565b600061546082615432565b915061546c8284614e1e565b9150615477826152c2565b60178201915081905092915050565b7f5032443a2057726f6e67207061796d656e74202d207061796d656e742073686f60008201527f756c642062653a20000000000000000000000000000000000000000000000000602082015250565b60006154e2602883614cbd565b91506154ed82615486565b602882019050919050565b6000615503826154d5565b915061550f8284614e1e565b915081905092915050565b7f4552433732313a206f70657261746f7220717565727920666f72206e6f6e657860008201527f697374656e7420746f6b656e0000000000000000000000000000000000000000602082015250565b6000615576602c83613e1f565b91506155818261551a565b604082019050919050565b600060208201905081810360008301526155a581615569565b9050919050565b7f4552433732313a207472616e736665722066726f6d20696e636f72726563742060008201527f6f776e6572000000000000000000000000000000000000000000000000000000602082015250565b6000615608602583613e1f565b9150615613826155ac565b604082019050919050565b60006020820190508181036000830152615637816155fb565b9050919050565b7f4552433732313a207472616e7366657220746f20746865207a65726f2061646460008201527f7265737300000000000000000000000000000000000000000000000000000000602082015250565b600061569a602483613e1f565b91506156a58261563e565b604082019050919050565b600060208201905081810360008301526156c98161568d565b9050919050565b7f5061757361626c653a206e6f7420706175736564000000000000000000000000600082015250565b6000615706601483613e1f565b9150615711826156d0565b602082019050919050565b60006020820190508181036000830152615735816156f9565b9050919050565b7f4552433732314275726e61626c653a2063616c6c6572206973206e6f74206f7760008201527f6e6572206e6f7220617070726f76656400000000000000000000000000000000602082015250565b6000615798603083613e1f565b91506157a38261573c565b604082019050919050565b600060208201905081810360008301526157c78161578b565b9050919050565b7f5032443a205075726368617365642070726f6365737365732073686f756c642060008201527f6265206c657373207468616e206f7220657175616c20746f2000000000000000602082015250565b600061582a603983614cbd565b9150615835826157ce565b603982019050919050565b600061584b8261581d565b91506158578284614e1e565b915081905092915050565b7f5061757361626c653a2070617573656400000000000000000000000000000000600082015250565b6000615898601083613e1f565b91506158a382615862565b602082019050919050565b600060208201905081810360008301526158c78161588b565b9050919050565b7f4552433732313a20617070726f766520746f2063616c6c657200000000000000600082015250565b6000615904601983613e1f565b915061590f826158ce565b602082019050919050565b60006020820190508181036000830152615933816158f7565b9050919050565b7f4552433732313a207472616e7366657220746f206e6f6e20455243373231526560008201527f63656976657220696d706c656d656e7465720000000000000000000000000000602082015250565b6000615996603283613e1f565b91506159a18261593a565b604082019050919050565b600060208201905081810360008301526159c581615989565b9050919050565b60006159d782613ecf565b91506159e283613ecf565b9250826159f2576159f161499e565b5b828206905092915050565b7f416363657373436f6e74726f6c3a206163636f756e7420000000000000000000600082015250565b6000615a33601783614cbd565b9150615a3e826159fd565b601782019050919050565b7f206973206d697373696e6720726f6c6520000000000000000000000000000000600082015250565b6000615a7f601183614cbd565b9150615a8a82615a49565b601182019050919050565b6000615aa082615a26565b9150615aac8285614e1e565b9150615ab782615a72565b9150615ac38284614e1e565b91508190509392505050565b7f5032443a205468652073746167652073686f756c64206265206c65737320746860008201527f616e200000000000000000000000000000000000000000000000000000000000602082015250565b6000615b2b602383614cbd565b9150615b3682615acf565b602382019050919050565b6000615b4c82615b1e565b9150615b588284614e1e565b915081905092915050565b600081519050919050565b600082825260208201905092915050565b6000615b8a82615b63565b615b948185615b6e565b9350615ba4818560208601613e30565b615bad81613e63565b840191505092915050565b6000608082019050615bcd6000830187613f32565b615bda6020830186613f32565b615be7604083018561423a565b8181036060830152615bf98184615b7f565b905095945050505050565b600081519050615c1381613ca3565b92915050565b600060208284031215615c2f57615c2e613c6d565b5b6000615c3d84828501615c04565b91505092915050565b7f4552433732313a206d696e7420746f20746865207a65726f2061646472657373600082015250565b6000615c7c602083613e1f565b9150615c8782615c46565b602082019050919050565b60006020820190508181036000830152615cab81615c6f565b9050919050565b7f4552433732313a20746f6b656e20616c7265616479206d696e74656400000000600082015250565b6000615ce8601c83613e1f565b9150615cf382615cb2565b602082019050919050565b60006020820190508181036000830152615d1781615cdb565b905091905056fe4142434445464748494a4b4c4d4e4f505152535455565758595a6162636465666768696a6b6c6d6e6f707172737475767778797a303132333435363738392b2fa2646970667358221220800b7fb2243e4e660c497ef2d21a85f57d8ddd4cb2f248e752d0f267d3b2b07264736f6c634300080e0033",
  "linkReferences": {},
  "deployedLinkReferences": {}
}