{
  "_format": "hh-sol-artifact-1",
  "contractName": "DiamondDawn",
  "sourceName": "contracts/DiamondDawn.sol",
  "abi": [
    {
      "inputs": [],
      "stateMutability": "nonpayable",
      "type": "constructor"
    },
    {
      "anonymous": false,
      "inputs": [
        {
          "indexed": true,
          "internalType": "address",
          "name": "owner",
          "type": "address"
        },
        {
          "indexed": true,
          "internalType": "address",
          "name": "approved",
          "type": "address"
        },
        {
          "indexed": true,
          "internalType": "uint256",
          "name": "tokenId",
          "type": "uint256"
        }
      ],
      "name": "Approval",
      "type": "event"
    },
    {
      "anonymous": false,
      "inputs": [
        {
          "indexed": true,
          "internalType": "address",
          "name": "owner",
          "type": "address"
        },
        {
          "indexed": true,
          "internalType": "address",
          "name": "operator",
          "type": "address"
        },
        {
          "indexed": false,
          "internalType": "bool",
          "name": "approved",
          "type": "bool"
        }
      ],
      "name": "ApprovalForAll",
      "type": "event"
    },
    {
      "anonymous": false,
      "inputs": [
        {
          "indexed": false,
          "internalType": "address",
          "name": "account",
          "type": "address"
        }
      ],
      "name": "Paused",
      "type": "event"
    },
    {
      "anonymous": false,
      "inputs": [
        {
          "indexed": true,
          "internalType": "bytes32",
          "name": "role",
          "type": "bytes32"
        },
        {
          "indexed": true,
          "internalType": "bytes32",
          "name": "previousAdminRole",
          "type": "bytes32"
        },
        {
          "indexed": true,
          "internalType": "bytes32",
          "name": "newAdminRole",
          "type": "bytes32"
        }
      ],
      "name": "RoleAdminChanged",
      "type": "event"
    },
    {
      "anonymous": false,
      "inputs": [
        {
          "indexed": true,
          "internalType": "bytes32",
          "name": "role",
          "type": "bytes32"
        },
        {
          "indexed": true,
          "internalType": "address",
          "name": "account",
          "type": "address"
        },
        {
          "indexed": true,
          "internalType": "address",
          "name": "sender",
          "type": "address"
        }
      ],
      "name": "RoleGranted",
      "type": "event"
    },
    {
      "anonymous": false,
      "inputs": [
        {
          "indexed": true,
          "internalType": "bytes32",
          "name": "role",
          "type": "bytes32"
        },
        {
          "indexed": true,
          "internalType": "address",
          "name": "account",
          "type": "address"
        },
        {
          "indexed": true,
          "internalType": "address",
          "name": "sender",
          "type": "address"
        }
      ],
      "name": "RoleRevoked",
      "type": "event"
    },
    {
      "anonymous": false,
      "inputs": [
        {
          "indexed": true,
          "internalType": "address",
          "name": "from",
          "type": "address"
        },
        {
          "indexed": true,
          "internalType": "address",
          "name": "to",
          "type": "address"
        },
        {
          "indexed": true,
          "internalType": "uint256",
          "name": "tokenId",
          "type": "uint256"
        }
      ],
      "name": "Transfer",
      "type": "event"
    },
    {
      "anonymous": false,
      "inputs": [
        {
          "indexed": false,
          "internalType": "address",
          "name": "account",
          "type": "address"
        }
      ],
      "name": "Unpaused",
      "type": "event"
    },
    {
      "inputs": [],
      "name": "DEFAULT_ADMIN_ROLE",
      "outputs": [
        {
          "internalType": "bytes32",
          "name": "",
          "type": "bytes32"
        }
      ],
      "stateMutability": "view",
      "type": "function"
    },
    {
      "inputs": [],
      "name": "MINING_PRICE",
      "outputs": [
        {
          "internalType": "uint256",
          "name": "",
          "type": "uint256"
        }
      ],
      "stateMutability": "view",
      "type": "function"
    },
    {
      "inputs": [],
      "name": "MINTER_ROLE",
      "outputs": [
        {
          "internalType": "bytes32",
          "name": "",
          "type": "bytes32"
        }
      ],
      "stateMutability": "view",
      "type": "function"
    },
    {
      "inputs": [],
      "name": "PAUSER_ROLE",
      "outputs": [
        {
          "internalType": "bytes32",
          "name": "",
          "type": "bytes32"
        }
      ],
      "stateMutability": "view",
      "type": "function"
    },
    {
      "inputs": [],
      "name": "PREPAID_PROCESSING_PRICE",
      "outputs": [
        {
          "internalType": "uint256",
          "name": "",
          "type": "uint256"
        }
      ],
      "stateMutability": "view",
      "type": "function"
    },
    {
      "inputs": [
        {
          "internalType": "address",
          "name": "to",
          "type": "address"
        },
        {
          "internalType": "uint256",
          "name": "tokenId",
          "type": "uint256"
        }
      ],
      "name": "approve",
      "outputs": [],
      "stateMutability": "nonpayable",
      "type": "function"
    },
    {
      "inputs": [
        {
          "internalType": "address",
          "name": "owner",
          "type": "address"
        }
      ],
      "name": "balanceOf",
      "outputs": [
        {
          "internalType": "uint256",
          "name": "",
          "type": "uint256"
        }
      ],
      "stateMutability": "view",
      "type": "function"
    },
    {
      "inputs": [
        {
          "internalType": "uint256",
          "name": "tokenId",
          "type": "uint256"
        }
      ],
      "name": "burn",
      "outputs": [],
      "stateMutability": "nonpayable",
      "type": "function"
    },
    {
      "inputs": [],
      "name": "completeCurrentStage",
      "outputs": [],
      "stateMutability": "nonpayable",
      "type": "function"
    },
    {
      "inputs": [
        {
          "internalType": "uint256",
          "name": "tokenId",
          "type": "uint256"
        }
      ],
      "name": "cut",
      "outputs": [],
      "stateMutability": "payable",
      "type": "function"
    },
    {
      "inputs": [],
      "name": "dev__ResetStage",
      "outputs": [],
      "stateMutability": "nonpayable",
      "type": "function"
    },
    {
      "inputs": [
        {
          "internalType": "uint256",
          "name": "tokenId",
          "type": "uint256"
        }
      ],
      "name": "getApproved",
      "outputs": [
        {
          "internalType": "address",
          "name": "",
          "type": "address"
        }
      ],
      "stateMutability": "view",
      "type": "function"
    },
    {
      "inputs": [
        {
          "internalType": "bytes32",
          "name": "role",
          "type": "bytes32"
        }
      ],
      "name": "getRoleAdmin",
      "outputs": [
        {
          "internalType": "bytes32",
          "name": "",
          "type": "bytes32"
        }
      ],
      "stateMutability": "view",
      "type": "function"
    },
    {
      "inputs": [
        {
          "internalType": "bytes32",
          "name": "role",
          "type": "bytes32"
        },
        {
          "internalType": "address",
          "name": "account",
          "type": "address"
        }
      ],
      "name": "grantRole",
      "outputs": [],
      "stateMutability": "nonpayable",
      "type": "function"
    },
    {
      "inputs": [
        {
          "internalType": "bytes32",
          "name": "role",
          "type": "bytes32"
        },
        {
          "internalType": "address",
          "name": "account",
          "type": "address"
        }
      ],
      "name": "hasRole",
      "outputs": [
        {
          "internalType": "bool",
          "name": "",
          "type": "bool"
        }
      ],
      "stateMutability": "view",
      "type": "function"
    },
    {
      "inputs": [
        {
          "internalType": "address",
          "name": "owner",
          "type": "address"
        },
        {
          "internalType": "address",
          "name": "operator",
          "type": "address"
        }
      ],
      "name": "isApprovedForAll",
      "outputs": [
        {
          "internalType": "bool",
          "name": "",
          "type": "bool"
        }
      ],
      "stateMutability": "view",
      "type": "function"
    },
    {
      "inputs": [],
      "name": "isStageActive",
      "outputs": [
        {
          "internalType": "bool",
          "name": "",
          "type": "bool"
        }
      ],
      "stateMutability": "view",
      "type": "function"
    },
    {
      "inputs": [
        {
          "internalType": "uint256",
          "name": "processesPurchased",
          "type": "uint256"
        }
      ],
      "name": "mine",
      "outputs": [],
      "stateMutability": "payable",
      "type": "function"
    },
    {
      "inputs": [],
      "name": "name",
      "outputs": [
        {
          "internalType": "string",
          "name": "",
          "type": "string"
        }
      ],
      "stateMutability": "view",
      "type": "function"
    },
    {
      "inputs": [
        {
          "internalType": "uint256",
          "name": "tokenId",
          "type": "uint256"
        }
      ],
      "name": "ownerOf",
      "outputs": [
        {
          "internalType": "address",
          "name": "",
          "type": "address"
        }
      ],
      "stateMutability": "view",
      "type": "function"
    },
    {
      "inputs": [],
      "name": "pause",
      "outputs": [],
      "stateMutability": "nonpayable",
      "type": "function"
    },
    {
      "inputs": [],
      "name": "paused",
      "outputs": [
        {
          "internalType": "bool",
          "name": "",
          "type": "bool"
        }
      ],
      "stateMutability": "view",
      "type": "function"
    },
    {
      "inputs": [
        {
          "internalType": "uint256",
          "name": "tokenId",
          "type": "uint256"
        }
      ],
      "name": "polish",
      "outputs": [],
      "stateMutability": "payable",
      "type": "function"
    },
    {
      "inputs": [],
      "name": "processingPrice",
      "outputs": [
        {
          "internalType": "uint256",
          "name": "",
          "type": "uint256"
        }
      ],
      "stateMutability": "view",
      "type": "function"
    },
    {
      "inputs": [
        {
          "internalType": "bytes32",
          "name": "role",
          "type": "bytes32"
        },
        {
          "internalType": "address",
          "name": "account",
          "type": "address"
        }
      ],
      "name": "renounceRole",
      "outputs": [],
      "stateMutability": "nonpayable",
      "type": "function"
    },
    {
      "inputs": [
        {
          "internalType": "string",
          "name": "videoUrl",
          "type": "string"
        }
      ],
      "name": "revealStage",
      "outputs": [],
      "stateMutability": "nonpayable",
      "type": "function"
    },
    {
      "inputs": [
        {
          "internalType": "bytes32",
          "name": "role",
          "type": "bytes32"
        },
        {
          "internalType": "address",
          "name": "account",
          "type": "address"
        }
      ],
      "name": "revokeRole",
      "outputs": [],
      "stateMutability": "nonpayable",
      "type": "function"
    },
    {
      "inputs": [
        {
          "internalType": "address",
          "name": "to",
          "type": "address"
        }
      ],
      "name": "safeMint",
      "outputs": [],
      "stateMutability": "nonpayable",
      "type": "function"
    },
    {
      "inputs": [
        {
          "internalType": "address",
          "name": "from",
          "type": "address"
        },
        {
          "internalType": "address",
          "name": "to",
          "type": "address"
        },
        {
          "internalType": "uint256",
          "name": "tokenId",
          "type": "uint256"
        }
      ],
      "name": "safeTransferFrom",
      "outputs": [],
      "stateMutability": "nonpayable",
      "type": "function"
    },
    {
      "inputs": [
        {
          "internalType": "address",
          "name": "from",
          "type": "address"
        },
        {
          "internalType": "address",
          "name": "to",
          "type": "address"
        },
        {
          "internalType": "uint256",
          "name": "tokenId",
          "type": "uint256"
        },
        {
          "internalType": "bytes",
          "name": "_data",
          "type": "bytes"
        }
      ],
      "name": "safeTransferFrom",
      "outputs": [],
      "stateMutability": "nonpayable",
      "type": "function"
    },
    {
      "inputs": [
        {
          "internalType": "address",
          "name": "operator",
          "type": "address"
        },
        {
          "internalType": "bool",
          "name": "approved",
          "type": "bool"
        }
      ],
      "name": "setApprovalForAll",
      "outputs": [],
      "stateMutability": "nonpayable",
      "type": "function"
    },
    {
      "inputs": [
        {
          "internalType": "uint256",
          "name": "price",
          "type": "uint256"
        }
      ],
      "name": "setProcessingPrice",
      "outputs": [],
      "stateMutability": "nonpayable",
      "type": "function"
    },
    {
      "inputs": [],
      "name": "stage",
      "outputs": [
        {
          "internalType": "enum DiamondDawn.Stage",
          "name": "",
          "type": "uint8"
        }
      ],
      "stateMutability": "view",
      "type": "function"
    },
    {
      "inputs": [
        {
          "internalType": "bytes4",
          "name": "interfaceId",
          "type": "bytes4"
        }
      ],
      "name": "supportsInterface",
      "outputs": [
        {
          "internalType": "bool",
          "name": "",
          "type": "bool"
        }
      ],
      "stateMutability": "view",
      "type": "function"
    },
    {
      "inputs": [],
      "name": "symbol",
      "outputs": [
        {
          "internalType": "string",
          "name": "",
          "type": "string"
        }
      ],
      "stateMutability": "view",
      "type": "function"
    },
    {
      "inputs": [
        {
          "internalType": "uint256",
          "name": "tokenId",
          "type": "uint256"
        }
      ],
      "name": "tokenURI",
      "outputs": [
        {
          "internalType": "string",
          "name": "",
          "type": "string"
        }
      ],
      "stateMutability": "view",
      "type": "function"
    },
    {
      "inputs": [
        {
          "internalType": "address",
          "name": "from",
          "type": "address"
        },
        {
          "internalType": "address",
          "name": "to",
          "type": "address"
        },
        {
          "internalType": "uint256",
          "name": "tokenId",
          "type": "uint256"
        }
      ],
      "name": "transferFrom",
      "outputs": [],
      "stateMutability": "nonpayable",
      "type": "function"
    },
    {
      "inputs": [],
      "name": "unpause",
      "outputs": [],
      "stateMutability": "nonpayable",
      "type": "function"
    }
  ],
  "bytecode": "0x60806040523480156200001157600080fd5b506040518060400160405280600b81526020017f4469616d6f6e644461776e0000000000000000000000000000000000000000008152506040518060400160405280600281526020017f4444000000000000000000000000000000000000000000000000000000000000815250816000908051906020019062000096929190620003e7565b508060019080519060200190620000af929190620003e7565b5050506000600660006101000a81548160ff021916908315150217905550620000e26000801b33620001b360201b60201c565b620001147f65d7a28e3265b37a6474929f336521b332c1681b933f6cb9f3376673440d862a33620001b360201b60201c565b620001467f9f2df0fed2c77648de5860a4cc508cd0818c85b8b8a1ab4ceeef8d981c8956a633620001b360201b60201c565b662386f26fc10000600a819055506000600960006101000a81548160ff021916908360038111156200017d576200017c62000497565b5b02179055506000600b60006101000a81548160ff021916908315150217905550620001ad620002a560201b60201c565b6200060f565b620001c582826200035d60201b60201c565b620002a15760016007600084815260200190815260200160002060000160008373ffffffffffffffffffffffffffffffffffffffff1673ffffffffffffffffffffffffffffffffffffffff16815260200190815260200160002060006101000a81548160ff02191690831515021790555062000246620003c860201b60201c565b73ffffffffffffffffffffffffffffffffffffffff168173ffffffffffffffffffffffffffffffffffffffff16837f2f8788117e7eff1d82e926ec794901d17c78024a50270940304540a733656f0d60405160405180910390a45b5050565b620002b5620003d060201b60201c565b15620002f8576040517f08c379a0000000000000000000000000000000000000000000000000000000008152600401620002ef9062000527565b60405180910390fd5b6001600660006101000a81548160ff0219169083151502179055507f62e78cea01bee320cd4e420270b5ea74000d11b0c9f74754ebdbfc544b05a25862000344620003c860201b60201c565b6040516200035391906200058e565b60405180910390a1565b60006007600084815260200190815260200160002060000160008373ffffffffffffffffffffffffffffffffffffffff1673ffffffffffffffffffffffffffffffffffffffff16815260200190815260200160002060009054906101000a900460ff16905092915050565b600033905090565b6000600660009054906101000a900460ff16905090565b828054620003f590620005da565b90600052602060002090601f01602090048101928262000419576000855562000465565b82601f106200043457805160ff191683800117855562000465565b8280016001018555821562000465579182015b828111156200046457825182559160200191906001019062000447565b5b50905062000474919062000478565b5090565b5b808211156200049357600081600090555060010162000479565b5090565b7f4e487b7100000000000000000000000000000000000000000000000000000000600052602160045260246000fd5b600082825260208201905092915050565b7f5061757361626c653a2070617573656400000000000000000000000000000000600082015250565b60006200050f601083620004c6565b91506200051c82620004d7565b602082019050919050565b60006020820190508181036000830152620005428162000500565b9050919050565b600073ffffffffffffffffffffffffffffffffffffffff82169050919050565b6000620005768262000549565b9050919050565b620005888162000569565b82525050565b6000602082019050620005a560008301846200057d565b92915050565b7f4e487b7100000000000000000000000000000000000000000000000000000000600052602260045260246000fd5b60006002820490506001821680620005f357607f821691505b602082108103620006095762000608620005ab565b5b50919050565b614eac806200061f6000396000f3fe6080604052600436106102255760003560e01c80635ed6ac4f11610123578063abdfe275116100ab578063cc1169791161006f578063cc116979146107a0578063d5391393146107cb578063d547741f146107f6578063e63ab1e91461081f578063e985e9c51461084a57610225565b8063abdfe275146106ca578063b88d4fde146106f3578063bf72b63f1461071c578063c040e6b814610738578063c87b56dd1461076357610225565b80638c8c35d1116100f25780638c8c35d1146105e357806391d148541461060e57806395d89b411461064b578063a217fddf14610676578063a22cb465146106a157610225565b80635ed6ac4f146105275780636352211e1461055257806370a082311461058f5780638456cb59146105cc57610225565b8063248a9ca3116101b157806342842e0e1161017557806342842e0e1461046357806342966c681461048c5780634d474898146104b55780634e490b4a146104d15780635c975abb146104fc57610225565b8063248a9ca3146103945780632f2ff15d146103d157806336568abe146103fa5780633f4ba83a1461042357806340d097c31461043a57610225565b8063095ea7b3116101f8578063095ea7b3146102eb5780630a49008d14610314578063140865f31461033d57806315afd8f81461035457806323b872dd1461036b57610225565b806301ffc9a71461022a57806306fdde0314610267578063081812fc1461029257806309260db7146102cf575b600080fd5b34801561023657600080fd5b50610251600480360381019061024c9190613260565b610887565b60405161025e91906132a8565b60405180910390f35b34801561027357600080fd5b5061027c610899565b604051610289919061335c565b60405180910390f35b34801561029e57600080fd5b506102b960048036038101906102b491906133b4565b61092b565b6040516102c69190613422565b60405180910390f35b6102e960048036038101906102e491906133b4565b6109b0565b005b3480156102f757600080fd5b50610312600480360381019061030d9190613469565b6109d0565b005b34801561032057600080fd5b5061033b600480360381019061033691906135de565b610ae7565b005b34801561034957600080fd5b50610352610afb565b005b34801561036057600080fd5b50610369610b55565b005b34801561037757600080fd5b50610392600480360381019061038d9190613627565b610b67565b005b3480156103a057600080fd5b506103bb60048036038101906103b691906136b0565b610bc7565b6040516103c891906136ec565b60405180910390f35b3480156103dd57600080fd5b506103f860048036038101906103f39190613707565b610be7565b005b34801561040657600080fd5b50610421600480360381019061041c9190613707565b610c08565b005b34801561042f57600080fd5b50610438610c8b565b005b34801561044657600080fd5b50610461600480360381019061045c9190613747565b610cc0565b005b34801561046f57600080fd5b5061048a60048036038101906104859190613627565b610d11565b005b34801561049857600080fd5b506104b360048036038101906104ae91906133b4565b610d31565b005b6104cf60048036038101906104ca91906133b4565b610d8d565b005b3480156104dd57600080fd5b506104e6610f80565b6040516104f39190613783565b60405180910390f35b34801561050857600080fd5b50610511610f86565b60405161051e91906132a8565b60405180910390f35b34801561053357600080fd5b5061053c610f9d565b60405161054991906132a8565b60405180910390f35b34801561055e57600080fd5b50610579600480360381019061057491906133b4565b610fb0565b6040516105869190613422565b60405180910390f35b34801561059b57600080fd5b506105b660048036038101906105b19190613747565b611061565b6040516105c39190613783565b60405180910390f35b3480156105d857600080fd5b506105e1611118565b005b3480156105ef57600080fd5b506105f861114d565b6040516106059190613783565b60405180910390f35b34801561061a57600080fd5b5061063560048036038101906106309190613707565b611158565b60405161064291906132a8565b60405180910390f35b34801561065757600080fd5b506106606111c3565b60405161066d919061335c565b60405180910390f35b34801561068257600080fd5b5061068b611255565b60405161069891906136ec565b60405180910390f35b3480156106ad57600080fd5b506106c860048036038101906106c391906137ca565b61125c565b005b3480156106d657600080fd5b506106f160048036038101906106ec91906133b4565b611272565b005b3480156106ff57600080fd5b5061071a600480360381019061071591906138ab565b61128a565b005b610736600480360381019061073191906133b4565b6112ec565b005b34801561074457600080fd5b5061074d61130c565b60405161075a91906139a5565b60405180910390f35b34801561076f57600080fd5b5061078a600480360381019061078591906133b4565b61131f565b604051610797919061335c565b60405180910390f35b3480156107ac57600080fd5b506107b561137d565b6040516107c29190613783565b60405180910390f35b3480156107d757600080fd5b506107e0611388565b6040516107ed91906136ec565b60405180910390f35b34801561080257600080fd5b5061081d60048036038101906108189190613707565b6113ac565b005b34801561082b57600080fd5b506108346113cd565b60405161084191906136ec565b60405180910390f35b34801561085657600080fd5b50610871600480360381019061086c91906139c0565b6113f1565b60405161087e91906132a8565b60405180910390f35b600061089282611485565b9050919050565b6060600080546108a890613a2f565b80601f01602080910402602001604051908101604052809291908181526020018280546108d490613a2f565b80156109215780601f106108f657610100808354040283529160200191610921565b820191906000526020600020905b81548152906001019060200180831161090457829003601f168201915b5050505050905090565b6000610936826114ff565b610975576040517f08c379a000000000000000000000000000000000000000000000000000000000815260040161096c90613ad2565b60405180910390fd5b6004600083815260200190815260200160002060009054906101000a900473ffffffffffffffffffffffffffffffffffffffff169050919050565b60016109ba61156b565b6109c3816115bc565b6109cc82611671565b5050565b60006109db82610fb0565b90508073ffffffffffffffffffffffffffffffffffffffff168373ffffffffffffffffffffffffffffffffffffffff1603610a4b576040517f08c379a0000000000000000000000000000000000000000000000000000000008152600401610a4290613b64565b60405180910390fd5b8073ffffffffffffffffffffffffffffffffffffffff16610a6a611905565b73ffffffffffffffffffffffffffffffffffffffff161480610a995750610a9881610a93611905565b6113f1565b5b610ad8576040517f08c379a0000000000000000000000000000000000000000000000000000000008152600401610acf90613bf6565b60405180910390fd5b610ae2838361190d565b505050565b610aef6119c6565b610af8816119f1565b50565b60006003811115610b0f57610b0e61392e565b5b600960006101000a81548160ff02191690836003811115610b3357610b3261392e565b5b02179055506000600b60006101000a81548160ff021916908315150217905550565b610b5d611a5d565b610b65611a88565b565b610b78610b72611905565b82611ad9565b610bb7576040517f08c379a0000000000000000000000000000000000000000000000000000000008152600401610bae90613c88565b60405180910390fd5b610bc2838383611bb7565b505050565b600060076000838152602001908152602001600020600101549050919050565b610bf082610bc7565b610bf981611e1d565b610c038383611e31565b505050565b610c10611905565b73ffffffffffffffffffffffffffffffffffffffff168173ffffffffffffffffffffffffffffffffffffffff1614610c7d576040517f08c379a0000000000000000000000000000000000000000000000000000000008152600401610c7490613d1a565b60405180910390fd5b610c878282611f12565b5050565b7f65d7a28e3265b37a6474929f336521b332c1681b933f6cb9f3376673440d862a610cb581611e1d565b610cbd611ff4565b50565b7f9f2df0fed2c77648de5860a4cc508cd0818c85b8b8a1ab4ceeef8d981c8956a6610cea81611e1d565b6000610cf66008612096565b9050610d0260086120a4565b610d0c83826120ba565b505050565b610d2c8383836040518060200160405280600081525061128a565b505050565b610d42610d3c611905565b82611ad9565b610d81576040517f08c379a0000000000000000000000000000000000000000000000000000000008152600401610d7890613dac565b60405180910390fd5b610d8a816120d8565b50565b6000610d9761156b565b610da0816115bc565b6001600380811115610db557610db461392e565b5b610dbf9190613dfb565b821115610de96001600380811115610dda57610dd961392e565b5b610de49190613dfb565b6121f5565b604051602001610df99190613edd565b60405160208183030381529060405290610e49576040517f08c379a0000000000000000000000000000000000000000000000000000000008152600401610e40919061335c565b60405180910390fd5b506000662386f26fc1000083610e5f9190613eff565b662386f26fc10000610e719190613f59565b9050803414610e7f826121f5565b604051602001610e8f9190614021565b60405160208183030381529060405290610edf576040517f08c379a0000000000000000000000000000000000000000000000000000000008152600401610ed6919061335c565b60405180910390fd5b506000610eec6008612096565b9050610ef860086120a4565b610f0233826120ba565b604051806040016040528060006003811115610f2157610f2061392e565b5b815260200185815250600d600083815260200190815260200160002060008201518160000160006101000a81548160ff02191690836003811115610f6857610f6761392e565b5b02179055506020820151816001015590505050505050565b600a5481565b6000600660009054906101000a900460ff16905090565b600b60009054906101000a900460ff1681565b6000806002600084815260200190815260200160002060009054906101000a900473ffffffffffffffffffffffffffffffffffffffff169050600073ffffffffffffffffffffffffffffffffffffffff168173ffffffffffffffffffffffffffffffffffffffff1603611058576040517f08c379a000000000000000000000000000000000000000000000000000000000815260040161104f906140b5565b60405180910390fd5b80915050919050565b60008073ffffffffffffffffffffffffffffffffffffffff168273ffffffffffffffffffffffffffffffffffffffff16036110d1576040517f08c379a00000000000000000000000000000000000000000000000000000000081526004016110c890614147565b60405180910390fd5b600360008373ffffffffffffffffffffffffffffffffffffffff1673ffffffffffffffffffffffffffffffffffffffff168152602001908152602001600020549050919050565b7f65d7a28e3265b37a6474929f336521b332c1681b933f6cb9f3376673440d862a61114281611e1d565b61114a612355565b50565b662386f26fc1000081565b60006007600084815260200190815260200160002060000160008373ffffffffffffffffffffffffffffffffffffffff1673ffffffffffffffffffffffffffffffffffffffff16815260200190815260200160002060009054906101000a900460ff16905092915050565b6060600180546111d290613a2f565b80601f01602080910402602001604051908101604052809291908181526020018280546111fe90613a2f565b801561124b5780601f106112205761010080835404028352916020019161124b565b820191906000526020600020905b81548152906001019060200180831161122e57829003601f168201915b5050505050905090565b6000801b81565b61126e611267611905565b83836123f8565b5050565b6000801b61127f81611e1d565b81600a819055505050565b61129b611295611905565b83611ad9565b6112da576040517f08c379a00000000000000000000000000000000000000000000000000000000081526004016112d190613c88565b60405180910390fd5b6112e684848484612564565b50505050565b60026112f661156b565b6112ff816115bc565b61130882611671565b5050565b600960009054906101000a900460ff1681565b6060600061135361132f846125c0565b60405160200161133f9190614309565b6040516020818303038152906040526126ac565b9050806040516020016113669190614382565b604051602081830303815290604052915050919050565b662386f26fc1000081565b7f9f2df0fed2c77648de5860a4cc508cd0818c85b8b8a1ab4ceeef8d981c8956a681565b6113b582610bc7565b6113be81611e1d565b6113c88383611f12565b505050565b7f65d7a28e3265b37a6474929f336521b332c1681b933f6cb9f3376673440d862a81565b6000600560008473ffffffffffffffffffffffffffffffffffffffff1673ffffffffffffffffffffffffffffffffffffffff16815260200190815260200160002060008373ffffffffffffffffffffffffffffffffffffffff1673ffffffffffffffffffffffffffffffffffffffff16815260200190815260200160002060009054906101000a900460ff16905092915050565b60007f7965db0b000000000000000000000000000000000000000000000000000000007bffffffffffffffffffffffffffffffffffffffffffffffffffffffff1916827bffffffffffffffffffffffffffffffffffffffffffffffffffffffff191614806114f857506114f78261280f565b5b9050919050565b60008073ffffffffffffffffffffffffffffffffffffffff166002600084815260200190815260200160002060009054906101000a900473ffffffffffffffffffffffffffffffffffffffff1673ffffffffffffffffffffffffffffffffffffffff1614159050919050565b600b60009054906101000a900460ff166115ba576040517f08c379a00000000000000000000000000000000000000000000000000000000081526004016115b190614416565b60405180910390fd5b565b8060038111156115cf576115ce61392e565b5b600960009054906101000a900460ff1660038111156115f1576115f061392e565b5b1461160d8260038111156116085761160761392e565b5b6121f5565b60405160200161161d9190614482565b6040516020818303038152906040529061166d576040517f08c379a0000000000000000000000000000000000000000000000000000000008152600401611664919061335c565b60405180910390fd5b5050565b61168261167c611905565b82611ad9565b6116c1576040517f08c379a00000000000000000000000000000000000000000000000000000000081526004016116b890614529565b60405180910390fd5b6001600960009054906101000a900460ff1660038111156116e5576116e461392e565b5b6116ef9190613dfb565b600d600083815260200190815260200160002060000160009054906101000a900460ff1660038111156117255761172461392e565b5b1461175c6001600960009054906101000a900460ff16600381111561174d5761174c61392e565b5b6117579190613dfb565b6121f5565b60405160200161176c91906145bb565b604051602081830303815290604052906117bc576040517f08c379a00000000000000000000000000000000000000000000000000000000081526004016117b3919061335c565b60405180910390fd5b506000600d6000838152602001908152602001600020600101540361184d57600a5434146117eb600a546121f5565b6040516020016117fb9190614021565b6040516020818303038152906040529061184b576040517f08c379a0000000000000000000000000000000000000000000000000000000008152600401611842919061335c565b60405180910390fd5b505b611879600d600083815260200190815260200160002060000160009054906101000a900460ff166128f1565b600d600083815260200190815260200160002060000160006101000a81548160ff021916908360038111156118b1576118b061392e565b5b02179055506000600d600083815260200190815260200160002060010154111561190257600d600082815260200190815260200160002060010160008154809291906118fc906145ec565b91905055505b50565b600033905090565b816004600083815260200190815260200160002060006101000a81548173ffffffffffffffffffffffffffffffffffffffff021916908373ffffffffffffffffffffffffffffffffffffffff160217905550808273ffffffffffffffffffffffffffffffffffffffff1661198083610fb0565b73ffffffffffffffffffffffffffffffffffffffff167f8c5be1e5ebec7d5bd14f71427d1e84f3dd0314c0f7b2291e5b200ac8c7c3b92560405160405180910390a45050565b6000801b6119d381611e1d565b6001600b60006101000a81548160ff02191690831515021790555050565b6000801b6119fe81611e1d565b81600c6000600960009054906101000a900460ff166003811115611a2557611a2461392e565b5b6003811115611a3757611a3661392e565b5b81526020019081526020016000209080519060200190611a58929190613151565b505050565b6000801b611a6a81611e1d565b6000600b60006101000a81548160ff02191690831515021790555050565b6000801b611a9581611e1d565b611aad600960009054906101000a900460ff166128f1565b600960006101000a81548160ff02191690836003811115611ad157611ad061392e565b5b021790555050565b6000611ae4826114ff565b611b23576040517f08c379a0000000000000000000000000000000000000000000000000000000008152600401611b1a90614687565b60405180910390fd5b6000611b2e83610fb0565b90508073ffffffffffffffffffffffffffffffffffffffff168473ffffffffffffffffffffffffffffffffffffffff161480611b705750611b6f81856113f1565b5b80611bae57508373ffffffffffffffffffffffffffffffffffffffff16611b968461092b565b73ffffffffffffffffffffffffffffffffffffffff16145b91505092915050565b8273ffffffffffffffffffffffffffffffffffffffff16611bd782610fb0565b73ffffffffffffffffffffffffffffffffffffffff1614611c2d576040517f08c379a0000000000000000000000000000000000000000000000000000000008152600401611c2490614719565b60405180910390fd5b600073ffffffffffffffffffffffffffffffffffffffff168273ffffffffffffffffffffffffffffffffffffffff1603611c9c576040517f08c379a0000000000000000000000000000000000000000000000000000000008152600401611c93906147ab565b60405180910390fd5b611ca78383836129ce565b611cb260008261190d565b6001600360008573ffffffffffffffffffffffffffffffffffffffff1673ffffffffffffffffffffffffffffffffffffffff1681526020019081526020016000206000828254611d029190613dfb565b925050819055506001600360008473ffffffffffffffffffffffffffffffffffffffff1673ffffffffffffffffffffffffffffffffffffffff1681526020019081526020016000206000828254611d599190613f59565b92505081905550816002600083815260200190815260200160002060006101000a81548173ffffffffffffffffffffffffffffffffffffffff021916908373ffffffffffffffffffffffffffffffffffffffff160217905550808273ffffffffffffffffffffffffffffffffffffffff168473ffffffffffffffffffffffffffffffffffffffff167fddf252ad1be2c89b69c2b068fc378daa952ba7f163c4a11628f55a4df523b3ef60405160405180910390a4611e18838383612a26565b505050565b611e2e81611e29611905565b612a2b565b50565b611e3b8282611158565b611f0e5760016007600084815260200190815260200160002060000160008373ffffffffffffffffffffffffffffffffffffffff1673ffffffffffffffffffffffffffffffffffffffff16815260200190815260200160002060006101000a81548160ff021916908315150217905550611eb3611905565b73ffffffffffffffffffffffffffffffffffffffff168173ffffffffffffffffffffffffffffffffffffffff16837f2f8788117e7eff1d82e926ec794901d17c78024a50270940304540a733656f0d60405160405180910390a45b5050565b611f1c8282611158565b15611ff05760006007600084815260200190815260200160002060000160008373ffffffffffffffffffffffffffffffffffffffff1673ffffffffffffffffffffffffffffffffffffffff16815260200190815260200160002060006101000a81548160ff021916908315150217905550611f95611905565b73ffffffffffffffffffffffffffffffffffffffff168173ffffffffffffffffffffffffffffffffffffffff16837ff6391f5c32d9c69d2a47ea670b442974b53935d1edc7fd64eb21e047a839171b60405160405180910390a45b5050565b611ffc610f86565b61203b576040517f08c379a000000000000000000000000000000000000000000000000000000000815260040161203290614817565b60405180910390fd5b6000600660006101000a81548160ff0219169083151502179055507f5db9ee0a495bf2e6ff9c91a7834c1ba4fdd244a5e8aa4e537bd38aeae4b073aa61207f611905565b60405161208c9190613422565b60405180910390a1565b600081600001549050919050565b6001816000016000828254019250508190555050565b6120d4828260405180602001604052806000815250612ac8565b5050565b60006120e382610fb0565b90506120f1816000846129ce565b6120fc60008361190d565b6001600360008373ffffffffffffffffffffffffffffffffffffffff1673ffffffffffffffffffffffffffffffffffffffff168152602001908152602001600020600082825461214c9190613dfb565b925050819055506002600083815260200190815260200160002060006101000a81549073ffffffffffffffffffffffffffffffffffffffff021916905581600073ffffffffffffffffffffffffffffffffffffffff168273ffffffffffffffffffffffffffffffffffffffff167fddf252ad1be2c89b69c2b068fc378daa952ba7f163c4a11628f55a4df523b3ef60405160405180910390a46121f181600084612a26565b5050565b60606000820361223c576040518060400160405280600181526020017f30000000000000000000000000000000000000000000000000000000000000008152509050612350565b600082905060005b6000821461226e57808061225790614837565b915050600a8261226791906148ae565b9150612244565b60008167ffffffffffffffff81111561228a576122896134b3565b5b6040519080825280601f01601f1916602001820160405280156122bc5781602001600182028036833780820191505090505b5090505b60008514612349576001826122d59190613dfb565b9150600a856122e491906148df565b60306122f09190613f59565b60f81b81838151811061230657612305614910565b5b60200101907effffffffffffffffffffffffffffffffffffffffffffffffffffffffffffff1916908160001a905350600a8561234291906148ae565b94506122c0565b8093505050505b919050565b61235d610f86565b1561239d576040517f08c379a00000000000000000000000000000000000000000000000000000000081526004016123949061498b565b60405180910390fd5b6001600660006101000a81548160ff0219169083151502179055507f62e78cea01bee320cd4e420270b5ea74000d11b0c9f74754ebdbfc544b05a2586123e1611905565b6040516123ee9190613422565b60405180910390a1565b8173ffffffffffffffffffffffffffffffffffffffff168373ffffffffffffffffffffffffffffffffffffffff1603612466576040517f08c379a000000000000000000000000000000000000000000000000000000000815260040161245d906149f7565b60405180910390fd5b80600560008573ffffffffffffffffffffffffffffffffffffffff1673ffffffffffffffffffffffffffffffffffffffff16815260200190815260200160002060008473ffffffffffffffffffffffffffffffffffffffff1673ffffffffffffffffffffffffffffffffffffffff16815260200190815260200160002060006101000a81548160ff0219169083151502179055508173ffffffffffffffffffffffffffffffffffffffff168373ffffffffffffffffffffffffffffffffffffffff167f17307eab39ab6107e8899845ad3d59bd9653f200f220920489ca2b5937696c318360405161255791906132a8565b60405180910390a3505050565b61256f848484611bb7565b61257b84848484612b23565b6125ba576040517f08c379a00000000000000000000000000000000000000000000000000000000081526004016125b190614a89565b60405180910390fd5b50505050565b6060600c6000600d600085815260200190815260200160002060000160009054906101000a900460ff1660038111156125fc576125fb61392e565b5b600381111561260e5761260d61392e565b5b8152602001908152602001600020805461262790613a2f565b80601f016020809104026020016040519081016040528092919081815260200182805461265390613a2f565b80156126a05780601f10612675576101008083540402835291602001916126a0565b820191906000526020600020905b81548152906001019060200180831161268357829003601f168201915b50505050509050919050565b606060008251036126ce5760405180602001604052806000815250905061280a565b6000604051806060016040528060408152602001614e3760409139905060006003600285516126fd9190613f59565b61270791906148ae565b60046127139190613eff565b67ffffffffffffffff81111561272c5761272b6134b3565b5b6040519080825280601f01601f19166020018201604052801561275e5781602001600182028036833780820191505090505b509050600182016020820185865187015b808210156127ca576003820191508151603f8160121c168501518453600184019350603f81600c1c168501518453600184019350603f8160061c168501518453600184019350603f811685015184536001840193505061276f565b50506003865106600181146127e657600281146127f957612801565b603d6001830353603d6002830353612801565b603d60018303535b50505080925050505b919050565b60007f80ac58cd000000000000000000000000000000000000000000000000000000007bffffffffffffffffffffffffffffffffffffffffffffffffffffffff1916827bffffffffffffffffffffffffffffffffffffffffffffffffffffffff191614806128da57507f5b5e139f000000000000000000000000000000000000000000000000000000007bffffffffffffffffffffffffffffffffffffffffffffffffffffffff1916827bffffffffffffffffffffffffffffffffffffffffffffffffffffffff1916145b806128ea57506128e982612caa565b5b9050919050565b60006003808111156129065761290561392e565b5b8260038111156129195761291861392e565b5b106129356003808111156129305761292f61392e565b5b6121f5565b6040516020016129459190614b1b565b60405160208183030381529060405290612995576040517f08c379a000000000000000000000000000000000000000000000000000000000815260040161298c919061335c565b60405180910390fd5b5060018260038111156129ab576129aa61392e565b5b6129b59190613f59565b60038111156129c7576129c661392e565b5b9050919050565b6129d6610f86565b15612a16576040517f08c379a0000000000000000000000000000000000000000000000000000000008152600401612a0d9061498b565b60405180910390fd5b612a21838383612d14565b505050565b505050565b612a358282611158565b612ac457612a5a8173ffffffffffffffffffffffffffffffffffffffff166014612d19565b612a688360001c6020612d19565b604051602001612a79929190614bd5565b6040516020818303038152906040526040517f08c379a0000000000000000000000000000000000000000000000000000000008152600401612abb919061335c565b60405180910390fd5b5050565b612ad28383612f55565b612adf6000848484612b23565b612b1e576040517f08c379a0000000000000000000000000000000000000000000000000000000008152600401612b1590614a89565b60405180910390fd5b505050565b6000612b448473ffffffffffffffffffffffffffffffffffffffff1661312e565b15612c9d578373ffffffffffffffffffffffffffffffffffffffff1663150b7a02612b6d611905565b8786866040518563ffffffff1660e01b8152600401612b8f9493929190614c64565b6020604051808303816000875af1925050508015612bcb57506040513d601f19601f82011682018060405250810190612bc89190614cc5565b60015b612c4d573d8060008114612bfb576040519150601f19603f3d011682016040523d82523d6000602084013e612c00565b606091505b506000815103612c45576040517f08c379a0000000000000000000000000000000000000000000000000000000008152600401612c3c90614a89565b60405180910390fd5b805181602001fd5b63150b7a0260e01b7bffffffffffffffffffffffffffffffffffffffffffffffffffffffff1916817bffffffffffffffffffffffffffffffffffffffffffffffffffffffff191614915050612ca2565b600190505b949350505050565b60007f01ffc9a7000000000000000000000000000000000000000000000000000000007bffffffffffffffffffffffffffffffffffffffffffffffffffffffff1916827bffffffffffffffffffffffffffffffffffffffffffffffffffffffff1916149050919050565b505050565b606060006002836002612d2c9190613eff565b612d369190613f59565b67ffffffffffffffff811115612d4f57612d4e6134b3565b5b6040519080825280601f01601f191660200182016040528015612d815781602001600182028036833780820191505090505b5090507f300000000000000000000000000000000000000000000000000000000000000081600081518110612db957612db8614910565b5b60200101907effffffffffffffffffffffffffffffffffffffffffffffffffffffffffffff1916908160001a9053507f780000000000000000000000000000000000000000000000000000000000000081600181518110612e1d57612e1c614910565b5b60200101907effffffffffffffffffffffffffffffffffffffffffffffffffffffffffffff1916908160001a90535060006001846002612e5d9190613eff565b612e679190613f59565b90505b6001811115612f07577f3031323334353637383961626364656600000000000000000000000000000000600f861660108110612ea957612ea8614910565b5b1a60f81b828281518110612ec057612ebf614910565b5b60200101907effffffffffffffffffffffffffffffffffffffffffffffffffffffffffffff1916908160001a905350600485901c945080612f00906145ec565b9050612e6a565b5060008414612f4b576040517f08c379a0000000000000000000000000000000000000000000000000000000008152600401612f4290614d3e565b60405180910390fd5b8091505092915050565b600073ffffffffffffffffffffffffffffffffffffffff168273ffffffffffffffffffffffffffffffffffffffff1603612fc4576040517f08c379a0000000000000000000000000000000000000000000000000000000008152600401612fbb90614daa565b60405180910390fd5b612fcd816114ff565b1561300d576040517f08c379a000000000000000000000000000000000000000000000000000000000815260040161300490614e16565b60405180910390fd5b613019600083836129ce565b6001600360008473ffffffffffffffffffffffffffffffffffffffff1673ffffffffffffffffffffffffffffffffffffffff16815260200190815260200160002060008282546130699190613f59565b92505081905550816002600083815260200190815260200160002060006101000a81548173ffffffffffffffffffffffffffffffffffffffff021916908373ffffffffffffffffffffffffffffffffffffffff160217905550808273ffffffffffffffffffffffffffffffffffffffff16600073ffffffffffffffffffffffffffffffffffffffff167fddf252ad1be2c89b69c2b068fc378daa952ba7f163c4a11628f55a4df523b3ef60405160405180910390a461312a60008383612a26565b5050565b6000808273ffffffffffffffffffffffffffffffffffffffff163b119050919050565b82805461315d90613a2f565b90600052602060002090601f01602090048101928261317f57600085556131c6565b82601f1061319857805160ff19168380011785556131c6565b828001600101855582156131c6579182015b828111156131c55782518255916020019190600101906131aa565b5b5090506131d391906131d7565b5090565b5b808211156131f05760008160009055506001016131d8565b5090565b6000604051905090565b600080fd5b600080fd5b60007fffffffff0000000000000000000000000000000000000000000000000000000082169050919050565b61323d81613208565b811461324857600080fd5b50565b60008135905061325a81613234565b92915050565b600060208284031215613276576132756131fe565b5b60006132848482850161324b565b91505092915050565b60008115159050919050565b6132a28161328d565b82525050565b60006020820190506132bd6000830184613299565b92915050565b600081519050919050565b600082825260208201905092915050565b60005b838110156132fd5780820151818401526020810190506132e2565b8381111561330c576000848401525b50505050565b6000601f19601f8301169050919050565b600061332e826132c3565b61333881856132ce565b93506133488185602086016132df565b61335181613312565b840191505092915050565b600060208201905081810360008301526133768184613323565b905092915050565b6000819050919050565b6133918161337e565b811461339c57600080fd5b50565b6000813590506133ae81613388565b92915050565b6000602082840312156133ca576133c96131fe565b5b60006133d88482850161339f565b91505092915050565b600073ffffffffffffffffffffffffffffffffffffffff82169050919050565b600061340c826133e1565b9050919050565b61341c81613401565b82525050565b60006020820190506134376000830184613413565b92915050565b61344681613401565b811461345157600080fd5b50565b6000813590506134638161343d565b92915050565b600080604083850312156134805761347f6131fe565b5b600061348e85828601613454565b925050602061349f8582860161339f565b9150509250929050565b600080fd5b600080fd5b7f4e487b7100000000000000000000000000000000000000000000000000000000600052604160045260246000fd5b6134eb82613312565b810181811067ffffffffffffffff8211171561350a576135096134b3565b5b80604052505050565b600061351d6131f4565b905061352982826134e2565b919050565b600067ffffffffffffffff821115613549576135486134b3565b5b61355282613312565b9050602081019050919050565b82818337600083830152505050565b600061358161357c8461352e565b613513565b90508281526020810184848401111561359d5761359c6134ae565b5b6135a884828561355f565b509392505050565b600082601f8301126135c5576135c46134a9565b5b81356135d584826020860161356e565b91505092915050565b6000602082840312156135f4576135f36131fe565b5b600082013567ffffffffffffffff81111561361257613611613203565b5b61361e848285016135b0565b91505092915050565b6000806000606084860312156136405761363f6131fe565b5b600061364e86828701613454565b935050602061365f86828701613454565b92505060406136708682870161339f565b9150509250925092565b6000819050919050565b61368d8161367a565b811461369857600080fd5b50565b6000813590506136aa81613684565b92915050565b6000602082840312156136c6576136c56131fe565b5b60006136d48482850161369b565b91505092915050565b6136e68161367a565b82525050565b600060208201905061370160008301846136dd565b92915050565b6000806040838503121561371e5761371d6131fe565b5b600061372c8582860161369b565b925050602061373d85828601613454565b9150509250929050565b60006020828403121561375d5761375c6131fe565b5b600061376b84828501613454565b91505092915050565b61377d8161337e565b82525050565b60006020820190506137986000830184613774565b92915050565b6137a78161328d565b81146137b257600080fd5b50565b6000813590506137c48161379e565b92915050565b600080604083850312156137e1576137e06131fe565b5b60006137ef85828601613454565b9250506020613800858286016137b5565b9150509250929050565b600067ffffffffffffffff821115613825576138246134b3565b5b61382e82613312565b9050602081019050919050565b600061384e6138498461380a565b613513565b90508281526020810184848401111561386a576138696134ae565b5b61387584828561355f565b509392505050565b600082601f830112613892576138916134a9565b5b81356138a284826020860161383b565b91505092915050565b600080600080608085870312156138c5576138c46131fe565b5b60006138d387828801613454565b94505060206138e487828801613454565b93505060406138f58782880161339f565b925050606085013567ffffffffffffffff81111561391657613915613203565b5b6139228782880161387d565b91505092959194509250565b7f4e487b7100000000000000000000000000000000000000000000000000000000600052602160045260246000fd5b6004811061396e5761396d61392e565b5b50565b600081905061397f8261395d565b919050565b600061398f82613971565b9050919050565b61399f81613984565b82525050565b60006020820190506139ba6000830184613996565b92915050565b600080604083850312156139d7576139d66131fe565b5b60006139e585828601613454565b92505060206139f685828601613454565b9150509250929050565b7f4e487b7100000000000000000000000000000000000000000000000000000000600052602260045260246000fd5b60006002820490506001821680613a4757607f821691505b602082108103613a5a57613a59613a00565b5b50919050565b7f4552433732313a20617070726f76656420717565727920666f72206e6f6e657860008201527f697374656e7420746f6b656e0000000000000000000000000000000000000000602082015250565b6000613abc602c836132ce565b9150613ac782613a60565b604082019050919050565b60006020820190508181036000830152613aeb81613aaf565b9050919050565b7f4552433732313a20617070726f76616c20746f2063757272656e74206f776e6560008201527f7200000000000000000000000000000000000000000000000000000000000000602082015250565b6000613b4e6021836132ce565b9150613b5982613af2565b604082019050919050565b60006020820190508181036000830152613b7d81613b41565b9050919050565b7f4552433732313a20617070726f76652063616c6c6572206973206e6f74206f7760008201527f6e6572206e6f7220617070726f76656420666f7220616c6c0000000000000000602082015250565b6000613be06038836132ce565b9150613beb82613b84565b604082019050919050565b60006020820190508181036000830152613c0f81613bd3565b9050919050565b7f4552433732313a207472616e736665722063616c6c6572206973206e6f74206f60008201527f776e6572206e6f7220617070726f766564000000000000000000000000000000602082015250565b6000613c726031836132ce565b9150613c7d82613c16565b604082019050919050565b60006020820190508181036000830152613ca181613c65565b9050919050565b7f416363657373436f6e74726f6c3a2063616e206f6e6c792072656e6f756e636560008201527f20726f6c657320666f722073656c660000000000000000000000000000000000602082015250565b6000613d04602f836132ce565b9150613d0f82613ca8565b604082019050919050565b60006020820190508181036000830152613d3381613cf7565b9050919050565b7f4552433732314275726e61626c653a2063616c6c6572206973206e6f74206f7760008201527f6e6572206e6f7220617070726f76656400000000000000000000000000000000602082015250565b6000613d966030836132ce565b9150613da182613d3a565b604082019050919050565b60006020820190508181036000830152613dc581613d89565b9050919050565b7f4e487b7100000000000000000000000000000000000000000000000000000000600052601160045260246000fd5b6000613e068261337e565b9150613e118361337e565b925082821015613e2457613e23613dcc565b5b828203905092915050565b600081905092915050565b7f5032443a205075726368617365642070726f6365737365732073686f756c642060008201527f6265206c657373207468616e206f7220657175616c20746f2000000000000000602082015250565b6000613e96603983613e2f565b9150613ea182613e3a565b603982019050919050565b6000613eb7826132c3565b613ec18185613e2f565b9350613ed18185602086016132df565b80840191505092915050565b6000613ee882613e89565b9150613ef48284613eac565b915081905092915050565b6000613f0a8261337e565b9150613f158361337e565b9250817fffffffffffffffffffffffffffffffffffffffffffffffffffffffffffffffff0483118215151615613f4e57613f4d613dcc565b5b828202905092915050565b6000613f648261337e565b9150613f6f8361337e565b9250827fffffffffffffffffffffffffffffffffffffffffffffffffffffffffffffffff03821115613fa457613fa3613dcc565b5b828201905092915050565b7f5032443a2057726f6e67207061796d656e74202d207061796d656e742073686f60008201527f756c642062653a20000000000000000000000000000000000000000000000000602082015250565b600061400b602883613e2f565b915061401682613faf565b602882019050919050565b600061402c82613ffe565b91506140388284613eac565b915081905092915050565b7f4552433732313a206f776e657220717565727920666f72206e6f6e657869737460008201527f656e7420746f6b656e0000000000000000000000000000000000000000000000602082015250565b600061409f6029836132ce565b91506140aa82614043565b604082019050919050565b600060208201905081810360008301526140ce81614092565b9050919050565b7f4552433732313a2062616c616e636520717565727920666f7220746865207a6560008201527f726f206164647265737300000000000000000000000000000000000000000000602082015250565b6000614131602a836132ce565b915061413c826140d5565b604082019050919050565b6000602082019050818103600083015261416081614124565b9050919050565b7f7b226e616d65223a20224469616d6f6e64204461776e222c202264657363726960008201527f7074696f6e223a20225468697320697320746865206465736372697074696f6e60208201527f206f66204469616d6f6e64204461776e2050726f6a656374222c2022696d616760408201527f65223a202268747470733a2f2f6d656469612e6e69667479676174657761792e60608201527f636f6d2f766964656f2f75706c6f61642f76313633393432313134312f416e6460808201527f7265612f446176696441726965772f446563437572617465642f4d797374696360a08201527f616c5f436162617265745f2d5f44617669645f41726965775f315f777a64687560c08201527f772e706e67222c2022616e696d6174696f6e5f75726c223a202200000000000060e082015250565b60006142a760fa83613e2f565b91506142b282614167565b60fa82019050919050565b7f22207d0000000000000000000000000000000000000000000000000000000000600082015250565b60006142f3600383613e2f565b91506142fe826142bd565b600382019050919050565b60006143148261429a565b91506143208284613eac565b915061432b826142e6565b915081905092915050565b7f646174613a6170706c69636174696f6e2f6a736f6e3b6261736536342c000000600082015250565b600061436c601d83613e2f565b915061437782614336565b601d82019050919050565b600061438d8261435f565b91506143998284613eac565b915081905092915050565b7f5032443a20412073746167652073686f756c642062652061637469766520746f60008201527f20706572666f726d207468697320616374696f6e000000000000000000000000602082015250565b60006144006034836132ce565b915061440b826143a4565b604082019050919050565b6000602082019050818103600083015261442f816143f3565b9050919050565b7f5032443a205468652073746167652073686f756c642062652000000000000000815250565b7f20746f20706572666f726d207468697320616374696f6e000000000000000000815250565b600061448d82614436565b60198201915061449d8284613eac565b91506144a88261445c565b60178201915081905092915050565b7f4552433732313a2063616c6c6572206973206e6f7420746f6b656e206f776e6560008201527f72206e6f7220617070726f766564000000000000000000000000000000000000602082015250565b6000614513602e836132ce565b915061451e826144b7565b604082019050919050565b6000602082019050818103600083015261454281614506565b9050919050565b7f5032443a20546865206c6576656c206f6620746865206469616d6f6e6420736860008201527f6f756c6420626520000000000000000000000000000000000000000000000000602082015250565b60006145a5602883613e2f565b91506145b082614549565b602882019050919050565b60006145c682614598565b91506145d28284613eac565b91506145dd8261445c565b60178201915081905092915050565b60006145f78261337e565b91506000820361460a57614609613dcc565b5b600182039050919050565b7f4552433732313a206f70657261746f7220717565727920666f72206e6f6e657860008201527f697374656e7420746f6b656e0000000000000000000000000000000000000000602082015250565b6000614671602c836132ce565b915061467c82614615565b604082019050919050565b600060208201905081810360008301526146a081614664565b9050919050565b7f4552433732313a207472616e736665722066726f6d20696e636f72726563742060008201527f6f776e6572000000000000000000000000000000000000000000000000000000602082015250565b60006147036025836132ce565b915061470e826146a7565b604082019050919050565b60006020820190508181036000830152614732816146f6565b9050919050565b7f4552433732313a207472616e7366657220746f20746865207a65726f2061646460008201527f7265737300000000000000000000000000000000000000000000000000000000602082015250565b60006147956024836132ce565b91506147a082614739565b604082019050919050565b600060208201905081810360008301526147c481614788565b9050919050565b7f5061757361626c653a206e6f7420706175736564000000000000000000000000600082015250565b60006148016014836132ce565b915061480c826147cb565b602082019050919050565b60006020820190508181036000830152614830816147f4565b9050919050565b60006148428261337e565b91507fffffffffffffffffffffffffffffffffffffffffffffffffffffffffffffffff820361487457614873613dcc565b5b600182019050919050565b7f4e487b7100000000000000000000000000000000000000000000000000000000600052601260045260246000fd5b60006148b98261337e565b91506148c48361337e565b9250826148d4576148d361487f565b5b828204905092915050565b60006148ea8261337e565b91506148f58361337e565b9250826149055761490461487f565b5b828206905092915050565b7f4e487b7100000000000000000000000000000000000000000000000000000000600052603260045260246000fd5b7f5061757361626c653a2070617573656400000000000000000000000000000000600082015250565b60006149756010836132ce565b91506149808261493f565b602082019050919050565b600060208201905081810360008301526149a481614968565b9050919050565b7f4552433732313a20617070726f766520746f2063616c6c657200000000000000600082015250565b60006149e16019836132ce565b91506149ec826149ab565b602082019050919050565b60006020820190508181036000830152614a10816149d4565b9050919050565b7f4552433732313a207472616e7366657220746f206e6f6e20455243373231526560008201527f63656976657220696d706c656d656e7465720000000000000000000000000000602082015250565b6000614a736032836132ce565b9150614a7e82614a17565b604082019050919050565b60006020820190508181036000830152614aa281614a66565b9050919050565b7f5032443a205468652073746167652073686f756c64206265206c65737320746860008201527f616e200000000000000000000000000000000000000000000000000000000000602082015250565b6000614b05602383613e2f565b9150614b1082614aa9565b602382019050919050565b6000614b2682614af8565b9150614b328284613eac565b915081905092915050565b7f416363657373436f6e74726f6c3a206163636f756e7420000000000000000000600082015250565b6000614b73601783613e2f565b9150614b7e82614b3d565b601782019050919050565b7f206973206d697373696e6720726f6c6520000000000000000000000000000000600082015250565b6000614bbf601183613e2f565b9150614bca82614b89565b601182019050919050565b6000614be082614b66565b9150614bec8285613eac565b9150614bf782614bb2565b9150614c038284613eac565b91508190509392505050565b600081519050919050565b600082825260208201905092915050565b6000614c3682614c0f565b614c408185614c1a565b9350614c508185602086016132df565b614c5981613312565b840191505092915050565b6000608082019050614c796000830187613413565b614c866020830186613413565b614c936040830185613774565b8181036060830152614ca58184614c2b565b905095945050505050565b600081519050614cbf81613234565b92915050565b600060208284031215614cdb57614cda6131fe565b5b6000614ce984828501614cb0565b91505092915050565b7f537472696e67733a20686578206c656e67746820696e73756666696369656e74600082015250565b6000614d286020836132ce565b9150614d3382614cf2565b602082019050919050565b60006020820190508181036000830152614d5781614d1b565b9050919050565b7f4552433732313a206d696e7420746f20746865207a65726f2061646472657373600082015250565b6000614d946020836132ce565b9150614d9f82614d5e565b602082019050919050565b60006020820190508181036000830152614dc381614d87565b9050919050565b7f4552433732313a20746f6b656e20616c7265616479206d696e74656400000000600082015250565b6000614e00601c836132ce565b9150614e0b82614dca565b602082019050919050565b60006020820190508181036000830152614e2f81614df3565b905091905056fe4142434445464748494a4b4c4d4e4f505152535455565758595a6162636465666768696a6b6c6d6e6f707172737475767778797a303132333435363738392b2fa26469706673582212206bdc243b2ed1ce348b2d7e9f0a8b5a163eaf0ca82a827f00e33c4fa89a3ced2964736f6c634300080e0033",
  "linkReferences": {},
  "deployedLinkReferences": {}
}