{
  "_format": "hh-sol-artifact-1",
  "contractName": "DiamondDawn",
  "sourceName": "contracts/DiamondDawn.sol",
  "abi": [
    {
      "inputs": [],
      "stateMutability": "nonpayable",
      "type": "constructor"
    },
    {
      "anonymous": false,
      "inputs": [
        {
          "indexed": true,
          "internalType": "address",
          "name": "owner",
          "type": "address"
        },
        {
          "indexed": true,
          "internalType": "address",
          "name": "approved",
          "type": "address"
        },
        {
          "indexed": true,
          "internalType": "uint256",
          "name": "tokenId",
          "type": "uint256"
        }
      ],
      "name": "Approval",
      "type": "event"
    },
    {
      "anonymous": false,
      "inputs": [
        {
          "indexed": true,
          "internalType": "address",
          "name": "owner",
          "type": "address"
        },
        {
          "indexed": true,
          "internalType": "address",
          "name": "operator",
          "type": "address"
        },
        {
          "indexed": false,
          "internalType": "bool",
          "name": "approved",
          "type": "bool"
        }
      ],
      "name": "ApprovalForAll",
      "type": "event"
    },
    {
      "anonymous": false,
      "inputs": [
        {
          "indexed": false,
          "internalType": "address",
          "name": "account",
          "type": "address"
        }
      ],
      "name": "Paused",
      "type": "event"
    },
    {
      "anonymous": false,
      "inputs": [
        {
          "indexed": true,
          "internalType": "bytes32",
          "name": "role",
          "type": "bytes32"
        },
        {
          "indexed": true,
          "internalType": "bytes32",
          "name": "previousAdminRole",
          "type": "bytes32"
        },
        {
          "indexed": true,
          "internalType": "bytes32",
          "name": "newAdminRole",
          "type": "bytes32"
        }
      ],
      "name": "RoleAdminChanged",
      "type": "event"
    },
    {
      "anonymous": false,
      "inputs": [
        {
          "indexed": true,
          "internalType": "bytes32",
          "name": "role",
          "type": "bytes32"
        },
        {
          "indexed": true,
          "internalType": "address",
          "name": "account",
          "type": "address"
        },
        {
          "indexed": true,
          "internalType": "address",
          "name": "sender",
          "type": "address"
        }
      ],
      "name": "RoleGranted",
      "type": "event"
    },
    {
      "anonymous": false,
      "inputs": [
        {
          "indexed": true,
          "internalType": "bytes32",
          "name": "role",
          "type": "bytes32"
        },
        {
          "indexed": true,
          "internalType": "address",
          "name": "account",
          "type": "address"
        },
        {
          "indexed": true,
          "internalType": "address",
          "name": "sender",
          "type": "address"
        }
      ],
      "name": "RoleRevoked",
      "type": "event"
    },
    {
      "anonymous": false,
      "inputs": [
        {
          "indexed": true,
          "internalType": "address",
          "name": "from",
          "type": "address"
        },
        {
          "indexed": true,
          "internalType": "address",
          "name": "to",
          "type": "address"
        },
        {
          "indexed": true,
          "internalType": "uint256",
          "name": "tokenId",
          "type": "uint256"
        }
      ],
      "name": "Transfer",
      "type": "event"
    },
    {
      "anonymous": false,
      "inputs": [
        {
          "indexed": false,
          "internalType": "address",
          "name": "account",
          "type": "address"
        }
      ],
      "name": "Unpaused",
      "type": "event"
    },
    {
      "inputs": [],
      "name": "DEFAULT_ADMIN_ROLE",
      "outputs": [
        {
          "internalType": "bytes32",
          "name": "",
          "type": "bytes32"
        }
      ],
      "stateMutability": "view",
      "type": "function"
    },
    {
      "inputs": [],
      "name": "MINING_PRICE",
      "outputs": [
        {
          "internalType": "uint256",
          "name": "",
          "type": "uint256"
        }
      ],
      "stateMutability": "view",
      "type": "function"
    },
    {
      "inputs": [],
      "name": "MINTER_ROLE",
      "outputs": [
        {
          "internalType": "bytes32",
          "name": "",
          "type": "bytes32"
        }
      ],
      "stateMutability": "view",
      "type": "function"
    },
    {
      "inputs": [],
      "name": "PAUSER_ROLE",
      "outputs": [
        {
          "internalType": "bytes32",
          "name": "",
          "type": "bytes32"
        }
      ],
      "stateMutability": "view",
      "type": "function"
    },
    {
      "inputs": [],
      "name": "PREPAID_PROCESSING_PRICE",
      "outputs": [
        {
          "internalType": "uint256",
          "name": "",
          "type": "uint256"
        }
      ],
      "stateMutability": "view",
      "type": "function"
    },
    {
      "inputs": [
        {
          "internalType": "address",
          "name": "to",
          "type": "address"
        },
        {
          "internalType": "uint256",
          "name": "tokenId",
          "type": "uint256"
        }
      ],
      "name": "approve",
      "outputs": [],
      "stateMutability": "nonpayable",
      "type": "function"
    },
    {
      "inputs": [
        {
          "internalType": "address",
          "name": "owner",
          "type": "address"
        }
      ],
      "name": "balanceOf",
      "outputs": [
        {
          "internalType": "uint256",
          "name": "",
          "type": "uint256"
        }
      ],
      "stateMutability": "view",
      "type": "function"
    },
    {
      "inputs": [
        {
          "internalType": "uint256",
          "name": "tokenId",
          "type": "uint256"
        }
      ],
      "name": "burn",
      "outputs": [],
      "stateMutability": "nonpayable",
      "type": "function"
    },
    {
      "inputs": [],
      "name": "completeCurrentStage",
      "outputs": [],
      "stateMutability": "nonpayable",
      "type": "function"
    },
    {
      "inputs": [
        {
          "internalType": "uint256",
          "name": "tokenId",
          "type": "uint256"
        }
      ],
      "name": "cut",
      "outputs": [],
      "stateMutability": "payable",
      "type": "function"
    },
    {
      "inputs": [
        {
          "internalType": "uint256",
          "name": "tokenId",
          "type": "uint256"
        }
      ],
      "name": "getApproved",
      "outputs": [
        {
          "internalType": "address",
          "name": "",
          "type": "address"
        }
      ],
      "stateMutability": "view",
      "type": "function"
    },
    {
      "inputs": [
        {
          "internalType": "bytes32",
          "name": "role",
          "type": "bytes32"
        }
      ],
      "name": "getRoleAdmin",
      "outputs": [
        {
          "internalType": "bytes32",
          "name": "",
          "type": "bytes32"
        }
      ],
      "stateMutability": "view",
      "type": "function"
    },
    {
      "inputs": [
        {
          "internalType": "bytes32",
          "name": "role",
          "type": "bytes32"
        },
        {
          "internalType": "address",
          "name": "account",
          "type": "address"
        }
      ],
      "name": "grantRole",
      "outputs": [],
      "stateMutability": "nonpayable",
      "type": "function"
    },
    {
      "inputs": [
        {
          "internalType": "bytes32",
          "name": "role",
          "type": "bytes32"
        },
        {
          "internalType": "address",
          "name": "account",
          "type": "address"
        }
      ],
      "name": "hasRole",
      "outputs": [
        {
          "internalType": "bool",
          "name": "",
          "type": "bool"
        }
      ],
      "stateMutability": "view",
      "type": "function"
    },
    {
      "inputs": [
        {
          "internalType": "address",
          "name": "owner",
          "type": "address"
        },
        {
          "internalType": "address",
          "name": "operator",
          "type": "address"
        }
      ],
      "name": "isApprovedForAll",
      "outputs": [
        {
          "internalType": "bool",
          "name": "",
          "type": "bool"
        }
      ],
      "stateMutability": "view",
      "type": "function"
    },
    {
      "inputs": [],
      "name": "isStageActive",
      "outputs": [
        {
          "internalType": "bool",
          "name": "",
          "type": "bool"
        }
      ],
      "stateMutability": "view",
      "type": "function"
    },
    {
      "inputs": [
        {
          "internalType": "uint256",
          "name": "processesPurchased",
          "type": "uint256"
        }
      ],
      "name": "mine",
      "outputs": [],
      "stateMutability": "payable",
      "type": "function"
    },
    {
      "inputs": [],
      "name": "name",
      "outputs": [
        {
          "internalType": "string",
          "name": "",
          "type": "string"
        }
      ],
      "stateMutability": "view",
      "type": "function"
    },
    {
      "inputs": [
        {
          "internalType": "uint256",
          "name": "tokenId",
          "type": "uint256"
        }
      ],
      "name": "ownerOf",
      "outputs": [
        {
          "internalType": "address",
          "name": "",
          "type": "address"
        }
      ],
      "stateMutability": "view",
      "type": "function"
    },
    {
      "inputs": [],
      "name": "pause",
      "outputs": [],
      "stateMutability": "nonpayable",
      "type": "function"
    },
    {
      "inputs": [],
      "name": "paused",
      "outputs": [
        {
          "internalType": "bool",
          "name": "",
          "type": "bool"
        }
      ],
      "stateMutability": "view",
      "type": "function"
    },
    {
      "inputs": [
        {
          "internalType": "uint256",
          "name": "tokenId",
          "type": "uint256"
        }
      ],
      "name": "polish",
      "outputs": [],
      "stateMutability": "payable",
      "type": "function"
    },
    {
      "inputs": [],
      "name": "processingPrice",
      "outputs": [
        {
          "internalType": "uint256",
          "name": "",
          "type": "uint256"
        }
      ],
      "stateMutability": "view",
      "type": "function"
    },
    {
      "inputs": [
        {
          "internalType": "bytes32",
          "name": "role",
          "type": "bytes32"
        },
        {
          "internalType": "address",
          "name": "account",
          "type": "address"
        }
      ],
      "name": "renounceRole",
      "outputs": [],
      "stateMutability": "nonpayable",
      "type": "function"
    },
    {
      "inputs": [
        {
          "internalType": "string",
          "name": "videoUrl",
          "type": "string"
        }
      ],
      "name": "revealStage",
      "outputs": [],
      "stateMutability": "nonpayable",
      "type": "function"
    },
    {
      "inputs": [
        {
          "internalType": "bytes32",
          "name": "role",
          "type": "bytes32"
        },
        {
          "internalType": "address",
          "name": "account",
          "type": "address"
        }
      ],
      "name": "revokeRole",
      "outputs": [],
      "stateMutability": "nonpayable",
      "type": "function"
    },
    {
      "inputs": [
        {
          "internalType": "address",
          "name": "to",
          "type": "address"
        }
      ],
      "name": "safeMint",
      "outputs": [],
      "stateMutability": "nonpayable",
      "type": "function"
    },
    {
      "inputs": [
        {
          "internalType": "address",
          "name": "from",
          "type": "address"
        },
        {
          "internalType": "address",
          "name": "to",
          "type": "address"
        },
        {
          "internalType": "uint256",
          "name": "tokenId",
          "type": "uint256"
        }
      ],
      "name": "safeTransferFrom",
      "outputs": [],
      "stateMutability": "nonpayable",
      "type": "function"
    },
    {
      "inputs": [
        {
          "internalType": "address",
          "name": "from",
          "type": "address"
        },
        {
          "internalType": "address",
          "name": "to",
          "type": "address"
        },
        {
          "internalType": "uint256",
          "name": "tokenId",
          "type": "uint256"
        },
        {
          "internalType": "bytes",
          "name": "_data",
          "type": "bytes"
        }
      ],
      "name": "safeTransferFrom",
      "outputs": [],
      "stateMutability": "nonpayable",
      "type": "function"
    },
    {
      "inputs": [
        {
          "internalType": "address",
          "name": "operator",
          "type": "address"
        },
        {
          "internalType": "bool",
          "name": "approved",
          "type": "bool"
        }
      ],
      "name": "setApprovalForAll",
      "outputs": [],
      "stateMutability": "nonpayable",
      "type": "function"
    },
    {
      "inputs": [
        {
          "internalType": "uint256",
          "name": "price",
          "type": "uint256"
        }
      ],
      "name": "setProcessingPrice",
      "outputs": [],
      "stateMutability": "nonpayable",
      "type": "function"
    },
    {
      "inputs": [],
      "name": "stage",
      "outputs": [
        {
          "internalType": "enum DiamondDawn.Stage",
          "name": "",
          "type": "uint8"
        }
      ],
      "stateMutability": "view",
      "type": "function"
    },
    {
      "inputs": [
        {
          "internalType": "bytes4",
          "name": "interfaceId",
          "type": "bytes4"
        }
      ],
      "name": "supportsInterface",
      "outputs": [
        {
          "internalType": "bool",
          "name": "",
          "type": "bool"
        }
      ],
      "stateMutability": "view",
      "type": "function"
    },
    {
      "inputs": [],
      "name": "symbol",
      "outputs": [
        {
          "internalType": "string",
          "name": "",
          "type": "string"
        }
      ],
      "stateMutability": "view",
      "type": "function"
    },
    {
      "inputs": [
        {
          "internalType": "uint256",
          "name": "tokenId",
          "type": "uint256"
        }
      ],
      "name": "tokenURI",
      "outputs": [
        {
          "internalType": "string",
          "name": "",
          "type": "string"
        }
      ],
      "stateMutability": "view",
      "type": "function"
    },
    {
      "inputs": [
        {
          "internalType": "address",
          "name": "from",
          "type": "address"
        },
        {
          "internalType": "address",
          "name": "to",
          "type": "address"
        },
        {
          "internalType": "uint256",
          "name": "tokenId",
          "type": "uint256"
        }
      ],
      "name": "transferFrom",
      "outputs": [],
      "stateMutability": "nonpayable",
      "type": "function"
    },
    {
      "inputs": [],
      "name": "unpause",
      "outputs": [],
      "stateMutability": "nonpayable",
      "type": "function"
    }
  ],
  "bytecode": "0x60806040523480156200001157600080fd5b506040518060400160405280600b81526020017f4469616d6f6e644461776e0000000000000000000000000000000000000000008152506040518060400160405280600281526020017f4444000000000000000000000000000000000000000000000000000000000000815250816000908051906020019062000096929190620003e7565b508060019080519060200190620000af929190620003e7565b5050506000600660006101000a81548160ff021916908315150217905550620000e26000801b33620001b360201b60201c565b620001147f65d7a28e3265b37a6474929f336521b332c1681b933f6cb9f3376673440d862a33620001b360201b60201c565b620001467f9f2df0fed2c77648de5860a4cc508cd0818c85b8b8a1ab4ceeef8d981c8956a633620001b360201b60201c565b662386f26fc10000600a819055506000600960006101000a81548160ff021916908360038111156200017d576200017c62000497565b5b02179055506000600b60006101000a81548160ff021916908315150217905550620001ad620002a560201b60201c565b6200060f565b620001c582826200035d60201b60201c565b620002a15760016007600084815260200190815260200160002060000160008373ffffffffffffffffffffffffffffffffffffffff1673ffffffffffffffffffffffffffffffffffffffff16815260200190815260200160002060006101000a81548160ff02191690831515021790555062000246620003c860201b60201c565b73ffffffffffffffffffffffffffffffffffffffff168173ffffffffffffffffffffffffffffffffffffffff16837f2f8788117e7eff1d82e926ec794901d17c78024a50270940304540a733656f0d60405160405180910390a45b5050565b620002b5620003d060201b60201c565b15620002f8576040517f08c379a0000000000000000000000000000000000000000000000000000000008152600401620002ef9062000527565b60405180910390fd5b6001600660006101000a81548160ff0219169083151502179055507f62e78cea01bee320cd4e420270b5ea74000d11b0c9f74754ebdbfc544b05a25862000344620003c860201b60201c565b6040516200035391906200058e565b60405180910390a1565b60006007600084815260200190815260200160002060000160008373ffffffffffffffffffffffffffffffffffffffff1673ffffffffffffffffffffffffffffffffffffffff16815260200190815260200160002060009054906101000a900460ff16905092915050565b600033905090565b6000600660009054906101000a900460ff16905090565b828054620003f590620005da565b90600052602060002090601f01602090048101928262000419576000855562000465565b82601f106200043457805160ff191683800117855562000465565b8280016001018555821562000465579182015b828111156200046457825182559160200191906001019062000447565b5b50905062000474919062000478565b5090565b5b808211156200049357600081600090555060010162000479565b5090565b7f4e487b7100000000000000000000000000000000000000000000000000000000600052602160045260246000fd5b600082825260208201905092915050565b7f5061757361626c653a2070617573656400000000000000000000000000000000600082015250565b60006200050f601083620004c6565b91506200051c82620004d7565b602082019050919050565b60006020820190508181036000830152620005428162000500565b9050919050565b600073ffffffffffffffffffffffffffffffffffffffff82169050919050565b6000620005768262000549565b9050919050565b620005888162000569565b82525050565b6000602082019050620005a560008301846200057d565b92915050565b7f4e487b7100000000000000000000000000000000000000000000000000000000600052602260045260246000fd5b60006002820490506001821680620005f357607f821691505b602082108103620006095762000608620005ab565b5b50919050565b614e2c806200061f6000396000f3fe60806040526004361061021a5760003560e01c80635ed6ac4f11610123578063abdfe275116100ab578063cc1169791161006f578063cc1169791461077e578063d5391393146107a9578063d547741f146107d4578063e63ab1e9146107fd578063e985e9c5146108285761021a565b8063abdfe275146106a8578063b88d4fde146106d1578063bf72b63f146106fa578063c040e6b814610716578063c87b56dd146107415761021a565b80638c8c35d1116100f25780638c8c35d1146105c157806391d14854146105ec57806395d89b4114610629578063a217fddf14610654578063a22cb4651461067f5761021a565b80635ed6ac4f146105055780636352211e1461053057806370a082311461056d5780638456cb59146105aa5761021a565b80632f2ff15d116101a657806342842e0e1161017557806342842e0e1461044157806342966c681461046a5780634d474898146104935780634e490b4a146104af5780635c975abb146104da5761021a565b80632f2ff15d146103af57806336568abe146103d85780633f4ba83a1461040157806340d097c3146104185761021a565b8063095ea7b3116101ed578063095ea7b3146102e05780630a49008d1461030957806315afd8f81461033257806323b872dd14610349578063248a9ca3146103725761021a565b806301ffc9a71461021f57806306fdde031461025c578063081812fc1461028757806309260db7146102c4575b600080fd5b34801561022b57600080fd5b50610246600480360381019061024191906131e0565b610865565b6040516102539190613228565b60405180910390f35b34801561026857600080fd5b50610271610877565b60405161027e91906132dc565b60405180910390f35b34801561029357600080fd5b506102ae60048036038101906102a99190613334565b610909565b6040516102bb91906133a2565b60405180910390f35b6102de60048036038101906102d99190613334565b61098e565b005b3480156102ec57600080fd5b50610307600480360381019061030291906133e9565b6109ae565b005b34801561031557600080fd5b50610330600480360381019061032b919061355e565b610ac5565b005b34801561033e57600080fd5b50610347610ae7565b005b34801561035557600080fd5b50610370600480360381019061036b91906135a7565b610b07565b005b34801561037e57600080fd5b5061039960048036038101906103949190613630565b610b67565b6040516103a6919061366c565b60405180910390f35b3480156103bb57600080fd5b506103d660048036038101906103d19190613687565b610b87565b005b3480156103e457600080fd5b506103ff60048036038101906103fa9190613687565b610ba8565b005b34801561040d57600080fd5b50610416610c2b565b005b34801561042457600080fd5b5061043f600480360381019061043a91906136c7565b610c60565b005b34801561044d57600080fd5b50610468600480360381019061046391906135a7565b610cb1565b005b34801561047657600080fd5b50610491600480360381019061048c9190613334565b610cd1565b005b6104ad60048036038101906104a89190613334565b610d2d565b005b3480156104bb57600080fd5b506104c4610f20565b6040516104d19190613703565b60405180910390f35b3480156104e657600080fd5b506104ef610f26565b6040516104fc9190613228565b60405180910390f35b34801561051157600080fd5b5061051a610f3d565b6040516105279190613228565b60405180910390f35b34801561053c57600080fd5b5061055760048036038101906105529190613334565b610f50565b60405161056491906133a2565b60405180910390f35b34801561057957600080fd5b50610594600480360381019061058f91906136c7565b611001565b6040516105a19190613703565b60405180910390f35b3480156105b657600080fd5b506105bf6110b8565b005b3480156105cd57600080fd5b506105d66110ed565b6040516105e39190613703565b60405180910390f35b3480156105f857600080fd5b50610613600480360381019061060e9190613687565b6110f8565b6040516106209190613228565b60405180910390f35b34801561063557600080fd5b5061063e611163565b60405161064b91906132dc565b60405180910390f35b34801561066057600080fd5b506106696111f5565b604051610676919061366c565b60405180910390f35b34801561068b57600080fd5b506106a660048036038101906106a1919061374a565b6111fc565b005b3480156106b457600080fd5b506106cf60048036038101906106ca9190613334565b611212565b005b3480156106dd57600080fd5b506106f860048036038101906106f3919061382b565b61122a565b005b610714600480360381019061070f9190613334565b61128c565b005b34801561072257600080fd5b5061072b6112ac565b6040516107389190613925565b60405180910390f35b34801561074d57600080fd5b5061076860048036038101906107639190613334565b6112bf565b60405161077591906132dc565b60405180910390f35b34801561078a57600080fd5b5061079361131d565b6040516107a09190613703565b60405180910390f35b3480156107b557600080fd5b506107be611328565b6040516107cb919061366c565b60405180910390f35b3480156107e057600080fd5b506107fb60048036038101906107f69190613687565b61134c565b005b34801561080957600080fd5b5061081261136d565b60405161081f919061366c565b60405180910390f35b34801561083457600080fd5b5061084f600480360381019061084a9190613940565b611391565b60405161085c9190613228565b60405180910390f35b600061087082611425565b9050919050565b606060008054610886906139af565b80601f01602080910402602001604051908101604052809291908181526020018280546108b2906139af565b80156108ff5780601f106108d4576101008083540402835291602001916108ff565b820191906000526020600020905b8154815290600101906020018083116108e257829003601f168201915b5050505050905090565b60006109148261149f565b610953576040517f08c379a000000000000000000000000000000000000000000000000000000000815260040161094a90613a52565b60405180910390fd5b6004600083815260200190815260200160002060009054906101000a900473ffffffffffffffffffffffffffffffffffffffff169050919050565b600161099861150b565b6109a18161155c565b6109aa82611611565b5050565b60006109b982610f50565b90508073ffffffffffffffffffffffffffffffffffffffff168373ffffffffffffffffffffffffffffffffffffffff1603610a29576040517f08c379a0000000000000000000000000000000000000000000000000000000008152600401610a2090613ae4565b60405180910390fd5b8073ffffffffffffffffffffffffffffffffffffffff16610a48611885565b73ffffffffffffffffffffffffffffffffffffffff161480610a775750610a7681610a71611885565b611391565b5b610ab6576040517f08c379a0000000000000000000000000000000000000000000000000000000008152600401610aad90613b76565b60405180910390fd5b610ac0838361188d565b505050565b6000801b610ad281611946565b610ada61195a565b610ae382611985565b5050565b6000801b610af481611946565b610afc6119f1565b610b04611a1c565b50565b610b18610b12611885565b82611a6d565b610b57576040517f08c379a0000000000000000000000000000000000000000000000000000000008152600401610b4e90613c08565b60405180910390fd5b610b62838383611b4b565b505050565b600060076000838152602001908152602001600020600101549050919050565b610b9082610b67565b610b9981611946565b610ba38383611db1565b505050565b610bb0611885565b73ffffffffffffffffffffffffffffffffffffffff168173ffffffffffffffffffffffffffffffffffffffff1614610c1d576040517f08c379a0000000000000000000000000000000000000000000000000000000008152600401610c1490613c9a565b60405180910390fd5b610c278282611e92565b5050565b7f65d7a28e3265b37a6474929f336521b332c1681b933f6cb9f3376673440d862a610c5581611946565b610c5d611f74565b50565b7f9f2df0fed2c77648de5860a4cc508cd0818c85b8b8a1ab4ceeef8d981c8956a6610c8a81611946565b6000610c966008612016565b9050610ca26008612024565b610cac838261203a565b505050565b610ccc8383836040518060200160405280600081525061122a565b505050565b610ce2610cdc611885565b82611a6d565b610d21576040517f08c379a0000000000000000000000000000000000000000000000000000000008152600401610d1890613d2c565b60405180910390fd5b610d2a81612058565b50565b6000610d3761150b565b610d408161155c565b6001600380811115610d5557610d546138ae565b5b610d5f9190613d7b565b821115610d896001600380811115610d7a57610d796138ae565b5b610d849190613d7b565b612175565b604051602001610d999190613e5d565b60405160208183030381529060405290610de9576040517f08c379a0000000000000000000000000000000000000000000000000000000008152600401610de091906132dc565b60405180910390fd5b506000662386f26fc1000083610dff9190613e7f565b662386f26fc10000610e119190613ed9565b9050803414610e1f82612175565b604051602001610e2f9190613fa1565b60405160208183030381529060405290610e7f576040517f08c379a0000000000000000000000000000000000000000000000000000000008152600401610e7691906132dc565b60405180910390fd5b506000610e8c6008612016565b9050610e986008612024565b610ea2338261203a565b604051806040016040528060006003811115610ec157610ec06138ae565b5b815260200185815250600d600083815260200190815260200160002060008201518160000160006101000a81548160ff02191690836003811115610f0857610f076138ae565b5b02179055506020820151816001015590505050505050565b600a5481565b6000600660009054906101000a900460ff16905090565b600b60009054906101000a900460ff1681565b6000806002600084815260200190815260200160002060009054906101000a900473ffffffffffffffffffffffffffffffffffffffff169050600073ffffffffffffffffffffffffffffffffffffffff168173ffffffffffffffffffffffffffffffffffffffff1603610ff8576040517f08c379a0000000000000000000000000000000000000000000000000000000008152600401610fef90614035565b60405180910390fd5b80915050919050565b60008073ffffffffffffffffffffffffffffffffffffffff168273ffffffffffffffffffffffffffffffffffffffff1603611071576040517f08c379a0000000000000000000000000000000000000000000000000000000008152600401611068906140c7565b60405180910390fd5b600360008373ffffffffffffffffffffffffffffffffffffffff1673ffffffffffffffffffffffffffffffffffffffff168152602001908152602001600020549050919050565b7f65d7a28e3265b37a6474929f336521b332c1681b933f6cb9f3376673440d862a6110e281611946565b6110ea6122d5565b50565b662386f26fc1000081565b60006007600084815260200190815260200160002060000160008373ffffffffffffffffffffffffffffffffffffffff1673ffffffffffffffffffffffffffffffffffffffff16815260200190815260200160002060009054906101000a900460ff16905092915050565b606060018054611172906139af565b80601f016020809104026020016040519081016040528092919081815260200182805461119e906139af565b80156111eb5780601f106111c0576101008083540402835291602001916111eb565b820191906000526020600020905b8154815290600101906020018083116111ce57829003601f168201915b5050505050905090565b6000801b81565b61120e611207611885565b8383612378565b5050565b6000801b61121f81611946565b81600a819055505050565b61123b611235611885565b83611a6d565b61127a576040517f08c379a000000000000000000000000000000000000000000000000000000000815260040161127190613c08565b60405180910390fd5b611286848484846124e4565b50505050565b600261129661150b565b61129f8161155c565b6112a882611611565b5050565b600960009054906101000a900460ff1681565b606060006112f36112cf84612540565b6040516020016112df9190614289565b60405160208183030381529060405261262c565b9050806040516020016113069190614302565b604051602081830303815290604052915050919050565b662386f26fc1000081565b7f9f2df0fed2c77648de5860a4cc508cd0818c85b8b8a1ab4ceeef8d981c8956a681565b61135582610b67565b61135e81611946565b6113688383611e92565b505050565b7f65d7a28e3265b37a6474929f336521b332c1681b933f6cb9f3376673440d862a81565b6000600560008473ffffffffffffffffffffffffffffffffffffffff1673ffffffffffffffffffffffffffffffffffffffff16815260200190815260200160002060008373ffffffffffffffffffffffffffffffffffffffff1673ffffffffffffffffffffffffffffffffffffffff16815260200190815260200160002060009054906101000a900460ff16905092915050565b60007f7965db0b000000000000000000000000000000000000000000000000000000007bffffffffffffffffffffffffffffffffffffffffffffffffffffffff1916827bffffffffffffffffffffffffffffffffffffffffffffffffffffffff1916148061149857506114978261278f565b5b9050919050565b60008073ffffffffffffffffffffffffffffffffffffffff166002600084815260200190815260200160002060009054906101000a900473ffffffffffffffffffffffffffffffffffffffff1673ffffffffffffffffffffffffffffffffffffffff1614159050919050565b600b60009054906101000a900460ff1661155a576040517f08c379a000000000000000000000000000000000000000000000000000000000815260040161155190614396565b60405180910390fd5b565b80600381111561156f5761156e6138ae565b5b600960009054906101000a900460ff166003811115611591576115906138ae565b5b146115ad8260038111156115a8576115a76138ae565b5b612175565b6040516020016115bd9190614402565b6040516020818303038152906040529061160d576040517f08c379a000000000000000000000000000000000000000000000000000000000815260040161160491906132dc565b60405180910390fd5b5050565b61162261161c611885565b82611a6d565b611661576040517f08c379a0000000000000000000000000000000000000000000000000000000008152600401611658906144a9565b60405180910390fd5b6001600960009054906101000a900460ff166003811115611685576116846138ae565b5b61168f9190613d7b565b600d600083815260200190815260200160002060000160009054906101000a900460ff1660038111156116c5576116c46138ae565b5b146116fc6001600960009054906101000a900460ff1660038111156116ed576116ec6138ae565b5b6116f79190613d7b565b612175565b60405160200161170c919061453b565b6040516020818303038152906040529061175c576040517f08c379a000000000000000000000000000000000000000000000000000000000815260040161175391906132dc565b60405180910390fd5b506000600d600083815260200190815260200160002060010154036117ed57600a54341461178b600a54612175565b60405160200161179b9190613fa1565b604051602081830303815290604052906117eb576040517f08c379a00000000000000000000000000000000000000000000000000000000081526004016117e291906132dc565b60405180910390fd5b505b611819600d600083815260200190815260200160002060000160009054906101000a900460ff16612871565b600d600083815260200190815260200160002060000160006101000a81548160ff02191690836003811115611851576118506138ae565b5b0217905550600d6000828152602001908152602001600020600101600081548092919061187d9061456c565b919050555050565b600033905090565b816004600083815260200190815260200160002060006101000a81548173ffffffffffffffffffffffffffffffffffffffff021916908373ffffffffffffffffffffffffffffffffffffffff160217905550808273ffffffffffffffffffffffffffffffffffffffff1661190083610f50565b73ffffffffffffffffffffffffffffffffffffffff167f8c5be1e5ebec7d5bd14f71427d1e84f3dd0314c0f7b2291e5b200ac8c7c3b92560405160405180910390a45050565b61195781611952611885565b61294e565b50565b6000801b61196781611946565b6001600b60006101000a81548160ff02191690831515021790555050565b6000801b61199281611946565b81600c6000600960009054906101000a900460ff1660038111156119b9576119b86138ae565b5b60038111156119cb576119ca6138ae565b5b815260200190815260200160002090805190602001906119ec9291906130d1565b505050565b6000801b6119fe81611946565b6000600b60006101000a81548160ff02191690831515021790555050565b6000801b611a2981611946565b611a41600960009054906101000a900460ff16612871565b600960006101000a81548160ff02191690836003811115611a6557611a646138ae565b5b021790555050565b6000611a788261149f565b611ab7576040517f08c379a0000000000000000000000000000000000000000000000000000000008152600401611aae90614607565b60405180910390fd5b6000611ac283610f50565b90508073ffffffffffffffffffffffffffffffffffffffff168473ffffffffffffffffffffffffffffffffffffffff161480611b045750611b038185611391565b5b80611b4257508373ffffffffffffffffffffffffffffffffffffffff16611b2a84610909565b73ffffffffffffffffffffffffffffffffffffffff16145b91505092915050565b8273ffffffffffffffffffffffffffffffffffffffff16611b6b82610f50565b73ffffffffffffffffffffffffffffffffffffffff1614611bc1576040517f08c379a0000000000000000000000000000000000000000000000000000000008152600401611bb890614699565b60405180910390fd5b600073ffffffffffffffffffffffffffffffffffffffff168273ffffffffffffffffffffffffffffffffffffffff1603611c30576040517f08c379a0000000000000000000000000000000000000000000000000000000008152600401611c279061472b565b60405180910390fd5b611c3b8383836129eb565b611c4660008261188d565b6001600360008573ffffffffffffffffffffffffffffffffffffffff1673ffffffffffffffffffffffffffffffffffffffff1681526020019081526020016000206000828254611c969190613d7b565b925050819055506001600360008473ffffffffffffffffffffffffffffffffffffffff1673ffffffffffffffffffffffffffffffffffffffff1681526020019081526020016000206000828254611ced9190613ed9565b92505081905550816002600083815260200190815260200160002060006101000a81548173ffffffffffffffffffffffffffffffffffffffff021916908373ffffffffffffffffffffffffffffffffffffffff160217905550808273ffffffffffffffffffffffffffffffffffffffff168473ffffffffffffffffffffffffffffffffffffffff167fddf252ad1be2c89b69c2b068fc378daa952ba7f163c4a11628f55a4df523b3ef60405160405180910390a4611dac838383612a43565b505050565b611dbb82826110f8565b611e8e5760016007600084815260200190815260200160002060000160008373ffffffffffffffffffffffffffffffffffffffff1673ffffffffffffffffffffffffffffffffffffffff16815260200190815260200160002060006101000a81548160ff021916908315150217905550611e33611885565b73ffffffffffffffffffffffffffffffffffffffff168173ffffffffffffffffffffffffffffffffffffffff16837f2f8788117e7eff1d82e926ec794901d17c78024a50270940304540a733656f0d60405160405180910390a45b5050565b611e9c82826110f8565b15611f705760006007600084815260200190815260200160002060000160008373ffffffffffffffffffffffffffffffffffffffff1673ffffffffffffffffffffffffffffffffffffffff16815260200190815260200160002060006101000a81548160ff021916908315150217905550611f15611885565b73ffffffffffffffffffffffffffffffffffffffff168173ffffffffffffffffffffffffffffffffffffffff16837ff6391f5c32d9c69d2a47ea670b442974b53935d1edc7fd64eb21e047a839171b60405160405180910390a45b5050565b611f7c610f26565b611fbb576040517f08c379a0000000000000000000000000000000000000000000000000000000008152600401611fb290614797565b60405180910390fd5b6000600660006101000a81548160ff0219169083151502179055507f5db9ee0a495bf2e6ff9c91a7834c1ba4fdd244a5e8aa4e537bd38aeae4b073aa611fff611885565b60405161200c91906133a2565b60405180910390a1565b600081600001549050919050565b6001816000016000828254019250508190555050565b612054828260405180602001604052806000815250612a48565b5050565b600061206382610f50565b9050612071816000846129eb565b61207c60008361188d565b6001600360008373ffffffffffffffffffffffffffffffffffffffff1673ffffffffffffffffffffffffffffffffffffffff16815260200190815260200160002060008282546120cc9190613d7b565b925050819055506002600083815260200190815260200160002060006101000a81549073ffffffffffffffffffffffffffffffffffffffff021916905581600073ffffffffffffffffffffffffffffffffffffffff168273ffffffffffffffffffffffffffffffffffffffff167fddf252ad1be2c89b69c2b068fc378daa952ba7f163c4a11628f55a4df523b3ef60405160405180910390a461217181600084612a43565b5050565b6060600082036121bc576040518060400160405280600181526020017f300000000000000000000000000000000000000000000000000000000000000081525090506122d0565b600082905060005b600082146121ee5780806121d7906147b7565b915050600a826121e7919061482e565b91506121c4565b60008167ffffffffffffffff81111561220a57612209613433565b5b6040519080825280601f01601f19166020018201604052801561223c5781602001600182028036833780820191505090505b5090505b600085146122c9576001826122559190613d7b565b9150600a85612264919061485f565b60306122709190613ed9565b60f81b81838151811061228657612285614890565b5b60200101907effffffffffffffffffffffffffffffffffffffffffffffffffffffffffffff1916908160001a905350600a856122c2919061482e565b9450612240565b8093505050505b919050565b6122dd610f26565b1561231d576040517f08c379a00000000000000000000000000000000000000000000000000000000081526004016123149061490b565b60405180910390fd5b6001600660006101000a81548160ff0219169083151502179055507f62e78cea01bee320cd4e420270b5ea74000d11b0c9f74754ebdbfc544b05a258612361611885565b60405161236e91906133a2565b60405180910390a1565b8173ffffffffffffffffffffffffffffffffffffffff168373ffffffffffffffffffffffffffffffffffffffff16036123e6576040517f08c379a00000000000000000000000000000000000000000000000000000000081526004016123dd90614977565b60405180910390fd5b80600560008573ffffffffffffffffffffffffffffffffffffffff1673ffffffffffffffffffffffffffffffffffffffff16815260200190815260200160002060008473ffffffffffffffffffffffffffffffffffffffff1673ffffffffffffffffffffffffffffffffffffffff16815260200190815260200160002060006101000a81548160ff0219169083151502179055508173ffffffffffffffffffffffffffffffffffffffff168373ffffffffffffffffffffffffffffffffffffffff167f17307eab39ab6107e8899845ad3d59bd9653f200f220920489ca2b5937696c31836040516124d79190613228565b60405180910390a3505050565b6124ef848484611b4b565b6124fb84848484612aa3565b61253a576040517f08c379a000000000000000000000000000000000000000000000000000000000815260040161253190614a09565b60405180910390fd5b50505050565b6060600c6000600d600085815260200190815260200160002060000160009054906101000a900460ff16600381111561257c5761257b6138ae565b5b600381111561258e5761258d6138ae565b5b815260200190815260200160002080546125a7906139af565b80601f01602080910402602001604051908101604052809291908181526020018280546125d3906139af565b80156126205780601f106125f557610100808354040283529160200191612620565b820191906000526020600020905b81548152906001019060200180831161260357829003601f168201915b50505050509050919050565b6060600082510361264e5760405180602001604052806000815250905061278a565b6000604051806060016040528060408152602001614db7604091399050600060036002855161267d9190613ed9565b612687919061482e565b60046126939190613e7f565b67ffffffffffffffff8111156126ac576126ab613433565b5b6040519080825280601f01601f1916602001820160405280156126de5781602001600182028036833780820191505090505b509050600182016020820185865187015b8082101561274a576003820191508151603f8160121c168501518453600184019350603f81600c1c168501518453600184019350603f8160061c168501518453600184019350603f81168501518453600184019350506126ef565b5050600386510660018114612766576002811461277957612781565b603d6001830353603d6002830353612781565b603d60018303535b50505080925050505b919050565b60007f80ac58cd000000000000000000000000000000000000000000000000000000007bffffffffffffffffffffffffffffffffffffffffffffffffffffffff1916827bffffffffffffffffffffffffffffffffffffffffffffffffffffffff1916148061285a57507f5b5e139f000000000000000000000000000000000000000000000000000000007bffffffffffffffffffffffffffffffffffffffffffffffffffffffff1916827bffffffffffffffffffffffffffffffffffffffffffffffffffffffff1916145b8061286a575061286982612c2a565b5b9050919050565b6000600380811115612886576128856138ae565b5b826003811115612899576128986138ae565b5b106128b56003808111156128b0576128af6138ae565b5b612175565b6040516020016128c59190614a9b565b60405160208183030381529060405290612915576040517f08c379a000000000000000000000000000000000000000000000000000000000815260040161290c91906132dc565b60405180910390fd5b50600182600381111561292b5761292a6138ae565b5b6129359190613ed9565b6003811115612947576129466138ae565b5b9050919050565b61295882826110f8565b6129e75761297d8173ffffffffffffffffffffffffffffffffffffffff166014612c94565b61298b8360001c6020612c94565b60405160200161299c929190614b55565b6040516020818303038152906040526040517f08c379a00000000000000000000000000000000000000000000000000000000081526004016129de91906132dc565b60405180910390fd5b5050565b6129f3610f26565b15612a33576040517f08c379a0000000000000000000000000000000000000000000000000000000008152600401612a2a9061490b565b60405180910390fd5b612a3e838383612ed0565b505050565b505050565b612a528383612ed5565b612a5f6000848484612aa3565b612a9e576040517f08c379a0000000000000000000000000000000000000000000000000000000008152600401612a9590614a09565b60405180910390fd5b505050565b6000612ac48473ffffffffffffffffffffffffffffffffffffffff166130ae565b15612c1d578373ffffffffffffffffffffffffffffffffffffffff1663150b7a02612aed611885565b8786866040518563ffffffff1660e01b8152600401612b0f9493929190614be4565b6020604051808303816000875af1925050508015612b4b57506040513d601f19601f82011682018060405250810190612b489190614c45565b60015b612bcd573d8060008114612b7b576040519150601f19603f3d011682016040523d82523d6000602084013e612b80565b606091505b506000815103612bc5576040517f08c379a0000000000000000000000000000000000000000000000000000000008152600401612bbc90614a09565b60405180910390fd5b805181602001fd5b63150b7a0260e01b7bffffffffffffffffffffffffffffffffffffffffffffffffffffffff1916817bffffffffffffffffffffffffffffffffffffffffffffffffffffffff191614915050612c22565b600190505b949350505050565b60007f01ffc9a7000000000000000000000000000000000000000000000000000000007bffffffffffffffffffffffffffffffffffffffffffffffffffffffff1916827bffffffffffffffffffffffffffffffffffffffffffffffffffffffff1916149050919050565b606060006002836002612ca79190613e7f565b612cb19190613ed9565b67ffffffffffffffff811115612cca57612cc9613433565b5b6040519080825280601f01601f191660200182016040528015612cfc5781602001600182028036833780820191505090505b5090507f300000000000000000000000000000000000000000000000000000000000000081600081518110612d3457612d33614890565b5b60200101907effffffffffffffffffffffffffffffffffffffffffffffffffffffffffffff1916908160001a9053507f780000000000000000000000000000000000000000000000000000000000000081600181518110612d9857612d97614890565b5b60200101907effffffffffffffffffffffffffffffffffffffffffffffffffffffffffffff1916908160001a90535060006001846002612dd89190613e7f565b612de29190613ed9565b90505b6001811115612e82577f3031323334353637383961626364656600000000000000000000000000000000600f861660108110612e2457612e23614890565b5b1a60f81b828281518110612e3b57612e3a614890565b5b60200101907effffffffffffffffffffffffffffffffffffffffffffffffffffffffffffff1916908160001a905350600485901c945080612e7b9061456c565b9050612de5565b5060008414612ec6576040517f08c379a0000000000000000000000000000000000000000000000000000000008152600401612ebd90614cbe565b60405180910390fd5b8091505092915050565b505050565b600073ffffffffffffffffffffffffffffffffffffffff168273ffffffffffffffffffffffffffffffffffffffff1603612f44576040517f08c379a0000000000000000000000000000000000000000000000000000000008152600401612f3b90614d2a565b60405180910390fd5b612f4d8161149f565b15612f8d576040517f08c379a0000000000000000000000000000000000000000000000000000000008152600401612f8490614d96565b60405180910390fd5b612f99600083836129eb565b6001600360008473ffffffffffffffffffffffffffffffffffffffff1673ffffffffffffffffffffffffffffffffffffffff1681526020019081526020016000206000828254612fe99190613ed9565b92505081905550816002600083815260200190815260200160002060006101000a81548173ffffffffffffffffffffffffffffffffffffffff021916908373ffffffffffffffffffffffffffffffffffffffff160217905550808273ffffffffffffffffffffffffffffffffffffffff16600073ffffffffffffffffffffffffffffffffffffffff167fddf252ad1be2c89b69c2b068fc378daa952ba7f163c4a11628f55a4df523b3ef60405160405180910390a46130aa60008383612a43565b5050565b6000808273ffffffffffffffffffffffffffffffffffffffff163b119050919050565b8280546130dd906139af565b90600052602060002090601f0160209004810192826130ff5760008555613146565b82601f1061311857805160ff1916838001178555613146565b82800160010185558215613146579182015b8281111561314557825182559160200191906001019061312a565b5b5090506131539190613157565b5090565b5b80821115613170576000816000905550600101613158565b5090565b6000604051905090565b600080fd5b600080fd5b60007fffffffff0000000000000000000000000000000000000000000000000000000082169050919050565b6131bd81613188565b81146131c857600080fd5b50565b6000813590506131da816131b4565b92915050565b6000602082840312156131f6576131f561317e565b5b6000613204848285016131cb565b91505092915050565b60008115159050919050565b6132228161320d565b82525050565b600060208201905061323d6000830184613219565b92915050565b600081519050919050565b600082825260208201905092915050565b60005b8381101561327d578082015181840152602081019050613262565b8381111561328c576000848401525b50505050565b6000601f19601f8301169050919050565b60006132ae82613243565b6132b8818561324e565b93506132c881856020860161325f565b6132d181613292565b840191505092915050565b600060208201905081810360008301526132f681846132a3565b905092915050565b6000819050919050565b613311816132fe565b811461331c57600080fd5b50565b60008135905061332e81613308565b92915050565b60006020828403121561334a5761334961317e565b5b60006133588482850161331f565b91505092915050565b600073ffffffffffffffffffffffffffffffffffffffff82169050919050565b600061338c82613361565b9050919050565b61339c81613381565b82525050565b60006020820190506133b76000830184613393565b92915050565b6133c681613381565b81146133d157600080fd5b50565b6000813590506133e3816133bd565b92915050565b60008060408385031215613400576133ff61317e565b5b600061340e858286016133d4565b925050602061341f8582860161331f565b9150509250929050565b600080fd5b600080fd5b7f4e487b7100000000000000000000000000000000000000000000000000000000600052604160045260246000fd5b61346b82613292565b810181811067ffffffffffffffff8211171561348a57613489613433565b5b80604052505050565b600061349d613174565b90506134a98282613462565b919050565b600067ffffffffffffffff8211156134c9576134c8613433565b5b6134d282613292565b9050602081019050919050565b82818337600083830152505050565b60006135016134fc846134ae565b613493565b90508281526020810184848401111561351d5761351c61342e565b5b6135288482856134df565b509392505050565b600082601f83011261354557613544613429565b5b81356135558482602086016134ee565b91505092915050565b6000602082840312156135745761357361317e565b5b600082013567ffffffffffffffff81111561359257613591613183565b5b61359e84828501613530565b91505092915050565b6000806000606084860312156135c0576135bf61317e565b5b60006135ce868287016133d4565b93505060206135df868287016133d4565b92505060406135f08682870161331f565b9150509250925092565b6000819050919050565b61360d816135fa565b811461361857600080fd5b50565b60008135905061362a81613604565b92915050565b6000602082840312156136465761364561317e565b5b60006136548482850161361b565b91505092915050565b613666816135fa565b82525050565b6000602082019050613681600083018461365d565b92915050565b6000806040838503121561369e5761369d61317e565b5b60006136ac8582860161361b565b92505060206136bd858286016133d4565b9150509250929050565b6000602082840312156136dd576136dc61317e565b5b60006136eb848285016133d4565b91505092915050565b6136fd816132fe565b82525050565b600060208201905061371860008301846136f4565b92915050565b6137278161320d565b811461373257600080fd5b50565b6000813590506137448161371e565b92915050565b600080604083850312156137615761376061317e565b5b600061376f858286016133d4565b925050602061378085828601613735565b9150509250929050565b600067ffffffffffffffff8211156137a5576137a4613433565b5b6137ae82613292565b9050602081019050919050565b60006137ce6137c98461378a565b613493565b9050828152602081018484840111156137ea576137e961342e565b5b6137f58482856134df565b509392505050565b600082601f83011261381257613811613429565b5b81356138228482602086016137bb565b91505092915050565b600080600080608085870312156138455761384461317e565b5b6000613853878288016133d4565b9450506020613864878288016133d4565b93505060406138758782880161331f565b925050606085013567ffffffffffffffff81111561389657613895613183565b5b6138a2878288016137fd565b91505092959194509250565b7f4e487b7100000000000000000000000000000000000000000000000000000000600052602160045260246000fd5b600481106138ee576138ed6138ae565b5b50565b60008190506138ff826138dd565b919050565b600061390f826138f1565b9050919050565b61391f81613904565b82525050565b600060208201905061393a6000830184613916565b92915050565b600080604083850312156139575761395661317e565b5b6000613965858286016133d4565b9250506020613976858286016133d4565b9150509250929050565b7f4e487b7100000000000000000000000000000000000000000000000000000000600052602260045260246000fd5b600060028204905060018216806139c757607f821691505b6020821081036139da576139d9613980565b5b50919050565b7f4552433732313a20617070726f76656420717565727920666f72206e6f6e657860008201527f697374656e7420746f6b656e0000000000000000000000000000000000000000602082015250565b6000613a3c602c8361324e565b9150613a47826139e0565b604082019050919050565b60006020820190508181036000830152613a6b81613a2f565b9050919050565b7f4552433732313a20617070726f76616c20746f2063757272656e74206f776e6560008201527f7200000000000000000000000000000000000000000000000000000000000000602082015250565b6000613ace60218361324e565b9150613ad982613a72565b604082019050919050565b60006020820190508181036000830152613afd81613ac1565b9050919050565b7f4552433732313a20617070726f76652063616c6c6572206973206e6f74206f7760008201527f6e6572206e6f7220617070726f76656420666f7220616c6c0000000000000000602082015250565b6000613b6060388361324e565b9150613b6b82613b04565b604082019050919050565b60006020820190508181036000830152613b8f81613b53565b9050919050565b7f4552433732313a207472616e736665722063616c6c6572206973206e6f74206f60008201527f776e6572206e6f7220617070726f766564000000000000000000000000000000602082015250565b6000613bf260318361324e565b9150613bfd82613b96565b604082019050919050565b60006020820190508181036000830152613c2181613be5565b9050919050565b7f416363657373436f6e74726f6c3a2063616e206f6e6c792072656e6f756e636560008201527f20726f6c657320666f722073656c660000000000000000000000000000000000602082015250565b6000613c84602f8361324e565b9150613c8f82613c28565b604082019050919050565b60006020820190508181036000830152613cb381613c77565b9050919050565b7f4552433732314275726e61626c653a2063616c6c6572206973206e6f74206f7760008201527f6e6572206e6f7220617070726f76656400000000000000000000000000000000602082015250565b6000613d1660308361324e565b9150613d2182613cba565b604082019050919050565b60006020820190508181036000830152613d4581613d09565b9050919050565b7f4e487b7100000000000000000000000000000000000000000000000000000000600052601160045260246000fd5b6000613d86826132fe565b9150613d91836132fe565b925082821015613da457613da3613d4c565b5b828203905092915050565b600081905092915050565b7f5032443a205075726368617365642070726f6365737365732073686f756c642060008201527f6265206c657373207468616e206f7220657175616c20746f2000000000000000602082015250565b6000613e16603983613daf565b9150613e2182613dba565b603982019050919050565b6000613e3782613243565b613e418185613daf565b9350613e5181856020860161325f565b80840191505092915050565b6000613e6882613e09565b9150613e748284613e2c565b915081905092915050565b6000613e8a826132fe565b9150613e95836132fe565b9250817fffffffffffffffffffffffffffffffffffffffffffffffffffffffffffffffff0483118215151615613ece57613ecd613d4c565b5b828202905092915050565b6000613ee4826132fe565b9150613eef836132fe565b9250827fffffffffffffffffffffffffffffffffffffffffffffffffffffffffffffffff03821115613f2457613f23613d4c565b5b828201905092915050565b7f5032443a2057726f6e67207061796d656e74202d207061796d656e742073686f60008201527f756c642062653a20000000000000000000000000000000000000000000000000602082015250565b6000613f8b602883613daf565b9150613f9682613f2f565b602882019050919050565b6000613fac82613f7e565b9150613fb88284613e2c565b915081905092915050565b7f4552433732313a206f776e657220717565727920666f72206e6f6e657869737460008201527f656e7420746f6b656e0000000000000000000000000000000000000000000000602082015250565b600061401f60298361324e565b915061402a82613fc3565b604082019050919050565b6000602082019050818103600083015261404e81614012565b9050919050565b7f4552433732313a2062616c616e636520717565727920666f7220746865207a6560008201527f726f206164647265737300000000000000000000000000000000000000000000602082015250565b60006140b1602a8361324e565b91506140bc82614055565b604082019050919050565b600060208201905081810360008301526140e0816140a4565b9050919050565b7f7b226e616d65223a20224469616d6f6e64204461776e222c202264657363726960008201527f7074696f6e223a20225468697320697320746865206465736372697074696f6e60208201527f206f66204469616d6f6e64204461776e2050726f6a656374222c2022696d616760408201527f65223a202268747470733a2f2f6d656469612e6e69667479676174657761792e60608201527f636f6d2f766964656f2f75706c6f61642f76313633393432313134312f416e6460808201527f7265612f446176696441726965772f446563437572617465642f4d797374696360a08201527f616c5f436162617265745f2d5f44617669645f41726965775f315f777a64687560c08201527f772e706e67222c2022616e696d6174696f6e5f75726c223a202200000000000060e082015250565b600061422760fa83613daf565b9150614232826140e7565b60fa82019050919050565b7f22207d0000000000000000000000000000000000000000000000000000000000600082015250565b6000614273600383613daf565b915061427e8261423d565b600382019050919050565b60006142948261421a565b91506142a08284613e2c565b91506142ab82614266565b915081905092915050565b7f646174613a6170706c69636174696f6e2f6a736f6e3b6261736536342c000000600082015250565b60006142ec601d83613daf565b91506142f7826142b6565b601d82019050919050565b600061430d826142df565b91506143198284613e2c565b915081905092915050565b7f5032443a20412073746167652073686f756c642062652061637469766520746f60008201527f20706572666f726d207468697320616374696f6e000000000000000000000000602082015250565b600061438060348361324e565b915061438b82614324565b604082019050919050565b600060208201905081810360008301526143af81614373565b9050919050565b7f5032443a205468652073746167652073686f756c642062652000000000000000815250565b7f20746f20706572666f726d207468697320616374696f6e000000000000000000815250565b600061440d826143b6565b60198201915061441d8284613e2c565b9150614428826143dc565b60178201915081905092915050565b7f4552433732313a2063616c6c6572206973206e6f7420746f6b656e206f776e6560008201527f72206e6f7220617070726f766564000000000000000000000000000000000000602082015250565b6000614493602e8361324e565b915061449e82614437565b604082019050919050565b600060208201905081810360008301526144c281614486565b9050919050565b7f5032443a20546865206c6576656c206f6620746865206469616d6f6e6420736860008201527f6f756c6420626520000000000000000000000000000000000000000000000000602082015250565b6000614525602883613daf565b9150614530826144c9565b602882019050919050565b600061454682614518565b91506145528284613e2c565b915061455d826143dc565b60178201915081905092915050565b6000614577826132fe565b91506000820361458a57614589613d4c565b5b600182039050919050565b7f4552433732313a206f70657261746f7220717565727920666f72206e6f6e657860008201527f697374656e7420746f6b656e0000000000000000000000000000000000000000602082015250565b60006145f1602c8361324e565b91506145fc82614595565b604082019050919050565b60006020820190508181036000830152614620816145e4565b9050919050565b7f4552433732313a207472616e736665722066726f6d20696e636f72726563742060008201527f6f776e6572000000000000000000000000000000000000000000000000000000602082015250565b600061468360258361324e565b915061468e82614627565b604082019050919050565b600060208201905081810360008301526146b281614676565b9050919050565b7f4552433732313a207472616e7366657220746f20746865207a65726f2061646460008201527f7265737300000000000000000000000000000000000000000000000000000000602082015250565b600061471560248361324e565b9150614720826146b9565b604082019050919050565b6000602082019050818103600083015261474481614708565b9050919050565b7f5061757361626c653a206e6f7420706175736564000000000000000000000000600082015250565b600061478160148361324e565b915061478c8261474b565b602082019050919050565b600060208201905081810360008301526147b081614774565b9050919050565b60006147c2826132fe565b91507fffffffffffffffffffffffffffffffffffffffffffffffffffffffffffffffff82036147f4576147f3613d4c565b5b600182019050919050565b7f4e487b7100000000000000000000000000000000000000000000000000000000600052601260045260246000fd5b6000614839826132fe565b9150614844836132fe565b925082614854576148536147ff565b5b828204905092915050565b600061486a826132fe565b9150614875836132fe565b925082614885576148846147ff565b5b828206905092915050565b7f4e487b7100000000000000000000000000000000000000000000000000000000600052603260045260246000fd5b7f5061757361626c653a2070617573656400000000000000000000000000000000600082015250565b60006148f560108361324e565b9150614900826148bf565b602082019050919050565b60006020820190508181036000830152614924816148e8565b9050919050565b7f4552433732313a20617070726f766520746f2063616c6c657200000000000000600082015250565b600061496160198361324e565b915061496c8261492b565b602082019050919050565b6000602082019050818103600083015261499081614954565b9050919050565b7f4552433732313a207472616e7366657220746f206e6f6e20455243373231526560008201527f63656976657220696d706c656d656e7465720000000000000000000000000000602082015250565b60006149f360328361324e565b91506149fe82614997565b604082019050919050565b60006020820190508181036000830152614a22816149e6565b9050919050565b7f5032443a205468652073746167652073686f756c64206265206c65737320746860008201527f616e200000000000000000000000000000000000000000000000000000000000602082015250565b6000614a85602383613daf565b9150614a9082614a29565b602382019050919050565b6000614aa682614a78565b9150614ab28284613e2c565b915081905092915050565b7f416363657373436f6e74726f6c3a206163636f756e7420000000000000000000600082015250565b6000614af3601783613daf565b9150614afe82614abd565b601782019050919050565b7f206973206d697373696e6720726f6c6520000000000000000000000000000000600082015250565b6000614b3f601183613daf565b9150614b4a82614b09565b601182019050919050565b6000614b6082614ae6565b9150614b6c8285613e2c565b9150614b7782614b32565b9150614b838284613e2c565b91508190509392505050565b600081519050919050565b600082825260208201905092915050565b6000614bb682614b8f565b614bc08185614b9a565b9350614bd081856020860161325f565b614bd981613292565b840191505092915050565b6000608082019050614bf96000830187613393565b614c066020830186613393565b614c1360408301856136f4565b8181036060830152614c258184614bab565b905095945050505050565b600081519050614c3f816131b4565b92915050565b600060208284031215614c5b57614c5a61317e565b5b6000614c6984828501614c30565b91505092915050565b7f537472696e67733a20686578206c656e67746820696e73756666696369656e74600082015250565b6000614ca860208361324e565b9150614cb382614c72565b602082019050919050565b60006020820190508181036000830152614cd781614c9b565b9050919050565b7f4552433732313a206d696e7420746f20746865207a65726f2061646472657373600082015250565b6000614d1460208361324e565b9150614d1f82614cde565b602082019050919050565b60006020820190508181036000830152614d4381614d07565b9050919050565b7f4552433732313a20746f6b656e20616c7265616479206d696e74656400000000600082015250565b6000614d80601c8361324e565b9150614d8b82614d4a565b602082019050919050565b60006020820190508181036000830152614daf81614d73565b905091905056fe4142434445464748494a4b4c4d4e4f505152535455565758595a6162636465666768696a6b6c6d6e6f707172737475767778797a303132333435363738392b2fa2646970667358221220aade74af500106bb54d3fb6f4c17b260b7c1153da97104daedc50caf56dee21964736f6c634300080e0033",
  "linkReferences": {},
  "deployedLinkReferences": {}
}