{
  "_format": "hh-sol-artifact-1",
  "contractName": "PhysicalToDigital",
  "sourceName": "contracts/PhysicalToDigital.sol",
  "abi": [
    {
      "inputs": [],
      "stateMutability": "nonpayable",
      "type": "constructor"
    },
    {
      "anonymous": false,
      "inputs": [
        {
          "indexed": true,
          "internalType": "address",
          "name": "owner",
          "type": "address"
        },
        {
          "indexed": true,
          "internalType": "address",
          "name": "approved",
          "type": "address"
        },
        {
          "indexed": true,
          "internalType": "uint256",
          "name": "tokenId",
          "type": "uint256"
        }
      ],
      "name": "Approval",
      "type": "event"
    },
    {
      "anonymous": false,
      "inputs": [
        {
          "indexed": true,
          "internalType": "address",
          "name": "owner",
          "type": "address"
        },
        {
          "indexed": true,
          "internalType": "address",
          "name": "operator",
          "type": "address"
        },
        {
          "indexed": false,
          "internalType": "bool",
          "name": "approved",
          "type": "bool"
        }
      ],
      "name": "ApprovalForAll",
      "type": "event"
    },
    {
      "anonymous": false,
      "inputs": [
        {
          "indexed": false,
          "internalType": "address",
          "name": "account",
          "type": "address"
        }
      ],
      "name": "Paused",
      "type": "event"
    },
    {
      "anonymous": false,
      "inputs": [
        {
          "indexed": true,
          "internalType": "bytes32",
          "name": "role",
          "type": "bytes32"
        },
        {
          "indexed": true,
          "internalType": "bytes32",
          "name": "previousAdminRole",
          "type": "bytes32"
        },
        {
          "indexed": true,
          "internalType": "bytes32",
          "name": "newAdminRole",
          "type": "bytes32"
        }
      ],
      "name": "RoleAdminChanged",
      "type": "event"
    },
    {
      "anonymous": false,
      "inputs": [
        {
          "indexed": true,
          "internalType": "bytes32",
          "name": "role",
          "type": "bytes32"
        },
        {
          "indexed": true,
          "internalType": "address",
          "name": "account",
          "type": "address"
        },
        {
          "indexed": true,
          "internalType": "address",
          "name": "sender",
          "type": "address"
        }
      ],
      "name": "RoleGranted",
      "type": "event"
    },
    {
      "anonymous": false,
      "inputs": [
        {
          "indexed": true,
          "internalType": "bytes32",
          "name": "role",
          "type": "bytes32"
        },
        {
          "indexed": true,
          "internalType": "address",
          "name": "account",
          "type": "address"
        },
        {
          "indexed": true,
          "internalType": "address",
          "name": "sender",
          "type": "address"
        }
      ],
      "name": "RoleRevoked",
      "type": "event"
    },
    {
      "anonymous": false,
      "inputs": [
        {
          "indexed": true,
          "internalType": "address",
          "name": "from",
          "type": "address"
        },
        {
          "indexed": true,
          "internalType": "address",
          "name": "to",
          "type": "address"
        },
        {
          "indexed": true,
          "internalType": "uint256",
          "name": "tokenId",
          "type": "uint256"
        }
      ],
      "name": "Transfer",
      "type": "event"
    },
    {
      "anonymous": false,
      "inputs": [
        {
          "indexed": false,
          "internalType": "address",
          "name": "account",
          "type": "address"
        }
      ],
      "name": "Unpaused",
      "type": "event"
    },
    {
      "inputs": [],
      "name": "DEFAULT_ADMIN_ROLE",
      "outputs": [
        {
          "internalType": "bytes32",
          "name": "",
          "type": "bytes32"
        }
      ],
      "stateMutability": "view",
      "type": "function"
    },
    {
      "inputs": [],
      "name": "MINING_PRICE",
      "outputs": [
        {
          "internalType": "uint256",
          "name": "",
          "type": "uint256"
        }
      ],
      "stateMutability": "view",
      "type": "function"
    },
    {
      "inputs": [],
      "name": "MINTER_ROLE",
      "outputs": [
        {
          "internalType": "bytes32",
          "name": "",
          "type": "bytes32"
        }
      ],
      "stateMutability": "view",
      "type": "function"
    },
    {
      "inputs": [],
      "name": "PAUSER_ROLE",
      "outputs": [
        {
          "internalType": "bytes32",
          "name": "",
          "type": "bytes32"
        }
      ],
      "stateMutability": "view",
      "type": "function"
    },
    {
      "inputs": [],
      "name": "PREPAID_PROCESSING_PRICE",
      "outputs": [
        {
          "internalType": "uint256",
          "name": "",
          "type": "uint256"
        }
      ],
      "stateMutability": "view",
      "type": "function"
    },
    {
      "inputs": [
        {
          "internalType": "address",
          "name": "to",
          "type": "address"
        },
        {
          "internalType": "uint256",
          "name": "tokenId",
          "type": "uint256"
        }
      ],
      "name": "approve",
      "outputs": [],
      "stateMutability": "nonpayable",
      "type": "function"
    },
    {
      "inputs": [
        {
          "internalType": "address",
          "name": "owner",
          "type": "address"
        }
      ],
      "name": "balanceOf",
      "outputs": [
        {
          "internalType": "uint256",
          "name": "",
          "type": "uint256"
        }
      ],
      "stateMutability": "view",
      "type": "function"
    },
    {
      "inputs": [
        {
          "internalType": "uint256",
          "name": "tokenId",
          "type": "uint256"
        }
      ],
      "name": "burn",
      "outputs": [],
      "stateMutability": "nonpayable",
      "type": "function"
    },
    {
      "inputs": [
        {
          "internalType": "uint256",
          "name": "tokenId",
          "type": "uint256"
        }
      ],
      "name": "clean",
      "outputs": [],
      "stateMutability": "payable",
      "type": "function"
    },
    {
      "inputs": [],
      "name": "completeStage",
      "outputs": [],
      "stateMutability": "nonpayable",
      "type": "function"
    },
    {
      "inputs": [
        {
          "internalType": "uint256",
          "name": "tokenId",
          "type": "uint256"
        }
      ],
      "name": "getApproved",
      "outputs": [
        {
          "internalType": "address",
          "name": "",
          "type": "address"
        }
      ],
      "stateMutability": "view",
      "type": "function"
    },
    {
      "inputs": [
        {
          "internalType": "bytes32",
          "name": "role",
          "type": "bytes32"
        }
      ],
      "name": "getRoleAdmin",
      "outputs": [
        {
          "internalType": "bytes32",
          "name": "",
          "type": "bytes32"
        }
      ],
      "stateMutability": "view",
      "type": "function"
    },
    {
      "inputs": [
        {
          "internalType": "bytes32",
          "name": "role",
          "type": "bytes32"
        },
        {
          "internalType": "address",
          "name": "account",
          "type": "address"
        }
      ],
      "name": "grantRole",
      "outputs": [],
      "stateMutability": "nonpayable",
      "type": "function"
    },
    {
      "inputs": [
        {
          "internalType": "bytes32",
          "name": "role",
          "type": "bytes32"
        },
        {
          "internalType": "address",
          "name": "account",
          "type": "address"
        }
      ],
      "name": "hasRole",
      "outputs": [
        {
          "internalType": "bool",
          "name": "",
          "type": "bool"
        }
      ],
      "stateMutability": "view",
      "type": "function"
    },
    {
      "inputs": [
        {
          "internalType": "address",
          "name": "owner",
          "type": "address"
        },
        {
          "internalType": "address",
          "name": "operator",
          "type": "address"
        }
      ],
      "name": "isApprovedForAll",
      "outputs": [
        {
          "internalType": "bool",
          "name": "",
          "type": "bool"
        }
      ],
      "stateMutability": "view",
      "type": "function"
    },
    {
      "inputs": [],
      "name": "isStageActive",
      "outputs": [
        {
          "internalType": "bool",
          "name": "",
          "type": "bool"
        }
      ],
      "stateMutability": "view",
      "type": "function"
    },
    {
      "inputs": [
        {
          "internalType": "uint256",
          "name": "processesPurchased",
          "type": "uint256"
        }
      ],
      "name": "mine",
      "outputs": [],
      "stateMutability": "payable",
      "type": "function"
    },
    {
      "inputs": [],
      "name": "name",
      "outputs": [
        {
          "internalType": "string",
          "name": "",
          "type": "string"
        }
      ],
      "stateMutability": "view",
      "type": "function"
    },
    {
      "inputs": [
        {
          "internalType": "uint256",
          "name": "tokenId",
          "type": "uint256"
        }
      ],
      "name": "ownerOf",
      "outputs": [
        {
          "internalType": "address",
          "name": "",
          "type": "address"
        }
      ],
      "stateMutability": "view",
      "type": "function"
    },
    {
      "inputs": [],
      "name": "pause",
      "outputs": [],
      "stateMutability": "nonpayable",
      "type": "function"
    },
    {
      "inputs": [],
      "name": "paused",
      "outputs": [
        {
          "internalType": "bool",
          "name": "",
          "type": "bool"
        }
      ],
      "stateMutability": "view",
      "type": "function"
    },
    {
      "inputs": [
        {
          "internalType": "uint256",
          "name": "tokenId",
          "type": "uint256"
        }
      ],
      "name": "polish",
      "outputs": [],
      "stateMutability": "payable",
      "type": "function"
    },
    {
      "inputs": [],
      "name": "processingPrice",
      "outputs": [
        {
          "internalType": "uint256",
          "name": "",
          "type": "uint256"
        }
      ],
      "stateMutability": "view",
      "type": "function"
    },
    {
      "inputs": [
        {
          "internalType": "bytes32",
          "name": "role",
          "type": "bytes32"
        },
        {
          "internalType": "address",
          "name": "account",
          "type": "address"
        }
      ],
      "name": "renounceRole",
      "outputs": [],
      "stateMutability": "nonpayable",
      "type": "function"
    },
    {
      "inputs": [
        {
          "internalType": "string",
          "name": "videoUrl",
          "type": "string"
        }
      ],
      "name": "revealStage",
      "outputs": [],
      "stateMutability": "nonpayable",
      "type": "function"
    },
    {
      "inputs": [
        {
          "internalType": "bytes32",
          "name": "role",
          "type": "bytes32"
        },
        {
          "internalType": "address",
          "name": "account",
          "type": "address"
        }
      ],
      "name": "revokeRole",
      "outputs": [],
      "stateMutability": "nonpayable",
      "type": "function"
    },
    {
      "inputs": [
        {
          "internalType": "address",
          "name": "to",
          "type": "address"
        }
      ],
      "name": "safeMint",
      "outputs": [],
      "stateMutability": "nonpayable",
      "type": "function"
    },
    {
      "inputs": [
        {
          "internalType": "address",
          "name": "from",
          "type": "address"
        },
        {
          "internalType": "address",
          "name": "to",
          "type": "address"
        },
        {
          "internalType": "uint256",
          "name": "tokenId",
          "type": "uint256"
        }
      ],
      "name": "safeTransferFrom",
      "outputs": [],
      "stateMutability": "nonpayable",
      "type": "function"
    },
    {
      "inputs": [
        {
          "internalType": "address",
          "name": "from",
          "type": "address"
        },
        {
          "internalType": "address",
          "name": "to",
          "type": "address"
        },
        {
          "internalType": "uint256",
          "name": "tokenId",
          "type": "uint256"
        },
        {
          "internalType": "bytes",
          "name": "_data",
          "type": "bytes"
        }
      ],
      "name": "safeTransferFrom",
      "outputs": [],
      "stateMutability": "nonpayable",
      "type": "function"
    },
    {
      "inputs": [
        {
          "internalType": "address",
          "name": "operator",
          "type": "address"
        },
        {
          "internalType": "bool",
          "name": "approved",
          "type": "bool"
        }
      ],
      "name": "setApprovalForAll",
      "outputs": [],
      "stateMutability": "nonpayable",
      "type": "function"
    },
    {
      "inputs": [
        {
          "internalType": "uint256",
          "name": "price",
          "type": "uint256"
        }
      ],
      "name": "setProcessingPrice",
      "outputs": [],
      "stateMutability": "nonpayable",
      "type": "function"
    },
    {
      "inputs": [],
      "name": "stage",
      "outputs": [
        {
          "internalType": "uint256",
          "name": "",
          "type": "uint256"
        }
      ],
      "stateMutability": "view",
      "type": "function"
    },
    {
      "inputs": [
        {
          "internalType": "bytes4",
          "name": "interfaceId",
          "type": "bytes4"
        }
      ],
      "name": "supportsInterface",
      "outputs": [
        {
          "internalType": "bool",
          "name": "",
          "type": "bool"
        }
      ],
      "stateMutability": "view",
      "type": "function"
    },
    {
      "inputs": [],
      "name": "symbol",
      "outputs": [
        {
          "internalType": "string",
          "name": "",
          "type": "string"
        }
      ],
      "stateMutability": "view",
      "type": "function"
    },
    {
      "inputs": [
        {
          "internalType": "uint256",
          "name": "tokenId",
          "type": "uint256"
        }
      ],
      "name": "tokenURI",
      "outputs": [
        {
          "internalType": "string",
          "name": "",
          "type": "string"
        }
      ],
      "stateMutability": "view",
      "type": "function"
    },
    {
      "inputs": [
        {
          "internalType": "address",
          "name": "from",
          "type": "address"
        },
        {
          "internalType": "address",
          "name": "to",
          "type": "address"
        },
        {
          "internalType": "uint256",
          "name": "tokenId",
          "type": "uint256"
        }
      ],
      "name": "transferFrom",
      "outputs": [],
      "stateMutability": "nonpayable",
      "type": "function"
    },
    {
      "inputs": [],
      "name": "unpause",
      "outputs": [],
      "stateMutability": "nonpayable",
      "type": "function"
    }
  ],
  "bytecode": "0x60806040523480156200001157600080fd5b506040518060400160405280601181526020017f506879736963616c546f4469676974616c0000000000000000000000000000008152506040518060400160405280600381526020017f5054440000000000000000000000000000000000000000000000000000000000815250816000908051906020019062000096929190620003c2565b508060019080519060200190620000af929190620003c2565b5050506000600660006101000a81548160ff021916908315150217905550620000e26000801b336200018e60201b60201c565b620001147f65d7a28e3265b37a6474929f336521b332c1681b933f6cb9f3376673440d862a336200018e60201b60201c565b620001467f9f2df0fed2c77648de5860a4cc508cd0818c85b8b8a1ab4ceeef8d981c8956a6336200018e60201b60201c565b67016345785d8a0000600a8190555060016009819055506000600b60006101000a81548160ff021916908315150217905550620001886200028060201b60201c565b620005bb565b620001a082826200033860201b60201c565b6200027c5760016007600084815260200190815260200160002060000160008373ffffffffffffffffffffffffffffffffffffffff1673ffffffffffffffffffffffffffffffffffffffff16815260200190815260200160002060006101000a81548160ff02191690831515021790555062000221620003a360201b60201c565b73ffffffffffffffffffffffffffffffffffffffff168173ffffffffffffffffffffffffffffffffffffffff16837f2f8788117e7eff1d82e926ec794901d17c78024a50270940304540a733656f0d60405160405180910390a45b5050565b62000290620003ab60201b60201c565b15620002d3576040517f08c379a0000000000000000000000000000000000000000000000000000000008152600401620002ca90620004d3565b60405180910390fd5b6001600660006101000a81548160ff0219169083151502179055507f62e78cea01bee320cd4e420270b5ea74000d11b0c9f74754ebdbfc544b05a2586200031f620003a360201b60201c565b6040516200032e91906200053a565b60405180910390a1565b60006007600084815260200190815260200160002060000160008373ffffffffffffffffffffffffffffffffffffffff1673ffffffffffffffffffffffffffffffffffffffff16815260200190815260200160002060009054906101000a900460ff16905092915050565b600033905090565b6000600660009054906101000a900460ff16905090565b828054620003d09062000586565b90600052602060002090601f016020900481019282620003f4576000855562000440565b82601f106200040f57805160ff191683800117855562000440565b8280016001018555821562000440579182015b828111156200043f57825182559160200191906001019062000422565b5b5090506200044f919062000453565b5090565b5b808211156200046e57600081600090555060010162000454565b5090565b600082825260208201905092915050565b7f5061757361626c653a2070617573656400000000000000000000000000000000600082015250565b6000620004bb60108362000472565b9150620004c88262000483565b602082019050919050565b60006020820190508181036000830152620004ee81620004ac565b9050919050565b600073ffffffffffffffffffffffffffffffffffffffff82169050919050565b60006200052282620004f5565b9050919050565b620005348162000515565b82525050565b600060208201905062000551600083018462000529565b92915050565b7f4e487b7100000000000000000000000000000000000000000000000000000000600052602260045260246000fd5b600060028204905060018216806200059f57607f821691505b602082108103620005b557620005b462000557565b5b50919050565b61477780620005cb6000396000f3fe60806040526004361061021a5760003560e01c8063674ef0fa11610123578063b88d4fde116100ab578063d53913931161006f578063d539139314610792578063d547741f146107bd578063e63ab1e9146107e6578063e985e9c514610811578063fa27d4841461084e5761021a565b8063b88d4fde146106ba578063bf72b63f146106e3578063c040e6b8146106ff578063c87b56dd1461072a578063cc116979146107675761021a565b806391d14854116100f257806391d14854146105d557806395d89b4114610612578063a217fddf1461063d578063a22cb46514610668578063abdfe275146106915761021a565b8063674ef0fa1461053a57806370a08231146105565780638456cb59146105935780638c8c35d1146105aa5761021a565b80633f4ba83a116101a65780634d474898116101755780634d474898146104605780634e490b4a1461047c5780635c975abb146104a75780635ed6ac4f146104d25780636352211e146104fd5761021a565b80633f4ba83a146103ce57806340d097c3146103e557806342842e0e1461040e57806342966c68146104375761021a565b80630a49008d116101ed5780630a49008d146102ed57806323b872dd14610316578063248a9ca31461033f5780632f2ff15d1461037c57806336568abe146103a55761021a565b806301ffc9a71461021f57806306fdde031461025c578063081812fc14610287578063095ea7b3146102c4575b600080fd5b34801561022b57600080fd5b5061024660048036038101906102419190612e18565b610865565b6040516102539190612e60565b60405180910390f35b34801561026857600080fd5b50610271610877565b60405161027e9190612f14565b60405180910390f35b34801561029357600080fd5b506102ae60048036038101906102a99190612f6c565b610909565b6040516102bb9190612fda565b60405180910390f35b3480156102d057600080fd5b506102eb60048036038101906102e69190613021565b61098e565b005b3480156102f957600080fd5b50610314600480360381019061030f9190613196565b610aa5565b005b34801561032257600080fd5b5061033d600480360381019061033891906131df565b610afd565b005b34801561034b57600080fd5b5061036660048036038101906103619190613268565b610b5d565b60405161037391906132a4565b60405180910390f35b34801561038857600080fd5b506103a3600480360381019061039e91906132bf565b610b7d565b005b3480156103b157600080fd5b506103cc60048036038101906103c791906132bf565b610b9e565b005b3480156103da57600080fd5b506103e3610c21565b005b3480156103f157600080fd5b5061040c600480360381019061040791906132ff565b610c56565b005b34801561041a57600080fd5b50610435600480360381019061043091906131df565b610ca7565b005b34801561044357600080fd5b5061045e60048036038101906104599190612f6c565b610cc7565b005b61047a60048036038101906104759190612f6c565b610d23565b005b34801561048857600080fd5b50610491610f06565b60405161049e919061333b565b60405180910390f35b3480156104b357600080fd5b506104bc610f0c565b6040516104c99190612e60565b60405180910390f35b3480156104de57600080fd5b506104e7610f23565b6040516104f49190612e60565b60405180910390f35b34801561050957600080fd5b50610524600480360381019061051f9190612f6c565b610f36565b6040516105319190612fda565b60405180910390f35b610554600480360381019061054f9190612f6c565b610fe7565b005b34801561056257600080fd5b5061057d600480360381019061057891906132ff565b61104f565b60405161058a919061333b565b60405180910390f35b34801561059f57600080fd5b506105a8611106565b005b3480156105b657600080fd5b506105bf61113b565b6040516105cc919061333b565b60405180910390f35b3480156105e157600080fd5b506105fc60048036038101906105f791906132bf565b611147565b6040516106099190612e60565b60405180910390f35b34801561061e57600080fd5b506106276111b2565b6040516106349190612f14565b60405180910390f35b34801561064957600080fd5b50610652611244565b60405161065f91906132a4565b60405180910390f35b34801561067457600080fd5b5061068f600480360381019061068a9190613382565b61124b565b005b34801561069d57600080fd5b506106b860048036038101906106b39190612f6c565b611261565b005b3480156106c657600080fd5b506106e160048036038101906106dc9190613463565b611279565b005b6106fd60048036038101906106f89190612f6c565b6112db565b005b34801561070b57600080fd5b50610714611343565b604051610721919061333b565b60405180910390f35b34801561073657600080fd5b50610751600480360381019061074c9190612f6c565b611349565b60405161075e9190612f14565b60405180910390f35b34801561077357600080fd5b5061077c6113f0565b604051610789919061333b565b60405180910390f35b34801561079e57600080fd5b506107a76113fc565b6040516107b491906132a4565b60405180910390f35b3480156107c957600080fd5b506107e460048036038101906107df91906132bf565b611420565b005b3480156107f257600080fd5b506107fb611441565b60405161080891906132a4565b60405180910390f35b34801561081d57600080fd5b50610838600480360381019061083391906134e6565b611465565b6040516108459190612e60565b60405180910390f35b34801561085a57600080fd5b506108636114f9565b005b60006108708261153c565b9050919050565b60606000805461088690613555565b80601f01602080910402602001604051908101604052809291908181526020018280546108b290613555565b80156108ff5780601f106108d4576101008083540402835291602001916108ff565b820191906000526020600020905b8154815290600101906020018083116108e257829003601f168201915b5050505050905090565b6000610914826115b6565b610953576040517f08c379a000000000000000000000000000000000000000000000000000000000815260040161094a906135f8565b60405180910390fd5b6004600083815260200190815260200160002060009054906101000a900473ffffffffffffffffffffffffffffffffffffffff169050919050565b600061099982610f36565b90508073ffffffffffffffffffffffffffffffffffffffff168373ffffffffffffffffffffffffffffffffffffffff1603610a09576040517f08c379a0000000000000000000000000000000000000000000000000000000008152600401610a009061368a565b60405180910390fd5b8073ffffffffffffffffffffffffffffffffffffffff16610a28611622565b73ffffffffffffffffffffffffffffffffffffffff161480610a575750610a5681610a51611622565b611465565b5b610a96576040517f08c379a0000000000000000000000000000000000000000000000000000000008152600401610a8d9061371c565b60405180910390fd5b610aa0838361162a565b505050565b6000801b610ab2816116e3565b6001600b60006101000a81548160ff02191690831515021790555081600c60095460058110610ae457610ae361373c565b5b019080519060200190610af8929190612d09565b505050565b610b0e610b08611622565b826116f7565b610b4d576040517f08c379a0000000000000000000000000000000000000000000000000000000008152600401610b44906137dd565b60405180910390fd5b610b588383836117d5565b505050565b600060076000838152602001908152602001600020600101549050919050565b610b8682610b5d565b610b8f816116e3565b610b998383611a3b565b505050565b610ba6611622565b73ffffffffffffffffffffffffffffffffffffffff168173ffffffffffffffffffffffffffffffffffffffff1614610c13576040517f08c379a0000000000000000000000000000000000000000000000000000000008152600401610c0a9061386f565b60405180910390fd5b610c1d8282611b1c565b5050565b7f65d7a28e3265b37a6474929f336521b332c1681b933f6cb9f3376673440d862a610c4b816116e3565b610c53611bfe565b50565b7f9f2df0fed2c77648de5860a4cc508cd0818c85b8b8a1ab4ceeef8d981c8956a6610c80816116e3565b6000610c8c6008611ca0565b9050610c986008611cae565b610ca28382611cc4565b505050565b610cc283838360405180602001604052806000815250611279565b505050565b610cd8610cd2611622565b826116f7565b610d17576040517f08c379a0000000000000000000000000000000000000000000000000000000008152600401610d0e90613901565b60405180910390fd5b610d2081611ce2565b50565b610d2b610f0c565b15610d6b576040517f08c379a0000000000000000000000000000000000000000000000000000000008152600401610d629061396d565b60405180910390fd5b6001610d75611dff565b610d7e81611e50565b60016004610d8c91906139bc565b821115610da560016004610da091906139bc565b611ec2565b604051602001610db59190613a9e565b60405160208183030381529060405290610e05576040517f08c379a0000000000000000000000000000000000000000000000000000000008152600401610dfc9190612f14565b60405180910390fd5b50600067016345785d8a000083610e1c9190613ac0565b67016345785d8a0000610e2f9190613b1a565b9050803414610e3d82611ec2565b604051602001610e4d9190613be2565b60405160208183030381529060405290610e9d576040517f08c379a0000000000000000000000000000000000000000000000000000000008152600401610e949190612f14565b60405180910390fd5b506000610eaa6008611ca0565b9050610eb66008611cae565b610ec03382611cc4565b6040518060400160405280600181526020018581525060116000838152602001908152602001600020600082015181600001556020820151816001015590505050505050565b600a5481565b6000600660009054906101000a900460ff16905090565b600b60009054906101000a900460ff1681565b6000806002600084815260200190815260200160002060009054906101000a900473ffffffffffffffffffffffffffffffffffffffff169050600073ffffffffffffffffffffffffffffffffffffffff168173ffffffffffffffffffffffffffffffffffffffff1603610fde576040517f08c379a0000000000000000000000000000000000000000000000000000000008152600401610fd590613c76565b60405180910390fd5b80915050919050565b610fef610f0c565b1561102f576040517f08c379a00000000000000000000000000000000000000000000000000000000081526004016110269061396d565b60405180910390fd5b6003611039611dff565b61104281611e50565b61104b82612022565b5050565b60008073ffffffffffffffffffffffffffffffffffffffff168273ffffffffffffffffffffffffffffffffffffffff16036110bf576040517f08c379a00000000000000000000000000000000000000000000000000000000081526004016110b690613d08565b60405180910390fd5b600360008373ffffffffffffffffffffffffffffffffffffffff1673ffffffffffffffffffffffffffffffffffffffff168152602001908152602001600020549050919050565b7f65d7a28e3265b37a6474929f336521b332c1681b933f6cb9f3376673440d862a611130816116e3565b6111386121fc565b50565b67016345785d8a000081565b60006007600084815260200190815260200160002060000160008373ffffffffffffffffffffffffffffffffffffffff1673ffffffffffffffffffffffffffffffffffffffff16815260200190815260200160002060009054906101000a900460ff16905092915050565b6060600180546111c190613555565b80601f01602080910402602001604051908101604052809291908181526020018280546111ed90613555565b801561123a5780601f1061120f5761010080835404028352916020019161123a565b820191906000526020600020905b81548152906001019060200180831161121d57829003601f168201915b5050505050905090565b6000801b81565b61125d611256611622565b838361229f565b5050565b6000801b61126e816116e3565b81600a819055505050565b61128a611284611622565b836116f7565b6112c9576040517f08c379a00000000000000000000000000000000000000000000000000000000081526004016112c0906137dd565b60405180910390fd5b6112d58484848461240b565b50505050565b6112e3610f0c565b15611323576040517f08c379a000000000000000000000000000000000000000000000000000000000815260040161131a9061396d565b60405180910390fd5b600261132d611dff565b61133681611e50565b61133f82612022565b5050565b60095481565b6060611354826115b6565b611393576040517f08c379a000000000000000000000000000000000000000000000000000000000815260040161138a90613d9a565b60405180910390fd5b600061139d612467565b905060008151116113bd57604051806020016040528060008152506113e8565b806113c784611ec2565b6040516020016113d8929190613dba565b6040516020818303038152906040525b915050919050565b67016345785d8a000081565b7f9f2df0fed2c77648de5860a4cc508cd0818c85b8b8a1ab4ceeef8d981c8956a681565b61142982610b5d565b611432816116e3565b61143c8383611b1c565b505050565b7f65d7a28e3265b37a6474929f336521b332c1681b933f6cb9f3376673440d862a81565b6000600560008473ffffffffffffffffffffffffffffffffffffffff1673ffffffffffffffffffffffffffffffffffffffff16815260200190815260200160002060008373ffffffffffffffffffffffffffffffffffffffff1673ffffffffffffffffffffffffffffffffffffffff16815260200190815260200160002060009054906101000a900460ff16905092915050565b6000801b611506816116e3565b6000600b60006101000a81548160ff0219169083151502179055506009600081548092919061153490613dde565b919050555050565b60007f7965db0b000000000000000000000000000000000000000000000000000000007bffffffffffffffffffffffffffffffffffffffffffffffffffffffff1916827bffffffffffffffffffffffffffffffffffffffffffffffffffffffff191614806115af57506115ae826124a4565b5b9050919050565b60008073ffffffffffffffffffffffffffffffffffffffff166002600084815260200190815260200160002060009054906101000a900473ffffffffffffffffffffffffffffffffffffffff1673ffffffffffffffffffffffffffffffffffffffff1614159050919050565b600033905090565b816004600083815260200190815260200160002060006101000a81548173ffffffffffffffffffffffffffffffffffffffff021916908373ffffffffffffffffffffffffffffffffffffffff160217905550808273ffffffffffffffffffffffffffffffffffffffff1661169d83610f36565b73ffffffffffffffffffffffffffffffffffffffff167f8c5be1e5ebec7d5bd14f71427d1e84f3dd0314c0f7b2291e5b200ac8c7c3b92560405160405180910390a45050565b6116f4816116ef611622565b612586565b50565b6000611702826115b6565b611741576040517f08c379a000000000000000000000000000000000000000000000000000000000815260040161173890613e98565b60405180910390fd5b600061174c83610f36565b90508073ffffffffffffffffffffffffffffffffffffffff168473ffffffffffffffffffffffffffffffffffffffff16148061178e575061178d8185611465565b5b806117cc57508373ffffffffffffffffffffffffffffffffffffffff166117b484610909565b73ffffffffffffffffffffffffffffffffffffffff16145b91505092915050565b8273ffffffffffffffffffffffffffffffffffffffff166117f582610f36565b73ffffffffffffffffffffffffffffffffffffffff161461184b576040517f08c379a000000000000000000000000000000000000000000000000000000000815260040161184290613f2a565b60405180910390fd5b600073ffffffffffffffffffffffffffffffffffffffff168273ffffffffffffffffffffffffffffffffffffffff16036118ba576040517f08c379a00000000000000000000000000000000000000000000000000000000081526004016118b190613fbc565b60405180910390fd5b6118c5838383612623565b6118d060008261162a565b6001600360008573ffffffffffffffffffffffffffffffffffffffff1673ffffffffffffffffffffffffffffffffffffffff168152602001908152602001600020600082825461192091906139bc565b925050819055506001600360008473ffffffffffffffffffffffffffffffffffffffff1673ffffffffffffffffffffffffffffffffffffffff16815260200190815260200160002060008282546119779190613b1a565b92505081905550816002600083815260200190815260200160002060006101000a81548173ffffffffffffffffffffffffffffffffffffffff021916908373ffffffffffffffffffffffffffffffffffffffff160217905550808273ffffffffffffffffffffffffffffffffffffffff168473ffffffffffffffffffffffffffffffffffffffff167fddf252ad1be2c89b69c2b068fc378daa952ba7f163c4a11628f55a4df523b3ef60405160405180910390a4611a3683838361267b565b505050565b611a458282611147565b611b185760016007600084815260200190815260200160002060000160008373ffffffffffffffffffffffffffffffffffffffff1673ffffffffffffffffffffffffffffffffffffffff16815260200190815260200160002060006101000a81548160ff021916908315150217905550611abd611622565b73ffffffffffffffffffffffffffffffffffffffff168173ffffffffffffffffffffffffffffffffffffffff16837f2f8788117e7eff1d82e926ec794901d17c78024a50270940304540a733656f0d60405160405180910390a45b5050565b611b268282611147565b15611bfa5760006007600084815260200190815260200160002060000160008373ffffffffffffffffffffffffffffffffffffffff1673ffffffffffffffffffffffffffffffffffffffff16815260200190815260200160002060006101000a81548160ff021916908315150217905550611b9f611622565b73ffffffffffffffffffffffffffffffffffffffff168173ffffffffffffffffffffffffffffffffffffffff16837ff6391f5c32d9c69d2a47ea670b442974b53935d1edc7fd64eb21e047a839171b60405160405180910390a45b5050565b611c06610f0c565b611c45576040517f08c379a0000000000000000000000000000000000000000000000000000000008152600401611c3c90614028565b60405180910390fd5b6000600660006101000a81548160ff0219169083151502179055507f5db9ee0a495bf2e6ff9c91a7834c1ba4fdd244a5e8aa4e537bd38aeae4b073aa611c89611622565b604051611c969190612fda565b60405180910390a1565b600081600001549050919050565b6001816000016000828254019250508190555050565b611cde828260405180602001604052806000815250612680565b5050565b6000611ced82610f36565b9050611cfb81600084612623565b611d0660008361162a565b6001600360008373ffffffffffffffffffffffffffffffffffffffff1673ffffffffffffffffffffffffffffffffffffffff1681526020019081526020016000206000828254611d5691906139bc565b925050819055506002600083815260200190815260200160002060006101000a81549073ffffffffffffffffffffffffffffffffffffffff021916905581600073ffffffffffffffffffffffffffffffffffffffff168273ffffffffffffffffffffffffffffffffffffffff167fddf252ad1be2c89b69c2b068fc378daa952ba7f163c4a11628f55a4df523b3ef60405160405180910390a4611dfb8160008461267b565b5050565b600b60009054906101000a900460ff16611e4e576040517f08c379a0000000000000000000000000000000000000000000000000000000008152600401611e45906140ba565b60405180910390fd5b565b8060095414611e5e82611ec2565b604051602001611e6e9190614126565b60405160208183030381529060405290611ebe576040517f08c379a0000000000000000000000000000000000000000000000000000000008152600401611eb59190612f14565b60405180910390fd5b5050565b606060008203611f09576040518060400160405280600181526020017f3000000000000000000000000000000000000000000000000000000000000000815250905061201d565b600082905060005b60008214611f3b578080611f2490613dde565b915050600a82611f34919061418a565b9150611f11565b60008167ffffffffffffffff811115611f5757611f5661306b565b5b6040519080825280601f01601f191660200182016040528015611f895781602001600182028036833780820191505090505b5090505b6000851461201657600182611fa291906139bc565b9150600a85611fb191906141bb565b6030611fbd9190613b1a565b60f81b818381518110611fd357611fd261373c565b5b60200101907effffffffffffffffffffffffffffffffffffffffffffffffffffffffffffff1916908160001a905350600a8561200f919061418a565b9450611f8d565b8093505050505b919050565b61203361202d611622565b826116f7565b612072576040517f08c379a00000000000000000000000000000000000000000000000000000000081526004016120699061425e565b60405180910390fd5b600160095461208191906139bc565b6011600083815260200190815260200160002060000154146120b060016009546120ab91906139bc565b611ec2565b6040516020016120c091906142f0565b60405160208183030381529060405290612110576040517f08c379a00000000000000000000000000000000000000000000000000000000081526004016121079190612f14565b60405180910390fd5b5060006011600083815260200190815260200160002060010154036121a157600a54341461213f600a54611ec2565b60405160200161214f9190613be2565b6040516020818303038152906040529061219f576040517f08c379a00000000000000000000000000000000000000000000000000000000081526004016121969190612f14565b60405180910390fd5b505b6011600082815260200190815260200160002060000160008154809291906121c890613dde565b91905055506011600082815260200190815260200160002060010160008154809291906121f490614321565b919050555050565b612204610f0c565b15612244576040517f08c379a000000000000000000000000000000000000000000000000000000000815260040161223b9061396d565b60405180910390fd5b6001600660006101000a81548160ff0219169083151502179055507f62e78cea01bee320cd4e420270b5ea74000d11b0c9f74754ebdbfc544b05a258612288611622565b6040516122959190612fda565b60405180910390a1565b8173ffffffffffffffffffffffffffffffffffffffff168373ffffffffffffffffffffffffffffffffffffffff160361230d576040517f08c379a000000000000000000000000000000000000000000000000000000000815260040161230490614396565b60405180910390fd5b80600560008573ffffffffffffffffffffffffffffffffffffffff1673ffffffffffffffffffffffffffffffffffffffff16815260200190815260200160002060008473ffffffffffffffffffffffffffffffffffffffff1673ffffffffffffffffffffffffffffffffffffffff16815260200190815260200160002060006101000a81548160ff0219169083151502179055508173ffffffffffffffffffffffffffffffffffffffff168373ffffffffffffffffffffffffffffffffffffffff167f17307eab39ab6107e8899845ad3d59bd9653f200f220920489ca2b5937696c31836040516123fe9190612e60565b60405180910390a3505050565b6124168484846117d5565b612422848484846126db565b612461576040517f08c379a000000000000000000000000000000000000000000000000000000000815260040161245890614428565b60405180910390fd5b50505050565b60606040518060400160405280601081526020017f7777772e747765657a6572732e636f6d00000000000000000000000000000000815250905090565b60007f80ac58cd000000000000000000000000000000000000000000000000000000007bffffffffffffffffffffffffffffffffffffffffffffffffffffffff1916827bffffffffffffffffffffffffffffffffffffffffffffffffffffffff1916148061256f57507f5b5e139f000000000000000000000000000000000000000000000000000000007bffffffffffffffffffffffffffffffffffffffffffffffffffffffff1916827bffffffffffffffffffffffffffffffffffffffffffffffffffffffff1916145b8061257f575061257e82612862565b5b9050919050565b6125908282611147565b61261f576125b58173ffffffffffffffffffffffffffffffffffffffff1660146128cc565b6125c38360001c60206128cc565b6040516020016125d49291906144e0565b6040516020818303038152906040526040517f08c379a00000000000000000000000000000000000000000000000000000000081526004016126169190612f14565b60405180910390fd5b5050565b61262b610f0c565b1561266b576040517f08c379a00000000000000000000000000000000000000000000000000000000081526004016126629061396d565b60405180910390fd5b612676838383612b08565b505050565b505050565b61268a8383612b0d565b61269760008484846126db565b6126d6576040517f08c379a00000000000000000000000000000000000000000000000000000000081526004016126cd90614428565b60405180910390fd5b505050565b60006126fc8473ffffffffffffffffffffffffffffffffffffffff16612ce6565b15612855578373ffffffffffffffffffffffffffffffffffffffff1663150b7a02612725611622565b8786866040518563ffffffff1660e01b8152600401612747949392919061456f565b6020604051808303816000875af192505050801561278357506040513d601f19601f8201168201806040525081019061278091906145d0565b60015b612805573d80600081146127b3576040519150601f19603f3d011682016040523d82523d6000602084013e6127b8565b606091505b5060008151036127fd576040517f08c379a00000000000000000000000000000000000000000000000000000000081526004016127f490614428565b60405180910390fd5b805181602001fd5b63150b7a0260e01b7bffffffffffffffffffffffffffffffffffffffffffffffffffffffff1916817bffffffffffffffffffffffffffffffffffffffffffffffffffffffff19161491505061285a565b600190505b949350505050565b60007f01ffc9a7000000000000000000000000000000000000000000000000000000007bffffffffffffffffffffffffffffffffffffffffffffffffffffffff1916827bffffffffffffffffffffffffffffffffffffffffffffffffffffffff1916149050919050565b6060600060028360026128df9190613ac0565b6128e99190613b1a565b67ffffffffffffffff8111156129025761290161306b565b5b6040519080825280601f01601f1916602001820160405280156129345781602001600182028036833780820191505090505b5090507f30000000000000000000000000000000000000000000000000000000000000008160008151811061296c5761296b61373c565b5b60200101907effffffffffffffffffffffffffffffffffffffffffffffffffffffffffffff1916908160001a9053507f7800000000000000000000000000000000000000000000000000000000000000816001815181106129d0576129cf61373c565b5b60200101907effffffffffffffffffffffffffffffffffffffffffffffffffffffffffffff1916908160001a90535060006001846002612a109190613ac0565b612a1a9190613b1a565b90505b6001811115612aba577f3031323334353637383961626364656600000000000000000000000000000000600f861660108110612a5c57612a5b61373c565b5b1a60f81b828281518110612a7357612a7261373c565b5b60200101907effffffffffffffffffffffffffffffffffffffffffffffffffffffffffffff1916908160001a905350600485901c945080612ab390614321565b9050612a1d565b5060008414612afe576040517f08c379a0000000000000000000000000000000000000000000000000000000008152600401612af590614649565b60405180910390fd5b8091505092915050565b505050565b600073ffffffffffffffffffffffffffffffffffffffff168273ffffffffffffffffffffffffffffffffffffffff1603612b7c576040517f08c379a0000000000000000000000000000000000000000000000000000000008152600401612b73906146b5565b60405180910390fd5b612b85816115b6565b15612bc5576040517f08c379a0000000000000000000000000000000000000000000000000000000008152600401612bbc90614721565b60405180910390fd5b612bd160008383612623565b6001600360008473ffffffffffffffffffffffffffffffffffffffff1673ffffffffffffffffffffffffffffffffffffffff1681526020019081526020016000206000828254612c219190613b1a565b92505081905550816002600083815260200190815260200160002060006101000a81548173ffffffffffffffffffffffffffffffffffffffff021916908373ffffffffffffffffffffffffffffffffffffffff160217905550808273ffffffffffffffffffffffffffffffffffffffff16600073ffffffffffffffffffffffffffffffffffffffff167fddf252ad1be2c89b69c2b068fc378daa952ba7f163c4a11628f55a4df523b3ef60405160405180910390a4612ce26000838361267b565b5050565b6000808273ffffffffffffffffffffffffffffffffffffffff163b119050919050565b828054612d1590613555565b90600052602060002090601f016020900481019282612d375760008555612d7e565b82601f10612d5057805160ff1916838001178555612d7e565b82800160010185558215612d7e579182015b82811115612d7d578251825591602001919060010190612d62565b5b509050612d8b9190612d8f565b5090565b5b80821115612da8576000816000905550600101612d90565b5090565b6000604051905090565b600080fd5b600080fd5b60007fffffffff0000000000000000000000000000000000000000000000000000000082169050919050565b612df581612dc0565b8114612e0057600080fd5b50565b600081359050612e1281612dec565b92915050565b600060208284031215612e2e57612e2d612db6565b5b6000612e3c84828501612e03565b91505092915050565b60008115159050919050565b612e5a81612e45565b82525050565b6000602082019050612e756000830184612e51565b92915050565b600081519050919050565b600082825260208201905092915050565b60005b83811015612eb5578082015181840152602081019050612e9a565b83811115612ec4576000848401525b50505050565b6000601f19601f8301169050919050565b6000612ee682612e7b565b612ef08185612e86565b9350612f00818560208601612e97565b612f0981612eca565b840191505092915050565b60006020820190508181036000830152612f2e8184612edb565b905092915050565b6000819050919050565b612f4981612f36565b8114612f5457600080fd5b50565b600081359050612f6681612f40565b92915050565b600060208284031215612f8257612f81612db6565b5b6000612f9084828501612f57565b91505092915050565b600073ffffffffffffffffffffffffffffffffffffffff82169050919050565b6000612fc482612f99565b9050919050565b612fd481612fb9565b82525050565b6000602082019050612fef6000830184612fcb565b92915050565b612ffe81612fb9565b811461300957600080fd5b50565b60008135905061301b81612ff5565b92915050565b6000806040838503121561303857613037612db6565b5b60006130468582860161300c565b925050602061305785828601612f57565b9150509250929050565b600080fd5b600080fd5b7f4e487b7100000000000000000000000000000000000000000000000000000000600052604160045260246000fd5b6130a382612eca565b810181811067ffffffffffffffff821117156130c2576130c161306b565b5b80604052505050565b60006130d5612dac565b90506130e1828261309a565b919050565b600067ffffffffffffffff8211156131015761310061306b565b5b61310a82612eca565b9050602081019050919050565b82818337600083830152505050565b6000613139613134846130e6565b6130cb565b90508281526020810184848401111561315557613154613066565b5b613160848285613117565b509392505050565b600082601f83011261317d5761317c613061565b5b813561318d848260208601613126565b91505092915050565b6000602082840312156131ac576131ab612db6565b5b600082013567ffffffffffffffff8111156131ca576131c9612dbb565b5b6131d684828501613168565b91505092915050565b6000806000606084860312156131f8576131f7612db6565b5b60006132068682870161300c565b93505060206132178682870161300c565b925050604061322886828701612f57565b9150509250925092565b6000819050919050565b61324581613232565b811461325057600080fd5b50565b6000813590506132628161323c565b92915050565b60006020828403121561327e5761327d612db6565b5b600061328c84828501613253565b91505092915050565b61329e81613232565b82525050565b60006020820190506132b96000830184613295565b92915050565b600080604083850312156132d6576132d5612db6565b5b60006132e485828601613253565b92505060206132f58582860161300c565b9150509250929050565b60006020828403121561331557613314612db6565b5b60006133238482850161300c565b91505092915050565b61333581612f36565b82525050565b6000602082019050613350600083018461332c565b92915050565b61335f81612e45565b811461336a57600080fd5b50565b60008135905061337c81613356565b92915050565b6000806040838503121561339957613398612db6565b5b60006133a78582860161300c565b92505060206133b88582860161336d565b9150509250929050565b600067ffffffffffffffff8211156133dd576133dc61306b565b5b6133e682612eca565b9050602081019050919050565b6000613406613401846133c2565b6130cb565b90508281526020810184848401111561342257613421613066565b5b61342d848285613117565b509392505050565b600082601f83011261344a57613449613061565b5b813561345a8482602086016133f3565b91505092915050565b6000806000806080858703121561347d5761347c612db6565b5b600061348b8782880161300c565b945050602061349c8782880161300c565b93505060406134ad87828801612f57565b925050606085013567ffffffffffffffff8111156134ce576134cd612dbb565b5b6134da87828801613435565b91505092959194509250565b600080604083850312156134fd576134fc612db6565b5b600061350b8582860161300c565b925050602061351c8582860161300c565b9150509250929050565b7f4e487b7100000000000000000000000000000000000000000000000000000000600052602260045260246000fd5b6000600282049050600182168061356d57607f821691505b6020821081036135805761357f613526565b5b50919050565b7f4552433732313a20617070726f76656420717565727920666f72206e6f6e657860008201527f697374656e7420746f6b656e0000000000000000000000000000000000000000602082015250565b60006135e2602c83612e86565b91506135ed82613586565b604082019050919050565b60006020820190508181036000830152613611816135d5565b9050919050565b7f4552433732313a20617070726f76616c20746f2063757272656e74206f776e6560008201527f7200000000000000000000000000000000000000000000000000000000000000602082015250565b6000613674602183612e86565b915061367f82613618565b604082019050919050565b600060208201905081810360008301526136a381613667565b9050919050565b7f4552433732313a20617070726f76652063616c6c6572206973206e6f74206f7760008201527f6e6572206e6f7220617070726f76656420666f7220616c6c0000000000000000602082015250565b6000613706603883612e86565b9150613711826136aa565b604082019050919050565b60006020820190508181036000830152613735816136f9565b9050919050565b7f4e487b7100000000000000000000000000000000000000000000000000000000600052603260045260246000fd5b7f4552433732313a207472616e736665722063616c6c6572206973206e6f74206f60008201527f776e6572206e6f7220617070726f766564000000000000000000000000000000602082015250565b60006137c7603183612e86565b91506137d28261376b565b604082019050919050565b600060208201905081810360008301526137f6816137ba565b9050919050565b7f416363657373436f6e74726f6c3a2063616e206f6e6c792072656e6f756e636560008201527f20726f6c657320666f722073656c660000000000000000000000000000000000602082015250565b6000613859602f83612e86565b9150613864826137fd565b604082019050919050565b600060208201905081810360008301526138888161384c565b9050919050565b7f4552433732314275726e61626c653a2063616c6c6572206973206e6f74206f7760008201527f6e6572206e6f7220617070726f76656400000000000000000000000000000000602082015250565b60006138eb603083612e86565b91506138f68261388f565b604082019050919050565b6000602082019050818103600083015261391a816138de565b9050919050565b7f5061757361626c653a2070617573656400000000000000000000000000000000600082015250565b6000613957601083612e86565b915061396282613921565b602082019050919050565b600060208201905081810360008301526139868161394a565b9050919050565b7f4e487b7100000000000000000000000000000000000000000000000000000000600052601160045260246000fd5b60006139c782612f36565b91506139d283612f36565b9250828210156139e5576139e461398d565b5b828203905092915050565b600081905092915050565b7f5032443a205075726368617365642070726f6365737365732073686f756c642060008201527f6265206c657373207468616e206f7220657175616c20746f2000000000000000602082015250565b6000613a576039836139f0565b9150613a62826139fb565b603982019050919050565b6000613a7882612e7b565b613a8281856139f0565b9350613a92818560208601612e97565b80840191505092915050565b6000613aa982613a4a565b9150613ab58284613a6d565b915081905092915050565b6000613acb82612f36565b9150613ad683612f36565b9250817fffffffffffffffffffffffffffffffffffffffffffffffffffffffffffffffff0483118215151615613b0f57613b0e61398d565b5b828202905092915050565b6000613b2582612f36565b9150613b3083612f36565b9250827fffffffffffffffffffffffffffffffffffffffffffffffffffffffffffffffff03821115613b6557613b6461398d565b5b828201905092915050565b7f5032443a2057726f6e67207061796d656e74202d207061796d656e742073686f60008201527f756c642062653a20000000000000000000000000000000000000000000000000602082015250565b6000613bcc6028836139f0565b9150613bd782613b70565b602882019050919050565b6000613bed82613bbf565b9150613bf98284613a6d565b915081905092915050565b7f4552433732313a206f776e657220717565727920666f72206e6f6e657869737460008201527f656e7420746f6b656e0000000000000000000000000000000000000000000000602082015250565b6000613c60602983612e86565b9150613c6b82613c04565b604082019050919050565b60006020820190508181036000830152613c8f81613c53565b9050919050565b7f4552433732313a2062616c616e636520717565727920666f7220746865207a6560008201527f726f206164647265737300000000000000000000000000000000000000000000602082015250565b6000613cf2602a83612e86565b9150613cfd82613c96565b604082019050919050565b60006020820190508181036000830152613d2181613ce5565b9050919050565b7f4552433732314d657461646174613a2055524920717565727920666f72206e6f60008201527f6e6578697374656e7420746f6b656e0000000000000000000000000000000000602082015250565b6000613d84602f83612e86565b9150613d8f82613d28565b604082019050919050565b60006020820190508181036000830152613db381613d77565b9050919050565b6000613dc68285613a6d565b9150613dd28284613a6d565b91508190509392505050565b6000613de982612f36565b91507fffffffffffffffffffffffffffffffffffffffffffffffffffffffffffffffff8203613e1b57613e1a61398d565b5b600182019050919050565b7f4552433732313a206f70657261746f7220717565727920666f72206e6f6e657860008201527f697374656e7420746f6b656e0000000000000000000000000000000000000000602082015250565b6000613e82602c83612e86565b9150613e8d82613e26565b604082019050919050565b60006020820190508181036000830152613eb181613e75565b9050919050565b7f4552433732313a207472616e736665722066726f6d20696e636f72726563742060008201527f6f776e6572000000000000000000000000000000000000000000000000000000602082015250565b6000613f14602583612e86565b9150613f1f82613eb8565b604082019050919050565b60006020820190508181036000830152613f4381613f07565b9050919050565b7f4552433732313a207472616e7366657220746f20746865207a65726f2061646460008201527f7265737300000000000000000000000000000000000000000000000000000000602082015250565b6000613fa6602483612e86565b9150613fb182613f4a565b604082019050919050565b60006020820190508181036000830152613fd581613f99565b9050919050565b7f5061757361626c653a206e6f7420706175736564000000000000000000000000600082015250565b6000614012601483612e86565b915061401d82613fdc565b602082019050919050565b6000602082019050818103600083015261404181614005565b9050919050565b7f5032443a20412073746167652073686f756c642062652061637469766520746f60008201527f20706572666f726d207468697320616374696f6e000000000000000000000000602082015250565b60006140a4603483612e86565b91506140af82614048565b604082019050919050565b600060208201905081810360008301526140d381614097565b9050919050565b7f5032443a205468652073746167652073686f756c642062652000000000000000815250565b7f20746f20706572666f726d207468697320616374696f6e000000000000000000815250565b6000614131826140da565b6019820191506141418284613a6d565b915061414c82614100565b60178201915081905092915050565b7f4e487b7100000000000000000000000000000000000000000000000000000000600052601260045260246000fd5b600061419582612f36565b91506141a083612f36565b9250826141b0576141af61415b565b5b828204905092915050565b60006141c682612f36565b91506141d183612f36565b9250826141e1576141e061415b565b5b828206905092915050565b7f4552433732313a2063616c6c6572206973206e6f7420746f6b656e206f776e6560008201527f72206e6f7220617070726f766564000000000000000000000000000000000000602082015250565b6000614248602e83612e86565b9150614253826141ec565b604082019050919050565b600060208201905081810360008301526142778161423b565b9050919050565b7f5032443a20546865206c6576656c206f6620746865206469616d6f6e6420736860008201527f6f756c6420626520000000000000000000000000000000000000000000000000602082015250565b60006142da6028836139f0565b91506142e58261427e565b602882019050919050565b60006142fb826142cd565b91506143078284613a6d565b915061431282614100565b60178201915081905092915050565b600061432c82612f36565b91506000820361433f5761433e61398d565b5b600182039050919050565b7f4552433732313a20617070726f766520746f2063616c6c657200000000000000600082015250565b6000614380601983612e86565b915061438b8261434a565b602082019050919050565b600060208201905081810360008301526143af81614373565b9050919050565b7f4552433732313a207472616e7366657220746f206e6f6e20455243373231526560008201527f63656976657220696d706c656d656e7465720000000000000000000000000000602082015250565b6000614412603283612e86565b915061441d826143b6565b604082019050919050565b6000602082019050818103600083015261444181614405565b9050919050565b7f416363657373436f6e74726f6c3a206163636f756e7420000000000000000000600082015250565b600061447e6017836139f0565b915061448982614448565b601782019050919050565b7f206973206d697373696e6720726f6c6520000000000000000000000000000000600082015250565b60006144ca6011836139f0565b91506144d582614494565b601182019050919050565b60006144eb82614471565b91506144f78285613a6d565b9150614502826144bd565b915061450e8284613a6d565b91508190509392505050565b600081519050919050565b600082825260208201905092915050565b60006145418261451a565b61454b8185614525565b935061455b818560208601612e97565b61456481612eca565b840191505092915050565b60006080820190506145846000830187612fcb565b6145916020830186612fcb565b61459e604083018561332c565b81810360608301526145b08184614536565b905095945050505050565b6000815190506145ca81612dec565b92915050565b6000602082840312156145e6576145e5612db6565b5b60006145f4848285016145bb565b91505092915050565b7f537472696e67733a20686578206c656e67746820696e73756666696369656e74600082015250565b6000614633602083612e86565b915061463e826145fd565b602082019050919050565b6000602082019050818103600083015261466281614626565b9050919050565b7f4552433732313a206d696e7420746f20746865207a65726f2061646472657373600082015250565b600061469f602083612e86565b91506146aa82614669565b602082019050919050565b600060208201905081810360008301526146ce81614692565b9050919050565b7f4552433732313a20746f6b656e20616c7265616479206d696e74656400000000600082015250565b600061470b601c83612e86565b9150614716826146d5565b602082019050919050565b6000602082019050818103600083015261473a816146fe565b905091905056fea2646970667358221220d95a3452cce326bb97e8a153226c1f354b0890cf8399959180b55f314cd6663564736f6c634300080e0033",
  "linkReferences": {},
  "deployedLinkReferences": {}
}