{
  "_format": "hh-sol-artifact-1",
  "contractName": "PhysicalToDigital",
  "sourceName": "contracts/PhysicalToDigital.sol",
  "abi": [
    {
      "inputs": [],
      "stateMutability": "nonpayable",
      "type": "constructor"
    },
    {
      "anonymous": false,
      "inputs": [
        {
          "indexed": true,
          "internalType": "address",
          "name": "owner",
          "type": "address"
        },
        {
          "indexed": true,
          "internalType": "address",
          "name": "approved",
          "type": "address"
        },
        {
          "indexed": true,
          "internalType": "uint256",
          "name": "tokenId",
          "type": "uint256"
        }
      ],
      "name": "Approval",
      "type": "event"
    },
    {
      "anonymous": false,
      "inputs": [
        {
          "indexed": true,
          "internalType": "address",
          "name": "owner",
          "type": "address"
        },
        {
          "indexed": true,
          "internalType": "address",
          "name": "operator",
          "type": "address"
        },
        {
          "indexed": false,
          "internalType": "bool",
          "name": "approved",
          "type": "bool"
        }
      ],
      "name": "ApprovalForAll",
      "type": "event"
    },
    {
      "anonymous": false,
      "inputs": [
        {
          "indexed": false,
          "internalType": "address",
          "name": "account",
          "type": "address"
        }
      ],
      "name": "Paused",
      "type": "event"
    },
    {
      "anonymous": false,
      "inputs": [
        {
          "indexed": true,
          "internalType": "bytes32",
          "name": "role",
          "type": "bytes32"
        },
        {
          "indexed": true,
          "internalType": "bytes32",
          "name": "previousAdminRole",
          "type": "bytes32"
        },
        {
          "indexed": true,
          "internalType": "bytes32",
          "name": "newAdminRole",
          "type": "bytes32"
        }
      ],
      "name": "RoleAdminChanged",
      "type": "event"
    },
    {
      "anonymous": false,
      "inputs": [
        {
          "indexed": true,
          "internalType": "bytes32",
          "name": "role",
          "type": "bytes32"
        },
        {
          "indexed": true,
          "internalType": "address",
          "name": "account",
          "type": "address"
        },
        {
          "indexed": true,
          "internalType": "address",
          "name": "sender",
          "type": "address"
        }
      ],
      "name": "RoleGranted",
      "type": "event"
    },
    {
      "anonymous": false,
      "inputs": [
        {
          "indexed": true,
          "internalType": "bytes32",
          "name": "role",
          "type": "bytes32"
        },
        {
          "indexed": true,
          "internalType": "address",
          "name": "account",
          "type": "address"
        },
        {
          "indexed": true,
          "internalType": "address",
          "name": "sender",
          "type": "address"
        }
      ],
      "name": "RoleRevoked",
      "type": "event"
    },
    {
      "anonymous": false,
      "inputs": [
        {
          "indexed": true,
          "internalType": "address",
          "name": "from",
          "type": "address"
        },
        {
          "indexed": true,
          "internalType": "address",
          "name": "to",
          "type": "address"
        },
        {
          "indexed": true,
          "internalType": "uint256",
          "name": "tokenId",
          "type": "uint256"
        }
      ],
      "name": "Transfer",
      "type": "event"
    },
    {
      "anonymous": false,
      "inputs": [
        {
          "indexed": false,
          "internalType": "address",
          "name": "account",
          "type": "address"
        }
      ],
      "name": "Unpaused",
      "type": "event"
    },
    {
      "inputs": [],
      "name": "DEFAULT_ADMIN_ROLE",
      "outputs": [
        {
          "internalType": "bytes32",
          "name": "",
          "type": "bytes32"
        }
      ],
      "stateMutability": "view",
      "type": "function"
    },
    {
      "inputs": [],
      "name": "MINING_PRICE",
      "outputs": [
        {
          "internalType": "uint256",
          "name": "",
          "type": "uint256"
        }
      ],
      "stateMutability": "view",
      "type": "function"
    },
    {
      "inputs": [],
      "name": "MINTER_ROLE",
      "outputs": [
        {
          "internalType": "bytes32",
          "name": "",
          "type": "bytes32"
        }
      ],
      "stateMutability": "view",
      "type": "function"
    },
    {
      "inputs": [],
      "name": "PAUSER_ROLE",
      "outputs": [
        {
          "internalType": "bytes32",
          "name": "",
          "type": "bytes32"
        }
      ],
      "stateMutability": "view",
      "type": "function"
    },
    {
      "inputs": [],
      "name": "PREPAID_PROCESSING_PRICE",
      "outputs": [
        {
          "internalType": "uint256",
          "name": "",
          "type": "uint256"
        }
      ],
      "stateMutability": "view",
      "type": "function"
    },
    {
      "inputs": [
        {
          "internalType": "address",
          "name": "to",
          "type": "address"
        },
        {
          "internalType": "uint256",
          "name": "tokenId",
          "type": "uint256"
        }
      ],
      "name": "approve",
      "outputs": [],
      "stateMutability": "nonpayable",
      "type": "function"
    },
    {
      "inputs": [
        {
          "internalType": "address",
          "name": "owner",
          "type": "address"
        }
      ],
      "name": "balanceOf",
      "outputs": [
        {
          "internalType": "uint256",
          "name": "",
          "type": "uint256"
        }
      ],
      "stateMutability": "view",
      "type": "function"
    },
    {
      "inputs": [
        {
          "internalType": "uint256",
          "name": "tokenId",
          "type": "uint256"
        }
      ],
      "name": "burn",
      "outputs": [],
      "stateMutability": "nonpayable",
      "type": "function"
    },
    {
      "inputs": [
        {
          "internalType": "uint256",
          "name": "tokenId",
          "type": "uint256"
        }
      ],
      "name": "clean",
      "outputs": [],
      "stateMutability": "payable",
      "type": "function"
    },
    {
      "inputs": [],
      "name": "completeCurrentStage",
      "outputs": [],
      "stateMutability": "nonpayable",
      "type": "function"
    },
    {
      "inputs": [
        {
          "internalType": "uint256",
          "name": "tokenId",
          "type": "uint256"
        }
      ],
      "name": "getApproved",
      "outputs": [
        {
          "internalType": "address",
          "name": "",
          "type": "address"
        }
      ],
      "stateMutability": "view",
      "type": "function"
    },
    {
      "inputs": [
        {
          "internalType": "bytes32",
          "name": "role",
          "type": "bytes32"
        }
      ],
      "name": "getRoleAdmin",
      "outputs": [
        {
          "internalType": "bytes32",
          "name": "",
          "type": "bytes32"
        }
      ],
      "stateMutability": "view",
      "type": "function"
    },
    {
      "inputs": [
        {
          "internalType": "bytes32",
          "name": "role",
          "type": "bytes32"
        },
        {
          "internalType": "address",
          "name": "account",
          "type": "address"
        }
      ],
      "name": "grantRole",
      "outputs": [],
      "stateMutability": "nonpayable",
      "type": "function"
    },
    {
      "inputs": [
        {
          "internalType": "bytes32",
          "name": "role",
          "type": "bytes32"
        },
        {
          "internalType": "address",
          "name": "account",
          "type": "address"
        }
      ],
      "name": "hasRole",
      "outputs": [
        {
          "internalType": "bool",
          "name": "",
          "type": "bool"
        }
      ],
      "stateMutability": "view",
      "type": "function"
    },
    {
      "inputs": [
        {
          "internalType": "address",
          "name": "owner",
          "type": "address"
        },
        {
          "internalType": "address",
          "name": "operator",
          "type": "address"
        }
      ],
      "name": "isApprovedForAll",
      "outputs": [
        {
          "internalType": "bool",
          "name": "",
          "type": "bool"
        }
      ],
      "stateMutability": "view",
      "type": "function"
    },
    {
      "inputs": [],
      "name": "isStageActive",
      "outputs": [
        {
          "internalType": "bool",
          "name": "",
          "type": "bool"
        }
      ],
      "stateMutability": "view",
      "type": "function"
    },
    {
      "inputs": [
        {
          "internalType": "uint256",
          "name": "processesPurchased",
          "type": "uint256"
        }
      ],
      "name": "mine",
      "outputs": [],
      "stateMutability": "payable",
      "type": "function"
    },
    {
      "inputs": [],
      "name": "name",
      "outputs": [
        {
          "internalType": "string",
          "name": "",
          "type": "string"
        }
      ],
      "stateMutability": "view",
      "type": "function"
    },
    {
      "inputs": [
        {
          "internalType": "uint256",
          "name": "tokenId",
          "type": "uint256"
        }
      ],
      "name": "ownerOf",
      "outputs": [
        {
          "internalType": "address",
          "name": "",
          "type": "address"
        }
      ],
      "stateMutability": "view",
      "type": "function"
    },
    {
      "inputs": [],
      "name": "pause",
      "outputs": [],
      "stateMutability": "nonpayable",
      "type": "function"
    },
    {
      "inputs": [],
      "name": "paused",
      "outputs": [
        {
          "internalType": "bool",
          "name": "",
          "type": "bool"
        }
      ],
      "stateMutability": "view",
      "type": "function"
    },
    {
      "inputs": [
        {
          "internalType": "uint256",
          "name": "tokenId",
          "type": "uint256"
        }
      ],
      "name": "polish",
      "outputs": [],
      "stateMutability": "payable",
      "type": "function"
    },
    {
      "inputs": [],
      "name": "processingPrice",
      "outputs": [
        {
          "internalType": "uint256",
          "name": "",
          "type": "uint256"
        }
      ],
      "stateMutability": "view",
      "type": "function"
    },
    {
      "inputs": [
        {
          "internalType": "bytes32",
          "name": "role",
          "type": "bytes32"
        },
        {
          "internalType": "address",
          "name": "account",
          "type": "address"
        }
      ],
      "name": "renounceRole",
      "outputs": [],
      "stateMutability": "nonpayable",
      "type": "function"
    },
    {
      "inputs": [
        {
          "internalType": "string",
          "name": "videoUrl",
          "type": "string"
        }
      ],
      "name": "revealStage",
      "outputs": [],
      "stateMutability": "nonpayable",
      "type": "function"
    },
    {
      "inputs": [
        {
          "internalType": "bytes32",
          "name": "role",
          "type": "bytes32"
        },
        {
          "internalType": "address",
          "name": "account",
          "type": "address"
        }
      ],
      "name": "revokeRole",
      "outputs": [],
      "stateMutability": "nonpayable",
      "type": "function"
    },
    {
      "inputs": [
        {
          "internalType": "address",
          "name": "to",
          "type": "address"
        }
      ],
      "name": "safeMint",
      "outputs": [],
      "stateMutability": "nonpayable",
      "type": "function"
    },
    {
      "inputs": [
        {
          "internalType": "address",
          "name": "from",
          "type": "address"
        },
        {
          "internalType": "address",
          "name": "to",
          "type": "address"
        },
        {
          "internalType": "uint256",
          "name": "tokenId",
          "type": "uint256"
        }
      ],
      "name": "safeTransferFrom",
      "outputs": [],
      "stateMutability": "nonpayable",
      "type": "function"
    },
    {
      "inputs": [
        {
          "internalType": "address",
          "name": "from",
          "type": "address"
        },
        {
          "internalType": "address",
          "name": "to",
          "type": "address"
        },
        {
          "internalType": "uint256",
          "name": "tokenId",
          "type": "uint256"
        },
        {
          "internalType": "bytes",
          "name": "_data",
          "type": "bytes"
        }
      ],
      "name": "safeTransferFrom",
      "outputs": [],
      "stateMutability": "nonpayable",
      "type": "function"
    },
    {
      "inputs": [
        {
          "internalType": "address",
          "name": "operator",
          "type": "address"
        },
        {
          "internalType": "bool",
          "name": "approved",
          "type": "bool"
        }
      ],
      "name": "setApprovalForAll",
      "outputs": [],
      "stateMutability": "nonpayable",
      "type": "function"
    },
    {
      "inputs": [
        {
          "internalType": "uint256",
          "name": "price",
          "type": "uint256"
        }
      ],
      "name": "setProcessingPrice",
      "outputs": [],
      "stateMutability": "nonpayable",
      "type": "function"
    },
    {
      "inputs": [],
      "name": "stage",
      "outputs": [
        {
          "internalType": "enum PhysicalToDigital.Stage",
          "name": "",
          "type": "uint8"
        }
      ],
      "stateMutability": "view",
      "type": "function"
    },
    {
      "inputs": [
        {
          "internalType": "bytes4",
          "name": "interfaceId",
          "type": "bytes4"
        }
      ],
      "name": "supportsInterface",
      "outputs": [
        {
          "internalType": "bool",
          "name": "",
          "type": "bool"
        }
      ],
      "stateMutability": "view",
      "type": "function"
    },
    {
      "inputs": [],
      "name": "symbol",
      "outputs": [
        {
          "internalType": "string",
          "name": "",
          "type": "string"
        }
      ],
      "stateMutability": "view",
      "type": "function"
    },
    {
      "inputs": [
        {
          "internalType": "uint256",
          "name": "tokenId",
          "type": "uint256"
        }
      ],
      "name": "tokenURI",
      "outputs": [
        {
          "internalType": "string",
          "name": "",
          "type": "string"
        }
      ],
      "stateMutability": "view",
      "type": "function"
    },
    {
      "inputs": [
        {
          "internalType": "address",
          "name": "from",
          "type": "address"
        },
        {
          "internalType": "address",
          "name": "to",
          "type": "address"
        },
        {
          "internalType": "uint256",
          "name": "tokenId",
          "type": "uint256"
        }
      ],
      "name": "transferFrom",
      "outputs": [],
      "stateMutability": "nonpayable",
      "type": "function"
    },
    {
      "inputs": [],
      "name": "unpause",
      "outputs": [],
      "stateMutability": "nonpayable",
      "type": "function"
    }
  ],
  "bytecode": "0x60806040523480156200001157600080fd5b506040518060400160405280601181526020017f506879736963616c546f4469676974616c0000000000000000000000000000008152506040518060400160405280600381526020017f5054440000000000000000000000000000000000000000000000000000000000815250816000908051906020019062000096929190620003e7565b508060019080519060200190620000af929190620003e7565b5050506000600660006101000a81548160ff021916908315150217905550620000e26000801b33620001b360201b60201c565b620001147f65d7a28e3265b37a6474929f336521b332c1681b933f6cb9f3376673440d862a33620001b360201b60201c565b620001467f9f2df0fed2c77648de5860a4cc508cd0818c85b8b8a1ab4ceeef8d981c8956a633620001b360201b60201c565b662386f26fc10000600a819055506001600960006101000a81548160ff021916908360048111156200017d576200017c62000497565b5b02179055506000600b60006101000a81548160ff021916908315150217905550620001ad620002a560201b60201c565b6200060f565b620001c582826200035d60201b60201c565b620002a15760016007600084815260200190815260200160002060000160008373ffffffffffffffffffffffffffffffffffffffff1673ffffffffffffffffffffffffffffffffffffffff16815260200190815260200160002060006101000a81548160ff02191690831515021790555062000246620003c860201b60201c565b73ffffffffffffffffffffffffffffffffffffffff168173ffffffffffffffffffffffffffffffffffffffff16837f2f8788117e7eff1d82e926ec794901d17c78024a50270940304540a733656f0d60405160405180910390a45b5050565b620002b5620003d060201b60201c565b15620002f8576040517f08c379a0000000000000000000000000000000000000000000000000000000008152600401620002ef9062000527565b60405180910390fd5b6001600660006101000a81548160ff0219169083151502179055507f62e78cea01bee320cd4e420270b5ea74000d11b0c9f74754ebdbfc544b05a25862000344620003c860201b60201c565b6040516200035391906200058e565b60405180910390a1565b60006007600084815260200190815260200160002060000160008373ffffffffffffffffffffffffffffffffffffffff1673ffffffffffffffffffffffffffffffffffffffff16815260200190815260200160002060009054906101000a900460ff16905092915050565b600033905090565b6000600660009054906101000a900460ff16905090565b828054620003f590620005da565b90600052602060002090601f01602090048101928262000419576000855562000465565b82601f106200043457805160ff191683800117855562000465565b8280016001018555821562000465579182015b828111156200046457825182559160200191906001019062000447565b5b50905062000474919062000478565b5090565b5b808211156200049357600081600090555060010162000479565b5090565b7f4e487b7100000000000000000000000000000000000000000000000000000000600052602160045260246000fd5b600082825260208201905092915050565b7f5061757361626c653a2070617573656400000000000000000000000000000000600082015250565b60006200050f601083620004c6565b91506200051c82620004d7565b602082019050919050565b60006020820190508181036000830152620005428162000500565b9050919050565b600073ffffffffffffffffffffffffffffffffffffffff82169050919050565b6000620005768262000549565b9050919050565b620005888162000569565b82525050565b6000602082019050620005a560008301846200057d565b92915050565b7f4e487b7100000000000000000000000000000000000000000000000000000000600052602260045260246000fd5b60006002820490506001821680620005f357607f821691505b602082108103620006095762000608620005ab565b5b50919050565b614cdc806200061f6000396000f3fe60806040526004361061021a5760003560e01c80636352211e11610123578063abdfe275116100ab578063cc1169791161006f578063cc1169791461077e578063d5391393146107a9578063d547741f146107d4578063e63ab1e9146107fd578063e985e9c5146108285761021a565b8063abdfe275146106a8578063b88d4fde146106d1578063bf72b63f146106fa578063c040e6b814610716578063c87b56dd146107415761021a565b80638c8c35d1116100f25780638c8c35d1146105c157806391d14854146105ec57806395d89b4114610629578063a217fddf14610654578063a22cb4651461067f5761021a565b80636352211e14610514578063674ef0fa1461055157806370a082311461056d5780638456cb59146105aa5761021a565b806336568abe116101a657806342966c681161017557806342966c681461044e5780634d474898146104775780634e490b4a146104935780635c975abb146104be5780635ed6ac4f146104e95761021a565b806336568abe146103bc5780633f4ba83a146103e557806340d097c3146103fc57806342842e0e146104255761021a565b80630a49008d116101ed5780630a49008d146102ed57806315afd8f81461031657806323b872dd1461032d578063248a9ca3146103565780632f2ff15d146103935761021a565b806301ffc9a71461021f57806306fdde031461025c578063081812fc14610287578063095ea7b3146102c4575b600080fd5b34801561022b57600080fd5b50610246600480360381019061024191906130fb565b610865565b6040516102539190613143565b60405180910390f35b34801561026857600080fd5b50610271610877565b60405161027e91906131f7565b60405180910390f35b34801561029357600080fd5b506102ae60048036038101906102a9919061324f565b610909565b6040516102bb91906132bd565b60405180910390f35b3480156102d057600080fd5b506102eb60048036038101906102e69190613304565b61098e565b005b3480156102f957600080fd5b50610314600480360381019061030f9190613479565b610aa5565b005b34801561032257600080fd5b5061032b610ac7565b005b34801561033957600080fd5b50610354600480360381019061034f91906134c2565b610ae7565b005b34801561036257600080fd5b5061037d6004803603810190610378919061354b565b610b47565b60405161038a9190613587565b60405180910390f35b34801561039f57600080fd5b506103ba60048036038101906103b591906135a2565b610b67565b005b3480156103c857600080fd5b506103e360048036038101906103de91906135a2565b610b88565b005b3480156103f157600080fd5b506103fa610c0b565b005b34801561040857600080fd5b50610423600480360381019061041e91906135e2565b610c40565b005b34801561043157600080fd5b5061044c600480360381019061044791906134c2565b610c91565b005b34801561045a57600080fd5b506104756004803603810190610470919061324f565b610cb1565b005b610491600480360381019061048c919061324f565b610d0d565b005b34801561049f57600080fd5b506104a8610ede565b6040516104b5919061361e565b60405180910390f35b3480156104ca57600080fd5b506104d3610ee4565b6040516104e09190613143565b60405180910390f35b3480156104f557600080fd5b506104fe610efb565b60405161050b9190613143565b60405180910390f35b34801561052057600080fd5b5061053b6004803603810190610536919061324f565b610f0e565b60405161054891906132bd565b60405180910390f35b61056b6004803603810190610566919061324f565b610fbf565b005b34801561057957600080fd5b50610594600480360381019061058f91906135e2565b610fdf565b6040516105a1919061361e565b60405180910390f35b3480156105b657600080fd5b506105bf611096565b005b3480156105cd57600080fd5b506105d66110cb565b6040516105e3919061361e565b60405180910390f35b3480156105f857600080fd5b50610613600480360381019061060e91906135a2565b6110d6565b6040516106209190613143565b60405180910390f35b34801561063557600080fd5b5061063e611141565b60405161064b91906131f7565b60405180910390f35b34801561066057600080fd5b506106696111d3565b6040516106769190613587565b60405180910390f35b34801561068b57600080fd5b506106a660048036038101906106a19190613665565b6111da565b005b3480156106b457600080fd5b506106cf60048036038101906106ca919061324f565b6111f0565b005b3480156106dd57600080fd5b506106f860048036038101906106f39190613746565b611208565b005b610714600480360381019061070f919061324f565b61126a565b005b34801561072257600080fd5b5061072b61128a565b6040516107389190613840565b60405180910390f35b34801561074d57600080fd5b506107686004803603810190610763919061324f565b61129d565b60405161077591906131f7565b60405180910390f35b34801561078a57600080fd5b506107936112fb565b6040516107a0919061361e565b60405180910390f35b3480156107b557600080fd5b506107be611306565b6040516107cb9190613587565b60405180910390f35b3480156107e057600080fd5b506107fb60048036038101906107f691906135a2565b61132a565b005b34801561080957600080fd5b5061081261134b565b60405161081f9190613587565b60405180910390f35b34801561083457600080fd5b5061084f600480360381019061084a919061385b565b61136f565b60405161085c9190613143565b60405180910390f35b600061087082611403565b9050919050565b606060008054610886906138ca565b80601f01602080910402602001604051908101604052809291908181526020018280546108b2906138ca565b80156108ff5780601f106108d4576101008083540402835291602001916108ff565b820191906000526020600020905b8154815290600101906020018083116108e257829003601f168201915b5050505050905090565b60006109148261147d565b610953576040517f08c379a000000000000000000000000000000000000000000000000000000000815260040161094a9061396d565b60405180910390fd5b6004600083815260200190815260200160002060009054906101000a900473ffffffffffffffffffffffffffffffffffffffff169050919050565b600061099982610f0e565b90508073ffffffffffffffffffffffffffffffffffffffff168373ffffffffffffffffffffffffffffffffffffffff1603610a09576040517f08c379a0000000000000000000000000000000000000000000000000000000008152600401610a00906139ff565b60405180910390fd5b8073ffffffffffffffffffffffffffffffffffffffff16610a286114e9565b73ffffffffffffffffffffffffffffffffffffffff161480610a575750610a5681610a516114e9565b61136f565b5b610a96576040517f08c379a0000000000000000000000000000000000000000000000000000000008152600401610a8d90613a91565b60405180910390fd5b610aa083836114f1565b505050565b6000801b610ab2816115aa565b610aba6115be565b610ac3826115e9565b5050565b6000801b610ad4816115aa565b610adc611645565b610ae4611670565b50565b610af8610af26114e9565b826116c1565b610b37576040517f08c379a0000000000000000000000000000000000000000000000000000000008152600401610b2e90613b23565b60405180910390fd5b610b4283838361179f565b505050565b600060076000838152602001908152602001600020600101549050919050565b610b7082610b47565b610b79816115aa565b610b838383611a05565b505050565b610b906114e9565b73ffffffffffffffffffffffffffffffffffffffff168173ffffffffffffffffffffffffffffffffffffffff1614610bfd576040517f08c379a0000000000000000000000000000000000000000000000000000000008152600401610bf490613bb5565b60405180910390fd5b610c078282611ae6565b5050565b7f65d7a28e3265b37a6474929f336521b332c1681b933f6cb9f3376673440d862a610c35816115aa565b610c3d611bc8565b50565b7f9f2df0fed2c77648de5860a4cc508cd0818c85b8b8a1ab4ceeef8d981c8956a6610c6a816115aa565b6000610c766008611c6a565b9050610c826008611c78565b610c8c8382611c8e565b505050565b610cac83838360405180602001604052806000815250611208565b505050565b610cc2610cbc6114e9565b826116c1565b610d01576040517f08c379a0000000000000000000000000000000000000000000000000000000008152600401610cf890613c47565b60405180910390fd5b610d0a81611cac565b50565b6001610d17611dc9565b610d2081611e1a565b60016004610d2e9190613c96565b821115610d4760016004610d429190613c96565b611ecf565b604051602001610d579190613d78565b60405160208183030381529060405290610da7576040517f08c379a0000000000000000000000000000000000000000000000000000000008152600401610d9e91906131f7565b60405180910390fd5b506000662386f26fc1000083610dbd9190613d9a565b662386f26fc10000610dcf9190613df4565b9050803414610ddd82611ecf565b604051602001610ded9190613ebc565b60405160208183030381529060405290610e3d576040517f08c379a0000000000000000000000000000000000000000000000000000000008152600401610e3491906131f7565b60405180910390fd5b506000610e4a6008611c6a565b9050610e566008611c78565b610e603382611c8e565b604051806040016040528060016004811115610e7f57610e7e6137c9565b5b8152602001858152506011600083815260200190815260200160002060008201518160000160006101000a81548160ff02191690836004811115610ec657610ec56137c9565b5b02179055506020820151816001015590505050505050565b600a5481565b6000600660009054906101000a900460ff16905090565b600b60009054906101000a900460ff1681565b6000806002600084815260200190815260200160002060009054906101000a900473ffffffffffffffffffffffffffffffffffffffff169050600073ffffffffffffffffffffffffffffffffffffffff168173ffffffffffffffffffffffffffffffffffffffff1603610fb6576040517f08c379a0000000000000000000000000000000000000000000000000000000008152600401610fad90613f50565b60405180910390fd5b80915050919050565b6003610fc9611dc9565b610fd281611e1a565b610fdb8261202f565b5050565b60008073ffffffffffffffffffffffffffffffffffffffff168273ffffffffffffffffffffffffffffffffffffffff160361104f576040517f08c379a000000000000000000000000000000000000000000000000000000000815260040161104690613fe2565b60405180910390fd5b600360008373ffffffffffffffffffffffffffffffffffffffff1673ffffffffffffffffffffffffffffffffffffffff168152602001908152602001600020549050919050565b7f65d7a28e3265b37a6474929f336521b332c1681b933f6cb9f3376673440d862a6110c0816115aa565b6110c86122a3565b50565b662386f26fc1000081565b60006007600084815260200190815260200160002060000160008373ffffffffffffffffffffffffffffffffffffffff1673ffffffffffffffffffffffffffffffffffffffff16815260200190815260200160002060009054906101000a900460ff16905092915050565b606060018054611150906138ca565b80601f016020809104026020016040519081016040528092919081815260200182805461117c906138ca565b80156111c95780601f1061119e576101008083540402835291602001916111c9565b820191906000526020600020905b8154815290600101906020018083116111ac57829003601f168201915b5050505050905090565b6000801b81565b6111ec6111e56114e9565b8383612346565b5050565b6000801b6111fd816115aa565b81600a819055505050565b6112196112136114e9565b836116c1565b611258576040517f08c379a000000000000000000000000000000000000000000000000000000000815260040161124f90613b23565b60405180910390fd5b611264848484846124b2565b50505050565b6002611274611dc9565b61127d81611e1a565b6112868261202f565b5050565b600960009054906101000a900460ff1681565b606060006112d16112ad8461250e565b6040516020016112bd91906141cd565b6040516020818303038152906040526125ea565b9050806040516020016112e49190614246565b604051602081830303815290604052915050919050565b662386f26fc1000081565b7f9f2df0fed2c77648de5860a4cc508cd0818c85b8b8a1ab4ceeef8d981c8956a681565b61133382610b47565b61133c816115aa565b6113468383611ae6565b505050565b7f65d7a28e3265b37a6474929f336521b332c1681b933f6cb9f3376673440d862a81565b6000600560008473ffffffffffffffffffffffffffffffffffffffff1673ffffffffffffffffffffffffffffffffffffffff16815260200190815260200160002060008373ffffffffffffffffffffffffffffffffffffffff1673ffffffffffffffffffffffffffffffffffffffff16815260200190815260200160002060009054906101000a900460ff16905092915050565b60007f7965db0b000000000000000000000000000000000000000000000000000000007bffffffffffffffffffffffffffffffffffffffffffffffffffffffff1916827bffffffffffffffffffffffffffffffffffffffffffffffffffffffff1916148061147657506114758261274d565b5b9050919050565b60008073ffffffffffffffffffffffffffffffffffffffff166002600084815260200190815260200160002060009054906101000a900473ffffffffffffffffffffffffffffffffffffffff1673ffffffffffffffffffffffffffffffffffffffff1614159050919050565b600033905090565b816004600083815260200190815260200160002060006101000a81548173ffffffffffffffffffffffffffffffffffffffff021916908373ffffffffffffffffffffffffffffffffffffffff160217905550808273ffffffffffffffffffffffffffffffffffffffff1661156483610f0e565b73ffffffffffffffffffffffffffffffffffffffff167f8c5be1e5ebec7d5bd14f71427d1e84f3dd0314c0f7b2291e5b200ac8c7c3b92560405160405180910390a45050565b6115bb816115b66114e9565b61282f565b50565b6000801b6115cb816115aa565b6001600b60006101000a81548160ff02191690831515021790555050565b6000801b6115f6816115aa565b81600c600960009054906101000a900460ff16600481111561161b5761161a6137c9565b5b6005811061162c5761162b614268565b5b019080519060200190611640929190612fec565b505050565b6000801b611652816115aa565b6000600b60006101000a81548160ff02191690831515021790555050565b6000801b61167d816115aa565b611695600960009054906101000a900460ff166128cc565b600960006101000a81548160ff021916908360048111156116b9576116b86137c9565b5b021790555050565b60006116cc8261147d565b61170b576040517f08c379a000000000000000000000000000000000000000000000000000000000815260040161170290614309565b60405180910390fd5b600061171683610f0e565b90508073ffffffffffffffffffffffffffffffffffffffff168473ffffffffffffffffffffffffffffffffffffffff1614806117585750611757818561136f565b5b8061179657508373ffffffffffffffffffffffffffffffffffffffff1661177e84610909565b73ffffffffffffffffffffffffffffffffffffffff16145b91505092915050565b8273ffffffffffffffffffffffffffffffffffffffff166117bf82610f0e565b73ffffffffffffffffffffffffffffffffffffffff1614611815576040517f08c379a000000000000000000000000000000000000000000000000000000000815260040161180c9061439b565b60405180910390fd5b600073ffffffffffffffffffffffffffffffffffffffff168273ffffffffffffffffffffffffffffffffffffffff1603611884576040517f08c379a000000000000000000000000000000000000000000000000000000000815260040161187b9061442d565b60405180910390fd5b61188f838383612906565b61189a6000826114f1565b6001600360008573ffffffffffffffffffffffffffffffffffffffff1673ffffffffffffffffffffffffffffffffffffffff16815260200190815260200160002060008282546118ea9190613c96565b925050819055506001600360008473ffffffffffffffffffffffffffffffffffffffff1673ffffffffffffffffffffffffffffffffffffffff16815260200190815260200160002060008282546119419190613df4565b92505081905550816002600083815260200190815260200160002060006101000a81548173ffffffffffffffffffffffffffffffffffffffff021916908373ffffffffffffffffffffffffffffffffffffffff160217905550808273ffffffffffffffffffffffffffffffffffffffff168473ffffffffffffffffffffffffffffffffffffffff167fddf252ad1be2c89b69c2b068fc378daa952ba7f163c4a11628f55a4df523b3ef60405160405180910390a4611a0083838361295e565b505050565b611a0f82826110d6565b611ae25760016007600084815260200190815260200160002060000160008373ffffffffffffffffffffffffffffffffffffffff1673ffffffffffffffffffffffffffffffffffffffff16815260200190815260200160002060006101000a81548160ff021916908315150217905550611a876114e9565b73ffffffffffffffffffffffffffffffffffffffff168173ffffffffffffffffffffffffffffffffffffffff16837f2f8788117e7eff1d82e926ec794901d17c78024a50270940304540a733656f0d60405160405180910390a45b5050565b611af082826110d6565b15611bc45760006007600084815260200190815260200160002060000160008373ffffffffffffffffffffffffffffffffffffffff1673ffffffffffffffffffffffffffffffffffffffff16815260200190815260200160002060006101000a81548160ff021916908315150217905550611b696114e9565b73ffffffffffffffffffffffffffffffffffffffff168173ffffffffffffffffffffffffffffffffffffffff16837ff6391f5c32d9c69d2a47ea670b442974b53935d1edc7fd64eb21e047a839171b60405160405180910390a45b5050565b611bd0610ee4565b611c0f576040517f08c379a0000000000000000000000000000000000000000000000000000000008152600401611c0690614499565b60405180910390fd5b6000600660006101000a81548160ff0219169083151502179055507f5db9ee0a495bf2e6ff9c91a7834c1ba4fdd244a5e8aa4e537bd38aeae4b073aa611c536114e9565b604051611c6091906132bd565b60405180910390a1565b600081600001549050919050565b6001816000016000828254019250508190555050565b611ca8828260405180602001604052806000815250612963565b5050565b6000611cb782610f0e565b9050611cc581600084612906565b611cd06000836114f1565b6001600360008373ffffffffffffffffffffffffffffffffffffffff1673ffffffffffffffffffffffffffffffffffffffff1681526020019081526020016000206000828254611d209190613c96565b925050819055506002600083815260200190815260200160002060006101000a81549073ffffffffffffffffffffffffffffffffffffffff021916905581600073ffffffffffffffffffffffffffffffffffffffff168273ffffffffffffffffffffffffffffffffffffffff167fddf252ad1be2c89b69c2b068fc378daa952ba7f163c4a11628f55a4df523b3ef60405160405180910390a4611dc58160008461295e565b5050565b600b60009054906101000a900460ff16611e18576040517f08c379a0000000000000000000000000000000000000000000000000000000008152600401611e0f9061452b565b60405180910390fd5b565b806004811115611e2d57611e2c6137c9565b5b600960009054906101000a900460ff166004811115611e4f57611e4e6137c9565b5b14611e6b826004811115611e6657611e656137c9565b5b611ecf565b604051602001611e7b9190614597565b60405160208183030381529060405290611ecb576040517f08c379a0000000000000000000000000000000000000000000000000000000008152600401611ec291906131f7565b60405180910390fd5b5050565b606060008203611f16576040518060400160405280600181526020017f3000000000000000000000000000000000000000000000000000000000000000815250905061202a565b600082905060005b60008214611f48578080611f31906145cc565b915050600a82611f419190614643565b9150611f1e565b60008167ffffffffffffffff811115611f6457611f6361334e565b5b6040519080825280601f01601f191660200182016040528015611f965781602001600182028036833780820191505090505b5090505b6000851461202357600182611faf9190613c96565b9150600a85611fbe9190614674565b6030611fca9190613df4565b60f81b818381518110611fe057611fdf614268565b5b60200101907effffffffffffffffffffffffffffffffffffffffffffffffffffffffffffff1916908160001a905350600a8561201c9190614643565b9450611f9a565b8093505050505b919050565b61204061203a6114e9565b826116c1565b61207f576040517f08c379a000000000000000000000000000000000000000000000000000000000815260040161207690614717565b60405180910390fd5b6001600960009054906101000a900460ff1660048111156120a3576120a26137c9565b5b6120ad9190613c96565b6011600083815260200190815260200160002060000160009054906101000a900460ff1660048111156120e3576120e26137c9565b5b1461211a6001600960009054906101000a900460ff16600481111561210b5761210a6137c9565b5b6121159190613c96565b611ecf565b60405160200161212a91906147a9565b6040516020818303038152906040529061217a576040517f08c379a000000000000000000000000000000000000000000000000000000000815260040161217191906131f7565b60405180910390fd5b50600060116000838152602001908152602001600020600101540361220b57600a5434146121a9600a54611ecf565b6040516020016121b99190613ebc565b60405160208183030381529060405290612209576040517f08c379a000000000000000000000000000000000000000000000000000000000815260040161220091906131f7565b60405180910390fd5b505b6122376011600083815260200190815260200160002060000160009054906101000a900460ff166128cc565b6011600083815260200190815260200160002060000160006101000a81548160ff0219169083600481111561226f5761226e6137c9565b5b021790555060116000828152602001908152602001600020600101600081548092919061229b906147da565b919050555050565b6122ab610ee4565b156122eb576040517f08c379a00000000000000000000000000000000000000000000000000000000081526004016122e29061484f565b60405180910390fd5b6001600660006101000a81548160ff0219169083151502179055507f62e78cea01bee320cd4e420270b5ea74000d11b0c9f74754ebdbfc544b05a25861232f6114e9565b60405161233c91906132bd565b60405180910390a1565b8173ffffffffffffffffffffffffffffffffffffffff168373ffffffffffffffffffffffffffffffffffffffff16036123b4576040517f08c379a00000000000000000000000000000000000000000000000000000000081526004016123ab906148bb565b60405180910390fd5b80600560008573ffffffffffffffffffffffffffffffffffffffff1673ffffffffffffffffffffffffffffffffffffffff16815260200190815260200160002060008473ffffffffffffffffffffffffffffffffffffffff1673ffffffffffffffffffffffffffffffffffffffff16815260200190815260200160002060006101000a81548160ff0219169083151502179055508173ffffffffffffffffffffffffffffffffffffffff168373ffffffffffffffffffffffffffffffffffffffff167f17307eab39ab6107e8899845ad3d59bd9653f200f220920489ca2b5937696c31836040516124a59190613143565b60405180910390a3505050565b6124bd84848461179f565b6124c9848484846129be565b612508576040517f08c379a00000000000000000000000000000000000000000000000000000000081526004016124ff9061494d565b60405180910390fd5b50505050565b6060600c6011600084815260200190815260200160002060000160009054906101000a900460ff166004811115612548576125476137c9565b5b6005811061255957612558614268565b5b018054612565906138ca565b80601f0160208091040260200160405190810160405280929190818152602001828054612591906138ca565b80156125de5780601f106125b3576101008083540402835291602001916125de565b820191906000526020600020905b8154815290600101906020018083116125c157829003601f168201915b50505050509050919050565b6060600082510361260c57604051806020016040528060008152509050612748565b6000604051806060016040528060408152602001614c67604091399050600060036002855161263b9190613df4565b6126459190614643565b60046126519190613d9a565b67ffffffffffffffff81111561266a5761266961334e565b5b6040519080825280601f01601f19166020018201604052801561269c5781602001600182028036833780820191505090505b509050600182016020820185865187015b80821015612708576003820191508151603f8160121c168501518453600184019350603f81600c1c168501518453600184019350603f8160061c168501518453600184019350603f81168501518453600184019350506126ad565b505060038651066001811461272457600281146127375761273f565b603d6001830353603d600283035361273f565b603d60018303535b50505080925050505b919050565b60007f80ac58cd000000000000000000000000000000000000000000000000000000007bffffffffffffffffffffffffffffffffffffffffffffffffffffffff1916827bffffffffffffffffffffffffffffffffffffffffffffffffffffffff1916148061281857507f5b5e139f000000000000000000000000000000000000000000000000000000007bffffffffffffffffffffffffffffffffffffffffffffffffffffffff1916827bffffffffffffffffffffffffffffffffffffffffffffffffffffffff1916145b80612828575061282782612b45565b5b9050919050565b61283982826110d6565b6128c85761285e8173ffffffffffffffffffffffffffffffffffffffff166014612baf565b61286c8360001c6020612baf565b60405160200161287d929190614a05565b6040516020818303038152906040526040517f08c379a00000000000000000000000000000000000000000000000000000000081526004016128bf91906131f7565b60405180910390fd5b5050565b600060018260048111156128e3576128e26137c9565b5b6128ed9190613df4565b60048111156128ff576128fe6137c9565b5b9050919050565b61290e610ee4565b1561294e576040517f08c379a00000000000000000000000000000000000000000000000000000000081526004016129459061484f565b60405180910390fd5b612959838383612deb565b505050565b505050565b61296d8383612df0565b61297a60008484846129be565b6129b9576040517f08c379a00000000000000000000000000000000000000000000000000000000081526004016129b09061494d565b60405180910390fd5b505050565b60006129df8473ffffffffffffffffffffffffffffffffffffffff16612fc9565b15612b38578373ffffffffffffffffffffffffffffffffffffffff1663150b7a02612a086114e9565b8786866040518563ffffffff1660e01b8152600401612a2a9493929190614a94565b6020604051808303816000875af1925050508015612a6657506040513d601f19601f82011682018060405250810190612a639190614af5565b60015b612ae8573d8060008114612a96576040519150601f19603f3d011682016040523d82523d6000602084013e612a9b565b606091505b506000815103612ae0576040517f08c379a0000000000000000000000000000000000000000000000000000000008152600401612ad79061494d565b60405180910390fd5b805181602001fd5b63150b7a0260e01b7bffffffffffffffffffffffffffffffffffffffffffffffffffffffff1916817bffffffffffffffffffffffffffffffffffffffffffffffffffffffff191614915050612b3d565b600190505b949350505050565b60007f01ffc9a7000000000000000000000000000000000000000000000000000000007bffffffffffffffffffffffffffffffffffffffffffffffffffffffff1916827bffffffffffffffffffffffffffffffffffffffffffffffffffffffff1916149050919050565b606060006002836002612bc29190613d9a565b612bcc9190613df4565b67ffffffffffffffff811115612be557612be461334e565b5b6040519080825280601f01601f191660200182016040528015612c175781602001600182028036833780820191505090505b5090507f300000000000000000000000000000000000000000000000000000000000000081600081518110612c4f57612c4e614268565b5b60200101907effffffffffffffffffffffffffffffffffffffffffffffffffffffffffffff1916908160001a9053507f780000000000000000000000000000000000000000000000000000000000000081600181518110612cb357612cb2614268565b5b60200101907effffffffffffffffffffffffffffffffffffffffffffffffffffffffffffff1916908160001a90535060006001846002612cf39190613d9a565b612cfd9190613df4565b90505b6001811115612d9d577f3031323334353637383961626364656600000000000000000000000000000000600f861660108110612d3f57612d3e614268565b5b1a60f81b828281518110612d5657612d55614268565b5b60200101907effffffffffffffffffffffffffffffffffffffffffffffffffffffffffffff1916908160001a905350600485901c945080612d96906147da565b9050612d00565b5060008414612de1576040517f08c379a0000000000000000000000000000000000000000000000000000000008152600401612dd890614b6e565b60405180910390fd5b8091505092915050565b505050565b600073ffffffffffffffffffffffffffffffffffffffff168273ffffffffffffffffffffffffffffffffffffffff1603612e5f576040517f08c379a0000000000000000000000000000000000000000000000000000000008152600401612e5690614bda565b60405180910390fd5b612e688161147d565b15612ea8576040517f08c379a0000000000000000000000000000000000000000000000000000000008152600401612e9f90614c46565b60405180910390fd5b612eb460008383612906565b6001600360008473ffffffffffffffffffffffffffffffffffffffff1673ffffffffffffffffffffffffffffffffffffffff1681526020019081526020016000206000828254612f049190613df4565b92505081905550816002600083815260200190815260200160002060006101000a81548173ffffffffffffffffffffffffffffffffffffffff021916908373ffffffffffffffffffffffffffffffffffffffff160217905550808273ffffffffffffffffffffffffffffffffffffffff16600073ffffffffffffffffffffffffffffffffffffffff167fddf252ad1be2c89b69c2b068fc378daa952ba7f163c4a11628f55a4df523b3ef60405160405180910390a4612fc56000838361295e565b5050565b6000808273ffffffffffffffffffffffffffffffffffffffff163b119050919050565b828054612ff8906138ca565b90600052602060002090601f01602090048101928261301a5760008555613061565b82601f1061303357805160ff1916838001178555613061565b82800160010185558215613061579182015b82811115613060578251825591602001919060010190613045565b5b50905061306e9190613072565b5090565b5b8082111561308b576000816000905550600101613073565b5090565b6000604051905090565b600080fd5b600080fd5b60007fffffffff0000000000000000000000000000000000000000000000000000000082169050919050565b6130d8816130a3565b81146130e357600080fd5b50565b6000813590506130f5816130cf565b92915050565b60006020828403121561311157613110613099565b5b600061311f848285016130e6565b91505092915050565b60008115159050919050565b61313d81613128565b82525050565b60006020820190506131586000830184613134565b92915050565b600081519050919050565b600082825260208201905092915050565b60005b8381101561319857808201518184015260208101905061317d565b838111156131a7576000848401525b50505050565b6000601f19601f8301169050919050565b60006131c98261315e565b6131d38185613169565b93506131e381856020860161317a565b6131ec816131ad565b840191505092915050565b6000602082019050818103600083015261321181846131be565b905092915050565b6000819050919050565b61322c81613219565b811461323757600080fd5b50565b60008135905061324981613223565b92915050565b60006020828403121561326557613264613099565b5b60006132738482850161323a565b91505092915050565b600073ffffffffffffffffffffffffffffffffffffffff82169050919050565b60006132a78261327c565b9050919050565b6132b78161329c565b82525050565b60006020820190506132d260008301846132ae565b92915050565b6132e18161329c565b81146132ec57600080fd5b50565b6000813590506132fe816132d8565b92915050565b6000806040838503121561331b5761331a613099565b5b6000613329858286016132ef565b925050602061333a8582860161323a565b9150509250929050565b600080fd5b600080fd5b7f4e487b7100000000000000000000000000000000000000000000000000000000600052604160045260246000fd5b613386826131ad565b810181811067ffffffffffffffff821117156133a5576133a461334e565b5b80604052505050565b60006133b861308f565b90506133c4828261337d565b919050565b600067ffffffffffffffff8211156133e4576133e361334e565b5b6133ed826131ad565b9050602081019050919050565b82818337600083830152505050565b600061341c613417846133c9565b6133ae565b90508281526020810184848401111561343857613437613349565b5b6134438482856133fa565b509392505050565b600082601f8301126134605761345f613344565b5b8135613470848260208601613409565b91505092915050565b60006020828403121561348f5761348e613099565b5b600082013567ffffffffffffffff8111156134ad576134ac61309e565b5b6134b98482850161344b565b91505092915050565b6000806000606084860312156134db576134da613099565b5b60006134e9868287016132ef565b93505060206134fa868287016132ef565b925050604061350b8682870161323a565b9150509250925092565b6000819050919050565b61352881613515565b811461353357600080fd5b50565b6000813590506135458161351f565b92915050565b60006020828403121561356157613560613099565b5b600061356f84828501613536565b91505092915050565b61358181613515565b82525050565b600060208201905061359c6000830184613578565b92915050565b600080604083850312156135b9576135b8613099565b5b60006135c785828601613536565b92505060206135d8858286016132ef565b9150509250929050565b6000602082840312156135f8576135f7613099565b5b6000613606848285016132ef565b91505092915050565b61361881613219565b82525050565b6000602082019050613633600083018461360f565b92915050565b61364281613128565b811461364d57600080fd5b50565b60008135905061365f81613639565b92915050565b6000806040838503121561367c5761367b613099565b5b600061368a858286016132ef565b925050602061369b85828601613650565b9150509250929050565b600067ffffffffffffffff8211156136c0576136bf61334e565b5b6136c9826131ad565b9050602081019050919050565b60006136e96136e4846136a5565b6133ae565b90508281526020810184848401111561370557613704613349565b5b6137108482856133fa565b509392505050565b600082601f83011261372d5761372c613344565b5b813561373d8482602086016136d6565b91505092915050565b600080600080608085870312156137605761375f613099565b5b600061376e878288016132ef565b945050602061377f878288016132ef565b93505060406137908782880161323a565b925050606085013567ffffffffffffffff8111156137b1576137b061309e565b5b6137bd87828801613718565b91505092959194509250565b7f4e487b7100000000000000000000000000000000000000000000000000000000600052602160045260246000fd5b60058110613809576138086137c9565b5b50565b600081905061381a826137f8565b919050565b600061382a8261380c565b9050919050565b61383a8161381f565b82525050565b60006020820190506138556000830184613831565b92915050565b6000806040838503121561387257613871613099565b5b6000613880858286016132ef565b9250506020613891858286016132ef565b9150509250929050565b7f4e487b7100000000000000000000000000000000000000000000000000000000600052602260045260246000fd5b600060028204905060018216806138e257607f821691505b6020821081036138f5576138f461389b565b5b50919050565b7f4552433732313a20617070726f76656420717565727920666f72206e6f6e657860008201527f697374656e7420746f6b656e0000000000000000000000000000000000000000602082015250565b6000613957602c83613169565b9150613962826138fb565b604082019050919050565b600060208201905081810360008301526139868161394a565b9050919050565b7f4552433732313a20617070726f76616c20746f2063757272656e74206f776e6560008201527f7200000000000000000000000000000000000000000000000000000000000000602082015250565b60006139e9602183613169565b91506139f48261398d565b604082019050919050565b60006020820190508181036000830152613a18816139dc565b9050919050565b7f4552433732313a20617070726f76652063616c6c6572206973206e6f74206f7760008201527f6e6572206e6f7220617070726f76656420666f7220616c6c0000000000000000602082015250565b6000613a7b603883613169565b9150613a8682613a1f565b604082019050919050565b60006020820190508181036000830152613aaa81613a6e565b9050919050565b7f4552433732313a207472616e736665722063616c6c6572206973206e6f74206f60008201527f776e6572206e6f7220617070726f766564000000000000000000000000000000602082015250565b6000613b0d603183613169565b9150613b1882613ab1565b604082019050919050565b60006020820190508181036000830152613b3c81613b00565b9050919050565b7f416363657373436f6e74726f6c3a2063616e206f6e6c792072656e6f756e636560008201527f20726f6c657320666f722073656c660000000000000000000000000000000000602082015250565b6000613b9f602f83613169565b9150613baa82613b43565b604082019050919050565b60006020820190508181036000830152613bce81613b92565b9050919050565b7f4552433732314275726e61626c653a2063616c6c6572206973206e6f74206f7760008201527f6e6572206e6f7220617070726f76656400000000000000000000000000000000602082015250565b6000613c31603083613169565b9150613c3c82613bd5565b604082019050919050565b60006020820190508181036000830152613c6081613c24565b9050919050565b7f4e487b7100000000000000000000000000000000000000000000000000000000600052601160045260246000fd5b6000613ca182613219565b9150613cac83613219565b925082821015613cbf57613cbe613c67565b5b828203905092915050565b600081905092915050565b7f5032443a205075726368617365642070726f6365737365732073686f756c642060008201527f6265206c657373207468616e206f7220657175616c20746f2000000000000000602082015250565b6000613d31603983613cca565b9150613d3c82613cd5565b603982019050919050565b6000613d528261315e565b613d5c8185613cca565b9350613d6c81856020860161317a565b80840191505092915050565b6000613d8382613d24565b9150613d8f8284613d47565b915081905092915050565b6000613da582613219565b9150613db083613219565b9250817fffffffffffffffffffffffffffffffffffffffffffffffffffffffffffffffff0483118215151615613de957613de8613c67565b5b828202905092915050565b6000613dff82613219565b9150613e0a83613219565b9250827fffffffffffffffffffffffffffffffffffffffffffffffffffffffffffffffff03821115613e3f57613e3e613c67565b5b828201905092915050565b7f5032443a2057726f6e67207061796d656e74202d207061796d656e742073686f60008201527f756c642062653a20000000000000000000000000000000000000000000000000602082015250565b6000613ea6602883613cca565b9150613eb182613e4a565b602882019050919050565b6000613ec782613e99565b9150613ed38284613d47565b915081905092915050565b7f4552433732313a206f776e657220717565727920666f72206e6f6e657869737460008201527f656e7420746f6b656e0000000000000000000000000000000000000000000000602082015250565b6000613f3a602983613169565b9150613f4582613ede565b604082019050919050565b60006020820190508181036000830152613f6981613f2d565b9050919050565b7f4552433732313a2062616c616e636520717565727920666f7220746865207a6560008201527f726f206164647265737300000000000000000000000000000000000000000000602082015250565b6000613fcc602a83613169565b9150613fd782613f70565b604082019050919050565b60006020820190508181036000830152613ffb81613fbf565b9050919050565b7f7b226e616d65223a2022506879736963616c20546f20204469676974616c222c60008201527f20226465736372697074696f6e223a202254686973206973207468652064657360208201527f6372697074696f6e206f6620506879736963616c20546f204469676974616c2060408201527f50726f6a656374222c2022696d616765223a202268747470733a2f2f6d65646960608201527f612e6e69667479676174657761792e636f6d2f766964656f2f75706c6f61642f60808201527f76313633393432313134312f416e647265612f446176696441726965772f446560a08201527f63437572617465642f4d7973746963616c5f436162617265745f2d5f4461766960c08201527f645f41726965775f315f777a646875772e706e67222c2022616e696d6174696f60e08201527f6e5f75726c223a2022000000000000000000000000000000000000000000000061010082015250565b600061416a61010983613cca565b915061417582614002565b61010982019050919050565b7f22207d0000000000000000000000000000000000000000000000000000000000600082015250565b60006141b7600383613cca565b91506141c282614181565b600382019050919050565b60006141d88261415c565b91506141e48284613d47565b91506141ef826141aa565b915081905092915050565b7f646174613a6170706c69636174696f6e2f6a736f6e3b6261736536342c000000600082015250565b6000614230601d83613cca565b915061423b826141fa565b601d82019050919050565b600061425182614223565b915061425d8284613d47565b915081905092915050565b7f4e487b7100000000000000000000000000000000000000000000000000000000600052603260045260246000fd5b7f4552433732313a206f70657261746f7220717565727920666f72206e6f6e657860008201527f697374656e7420746f6b656e0000000000000000000000000000000000000000602082015250565b60006142f3602c83613169565b91506142fe82614297565b604082019050919050565b60006020820190508181036000830152614322816142e6565b9050919050565b7f4552433732313a207472616e736665722066726f6d20696e636f72726563742060008201527f6f776e6572000000000000000000000000000000000000000000000000000000602082015250565b6000614385602583613169565b915061439082614329565b604082019050919050565b600060208201905081810360008301526143b481614378565b9050919050565b7f4552433732313a207472616e7366657220746f20746865207a65726f2061646460008201527f7265737300000000000000000000000000000000000000000000000000000000602082015250565b6000614417602483613169565b9150614422826143bb565b604082019050919050565b600060208201905081810360008301526144468161440a565b9050919050565b7f5061757361626c653a206e6f7420706175736564000000000000000000000000600082015250565b6000614483601483613169565b915061448e8261444d565b602082019050919050565b600060208201905081810360008301526144b281614476565b9050919050565b7f5032443a20412073746167652073686f756c642062652061637469766520746f60008201527f20706572666f726d207468697320616374696f6e000000000000000000000000602082015250565b6000614515603483613169565b9150614520826144b9565b604082019050919050565b6000602082019050818103600083015261454481614508565b9050919050565b7f5032443a205468652073746167652073686f756c642062652000000000000000815250565b7f20746f20706572666f726d207468697320616374696f6e000000000000000000815250565b60006145a28261454b565b6019820191506145b28284613d47565b91506145bd82614571565b60178201915081905092915050565b60006145d782613219565b91507fffffffffffffffffffffffffffffffffffffffffffffffffffffffffffffffff820361460957614608613c67565b5b600182019050919050565b7f4e487b7100000000000000000000000000000000000000000000000000000000600052601260045260246000fd5b600061464e82613219565b915061465983613219565b92508261466957614668614614565b5b828204905092915050565b600061467f82613219565b915061468a83613219565b92508261469a57614699614614565b5b828206905092915050565b7f4552433732313a2063616c6c6572206973206e6f7420746f6b656e206f776e6560008201527f72206e6f7220617070726f766564000000000000000000000000000000000000602082015250565b6000614701602e83613169565b915061470c826146a5565b604082019050919050565b60006020820190508181036000830152614730816146f4565b9050919050565b7f5032443a20546865206c6576656c206f6620746865206469616d6f6e6420736860008201527f6f756c6420626520000000000000000000000000000000000000000000000000602082015250565b6000614793602883613cca565b915061479e82614737565b602882019050919050565b60006147b482614786565b91506147c08284613d47565b91506147cb82614571565b60178201915081905092915050565b60006147e582613219565b9150600082036147f8576147f7613c67565b5b600182039050919050565b7f5061757361626c653a2070617573656400000000000000000000000000000000600082015250565b6000614839601083613169565b915061484482614803565b602082019050919050565b600060208201905081810360008301526148688161482c565b9050919050565b7f4552433732313a20617070726f766520746f2063616c6c657200000000000000600082015250565b60006148a5601983613169565b91506148b08261486f565b602082019050919050565b600060208201905081810360008301526148d481614898565b9050919050565b7f4552433732313a207472616e7366657220746f206e6f6e20455243373231526560008201527f63656976657220696d706c656d656e7465720000000000000000000000000000602082015250565b6000614937603283613169565b9150614942826148db565b604082019050919050565b600060208201905081810360008301526149668161492a565b9050919050565b7f416363657373436f6e74726f6c3a206163636f756e7420000000000000000000600082015250565b60006149a3601783613cca565b91506149ae8261496d565b601782019050919050565b7f206973206d697373696e6720726f6c6520000000000000000000000000000000600082015250565b60006149ef601183613cca565b91506149fa826149b9565b601182019050919050565b6000614a1082614996565b9150614a1c8285613d47565b9150614a27826149e2565b9150614a338284613d47565b91508190509392505050565b600081519050919050565b600082825260208201905092915050565b6000614a6682614a3f565b614a708185614a4a565b9350614a8081856020860161317a565b614a89816131ad565b840191505092915050565b6000608082019050614aa960008301876132ae565b614ab660208301866132ae565b614ac3604083018561360f565b8181036060830152614ad58184614a5b565b905095945050505050565b600081519050614aef816130cf565b92915050565b600060208284031215614b0b57614b0a613099565b5b6000614b1984828501614ae0565b91505092915050565b7f537472696e67733a20686578206c656e67746820696e73756666696369656e74600082015250565b6000614b58602083613169565b9150614b6382614b22565b602082019050919050565b60006020820190508181036000830152614b8781614b4b565b9050919050565b7f4552433732313a206d696e7420746f20746865207a65726f2061646472657373600082015250565b6000614bc4602083613169565b9150614bcf82614b8e565b602082019050919050565b60006020820190508181036000830152614bf381614bb7565b9050919050565b7f4552433732313a20746f6b656e20616c7265616479206d696e74656400000000600082015250565b6000614c30601c83613169565b9150614c3b82614bfa565b602082019050919050565b60006020820190508181036000830152614c5f81614c23565b905091905056fe4142434445464748494a4b4c4d4e4f505152535455565758595a6162636465666768696a6b6c6d6e6f707172737475767778797a303132333435363738392b2fa26469706673582212204b8028616eb8f8db9616edaf479a9b72eca74b0839c54241bc6ba28b129aeda464736f6c634300080e0033",
  "linkReferences": {},
  "deployedLinkReferences": {}
}