{
  "_format": "hh-sol-artifact-1",
  "contractName": "PhysicalToDigital",
  "sourceName": "contracts/PhysicalToDigital.sol",
  "abi": [
    {
      "inputs": [],
      "stateMutability": "nonpayable",
      "type": "constructor"
    },
    {
      "anonymous": false,
      "inputs": [
        {
          "indexed": true,
          "internalType": "address",
          "name": "owner",
          "type": "address"
        },
        {
          "indexed": true,
          "internalType": "address",
          "name": "approved",
          "type": "address"
        },
        {
          "indexed": true,
          "internalType": "uint256",
          "name": "tokenId",
          "type": "uint256"
        }
      ],
      "name": "Approval",
      "type": "event"
    },
    {
      "anonymous": false,
      "inputs": [
        {
          "indexed": true,
          "internalType": "address",
          "name": "owner",
          "type": "address"
        },
        {
          "indexed": true,
          "internalType": "address",
          "name": "operator",
          "type": "address"
        },
        {
          "indexed": false,
          "internalType": "bool",
          "name": "approved",
          "type": "bool"
        }
      ],
      "name": "ApprovalForAll",
      "type": "event"
    },
    {
      "anonymous": false,
      "inputs": [
        {
          "indexed": false,
          "internalType": "address",
          "name": "account",
          "type": "address"
        }
      ],
      "name": "Paused",
      "type": "event"
    },
    {
      "anonymous": false,
      "inputs": [
        {
          "indexed": true,
          "internalType": "bytes32",
          "name": "role",
          "type": "bytes32"
        },
        {
          "indexed": true,
          "internalType": "bytes32",
          "name": "previousAdminRole",
          "type": "bytes32"
        },
        {
          "indexed": true,
          "internalType": "bytes32",
          "name": "newAdminRole",
          "type": "bytes32"
        }
      ],
      "name": "RoleAdminChanged",
      "type": "event"
    },
    {
      "anonymous": false,
      "inputs": [
        {
          "indexed": true,
          "internalType": "bytes32",
          "name": "role",
          "type": "bytes32"
        },
        {
          "indexed": true,
          "internalType": "address",
          "name": "account",
          "type": "address"
        },
        {
          "indexed": true,
          "internalType": "address",
          "name": "sender",
          "type": "address"
        }
      ],
      "name": "RoleGranted",
      "type": "event"
    },
    {
      "anonymous": false,
      "inputs": [
        {
          "indexed": true,
          "internalType": "bytes32",
          "name": "role",
          "type": "bytes32"
        },
        {
          "indexed": true,
          "internalType": "address",
          "name": "account",
          "type": "address"
        },
        {
          "indexed": true,
          "internalType": "address",
          "name": "sender",
          "type": "address"
        }
      ],
      "name": "RoleRevoked",
      "type": "event"
    },
    {
      "anonymous": false,
      "inputs": [
        {
          "indexed": true,
          "internalType": "address",
          "name": "from",
          "type": "address"
        },
        {
          "indexed": true,
          "internalType": "address",
          "name": "to",
          "type": "address"
        },
        {
          "indexed": true,
          "internalType": "uint256",
          "name": "tokenId",
          "type": "uint256"
        }
      ],
      "name": "Transfer",
      "type": "event"
    },
    {
      "anonymous": false,
      "inputs": [
        {
          "indexed": false,
          "internalType": "address",
          "name": "account",
          "type": "address"
        }
      ],
      "name": "Unpaused",
      "type": "event"
    },
    {
      "inputs": [],
      "name": "DEFAULT_ADMIN_ROLE",
      "outputs": [
        {
          "internalType": "bytes32",
          "name": "",
          "type": "bytes32"
        }
      ],
      "stateMutability": "view",
      "type": "function"
    },
    {
      "inputs": [],
      "name": "MINING_PRICE",
      "outputs": [
        {
          "internalType": "uint256",
          "name": "",
          "type": "uint256"
        }
      ],
      "stateMutability": "view",
      "type": "function"
    },
    {
      "inputs": [],
      "name": "MINTER_ROLE",
      "outputs": [
        {
          "internalType": "bytes32",
          "name": "",
          "type": "bytes32"
        }
      ],
      "stateMutability": "view",
      "type": "function"
    },
    {
      "inputs": [],
      "name": "PAUSER_ROLE",
      "outputs": [
        {
          "internalType": "bytes32",
          "name": "",
          "type": "bytes32"
        }
      ],
      "stateMutability": "view",
      "type": "function"
    },
    {
      "inputs": [],
      "name": "PREPAID_PROCESSING_PRICE",
      "outputs": [
        {
          "internalType": "uint256",
          "name": "",
          "type": "uint256"
        }
      ],
      "stateMutability": "view",
      "type": "function"
    },
    {
      "inputs": [
        {
          "internalType": "address",
          "name": "to",
          "type": "address"
        },
        {
          "internalType": "uint256",
          "name": "tokenId",
          "type": "uint256"
        }
      ],
      "name": "approve",
      "outputs": [],
      "stateMutability": "nonpayable",
      "type": "function"
    },
    {
      "inputs": [
        {
          "internalType": "address",
          "name": "owner",
          "type": "address"
        }
      ],
      "name": "balanceOf",
      "outputs": [
        {
          "internalType": "uint256",
          "name": "",
          "type": "uint256"
        }
      ],
      "stateMutability": "view",
      "type": "function"
    },
    {
      "inputs": [
        {
          "internalType": "uint256",
          "name": "tokenId",
          "type": "uint256"
        }
      ],
      "name": "burn",
      "outputs": [],
      "stateMutability": "nonpayable",
      "type": "function"
    },
    {
      "inputs": [
        {
          "internalType": "uint256",
          "name": "tokenId",
          "type": "uint256"
        }
      ],
      "name": "clean",
      "outputs": [],
      "stateMutability": "payable",
      "type": "function"
    },
    {
      "inputs": [],
      "name": "completeStage",
      "outputs": [],
      "stateMutability": "nonpayable",
      "type": "function"
    },
    {
      "inputs": [
        {
          "internalType": "uint256",
          "name": "tokenId",
          "type": "uint256"
        }
      ],
      "name": "getApproved",
      "outputs": [
        {
          "internalType": "address",
          "name": "",
          "type": "address"
        }
      ],
      "stateMutability": "view",
      "type": "function"
    },
    {
      "inputs": [
        {
          "internalType": "bytes32",
          "name": "role",
          "type": "bytes32"
        }
      ],
      "name": "getRoleAdmin",
      "outputs": [
        {
          "internalType": "bytes32",
          "name": "",
          "type": "bytes32"
        }
      ],
      "stateMutability": "view",
      "type": "function"
    },
    {
      "inputs": [
        {
          "internalType": "bytes32",
          "name": "role",
          "type": "bytes32"
        },
        {
          "internalType": "address",
          "name": "account",
          "type": "address"
        }
      ],
      "name": "grantRole",
      "outputs": [],
      "stateMutability": "nonpayable",
      "type": "function"
    },
    {
      "inputs": [
        {
          "internalType": "bytes32",
          "name": "role",
          "type": "bytes32"
        },
        {
          "internalType": "address",
          "name": "account",
          "type": "address"
        }
      ],
      "name": "hasRole",
      "outputs": [
        {
          "internalType": "bool",
          "name": "",
          "type": "bool"
        }
      ],
      "stateMutability": "view",
      "type": "function"
    },
    {
      "inputs": [
        {
          "internalType": "address",
          "name": "owner",
          "type": "address"
        },
        {
          "internalType": "address",
          "name": "operator",
          "type": "address"
        }
      ],
      "name": "isApprovedForAll",
      "outputs": [
        {
          "internalType": "bool",
          "name": "",
          "type": "bool"
        }
      ],
      "stateMutability": "view",
      "type": "function"
    },
    {
      "inputs": [],
      "name": "isStageActive",
      "outputs": [
        {
          "internalType": "bool",
          "name": "",
          "type": "bool"
        }
      ],
      "stateMutability": "view",
      "type": "function"
    },
    {
      "inputs": [
        {
          "internalType": "uint256",
          "name": "processesPurchased",
          "type": "uint256"
        }
      ],
      "name": "mine",
      "outputs": [],
      "stateMutability": "payable",
      "type": "function"
    },
    {
      "inputs": [],
      "name": "name",
      "outputs": [
        {
          "internalType": "string",
          "name": "",
          "type": "string"
        }
      ],
      "stateMutability": "view",
      "type": "function"
    },
    {
      "inputs": [
        {
          "internalType": "uint256",
          "name": "tokenId",
          "type": "uint256"
        }
      ],
      "name": "ownerOf",
      "outputs": [
        {
          "internalType": "address",
          "name": "",
          "type": "address"
        }
      ],
      "stateMutability": "view",
      "type": "function"
    },
    {
      "inputs": [],
      "name": "pause",
      "outputs": [],
      "stateMutability": "nonpayable",
      "type": "function"
    },
    {
      "inputs": [],
      "name": "paused",
      "outputs": [
        {
          "internalType": "bool",
          "name": "",
          "type": "bool"
        }
      ],
      "stateMutability": "view",
      "type": "function"
    },
    {
      "inputs": [
        {
          "internalType": "uint256",
          "name": "tokenId",
          "type": "uint256"
        }
      ],
      "name": "polish",
      "outputs": [],
      "stateMutability": "payable",
      "type": "function"
    },
    {
      "inputs": [],
      "name": "processingPrice",
      "outputs": [
        {
          "internalType": "uint256",
          "name": "",
          "type": "uint256"
        }
      ],
      "stateMutability": "view",
      "type": "function"
    },
    {
      "inputs": [
        {
          "internalType": "bytes32",
          "name": "role",
          "type": "bytes32"
        },
        {
          "internalType": "address",
          "name": "account",
          "type": "address"
        }
      ],
      "name": "renounceRole",
      "outputs": [],
      "stateMutability": "nonpayable",
      "type": "function"
    },
    {
      "inputs": [
        {
          "internalType": "string",
          "name": "videoUrl",
          "type": "string"
        }
      ],
      "name": "revealStage",
      "outputs": [],
      "stateMutability": "nonpayable",
      "type": "function"
    },
    {
      "inputs": [
        {
          "internalType": "bytes32",
          "name": "role",
          "type": "bytes32"
        },
        {
          "internalType": "address",
          "name": "account",
          "type": "address"
        }
      ],
      "name": "revokeRole",
      "outputs": [],
      "stateMutability": "nonpayable",
      "type": "function"
    },
    {
      "inputs": [
        {
          "internalType": "address",
          "name": "to",
          "type": "address"
        }
      ],
      "name": "safeMint",
      "outputs": [],
      "stateMutability": "nonpayable",
      "type": "function"
    },
    {
      "inputs": [
        {
          "internalType": "address",
          "name": "from",
          "type": "address"
        },
        {
          "internalType": "address",
          "name": "to",
          "type": "address"
        },
        {
          "internalType": "uint256",
          "name": "tokenId",
          "type": "uint256"
        }
      ],
      "name": "safeTransferFrom",
      "outputs": [],
      "stateMutability": "nonpayable",
      "type": "function"
    },
    {
      "inputs": [
        {
          "internalType": "address",
          "name": "from",
          "type": "address"
        },
        {
          "internalType": "address",
          "name": "to",
          "type": "address"
        },
        {
          "internalType": "uint256",
          "name": "tokenId",
          "type": "uint256"
        },
        {
          "internalType": "bytes",
          "name": "_data",
          "type": "bytes"
        }
      ],
      "name": "safeTransferFrom",
      "outputs": [],
      "stateMutability": "nonpayable",
      "type": "function"
    },
    {
      "inputs": [
        {
          "internalType": "address",
          "name": "operator",
          "type": "address"
        },
        {
          "internalType": "bool",
          "name": "approved",
          "type": "bool"
        }
      ],
      "name": "setApprovalForAll",
      "outputs": [],
      "stateMutability": "nonpayable",
      "type": "function"
    },
    {
      "inputs": [
        {
          "internalType": "uint256",
          "name": "price",
          "type": "uint256"
        }
      ],
      "name": "setProcessingPrice",
      "outputs": [],
      "stateMutability": "nonpayable",
      "type": "function"
    },
    {
      "inputs": [],
      "name": "stage",
      "outputs": [
        {
          "internalType": "uint256",
          "name": "",
          "type": "uint256"
        }
      ],
      "stateMutability": "view",
      "type": "function"
    },
    {
      "inputs": [
        {
          "internalType": "bytes4",
          "name": "interfaceId",
          "type": "bytes4"
        }
      ],
      "name": "supportsInterface",
      "outputs": [
        {
          "internalType": "bool",
          "name": "",
          "type": "bool"
        }
      ],
      "stateMutability": "view",
      "type": "function"
    },
    {
      "inputs": [],
      "name": "symbol",
      "outputs": [
        {
          "internalType": "string",
          "name": "",
          "type": "string"
        }
      ],
      "stateMutability": "view",
      "type": "function"
    },
    {
      "inputs": [
        {
          "internalType": "uint256",
          "name": "tokenId",
          "type": "uint256"
        }
      ],
      "name": "tokenURI",
      "outputs": [
        {
          "internalType": "string",
          "name": "",
          "type": "string"
        }
      ],
      "stateMutability": "view",
      "type": "function"
    },
    {
      "inputs": [
        {
          "internalType": "address",
          "name": "from",
          "type": "address"
        },
        {
          "internalType": "address",
          "name": "to",
          "type": "address"
        },
        {
          "internalType": "uint256",
          "name": "tokenId",
          "type": "uint256"
        }
      ],
      "name": "transferFrom",
      "outputs": [],
      "stateMutability": "nonpayable",
      "type": "function"
    },
    {
      "inputs": [],
      "name": "unpause",
      "outputs": [],
      "stateMutability": "nonpayable",
      "type": "function"
    }
  ],
  "bytecode": "0x60806040523480156200001157600080fd5b506040518060400160405280601181526020017f506879736963616c546f4469676974616c0000000000000000000000000000008152506040518060400160405280600381526020017f5054440000000000000000000000000000000000000000000000000000000000815250816000908051906020019062000096929190620003c1565b508060019080519060200190620000af929190620003c1565b5050506000600660006101000a81548160ff021916908315150217905550620000e26000801b336200018d60201b60201c565b620001147f65d7a28e3265b37a6474929f336521b332c1681b933f6cb9f3376673440d862a336200018d60201b60201c565b620001467f9f2df0fed2c77648de5860a4cc508cd0818c85b8b8a1ab4ceeef8d981c8956a6336200018d60201b60201c565b662386f26fc10000600a8190555060016009819055506000600b60006101000a81548160ff021916908315150217905550620001876200027f60201b60201c565b620005ba565b6200019f82826200033760201b60201c565b6200027b5760016007600084815260200190815260200160002060000160008373ffffffffffffffffffffffffffffffffffffffff1673ffffffffffffffffffffffffffffffffffffffff16815260200190815260200160002060006101000a81548160ff02191690831515021790555062000220620003a260201b60201c565b73ffffffffffffffffffffffffffffffffffffffff168173ffffffffffffffffffffffffffffffffffffffff16837f2f8788117e7eff1d82e926ec794901d17c78024a50270940304540a733656f0d60405160405180910390a45b5050565b6200028f620003aa60201b60201c565b15620002d2576040517f08c379a0000000000000000000000000000000000000000000000000000000008152600401620002c990620004d2565b60405180910390fd5b6001600660006101000a81548160ff0219169083151502179055507f62e78cea01bee320cd4e420270b5ea74000d11b0c9f74754ebdbfc544b05a2586200031e620003a260201b60201c565b6040516200032d919062000539565b60405180910390a1565b60006007600084815260200190815260200160002060000160008373ffffffffffffffffffffffffffffffffffffffff1673ffffffffffffffffffffffffffffffffffffffff16815260200190815260200160002060009054906101000a900460ff16905092915050565b600033905090565b6000600660009054906101000a900460ff16905090565b828054620003cf9062000585565b90600052602060002090601f016020900481019282620003f357600085556200043f565b82601f106200040e57805160ff19168380011785556200043f565b828001600101855582156200043f579182015b828111156200043e57825182559160200191906001019062000421565b5b5090506200044e919062000452565b5090565b5b808211156200046d57600081600090555060010162000453565b5090565b600082825260208201905092915050565b7f5061757361626c653a2070617573656400000000000000000000000000000000600082015250565b6000620004ba60108362000471565b9150620004c78262000482565b602082019050919050565b60006020820190508181036000830152620004ed81620004ab565b9050919050565b600073ffffffffffffffffffffffffffffffffffffffff82169050919050565b60006200052182620004f4565b9050919050565b620005338162000514565b82525050565b600060208201905062000550600083018462000528565b92915050565b7f4e487b7100000000000000000000000000000000000000000000000000000000600052602260045260246000fd5b600060028204905060018216806200059e57607f821691505b602082108103620005b457620005b362000556565b5b50919050565b614afd80620005ca6000396000f3fe60806040526004361061021a5760003560e01c8063674ef0fa11610123578063b88d4fde116100ab578063d53913931161006f578063d539139314610792578063d547741f146107bd578063e63ab1e9146107e6578063e985e9c514610811578063fa27d4841461084e5761021a565b8063b88d4fde146106ba578063bf72b63f146106e3578063c040e6b8146106ff578063c87b56dd1461072a578063cc116979146107675761021a565b806391d14854116100f257806391d14854146105d557806395d89b4114610612578063a217fddf1461063d578063a22cb46514610668578063abdfe275146106915761021a565b8063674ef0fa1461053a57806370a08231146105565780638456cb59146105935780638c8c35d1146105aa5761021a565b80633f4ba83a116101a65780634d474898116101755780634d474898146104605780634e490b4a1461047c5780635c975abb146104a75780635ed6ac4f146104d25780636352211e146104fd5761021a565b80633f4ba83a146103ce57806340d097c3146103e557806342842e0e1461040e57806342966c68146104375761021a565b80630a49008d116101ed5780630a49008d146102ed57806323b872dd14610316578063248a9ca31461033f5780632f2ff15d1461037c57806336568abe146103a55761021a565b806301ffc9a71461021f57806306fdde031461025c578063081812fc14610287578063095ea7b3146102c4575b600080fd5b34801561022b57600080fd5b5061024660048036038101906102419190612fae565b610865565b6040516102539190612ff6565b60405180910390f35b34801561026857600080fd5b50610271610877565b60405161027e91906130aa565b60405180910390f35b34801561029357600080fd5b506102ae60048036038101906102a99190613102565b610909565b6040516102bb9190613170565b60405180910390f35b3480156102d057600080fd5b506102eb60048036038101906102e691906131b7565b61098e565b005b3480156102f957600080fd5b50610314600480360381019061030f919061332c565b610aa5565b005b34801561032257600080fd5b5061033d60048036038101906103389190613375565b610afd565b005b34801561034b57600080fd5b50610366600480360381019061036191906133fe565b610b5d565b604051610373919061343a565b60405180910390f35b34801561038857600080fd5b506103a3600480360381019061039e9190613455565b610b7d565b005b3480156103b157600080fd5b506103cc60048036038101906103c79190613455565b610b9e565b005b3480156103da57600080fd5b506103e3610c21565b005b3480156103f157600080fd5b5061040c60048036038101906104079190613495565b610c56565b005b34801561041a57600080fd5b5061043560048036038101906104309190613375565b610ca7565b005b34801561044357600080fd5b5061045e60048036038101906104599190613102565b610cc7565b005b61047a60048036038101906104759190613102565b610d23565b005b34801561048857600080fd5b50610491610f04565b60405161049e91906134d1565b60405180910390f35b3480156104b357600080fd5b506104bc610f0a565b6040516104c99190612ff6565b60405180910390f35b3480156104de57600080fd5b506104e7610f21565b6040516104f49190612ff6565b60405180910390f35b34801561050957600080fd5b50610524600480360381019061051f9190613102565b610f34565b6040516105319190613170565b60405180910390f35b610554600480360381019061054f9190613102565b610fe5565b005b34801561056257600080fd5b5061057d60048036038101906105789190613495565b61104d565b60405161058a91906134d1565b60405180910390f35b34801561059f57600080fd5b506105a8611104565b005b3480156105b657600080fd5b506105bf611139565b6040516105cc91906134d1565b60405180910390f35b3480156105e157600080fd5b506105fc60048036038101906105f79190613455565b611144565b6040516106099190612ff6565b60405180910390f35b34801561061e57600080fd5b506106276111af565b60405161063491906130aa565b60405180910390f35b34801561064957600080fd5b50610652611241565b60405161065f919061343a565b60405180910390f35b34801561067457600080fd5b5061068f600480360381019061068a9190613518565b611248565b005b34801561069d57600080fd5b506106b860048036038101906106b39190613102565b61125e565b005b3480156106c657600080fd5b506106e160048036038101906106dc91906135f9565b611276565b005b6106fd60048036038101906106f89190613102565b6112d8565b005b34801561070b57600080fd5b50610714611340565b60405161072191906134d1565b60405180910390f35b34801561073657600080fd5b50610751600480360381019061074c9190613102565b611346565b60405161075e91906130aa565b60405180910390f35b34801561077357600080fd5b5061077c6113a4565b60405161078991906134d1565b60405180910390f35b34801561079e57600080fd5b506107a76113af565b6040516107b4919061343a565b60405180910390f35b3480156107c957600080fd5b506107e460048036038101906107df9190613455565b6113d3565b005b3480156107f257600080fd5b506107fb6113f4565b604051610808919061343a565b60405180910390f35b34801561081d57600080fd5b506108386004803603810190610833919061367c565b611418565b6040516108459190612ff6565b60405180910390f35b34801561085a57600080fd5b506108636114ac565b005b6000610870826114ef565b9050919050565b606060008054610886906136eb565b80601f01602080910402602001604051908101604052809291908181526020018280546108b2906136eb565b80156108ff5780601f106108d4576101008083540402835291602001916108ff565b820191906000526020600020905b8154815290600101906020018083116108e257829003601f168201915b5050505050905090565b600061091482611569565b610953576040517f08c379a000000000000000000000000000000000000000000000000000000000815260040161094a9061378e565b60405180910390fd5b6004600083815260200190815260200160002060009054906101000a900473ffffffffffffffffffffffffffffffffffffffff169050919050565b600061099982610f34565b90508073ffffffffffffffffffffffffffffffffffffffff168373ffffffffffffffffffffffffffffffffffffffff1603610a09576040517f08c379a0000000000000000000000000000000000000000000000000000000008152600401610a0090613820565b60405180910390fd5b8073ffffffffffffffffffffffffffffffffffffffff16610a286115d5565b73ffffffffffffffffffffffffffffffffffffffff161480610a575750610a5681610a516115d5565b611418565b5b610a96576040517f08c379a0000000000000000000000000000000000000000000000000000000008152600401610a8d906138b2565b60405180910390fd5b610aa083836115dd565b505050565b6000801b610ab281611696565b6001600b60006101000a81548160ff02191690831515021790555081600c60095460058110610ae457610ae36138d2565b5b019080519060200190610af8929190612e9f565b505050565b610b0e610b086115d5565b826116aa565b610b4d576040517f08c379a0000000000000000000000000000000000000000000000000000000008152600401610b4490613973565b60405180910390fd5b610b58838383611788565b505050565b600060076000838152602001908152602001600020600101549050919050565b610b8682610b5d565b610b8f81611696565b610b9983836119ee565b505050565b610ba66115d5565b73ffffffffffffffffffffffffffffffffffffffff168173ffffffffffffffffffffffffffffffffffffffff1614610c13576040517f08c379a0000000000000000000000000000000000000000000000000000000008152600401610c0a90613a05565b60405180910390fd5b610c1d8282611acf565b5050565b7f65d7a28e3265b37a6474929f336521b332c1681b933f6cb9f3376673440d862a610c4b81611696565b610c53611bb1565b50565b7f9f2df0fed2c77648de5860a4cc508cd0818c85b8b8a1ab4ceeef8d981c8956a6610c8081611696565b6000610c8c6008611c53565b9050610c986008611c61565b610ca28382611c77565b505050565b610cc283838360405180602001604052806000815250611276565b505050565b610cd8610cd26115d5565b826116aa565b610d17576040517f08c379a0000000000000000000000000000000000000000000000000000000008152600401610d0e90613a97565b60405180910390fd5b610d2081611c95565b50565b610d2b610f0a565b15610d6b576040517f08c379a0000000000000000000000000000000000000000000000000000000008152600401610d6290613b03565b60405180910390fd5b6001610d75611db2565b610d7e81611e03565b60016004610d8c9190613b52565b821115610da560016004610da09190613b52565b611e75565b604051602001610db59190613c34565b60405160208183030381529060405290610e05576040517f08c379a0000000000000000000000000000000000000000000000000000000008152600401610dfc91906130aa565b60405180910390fd5b506000662386f26fc1000083610e1b9190613c56565b662386f26fc10000610e2d9190613cb0565b9050803414610e3b82611e75565b604051602001610e4b9190613d78565b60405160208183030381529060405290610e9b576040517f08c379a0000000000000000000000000000000000000000000000000000000008152600401610e9291906130aa565b60405180910390fd5b506000610ea86008611c53565b9050610eb46008611c61565b610ebe3382611c77565b6040518060400160405280600181526020018581525060116000838152602001908152602001600020600082015181600001556020820151816001015590505050505050565b600a5481565b6000600660009054906101000a900460ff16905090565b600b60009054906101000a900460ff1681565b6000806002600084815260200190815260200160002060009054906101000a900473ffffffffffffffffffffffffffffffffffffffff169050600073ffffffffffffffffffffffffffffffffffffffff168173ffffffffffffffffffffffffffffffffffffffff1603610fdc576040517f08c379a0000000000000000000000000000000000000000000000000000000008152600401610fd390613e0c565b60405180910390fd5b80915050919050565b610fed610f0a565b1561102d576040517f08c379a000000000000000000000000000000000000000000000000000000000815260040161102490613b03565b60405180910390fd5b6003611037611db2565b61104081611e03565b61104982611fd5565b5050565b60008073ffffffffffffffffffffffffffffffffffffffff168273ffffffffffffffffffffffffffffffffffffffff16036110bd576040517f08c379a00000000000000000000000000000000000000000000000000000000081526004016110b490613e9e565b60405180910390fd5b600360008373ffffffffffffffffffffffffffffffffffffffff1673ffffffffffffffffffffffffffffffffffffffff168152602001908152602001600020549050919050565b7f65d7a28e3265b37a6474929f336521b332c1681b933f6cb9f3376673440d862a61112e81611696565b6111366121af565b50565b662386f26fc1000081565b60006007600084815260200190815260200160002060000160008373ffffffffffffffffffffffffffffffffffffffff1673ffffffffffffffffffffffffffffffffffffffff16815260200190815260200160002060009054906101000a900460ff16905092915050565b6060600180546111be906136eb565b80601f01602080910402602001604051908101604052809291908181526020018280546111ea906136eb565b80156112375780601f1061120c57610100808354040283529160200191611237565b820191906000526020600020905b81548152906001019060200180831161121a57829003601f168201915b5050505050905090565b6000801b81565b61125a6112536115d5565b8383612252565b5050565b6000801b61126b81611696565b81600a819055505050565b6112876112816115d5565b836116aa565b6112c6576040517f08c379a00000000000000000000000000000000000000000000000000000000081526004016112bd90613973565b60405180910390fd5b6112d2848484846123be565b50505050565b6112e0610f0a565b15611320576040517f08c379a000000000000000000000000000000000000000000000000000000000815260040161131790613b03565b60405180910390fd5b600261132a611db2565b61133381611e03565b61133c82611fd5565b5050565b60095481565b6060600061137a6113568461241a565b6040516020016113669190614089565b6040516020818303038152906040526124d7565b90508060405160200161138d9190614102565b604051602081830303815290604052915050919050565b662386f26fc1000081565b7f9f2df0fed2c77648de5860a4cc508cd0818c85b8b8a1ab4ceeef8d981c8956a681565b6113dc82610b5d565b6113e581611696565b6113ef8383611acf565b505050565b7f65d7a28e3265b37a6474929f336521b332c1681b933f6cb9f3376673440d862a81565b6000600560008473ffffffffffffffffffffffffffffffffffffffff1673ffffffffffffffffffffffffffffffffffffffff16815260200190815260200160002060008373ffffffffffffffffffffffffffffffffffffffff1673ffffffffffffffffffffffffffffffffffffffff16815260200190815260200160002060009054906101000a900460ff16905092915050565b6000801b6114b981611696565b6000600b60006101000a81548160ff021916908315150217905550600960008154809291906114e790614124565b919050555050565b60007f7965db0b000000000000000000000000000000000000000000000000000000007bffffffffffffffffffffffffffffffffffffffffffffffffffffffff1916827bffffffffffffffffffffffffffffffffffffffffffffffffffffffff1916148061156257506115618261263a565b5b9050919050565b60008073ffffffffffffffffffffffffffffffffffffffff166002600084815260200190815260200160002060009054906101000a900473ffffffffffffffffffffffffffffffffffffffff1673ffffffffffffffffffffffffffffffffffffffff1614159050919050565b600033905090565b816004600083815260200190815260200160002060006101000a81548173ffffffffffffffffffffffffffffffffffffffff021916908373ffffffffffffffffffffffffffffffffffffffff160217905550808273ffffffffffffffffffffffffffffffffffffffff1661165083610f34565b73ffffffffffffffffffffffffffffffffffffffff167f8c5be1e5ebec7d5bd14f71427d1e84f3dd0314c0f7b2291e5b200ac8c7c3b92560405160405180910390a45050565b6116a7816116a26115d5565b61271c565b50565b60006116b582611569565b6116f4576040517f08c379a00000000000000000000000000000000000000000000000000000000081526004016116eb906141de565b60405180910390fd5b60006116ff83610f34565b90508073ffffffffffffffffffffffffffffffffffffffff168473ffffffffffffffffffffffffffffffffffffffff16148061174157506117408185611418565b5b8061177f57508373ffffffffffffffffffffffffffffffffffffffff1661176784610909565b73ffffffffffffffffffffffffffffffffffffffff16145b91505092915050565b8273ffffffffffffffffffffffffffffffffffffffff166117a882610f34565b73ffffffffffffffffffffffffffffffffffffffff16146117fe576040517f08c379a00000000000000000000000000000000000000000000000000000000081526004016117f590614270565b60405180910390fd5b600073ffffffffffffffffffffffffffffffffffffffff168273ffffffffffffffffffffffffffffffffffffffff160361186d576040517f08c379a000000000000000000000000000000000000000000000000000000000815260040161186490614302565b60405180910390fd5b6118788383836127b9565b6118836000826115dd565b6001600360008573ffffffffffffffffffffffffffffffffffffffff1673ffffffffffffffffffffffffffffffffffffffff16815260200190815260200160002060008282546118d39190613b52565b925050819055506001600360008473ffffffffffffffffffffffffffffffffffffffff1673ffffffffffffffffffffffffffffffffffffffff168152602001908152602001600020600082825461192a9190613cb0565b92505081905550816002600083815260200190815260200160002060006101000a81548173ffffffffffffffffffffffffffffffffffffffff021916908373ffffffffffffffffffffffffffffffffffffffff160217905550808273ffffffffffffffffffffffffffffffffffffffff168473ffffffffffffffffffffffffffffffffffffffff167fddf252ad1be2c89b69c2b068fc378daa952ba7f163c4a11628f55a4df523b3ef60405160405180910390a46119e9838383612811565b505050565b6119f88282611144565b611acb5760016007600084815260200190815260200160002060000160008373ffffffffffffffffffffffffffffffffffffffff1673ffffffffffffffffffffffffffffffffffffffff16815260200190815260200160002060006101000a81548160ff021916908315150217905550611a706115d5565b73ffffffffffffffffffffffffffffffffffffffff168173ffffffffffffffffffffffffffffffffffffffff16837f2f8788117e7eff1d82e926ec794901d17c78024a50270940304540a733656f0d60405160405180910390a45b5050565b611ad98282611144565b15611bad5760006007600084815260200190815260200160002060000160008373ffffffffffffffffffffffffffffffffffffffff1673ffffffffffffffffffffffffffffffffffffffff16815260200190815260200160002060006101000a81548160ff021916908315150217905550611b526115d5565b73ffffffffffffffffffffffffffffffffffffffff168173ffffffffffffffffffffffffffffffffffffffff16837ff6391f5c32d9c69d2a47ea670b442974b53935d1edc7fd64eb21e047a839171b60405160405180910390a45b5050565b611bb9610f0a565b611bf8576040517f08c379a0000000000000000000000000000000000000000000000000000000008152600401611bef9061436e565b60405180910390fd5b6000600660006101000a81548160ff0219169083151502179055507f5db9ee0a495bf2e6ff9c91a7834c1ba4fdd244a5e8aa4e537bd38aeae4b073aa611c3c6115d5565b604051611c499190613170565b60405180910390a1565b600081600001549050919050565b6001816000016000828254019250508190555050565b611c91828260405180602001604052806000815250612816565b5050565b6000611ca082610f34565b9050611cae816000846127b9565b611cb96000836115dd565b6001600360008373ffffffffffffffffffffffffffffffffffffffff1673ffffffffffffffffffffffffffffffffffffffff1681526020019081526020016000206000828254611d099190613b52565b925050819055506002600083815260200190815260200160002060006101000a81549073ffffffffffffffffffffffffffffffffffffffff021916905581600073ffffffffffffffffffffffffffffffffffffffff168273ffffffffffffffffffffffffffffffffffffffff167fddf252ad1be2c89b69c2b068fc378daa952ba7f163c4a11628f55a4df523b3ef60405160405180910390a4611dae81600084612811565b5050565b600b60009054906101000a900460ff16611e01576040517f08c379a0000000000000000000000000000000000000000000000000000000008152600401611df890614400565b60405180910390fd5b565b8060095414611e1182611e75565b604051602001611e21919061446c565b60405160208183030381529060405290611e71576040517f08c379a0000000000000000000000000000000000000000000000000000000008152600401611e6891906130aa565b60405180910390fd5b5050565b606060008203611ebc576040518060400160405280600181526020017f30000000000000000000000000000000000000000000000000000000000000008152509050611fd0565b600082905060005b60008214611eee578080611ed790614124565b915050600a82611ee791906144d0565b9150611ec4565b60008167ffffffffffffffff811115611f0a57611f09613201565b5b6040519080825280601f01601f191660200182016040528015611f3c5781602001600182028036833780820191505090505b5090505b60008514611fc957600182611f559190613b52565b9150600a85611f649190614501565b6030611f709190613cb0565b60f81b818381518110611f8657611f856138d2565b5b60200101907effffffffffffffffffffffffffffffffffffffffffffffffffffffffffffff1916908160001a905350600a85611fc291906144d0565b9450611f40565b8093505050505b919050565b611fe6611fe06115d5565b826116aa565b612025576040517f08c379a000000000000000000000000000000000000000000000000000000000815260040161201c906145a4565b60405180910390fd5b60016009546120349190613b52565b601160008381526020019081526020016000206000015414612063600160095461205e9190613b52565b611e75565b6040516020016120739190614636565b604051602081830303815290604052906120c3576040517f08c379a00000000000000000000000000000000000000000000000000000000081526004016120ba91906130aa565b60405180910390fd5b50600060116000838152602001908152602001600020600101540361215457600a5434146120f2600a54611e75565b6040516020016121029190613d78565b60405160208183030381529060405290612152576040517f08c379a000000000000000000000000000000000000000000000000000000000815260040161214991906130aa565b60405180910390fd5b505b60116000828152602001908152602001600020600001600081548092919061217b90614124565b91905055506011600082815260200190815260200160002060010160008154809291906121a790614667565b919050555050565b6121b7610f0a565b156121f7576040517f08c379a00000000000000000000000000000000000000000000000000000000081526004016121ee90613b03565b60405180910390fd5b6001600660006101000a81548160ff0219169083151502179055507f62e78cea01bee320cd4e420270b5ea74000d11b0c9f74754ebdbfc544b05a25861223b6115d5565b6040516122489190613170565b60405180910390a1565b8173ffffffffffffffffffffffffffffffffffffffff168373ffffffffffffffffffffffffffffffffffffffff16036122c0576040517f08c379a00000000000000000000000000000000000000000000000000000000081526004016122b7906146dc565b60405180910390fd5b80600560008573ffffffffffffffffffffffffffffffffffffffff1673ffffffffffffffffffffffffffffffffffffffff16815260200190815260200160002060008473ffffffffffffffffffffffffffffffffffffffff1673ffffffffffffffffffffffffffffffffffffffff16815260200190815260200160002060006101000a81548160ff0219169083151502179055508173ffffffffffffffffffffffffffffffffffffffff168373ffffffffffffffffffffffffffffffffffffffff167f17307eab39ab6107e8899845ad3d59bd9653f200f220920489ca2b5937696c31836040516123b19190612ff6565b60405180910390a3505050565b6123c9848484611788565b6123d584848484612871565b612414576040517f08c379a000000000000000000000000000000000000000000000000000000000815260040161240b9061476e565b60405180910390fd5b50505050565b6060600c601160008481526020019081526020016000206000015460058110612446576124456138d2565b5b018054612452906136eb565b80601f016020809104026020016040519081016040528092919081815260200182805461247e906136eb565b80156124cb5780601f106124a0576101008083540402835291602001916124cb565b820191906000526020600020905b8154815290600101906020018083116124ae57829003601f168201915b50505050509050919050565b606060008251036124f957604051806020016040528060008152509050612635565b6000604051806060016040528060408152602001614a8860409139905060006003600285516125289190613cb0565b61253291906144d0565b600461253e9190613c56565b67ffffffffffffffff81111561255757612556613201565b5b6040519080825280601f01601f1916602001820160405280156125895781602001600182028036833780820191505090505b509050600182016020820185865187015b808210156125f5576003820191508151603f8160121c168501518453600184019350603f81600c1c168501518453600184019350603f8160061c168501518453600184019350603f811685015184536001840193505061259a565b505060038651066001811461261157600281146126245761262c565b603d6001830353603d600283035361262c565b603d60018303535b50505080925050505b919050565b60007f80ac58cd000000000000000000000000000000000000000000000000000000007bffffffffffffffffffffffffffffffffffffffffffffffffffffffff1916827bffffffffffffffffffffffffffffffffffffffffffffffffffffffff1916148061270557507f5b5e139f000000000000000000000000000000000000000000000000000000007bffffffffffffffffffffffffffffffffffffffffffffffffffffffff1916827bffffffffffffffffffffffffffffffffffffffffffffffffffffffff1916145b806127155750612714826129f8565b5b9050919050565b6127268282611144565b6127b55761274b8173ffffffffffffffffffffffffffffffffffffffff166014612a62565b6127598360001c6020612a62565b60405160200161276a929190614826565b6040516020818303038152906040526040517f08c379a00000000000000000000000000000000000000000000000000000000081526004016127ac91906130aa565b60405180910390fd5b5050565b6127c1610f0a565b15612801576040517f08c379a00000000000000000000000000000000000000000000000000000000081526004016127f890613b03565b60405180910390fd5b61280c838383612c9e565b505050565b505050565b6128208383612ca3565b61282d6000848484612871565b61286c576040517f08c379a00000000000000000000000000000000000000000000000000000000081526004016128639061476e565b60405180910390fd5b505050565b60006128928473ffffffffffffffffffffffffffffffffffffffff16612e7c565b156129eb578373ffffffffffffffffffffffffffffffffffffffff1663150b7a026128bb6115d5565b8786866040518563ffffffff1660e01b81526004016128dd94939291906148b5565b6020604051808303816000875af192505050801561291957506040513d601f19601f820116820180604052508101906129169190614916565b60015b61299b573d8060008114612949576040519150601f19603f3d011682016040523d82523d6000602084013e61294e565b606091505b506000815103612993576040517f08c379a000000000000000000000000000000000000000000000000000000000815260040161298a9061476e565b60405180910390fd5b805181602001fd5b63150b7a0260e01b7bffffffffffffffffffffffffffffffffffffffffffffffffffffffff1916817bffffffffffffffffffffffffffffffffffffffffffffffffffffffff1916149150506129f0565b600190505b949350505050565b60007f01ffc9a7000000000000000000000000000000000000000000000000000000007bffffffffffffffffffffffffffffffffffffffffffffffffffffffff1916827bffffffffffffffffffffffffffffffffffffffffffffffffffffffff1916149050919050565b606060006002836002612a759190613c56565b612a7f9190613cb0565b67ffffffffffffffff811115612a9857612a97613201565b5b6040519080825280601f01601f191660200182016040528015612aca5781602001600182028036833780820191505090505b5090507f300000000000000000000000000000000000000000000000000000000000000081600081518110612b0257612b016138d2565b5b60200101907effffffffffffffffffffffffffffffffffffffffffffffffffffffffffffff1916908160001a9053507f780000000000000000000000000000000000000000000000000000000000000081600181518110612b6657612b656138d2565b5b60200101907effffffffffffffffffffffffffffffffffffffffffffffffffffffffffffff1916908160001a90535060006001846002612ba69190613c56565b612bb09190613cb0565b90505b6001811115612c50577f3031323334353637383961626364656600000000000000000000000000000000600f861660108110612bf257612bf16138d2565b5b1a60f81b828281518110612c0957612c086138d2565b5b60200101907effffffffffffffffffffffffffffffffffffffffffffffffffffffffffffff1916908160001a905350600485901c945080612c4990614667565b9050612bb3565b5060008414612c94576040517f08c379a0000000000000000000000000000000000000000000000000000000008152600401612c8b9061498f565b60405180910390fd5b8091505092915050565b505050565b600073ffffffffffffffffffffffffffffffffffffffff168273ffffffffffffffffffffffffffffffffffffffff1603612d12576040517f08c379a0000000000000000000000000000000000000000000000000000000008152600401612d09906149fb565b60405180910390fd5b612d1b81611569565b15612d5b576040517f08c379a0000000000000000000000000000000000000000000000000000000008152600401612d5290614a67565b60405180910390fd5b612d67600083836127b9565b6001600360008473ffffffffffffffffffffffffffffffffffffffff1673ffffffffffffffffffffffffffffffffffffffff1681526020019081526020016000206000828254612db79190613cb0565b92505081905550816002600083815260200190815260200160002060006101000a81548173ffffffffffffffffffffffffffffffffffffffff021916908373ffffffffffffffffffffffffffffffffffffffff160217905550808273ffffffffffffffffffffffffffffffffffffffff16600073ffffffffffffffffffffffffffffffffffffffff167fddf252ad1be2c89b69c2b068fc378daa952ba7f163c4a11628f55a4df523b3ef60405160405180910390a4612e7860008383612811565b5050565b6000808273ffffffffffffffffffffffffffffffffffffffff163b119050919050565b828054612eab906136eb565b90600052602060002090601f016020900481019282612ecd5760008555612f14565b82601f10612ee657805160ff1916838001178555612f14565b82800160010185558215612f14579182015b82811115612f13578251825591602001919060010190612ef8565b5b509050612f219190612f25565b5090565b5b80821115612f3e576000816000905550600101612f26565b5090565b6000604051905090565b600080fd5b600080fd5b60007fffffffff0000000000000000000000000000000000000000000000000000000082169050919050565b612f8b81612f56565b8114612f9657600080fd5b50565b600081359050612fa881612f82565b92915050565b600060208284031215612fc457612fc3612f4c565b5b6000612fd284828501612f99565b91505092915050565b60008115159050919050565b612ff081612fdb565b82525050565b600060208201905061300b6000830184612fe7565b92915050565b600081519050919050565b600082825260208201905092915050565b60005b8381101561304b578082015181840152602081019050613030565b8381111561305a576000848401525b50505050565b6000601f19601f8301169050919050565b600061307c82613011565b613086818561301c565b935061309681856020860161302d565b61309f81613060565b840191505092915050565b600060208201905081810360008301526130c48184613071565b905092915050565b6000819050919050565b6130df816130cc565b81146130ea57600080fd5b50565b6000813590506130fc816130d6565b92915050565b60006020828403121561311857613117612f4c565b5b6000613126848285016130ed565b91505092915050565b600073ffffffffffffffffffffffffffffffffffffffff82169050919050565b600061315a8261312f565b9050919050565b61316a8161314f565b82525050565b60006020820190506131856000830184613161565b92915050565b6131948161314f565b811461319f57600080fd5b50565b6000813590506131b18161318b565b92915050565b600080604083850312156131ce576131cd612f4c565b5b60006131dc858286016131a2565b92505060206131ed858286016130ed565b9150509250929050565b600080fd5b600080fd5b7f4e487b7100000000000000000000000000000000000000000000000000000000600052604160045260246000fd5b61323982613060565b810181811067ffffffffffffffff8211171561325857613257613201565b5b80604052505050565b600061326b612f42565b90506132778282613230565b919050565b600067ffffffffffffffff82111561329757613296613201565b5b6132a082613060565b9050602081019050919050565b82818337600083830152505050565b60006132cf6132ca8461327c565b613261565b9050828152602081018484840111156132eb576132ea6131fc565b5b6132f68482856132ad565b509392505050565b600082601f830112613313576133126131f7565b5b81356133238482602086016132bc565b91505092915050565b60006020828403121561334257613341612f4c565b5b600082013567ffffffffffffffff8111156133605761335f612f51565b5b61336c848285016132fe565b91505092915050565b60008060006060848603121561338e5761338d612f4c565b5b600061339c868287016131a2565b93505060206133ad868287016131a2565b92505060406133be868287016130ed565b9150509250925092565b6000819050919050565b6133db816133c8565b81146133e657600080fd5b50565b6000813590506133f8816133d2565b92915050565b60006020828403121561341457613413612f4c565b5b6000613422848285016133e9565b91505092915050565b613434816133c8565b82525050565b600060208201905061344f600083018461342b565b92915050565b6000806040838503121561346c5761346b612f4c565b5b600061347a858286016133e9565b925050602061348b858286016131a2565b9150509250929050565b6000602082840312156134ab576134aa612f4c565b5b60006134b9848285016131a2565b91505092915050565b6134cb816130cc565b82525050565b60006020820190506134e660008301846134c2565b92915050565b6134f581612fdb565b811461350057600080fd5b50565b600081359050613512816134ec565b92915050565b6000806040838503121561352f5761352e612f4c565b5b600061353d858286016131a2565b925050602061354e85828601613503565b9150509250929050565b600067ffffffffffffffff82111561357357613572613201565b5b61357c82613060565b9050602081019050919050565b600061359c61359784613558565b613261565b9050828152602081018484840111156135b8576135b76131fc565b5b6135c38482856132ad565b509392505050565b600082601f8301126135e0576135df6131f7565b5b81356135f0848260208601613589565b91505092915050565b6000806000806080858703121561361357613612612f4c565b5b6000613621878288016131a2565b9450506020613632878288016131a2565b9350506040613643878288016130ed565b925050606085013567ffffffffffffffff81111561366457613663612f51565b5b613670878288016135cb565b91505092959194509250565b6000806040838503121561369357613692612f4c565b5b60006136a1858286016131a2565b92505060206136b2858286016131a2565b9150509250929050565b7f4e487b7100000000000000000000000000000000000000000000000000000000600052602260045260246000fd5b6000600282049050600182168061370357607f821691505b602082108103613716576137156136bc565b5b50919050565b7f4552433732313a20617070726f76656420717565727920666f72206e6f6e657860008201527f697374656e7420746f6b656e0000000000000000000000000000000000000000602082015250565b6000613778602c8361301c565b91506137838261371c565b604082019050919050565b600060208201905081810360008301526137a78161376b565b9050919050565b7f4552433732313a20617070726f76616c20746f2063757272656e74206f776e6560008201527f7200000000000000000000000000000000000000000000000000000000000000602082015250565b600061380a60218361301c565b9150613815826137ae565b604082019050919050565b60006020820190508181036000830152613839816137fd565b9050919050565b7f4552433732313a20617070726f76652063616c6c6572206973206e6f74206f7760008201527f6e6572206e6f7220617070726f76656420666f7220616c6c0000000000000000602082015250565b600061389c60388361301c565b91506138a782613840565b604082019050919050565b600060208201905081810360008301526138cb8161388f565b9050919050565b7f4e487b7100000000000000000000000000000000000000000000000000000000600052603260045260246000fd5b7f4552433732313a207472616e736665722063616c6c6572206973206e6f74206f60008201527f776e6572206e6f7220617070726f766564000000000000000000000000000000602082015250565b600061395d60318361301c565b915061396882613901565b604082019050919050565b6000602082019050818103600083015261398c81613950565b9050919050565b7f416363657373436f6e74726f6c3a2063616e206f6e6c792072656e6f756e636560008201527f20726f6c657320666f722073656c660000000000000000000000000000000000602082015250565b60006139ef602f8361301c565b91506139fa82613993565b604082019050919050565b60006020820190508181036000830152613a1e816139e2565b9050919050565b7f4552433732314275726e61626c653a2063616c6c6572206973206e6f74206f7760008201527f6e6572206e6f7220617070726f76656400000000000000000000000000000000602082015250565b6000613a8160308361301c565b9150613a8c82613a25565b604082019050919050565b60006020820190508181036000830152613ab081613a74565b9050919050565b7f5061757361626c653a2070617573656400000000000000000000000000000000600082015250565b6000613aed60108361301c565b9150613af882613ab7565b602082019050919050565b60006020820190508181036000830152613b1c81613ae0565b9050919050565b7f4e487b7100000000000000000000000000000000000000000000000000000000600052601160045260246000fd5b6000613b5d826130cc565b9150613b68836130cc565b925082821015613b7b57613b7a613b23565b5b828203905092915050565b600081905092915050565b7f5032443a205075726368617365642070726f6365737365732073686f756c642060008201527f6265206c657373207468616e206f7220657175616c20746f2000000000000000602082015250565b6000613bed603983613b86565b9150613bf882613b91565b603982019050919050565b6000613c0e82613011565b613c188185613b86565b9350613c2881856020860161302d565b80840191505092915050565b6000613c3f82613be0565b9150613c4b8284613c03565b915081905092915050565b6000613c61826130cc565b9150613c6c836130cc565b9250817fffffffffffffffffffffffffffffffffffffffffffffffffffffffffffffffff0483118215151615613ca557613ca4613b23565b5b828202905092915050565b6000613cbb826130cc565b9150613cc6836130cc565b9250827fffffffffffffffffffffffffffffffffffffffffffffffffffffffffffffffff03821115613cfb57613cfa613b23565b5b828201905092915050565b7f5032443a2057726f6e67207061796d656e74202d207061796d656e742073686f60008201527f756c642062653a20000000000000000000000000000000000000000000000000602082015250565b6000613d62602883613b86565b9150613d6d82613d06565b602882019050919050565b6000613d8382613d55565b9150613d8f8284613c03565b915081905092915050565b7f4552433732313a206f776e657220717565727920666f72206e6f6e657869737460008201527f656e7420746f6b656e0000000000000000000000000000000000000000000000602082015250565b6000613df660298361301c565b9150613e0182613d9a565b604082019050919050565b60006020820190508181036000830152613e2581613de9565b9050919050565b7f4552433732313a2062616c616e636520717565727920666f7220746865207a6560008201527f726f206164647265737300000000000000000000000000000000000000000000602082015250565b6000613e88602a8361301c565b9150613e9382613e2c565b604082019050919050565b60006020820190508181036000830152613eb781613e7b565b9050919050565b7f7b226e616d65223a2022506879736963616c20546f20204469676974616c222c60008201527f20226465736372697074696f6e223a202254686973206973207468652064657360208201527f6372697074696f6e206f6620506879736963616c20546f204469676974616c2060408201527f50726f6a656374222c2022696d616765223a202268747470733a2f2f6d65646960608201527f612e6e69667479676174657761792e636f6d2f766964656f2f75706c6f61642f60808201527f76313633393432313134312f416e647265612f446176696441726965772f446560a08201527f63437572617465642f4d7973746963616c5f436162617265745f2d5f4461766960c08201527f645f41726965775f315f777a646875772e706e67222c2022616e696d6174696f60e08201527f6e5f75726c223a2022000000000000000000000000000000000000000000000061010082015250565b600061402661010983613b86565b915061403182613ebe565b61010982019050919050565b7f22207d0000000000000000000000000000000000000000000000000000000000600082015250565b6000614073600383613b86565b915061407e8261403d565b600382019050919050565b600061409482614018565b91506140a08284613c03565b91506140ab82614066565b915081905092915050565b7f646174613a6170706c69636174696f6e2f6a736f6e3b6261736536342c000000600082015250565b60006140ec601d83613b86565b91506140f7826140b6565b601d82019050919050565b600061410d826140df565b91506141198284613c03565b915081905092915050565b600061412f826130cc565b91507fffffffffffffffffffffffffffffffffffffffffffffffffffffffffffffffff820361416157614160613b23565b5b600182019050919050565b7f4552433732313a206f70657261746f7220717565727920666f72206e6f6e657860008201527f697374656e7420746f6b656e0000000000000000000000000000000000000000602082015250565b60006141c8602c8361301c565b91506141d38261416c565b604082019050919050565b600060208201905081810360008301526141f7816141bb565b9050919050565b7f4552433732313a207472616e736665722066726f6d20696e636f72726563742060008201527f6f776e6572000000000000000000000000000000000000000000000000000000602082015250565b600061425a60258361301c565b9150614265826141fe565b604082019050919050565b600060208201905081810360008301526142898161424d565b9050919050565b7f4552433732313a207472616e7366657220746f20746865207a65726f2061646460008201527f7265737300000000000000000000000000000000000000000000000000000000602082015250565b60006142ec60248361301c565b91506142f782614290565b604082019050919050565b6000602082019050818103600083015261431b816142df565b9050919050565b7f5061757361626c653a206e6f7420706175736564000000000000000000000000600082015250565b600061435860148361301c565b915061436382614322565b602082019050919050565b600060208201905081810360008301526143878161434b565b9050919050565b7f5032443a20412073746167652073686f756c642062652061637469766520746f60008201527f20706572666f726d207468697320616374696f6e000000000000000000000000602082015250565b60006143ea60348361301c565b91506143f58261438e565b604082019050919050565b60006020820190508181036000830152614419816143dd565b9050919050565b7f5032443a205468652073746167652073686f756c642062652000000000000000815250565b7f20746f20706572666f726d207468697320616374696f6e000000000000000000815250565b600061447782614420565b6019820191506144878284613c03565b915061449282614446565b60178201915081905092915050565b7f4e487b7100000000000000000000000000000000000000000000000000000000600052601260045260246000fd5b60006144db826130cc565b91506144e6836130cc565b9250826144f6576144f56144a1565b5b828204905092915050565b600061450c826130cc565b9150614517836130cc565b925082614527576145266144a1565b5b828206905092915050565b7f4552433732313a2063616c6c6572206973206e6f7420746f6b656e206f776e6560008201527f72206e6f7220617070726f766564000000000000000000000000000000000000602082015250565b600061458e602e8361301c565b915061459982614532565b604082019050919050565b600060208201905081810360008301526145bd81614581565b9050919050565b7f5032443a20546865206c6576656c206f6620746865206469616d6f6e6420736860008201527f6f756c6420626520000000000000000000000000000000000000000000000000602082015250565b6000614620602883613b86565b915061462b826145c4565b602882019050919050565b600061464182614613565b915061464d8284613c03565b915061465882614446565b60178201915081905092915050565b6000614672826130cc565b91506000820361468557614684613b23565b5b600182039050919050565b7f4552433732313a20617070726f766520746f2063616c6c657200000000000000600082015250565b60006146c660198361301c565b91506146d182614690565b602082019050919050565b600060208201905081810360008301526146f5816146b9565b9050919050565b7f4552433732313a207472616e7366657220746f206e6f6e20455243373231526560008201527f63656976657220696d706c656d656e7465720000000000000000000000000000602082015250565b600061475860328361301c565b9150614763826146fc565b604082019050919050565b600060208201905081810360008301526147878161474b565b9050919050565b7f416363657373436f6e74726f6c3a206163636f756e7420000000000000000000600082015250565b60006147c4601783613b86565b91506147cf8261478e565b601782019050919050565b7f206973206d697373696e6720726f6c6520000000000000000000000000000000600082015250565b6000614810601183613b86565b915061481b826147da565b601182019050919050565b6000614831826147b7565b915061483d8285613c03565b915061484882614803565b91506148548284613c03565b91508190509392505050565b600081519050919050565b600082825260208201905092915050565b600061488782614860565b614891818561486b565b93506148a181856020860161302d565b6148aa81613060565b840191505092915050565b60006080820190506148ca6000830187613161565b6148d76020830186613161565b6148e460408301856134c2565b81810360608301526148f6818461487c565b905095945050505050565b60008151905061491081612f82565b92915050565b60006020828403121561492c5761492b612f4c565b5b600061493a84828501614901565b91505092915050565b7f537472696e67733a20686578206c656e67746820696e73756666696369656e74600082015250565b600061497960208361301c565b915061498482614943565b602082019050919050565b600060208201905081810360008301526149a88161496c565b9050919050565b7f4552433732313a206d696e7420746f20746865207a65726f2061646472657373600082015250565b60006149e560208361301c565b91506149f0826149af565b602082019050919050565b60006020820190508181036000830152614a14816149d8565b9050919050565b7f4552433732313a20746f6b656e20616c7265616479206d696e74656400000000600082015250565b6000614a51601c8361301c565b9150614a5c82614a1b565b602082019050919050565b60006020820190508181036000830152614a8081614a44565b905091905056fe4142434445464748494a4b4c4d4e4f505152535455565758595a6162636465666768696a6b6c6d6e6f707172737475767778797a303132333435363738392b2fa264697066735822122098ed37e53d5cc6874368b59eff6603b4fc2a92abe1b09a71445c24cc31fd095b64736f6c634300080e0033",
  "linkReferences": {},
  "deployedLinkReferences": {}
}