{
  "_format": "hh-sol-artifact-1",
  "contractName": "PhysicalToDigital",
  "sourceName": "contracts/PhysicalToDigital.sol",
  "abi": [
    {
      "inputs": [],
      "stateMutability": "nonpayable",
      "type": "constructor"
    },
    {
      "anonymous": false,
      "inputs": [
        {
          "indexed": true,
          "internalType": "address",
          "name": "owner",
          "type": "address"
        },
        {
          "indexed": true,
          "internalType": "address",
          "name": "approved",
          "type": "address"
        },
        {
          "indexed": true,
          "internalType": "uint256",
          "name": "tokenId",
          "type": "uint256"
        }
      ],
      "name": "Approval",
      "type": "event"
    },
    {
      "anonymous": false,
      "inputs": [
        {
          "indexed": true,
          "internalType": "address",
          "name": "owner",
          "type": "address"
        },
        {
          "indexed": true,
          "internalType": "address",
          "name": "operator",
          "type": "address"
        },
        {
          "indexed": false,
          "internalType": "bool",
          "name": "approved",
          "type": "bool"
        }
      ],
      "name": "ApprovalForAll",
      "type": "event"
    },
    {
      "anonymous": false,
      "inputs": [
        {
          "indexed": false,
          "internalType": "address",
          "name": "account",
          "type": "address"
        }
      ],
      "name": "Paused",
      "type": "event"
    },
    {
      "anonymous": false,
      "inputs": [
        {
          "indexed": true,
          "internalType": "bytes32",
          "name": "role",
          "type": "bytes32"
        },
        {
          "indexed": true,
          "internalType": "bytes32",
          "name": "previousAdminRole",
          "type": "bytes32"
        },
        {
          "indexed": true,
          "internalType": "bytes32",
          "name": "newAdminRole",
          "type": "bytes32"
        }
      ],
      "name": "RoleAdminChanged",
      "type": "event"
    },
    {
      "anonymous": false,
      "inputs": [
        {
          "indexed": true,
          "internalType": "bytes32",
          "name": "role",
          "type": "bytes32"
        },
        {
          "indexed": true,
          "internalType": "address",
          "name": "account",
          "type": "address"
        },
        {
          "indexed": true,
          "internalType": "address",
          "name": "sender",
          "type": "address"
        }
      ],
      "name": "RoleGranted",
      "type": "event"
    },
    {
      "anonymous": false,
      "inputs": [
        {
          "indexed": true,
          "internalType": "bytes32",
          "name": "role",
          "type": "bytes32"
        },
        {
          "indexed": true,
          "internalType": "address",
          "name": "account",
          "type": "address"
        },
        {
          "indexed": true,
          "internalType": "address",
          "name": "sender",
          "type": "address"
        }
      ],
      "name": "RoleRevoked",
      "type": "event"
    },
    {
      "anonymous": false,
      "inputs": [
        {
          "indexed": true,
          "internalType": "address",
          "name": "from",
          "type": "address"
        },
        {
          "indexed": true,
          "internalType": "address",
          "name": "to",
          "type": "address"
        },
        {
          "indexed": true,
          "internalType": "uint256",
          "name": "tokenId",
          "type": "uint256"
        }
      ],
      "name": "Transfer",
      "type": "event"
    },
    {
      "anonymous": false,
      "inputs": [
        {
          "indexed": false,
          "internalType": "address",
          "name": "account",
          "type": "address"
        }
      ],
      "name": "Unpaused",
      "type": "event"
    },
    {
      "inputs": [],
      "name": "DEFAULT_ADMIN_ROLE",
      "outputs": [
        {
          "internalType": "bytes32",
          "name": "",
          "type": "bytes32"
        }
      ],
      "stateMutability": "view",
      "type": "function"
    },
    {
      "inputs": [],
      "name": "MINING_PRICE",
      "outputs": [
        {
          "internalType": "uint256",
          "name": "",
          "type": "uint256"
        }
      ],
      "stateMutability": "view",
      "type": "function"
    },
    {
      "inputs": [],
      "name": "MINTER_ROLE",
      "outputs": [
        {
          "internalType": "bytes32",
          "name": "",
          "type": "bytes32"
        }
      ],
      "stateMutability": "view",
      "type": "function"
    },
    {
      "inputs": [],
      "name": "PAUSER_ROLE",
      "outputs": [
        {
          "internalType": "bytes32",
          "name": "",
          "type": "bytes32"
        }
      ],
      "stateMutability": "view",
      "type": "function"
    },
    {
      "inputs": [],
      "name": "PREPAID_PROCESSING_PRICE",
      "outputs": [
        {
          "internalType": "uint256",
          "name": "",
          "type": "uint256"
        }
      ],
      "stateMutability": "view",
      "type": "function"
    },
    {
      "inputs": [
        {
          "internalType": "address",
          "name": "to",
          "type": "address"
        },
        {
          "internalType": "uint256",
          "name": "tokenId",
          "type": "uint256"
        }
      ],
      "name": "approve",
      "outputs": [],
      "stateMutability": "nonpayable",
      "type": "function"
    },
    {
      "inputs": [
        {
          "internalType": "address",
          "name": "owner",
          "type": "address"
        }
      ],
      "name": "balanceOf",
      "outputs": [
        {
          "internalType": "uint256",
          "name": "",
          "type": "uint256"
        }
      ],
      "stateMutability": "view",
      "type": "function"
    },
    {
      "inputs": [
        {
          "internalType": "uint256",
          "name": "tokenId",
          "type": "uint256"
        }
      ],
      "name": "burn",
      "outputs": [],
      "stateMutability": "nonpayable",
      "type": "function"
    },
    {
      "inputs": [
        {
          "internalType": "uint256",
          "name": "tokenId",
          "type": "uint256"
        }
      ],
      "name": "clean",
      "outputs": [],
      "stateMutability": "payable",
      "type": "function"
    },
    {
      "inputs": [],
      "name": "completeCurrentStage",
      "outputs": [],
      "stateMutability": "nonpayable",
      "type": "function"
    },
    {
      "inputs": [
        {
          "internalType": "uint256",
          "name": "tokenId",
          "type": "uint256"
        }
      ],
      "name": "getApproved",
      "outputs": [
        {
          "internalType": "address",
          "name": "",
          "type": "address"
        }
      ],
      "stateMutability": "view",
      "type": "function"
    },
    {
      "inputs": [
        {
          "internalType": "bytes32",
          "name": "role",
          "type": "bytes32"
        }
      ],
      "name": "getRoleAdmin",
      "outputs": [
        {
          "internalType": "bytes32",
          "name": "",
          "type": "bytes32"
        }
      ],
      "stateMutability": "view",
      "type": "function"
    },
    {
      "inputs": [
        {
          "internalType": "bytes32",
          "name": "role",
          "type": "bytes32"
        },
        {
          "internalType": "address",
          "name": "account",
          "type": "address"
        }
      ],
      "name": "grantRole",
      "outputs": [],
      "stateMutability": "nonpayable",
      "type": "function"
    },
    {
      "inputs": [
        {
          "internalType": "bytes32",
          "name": "role",
          "type": "bytes32"
        },
        {
          "internalType": "address",
          "name": "account",
          "type": "address"
        }
      ],
      "name": "hasRole",
      "outputs": [
        {
          "internalType": "bool",
          "name": "",
          "type": "bool"
        }
      ],
      "stateMutability": "view",
      "type": "function"
    },
    {
      "inputs": [
        {
          "internalType": "address",
          "name": "owner",
          "type": "address"
        },
        {
          "internalType": "address",
          "name": "operator",
          "type": "address"
        }
      ],
      "name": "isApprovedForAll",
      "outputs": [
        {
          "internalType": "bool",
          "name": "",
          "type": "bool"
        }
      ],
      "stateMutability": "view",
      "type": "function"
    },
    {
      "inputs": [],
      "name": "isStageActive",
      "outputs": [
        {
          "internalType": "bool",
          "name": "",
          "type": "bool"
        }
      ],
      "stateMutability": "view",
      "type": "function"
    },
    {
      "inputs": [
        {
          "internalType": "uint256",
          "name": "processesPurchased",
          "type": "uint256"
        }
      ],
      "name": "mine",
      "outputs": [],
      "stateMutability": "payable",
      "type": "function"
    },
    {
      "inputs": [],
      "name": "name",
      "outputs": [
        {
          "internalType": "string",
          "name": "",
          "type": "string"
        }
      ],
      "stateMutability": "view",
      "type": "function"
    },
    {
      "inputs": [
        {
          "internalType": "uint256",
          "name": "tokenId",
          "type": "uint256"
        }
      ],
      "name": "ownerOf",
      "outputs": [
        {
          "internalType": "address",
          "name": "",
          "type": "address"
        }
      ],
      "stateMutability": "view",
      "type": "function"
    },
    {
      "inputs": [],
      "name": "pause",
      "outputs": [],
      "stateMutability": "nonpayable",
      "type": "function"
    },
    {
      "inputs": [],
      "name": "paused",
      "outputs": [
        {
          "internalType": "bool",
          "name": "",
          "type": "bool"
        }
      ],
      "stateMutability": "view",
      "type": "function"
    },
    {
      "inputs": [
        {
          "internalType": "uint256",
          "name": "tokenId",
          "type": "uint256"
        }
      ],
      "name": "polish",
      "outputs": [],
      "stateMutability": "payable",
      "type": "function"
    },
    {
      "inputs": [],
      "name": "processingPrice",
      "outputs": [
        {
          "internalType": "uint256",
          "name": "",
          "type": "uint256"
        }
      ],
      "stateMutability": "view",
      "type": "function"
    },
    {
      "inputs": [
        {
          "internalType": "bytes32",
          "name": "role",
          "type": "bytes32"
        },
        {
          "internalType": "address",
          "name": "account",
          "type": "address"
        }
      ],
      "name": "renounceRole",
      "outputs": [],
      "stateMutability": "nonpayable",
      "type": "function"
    },
    {
      "inputs": [
        {
          "internalType": "string",
          "name": "videoUrl",
          "type": "string"
        }
      ],
      "name": "revealStage",
      "outputs": [],
      "stateMutability": "nonpayable",
      "type": "function"
    },
    {
      "inputs": [
        {
          "internalType": "bytes32",
          "name": "role",
          "type": "bytes32"
        },
        {
          "internalType": "address",
          "name": "account",
          "type": "address"
        }
      ],
      "name": "revokeRole",
      "outputs": [],
      "stateMutability": "nonpayable",
      "type": "function"
    },
    {
      "inputs": [
        {
          "internalType": "address",
          "name": "to",
          "type": "address"
        }
      ],
      "name": "safeMint",
      "outputs": [],
      "stateMutability": "nonpayable",
      "type": "function"
    },
    {
      "inputs": [
        {
          "internalType": "address",
          "name": "from",
          "type": "address"
        },
        {
          "internalType": "address",
          "name": "to",
          "type": "address"
        },
        {
          "internalType": "uint256",
          "name": "tokenId",
          "type": "uint256"
        }
      ],
      "name": "safeTransferFrom",
      "outputs": [],
      "stateMutability": "nonpayable",
      "type": "function"
    },
    {
      "inputs": [
        {
          "internalType": "address",
          "name": "from",
          "type": "address"
        },
        {
          "internalType": "address",
          "name": "to",
          "type": "address"
        },
        {
          "internalType": "uint256",
          "name": "tokenId",
          "type": "uint256"
        },
        {
          "internalType": "bytes",
          "name": "_data",
          "type": "bytes"
        }
      ],
      "name": "safeTransferFrom",
      "outputs": [],
      "stateMutability": "nonpayable",
      "type": "function"
    },
    {
      "inputs": [
        {
          "internalType": "address",
          "name": "operator",
          "type": "address"
        },
        {
          "internalType": "bool",
          "name": "approved",
          "type": "bool"
        }
      ],
      "name": "setApprovalForAll",
      "outputs": [],
      "stateMutability": "nonpayable",
      "type": "function"
    },
    {
      "inputs": [
        {
          "internalType": "uint256",
          "name": "price",
          "type": "uint256"
        }
      ],
      "name": "setProcessingPrice",
      "outputs": [],
      "stateMutability": "nonpayable",
      "type": "function"
    },
    {
      "inputs": [],
      "name": "stage",
      "outputs": [
        {
          "internalType": "enum PhysicalToDigital.Stage",
          "name": "",
          "type": "uint8"
        }
      ],
      "stateMutability": "view",
      "type": "function"
    },
    {
      "inputs": [
        {
          "internalType": "bytes4",
          "name": "interfaceId",
          "type": "bytes4"
        }
      ],
      "name": "supportsInterface",
      "outputs": [
        {
          "internalType": "bool",
          "name": "",
          "type": "bool"
        }
      ],
      "stateMutability": "view",
      "type": "function"
    },
    {
      "inputs": [],
      "name": "symbol",
      "outputs": [
        {
          "internalType": "string",
          "name": "",
          "type": "string"
        }
      ],
      "stateMutability": "view",
      "type": "function"
    },
    {
      "inputs": [
        {
          "internalType": "uint256",
          "name": "tokenId",
          "type": "uint256"
        }
      ],
      "name": "tokenURI",
      "outputs": [
        {
          "internalType": "string",
          "name": "",
          "type": "string"
        }
      ],
      "stateMutability": "view",
      "type": "function"
    },
    {
      "inputs": [
        {
          "internalType": "address",
          "name": "from",
          "type": "address"
        },
        {
          "internalType": "address",
          "name": "to",
          "type": "address"
        },
        {
          "internalType": "uint256",
          "name": "tokenId",
          "type": "uint256"
        }
      ],
      "name": "transferFrom",
      "outputs": [],
      "stateMutability": "nonpayable",
      "type": "function"
    },
    {
      "inputs": [],
      "name": "unpause",
      "outputs": [],
      "stateMutability": "nonpayable",
      "type": "function"
    }
  ],
  "bytecode": "0x60806040523480156200001157600080fd5b506040518060400160405280601181526020017f506879736963616c546f4469676974616c0000000000000000000000000000008152506040518060400160405280600381526020017f5054440000000000000000000000000000000000000000000000000000000000815250816000908051906020019062000096929190620003e7565b508060019080519060200190620000af929190620003e7565b5050506000600660006101000a81548160ff021916908315150217905550620000e26000801b33620001b360201b60201c565b620001147f65d7a28e3265b37a6474929f336521b332c1681b933f6cb9f3376673440d862a33620001b360201b60201c565b620001467f9f2df0fed2c77648de5860a4cc508cd0818c85b8b8a1ab4ceeef8d981c8956a633620001b360201b60201c565b662386f26fc10000600a819055506000600960006101000a81548160ff021916908360038111156200017d576200017c62000497565b5b02179055506000600b60006101000a81548160ff021916908315150217905550620001ad620002a560201b60201c565b6200060f565b620001c582826200035d60201b60201c565b620002a15760016007600084815260200190815260200160002060000160008373ffffffffffffffffffffffffffffffffffffffff1673ffffffffffffffffffffffffffffffffffffffff16815260200190815260200160002060006101000a81548160ff02191690831515021790555062000246620003c860201b60201c565b73ffffffffffffffffffffffffffffffffffffffff168173ffffffffffffffffffffffffffffffffffffffff16837f2f8788117e7eff1d82e926ec794901d17c78024a50270940304540a733656f0d60405160405180910390a45b5050565b620002b5620003d060201b60201c565b15620002f8576040517f08c379a0000000000000000000000000000000000000000000000000000000008152600401620002ef9062000527565b60405180910390fd5b6001600660006101000a81548160ff0219169083151502179055507f62e78cea01bee320cd4e420270b5ea74000d11b0c9f74754ebdbfc544b05a25862000344620003c860201b60201c565b6040516200035391906200058e565b60405180910390a1565b60006007600084815260200190815260200160002060000160008373ffffffffffffffffffffffffffffffffffffffff1673ffffffffffffffffffffffffffffffffffffffff16815260200190815260200160002060009054906101000a900460ff16905092915050565b600033905090565b6000600660009054906101000a900460ff16905090565b828054620003f590620005da565b90600052602060002090601f01602090048101928262000419576000855562000465565b82601f106200043457805160ff191683800117855562000465565b8280016001018555821562000465579182015b828111156200046457825182559160200191906001019062000447565b5b50905062000474919062000478565b5090565b5b808211156200049357600081600090555060010162000479565b5090565b7f4e487b7100000000000000000000000000000000000000000000000000000000600052602160045260246000fd5b600082825260208201905092915050565b7f5061757361626c653a2070617573656400000000000000000000000000000000600082015250565b60006200050f601083620004c6565b91506200051c82620004d7565b602082019050919050565b60006020820190508181036000830152620005428162000500565b9050919050565b600073ffffffffffffffffffffffffffffffffffffffff82169050919050565b6000620005768262000549565b9050919050565b620005888162000569565b82525050565b6000602082019050620005a560008301846200057d565b92915050565b7f4e487b7100000000000000000000000000000000000000000000000000000000600052602260045260246000fd5b60006002820490506001821680620005f357607f821691505b602082108103620006095762000608620005ab565b5b50919050565b614e55806200061f6000396000f3fe60806040526004361061021a5760003560e01c80636352211e11610123578063abdfe275116100ab578063cc1169791161006f578063cc1169791461077e578063d5391393146107a9578063d547741f146107d4578063e63ab1e9146107fd578063e985e9c5146108285761021a565b8063abdfe275146106a8578063b88d4fde146106d1578063bf72b63f146106fa578063c040e6b814610716578063c87b56dd146107415761021a565b80638c8c35d1116100f25780638c8c35d1146105c157806391d14854146105ec57806395d89b4114610629578063a217fddf14610654578063a22cb4651461067f5761021a565b80636352211e14610514578063674ef0fa1461055157806370a082311461056d5780638456cb59146105aa5761021a565b806336568abe116101a657806342966c681161017557806342966c681461044e5780634d474898146104775780634e490b4a146104935780635c975abb146104be5780635ed6ac4f146104e95761021a565b806336568abe146103bc5780633f4ba83a146103e557806340d097c3146103fc57806342842e0e146104255761021a565b80630a49008d116101ed5780630a49008d146102ed57806315afd8f81461031657806323b872dd1461032d578063248a9ca3146103565780632f2ff15d146103935761021a565b806301ffc9a71461021f57806306fdde031461025c578063081812fc14610287578063095ea7b3146102c4575b600080fd5b34801561022b57600080fd5b50610246600480360381019061024191906131e0565b610865565b6040516102539190613228565b60405180910390f35b34801561026857600080fd5b50610271610877565b60405161027e91906132dc565b60405180910390f35b34801561029357600080fd5b506102ae60048036038101906102a99190613334565b610909565b6040516102bb91906133a2565b60405180910390f35b3480156102d057600080fd5b506102eb60048036038101906102e691906133e9565b61098e565b005b3480156102f957600080fd5b50610314600480360381019061030f919061355e565b610aa5565b005b34801561032257600080fd5b5061032b610ac7565b005b34801561033957600080fd5b50610354600480360381019061034f91906135a7565b610ae7565b005b34801561036257600080fd5b5061037d60048036038101906103789190613630565b610b47565b60405161038a919061366c565b60405180910390f35b34801561039f57600080fd5b506103ba60048036038101906103b59190613687565b610b67565b005b3480156103c857600080fd5b506103e360048036038101906103de9190613687565b610b88565b005b3480156103f157600080fd5b506103fa610c0b565b005b34801561040857600080fd5b50610423600480360381019061041e91906136c7565b610c40565b005b34801561043157600080fd5b5061044c600480360381019061044791906135a7565b610c91565b005b34801561045a57600080fd5b5061047560048036038101906104709190613334565b610cb1565b005b610491600480360381019061048c9190613334565b610d0d565b005b34801561049f57600080fd5b506104a8610f00565b6040516104b59190613703565b60405180910390f35b3480156104ca57600080fd5b506104d3610f06565b6040516104e09190613228565b60405180910390f35b3480156104f557600080fd5b506104fe610f1d565b60405161050b9190613228565b60405180910390f35b34801561052057600080fd5b5061053b60048036038101906105369190613334565b610f30565b60405161054891906133a2565b60405180910390f35b61056b60048036038101906105669190613334565b610fe1565b005b34801561057957600080fd5b50610594600480360381019061058f91906136c7565b611001565b6040516105a19190613703565b60405180910390f35b3480156105b657600080fd5b506105bf6110b8565b005b3480156105cd57600080fd5b506105d66110ed565b6040516105e39190613703565b60405180910390f35b3480156105f857600080fd5b50610613600480360381019061060e9190613687565b6110f8565b6040516106209190613228565b60405180910390f35b34801561063557600080fd5b5061063e611163565b60405161064b91906132dc565b60405180910390f35b34801561066057600080fd5b506106696111f5565b604051610676919061366c565b60405180910390f35b34801561068b57600080fd5b506106a660048036038101906106a1919061374a565b6111fc565b005b3480156106b457600080fd5b506106cf60048036038101906106ca9190613334565b611212565b005b3480156106dd57600080fd5b506106f860048036038101906106f3919061382b565b61122a565b005b610714600480360381019061070f9190613334565b61128c565b005b34801561072257600080fd5b5061072b6112ac565b6040516107389190613925565b60405180910390f35b34801561074d57600080fd5b5061076860048036038101906107639190613334565b6112bf565b60405161077591906132dc565b60405180910390f35b34801561078a57600080fd5b5061079361131d565b6040516107a09190613703565b60405180910390f35b3480156107b557600080fd5b506107be611328565b6040516107cb919061366c565b60405180910390f35b3480156107e057600080fd5b506107fb60048036038101906107f69190613687565b61134c565b005b34801561080957600080fd5b5061081261136d565b60405161081f919061366c565b60405180910390f35b34801561083457600080fd5b5061084f600480360381019061084a9190613940565b611391565b60405161085c9190613228565b60405180910390f35b600061087082611425565b9050919050565b606060008054610886906139af565b80601f01602080910402602001604051908101604052809291908181526020018280546108b2906139af565b80156108ff5780601f106108d4576101008083540402835291602001916108ff565b820191906000526020600020905b8154815290600101906020018083116108e257829003601f168201915b5050505050905090565b60006109148261149f565b610953576040517f08c379a000000000000000000000000000000000000000000000000000000000815260040161094a90613a52565b60405180910390fd5b6004600083815260200190815260200160002060009054906101000a900473ffffffffffffffffffffffffffffffffffffffff169050919050565b600061099982610f30565b90508073ffffffffffffffffffffffffffffffffffffffff168373ffffffffffffffffffffffffffffffffffffffff1603610a09576040517f08c379a0000000000000000000000000000000000000000000000000000000008152600401610a0090613ae4565b60405180910390fd5b8073ffffffffffffffffffffffffffffffffffffffff16610a2861150b565b73ffffffffffffffffffffffffffffffffffffffff161480610a575750610a5681610a5161150b565b611391565b5b610a96576040517f08c379a0000000000000000000000000000000000000000000000000000000008152600401610a8d90613b76565b60405180910390fd5b610aa08383611513565b505050565b6000801b610ab2816115cc565b610aba6115e0565b610ac38261160b565b5050565b6000801b610ad4816115cc565b610adc611677565b610ae46116a2565b50565b610af8610af261150b565b826116f3565b610b37576040517f08c379a0000000000000000000000000000000000000000000000000000000008152600401610b2e90613c08565b60405180910390fd5b610b428383836117d1565b505050565b600060076000838152602001908152602001600020600101549050919050565b610b7082610b47565b610b79816115cc565b610b838383611a37565b505050565b610b9061150b565b73ffffffffffffffffffffffffffffffffffffffff168173ffffffffffffffffffffffffffffffffffffffff1614610bfd576040517f08c379a0000000000000000000000000000000000000000000000000000000008152600401610bf490613c9a565b60405180910390fd5b610c078282611b18565b5050565b7f65d7a28e3265b37a6474929f336521b332c1681b933f6cb9f3376673440d862a610c35816115cc565b610c3d611bfa565b50565b7f9f2df0fed2c77648de5860a4cc508cd0818c85b8b8a1ab4ceeef8d981c8956a6610c6a816115cc565b6000610c766008611c9c565b9050610c826008611caa565b610c8c8382611cc0565b505050565b610cac8383836040518060200160405280600081525061122a565b505050565b610cc2610cbc61150b565b826116f3565b610d01576040517f08c379a0000000000000000000000000000000000000000000000000000000008152600401610cf890613d2c565b60405180910390fd5b610d0a81611cde565b50565b6000610d17611dfb565b610d2081611e4c565b6001600380811115610d3557610d346138ae565b5b610d3f9190613d7b565b821115610d696001600380811115610d5a57610d596138ae565b5b610d649190613d7b565b611f01565b604051602001610d799190613e5d565b60405160208183030381529060405290610dc9576040517f08c379a0000000000000000000000000000000000000000000000000000000008152600401610dc091906132dc565b60405180910390fd5b506000662386f26fc1000083610ddf9190613e7f565b662386f26fc10000610df19190613ed9565b9050803414610dff82611f01565b604051602001610e0f9190613fa1565b60405160208183030381529060405290610e5f576040517f08c379a0000000000000000000000000000000000000000000000000000000008152600401610e5691906132dc565b60405180910390fd5b506000610e6c6008611c9c565b9050610e786008611caa565b610e823382611cc0565b604051806040016040528060006003811115610ea157610ea06138ae565b5b815260200185815250600d600083815260200190815260200160002060008201518160000160006101000a81548160ff02191690836003811115610ee857610ee76138ae565b5b02179055506020820151816001015590505050505050565b600a5481565b6000600660009054906101000a900460ff16905090565b600b60009054906101000a900460ff1681565b6000806002600084815260200190815260200160002060009054906101000a900473ffffffffffffffffffffffffffffffffffffffff169050600073ffffffffffffffffffffffffffffffffffffffff168173ffffffffffffffffffffffffffffffffffffffff1603610fd8576040517f08c379a0000000000000000000000000000000000000000000000000000000008152600401610fcf90614035565b60405180910390fd5b80915050919050565b6002610feb611dfb565b610ff481611e4c565b610ffd82612061565b5050565b60008073ffffffffffffffffffffffffffffffffffffffff168273ffffffffffffffffffffffffffffffffffffffff1603611071576040517f08c379a0000000000000000000000000000000000000000000000000000000008152600401611068906140c7565b60405180910390fd5b600360008373ffffffffffffffffffffffffffffffffffffffff1673ffffffffffffffffffffffffffffffffffffffff168152602001908152602001600020549050919050565b7f65d7a28e3265b37a6474929f336521b332c1681b933f6cb9f3376673440d862a6110e2816115cc565b6110ea6122d5565b50565b662386f26fc1000081565b60006007600084815260200190815260200160002060000160008373ffffffffffffffffffffffffffffffffffffffff1673ffffffffffffffffffffffffffffffffffffffff16815260200190815260200160002060009054906101000a900460ff16905092915050565b606060018054611172906139af565b80601f016020809104026020016040519081016040528092919081815260200182805461119e906139af565b80156111eb5780601f106111c0576101008083540402835291602001916111eb565b820191906000526020600020905b8154815290600101906020018083116111ce57829003601f168201915b5050505050905090565b6000801b81565b61120e61120761150b565b8383612378565b5050565b6000801b61121f816115cc565b81600a819055505050565b61123b61123561150b565b836116f3565b61127a576040517f08c379a000000000000000000000000000000000000000000000000000000000815260040161127190613c08565b60405180910390fd5b611286848484846124e4565b50505050565b6001611296611dfb565b61129f81611e4c565b6112a882612061565b5050565b600960009054906101000a900460ff1681565b606060006112f36112cf84612540565b6040516020016112df91906142b2565b60405160208183030381529060405261262c565b905080604051602001611306919061432b565b604051602081830303815290604052915050919050565b662386f26fc1000081565b7f9f2df0fed2c77648de5860a4cc508cd0818c85b8b8a1ab4ceeef8d981c8956a681565b61135582610b47565b61135e816115cc565b6113688383611b18565b505050565b7f65d7a28e3265b37a6474929f336521b332c1681b933f6cb9f3376673440d862a81565b6000600560008473ffffffffffffffffffffffffffffffffffffffff1673ffffffffffffffffffffffffffffffffffffffff16815260200190815260200160002060008373ffffffffffffffffffffffffffffffffffffffff1673ffffffffffffffffffffffffffffffffffffffff16815260200190815260200160002060009054906101000a900460ff16905092915050565b60007f7965db0b000000000000000000000000000000000000000000000000000000007bffffffffffffffffffffffffffffffffffffffffffffffffffffffff1916827bffffffffffffffffffffffffffffffffffffffffffffffffffffffff1916148061149857506114978261278f565b5b9050919050565b60008073ffffffffffffffffffffffffffffffffffffffff166002600084815260200190815260200160002060009054906101000a900473ffffffffffffffffffffffffffffffffffffffff1673ffffffffffffffffffffffffffffffffffffffff1614159050919050565b600033905090565b816004600083815260200190815260200160002060006101000a81548173ffffffffffffffffffffffffffffffffffffffff021916908373ffffffffffffffffffffffffffffffffffffffff160217905550808273ffffffffffffffffffffffffffffffffffffffff1661158683610f30565b73ffffffffffffffffffffffffffffffffffffffff167f8c5be1e5ebec7d5bd14f71427d1e84f3dd0314c0f7b2291e5b200ac8c7c3b92560405160405180910390a45050565b6115dd816115d861150b565b612871565b50565b6000801b6115ed816115cc565b6001600b60006101000a81548160ff02191690831515021790555050565b6000801b611618816115cc565b81600c6000600960009054906101000a900460ff16600381111561163f5761163e6138ae565b5b6003811115611651576116506138ae565b5b815260200190815260200160002090805190602001906116729291906130d1565b505050565b6000801b611684816115cc565b6000600b60006101000a81548160ff02191690831515021790555050565b6000801b6116af816115cc565b6116c7600960009054906101000a900460ff1661290e565b600960006101000a81548160ff021916908360038111156116eb576116ea6138ae565b5b021790555050565b60006116fe8261149f565b61173d576040517f08c379a0000000000000000000000000000000000000000000000000000000008152600401611734906143bf565b60405180910390fd5b600061174883610f30565b90508073ffffffffffffffffffffffffffffffffffffffff168473ffffffffffffffffffffffffffffffffffffffff16148061178a57506117898185611391565b5b806117c857508373ffffffffffffffffffffffffffffffffffffffff166117b084610909565b73ffffffffffffffffffffffffffffffffffffffff16145b91505092915050565b8273ffffffffffffffffffffffffffffffffffffffff166117f182610f30565b73ffffffffffffffffffffffffffffffffffffffff1614611847576040517f08c379a000000000000000000000000000000000000000000000000000000000815260040161183e90614451565b60405180910390fd5b600073ffffffffffffffffffffffffffffffffffffffff168273ffffffffffffffffffffffffffffffffffffffff16036118b6576040517f08c379a00000000000000000000000000000000000000000000000000000000081526004016118ad906144e3565b60405180910390fd5b6118c18383836129eb565b6118cc600082611513565b6001600360008573ffffffffffffffffffffffffffffffffffffffff1673ffffffffffffffffffffffffffffffffffffffff168152602001908152602001600020600082825461191c9190613d7b565b925050819055506001600360008473ffffffffffffffffffffffffffffffffffffffff1673ffffffffffffffffffffffffffffffffffffffff16815260200190815260200160002060008282546119739190613ed9565b92505081905550816002600083815260200190815260200160002060006101000a81548173ffffffffffffffffffffffffffffffffffffffff021916908373ffffffffffffffffffffffffffffffffffffffff160217905550808273ffffffffffffffffffffffffffffffffffffffff168473ffffffffffffffffffffffffffffffffffffffff167fddf252ad1be2c89b69c2b068fc378daa952ba7f163c4a11628f55a4df523b3ef60405160405180910390a4611a32838383612a43565b505050565b611a4182826110f8565b611b145760016007600084815260200190815260200160002060000160008373ffffffffffffffffffffffffffffffffffffffff1673ffffffffffffffffffffffffffffffffffffffff16815260200190815260200160002060006101000a81548160ff021916908315150217905550611ab961150b565b73ffffffffffffffffffffffffffffffffffffffff168173ffffffffffffffffffffffffffffffffffffffff16837f2f8788117e7eff1d82e926ec794901d17c78024a50270940304540a733656f0d60405160405180910390a45b5050565b611b2282826110f8565b15611bf65760006007600084815260200190815260200160002060000160008373ffffffffffffffffffffffffffffffffffffffff1673ffffffffffffffffffffffffffffffffffffffff16815260200190815260200160002060006101000a81548160ff021916908315150217905550611b9b61150b565b73ffffffffffffffffffffffffffffffffffffffff168173ffffffffffffffffffffffffffffffffffffffff16837ff6391f5c32d9c69d2a47ea670b442974b53935d1edc7fd64eb21e047a839171b60405160405180910390a45b5050565b611c02610f06565b611c41576040517f08c379a0000000000000000000000000000000000000000000000000000000008152600401611c389061454f565b60405180910390fd5b6000600660006101000a81548160ff0219169083151502179055507f5db9ee0a495bf2e6ff9c91a7834c1ba4fdd244a5e8aa4e537bd38aeae4b073aa611c8561150b565b604051611c9291906133a2565b60405180910390a1565b600081600001549050919050565b6001816000016000828254019250508190555050565b611cda828260405180602001604052806000815250612a48565b5050565b6000611ce982610f30565b9050611cf7816000846129eb565b611d02600083611513565b6001600360008373ffffffffffffffffffffffffffffffffffffffff1673ffffffffffffffffffffffffffffffffffffffff1681526020019081526020016000206000828254611d529190613d7b565b925050819055506002600083815260200190815260200160002060006101000a81549073ffffffffffffffffffffffffffffffffffffffff021916905581600073ffffffffffffffffffffffffffffffffffffffff168273ffffffffffffffffffffffffffffffffffffffff167fddf252ad1be2c89b69c2b068fc378daa952ba7f163c4a11628f55a4df523b3ef60405160405180910390a4611df781600084612a43565b5050565b600b60009054906101000a900460ff16611e4a576040517f08c379a0000000000000000000000000000000000000000000000000000000008152600401611e41906145e1565b60405180910390fd5b565b806003811115611e5f57611e5e6138ae565b5b600960009054906101000a900460ff166003811115611e8157611e806138ae565b5b14611e9d826003811115611e9857611e976138ae565b5b611f01565b604051602001611ead919061464d565b60405160208183030381529060405290611efd576040517f08c379a0000000000000000000000000000000000000000000000000000000008152600401611ef491906132dc565b60405180910390fd5b5050565b606060008203611f48576040518060400160405280600181526020017f3000000000000000000000000000000000000000000000000000000000000000815250905061205c565b600082905060005b60008214611f7a578080611f6390614682565b915050600a82611f7391906146f9565b9150611f50565b60008167ffffffffffffffff811115611f9657611f95613433565b5b6040519080825280601f01601f191660200182016040528015611fc85781602001600182028036833780820191505090505b5090505b6000851461205557600182611fe19190613d7b565b9150600a85611ff0919061472a565b6030611ffc9190613ed9565b60f81b8183815181106120125761201161475b565b5b60200101907effffffffffffffffffffffffffffffffffffffffffffffffffffffffffffff1916908160001a905350600a8561204e91906146f9565b9450611fcc565b8093505050505b919050565b61207261206c61150b565b826116f3565b6120b1576040517f08c379a00000000000000000000000000000000000000000000000000000000081526004016120a8906147fc565b60405180910390fd5b6001600960009054906101000a900460ff1660038111156120d5576120d46138ae565b5b6120df9190613d7b565b600d600083815260200190815260200160002060000160009054906101000a900460ff166003811115612115576121146138ae565b5b1461214c6001600960009054906101000a900460ff16600381111561213d5761213c6138ae565b5b6121479190613d7b565b611f01565b60405160200161215c919061488e565b604051602081830303815290604052906121ac576040517f08c379a00000000000000000000000000000000000000000000000000000000081526004016121a391906132dc565b60405180910390fd5b506000600d6000838152602001908152602001600020600101540361223d57600a5434146121db600a54611f01565b6040516020016121eb9190613fa1565b6040516020818303038152906040529061223b576040517f08c379a000000000000000000000000000000000000000000000000000000000815260040161223291906132dc565b60405180910390fd5b505b612269600d600083815260200190815260200160002060000160009054906101000a900460ff1661290e565b600d600083815260200190815260200160002060000160006101000a81548160ff021916908360038111156122a1576122a06138ae565b5b0217905550600d600082815260200190815260200160002060010160008154809291906122cd906148bf565b919050555050565b6122dd610f06565b1561231d576040517f08c379a000000000000000000000000000000000000000000000000000000000815260040161231490614934565b60405180910390fd5b6001600660006101000a81548160ff0219169083151502179055507f62e78cea01bee320cd4e420270b5ea74000d11b0c9f74754ebdbfc544b05a25861236161150b565b60405161236e91906133a2565b60405180910390a1565b8173ffffffffffffffffffffffffffffffffffffffff168373ffffffffffffffffffffffffffffffffffffffff16036123e6576040517f08c379a00000000000000000000000000000000000000000000000000000000081526004016123dd906149a0565b60405180910390fd5b80600560008573ffffffffffffffffffffffffffffffffffffffff1673ffffffffffffffffffffffffffffffffffffffff16815260200190815260200160002060008473ffffffffffffffffffffffffffffffffffffffff1673ffffffffffffffffffffffffffffffffffffffff16815260200190815260200160002060006101000a81548160ff0219169083151502179055508173ffffffffffffffffffffffffffffffffffffffff168373ffffffffffffffffffffffffffffffffffffffff167f17307eab39ab6107e8899845ad3d59bd9653f200f220920489ca2b5937696c31836040516124d79190613228565b60405180910390a3505050565b6124ef8484846117d1565b6124fb84848484612aa3565b61253a576040517f08c379a000000000000000000000000000000000000000000000000000000000815260040161253190614a32565b60405180910390fd5b50505050565b6060600c6000600d600085815260200190815260200160002060000160009054906101000a900460ff16600381111561257c5761257b6138ae565b5b600381111561258e5761258d6138ae565b5b815260200190815260200160002080546125a7906139af565b80601f01602080910402602001604051908101604052809291908181526020018280546125d3906139af565b80156126205780601f106125f557610100808354040283529160200191612620565b820191906000526020600020905b81548152906001019060200180831161260357829003601f168201915b50505050509050919050565b6060600082510361264e5760405180602001604052806000815250905061278a565b6000604051806060016040528060408152602001614de0604091399050600060036002855161267d9190613ed9565b61268791906146f9565b60046126939190613e7f565b67ffffffffffffffff8111156126ac576126ab613433565b5b6040519080825280601f01601f1916602001820160405280156126de5781602001600182028036833780820191505090505b509050600182016020820185865187015b8082101561274a576003820191508151603f8160121c168501518453600184019350603f81600c1c168501518453600184019350603f8160061c168501518453600184019350603f81168501518453600184019350506126ef565b5050600386510660018114612766576002811461277957612781565b603d6001830353603d6002830353612781565b603d60018303535b50505080925050505b919050565b60007f80ac58cd000000000000000000000000000000000000000000000000000000007bffffffffffffffffffffffffffffffffffffffffffffffffffffffff1916827bffffffffffffffffffffffffffffffffffffffffffffffffffffffff1916148061285a57507f5b5e139f000000000000000000000000000000000000000000000000000000007bffffffffffffffffffffffffffffffffffffffffffffffffffffffff1916827bffffffffffffffffffffffffffffffffffffffffffffffffffffffff1916145b8061286a575061286982612c2a565b5b9050919050565b61287b82826110f8565b61290a576128a08173ffffffffffffffffffffffffffffffffffffffff166014612c94565b6128ae8360001c6020612c94565b6040516020016128bf929190614aea565b6040516020818303038152906040526040517f08c379a000000000000000000000000000000000000000000000000000000000815260040161290191906132dc565b60405180910390fd5b5050565b6000600380811115612923576129226138ae565b5b826003811115612936576129356138ae565b5b1061295260038081111561294d5761294c6138ae565b5b611f01565b6040516020016129629190614b96565b604051602081830303815290604052906129b2576040517f08c379a00000000000000000000000000000000000000000000000000000000081526004016129a991906132dc565b60405180910390fd5b5060018260038111156129c8576129c76138ae565b5b6129d29190613ed9565b60038111156129e4576129e36138ae565b5b9050919050565b6129f3610f06565b15612a33576040517f08c379a0000000000000000000000000000000000000000000000000000000008152600401612a2a90614934565b60405180910390fd5b612a3e838383612ed0565b505050565b505050565b612a528383612ed5565b612a5f6000848484612aa3565b612a9e576040517f08c379a0000000000000000000000000000000000000000000000000000000008152600401612a9590614a32565b60405180910390fd5b505050565b6000612ac48473ffffffffffffffffffffffffffffffffffffffff166130ae565b15612c1d578373ffffffffffffffffffffffffffffffffffffffff1663150b7a02612aed61150b565b8786866040518563ffffffff1660e01b8152600401612b0f9493929190614c0d565b6020604051808303816000875af1925050508015612b4b57506040513d601f19601f82011682018060405250810190612b489190614c6e565b60015b612bcd573d8060008114612b7b576040519150601f19603f3d011682016040523d82523d6000602084013e612b80565b606091505b506000815103612bc5576040517f08c379a0000000000000000000000000000000000000000000000000000000008152600401612bbc90614a32565b60405180910390fd5b805181602001fd5b63150b7a0260e01b7bffffffffffffffffffffffffffffffffffffffffffffffffffffffff1916817bffffffffffffffffffffffffffffffffffffffffffffffffffffffff191614915050612c22565b600190505b949350505050565b60007f01ffc9a7000000000000000000000000000000000000000000000000000000007bffffffffffffffffffffffffffffffffffffffffffffffffffffffff1916827bffffffffffffffffffffffffffffffffffffffffffffffffffffffff1916149050919050565b606060006002836002612ca79190613e7f565b612cb19190613ed9565b67ffffffffffffffff811115612cca57612cc9613433565b5b6040519080825280601f01601f191660200182016040528015612cfc5781602001600182028036833780820191505090505b5090507f300000000000000000000000000000000000000000000000000000000000000081600081518110612d3457612d3361475b565b5b60200101907effffffffffffffffffffffffffffffffffffffffffffffffffffffffffffff1916908160001a9053507f780000000000000000000000000000000000000000000000000000000000000081600181518110612d9857612d9761475b565b5b60200101907effffffffffffffffffffffffffffffffffffffffffffffffffffffffffffff1916908160001a90535060006001846002612dd89190613e7f565b612de29190613ed9565b90505b6001811115612e82577f3031323334353637383961626364656600000000000000000000000000000000600f861660108110612e2457612e2361475b565b5b1a60f81b828281518110612e3b57612e3a61475b565b5b60200101907effffffffffffffffffffffffffffffffffffffffffffffffffffffffffffff1916908160001a905350600485901c945080612e7b906148bf565b9050612de5565b5060008414612ec6576040517f08c379a0000000000000000000000000000000000000000000000000000000008152600401612ebd90614ce7565b60405180910390fd5b8091505092915050565b505050565b600073ffffffffffffffffffffffffffffffffffffffff168273ffffffffffffffffffffffffffffffffffffffff1603612f44576040517f08c379a0000000000000000000000000000000000000000000000000000000008152600401612f3b90614d53565b60405180910390fd5b612f4d8161149f565b15612f8d576040517f08c379a0000000000000000000000000000000000000000000000000000000008152600401612f8490614dbf565b60405180910390fd5b612f99600083836129eb565b6001600360008473ffffffffffffffffffffffffffffffffffffffff1673ffffffffffffffffffffffffffffffffffffffff1681526020019081526020016000206000828254612fe99190613ed9565b92505081905550816002600083815260200190815260200160002060006101000a81548173ffffffffffffffffffffffffffffffffffffffff021916908373ffffffffffffffffffffffffffffffffffffffff160217905550808273ffffffffffffffffffffffffffffffffffffffff16600073ffffffffffffffffffffffffffffffffffffffff167fddf252ad1be2c89b69c2b068fc378daa952ba7f163c4a11628f55a4df523b3ef60405160405180910390a46130aa60008383612a43565b5050565b6000808273ffffffffffffffffffffffffffffffffffffffff163b119050919050565b8280546130dd906139af565b90600052602060002090601f0160209004810192826130ff5760008555613146565b82601f1061311857805160ff1916838001178555613146565b82800160010185558215613146579182015b8281111561314557825182559160200191906001019061312a565b5b5090506131539190613157565b5090565b5b80821115613170576000816000905550600101613158565b5090565b6000604051905090565b600080fd5b600080fd5b60007fffffffff0000000000000000000000000000000000000000000000000000000082169050919050565b6131bd81613188565b81146131c857600080fd5b50565b6000813590506131da816131b4565b92915050565b6000602082840312156131f6576131f561317e565b5b6000613204848285016131cb565b91505092915050565b60008115159050919050565b6132228161320d565b82525050565b600060208201905061323d6000830184613219565b92915050565b600081519050919050565b600082825260208201905092915050565b60005b8381101561327d578082015181840152602081019050613262565b8381111561328c576000848401525b50505050565b6000601f19601f8301169050919050565b60006132ae82613243565b6132b8818561324e565b93506132c881856020860161325f565b6132d181613292565b840191505092915050565b600060208201905081810360008301526132f681846132a3565b905092915050565b6000819050919050565b613311816132fe565b811461331c57600080fd5b50565b60008135905061332e81613308565b92915050565b60006020828403121561334a5761334961317e565b5b60006133588482850161331f565b91505092915050565b600073ffffffffffffffffffffffffffffffffffffffff82169050919050565b600061338c82613361565b9050919050565b61339c81613381565b82525050565b60006020820190506133b76000830184613393565b92915050565b6133c681613381565b81146133d157600080fd5b50565b6000813590506133e3816133bd565b92915050565b60008060408385031215613400576133ff61317e565b5b600061340e858286016133d4565b925050602061341f8582860161331f565b9150509250929050565b600080fd5b600080fd5b7f4e487b7100000000000000000000000000000000000000000000000000000000600052604160045260246000fd5b61346b82613292565b810181811067ffffffffffffffff8211171561348a57613489613433565b5b80604052505050565b600061349d613174565b90506134a98282613462565b919050565b600067ffffffffffffffff8211156134c9576134c8613433565b5b6134d282613292565b9050602081019050919050565b82818337600083830152505050565b60006135016134fc846134ae565b613493565b90508281526020810184848401111561351d5761351c61342e565b5b6135288482856134df565b509392505050565b600082601f83011261354557613544613429565b5b81356135558482602086016134ee565b91505092915050565b6000602082840312156135745761357361317e565b5b600082013567ffffffffffffffff81111561359257613591613183565b5b61359e84828501613530565b91505092915050565b6000806000606084860312156135c0576135bf61317e565b5b60006135ce868287016133d4565b93505060206135df868287016133d4565b92505060406135f08682870161331f565b9150509250925092565b6000819050919050565b61360d816135fa565b811461361857600080fd5b50565b60008135905061362a81613604565b92915050565b6000602082840312156136465761364561317e565b5b60006136548482850161361b565b91505092915050565b613666816135fa565b82525050565b6000602082019050613681600083018461365d565b92915050565b6000806040838503121561369e5761369d61317e565b5b60006136ac8582860161361b565b92505060206136bd858286016133d4565b9150509250929050565b6000602082840312156136dd576136dc61317e565b5b60006136eb848285016133d4565b91505092915050565b6136fd816132fe565b82525050565b600060208201905061371860008301846136f4565b92915050565b6137278161320d565b811461373257600080fd5b50565b6000813590506137448161371e565b92915050565b600080604083850312156137615761376061317e565b5b600061376f858286016133d4565b925050602061378085828601613735565b9150509250929050565b600067ffffffffffffffff8211156137a5576137a4613433565b5b6137ae82613292565b9050602081019050919050565b60006137ce6137c98461378a565b613493565b9050828152602081018484840111156137ea576137e961342e565b5b6137f58482856134df565b509392505050565b600082601f83011261381257613811613429565b5b81356138228482602086016137bb565b91505092915050565b600080600080608085870312156138455761384461317e565b5b6000613853878288016133d4565b9450506020613864878288016133d4565b93505060406138758782880161331f565b925050606085013567ffffffffffffffff81111561389657613895613183565b5b6138a2878288016137fd565b91505092959194509250565b7f4e487b7100000000000000000000000000000000000000000000000000000000600052602160045260246000fd5b600481106138ee576138ed6138ae565b5b50565b60008190506138ff826138dd565b919050565b600061390f826138f1565b9050919050565b61391f81613904565b82525050565b600060208201905061393a6000830184613916565b92915050565b600080604083850312156139575761395661317e565b5b6000613965858286016133d4565b9250506020613976858286016133d4565b9150509250929050565b7f4e487b7100000000000000000000000000000000000000000000000000000000600052602260045260246000fd5b600060028204905060018216806139c757607f821691505b6020821081036139da576139d9613980565b5b50919050565b7f4552433732313a20617070726f76656420717565727920666f72206e6f6e657860008201527f697374656e7420746f6b656e0000000000000000000000000000000000000000602082015250565b6000613a3c602c8361324e565b9150613a47826139e0565b604082019050919050565b60006020820190508181036000830152613a6b81613a2f565b9050919050565b7f4552433732313a20617070726f76616c20746f2063757272656e74206f776e6560008201527f7200000000000000000000000000000000000000000000000000000000000000602082015250565b6000613ace60218361324e565b9150613ad982613a72565b604082019050919050565b60006020820190508181036000830152613afd81613ac1565b9050919050565b7f4552433732313a20617070726f76652063616c6c6572206973206e6f74206f7760008201527f6e6572206e6f7220617070726f76656420666f7220616c6c0000000000000000602082015250565b6000613b6060388361324e565b9150613b6b82613b04565b604082019050919050565b60006020820190508181036000830152613b8f81613b53565b9050919050565b7f4552433732313a207472616e736665722063616c6c6572206973206e6f74206f60008201527f776e6572206e6f7220617070726f766564000000000000000000000000000000602082015250565b6000613bf260318361324e565b9150613bfd82613b96565b604082019050919050565b60006020820190508181036000830152613c2181613be5565b9050919050565b7f416363657373436f6e74726f6c3a2063616e206f6e6c792072656e6f756e636560008201527f20726f6c657320666f722073656c660000000000000000000000000000000000602082015250565b6000613c84602f8361324e565b9150613c8f82613c28565b604082019050919050565b60006020820190508181036000830152613cb381613c77565b9050919050565b7f4552433732314275726e61626c653a2063616c6c6572206973206e6f74206f7760008201527f6e6572206e6f7220617070726f76656400000000000000000000000000000000602082015250565b6000613d1660308361324e565b9150613d2182613cba565b604082019050919050565b60006020820190508181036000830152613d4581613d09565b9050919050565b7f4e487b7100000000000000000000000000000000000000000000000000000000600052601160045260246000fd5b6000613d86826132fe565b9150613d91836132fe565b925082821015613da457613da3613d4c565b5b828203905092915050565b600081905092915050565b7f5032443a205075726368617365642070726f6365737365732073686f756c642060008201527f6265206c657373207468616e206f7220657175616c20746f2000000000000000602082015250565b6000613e16603983613daf565b9150613e2182613dba565b603982019050919050565b6000613e3782613243565b613e418185613daf565b9350613e5181856020860161325f565b80840191505092915050565b6000613e6882613e09565b9150613e748284613e2c565b915081905092915050565b6000613e8a826132fe565b9150613e95836132fe565b9250817fffffffffffffffffffffffffffffffffffffffffffffffffffffffffffffffff0483118215151615613ece57613ecd613d4c565b5b828202905092915050565b6000613ee4826132fe565b9150613eef836132fe565b9250827fffffffffffffffffffffffffffffffffffffffffffffffffffffffffffffffff03821115613f2457613f23613d4c565b5b828201905092915050565b7f5032443a2057726f6e67207061796d656e74202d207061796d656e742073686f60008201527f756c642062653a20000000000000000000000000000000000000000000000000602082015250565b6000613f8b602883613daf565b9150613f9682613f2f565b602882019050919050565b6000613fac82613f7e565b9150613fb88284613e2c565b915081905092915050565b7f4552433732313a206f776e657220717565727920666f72206e6f6e657869737460008201527f656e7420746f6b656e0000000000000000000000000000000000000000000000602082015250565b600061401f60298361324e565b915061402a82613fc3565b604082019050919050565b6000602082019050818103600083015261404e81614012565b9050919050565b7f4552433732313a2062616c616e636520717565727920666f7220746865207a6560008201527f726f206164647265737300000000000000000000000000000000000000000000602082015250565b60006140b1602a8361324e565b91506140bc82614055565b604082019050919050565b600060208201905081810360008301526140e0816140a4565b9050919050565b7f7b226e616d65223a2022506879736963616c20546f20204469676974616c222c60008201527f20226465736372697074696f6e223a202254686973206973207468652064657360208201527f6372697074696f6e206f6620506879736963616c20546f204469676974616c2060408201527f50726f6a656374222c2022696d616765223a202268747470733a2f2f6d65646960608201527f612e6e69667479676174657761792e636f6d2f766964656f2f75706c6f61642f60808201527f76313633393432313134312f416e647265612f446176696441726965772f446560a08201527f63437572617465642f4d7973746963616c5f436162617265745f2d5f4461766960c08201527f645f41726965775f315f777a646875772e706e67222c2022616e696d6174696f60e08201527f6e5f75726c223a2022000000000000000000000000000000000000000000000061010082015250565b600061424f61010983613daf565b915061425a826140e7565b61010982019050919050565b7f22207d0000000000000000000000000000000000000000000000000000000000600082015250565b600061429c600383613daf565b91506142a782614266565b600382019050919050565b60006142bd82614241565b91506142c98284613e2c565b91506142d48261428f565b915081905092915050565b7f646174613a6170706c69636174696f6e2f6a736f6e3b6261736536342c000000600082015250565b6000614315601d83613daf565b9150614320826142df565b601d82019050919050565b600061433682614308565b91506143428284613e2c565b915081905092915050565b7f4552433732313a206f70657261746f7220717565727920666f72206e6f6e657860008201527f697374656e7420746f6b656e0000000000000000000000000000000000000000602082015250565b60006143a9602c8361324e565b91506143b48261434d565b604082019050919050565b600060208201905081810360008301526143d88161439c565b9050919050565b7f4552433732313a207472616e736665722066726f6d20696e636f72726563742060008201527f6f776e6572000000000000000000000000000000000000000000000000000000602082015250565b600061443b60258361324e565b9150614446826143df565b604082019050919050565b6000602082019050818103600083015261446a8161442e565b9050919050565b7f4552433732313a207472616e7366657220746f20746865207a65726f2061646460008201527f7265737300000000000000000000000000000000000000000000000000000000602082015250565b60006144cd60248361324e565b91506144d882614471565b604082019050919050565b600060208201905081810360008301526144fc816144c0565b9050919050565b7f5061757361626c653a206e6f7420706175736564000000000000000000000000600082015250565b600061453960148361324e565b915061454482614503565b602082019050919050565b600060208201905081810360008301526145688161452c565b9050919050565b7f5032443a20412073746167652073686f756c642062652061637469766520746f60008201527f20706572666f726d207468697320616374696f6e000000000000000000000000602082015250565b60006145cb60348361324e565b91506145d68261456f565b604082019050919050565b600060208201905081810360008301526145fa816145be565b9050919050565b7f5032443a205468652073746167652073686f756c642062652000000000000000815250565b7f20746f20706572666f726d207468697320616374696f6e000000000000000000815250565b600061465882614601565b6019820191506146688284613e2c565b915061467382614627565b60178201915081905092915050565b600061468d826132fe565b91507fffffffffffffffffffffffffffffffffffffffffffffffffffffffffffffffff82036146bf576146be613d4c565b5b600182019050919050565b7f4e487b7100000000000000000000000000000000000000000000000000000000600052601260045260246000fd5b6000614704826132fe565b915061470f836132fe565b92508261471f5761471e6146ca565b5b828204905092915050565b6000614735826132fe565b9150614740836132fe565b9250826147505761474f6146ca565b5b828206905092915050565b7f4e487b7100000000000000000000000000000000000000000000000000000000600052603260045260246000fd5b7f4552433732313a2063616c6c6572206973206e6f7420746f6b656e206f776e6560008201527f72206e6f7220617070726f766564000000000000000000000000000000000000602082015250565b60006147e6602e8361324e565b91506147f18261478a565b604082019050919050565b60006020820190508181036000830152614815816147d9565b9050919050565b7f5032443a20546865206c6576656c206f6620746865206469616d6f6e6420736860008201527f6f756c6420626520000000000000000000000000000000000000000000000000602082015250565b6000614878602883613daf565b91506148838261481c565b602882019050919050565b60006148998261486b565b91506148a58284613e2c565b91506148b082614627565b60178201915081905092915050565b60006148ca826132fe565b9150600082036148dd576148dc613d4c565b5b600182039050919050565b7f5061757361626c653a2070617573656400000000000000000000000000000000600082015250565b600061491e60108361324e565b9150614929826148e8565b602082019050919050565b6000602082019050818103600083015261494d81614911565b9050919050565b7f4552433732313a20617070726f766520746f2063616c6c657200000000000000600082015250565b600061498a60198361324e565b915061499582614954565b602082019050919050565b600060208201905081810360008301526149b98161497d565b9050919050565b7f4552433732313a207472616e7366657220746f206e6f6e20455243373231526560008201527f63656976657220696d706c656d656e7465720000000000000000000000000000602082015250565b6000614a1c60328361324e565b9150614a27826149c0565b604082019050919050565b60006020820190508181036000830152614a4b81614a0f565b9050919050565b7f416363657373436f6e74726f6c3a206163636f756e7420000000000000000000600082015250565b6000614a88601783613daf565b9150614a9382614a52565b601782019050919050565b7f206973206d697373696e6720726f6c6520000000000000000000000000000000600082015250565b6000614ad4601183613daf565b9150614adf82614a9e565b601182019050919050565b6000614af582614a7b565b9150614b018285613e2c565b9150614b0c82614ac7565b9150614b188284613e2c565b91508190509392505050565b7f5032443a205468652073746167652073686f756c64206265206c65737320746860008201527f616e200000000000000000000000000000000000000000000000000000000000602082015250565b6000614b80602383613daf565b9150614b8b82614b24565b602382019050919050565b6000614ba182614b73565b9150614bad8284613e2c565b915081905092915050565b600081519050919050565b600082825260208201905092915050565b6000614bdf82614bb8565b614be98185614bc3565b9350614bf981856020860161325f565b614c0281613292565b840191505092915050565b6000608082019050614c226000830187613393565b614c2f6020830186613393565b614c3c60408301856136f4565b8181036060830152614c4e8184614bd4565b905095945050505050565b600081519050614c68816131b4565b92915050565b600060208284031215614c8457614c8361317e565b5b6000614c9284828501614c59565b91505092915050565b7f537472696e67733a20686578206c656e67746820696e73756666696369656e74600082015250565b6000614cd160208361324e565b9150614cdc82614c9b565b602082019050919050565b60006020820190508181036000830152614d0081614cc4565b9050919050565b7f4552433732313a206d696e7420746f20746865207a65726f2061646472657373600082015250565b6000614d3d60208361324e565b9150614d4882614d07565b602082019050919050565b60006020820190508181036000830152614d6c81614d30565b9050919050565b7f4552433732313a20746f6b656e20616c7265616479206d696e74656400000000600082015250565b6000614da9601c8361324e565b9150614db482614d73565b602082019050919050565b60006020820190508181036000830152614dd881614d9c565b905091905056fe4142434445464748494a4b4c4d4e4f505152535455565758595a6162636465666768696a6b6c6d6e6f707172737475767778797a303132333435363738392b2fa26469706673582212208a49d861b17c52fdd57b812ba7747192c1b7655fa74a144bd1ae6accd2d2cb6064736f6c634300080e0033",
  "linkReferences": {},
  "deployedLinkReferences": {}
}